:100000000C942D020C9457020C9457020C94570236
:100010000C9457020C9457020C9457020C945702FC
:100020000C9457020C9457020C9457020C945702EC
:100030000C9457020C9457020C9457020C945702DC
:100040000C9457020C9460A20C9457020C94570223
:100050000C9457020C9457020C9457020C94CA4605
:100060000C9457020C9431440C94A1440C94570204
:100070000C9457020C9461CC0C9457020C945702C8
:100080000C9457020C9457020C9457020C9457028C
:100090000C9457020C9457020C9457020C9457027C
:1000A0000C9457020C9457020C9457020C9457026C
:1000B0000C9457020C9457020C9457020C9457025C
:1000C0000C9457020C9457020C9457020C948D44D4
:1000D0000C9497440C9457020C9457020C945702BA
:1000E0000C94570273746172740A006F6B200A00DB
:1000F0005741524E494E473A20534552494F555366
:1001000020454550524F4D204641494C0A0046413A
:10011000494C00424547494E00454550524F4D20FD
:1001200000454550524F4D2053544F50000A494E00
:1001300056414C49444154454420434F4445530A99
:1001400000204E4F5420535550504F525445440AAE
:1001500000204D434F444520004641494C00424554
:1001600047554E00454550524F4D20524541443A67
:100170002000204641494C0020424547554E002072
:1001800056455253494F4E3A312E36204652454538
:100190005F52414D3A00204E4F5420535550504F1E
:1001A000525445440A002047434F44452000212132
:1001B000204158495320415245204E4F5420434F2F
:1001C0004E464947555245442021210A00204549C1
:1001D0004E562000204550554C4C200020494E568C
:1001E0002000204449532000206E6F206D6178204C
:1001F00000206E6F206D696E2000206E6F20656E8E
:1002000061626C652000206E6F206469722000209E
:100210006E6F20737465702000206E6F20616363C1
:10022000656C2000206E6F2073746570735F70655D
:10023000725F756E697420000001040505030304F4
:100240000506040506070100010003020100000184
:10025000020304050607070605040302010007025E
:10026000010007060504030201000302010000016A
:1002700002030405060700010203040506072C001B
:100280002C002C002C0032002C0000010001000189
:1002900000012300230023002300030103010001C8
:1002A0000001290029002900290020002000200049
:1002B000200020002000200020002600260026002C
:1002C00026002600260026002600290032003200E3
:1002D00032000901090109010901090109010901A6
:1002E000090123002300230023002F002F002F00EB
:1002F0002F002F002F002F002F00060106010601FE
:1003000006010601060106010601454550524F4D02
:10031000204F564552464C4F5700494E46494E498C
:1003200054594E414ECDCCCC3D0AD7233C17B7D1C2
:100330003877CC2B329595E6241FB14F0A00002068
:10034000410000C84200401C4620BCBE4CCA1B0EE7
:100350005AAEC59D7400407A10F35A00A0724E1830
:10036000090010A5D4E80000E87648170000E40B67
:1003700054020000CA9A3B000000E1F5050000802D
:10038000969800000040420F000000A08601000087
:1003900000102700000000E80300000000640000D7
:1003A0000000000A00000000000100000000002C16
:1003B00076D888DC674F0823DFC1DFAE59E1B1B7DB
:1003C00096E5E3E453C63AE651997696E8E6C284A8
:1003D00026EB898C9B62ED407C6FFCEFBC9C9F40C0
:1003E000F2BAA56FA5F490055A2AF75C936B6CF9E5
:1003F000676DC11BFCE0E40D47FEF520E6B500D0BB
:10040000ED902E0300943577050080841E080000CF
:10041000204E0A000000C80C333333330F986E129D
:10042000831141EF8D2114893BE65516CFFEE6DBA3
:1004300018D1844B381BF77C1D901DA4BBE42420ED
:100440003284725E228100C9F124ECA1E53D2700CF
:100450001C5248698FB7BEBD92CC11241FBECFEF8E
:10046000D1E2DEBFCDBF14E0A0E0B2E0EEE9FCEAED
:1004700001E00BBF02C007900D92A633B107D9F778
:100480001FE1A6E3B4E001C01D92AE39B107E1F768
:1004900014E0CAE5D4E004C02297FE010E9404D013
:1004A000C035D107C9F70E94C53E0C944DD60C94B7
:1004B0000000FC01A081B18112964C9112978281BB
:1004C0008F7021E030E002C0220F331F8A95E2F7DF
:1004D000822F662339F0922F80958423982B1296D1
:1004E0009C93089590E080958423982B12969C937A
:1004F0000895CF93DF93DC01742F8FB7F894AD018B
:10050000435B5C4FFA01208131818FBFA55BBC4FFB
:100510008D919C911197AB54B3402817390708F07F
:100520003BC0ED01CB5ADC4FE881F98160838881C3
:100530009981019699838883AF5ABC4F2D913C9144
:100540001197A155B3408217930799F12FB7F894EB
:10055000FA01808191810196918380832FBFED0103
:10056000CF59DC4FE881F9817193F983E883A35A6D
:10057000BC4F8D919C911197AD55B340E817F90789
:1005800071F02FB7F894FD01E75AFC4F80819181FB
:100590000196918380832FBFDF91CF910895A55A53
:1005A000BC4F8D919C911197AB55B3409983888333
:1005B000E8CFA15BBC4F8D919C911197AF54B34094
:1005C00099838883C3CF0F931F93CF93DF938B01BE
:1005D000C0919904D0919A04CE010E94F7B7BC0152
:1005E000600F711F77FD08C0CE010E94E5B7DF9153
:1005F000CF911F910F91089560E070E0CE010E94AD
:10060000E5B7DF91CF911F910F9108950F931F933D
:10061000CF93DF938B01C0919904D0919A04CE01BE
:100620000E94FBB7BC01600F711F77FD08C0CE01AF
:100630000E94E9B7DF91CF911F910F91089560E07B
:1006400070E0CE010E94E9B7DF91CF911F910F9129
:100650000895AF92BF92CF92DF92EF92FF920F93E5
:100660001F93DF93CF93CDB7DEB7C156D1400FB6FE
:10067000F894DEBF0FBECDBF7C01162F67330CF0A0
:1006800063C162330CF479C1A0905E04B0905F0442
:10069000C5010E949949882309F0BCC1AE01495B9C
:1006A0005F4F86E4DA011D928A95E9F788E58B832E
:1006B0001A821982DA01FE01319687E001900D92CB
:1006C0008150E1F789E58A8719861886DA0117963D
:1006D000FE01389687E001900D928150E1F78AE59E
:1006E000898B188A1F86DA011E96FE013F9687E0E5
:1006F00001900D928150E1F785E4888F1F8A1E8A50
:10070000DA015596FE01769687E001900D928150B0
:10071000E1F78DE48F8F1E8E1D8EDA015C96FE014F
:100720007D9687E001900D928150E1F787E48EA3DA
:100730001DA21CA2DA019396FE01B49687E00190F7
:100740000D928150E1F786E48DA71CA61BA6DA0165
:100750009A96FE01BB9687E001900D928150E1F7D9
:1007600080E58CAB1BAA1AAADA01D196FE01F2969B
:1007700087E001900D928150E1F783E58BAF1AAECF
:1007800019AEDA01D896FE01F99687E001900D9234
:100790008150E1F784E5FE01EE5BFF4F8083FE01AF
:1007A000E05CFF4F11821082DA01DF9687E0019052
:1007B0000D928150E1F78DE8C82ED12CCC0EDD1EB4
:1007C00096012A5F3F4FBE0167527F4FD901FA0160
:1007D00087E001900D928150E1F7295F3F4F495F1B
:1007E0005F4F2617370791F7F60136969E01215184
:1007F0003F4FAE0141505F4F80E090E01182108288
:1008000013821482158216828430910544F4D90132
:100810001D921D921D921C921397DA011C92019653
:1008200037962C5F3F4F4F5F5F4F8930910531F70F
:10083000F60111821082FE01EF51FF4F11821082EA
:10084000FE01ED51FF4F11821082DB011D921D92BE
:100850001D921C9213978FEF9FEFAFEFBFEFF60142
:1008600082839383A483B58380E090E0A0E0B0E02E
:10087000FE01EB51FF4F80839183A283B383FE017E
:10088000E551FF4F1082118212821382FE01ED5F4B
:10089000FE4F11821082FE01E65EFE4F1082118231
:1008A00012821382FE01E25DFE4F108211821282DB
:1008B0001382FE01EE5CFE4F1082118212821382BF
:1008C000FE01E65CFE4F1082118212821382153304
:1008D00009F405C116330CF0CFC0133309F490C1ED
:1008E00014330CF063C1123349F581E090E0A0E0CD
:1008F000B0E0F60184A795A7A6A7B7A782E090E08D
:1009000092A781A78CE893E0E80EF91E6091660437
:10091000709167048091680490916904D7012D91CA
:100920003D914D915C910E9428CDF601608B718BB9
:10093000828B938B81E090E096878587C501B60115
:100940000E943F4881E007C0673309F441C06A3321
:100950000CF49ACE80E0CF59DE4F0FB6F894DEBF8C
:100960000FBECDBFCF91DF911F910F91FF90EF9000
:10097000DF90CF90BF90AF9008956A3209F44CC0D9
:10098000613309F45DC0633229F78C0100571C4FB5
:10099000D801ED91FC9111973496ED93FC93349727
:1009A000648175818681978120E030E040E050E0ED
:1009B0000E948DCD882371F5E2E9F3E0EE0EFF1E73
:1009C000D7018D919C91F8019183808381E0C3CF01
:1009D0008C0104571C4F80E993E0E80EF91ED70103
:1009E000ED91FC91D8016D917D918D919C9120812B
:1009F0003181428153810E9428CDF8016083718347
:100A00008283938320E030E040E050E00E948DCD6F
:100A100088235CF081E09FCFFC01EC56FC4F808185
:100A200091E08927808381E096CF80E090E0A0E08C
:100A3000B0E0F80180839183A283B38381E08BCF00
:100A40008C0104571C4F80E993E0E80EF91ED70192
:100A5000ED91FC91D8016D917D918D919C912081BA
:100A60003181428153810E9429CDF80160837183D5
:100A70008283938381E06FCF183309F46DC01933FB
:100A800009F440C0163309F059CF81E090E0A0E0AE
:100A9000B0E0F60184A795A7A6A7B7A782E090E0EB
:100AA00092A781A78CE893E0E80EF91E609162049A
:100AB000709163048091640490916504D7012D9135
:100AC0003D914D915C910E9429CDF601618772871D
:100AD0008387948781E090E0978386832FCF84E596
:100AE00090E0A0E0B0E0F60185A396A3A7A3B0A78D
:100AF00082E090E093A382A3C501B6010E943F4823
:100B000081E029CF81E090E0A0E0B0E0F60184A789
:100B100095A7A6A7B7A782E090E092A781A78CE847
:100B200093E0E80EF91E60916A0470916B04809165
:100B30006C0490916D04D7012D913D914D915C9184
:100B40000E9428CDF601678B708F818F928F81E094
:100B500090E0958B848BF2CE81E090E0A0E0B0E055
:100B6000F60184A795A7A6A7B7A782E090E092A771
:100B700081A78CE893E0E80EF91E609166047091FD
:100B800067048091680490916904D7012D913D918B
:100B90004D915C910E9429CDF601608B718B828B07
:100BA000938B81E090E096878587C8CE81E090E0C6
:100BB000A0E0B0E0F60184A795A7A6A7B7A782E0BA
:100BC00090E092A781A78CE893E0E80EF91E60916F
:100BD0006204709163048091640490916504D7016C
:100BE0002D913D914D915C910E9428CDF601618738
:100BF00072878387948781E090E0978386839ECE77
:100C000081E090E0A0E0B0E0F60184A795A7A6A758
:100C1000B7A782E090E092A781A78CE893E0E80E66
:100C2000F91E60916A0470916B0480916C0490913C
:100C30006D04D7012D913D914D915C910E9429CD7C
:100C4000F601678B708F818F928F81E090E0958B9A
:100C5000848B74CECF92DF92EF92FF920F931F930B
:100C6000CF93DF93BC01DC019A968C91882359F0D5
:100C700090E0892FDF91CF911F910F91FF90EF901E
:100C8000DF90CF900895DB01ED91FC9111974281A7
:100C900012968C9112978F7021E030E0690102C0AA
:100CA000CC0CDD1C8A95E2F7C601809584238283F3
:100CB0001396ED91FC911497928115968C918F70FB
:100CC00002C0220F331F8A95E2F7822F8095892375
:100CD000822B8283EB0144E050E021E0E22EF12CF4
:100CE000AD89BE8911962C911197FA01EE0FFF1F65
:100CF000E40FF51FE60FF71F83858F7001E010E00A
:100D0000670102C0CC0CDD1C8A95E2F7C601809514
:100D1000822311968C93AD89BE8912962C911297DD
:100D200083858F70F70102C0EE0FFF1F8A95E2F7EF
:100D3000CF018095822312968C934F5F5F4F23964D
:100D40004830510569F6DB011696ED91FC91179735
:100D5000328118968C9118978F70680102C0CC0C64
:100D6000DD1C8A95E2F72C2D209523232C29228344
:100D700090962C9190972F705E96ED91FC915F97D5
:100D800030811696ED91FC911797928118968C916F
:100D90008F7002C0000F111F8A95E2F7802F809597
:100DA0008923828380913604882341F09091A703A0
:100DB0001092360481E08093A7035BCF832F90E0ED
:100DC00002C0959587952A95E2F78170907080937F
:100DD000A70381E08093360491E04BCFCF93DF935C
:100DE000DC018FB7F894AD01435B5C4FFA012081C1
:100DF00031818FBFA55BBC4F8D919C911197AB54F6
:100E0000B3402817390708F03CC0ED01CB5ADC4F3E
:100E1000E881F98181E080838881998101969983B5
:100E20008883AF5ABC4F2D913C911197A155B34087
:100E30008217930799F12FB7F894FA018081918175
:100E40000196918380832FBFED01CF59DC4FE8815C
:100E5000F9811192F983E883A35ABC4F8D919C913B
:100E60001197AD55B340E817F90771F02FB7F89413
:100E7000FD01E75AFC4F8081918101969183808327
:100E80002FBFDF91CF910895A55ABC4F8D919C91B2
:100E90001197AB55B34099838883E8CFA15BBC4FD2
:100EA0008D919C911197AF54B34099838883C3CFA0
:100EB0002F923F924F925F926F927F928F929F926A
:100EC000AF92BF92CF92DF92EF92FF920F931F9358
:100ED000CF93DF93FB014081442309F474C0DB010D
:100EE0006DE4262E63E0362E280E391E5BE4C52EF7
:100EF00053E0D52EC80ED91EBC016B5A7C4F31E58C
:100F0000832E33E0932E880E991E8C010F591C4FAF
:100F100051E02DE5A22E23E0B22EA80EB91EF9E570
:100F2000EF2EF3E0FF2EE80EF91EEBE56E2EE3E068
:100F30007E2E680E791E3FE4432E33E0532E480E7A
:100F4000591E8FB7F894E101288139818FBFF601CE
:100F5000808191812817390778F5EB018881998183
:100F6000FC01408388819981019699838883E401FB
:100F7000288139818217930709F43FC02FB7F8946D
:100F8000F101808191810196918380832FBFE801D7
:100F9000E881F9815193F983E883E501888199819A
:100FA000E817F90719F12FB7F894F70180819181BB
:100FB0000196918380832FBF11964C9111971196C2
:100FC000442309F0BECFDF91CF911F910F91FF9085
:100FD000EF90DF90CF90BF90AF909F908F907F90D9
:100FE0006F905F904F903F902F900895F301808114
:100FF0009181E80199838883D6CFF2018081918124
:10100000EB0199838883BACF2F923F924F925F92E0
:101010006F927F928F929F92AF92BF92CF92DF9208
:10102000EF92FF920F931F93DF93CF93CDB7DEB76D
:10103000CA56D0400FB6F894DEBF0FBECDBF8C01AC
:101040008B529C4F9AA389A3DC018D919C9141976F
:1010500014F40C94921195E0692E712C600E711E9F
:1010600081E0C82E82E0D82E48E4F801EE5AFC4F09
:10107000AB96FFAFEEAFAB97B0E58B2EB3E09B2EF8
:10108000800E911EB801665A7C4FA6E52A2EA3E079
:101090003A2E200E311EF6E6EF2EF3E0FF2EE00E84
:1010A000F11E51E0E2E64E2EE3E05E2E400E511EB0
:1010B0003EE5A32E33E0B32EA00EB11EC801805A28
:1010C0009C4FA3969FAF8EAFA397D801AC5ABC4F4D
:1010D000A596BFAFAEAFA5978FB7F894AB96EEAD20
:1010E000FFADAB97208131818FBFD4018D919C9151
:1010F00028173907C0F5FB0180819181DC014C93F1
:1011000080819181019691838083F10120813181D9
:101110008217930711F40C945B132FB7F894AB96D6
:10112000AEADBFADAB978D919C9111970196119685
:101130009C938E932FBFD701ED91FC911197519302
:10114000ED93FC93D2018D919C91E817F90711F46E
:101150000C9450132FB7F894F5018081918101967A
:10116000918380832FBFD6014D916D01442309F0F7
:10117000B3CFE0919904F0919A04FEA3EDA3CF01BF
:101180000E94EDB79C01F4E080309F0711F40C94AD
:10119000D214CE0101969CA38BA380E2ABA1BCA18B
:1011A0001D928A95E9F7B901882777FD8095982FD8
:1011B0004BA15CA12AE030E00E94A2D149814423E6
:1011C00011F40C94081762E0C62ED12CCC0EDD1E53
:1011D0005DE4E52E53E0F52EE60CF71C3BE4A32E70
:1011E00033E0B32EA60CB71CF301EB5AFC4FAB96C1
:1011F000FFAFEEAFAB9721E5222E23E0322E260C77
:10120000371CB3016F597C4F51E09DE5492E93E0A7
:10121000592E460C571C89E5882E83E0982E860CA3
:10122000971CC301855A9C4F6F969FAF8EAF6F97E7
:10123000D301A15BBC4FA196BFAFAEAFA1978FB753
:10124000F894F701208131818FBFD5018D919C9158
:101250002817390708F039C0AB96AEADBFADAB97D4
:10126000ED91FC91119740838D919C91119701967E
:101270008D939C93F101208131818217930711F4A2
:101280000C9484112FB7F894D7018D919C911197EC
:10129000019611969C938E932FBFDB01ED91FC91EB
:1012A00011975193ED93FC93D2018D919C91E81786
:1012B000F90711F40C9479112FB7F894F401808197
:1012C00091810196918380832FBFD6014D916D014D
:1012D000442309F0B4CFE9A1FAA18081918141971B
:1012E00014F00C94201246E050E0D8019C96ED9149
:1012F000FC919D9760818FB7F894B2E54B2EB3E0D7
:101300005B2E400E511EF201208131818FBFC8013A
:10131000805B9C4F98A78FA3DC018D919C9128172F
:10132000390708F04AC0D801A65ABC4FED91FC918C
:101330001197460F511D842F806880838D919C9159
:101340001197019611969C938E930A5A1C4FF8019F
:1013500020813181065513408217930711F40C94B4
:1013600022172FB7F894D2018D919C911197019675
:1013700011969C938E932FBF98012A593C4FD90107
:10138000ED91FC9111971192ED93FC930E591C4F26
:10139000D8018D919C9102561340E817F90711F47A
:1013A0000C9416172FB7F894F801E25AFC4F80817D
:1013B00091810196918380832FBFA6E1CA2EA2E07E
:1013C000DA2E4FE2F301EB5AFC4FAB96FFAFEEAFD4
:1013D000AB97C3018F5A9C4F69969FAF8EAF6997A9
:1013E000B3016F597C4F51E0FDE52F2EF3E03F2E06
:1013F000260C371CE9E58E2EE3E09E2E860C971C0A
:10140000D301A55ABC4F6B96BFAFAEAF6B97F3013C
:10141000E15BFC4F6D96FFAFEEAF6D978FB7F89421
:10142000D7012D913C918FBFF501808191812817C3
:10143000390708F03CC0AB96AEADBFADAB97ED91B0
:10144000FC91119740838D919C91119701968D93FA
:101450009C936996EEADFFAD69972081318182172B
:10146000930711F40C9455122FB7F894D7018D916E
:101470009C911197019611969C938E932FBFDB013F
:10148000ED91FC9111975193ED93FC93D1018D91C6
:101490009C91E817F90711F40C944A122FB7F894AD
:1014A000F401808191810196918380832FBFD601C1
:1014B0004D916D01442309F0B1CF8DA19EA10E94F1
:1014C000F7B720E2EBA1FCA111922A95E9F7A0E081
:1014D000B0E0BC01CD014BA15CA12AE030E00E944C
:1014E000A2D14981442309F480C032E0C32ED12C1B
:1014F000CC0EDD1EC3018B5A9C4FAB969FAF8EAFB7
:10150000AB97D301AF5ABC4F6396BFAFAEAF6397F3
:10151000B3016F597C4F51E02DE5222E23E0322E8E
:10152000260C371C99E5892E93E0992E860C971C82
:10153000F301E55AFC4F6596FFAFEEAF6597C30127
:10154000815B9C4F67969FAF8EAF67978FB7F8947C
:10155000D7012D913C918FBFF50180819181281792
:10156000390708F03CC0AB96AEADBFADAB97ED917F
:10157000FC91119740838D919C91119701968D93C9
:101580009C936396EEADFFAD639720813181821706
:10159000930711F40C9483122FB7F894D7018D910F
:1015A0009C911197019611969C938E932FBFDB010E
:1015B000ED91FC9111975193ED93FC93D1018D9195
:1015C0009C91E817F90711F40C9478122FB7F8944E
:1015D000F401808191810196918380832FBFD60190
:1015E0004D916D01442309F0B1CFD8019C96ED9146
:1015F000FC919D9741818FB7F894F2012081318150
:101600008FBFAFA1B8A58D919C912817390708F01D
:1016100047C0D801A65ABC4FED91FC911197406884
:1016200040838D919C911197019611969C938E9376
:101630000A5A1C4FF8012081318106551340821748
:10164000930711F40C94FD162FB7F894D2018D91E5
:101650009C911197019611969C938E932FBF9801A0
:101660002A593C4FD901ED91FC9111971192ED93BC
:10167000FC930E591C4FD8018D919C91025613403A
:10168000E817F90711F40C94F1162FB7F894F80144
:10169000E25AFC4F808191810196918380832FBF14
:1016A000E9A1FAA18081918141970CF43AC789E1BF
:1016B000C82E82E0D82E42E4BDE4EB2EB3E0FB2E30
:1016C000E60CF71CABE48A2EA3E09A2E860C971C3E
:1016D000C3018B5A9C4FAB969FAF8EAFAB97D30194
:1016E000AF5ABC4F2396BFAFAEAF2397B3016F592C
:1016F0007C4F51E0FDE52F2EF3E03F2E260C371CEA
:10170000E9E5AE2EE3E0BE2EA60CB71CF301E55AC8
:10171000FC4F2596FFAFEEAF2597C301815B9C4F31
:1017200027969FAF8EAF27978FB7F894D7012D914B
:101730003C918FBFF401808191812817390708F00F
:101740003BC0AB96AEADBFADAB97ED91FC911197A1
:1017500040838D919C91119701968D939C93239634
:10176000EEADFFAD2397208131818217930711F4ED
:101770000C942B132FB7F894D7018D919C9111974E
:10178000019611969C938E932FBFDB01ED91FC91F6
:1017900011975193ED93FC93D1018D919C91E81792
:1017A000F90709F44EC72FB7F894F50180819181AC
:1017B0000196918380832FBFD6014D916D01442303
:1017C00009F0B2CF8DA19EA10E94F2B79C01B4E0B6
:1017D00080309B0711F40C945C14FE013196FCA33D
:1017E000EBA380E211928A95E9F7B901882777FD8A
:1017F0008095982F4BA15CA12AE030E00E94A2D1F5
:101800004981442309F477C052E0C52ED12CCC0E77
:10181000DD1EC3018B5A9C4FAB969FAF8EAFAB972B
:10182000D301AF5ABC4FBCAFABAFB3016F597C4FC4
:1018300051E03DE5232E33E0332E260C371C29E5FD
:10184000A22E23E0B22EA60CB71CF301E55AFC4FE2
:10185000FEAFEDAFC301815B9C4F21969FAF8EAF72
:1018600021978FB7F894D7012D913C918FBFF40148
:101870008081918128173907C0F5AB96AEADBFAD19
:10188000AB97ED91FC91119740838D919C911197AD
:1018900001968D939C93EBADFCAD20813181821735
:1018A000930709F418C62FB7F894D7018D919C912E
:1018B0001197019611969C938E932FBFDB01ED91AA
:1018C000FC9111975193ED93FC93D1018D919C91D3
:1018D000E817F90709F4F7C52FB7F894F5018081E7
:1018E00091810196918380832FBFD6014D916D0127
:1018F000442309F0B6CFE9A1FAA1808191814197F3
:1019000014F00C94581446E050E0D8019C96ED91E8
:10191000FC919D9761818FB7F894F201208131810C
:101920008FBFAFA1B8A58D919C912817390708F0FA
:101930004AC0D801A65ABC4FED91FC911197460FB1
:10194000511D842F806880838D919C911197019601
:1019500011969C938E930A5A1C4FF8012081318175
:10196000065513408217930711F40C9439172FB7BB
:10197000F894D2018D919C911197019611969C93A8
:101980008E932FBF98012A593C4FD901ED91FC91BC
:1019900011971192ED93FC930E591C4FD8018D9124
:1019A0009C9102561340E817F90711F40C942D1777
:1019B0002FB7F894F801E25AFC4F8081918101968B
:1019C000918380832FBF96E1C92E92E0D92E4FE2FA
:1019D000F301EB5AFC4FAB96FFAFEEAFAB97C301F1
:1019E0008F5A9C4F9EAB8DABB3016F597C4F51E02A
:1019F0008DE5282E83E0382E260C371CB9E5AB2E5A
:101A0000B3E0BB2EA60CB71CD301A55ABC4FB8AF90
:101A1000AFABF301E15BFC4FFAAFE9AF8FB7F894DE
:101A2000D7012D913C918FBFF401808191812817BE
:101A30003907C0F5AB96AEADBFADAB97ED91FC915C
:101A4000119740838D919C91119701968D939C9352
:101A5000EDA9FEA9208131818217930709F4FCC406
:101A60002FB7F894D7018D919C91119701961196FB
:101A70009C938E932FBFDB01ED91FC9111975193B5
:101A8000ED93FC93D1018D919C91E817F90709F42E
:101A9000DBC42FB7F894F501808191810196918381
:101AA00080832FBFD6014D916D01442309F0B6CF3D
:101AB0008DA19EA10E94FBB720E2EBA1FCA1119297
:101AC0002A95E9F7A0E0B0E0BC01CD014BA15CA1F3
:101AD0002AE030E00E94A2D14981442309F475C074
:101AE000A2E0CA2ED12CCC0EDD1EC3018B5A9C4F16
:101AF000AB969FAF8EAFAB97D301AF5ABC4FB8AB8D
:101B0000AFA7B3016F597C4F51E0FDE52F2EF3E0F5
:101B10003F2E260C371CE9E5AE2EE3E0BE2EA60CC8
:101B2000B71CF301E55AFC4FFAABE9ABC301815B8B
:101B30009C4F9CAB8BAB8FB7F894D7012D913C9108
:101B40008FBFF4018081918128173907C0F5AB96CA
:101B5000AEADBFADAB97ED91FC91119740838D91E8
:101B60009C91119701968D939C93EFA5F8A92081E4
:101B700031818217930709F482C42FB7F894D701F3
:101B80008D919C911197019611969C938E932FBFE6
:101B9000DB01ED91FC9111975193ED93FC93D101F1
:101BA0008D919C91E817F90709F461C42FB7F89457
:101BB000F501808191810196918380832FBFD601A9
:101BC0004D916D01442309F0B6CFE9A1FAA18081BE
:101BD000918141970CF02FC54CE050E0D8019C96C4
:101BE000ED91FC919D9760818FB7F894F20120816F
:101BF00031818FBFAFA1B8A58D919C91281739076E
:101C000008F04AC0D801A65ABC4FED91FC9111973B
:101C1000460F511D842F806880838D919C91119770
:101C2000019611969C938E930A5A1C4FF8012081BD
:101C30003181065513408217930711F40C94E61670
:101C40002FB7F894D2018D919C911197019611961E
:101C50009C938E932FBF98012A593C4FD901ED9147
:101C6000FC9111971192ED93FC930E591C4FD801E2
:101C70008D919C9102561340E817F90711F40C94CA
:101C8000DA162FB7F894F801E25AFC4F808191815F
:101C90000196918380832FBF8FB7F894F201208142
:101CA00031818FBFAFA1B8A58D919C9128173907BD
:101CB00008F047C0D801A65ABC4FED91FC9111978E
:101CC00010828D919C911197019611969C938E9301
:101CD0000A5A1C4FF80120813181065513408217A2
:101CE000930711F40C94CF162FB7F894D2018D916D
:101CF0009C911197019611969C938E932FBF9801FA
:101D00002A593C4FD901ED91FC91119781E08193C3
:101D1000ED93FC930E591C4FD8018D919C91025666
:101D20001340E817F90711F40C94C3162FB7F89471
:101D3000F801E25AFC4F8081918101969183808362
:101D40002FBF8FB7F894F201208131818FBFAFA1EF
:101D5000B8A58D919C912817390708F048C0D80183
:101D6000A65ABC4FED91FC91119782E080838D9132
:101D70009C911197019611969C938E930A5A1C4F31
:101D8000F80120813181065513408217930711F421
:101D90000C94B8162FB7F894D2018D919C9111979D
:101DA000019611969C938E932FBF98012A593C4F10
:101DB000D901ED91FC91119781E08193ED93FC9312
:101DC0000E591C4FD8018D919C9102561340E81773
:101DD000F90711F40C94AC162FB7F894F801E25AF5
:101DE000FC4F808191810196918380832FBF8FB7B3
:101DF000F894F201208131818FBFAFA1B8A58D91F8
:101E00009C912817390708F047C0D801A65ABC4F43
:101E1000ED91FC91119784E080838D919C911197B5
:101E2000019611969C938E930A5A1C4FF8012081BB
:101E30003181065513408217930711F40C94A116B3
:101E40002FB7F894D2018D919C911197019611961C
:101E50009C938E932FBF98012A593C4FD901ED9145
:101E6000FC91119781E08193ED93FC930E591C4FE7
:101E7000D8018D919C9102561340E817F90709F497
:101E800055C72FB7F894F801E25AFC4F8081918131
:101E90000196918380832FBF8FB7F894F201208140
:101EA00031818FBFAFA1B8A58D919C9128173907BB
:101EB00008F046C0D801A65ABC4FED91FC9111978D
:101EC00086E080838D919C911197019611969C9349
:101ED0008E930A5A1C4FF801208131810655134018
:101EE0008217930709F418C72FB7F894D2018D9180
:101EF0009C911197019611969C938E932FBF9801F8
:101F00002A593C4FD901ED91FC91119781E08193C1
:101F1000ED93FC930E591C4FD8018D919C91025664
:101F20001340E817F90709F4ECC62FB7F894F80145
:101F3000E25AFC4F808191810196918380832FBF6B
:101F4000E9A1FAA18081918141970CF077C34CE01F
:101F500050E0D8019C96ED91FC919D9761818FB7DF
:101F6000F894F201208131818FBFAFA1B8A58D9186
:101F70009C912817390708F048C0D801A65ABC4FD1
:101F8000ED91FC911197460F511D842F806880833D
:101F90008D919C911197019611969C938E930A5A5C
:101FA0001C4FF80120813181065513408217930799
:101FB00009F49DC62FB7F894D2018D919C91119789
:101FC000019611969C938E932FBF98012A593C4FEE
:101FD000D901ED91FC9111971192ED93FC930E595B
:101FE0001C4FD8018D919C9102561340E817F907B8
:101FF00009F472C62FB7F894F801E25AFC4F8081B9
:1020000091810196918380832FBF8FB7F894F2015D
:10201000208131818FBFAFA1B8A58D919C912817E8
:10202000390708F046C0D801A65ABC4FED91FC9183
:10203000119781E080838D919C9111970196119663
:102040009C938E930A5A1C4FF801208131810655CA
:1020500013408217930709F435C62FB7F894D201BD
:102060008D919C911197019611969C938E932FBF01
:1020700098012A593C4FD901ED91FC91119781E0CB
:102080008193ED93FC930E591C4FD8018D919C9137
:1020900002561340E817F90709F409C62FB7F89458
:1020A000F801E25AFC4F80819181019691838083EF
:1020B0002FBF8FB7F894F201208131818FBFAFA17C
:1020C000B8A58D919C912817390708F046C0D80112
:1020D000A65ABC4FED91FC91119783E080838D91BE
:1020E0009C911197019611969C938E930A5A1C4FBE
:1020F000F80120813181065513408217930709F4B6
:10210000CCC52FB7F894D2018D919C91119701966F
:1021100011969C938E932FBF98012A593C4FD90159
:10212000ED91FC91119781E08193ED93FC930E5911
:102130001C4FD8018D919C9102561340E817F90766
:1021400009F4A0C52FB7F894F801E25AFC4F80813A
:1021500091810196918380832FBF8FB7F894F2010C
:10216000208131818FBFAFA1B8A58D919C91281797
:10217000390708F046C0D801A65ABC4FED91FC9132
:10218000119785E080838D919C911197019611960E
:102190009C938E930A5A1C4FF80120813181065579
:1021A00013408217930709F463C52FB7F894D2013F
:1021B0008D919C911197019611969C938E932FBFB0
:1021C00098012A593C4FD901ED91FC91119781E07A
:1021D0008193ED93FC930E591C4FD8018D919C91E6
:1021E00002561340E817F90709F437C52FB7F894DA
:1021F000F801E25AFC4F808191810196918380839E
:102200002FBF8FB7F894F201208131818FBFAFA12A
:10221000B8A58D919C912817390708F046C0D801C0
:10222000A65ABC4FED91FC91119787E080838D9168
:102230009C911197019611969C938E930A5A1C4F6C
:10224000F80120813181065513408217930709F464
:10225000FAC42FB7F894D2018D919C9111970196F1
:1022600011969C938E932FBF98012A593C4FD90108
:10227000ED91FC91119781E08193ED93FC930E59C0
:102280001C4FD8018D919C9102561340E817F90715
:1022900009F4CEC42FB7F894F801E25AFC4F8081BC
:1022A00091810196918380832FBF09521C4FF801C1
:1022B00080819181075D134004970CF01BC2C659C1
:1022C000DF4F0FB6F894DEBF0FBECDBFCF91DF91C9
:1022D0001F910F91FF90EF90DF90CF90BF90AF9044
:1022E0009F908F907F906F905F904F903F902F9036
:1022F00008956F96EEADFFAD6F9780819181DB0100
:102300008D939C930C945C09A196AEADBFADA19743
:102310008D919C91AB96EEADFFADAB979183808391
:102320000C94420925E0622E712C600E711E9AE019
:10233000C92E92E0D92E48E4F801EE5AFC4FAB9634
:10234000FFAFEEAFAB9780E5882E83E0982E800E2E
:10235000911EB801665A7C4FB6E52B2EB3E03B2E9A
:10236000200E311EA6E6EA2EA3E0FA2EE00EF11EA4
:1023700051E0F2E64F2EF3E05F2E400E511EEEE5E7
:10238000AE2EE3E0BE2EA00EB11EC801805A9C4FB7
:10239000A7969FAF8EAFA797D801AC5ABC4FA9960E
:1023A000BFAFAEAFA9978FB7F894AB96EEADFFADC8
:1023B000AB97208131818FBFD4018D919C912817DB
:1023C0003907B0F5FB0180819181DC014C9380815C
:1023D0009181019691838083F1012081318182175F
:1023E000930709F47DC12FB7F894AB96AEADBFAD9E
:1023F000AB978D919C911197019611969C938E931A
:102400002FBFD701ED91FC9111975193ED93FC9360
:10241000D2018D919C91E817F90709F457C12FB7A4
:10242000F894F501808191810196918380832FBF7B
:10243000D6014D916D01442309F0B5CF0C94B90834
:102440004BE050E00C947509EFA9F8AD80819181C3
:10245000DB018D939C931DCBA9ADBAAD8D919C9161
:10246000AB96EEADFFADAB9791838083F9CAE9A936
:10247000FAA980819181DB018D939C9397CBABA9C5
:10248000BCA98D919C91AB96EEADFFADAB979183BE
:10249000808373CB6B96EEADFFAD6B97808191819E
:1024A000DB018D939C930C944E0A6D96AEADBFAD3F
:1024B0006D978D919C91AB96EEADFFADAB979183EF
:1024C00080830C94340AEDADFEAD80819181DB01F7
:1024D0008D939C9301CA2196AEADBFAD21978D918E
:1024E0009C91AB96EEADFFADAB9791838083DBC93A
:1024F0006596EEADFFAD659780819181DB018D938F
:102500009C930C94E60A6796AEADBFAD67978D912C
:102510009C91AB96EEADFFADAB97918380830C940D
:10252000CC0A32E2C32E32E0D32E42E42DE4E22E76
:1025300023E0F22EE60CF71C9BE4892E93E0992E03
:10254000860C971CF301EB5AFC4FAB96FFAFEEAF36
:10255000AB97C3018F5A9C4F29969FAF8EAF299797
:10256000B3016F597C4F51E08DE5282E83E0382E62
:10257000260C371CB9E5AB2EB3E0BB2EA60CB71C5E
:10258000D301A55ABC4F2B96BFAFAEAF2B97F3012B
:10259000E15BFC4F2D96FFAFEEAF2D978FB7F89410
:1025A000D7012D913C918FBFF40180819181281733
:1025B000390708F039C0AB96AEADBFADAB97ED9122
:1025C000FC91119740838D919C91119701968D9369
:1025D0009C932996EEADFFAD29972081318182171A
:1025E000930709F450C02FB7F894D7018D919C91AF
:1025F0001197019611969C938E932FBFDB01ED915D
:10260000FC9111975193ED93FC93D1018D919C9185
:10261000E817F90771F12FB7F894F50180819181DE
:102620000196918380832FBFD6014D916D01442384
:1026300009F0B4CFC7C840E150E0D0CA40E150E053
:1026400088CC2596EEADFFAD259780819181DB0189
:102650008D939C93A8C82796AEADBFAD27978D915B
:102660009C91AB96EEADFFADAB97918380830C94BC
:10267000BA0B2B96EEADFFAD2B9780819181DB01DC
:102680008D939C93C8CF2D96AEADBFAD2D978D91F8
:102690009C91AB96EEADFFADAB9791838083A3CFBA
:1026A000A396EEADFFADA39780819181D7018D9365
:1026B0009C930C94AA08A596AEADBFADA5978D913D
:1026C0009C91FB01918380830C948D08A796EEADBD
:1026D000FFADA79780819181D7018D939C939FCE69
:1026E000A996AEADBFADA9978D919C91FB01918349
:1026F000808379CED8019C96ED91FC919D97438182
:102700008FB7F894F201208131818FBFAFA1B8A5B6
:102710008D919C912817390708F045C0D801A65A19
:10272000BC4FED91FC911197406840838D919C9135
:102730001197019611969C938E930A5A1C4FF8019B
:1027400020813181065513408217930709F49CC3F9
:102750002FB7F894D2018D919C9111970196119603
:102760009C938E932FBF98012A593C4FD901ED912C
:10277000FC9111971192ED93FC930E591C4FD801C7
:102780008D919C9102561340E817F90709F486C30E
:102790002FB7F894F801E25AFC4F8081918101969D
:1027A000918380832FBFE9A1FAA180819181419714
:1027B0000CF0B2C107E312E043E5F301EB5AFC4F22
:1027C000AB96FFAFEEAFAB97B1E5AB2EB3E0BB2E50
:1027D000A60CB71CB3016F597C4F51E0ADE54A2EF2
:1027E000A3E05A2E460C571CF9E5CF2EF3E0DF2E5E
:1027F000C60CD71CEBE52E2EE3E03E2E260C371C34
:102800008FE493E0680E791E28C02FB7F894D701A3
:102810008D919C911197019611969C938E932FBF49
:10282000DB01ED91FC9111975193ED93FC93D20153
:102830008D919C91E817F90709F4ECC12FB7F89432
:10284000F601808191810196918380832FBFD80109
:102850004D918D01442309F432CD8FB7F894D701FF
:102860002D913C918FBFF401808191812817390708
:1028700070F7AB96AEADBFADAB97ED91FC911197F4
:1028800040838D919C91119701968D939C93F501B6
:10289000208131818217930709F0B7CFD3018D9141
:1028A0009C91AB96EEADFFADAB9791838083ADCF9E
:1028B0004BE050E00C94850CADE0CA2EA2E0DA2E7D
:1028C0004DE4F301EB5AFC4FAB96FFAFEEAFAB9785
:1028D000F1E52F2EF3E03F2E260C371CB3016F5984
:1028E0007C4F51E0C301835A9C4F9AA789A7E9E521
:1028F000AE2EE3E0BE2EA60CB71CD301A55ABC4FEA
:10290000BCA7ABA7F301E15BFC4FFEA7EDA78FB718
:10291000F894D7012D913C918FBFF4018081918172
:1029200028173907C0F5AB96AEADBFADAB97ED91AB
:10293000FC91119740838D919C91119701968D93F5
:102940009C93F101208131818217930709F4C5C05E
:102950002FB7F894D7018D919C91119701961196FC
:102960009C938E932FBFDB01ED91FC9111975193B6
:10297000ED93FC93A9A5BAA58D919C91E817F90751
:1029800009F4A3C02FB7F894F501808191810196D5
:10299000918380832FBFD6014D916D01442309F0AF
:1029A000B6CF13C93DE0C32E32E0D32E4DE4C301B0
:1029B000835B9C4FAB969FAF8EAFAB972BE4822E81
:1029C00023E0922E860C971CB3016B5A7C4F91E545
:1029D000492E93E0592E460C571C81E6E82E83E0E1
:1029E000F82EE60CF71C51E0BDE52B2EB3E03B2E94
:1029F000260C371CA9E5AA2EA3E0BA2EA60CB71CFC
:102A0000D301A55ABC4F2F96BFAFAEAF2F97F3019E
:102A1000E15BFC4F6196FFAFEEAF61978FB7F89423
:102A2000AB96AEADBFADAB972D913C918FBFF4018E
:102A30008081918128173907A8F5DB018D919C9140
:102A40001197FC0140838D919C91119701968D9374
:102A50009C93D2012D913C918217930709F452C0A7
:102A60002FB7F894AB96EEADFFADAB978081918117
:102A70000196918380832FBFD701ED91FC9111972F
:102A80005193ED93FC93D1018D919C91E817F90737
:102A900079F12FB7F894F5018081918101969183A6
:102AA00080832FBFD6014D916D01442309F0B6CF2D
:102AB000F2E54F2EF3E05F2E400E511EF801E05B71
:102AC000FC4FF8A7EFA30C94F50AEBA5FCA58081B9
:102AD0009181DB018D939C9355CFADA5BEA58D91C2
:102AE0009C91AB96EEADFFADAB979183808330CFD9
:102AF0002F96EEADFFAD2F9780819181D7018D93F9
:102B00009C93C7CF6196EEADFFAD619780819181B7
:102B1000DB018D939C93A4CF05E212E043E5C30152
:102B20008B5A9C4FAB969FAF8EAFAB9731E5A32EE0
:102B300033E0B32EA60CB71CB3016F597C4F51E0A4
:102B40002DE5422E23E0522E460C571C99E5C92E46
:102B500093E0D92EC60CD71C8BE5282E83E0382EA7
:102B6000260C371CAFE4B3E06A0E7B1E28C02FB7DB
:102B7000F894D7018D919C911197019611969C9391
:102B80008E932FBFDB01ED91FC9111975193ED9343
:102B9000FC93D2018D919C91E817F90709F441C08B
:102BA0002FB7F894F60180819181019691838083FB
:102BB0002FBFD8014D918D01442309F480CB8FB7ED
:102BC000F894F701208131818FBFD4018D919C91C0
:102BD0002817390770F7AB96AEADBFADAB97ED9147
:102BE000FC91119740838D919C91119701968D9343
:102BF0009C93F501208131818217930709F0B7CFAB
:102C0000D3018D919C91AB96EEADFFADAB979183C7
:102C10008083ADCFF10180819181DB018D939C9305
:102C20000DCEF10180819181DB018D939C93B8CF12
:102C3000005A1C4FF8018081918100561340D90140
:102C40008D939C9327CB0C5A1C4FF8018081918166
:102C5000045513408D939C93FCCA005A1C4FF801F5
:102C60008081918100561340D9018D939C93BECAF7
:102C70000C5A1C4FF80180819181045513408D93AB
:102C80009C9393CA005A1C4FF80180819181005691
:102C90001340D9018D939C9355CA0C5A1C4FF801CF
:102CA00080819181045513408D939C932ACA005AC8
:102CB0001C4FF8018081918100561340D9018D93FA
:102CC0009C93ECC90C5A1C4FF801808191810455EA
:102CD00013408D939C93C1C9005A1C4FF801808109
:102CE000918100561340D9018D939C9383C90C5A4E
:102CF0001C4FF80180819181045513408D939C9362
:102D000059C9005A1C4FF801808191810056134027
:102D1000D9018D939C9309C90C5A1C4FF8018081ED
:102D20009181045513408D939C93DEC8005A1C4F2B
:102D3000F8018081918100561340D9018D939C93B5
:102D4000A0C80C5A1C4FF801808191810455134092
:102D50008D939C930C94200F005A1C4FF801808196
:102D6000918100561340D9018D939C930C94EC0EE5
:102D70000C5A1C4FF80180819181045513408D93AA
:102D80009C930C94CA0E005A1C4FF80180819181CB
:102D900000561340D9018D939C930C94960E0C5AB7
:102DA0001C4FF80180819181045513408D939C93B1
:102DB0000C94740E005A1C4FF801808191810056CA
:102DC0001340D9018D939C930C94410E0C5A1C4FC7
:102DD000F80180819181045513408D939C930C944C
:102DE000200E005A1C4FF80180819181005613403B
:102DF000D9018D939C930C94450B0C5A1C4FF801F0
:102E000080819181045513408D939C930C94240BE5
:102E1000EDE4EE2EE3E0FE2EE60CF71C7BE4A72E9D
:102E200073E0B72EA60CB71C0C946B09005A1C4F0C
:102E3000F8018081918100561340D9018D939C93B4
:102E40000C94D2090C5A1C4FF801808191810455D1
:102E500013408D939C930C94B109005A1C4FF801B8
:102E60008081918100561340D9018D939C930C94DD
:102E7000D80C0C5A1C4FF8018081918104551340E5
:102E80008D939C930C94B70C0C5A1C4FF8018081C5
:102E90009181045513408D939C935ACC005A1C4F3A
:102EA000F8018081918100561340D9018D939C9344
:102EB0006FCC2F923F924F925F926F927F928F9240
:102EC0009F92AF92BF92CF92DF92EF92FF920F93B9
:102ED0001F93DF93CF93CDB7DEB76E970FB6F894FD
:102EE000DEBF0FBECDBF7C0128E833E0E20EF31E4B
:102EF00081E090E0D7018D939C93E8E7FCEFEE0E24
:102F0000FF1EA5E0CA2ED12CCE0CDF1C8FB7F89483
:102F1000F2E52F2EF3E03F2E2E0C3F1CD1012D9118
:102F20003C918FBFF701E05BFC4FFC83EB8380811A
:102F300091812817390708F04DC0D701A65ABC4F18
:102F4000ED91FC91119781E080838D919C91119777
:102F5000019611969C938E9326E533E0E20EF31EC4
:102F6000F701208131814AEA5CEFE40EF51E8217F9
:102F7000930709F41EC62FB7F894D1018D919C9147
:102F80001197019611969C938E932FBFA7014A59D2
:102F90005C4FDA01ED91FC9111971192ED93FC9346
:102FA00022E633E0E20EF31ED7018D919C912EE9CB
:102FB0003CEFE20EF31EE817F90709F408C62FB735
:102FC000F894F701E25AFC4F808191810196918338
:102FD00080832FBF0E94DF3F882309F0EFC10E944A
:102FE000E53FFC018081882309F47EC463E572E03B
:102FF00043E58601035B1C4F5BE4852E53E0952E71
:103000008C0C9D1CF601EB5AFC4FFE8FED8F31E5C9
:10301000432E33E0532E4C0C5D1C96012F593C4F30
:103020003C8F2B8F51E02DE5622E23E0722E6C0C2D
:103030007D1C99E5A92E93E0B92EAC0CBD1CC601F0
:10304000855A9C4F988F8F8BD601A15BBC4FBA8F4E
:10305000A98F8FB7F894F801208131818FBFD401F7
:103060008D919C9128173907B0F5AD8DBE8DED91EE
:10307000FC91119740838D919C91119701968D93AE
:103080009C93F201208131818217930709F400C4D7
:103090002FB7F894D8018D919C91119701961196B4
:1030A0009C938E932FBFAB8DBC8DED91FC911197AE
:1030B0005193ED93FC93D3018D919C91E817F907FF
:1030C00009F4DDC32FB7F894F50180819181019651
:1030D000918380832FBFDB014D91BD01442309F013
:1030E000B8CFD7019C96ED91FC919D9741818FB708
:1030F000F894F101208131818FBFAB81BC818D912A
:103100009C912817390708F04DC0D701A65ABC4F2B
:10311000ED91FC911197406840838D919C9111979E
:10312000019611969C938E93E6E5F3E0EE0EFF1E5A
:10313000F701208131814AEA5CEFE40EF51E821727
:10314000930709F417C62FB7F894D1018D919C917C
:103150001197019611969C938E932FBFA7014A5900
:103160005C4FDA01ED91FC9111971192ED93FC9374
:1031700022E633E0E20EF31ED7018D919C912EE9F9
:103180003CEFE20EF31EE817F90709F4E4C52FB788
:10319000F894F701E25AFC4F808191810196918366
:1031A00080832FBF62E672E04EE3F601EB5AFC4FDC
:1031B000FE8FED8F81E5482E83E0582E4C0C5D1C70
:1031C00096012F593C4F3C8F2B8F51E0BDE56B2E64
:1031D000B3E07B2E6C0C7D1CA9E5AA2EA3E0BA2ED1
:1031E000AC0CBD1CC601855A9C4F9C8B8B8BD601A9
:1031F000A15BBC4FBE8BAD8B8FB7F894F8012081DB
:1032000031818FBFD4018D919C9128173907B0F57A
:10321000AD8DBE8DED91FC91119740838D919C9168
:10322000119701968D939C93F20120813181821731
:10323000930709F40AC32FB7F894D8018D919C9194
:103240001197019611969C938E932FBFAB8DBC8DD9
:10325000ED91FC9111975193ED93FC93D3018D91D6
:103260009C91E817F90709F4E7C22FB7F894F50124
:10327000808191810196918380832FBFDB014D91E5
:10328000BD01442309F0B8CF0E94E53FFC01408115
:10329000442309F46FC0DC01F601EB5AFC4FFC8FAC
:1032A000EB8FF1E54F2EF3E05F2E4C0C5D1CB60169
:1032B0006F597C4F51E0EDE56E2EE3E07E2E6C0CF5
:1032C0007D1C39E5A32E33E0B32EAC0CBD1C96015A
:1032D000255A3C4F388B2F87C601815B9C4F9A8BB8
:1032E000898B8FB7F894F801208131818FBFF40169
:1032F0008081918128173907B0F5EB8DFC8D808195
:103300009181FC014083EB8DFC8D80819181019640
:1033100091838083F201208131818217930709F420
:10332000A5C22FB7F894F80180819181019691830D
:1033300080832FBFFB0120813181F90151939F01CF
:10334000FB0131832083F3018081918128173907A4
:1033500009F484C22FB7F894F50180819181019618
:10336000918380832FBF11964C911197119644231E
:1033700009F0B7CF970129523C4F3A832983D901ED
:103380008D919C9103970CF0B2C26E960FB6F89493
:10339000DEBF0FBECDBFCF91DF911F910F91FF9088
:1033A000EF90DF90CF90BF90AF909F908F907F90E5
:1033B0006F905F904F903F902F90089568E472E077
:1033C00040E58601035B1C4FEBE48E2EE3E09E2E6E
:1033D0008C0C9D1CF601EB5AFC4FFE8FED8F51E5D6
:1033E000452E53E0552E4C0C5D1C96012F593C4F39
:1033F0003C8F2B8F51E03DE5632E33E0732E6C0C38
:103400007D1C29E5A22E23E0B22EAC0CBD1CC6010A
:10341000855A9C4F9A878987D601A15BBC4FBC8790
:10342000AB878FB7F894F801208131818FBFD40129
:103430008D919C9128173907B0F5AD8DBE8DED911A
:10344000FC91119740838D919C91119701968D93DA
:103450009C93F201208131818217930709F43BC2CA
:103460002FB7F894D8018D919C91119701961196E0
:103470009C938E932FBFAB8DBC8DED91FC911197DA
:103480005193ED93FC93D3018D919C91E817F9072B
:1034900009F418C22FB7F894F50180819181019643
:1034A000918380832FBFDB014D91BD01442309F03F
:1034B000B8CFD7019C96ED91FC919D9741818FB734
:1034C000F894F101208131818FBFAB81BC818D9156
:1034D0009C912817390708F04DC0D701A65ABC4F58
:1034E000ED91FC911197406840838D919C911197CB
:1034F000019611969C938E93E6E5F3E0EE0EFF1E87
:10350000F701208131814AEA5CEFE40EF51E821753
:10351000930709F44CC42FB7F894D1018D919C9175
:103520001197019611969C938E932FBFA7014A592C
:103530005C4FDA01ED91FC9111971192ED93FC93A0
:1035400022E633E0E20EF31ED7018D919C912EE925
:103550003CEFE20EF31EE817F90709F419C42FB780
:10356000F894F701E25AFC4F808191810196918392
:1035700080832FBF0E94E53FFC014081442309F472
:103580006FC0DC01F601EB5AFC4FFC8FEB8F91E52D
:10359000492E93E0592E4C0C5D1CB6016F597C4F9F
:1035A00051E08DE5682E83E0782E6C0C7D1CF9E5EA
:1035B000AF2EF3E0BF2EAC0CBD1C9601255A3C4F3C
:1035C0003E832D83C601815B9C4F98878F838FB785
:1035D000F894F801208131818FBFF40180819181BD
:1035E00028173907B0F5EB8DFC8D80819181FC01A6
:1035F0004083EB8DFC8D8081918101969183808346
:10360000F201208131818217930709F452C12FB74B
:10361000F894F801808191810196918380832FBF76
:10362000FB0120813181F90151939F01FB0131831D
:103630002083F301808191812817390709F431C172
:103640002FB7F894F5018081918101969183808351
:103650002FBF11964C9111971196442309F0B7CFC3
:1036600027ED33E0E20EF31ED7018D919C91E9E244
:10367000FCEFEE0EFF1E04970CF487CED7019C964C
:10368000ED91FC919D9743818FB7F894F1012081D2
:1036900031818FBFAB81BC818D919C9128173907F7
:1036A00008F04DC0D701A65ABC4FED91FC9111977F
:1036B000406840838D919C911197019611969C933F
:1036C0008E93E6E5F3E0EE0EFF1EF70120813181D7
:1036D0004AEA5CEFE40EF51E8217930709F492C3E1
:1036E0002FB7F894D1018D919C9111970196119665
:1036F0009C938E932FBFA7014A595C4FDA01ED913D
:10370000FC9111971192ED93FC9322E633E0E20EC7
:10371000F31ED7018D919C912EE93CEFE20EF31E32
:10372000E817F90709F451C32FB7F894F701E25AE3
:10373000FC4F808191810196918380832FBFE5EDBD
:10374000F3E0EE0EFF1ED7018D919C9141970CF096
:1037500082C267E372E043E585E5282E83E0382ED8
:103760002C0C3D1CB1E5AB2EB3E0BB2EAC0CBD1C4C
:10377000F601EF59FC4FFC8FEB8F51E0ADE56A2E5F
:10378000A3E07A2E6C0C7D1CF9E5EF2EF3E0FF2E02
:10379000EC0CFD1CEBE54E2EE3E05E2E4C0C5D1CAC
:1037A0002FE433E0C20ED31E8FB7F894D8012D91C9
:1037B0003C918FBFF4018081918128173907A8F5CA
:1037C000D101ED91FC91119740838D919C911197BE
:1037D00001968D939C93F501208131818217930787
:1037E00009F432C22FB7F894D8018D919C911197AA
:1037F000019611969C938E932FBFAB8DBC8DED914E
:10380000FC9111975193ED93FC93D3018D919C9171
:10381000E817F90709F410C22FB7F894F70180816F
:1038200091810196918380832FBFDB014D91BD0172
:10383000442309F0B9CFA9CDEB89FC89808191811E
:10384000AB8DBC8D8D939C9310CDAD89BE898D9130
:103850009C91ED8DFE8D91838083EDCCEF85F88971
:1038600080819181FB019183808374CDE989FA89FC
:1038700080819181EB8DFC8D9183808352CDEF8986
:10388000F88D80819181AB8DBC8D8D939C931ACCEA
:10389000A98DBA8D8D919C91ED8DFE8D9183808344
:1038A000F7CBED81FE8180819181FB019183808343
:1038B000C7CEEF81F88580819181EB8DFC8D91835E
:1038C0008083A5CEE985FA8580819181AB8DBC8D01
:1038D0008D939C93DFCDAB85BC858D919C91ED8DB7
:1038E000FE8D91838083BCCD0E94E3427FCBD701C4
:1038F0009C96ED91FC919D9742818FB7F894F101D0
:10390000208131818FBFAB81BC818D919C91281723
:10391000390708F04DC0D701A65ABC4FED91FC9174
:103920001197406840838D919C9111970196119653
:103930009C938E93E6E5F3E0EE0EFF1EF7012081E7
:1039400031814AEA5CEFE40EF51E8217930709F411
:103950004BC22FB7F894D1018D919C91119701968C
:1039600011969C938E932FBFA7014A595C4FDA01A1
:10397000ED91FC9111971192ED93FC9322E633E0C7
:10398000E20EF31ED7018D919C912EE93CEFE20EE1
:10399000F31EE817F90709F443C22FB7F894F701AB
:1039A000E25AFC4F808191810196918380832FBFE1
:1039B00065E672E046E3F601EB5AFC4FFE8FED8FB1
:1039C00021E5422E23E0522E4C0C5D1C96012F590E
:1039D0003C4F3C8F2B8F51E09DE5692E93E0792E73
:1039E0006C0C7D1C89E5A82E83E0B82EAC0CBD1CA8
:1039F000BBE52B2EB3E03B2E2C0C3D1CC601815B9E
:103A00009C4F9E878D878FB7F894D8012D913C915C
:103A10008FBFF4018081918128173907B0F5AD8DF2
:103A2000BE8DED91FC91119740838D919C911197E2
:103A300001968D939C93F201208131818217930727
:103A400009F4DCC02FB7F894D8018D919C9111979F
:103A5000019611969C938E932FBFAB8DBC8DED91EB
:103A6000FC9111975193ED93FC93D3018D919C910F
:103A7000E817F90709F4BAC02FB7F894F501808167
:103A800091810196918380832FBFDB014D91BD0110
:103A9000442309F0B8CFE981FA81808191810497AC
:103AA0000CF473CCD7019C96ED91FC919D976381AA
:103AB0006068C6010E947902E5EDF3E0EE0EFF1E9C
:103AC000D7018D919C9141970CF0B0C067E372E0F3
:103AD00043E5A5E52A2EA3E03A2E2C0C3D1CF1E58A
:103AE000AF2EF3E0BF2EAC0CBD1CF601EF59FC4F1E
:103AF000FC8FEB8F51E0EDE56E2EE3E07E2E6C0C3B
:103B00007D1C39E5E32E33E0F32EEC0CFD1C2BE598
:103B1000422E23E0522E4C0C5D1C2FE433E0C20EEB
:103B2000D31E8FB7F894D8012D913C918FBFF4012B
:103B30008081918128173907A8F5D101ED91FC9179
:103B4000119740838D919C91119701968D939C9331
:103B5000F501208131818217930709F460C02FB7E6
:103B6000F894D8018D919C911197019611969C9390
:103B70008E932FBFAB8DBC8DED91FC91119751931E
:103B8000ED93FC93D3018D919C91E817F90709F40B
:103B90003EC02FB7F894F7018081918101969183FF
:103BA00080832FBFDB014D91BD01442309F0B9CFC4
:103BB000ECCB84E593E0E80EF91EF701808191815A
:103BC0002CEA3CEFE20EF31E8D939C93D4C980E661
:103BD00093E0E80EF91ED7018D919C91E0EAFCEF8D
:103BE000EE0EFF1EDA018D939C93E9C9F1018081ED
:103BF0009181AB8DBC8D8D939C933ECFAD85BE8561
:103C00008D919C91ED8DFE8D918380831BCFF20170
:103C100080819181AB8DBC8D8D939C93BACFD60161
:103C20008D919C91F1019183808399CFC60164E2CB
:103C300072E00E945807A9CBF20180819181AB8D7F
:103C4000BC8D8D939C93E8CDD6018D919C91F10113
:103C500091838083C7CD65E272E043E5E5E52E2ED2
:103C6000E3E03E2E2C0C3D1C51E5A52E53E0B52E75
:103C7000AC0CBD1CF601EF59FC4FFC8FEB8F51E0F3
:103C80003DE5632E33E0732E6C0C7D1C29E5E22E9E
:103C900023E0F22EEC0CFD1C9BE5492E93E0592EFF
:103CA0004C0C5D1C2FE433E0C20ED31E8FB7F8948A
:103CB000D8012D913C918FBFF4018081918128170B
:103CC000390798F5D101ED91FC91119740838D91C1
:103CD0009C91119701968D939C93F50120813181E0
:103CE0008217930789F12FB7F894D8018D919C9191
:103CF0001197019611969C938E932FBFAB8DBC8D1F
:103D0000ED91FC9111975193ED93FC93D3018D911B
:103D10009C91E817F90781F02FB7F894F70180819B
:103D200091810196918380832FBFDB014D91BD016D
:103D3000442309F0BBCF29CBF20180819181AB8D67
:103D4000BC8D8D939C93E8CFD6018D919C91F10110
:103D500091838083C8CF80E693E0E80EF91ED701F7
:103D60008D919C91E0EAFCEFEE0EFF1EDA018D933F
:103D70009C930DCA84E593E0E80EF91EF70180815B
:103D800091812CEA3CEFE20EF31E8D939C93DBC9EC
:103D900080E693E0E80EF91ED7018D919C91E0EA50
:103DA000FCEFEE0EFF1EDA018D939C93D8CB84E5D9
:103DB00093E0E80EF91EF701808191812CEA3CEF37
:103DC000E20EF31E8D939C93A6CB80E693E0E80E63
:103DD000F91ED7018D919C91E0EAFCEFEE0EFF1EDB
:103DE000DA018D939C93A0CC84E593E0E80EF91E54
:103DF000F701808191812CEA3CEFE20EF31E8D9356
:103E00009C93A7CD84E593E0E80EF91EF70180812D
:103E100091812CEA3CEFE20EF31E8D939C9360CCD3
:103E200080E693E0E80EF91ED7018D919C91E0EABF
:103E3000FCEFEE0EFF1EDA018D939C93AECD2F9218
:103E40003F924F925F926F927F928F929F92AF922A
:103E5000BF92CF92DF92EF92FF920F931F93DF9367
:103E6000CF93CDB7DEB7CA5AD0400FB6F894DEBFB5
:103E70000FBECDBF4C0145E0C42ED12CC80ED91EBB
:103E80002091620430916304409164045091650470
:103E900029962CAF3DAF4EAF5FAF299764E772E034
:103EA00048E532E5E32E33E0F32EE80EF91E20E577
:103EB000A22E23E0B22EA80EB91E865A9C4FC755DB
:103EC000DF4F99838883C95AD04096E5292E93E025
:103ED000392E280C391C84010A591C4F51E082E606
:103EE000482E83E0582E480C591CBEE56B2EB3E0DB
:103EF0007B2E680C791CD401A05ABC4FCD55DF4FE6
:103F0000B983A883C35AD040F401EC5AFC4FCB5577
:103F1000DF4FF983E883C55AD0408FB7F894D701B3
:103F20002D913C918FBFF501808191812817390730
:103F300008F03BC0C755DF4FA881B981C95AD040AE
:103F4000ED91FC91119740838D919C911197019671
:103F50008D939C93F101208131818217930711F495
:103F60000C94D4292FB7F894D7018D919C91119777
:103F7000019611969C938E932FBFD801ED91FC91E1
:103F800011975193ED93FC93D2018D919C91E81779
:103F9000F90711F40C94C7292FB7F894F301808125
:103FA00091810196918380832FBFDB014D91BD01EB
:103FB000442309F0B2CFFE013196C955DF4FF98392
:103FC000E883C75AD04080E211928A95E9F7299692
:103FD0006CAD7DAD8EAD9FAD299745E021E08E01A2
:103FE0000F5F1F4F0E9408D04981442309F482C00B
:103FF0008E010E5F1F4F96012B5A3C4FC755DF4F66
:1040000039832883C95AD040A1E52A2EA3E03A2E4D
:104010002C0C3D1CB6016F597C4F51E0FDE54F2E35
:10402000F3E05F2E4C0C5D1CE9E56E2EE3E07E2E86
:104030006C0C7D1CC601855A9C4FC156DF4F99837D
:104040008883CF59D040D601A15BBC4FCF55DF4FFD
:10405000B983A883C15AD0408FB7F894F701208163
:1040600031818FBFD5018D919C912817390708F0B8
:104070003BC0C755DF4FA881B981C95AD040ED91E7
:10408000FC91119740838D919C91119701968D938E
:104090009C93F101208131818217930711F40C94D4
:1040A000F3292FB7F894D7018D919C911197019620
:1040B00011969C938E932FBFDB01ED91FC9111978C
:1040C0005193ED93FC93D2018D919C91E817F907E0
:1040D00011F40C94E6292FB7F894F30180819181B3
:1040E0000196918380832FBFD8014D918D01442388
:1040F00009F0B2CFD4019C96ED91FC919D9740813F
:104100008FB7F894F401EE5AFC4F6196FFAFEEAF13
:104110006197208131818FBFC401805B9C4F2F96B6
:104120009FAF8EAF2F97DC018D919C912817390797
:1041300008F053C0D401A65ABC4FED91FC911197E1
:10414000485F406840838D919C911197019611962C
:104150009C938E93E6E5F3E08E0E9F1EF401208182
:1041600031814AEA5CEF840E951E8217930711F4A1
:104170000C9498342FB7F8946196AEADBFAD6197AB
:104180008D919C911197019611969C938E932FBFC0
:10419000A4014A595C4FDA01ED91FC9111971192FB
:1041A000ED93FC9322E633E0820E931ED4018D91B1
:1041B0009C912EE93CEF820E931EE817F90711F44B
:1041C0000C94A7342FB7F894F401E25AFC4F808185
:1041D00091810196918380832FBF20916604309155
:1041E0006704409168045091690425962CAF3DAF57
:1041F0004EAF5FAF259767E772E049E5C6018B5A7E
:104200009C4FC755DF4F99838883C95AD04031E509
:10421000232E33E0332E2C0C3D1C86010F591C4FEE
:1042200051E02DE5422E23E0522E4C0C5D1C99E509
:10423000692E93E0792E6C0C7D1CD601A55ABC4FDB
:10424000C556DF4FB983A883CB59D040F601E15B57
:10425000FC4FC356DF4FF983E883CD59D0408FB769
:10426000F894D7012D913C918FBFF5018081918108
:104270002817390708F03BC0C755DF4FA881B9811F
:10428000C95AD040ED91FC91119740838D919C913A
:10429000119701968D939C93F101208131818217B2
:1042A000930711F40C94122A2FB7F894D7018D912B
:1042B0009C911197019611969C938E932FBFD801D4
:1042C000ED91FC9111975193ED93FC93D2018D9157
:1042D0009C91E817F90711F40C94052A2FB7F8946C
:1042E000F301808191810196918380832FBFDB014F
:1042F0004D91BD01442309F0B2CF80E2C955DF4F93
:10430000E881F981C75AD04011928A95E9F725963C
:104310006CAD7DAD8EAD9FAD259745E021E08E0162
:104320000F5F1F4F0E9408D04981442309F482C0C7
:104330008E010E5F1F4F96012B5A3C4FC755DF4F22
:1043400039832883C95AD04081E5282E83E0382E4E
:104350002C0C3D1CB6016F597C4F51E0BDE54B2E36
:10436000B3E05B2E4C0C5D1CA9E56A2EA3E07A2E0F
:104370006C0C7D1CC601855A9C4FC956DF4F998332
:104380008883C759D040D601A15BBC4FC756DF4FC9
:10439000B983A883C959D0408FB7F894F701208119
:1043A00031818FBFD5018D919C912817390708F075
:1043B0003BC0C755DF4FA881B981C95AD040ED91A4
:1043C000FC91119740838D919C91119701968D934B
:1043D0009C93F101208131818217930711F40C9491
:1043E000312A2FB7F894D7018D919C91119701969E
:1043F00011969C938E932FBFDB01ED91FC91119749
:104400005193ED93FC93D2018D919C91E817F9079C
:1044100011F40C94242A2FB7F894F3018081918130
:104420000196918380832FBFD8014D918D01442344
:1044300009F0B2CFD4019C96ED91FC919D974181FA
:104440008FB7F8946196EEADFFAD61972081318111
:104450008FBF2F96AEADBFAD2F978D919C91281732
:10446000390708F052C0D401A65ABC4FED91FC9117
:104470001197406840838D919C91119701961196F8
:104480009C938E93E6E5F3E08E0E9F1EF40120814F
:1044900031814AEA5CEF840E951E8217930711F46E
:1044A0000C94B7342FB7F8946196AEADBFAD619759
:1044B0008D919C911197019611969C938E932FBF8D
:1044C000A4014A595C4FDA01ED91FC9111971192C8
:1044D000ED93FC9322E633E0820E931ED4018D917E
:1044E0009C912EE93CEF820E931EE817F90711F418
:1044F0000C9488342FB7F894F401E25AFC4F808171
:1045000091810196918380832FBF20916A0430911D
:104510006B0440916C0450916D0421962CAF3DAF1B
:104520004EAF5FAF21976AE772E04AE5C6018B5A4A
:104530009C4FC755DF4F99838883C95AD040F1E516
:104540002F2EF3E03F2E2C0C3D1C86010F591C4FE3
:1045500051E0EDE54E2EE3E05E2E4C0C5D1C39E59E
:10456000632E33E0732E6C0C7D1CD601A55ABC4F14
:10457000CD56DF4FB983A883C359D040F601E15B24
:10458000FC4FCB56DF4FF983E883C559D0408FB736
:10459000F894D7012D913C918FBFF50180819181D5
:1045A0002817390708F039C0C755DF4FA881B981EE
:1045B000C95AD040ED91FC91119740838D919C9107
:1045C000119701968D939C93F1012081318182177F
:1045D000930709F4AEC62FB7F894D7018D919C913B
:1045E0001197019611969C938E932FBFD801ED9150
:1045F000FC9111975193ED93FC93D2018D919C9175
:10460000E817F90709F489C62FB7F894F3018081F8
:1046100091810196918380832FBFDB014D91BD0174
:10462000442309F0B4CF80E2C955DF4FE881F98116
:10463000C75AD04011928A95E9F721966CAD7DADAD
:104640008EAD9FAD219745E021E08E010F5F1F4F9A
:104650000E9408D04981442309F480C08E010E5F76
:104660001F4F96012B5A3C4FC755DF4F3983288384
:10467000C95AD04021E5222E23E0322E2C0C3D1CBD
:10468000B6016F597C4F51E09DE5492E93E0592EBC
:104690004C0C5D1C89E5682E83E0782E6C0C7D1C2B
:1046A000C601855A9C4FC157DF4F99838883CF58E5
:1046B000D040D601A15BBC4FCF56DF4FB983A88352
:1046C000C159D0408FB7F894F701208131818FBF55
:1046D000D5018D919C912817390708F039C0C7552D
:1046E000DF4FA881B981C95AD040ED91FC91119753
:1046F00040838D919C91119701968D939C93F1012C
:10470000208131818217930709F430C62FB7F894BE
:10471000D7018D919C911197019611969C938E9340
:104720002FBFDB01ED91FC9111975193ED93FC9319
:10473000D2018D919C91E817F90709F40BC62FB7A8
:10474000F894F301808191810196918380832FBF3A
:10475000D8014D918D01442309F0B4CFE7EDF3E08A
:104760008E0E9F1ED4018D919C91E9E2FCEF8E0E7E
:104770009F1E03970CF487C6D4019C96ED91FC9183
:104780009D9741818FB7F8946196EEADFFAD61972B
:10479000208131818FBF2F96AEADBFAD2F978D9108
:1047A0009C912817390708F053C0D401A65ABC4F72
:1047B000ED91FC911197485F406840838D919C91E9
:1047C0001197019611969C938E93E6E5F3E08E0E79
:1047D0009F1EF401208131814AEA5CEF840E951E10
:1047E0008217930711F40C9404352FB7F89461964F
:1047F000AEADBFAD61978D919C91119701961196C9
:104800009C938E932FBFA4014A595C4FDA01ED911E
:10481000FC9111971192ED93FC9322E633E0820E06
:10482000931ED4018D919C912EE93CEF820E931E34
:10483000E817F90711F40C94F4342FB7F894F40145
:10484000E25AFC4F808191810196918380832FBF32
:1048500020916E0430916F04409170045091710466
:1048600029AF3AAF4BAF5CAF0DE7602E02E0702E80
:1048700045E4C6018B5A9C4FC755DF4F9983888307
:10488000C95AD04011E5212E13E0312E2C0C3D1CCD
:1048900086010F591C4F51E0B601635A7C4FB9E5B0
:1048A0004B2EB3E05B2E4C0C5D1CD601A55ABC4FC1
:1048B000E796BFAFAEAFE797F601E15BFC4FE99635
:1048C000FFAFEEAFE9978FB7F894D7012D913C91E8
:1048D0008FBFF501808191812817390708F03BC00F
:1048E000C755DF4FA881B981C95AD040ED91FC91DD
:1048F000119740838D919C91119701968D939C9374
:10490000F101208131818217930711F40C94452F16
:104910002FB7F894D7018D919C911197019611961C
:104920009C938E932FBFD801ED91FC9111975193D9
:10493000ED93FC93DB018D919C91E817F90711F43D
:104940000C94A72F2FB7F894F201808191810196E2
:10495000918380832FBFD3014D913D01442309F002
:10496000B2CF80E2C955DF4FE881F981C75AD04004
:1049700011928A95E9F769AD7AAD8BAD9CAD45E0B2
:1049800021E08E010F5F1F4F0E9408D04981442310
:1049900009F47EC08E010E5F1F4F96012B5A3C4FCB
:1049A000C755DF4F39832883C95AD040A1E54A2E25
:1049B000A3E05A2E4C0C5D1CB6016F597C4F51E0A0
:1049C000FDE52F2EF3E03F2E2C0C3D1CE9E56E2E6D
:1049D000E3E07E2E6C0C7D1CC601855A9C4FE3964D
:1049E0009FAF8EAFE397D601A15BBC4FE596BFAFFB
:1049F000AEAFE5978FB7F894F701208131818FBF73
:104A0000D5018D919C912817390708F03BC0C755F7
:104A1000DF4FA881B981C95AD040ED91FC9111971F
:104A200040838D919C91119701968D939C93F201F7
:104A3000208131818217930711F40C948C2F2FB7AA
:104A4000F894D7018D919C911197019611969C93A2
:104A50008E932FBFDB01ED91FC9111975193ED9354
:104A6000FC93D1018D919C91E817F90711F40C94F6
:104A7000812F2FB7F894F301808191810196918362
:104A800080832FBFD8014D918D01442309F0B2CF0F
:104A9000D4019C96ED91FC919D9742818FB7F8943B
:104AA0006196EEADFFAD6197208131818FBF2F966A
:104AB000AEADBFAD2F978D919C912817390708F0A7
:104AC00052C0D401A65ABC4FED91FC911197406899
:104AD00040838D919C911197019611969C938E9392
:104AE000E6E5F3E08E0E9F1EF401208131814AEA53
:104AF0005CEF840E951E8217930711F40C94D63444
:104B00002FB7F8946196AEADBFAD61978D919C9132
:104B10001197019611969C938E932FBFA4014A5929
:104B20005C4FDA01ED91FC9111971192ED93FC939A
:104B300022E633E0820E931ED4018D919C912EE9E2
:104B40003CEF820E931EE817F90711F40C9413350D
:104B50002FB7F894F401E25AFC4F808191810196BD
:104B6000918380832FBFECE8F3E08E0E9F1ED4016B
:104B70002D913D914D915C912DAB3EAB4FAB58AF1C
:104B8000E4E7FCEF8E0E9F1E60E8662E62E0762E54
:104B90004DE496012B5A3C4FC755DF4F398328838C
:104BA000C95AD04051E5252E53E0352E2C0C3D1C22
:104BB00086010F591C4F51E0B601635A7C4F39E50D
:104BC000432E33E0532E4C0C5D1CC601855A9C4F7E
:104BD000AF969FAF8EAFAF97D601A15BBC4FE1966A
:104BE000BFAFAEAFE1978FB7F894F7012081318165
:104BF0008FBFD5018D919C912817390708F03BC0D4
:104C0000C755DF4FA881B981C95AD040ED91FC91B9
:104C1000119740838D919C91119701968D939C9350
:104C2000F101208131818217930711F40C94352F03
:104C30002FB7F894D7018D919C91119701961196F9
:104C40009C938E932FBFD801ED91FC9111975193B6
:104C5000ED93FC93DB018D919C91E817F90711F41A
:104C60000C949C2F2FB7F894F201808191810196CA
:104C7000918380832FBFD3014D913D01442309F0DF
:104C8000B2CF80E2C955DF4FE881F981C75AD040E1
:104C900011928A95E9F76DA97EA98FA998AD45E093
:104CA00021E08E010F5F1F4F0E9408D049814423ED
:104CB00009F47EC08E010E5F1F4F96012B5A3C4FA8
:104CC000C755DF4F39832883C95AD04021E5422E8A
:104CD00023E0522E4C0C5D1CB6016F597C4F51E005
:104CE0009DE5292E93E0392E2C0C3D1C89E5682E7C
:104CF00083E0782E6C0C7D1CC601855A9C4FAB96C8
:104D00009FAF8EAFAB97D601A15BBC4FAD96BFAF47
:104D1000AEAFAD978FB7F894F701208131818FBF87
:104D2000D5018D919C912817390708F03BC0C755D4
:104D3000DF4FA881B981C95AD040ED91FC911197FC
:104D400040838D919C91119701968D939C93F201D4
:104D5000208131818217930711F40C94712F2FB7A2
:104D6000F894D7018D919C911197019611969C937F
:104D70008E932FBFDB01ED91FC9111975193ED9331
:104D8000FC93D1018D919C91E817F90711F40C94D3
:104D9000662F2FB7F894F30180819181019691835A
:104DA00080832FBFD8014D918D01442309F0B2CFEC
:104DB000F401EB52FC4F6396FFAFEEAF6397808137
:104DC000918141970CF4F1C620E933E0820E931EE5
:104DD000D401ED91FC9120E73CEF820E931E80817F
:104DE0009181A281B38189AB9AABABABBCAB06E836
:104DF000602E02E0702E40E2D601AB5ABC4FC75580
:104E0000DF4FB983A883C95AD04011E5212E13E0A2
:104E1000312E2C0C3D1C86010F591C4F51E0B60160
:104E2000635A7C4FB9E54B2EB3E05B2E4C0C5D1CF6
:104E3000F601E55AFC4F6F96FFAFEEAF6F97960104
:104E4000215B3C4FA1963FAF2EAFA1978FB7F8944F
:104E5000D7012D913C918FBFF50180819181281759
:104E6000390708F03BC0C755DF4FA881B981C95A3F
:104E7000D040ED91FC91119740838D919C911197B9
:104E800001968D939C93F1012081318182179307C4
:104E900011F40C945D342FB7F894D7018D919C9147
:104EA0001197019611969C938E932FBFD801ED9187
:104EB000FC9111975193ED93FC93DB018D919C91A3
:104EC000E817F90711F40C9452342FB7F894F20153
:104ED000808191810196918380832FBFD3014D9171
:104EE0003D01442309F0B2CF80E2C955DF4FE8818C
:104EF000F981C75AD04011928A95E9F769A97AA930
:104F00008BA99CA945E021E08E010F5F1F4F0E94F5
:104F100008D04981442309F47EC08E010E5F1F4FE3
:104F200096012B5A3C4FC755DF4F39832883C95A06
:104F3000D040A1E54A2EA3E05A2E4C0C5D1CB601D0
:104F40006F597C4F51E0FDE52F2EF3E03F2E2C0CE6
:104F50003D1CE9E56E2EE3E07E2E6C0C7D1CC60147
:104F6000855A9C4F6B969FAF8EAF6B97D601A15B16
:104F7000BC4F6D96BFAFAEAF6D978FB7F894F7018A
:104F8000208131818FBFD5018D919C9128173907E0
:104F900008F03BC0C755DF4FA881B981C95AD0403E
:104FA000ED91FC91119740838D919C911197019601
:104FB0008D939C93F201208131818217930711F424
:104FC0000C9478342FB7F894D7018D919C91119758
:104FD000019611969C938E932FBFDB01ED91FC916E
:104FE00011975193ED93FC93D1018D919C91E8170A
:104FF000F90711F40C946D342FB7F894F301808104
:1050000091810196918380832FBFD8014D918D01AD
:10501000442309F0B2CFD4019C96ED91FC919D9769
:1050200043818FB7F8946196EEADFFAD6197208113
:1050300031818FBF2F96AEADBFAD2F978D919C91D3
:105040002817390708F052C0D401A65ABC4FED9179
:10505000FC911197406840838D919C911197019626
:1050600011969C938E93E6E5F3E08E0E9F1EF4015D
:10507000208131814AEA5CEF840E951E82179307E6
:1050800011F40C94E5342FB7F8946196AEADBFAD32
:1050900061978D919C911197019611969C938E9397
:1050A0002FBFA4014A595C4FDA01ED91FC91119791
:1050B0001192ED93FC9322E633E0820E931ED4010D
:1050C0008D919C912EE93CEF820E931EE817F90713
:1050D00011F40C94C6342FB7F894F401E25AFC4F43
:1050E000808191810196918380832FBFE4E9F3E071
:1050F0008E0E9F1ED4018C91ECE6FCEF8E0E9F1E4F
:10510000882311F00C941A342DE832E038AB2FA725
:105110005FA52C965FAF2C9788A92D968FAF2D9702
:1051200006E912E045E4D601AB5ABC4FC755DF4F44
:10513000B983A883C95AD040F1E54F2EF3E05F2E22
:105140004C0C5D1CB6016F597C4F51E0EDE52E2EE5
:10515000E3E03E2E2C0C3D1C39E5632E33E0732E2C
:105160006C0C7D1CF601E55AFC4F6796FFAFEEAF65
:1051700067979601215B3C4F69963FAF2EAF6997C9
:105180008FB7F894D7012D913C918FBFF5018081A5
:1051900091812817390708F039C0C755DF4FA8811A
:1051A000B981C95AD040ED91FC91119740838D91FE
:1051B0009C91119701968D939C93F20120813181EE
:1051C0008217930709F442C62FB7F894D7018D913F
:1051D0009C911197019611969C938E932FBFDB01A2
:1051E000ED91FC9111975193ED93FC93D1018D9129
:1051F0009C91E817F90709F415C62FB7F894F30145
:10520000808191810196918380832FBFD8014D9138
:105210008D01442309F0B4CFEFA5F8A940814423C0
:1052200009F49BC42C968FAD2C972D969FAD2D978E
:105230009C01D901B6016B5A7C4F21E5222E23E057
:10524000322E2C0C3D1C86010F591C4F51E09DE560
:10525000492E93E0592E4C0C5D1C89E5682E83E0A5
:10526000782E6C0C7D1C9601255A3C4F65963FAFFD
:105270002EAF65978FE493E0C80ED91E29C02FB7D3
:10528000F894F701808191810196918380832FBFEB
:10529000F80120813181F90151939F01F801318397
:1052A0002083F201808191812817390709F4C4C550
:1052B0002FB7F894F30180819181019691838083C7
:1052C0002FBF11964C9111971196442309F445C4B0
:1052D0008FB7F894F701208131818FBFF50180816C
:1052E00091812817390768F7FB0180819181FC01C2
:1052F0004083FB0180819181019691838083F1013C
:10530000208131818217930709F0B9CFF60180819E
:105310009181FB0191838083B2CFCD56DF4FE8812D
:10532000F981C359D04080819181D8018D939C939C
:105330006BC9CB56DF4FA881B981C559D0408D913B
:105340009C91C755DF4FE881F981C95AD0409183BC
:10535000808341C9C157DF4FE881F981CF58D040E0
:1053600080819181DB018D939C93E9C9CF56DF4FFA
:10537000A881B981C159D0408D919C91C755DF4F0B
:10538000E881F981C95AD04091838083BFC9CD5546
:10539000DF4FE881F981C35AD04080819181D801E3
:1053A0008D939C930C94CC1FCB55DF4FA881B98172
:1053B000C55AD0408D919C91C755DF4FE881F98146
:1053C000C95AD040918380830C94B21FC156DF4FDD
:1053D000E881F981CF59D04080819181DB018D93A3
:1053E0009C930C946B20CF55DF4FA881B981C15A93
:1053F000D0408D919C91C755DF4FE881F981C95A02
:10540000D040918380830C945120C556DF4FE881B2
:10541000F981CB59D04080819181D8018D939C93A3
:105420000C946E21C356DF4FA881B981CD59D0406D
:105430008D919C91C755DF4FE881F981C95AD040C1
:10544000918380830C945421C956DF4FE881F98100
:10545000C759D04080819181DB018D939C930C943E
:105460000B22C756DF4FA881B981C959D0408D9111
:105470009C91C755DF4FE881F981C95AD04091838B
:1054800080830C94F1212CE833E0820E931ED4012A
:105490008D919D910D90BC91A02D8DA39EA3AFA346
:1054A000B8A7E4E7FCEF8E0E9F1E00EA602E02E034
:1054B000702E49E496012B5A3C4FC755DF4F398374
:1054C0002883C95AD04011E5212E13E0312E2C0C2F
:1054D0003D1C86010F591C4F51E0B601635A7C4FA9
:1054E000B9E54B2EB3E05B2E4C0C5D1CC601855A12
:1054F0009C4FC557DF4F99838883CB58D040D60146
:10550000A15BBC4FC357DF4FB983A883CD58D040B0
:105510008FB7F894F701208131818FBFD5018D912C
:105520009C912817390708F039C0C755DF4FA8816B
:10553000B981C95AD040ED91FC91119740838D916A
:105540009C91119701968D939C93F101208131815B
:105550008217930709F42FC52FB7F894D7018D91BF
:105560009C911197019611969C938E932FBFD80111
:10557000ED91FC9111975193ED93FC93DB018D918B
:105580009C91E817F90709F40AC52FB7F894F201BE
:10559000808191810196918380832FBFD3014D91AA
:1055A0003D01442309F0B4CF80E2C955DF4FE881C3
:1055B000F981C75AD04011928A95E9F76DA17EA171
:1055C0008FA198A545E021E08E010F5F1F4F0E943B
:1055D00008D04981442309F480C08E010E5F1F4F1B
:1055E00096012B5A3C4FC755DF4F39832883C95A40
:1055F000D040A1E54A2EA3E05A2E4C0C5D1CB6010A
:105600006F597C4F51E0FDE52F2EF3E03F2E2C0C1F
:105610003D1CE9E56E2EE3E07E2E6C0C7D1CC60180
:10562000855A9C4FC957DF4F99838883C758D0400C
:10563000D601A15BBC4FC757DF4FB983A883C958B8
:10564000D0408FB7F894F701208131818FBFD50109
:105650008D919C912817390708F039C0C755DF4F45
:10566000A881B981C95AD040ED91FC91119740832E
:105670008D919C91119701968D939C93F2012081BD
:1056800031818217930709F4D0C42FB7F894D7015A
:105690008D919C911197019611969C938E932FBF9B
:1056A000DB01ED91FC9111975193ED93FC93D101A6
:1056B0008D919C91E817F90709F4ABC42FB7F894C2
:1056C000F301808191810196918380832FBFD8015E
:1056D0004D918D01442309F0B4CFE0E9F3E08E0E43
:1056E0009F1ED401ED91FC9120E73CEF820E931EAA
:1056F00080819181A281B38189A39AA3ABA3BCA32A
:105700003CE8632E32E0732E4FE2D601AB5ABC4F19
:10571000C755DF4FB983A883C95AD04021E5222E4F
:1057200023E0322E2C0C3D1C86010F591C4F51E0FA
:10573000B601635A7C4F99E5492E93E0592E4C0CE3
:105740005D1CF601E55AFC4FCD57DF4FF983E88326
:10575000C358D0409601215B3C4FCB57DF4F398374
:105760002883C558D0408FB7F894D7012D913C912C
:105770008FBFF501808191812817390708F039C062
:10578000C755DF4FA881B981C95AD040ED91FC912E
:10579000119740838D919C91119701968D939C93C5
:1057A000F101208131818217930709F4E7C32FB7F4
:1057B000F894D7018D919C911197019611969C9325
:1057C0008E932FBFD801ED91FC9111975193ED93DA
:1057D000FC93DB018D919C91E817F90709F4C2C392
:1057E0002FB7F894F2018081918101969183808393
:1057F0002FBFD3014D913D01442309F0B4CF80E286
:10580000C955DF4FE881F981C75AD04011928A9576
:10581000E9F769A17AA18BA19CA145E021E08E0165
:105820000F5F1F4F0E9408D04981442309F480C0B4
:105830008E010E5F1F4F96012B5A3C4FC755DF4F0D
:1058400039832883C95AD04081E5482E83E0582EF9
:105850004C0C5D1CB6016F597C4F51E0BDE52B2E01
:10586000B3E03B2E2C0C3D1CA9E56A2EA3E07A2E5A
:105870006C0C7D1CC601855A9C4FC158DF4F998323
:105880008883CF57D040D601A15BBC4FCF57DF4FA5
:10589000B983A883C158D0408FB7F894F70120810D
:1058A00031818FBFD5018D919C912817390708F060
:1058B00039C0C755DF4FA881B981C95AD040ED9191
:1058C000FC91119740838D919C91119701968D9336
:1058D0009C93F201208131818217930709F488C3D8
:1058E0002FB7F894D7018D919C911197019611963D
:1058F0009C938E932FBFDB01ED91FC9111975193F7
:10590000ED93FC93D1018D919C91E817F90709F46F
:1059100063C32FB7F894F30180819181019691833D
:1059200080832FBFD8014D918D01442309F0B4CF5E
:10593000E4E9F3E08E0E9F1ED4018C91ECE6FCEFBF
:105940008E0E9F1E882309F02BC122EA32E03EA76B
:105950002DA75DA52A965FAF2A978EA52B968FAFB0
:105960002B9707EA12E040E2D601AB5ABC4FC7556D
:10597000DF4FB983A883C95AD040F1E54F2EF3E039
:105980005F2E4C0C5D1CB6016F597C4F51E0EDE56C
:105990002E2EE3E03E2E2C0C3D1C39E5632E33E029
:1059A000732E6C0C7D1CF601E55AFC4FED96FFAF93
:1059B000EEAFED979601215B3C4FEF963FAF2EAFD8
:1059C000EF978FB7F894D7012D913C918FBFF501D8
:1059D000808191812817390708F039C0C755DF4FFA
:1059E000A881B981C95AD040ED91FC9111974083AB
:1059F0008D919C91119701968D939C93F20120813A
:105A000031818217930709F4FEC12FB7F894D701AB
:105A10008D919C911197019611969C938E932FBF17
:105A2000DB01ED91FC9111975193ED93FC93D10122
:105A30008D919C91E817F90709F4DBC12FB7F89411
:105A4000F301808191810196918380832FBFD801DA
:105A50004D918D01442309F0B4CFEDA5FEA5408101
:105A6000442309F473C02A968FAD2A972B969FADD5
:105A70002B979C01D901B6016B5A7C4F21E5222E50
:105A800023E0322E2C0C3D1C86010F591C4F51E097
:105A90009DE5492E93E0592E4C0C5D1C89E5682E3E
:105AA00083E0782E6C0C7D1CC601855A9C4FEB96CA
:105AB0009FAF8EAFEB97EFE4F3E0CE0EDF1E8FB714
:105AC000F894F701208131818FBFF50180819181A8
:105AD00028173907A0F5FB0180819181FC014083E3
