:100000000C94FD020C9427030C9427030C942703F3
:100010000C9427030C9427030C9427030C942703B8
:100020000C9427030C9427030C9427030C942703A8
:100030000C9427030C9427030C9427030C94270398
:100040000C9427030C945A290C9427030C9427032F
:100050000C9427030C9427030C9427030C944A4C0C
:100060000C9427030C9474490C94CF490C942703E7
:100070000C9427030C9427030C9427030C94270358
:100080000C9427030C9427030C9427030C94270348
:100090000C94758E0C9427030C94C08D0C9427033C
:1000A0000C9427030C9427030C9427030C94270328
:1000B0000C9427030C9427030C9427030C94270318
:1000C0000C9427030C9427030C9427030C942F4AB9
:1000D0000C94394A0C9427030C9427030C9427039F
:1000E0000C94270373746172740A002F20004D4929
:1000F0005353494E472100423A2020202F202020F0
:10010000004265642020203A202020202F2020203B
:10011000002F20004D495353494E472100483A20B3
:1001200020202F20202000486F74656E643A202024
:1001300020202F20202000534A4657206279205348
:1001400063726962626C654A00363D4E45585420C0
:10015000233D5052494E54003E20005344204669EE
:100160006C652053656C656374005072696E7469C8
:100170006E673A20004D41494E204D454E55002FA7
:1001800020004D495353494E472100202020202074
:1001900020202000202020202020202020002F2090
:1001A000004D495353494E47210020202020202054
:1001B000202000202020202020202000212120415C
:1001C00058495320415245204E4F5420434F4E46EC
:1001D0004947555245442021210A002045494E56A1
:1001E0002000204550554C4C200020494E56200000
:1001F000204449532000206E6F206D61782000203C
:100200006E6F206D696E2000206E6F20656E6162DA
:100210006C652000206E6F206469722000206E6F74
:1002200020737465702000206E6F20616363656CBD
:100230002000206E6F2073746570735F7065725F4D
:10024000756E697420006F6B200A005741524E4949
:100250004E473A20534552494F5553204545505239
:100260004F4D204641494C0A004641494C00424509
:1002700047494E00454550524F4D2000454550528C
:100280004F4D2053544F50000A494E56414C49445B
:100290004154454420434F4445530A00204E4F5497
:1002A00020535550504F525445440A00204D434F5F
:1002B000444520004641494C00424547554E0045C3
:1002C0004550524F4D20524541443A20002046416E
:1002D000494C0020424547554E0020464541545563
:1002E0005245533A302F6372632D763200205645C3
:1002F0005253494F4E3A312E313020465245455FD8
:1003000052414D3A002F20004D495353494E472149
:1003100000423A2020202F20202000426564202027
:10032000203A202020202F202020002F20004D497F
:100330005353494E472100483A2020202F202020A7
:1003400000486F74656E643A202020202F20202002
:1003500000534A4657206279205363726962626C87
:10036000654A00204E4F5420535550504F5254452B
:10037000440A002047434F444520002F20004D49A8
:100380005353494E472100423A2020202F2020205D
:10039000004265642020203A202020202F202020A9
:1003A000002F20004D495353494E472100483A2021
:1003B00020202F20202000486F74656E643A202092
:1003C00020202F20202000534A46572062792053B6
:1003D00063726962626C654A0000010405050303EB
:1003E00004050604050607010001000302010000E0
:1003F00001020304050607070605040302010007BE
:1004000002010007060504030201000302010000C7
:100410000102030405060700010203040506072C78
:10042000002C002C002C0032002C000001000100E8
:100430000100012300230023002300030103010026
:1004400001000129002900290029002000200020A6
:10045000002000200020002000200026002600268A
:100460000026002600260026002600290032003241
:100470000032000901090109010901090109010905
:1004800001090123002300230023002F002F002F48
:10049000002F002F002F002F002F0006010601065D
:1004A0000106010601060106010601454550524FAD
:1004B0004D204F564552464C4F5700494E46494EE7
:1004C0004954594E414ECDCCCC3D0AD7233C17B7A9
:1004D000D13877CC2B329595E6241FB14F0A000016
:1004E00020410000C84200401C4620BCBE4CCA1B34
:1004F0000E5AAEC59D7400407A10F35A00A0724E99
:1005000018090010A5D4E80000E87648170000E4B8
:100510000B54020000CA9A3B000000E1F505000000
:1005200080969800000040420F000000A086010065
:100530000000102700000000E80300000000640035
:10054000000000000A0000000000010000000000A0
:100550002C76D888DC674F0823DFC1DFAE59E1B1C4
:10056000B796E5E3E453C63AE651997696E8E6C2D3
:100570008426EB898C9B62ED407C6FFCEFBC9C9FDA
:1005800040F2BAA56FA5F490055A2AF75C936B6CFC
:10059000F9676DC11BFCE0E40D47FEF520E6B500F0
:1005A000D0ED902E0300943577050080841E08005E
:1005B00000204E0A000000C80C333333330F986E0E
:1005C00012831141EF8D2114893BE65516CFFEE6CB
:1005D000DB18D1844B381BF77C1D901DA4BBE42491
:1005E000203284725E228100C9F124ECA1E53D270E
:1005F0003A50D161FC75DE7A239111241FBECFEFF2
:10060000D1E2DEBFCDBF13E0A0E0B2E0E0ECF5E365
:1006100001E00BBF02C007900D92A637B107D9F7D2
:100620001AE1A6E7B3E001C01D92AD3FB107E1F7C3
:1006300015E0CAEFD5E004C02297FE010E94959410
:10064000C03FD107C9F70E9424160C94DE9A0C947F
:100650000000CF93DF93DC01EC01C853DE4FE8814B
:10066000F981608388819981019699838883AC534D
:10067000BE4F2D913C911197A45CB1408217930716
:1006800049F4AE53BE4F4D915C911197A25CB140BD
:10069000598348833FB7F894FD01E054FE4FC08171
:1006A000D1812196D183C0833FBF6D917C9162300F
:1006B000710531F45091D10050625093D10005C0C2
:1006C0007091C10070627093C100DF91CF91089565
:1006D000FC01A081B18111964C91119782818F709C
:1006E00021E030E002C0220F331F8A95E2F7922FFB
:1006F000662311F0822F01C080E090959423892B0E
:1007000011968C930895FC01A081B18112964C91B1
:10071000129782818F7021E030E002C0220F331FD8
:100720008A95E2F7922F662311F0822F01C080E0B4
:1007300090959423892B12968C930895EF92FF92B3
:100740000F931F93CF93DF93EC018AA5882311F0B9
:1007500090E061C0CE0160E00E948303CE01039669
:1007600061E00E9483038E010B5E1F4FC80160E0B1
:100770000E946803C80160E00E9483038E01085E46
:100780001F4FC80160E00E946803C80160E00E943A
:1007900083038E01055E1F4FC80160E00E9468035D
:1007A000C80160E00E9483038E01025E1F4FC801F2
:1007B00060E00E946803C80160E00E9483038E012C
:1007C0000A5F1F4FC80161E00E948303F8A02FE079
:1007D000F222EE8DFF8DE080C80160E00E9483036D
:1007E00000917603002381F48E2D90E002C0959550
:1007F0008795FA94E2F78170907080933E0311E040
:100800001093760391E007C090913E031092760317
:1008100031E030933E03892FDF91CF911F910F91EB
:10082000FF90EF900895CF93DF93DC015FB7F894CA
:10083000A751BD4F2D913C9111975FBF9E918E9115
:10084000A75EB2402817390708F04FC0ED01CF501E
:10085000DD4FE881F9816083E881F9813196F98380
:10086000E883A351BD4F6D917C911197AD5EB2406D
:10087000E617F70749F4A551BD4F2D913C9111970B
:10088000AB5EB240398328833FB7F894FD01E7514E
:10089000FD4FC081D1812196D183C0833FBFED013F
:1008A000C350DD4FE881F9814193F983E883A75074
:1008B000BD4F4D915C911197A95FB240E417F507C8
:1008C00049F4A950BD4F8D919C911197A75FB240FB
:1008D000998388837FB7F894ED01CB50DD4FA881D1
:1008E000B9811196B983A8837FBFDF91CF91089515
:1008F00061E040E00E9413040895DC01862F979682
:10090000ED91FC919897E40FF11D6081680F60688C
:10091000CD0140E00E941304089541E00E941304B9
:1009200008950F931F93CF93DF938C01EB0103C0C6
:10093000C8010E948D0469916623D1F7DF91CF91A0
:100940001F910F9108950F931F93CF93DF938C0105
:10095000EB0103C0C8010E948D04FE012196649141
:100960006623C1F7DF91CF911F910F910895CF9228
:10097000DF92EF92FF920F931F937C01062F65E1A8
:10098000C62ED12CC80ED91EC60161E00E94680394
:1009900010E0B80161707070C6010E94830358E1D5
:1009A000C52ED12CCE0CDF1CC60161E00E9468036D
:1009B000B8017595679561707070C6010E948303D8
:1009C0003BE1C32ED12CCE0CDF1CC60161E00E949E
:1009D00068031595079515950795B80161707070B6
:1009E000C6010E9483039EE1C92ED12CCE0CDF1CD0
:1009F000C60161E00E9468031595079501701070AB
:100A0000C601602F0E94830386E090E0E80EF91E85
:100A1000C70161E00E948303C70160E00E94830375
:100A20001F910F91FF90EF90DF90CF9008950F935B
:100A30001F938C010C5B1C4F83E090E0F8019183C5
:100A400080830F531340C8010E947804C80165E7F2
:100A500071E00E94A3041F910F9108950F931F93BB
:100A6000FC01EB56FC4F80819181E559F3400497DE
:100A70006CF08F010B5F1F4FC80160E043E00E94E4
:100A80007D04C80167E371E00E94A3041F910F91E8
:100A900008950F931F93CF93DF93EB010091E5032C
:100AA0001091E603C8010E942878C80FD91FD7FF0C
:100AB00002C0C0E0D0E0C801BE010E944078882397
:100AC000D1F3DF91CF911F910F9108950F931F9351
:100AD000CF93DF93EB010091E5031091E603C8018A
:100AE0000E942278C80FD91FD7FF02C0C0E0D0E013
:100AF000C801BE010E943A788823D1F3DF91CF91DB
:100B00001F910F910895EF92FF920F931F938C0105
:100B1000EFEFEE2EE2E0FE2EE80EF91ECB01BA0159
:100B2000A7012AE030E00E943396C801B7010E9475
:100B300091041F910F91FF90EF900895EF92FF9213
:100B40000F931F93CF93DF938C01EC012596CE0179
:100B50000E947804CE0162E040E00E9413040D562A
:100B60001C4FF8018081918103591340419744F053
:100B7000CE0167E271E00E94A304CE0168E007C0E5
:100B8000CE016DE171E00E94A304CE0162E040E07D
:100B90000E947D04E090E503F090E603C7010E9407
:100BA0003478F4E080309F0731F4CE0164E171E0E5
:100BB0000E94A30427C0AC01662757FD6095762FDD
:100BC000CE010E9483050D561C4FF8012081318112
:100BD000035913402131310514F466E001C06BE084
:100BE000CE0140E00E947D04CE0161E171E00E94EF
:100BF000A304C7010E942878AC0160E070E0CE0138
:100C00000E948305CE0160E041E00E947D040D5604
:100C10001C4FF80140815181035913404131510566
:100C200044F0CE0161E071E00E94A304CE0168E0CF
:100C300007C0CE0167EF70E00E94A304CE0162E01E
:100C400041E00E947D04C7010E942E78F4E08030CC
:100C50009F0731F4CE016EEE70E00E94A30427C01E
:100C6000AC01662757FD6095762FCE010E94830563
:100C70000D561C4FF8016081718103591340613199
:100C8000710514F466E001C06BE0CE0141E00E9402
:100C90007D04CE016BEE70E00E94A304C7010E94A8
:100CA0002278AC0160E070E0CE010E9483050D5611
:100CB0001C4FF801A081B18103591340A131B10546
:100CC00014F46CE001C060E1CE0140E00E947D04BC
:100CD000CE0160E00E948D04CE0162E00E948D048E
:100CE000CE0164E00E948D04CE0166E00E948D0476
:100CF0000D561C4FF8018081918103591340419793
:100D000014F46CE001C060E1CE0141E00E947D047A
:100D1000CE0161E00E948D04CE0163E00E948D044B
:100D2000CE0165E00E948D04CE0167E00E948D0433
:100D3000C8010E942E05DF91CF911F910F91FF9066
:100D4000EF9008950F931F938C010C5B1C4FF801DB
:100D50001182108204541340C80105960E94780441
:100D6000C8010E949E051F910F910895EF92FF9276
:100D70000F931F93CF93DF93EC01CC5BDC4F888103
:100D80009981C454D340892B09F001C1CD56DC4F61
:100D900028813981C359D3408E010B5F1F4F213108
:100DA00031056CF0C80168E040E00E947D04C80194
:100DB00063EB71E00E94A304C80168E00CC0C801A5
:100DC00062E040E00E947D04C8016AEA71E00E948E
:100DD000A304C80162E040E00E947D04E090E503C6
:100DE000F090E603C7010E9434789C018E010B5FEE
:100DF0001F4F84E02030380731F4C80161EA71E008
:100E00000E94A30426C0A901662757FD6095762F8E
:100E1000C8010E948305CD56DC4F48815981C359D2
:100E2000D3404131510514F466E001C06BE0C801C4
:100E300040E00E947D04C8016EE971E00E94A304B5
:100E4000C7010E942878AC0160E070E0C8010E94F0
:100E500083058E010B5F1F4FC80160E041E00E94D7
:100E60007D04CD56DC4F68817981C359D34061310F
:100E700071056CF0C80168E041E00E947D04C80182
:100E800064E971E00E94A304C80168E00CC0C801D5
:100E900062E041E00E947D04C8016BE871E00E94BD
:100EA000A304C80162E041E00E947D04C7010E94E2
:100EB0002E789C0184E02030380731F4C80162E8C4
:100EC00071E00E94A30426C0A901662757FD609522
:100ED000762FC8010E948305CD56DC4FA881B981C9
:100EE000C359D340A131B10514F466E001C06BE0F1
:100EF000C80141E00E947D04C8016FE771E00E94D3
:100F0000A304C7010E942278AC0160E070E0C80130
:100F10000E948305CD56DC4FE881F981C359D34047
:100F2000E131F10514F46CE001C060E1C80140E07A
:100F30000E947D04C80160E00E948D04C80162E047
:100F40000E948D04C80164E00E948D04C80166E01F
:100F50000E948D04CD56DC4F88819981419714F40D
:100F60006CE001C060E1C80141E00E947D04C8015D
:100F700061E00E948D04C80163E00E948D04C801F5
:100F800065E00E948D04C80167E00E948D04DF9136
:100F9000CF911F910F91FF90EF9008950F931F93A2
:100FA000CF93DF938C010C5B1C4F81E090E0F80144
:100FB0009183808304541340E8012596CE010E945A
:100FC00078040E944F44882389F0CE016AE671E0DC
:100FD0000E94A304CE0160E041E00E947D040E94D3
:100FE0005544BC01CE010E94910431C00E94554479
:100FF000FC012081222311F40E942948CE016BE5D7
:1010000071E00E94A304CE0160E041E00E947D04F3
:10101000CE0168E571E00E94A3040E945544BC0122
:10102000CE010E9491040B561C4FF8014081518162
:10103000055913404330510554F0CE0160E042E0C1
:101040000E947D04CE0169E471E00E94A304C801FE
:101050000E942E05DF91CF911F910F910895AF92BD
:10106000BF92DF92EF92FF920F931F93DF93CF9384
:10107000CDB7DEB7C156D1400FB6F894DEBF0FBE74
:10108000CDBF7C01D62E86E386177CF092E36917EC
:101090000CF087C0AAE26A1709F458C0B1E36B17D5
:1010A00069F0E3E26E1741F459C0F7E36F1709F1F5
:1010B00009E306170CF075C080E079C18701085B71
:1010C0001C4F2CE433E0E20EF31ED701ED91FC91AE
:1010D000D8016D917D918D919C91208131814281CA
:1010E00053810E94BA91F801608371838283938354
:1010F0005DC18701085B1C4F4CE453E0E40EF51E14
:10110000D701ED91FC91D8016D917D918D919C91CC
:1011100020813181428153810E94B991F80160831D
:1011200071838283938320E030E040E050E00E94AE
:101130001E9288230CF03AC180E090E0A0E0B0E07D
:10114000F80180839183A283B38330C1F701EE5A03
:10115000FC4FA08011E0A126A08228C18701045B7A
:101160001C4FD801ED91FC9111973496ED93FC93AF
:101170003497648175818681978120E030E040E07A
:1011800050E00E941E92882309F010C16EE473E0C3
:10119000E60EF71ED701ED90FC90F801F182E08297
:1011A00005C1A090B803B090B903C50160E070E03C
:1011B0000E942350882309F40BC1F8C044E550E095
:1011C00060E070E0F80145A356A367A370A722E092
:1011D00030E033A322A3C501B801E4C021E030E030
:1011E00040E050E0F80124A735A746A757A762E0E2
:1011F00070E072A761A788E493E0E80EF91E6091A1
:10120000CC037091CD038091CE039091CF03D70191
:101210002D913D914D915C910E94B99120C021E0AA
:1012200030E040E050E0F80124A735A746A757A7D3
:1012300082E090E092A781A748E453E0E40EF51E17
:101240006091CC037091CD038091CE039091CF0338
:10125000D7012D913D914D915C910E94BA91F80179
:10126000608B718B828B938B01E010E01687058772
:1012700095C081E090E0A0E0B0E0F80184A795A7D8
:10128000A6A7B7A742E050E052A741A768E473E0E1
:10129000E60EF71E6091C8037091C9038091CA03DE
:1012A0009091CB03D7012D913D914D915C910E947E
:1012B000B99120C041E050E060E070E0F80144A73F
:1012C00055A766A777A762E070E072A761A728E438
:1012D00033E0E20EF31E6091C8037091C903809160
:1012E000CA039091CB03D7012D913D914D915C9113
:1012F0000E94BA91F801618772878387948701E021
:1013000010E0178306834AC041E050E060E070E0DF
:10131000F80144A755A766A777A722E030E032A7D7
:1013200021A788E493E0E80EF91E6091D003709144
:10133000D1038091D2039091D303D7012D913D9198
:101340004D915C910E94BA9120C021E030E040E0D4
:1013500050E0F80124A735A746A757A782E090E000
:1013600092A781A768E473E0E60EF71E6091D003B0
:101370007091D1038091D2039091D303D7012D9125
:101380003D914D915C910E94B991F801678B708FEE
:10139000818F928F01E010E0158B048BC501BE0197
:1013A00063577F4F40E050E00E94955081E0CF5955
:1013B000DE4F0FB6F894DEBF0FBECDBFCF91DF91E9
:1013C0001F910F91FF90EF90DF90BF90AF90089525
:1013D000DE01A95BBF4F96E4FD0111929A95E9F7F2
:1013E00018E51B831A821982CE0101960980FD013E
:1013F0000192AF01FC01018011960C921197FA0144
:101400001183FC01038013960C92139704801496A9
:101410000C921497058015960C92159706801696D7
:101420000C92169779E57A8719861886088417969C
:101430000C921797098418960C92189719967C931A
:1014400019970B841A960C921A970C841B960C927F
:101450001B970D841C960C921C970E841D960C9263
:101460001D975AE5598B188A1F860F841E960C9279
:101470001E9708881F960C921F9750965C93509762
:101480000A8851960C9251970B8852960C9252975B
:101490000C8853960C9253970D8854960C9254973F
:1014A00035E4388F1F8A1E8A5596FE01769687E0AE
:1014B00001900D928150E1F7BDE4BF8F1E8E1D8E0D
:1014C000DE01AD59BF4FFE017D9687E001900D9280
:1014D0008150E1F7F7E4FEA31DA21CA2DE01A6598C
:1014E000BF4FFE01B49687E001900D928150E1F765
:1014F000A6E4ADA71CA61BA6DE01AF58BF4FFE0198
:10150000BB9687E001900D928150E1F720E52CAB6E
:101510001BAA1AAADE01A858BF4FFE01F29687E067
:1015200001900D928150E1F703E50BAF1AAE19AEB1
:10153000DE01A158BF4FFE01F99687E001900D92A0
:101540008150E1F734E5FE01EE5BFF4F3083FE0191
:10155000E05CFF4F11821082DE01AA57BF4F87E087
:1015600001900D928150E1F7DE01AD56BF4FFE01B3
:10157000E95BFF4F87E001900D928150E1F7DE01BA
:10158000A656BF4FFE01E25BFF4F87E001900D9230
:101590008150E1F7DE01AF55BF4FFE01EB5AFF4F1F
:1015A00087E001900D928150E1F7DE01A855BF4F11
:1015B000FE01E45AFF4F87E001900D928150E1F760
:1015C000DE01A155BF4FFE01ED59FF4F87E00190AD
:1015D0000D928150E1F7DE01AA54BF4FFE01E6599A
:1015E000FF4F87E001900D928150E1F7DE01A35497
:1015F000BF4FFE01EF58FF4F87E001900D928150E1
:10160000E1F7DE01AC53BF4FFE01E858FF4F87E022
:1016100001900D928150E1F7DE01A553BF4FFE010D
:10162000E158FF4F87E001900D928150E1F7DE0114
:10163000AE52BF4FFE01EA57FF4F87E001900D9277
:101640008150E1F78E0103571F4F20E030E040E06A
:1016500050E0FE01EE5BFE4F2083318342835383D3
:10166000FE01EA5BFE4F2083318342835383FE01F8
:10167000E65BFE4F2083318342835383FE01E25BAE
:10168000FE4F2083318342835383FE01EE5AFE4F87
:101690002083318342835383FE01EA5AFE4F208325
:1016A000318342835383FE01E65AFE4F2083318308
:1016B00042835383FE01E25AFE4F208331834283EB
:1016C0005383D80117961C921E921697F801118623
:1016D000128613861486FE01E551FF4F1082118297
:1016E00012821382FE01E550FF4F10821E961C925B
:1016F0001E921D97F801108A118A128A138AFE0120
:10170000E151FF4F1082118212821382FE01E450D8
:10171000FF4F108255961C921E925497F801178A1B
:10172000108E118E128EFE01ED50FF4F108211822D
:1017300012821382FE01E350FF4F10825C961C92CE
:101740001E925B97F801168E178E10A211A2FE0151
:10175000E950FF4F1082118212821382FE01E25083
:10176000FF4F108293961C921E929297F80115A239
:1017700016A217A210A612A611A69C961D921D9243
:101780001D921C929F97D1961C921E92D09713AADD
:1017900014AA15AA16AA10AE17AADA961D921D92BF
:1017A0001D921C92DD97DF961C921E92DE97FE0121
:1017B000E253FF4F108211821282138211961C9203
:1017C0001E92FE01E752FF4F108211821282138295
:1017D0008FEF9FEFAFEFBFEFF80182839383A48376
:1017E000B583FE01EF51FF4F208331834283538342
:1017F000FE01E951FF4F1082118212821382FE0115
:10180000E150FF4F11821082FE01EA5EFE4F10820E
:10181000118212821382FE01E25DFE4F108211825C
:1018200012821382FE01EE5CFE4F10821182128240
:101830001382FE01E65CFE4F108211821282138237
:10184000F5E3DF1609F4BACCFD1564F083E3D8168E
:1018500009F45ACD8D150CF40CCD52E3D51609F0D0
:101860009DCDBCCC78E3D71609F4D9CC49E3D41686
:1018700009F46BCD66E3D61609F090CD1BCDAF927F
:10188000BF92CF92DF92EF92FF920F931F936C0162
:1018900079018A010E949104FFEFAF2EF2E0BF2E82
:1018A000AC0CBD1CC801B70145E021E085010E94D8
:1018B0009994C601B5010E9491041F910F91FF9068
:1018C000EF90DF90CF90BF90AF9008954F925F92CE
:1018D0006F927F928F929F92AF92BF92CF92DF9240
:1018E000EF92FF920F931F932C0115E0C12ED12C84
:1018F000C80ED91EC6010E947804B0E56B2EB3E075
:101900007B2E640C751CF301E080F180C60160E061
:1019100072E00E9491040027F7FC0095102FC60189
:10192000B801A7010E948305C6016AE040E00E9459
:101930007D04A090E303B090E403F3016081718122
:10194000ACE38A2E912C689DF001699DF00D789D85
:10195000F00D1124EA0DFB1D658976898789908D2C
:101960000E948A927B018C01C60166E072E00E94AF
:101970009104C601B801A7010E948305C60160E079
:1019800041E00E947D04F30140815181489DF001B6
:10199000499DF00D589DF00D1124EA0DFB1D658D3C
:1019A000768D878D90A10E94BB929B01AC01C601F0
:1019B0006BE072E00E943F0CC6016AE041E00E94C9
:1019C0007D04F30100811181089DF001099DF00D56
:1019D000189DF00D1124EA0DFB1D618D728D838D14
:1019E000948D0E948A927B018C01C60160E172E0B5
:1019F0000E949104C601B801A7010E948305C60197
:101A000060E042E00E947D04C5010E943D199B01F7
:101A1000AC01C60165E172E00E943F0CC60169E1BC
:101A200072E00E949104C60169E042E00E947D04D8
:101A3000F30160807180689CC001699C900D789C66
:101A4000900D1124A80EB91EF50125853685478510
:101A50005089C6016BE172E00E943F0CC2010E94F6
:101A60002E051F910F91FF90EF90DF90CF90BF90C8
:101A7000AF909F908F907F906F905F904F90089560
:101A8000EF92FF920F931F93CF93DF93EC018C01A2
:101A90000B5F1F4F2091C8033091C9034091CA03C7
:101AA0005091CB03C80160E272E00E943F0CC80174
:101AB00068E040E00E947D042091CC033091CD038A
:101AC0004091CE035091CF03C80163E272E00E94BF
:101AD0003F0CC80160E041E00E947D042091D003EA
:101AE0003091D1034091D2035091D303C80166E2F3
:101AF00072E00E943F0CCB56DC4F88819981C5591A
:101B0000D34048E4E42E43E0F42EEC0EFD1E039790
:101B10000CF45DC0C80168E041E00E947D042091A2
:101B2000D4033091D5034091D6035091D703C80117
:101B300069E272E00E943F0CC80160E042E00E944E
:101B40007D04F7012081318142815381C8016CE21B
:101B500072E00E943F0CCD56DC4F28813981C35979
:101B6000D340FE01E45BFC4F213131055CF0019074
:101B7000F081E02D2081318142815381C80162E3EF
:101B800072E00AC00190F081E02D20813181428114
:101B90005381C80168E372E00E943F0CC80160E015
:101BA00043E00E947D04CE5ADC4FE880C255D3400A
:101BB000EE2029F43AE3E32E32E0F32E04C02EE3C4
:101BC000E22E22E0F22EC80162E472E029C0F701A1
:101BD0002081318142815381C8016CE472E00E940E
:101BE0003F0CC45BDC4FE881F98120813181428167
:101BF0005381C80168E372E00E943F0C2696F8808A
:101C0000C255D340FF2029F49FE4E92E92E0F92E3B
:101C100004C081E5E82E82E0F82EC80163E572E099
:101C20000E949104C801B7010E949104CD56DC4F77
:101C3000488159814131510554F1C80160E140E0CA
:101C40000E947D04C80160E00E948D04C80162E02A
:101C50000E948D04C80164E00E948D04C80166E002
:101C60000E948D04C80160E141E00E947D04C8012A
:101C700061E00E948D04C80163E00E948D04C801E8
:101C800065E00E948D04C80167E00E948D04DF9129
:101C9000CF911F910F91FF90EF900895CF93DF9315
:101CA000EC01FC01EC5BFC4F80819181861797076A
:101CB00079F162307105C9F0633071053CF461154A
:101CC000710559F06130710519F50BC0633071056C
:101CD000B1F064307105E1F416C0CE010E94A20695
:101CE00017C0CE010E94CE0713C071836083CE015E
:101CF00005960E947804CE010E94400D09C0CE01D5
:101D00000E94170505C071836083CE010E94660C96
:101D1000DF91CF9108958F929F92AF92BF92CF9211
:101D2000DF92EF92FF920F931F93CF93DF93EC011B
:101D3000162FCC5BDC4F88819981C454D34081300D
:101D4000910509F441C1823091051CF4892B49F0B9
:101D50000FC48230910509F44AC1049709F008C400
:101D60004DC1663331F1673344F4633391F064332A
:101D7000A1F0613309F0FCC308C0693361F161343B
:101D800081F1673309F0F4C320C0CE0165E070E053
:101D90001FC0CE0165E070E021C00091E503109105
:101DA000E603C80160E070E00E9440788823C9F330
:101DB000FDC30091E5031091E603C80160E070E007
:101DC0000E943A788823C9F3F1C3CE016BEF7FEF0D
:101DD0000E944905EBC3CE016BEF7FEF0E946605C1
:101DE000E5C3A5E08A2E912C8C0E9D1E8BA19CA193
:101DF0008F5F9F4F09F4DEC0BFB6F894FE01EC5030
:101E0000FD4FC051DD4F68817981718360832696D3
:101E100079836883289719821882CE5ED240BFBE2C
:101E20002FB7F894FE01E050FD4FC450DD4F4881BC
:101E30005981518340832696598348832897198274
:101E40001882CA5FD2402FBFF5E0AF2EB12CAC0E86
:101E5000BD1EC50161E00E946803C50160E00E94EB
:101E60008303E8E0EE2EF12CEC0EFD1EC70161E0CD
:101E70000E946803C70160E00E9483037BE0C72ED5
:101E8000D12CCC0EDD1EC60161E00E946803C601A4
:101E900060E00E9483038E01065E1F4FC80160E070
:101EA0000E948303C80161E00E9468038E01035E03
:101EB0001F4FC80160E00E948303C80161E00E94D7
:101EC00068038E01005E1F4FC80160E00E9483031B
:101ED000C80161E00E9468038E010D5D1F4FC801BB
:101EE00060E00E948303C80161E00E946803C701AB
:101EF00061E00E946803C70160E00E948303C5019E
:101F000061E00E946803C50160E00E948303C6018E
:101F100061E00E946803C60160E00E94830364E6FA
:101F200070E080E090E00E946F4BC40163E00E948B
:101F3000B7046AE070E080E090E00E946F4BC4015B
:101F400063E00E94B7046AE070E080E090E00E94E5
:101F50006F4BC40163E00E94B7046AE070E080E068
:101F600090E00E946F4BC40162E00E94B7046AE0F7
:101F700070E080E090E00E946F4B11E01EA70AA580
:101F8000023010F460E001C068E06062C40140E02B
:101F90000E941304C4016CE040E00E941304C401D9
:101FA0000E947804C40164E040E00E941304C4016C
:101FB0000E947804C4010E947804CE010E94A20607
:101FC000CE010E949E05F2C20E944F44882309F070
:101FD000CFC2133231F0163309F0CAC20E94294829
:101FE00002C00E94F547CE010E94CE07EAC2CE0190
:101FF0000E942F08882309F0E4C2BAC2653309F4AD
:10200000ACC26633C4F46133E1F1623354F46A3232
:1020100009F468C2603309F49DC2633209F0A8C2B2
:1020200086C2633309F469C0FE01E05BFC4F643390
:102030000CF01DC191C1683309F4DEC169333CF471
:10204000663309F448C1673309F092C29EC0693310
:1020500009F4D2C0362F3154343008F089C2262F0B
:10206000332727FD309521543040FE01E05BFC4FC3
:10207000808091802815390509F47AC23183208344
:102080009DC2C090E303D090E403C05BDC4FE880C6
:10209000F980C055D3408CE390E0E89ED001E99EE2
:1020A000B00DF89EB00D1124CA0EDB1EF601658935
:1020B00076898789908D20E030E048EC52E40E94D8
:1020C000B9917B018C0120E030E048EC52E40E94A1
:1020D0006D9388230CF475C2C801B70120E030E08D
:1020E00040E050E00E941E9218160CF067C2F60104
:1020F000E58AF68A078B108F61C2A090E303B09047
:10210000E403C05BDC4F88809980C055D3402CE34A
:1021100030E0829E8001839E100D929E100D11244E
:102120000A0D1B1DF801658976898789908D20E04D
:1021300030E048EC52E40E94BA916B017C01F80156
:10214000218D328D438D548D0E941E9218160CF4F1
:1021500038C2C701B60120E030E040E050E00E9404
:102160001E9218160CF02AC2ACE3B0E08A9EA001C1
:102170008B9E500D9A9E500D1124A40EB51EF50194
:10218000C58AD68AE78AF08E19C2C090E303D09040
:10219000E403C05BDC4FE880F980C055D3408CE39A
:1021A00090E0E89E4001E99E900CF89E900C11246E
:1021B000C80CD91CF601618D728D838D948D20E041
:1021C00030E048EC52E40E94B9917B018C01F601A9
:1021D000258936894789508D0E946D9388230CF498
:1021E000F0C1C801B70120E030E040E050E00E94BB
:1021F0001E921816B4F1E2C1C090E303D090E4033C
:10220000C05BDC4FA880B980C055D3400CE310E020
:10221000A09EF001A19EF00DB09EF00D1124EC0DDA
:10222000FD1D618D728D838D948D20E030E048EC32
:1022300052E40E94BA917B018C0120E030E040E042
:1022400050E00E941E9218160CF0B8C16CE370E0CA
:10225000A69EA001A79E500DB69E500D1124C40E3F
:10226000D51EF601E18EF28E038F148FA7C1C090A8
:10227000E303D090E403A080B1808CE390E0A89EBB
:10228000D001A99EB00DB89EB00D1124CA0EDB1E60
:10229000F601658D768D878D90A10E94BB9220E01E
:1022A00030E048EC52E40E94B9917B018C0120E0BF
:1022B00030E048EC52E40E946D9388230CF481C115
:1022C000C801B70120E030E040E050E00E941E92DB
:1022D0001816C4F173C1C090E303D090E403C05B4F
:1022E000DC4FA880B980C055D3400CE310E0A09E1D
:1022F000F001A19EF00DB09EF00D1124EC0DFD1D1E
:10230000658D768D878D90A10E94BB9220E030E094
:1023100048EC52E40E94BA917B018C0120E030E04D
:1023200040E050E00E941E9218160CF047C16CE38A
:1023300070E0A69EA001A79E500DB69E500D1124E0
:10234000C40ED51EC801B7010E948F92F601658F99
:10235000768F878F90A332C1208131812230310561
:1023600021F1233031051CF4332334F427C1233009
:10237000310509F023C12BC00091E3031091E40360
:10238000ACE3B0E02A9F60012B9FD00C3A9FD00CA9
:1023900011240C0D1D1DF8016081718182819381D2
:1023A00020E030E040E85FE30FC00091E3031091CC
:1023B000E40308581F4FF801608171818281938185
:1023C0002DEC3CEC4CEC5DE30E94B99153C0C09005
:1023D000E303D090E40361ECA62EB12CAC0CBD1C41
:1023E000F501608171818281938120E030E040E2DB
:1023F00051E40E94BA9158C0C05BDC4F28813981FA
:10240000C055D3402230310521F1233031051CF471
:10241000332334F4D3C02330310509F0CFC030C0AA
:102420000091E3031091E4038CE390E0289F4001C6
:10243000299F900C389F900C1124080D191DF8014C
:10244000608171818281938120E030E040E85FE328
:102450000FC00091E3031091E40308581F4FF801E7
:1024600060817181828193812DEC3CEC4CEC5DE3C9
:102470000E94BA91F80160837183828393839EC026
:10248000C090E303D090E40351ECA52EB12CAC0C2A
:10249000BD1CF501608171818281938120E030E073
:1024A00040E251E40E94B9917B018C0120E030E0D0
:1024B00040E050E00E941E9218160CF07FC0F5011B
:1024C000E082F1820283138345EC50E0C40ED51EF6
:1024D000C801B7010E948F92F601608371838283E5
:1024E00093836CC0C090E303D090E403C6010E94C4
:1024F0003D1920E030E040EA50E40E94B9917B01B0
:102500008C0120E030E048EC51E40E941E928823C8
:1025100054F40F2EF0E0EF2EF0E0FF2EF8EC0F2F2A
:10252000F1E41F2FF02DC601B801A70110C00091E2
:10253000E3031091E403C8010E943D1920E030E05C
:1025400040EA50E40E94BA91AB01BC01C8010E946C
:10255000281934C00E94016231C0E091B803F091A3
:10256000B903EB54F34F908091E09926908226C0F6
:10257000123471F013341CF4113419F505C01334FE
:1025800059F01434F1F40CC0CE0160E070E00BC0DF
:10259000CE0161E070E007C0CE0162E070E003C0F0
:1025A000CE0164E070E00E944E0E0BC0CE01059695
:1025B0000E947804CE010E949E0503C0CE010E94B5
:1025C000660CDF91CF911F910F91FF90EF90DF90FC
:1025D000CF90BF90AF909F908F9008952F923F9291
:1025E0004F925F926F927F928F929F92AF92BF9223
:1025F000CF92DF92EF92FF920F931F93DF93CF93CF
:1026000000D000D0CDB7DEB76090B8037090B903AA
:102610004090E1035090E203E090E503E982F090FE
:10262000E603FA823E2C2F2CC3010E942957C301D6
:102630000E942957C3010E946B5EC2010E94434A57
:1026400089819A810E9406790E94B479809115044B
:10265000882309F4F7C02FB7F894A091D506B0915C
:10266000D6062FBF109709F4EDC08CEE93E00E94C0
:102670009E03882309F0E6C08FB6F894E091D50652
:10268000F091D6068FBE309709F4DCC09090160406
:10269000992059F4E091DB06F091DC06F080E0919E
:1026A000E706F091E806008148C0E091DB06F09172
:1026B000DC06F190F093DC06E093DB06A090D906EF
:1026C000B090DA06EA15FB0541F4C090D706D09029
:1026D000D806D092DC06C092DB06BFB6F894809193
:1026E000D5069091D60601979093D6068093D5068D
:1026F000BFBEE091E706F091E8060191F093E8068D
:10270000E093E7064091E5065091E606E417F507E9
:1027100041F46091E3067091E4067093E8066093DB
:10272000E706DFB6F894A091E106B091E2061197B2
:10273000B093E206A093E106DFBE8FEE93E060E087
:102740000E9483038CEE93E0602F0E94830381E05C
:1027500094E061E00E94680300911604002319F4DC
:1027600084E090E002C080E090E0EF2CFF24B7010D
:1027700002C0759567958A95E2F76170707081E087
:1027800094E00E94830384E094E061E00E94680387
:1027900010911604112319F485E090E002C081E045
:1027A00090E0B70102C0759567958A95E2F7617070
:1027B000707084E094E00E94830387E094E061E01D
:1027C0000E94680330911604332319F486E090E0E8
:1027D00002C082E090E0B70102C0759567958A95C6
:1027E000E2F76170707087E094E00E9483038AE0F2
:1027F00094E061E00E94680350911604552319F497
:1028000087E090E002C083E090E002C0F594E79496
:102810008A95E2F701E0E022FF248AE094E06E2D41
:102820000E9483037091160491E079277093160437
:1028300082EF93E061E00E94830382EF93E060E027
:102840000E94830320910B0730910C071FEF2F3F4D
:10285000310709F4F7C10E941F4C6B017C01AA24C7
:10286000BB24A501440F551F4A0D5B1D455F584F02
:102870005C834B83CA0161E00E9468038B819C8169
:1028800060E00E948303E0911707F09118078081B0
:1028900000E090E0B0911907BF700B2E02C0959533
:1028A00087950A94E2F780FF01E0E0911A07F09122
:1028B0001B07808190E0F0911C07FF700F2E02C073
:1028C000959587950A94E2F780FF0260E0911D07D5
:1028D000F0911E07808190E060911F076F70062EB7
:1028E00002C0959587950A94E2F780FF0460E09115
:1028F0002007F0912107808190E0A0912207AF701E
:102900000A2E02C0959587950A94E2F780FF086029
:102910008B819C8160E00E9468038B819C8160E0D8
:102920000E948303002309F444C000FF03C080E039
:1029300090E00EC001FF03C081E090E009C002FFFB
:1029400003C082E090E004C003FF33C083E090E066
:10295000880F991FE0912307F0912407E80FF91FD2
:102960000190F081E02DEA0DFB1D008180902A0787
:10297000081571F48091260790912707A0912807E8
:10298000B0912907C816D906EA06FB06C0F55AC158
:1029900000932A0790902507C90CD11CE11CF11C5B
:1029A000C0922607D0922707E0922807F0922907C5
:1029B00049C10894A11CB11C34E0A316B10409F06C
:1029C00050CF8091260790912707A0912807B091BA
:1029D00029070097A105B10509F434C18C159D059F
:1029E000AE05BF0508F02EC11092260710922707EA
:1029F000109228071092290710922A0723C100235A
:102A000049F0F090EB030F1529F087EE93E0602F6B
:102A10000E948B0E0093EB030E94114C9B01AC01B2
:102A2000A090E703B090E803C090E903D090EA03D8
:102A30007B018C01EA18FB080C091D09D801C701AC
:102A4000815D9740A040B04008F4F9C02093E703AF
:102A50003093E8034093E9035093EA03832D922DCA
:102A60000E9434788C01832D922D0E942878680171
:102A7000C81AD90AC60162E070E00E945E944B0158
:102A8000CB01683071051CF087E090E007C068EF6B
:102A900086166FEF960614F488EF9FEF44275527AC
:102AA000481B590B495F5F4FAAE3B7E0FD017096E1
:102AB00020E030E01CC09160908B10891F71108B5A
:102AC00080A1992787FD9095880F991F982F80A343
:102AD0002417350711F4916090A370A17F7170A342
:102AE0002F5F3F4F119631962031310561F18C9166
:102AF000992787FD9095880F991F982F8C93B08008
:102B0000B4FE02C091609C939C919F719C938081C4
:102B1000992787FD9095880F991F982F8083D088DB
:102B2000D4FE02C09160908380818F718083808900
:102B3000992787FD9095880F991F982F808B60A10A
:102B400064FDB9CFBACFCC24DD241AE3A12E17E05F
:102B5000B12EAC0CBD1C6C2D60648CEE93E040E09B
:102B60000E941304F5018CEE93E060810E948D04B5
:102B700085010F5F1F4F8CEE93E0F50161810E948C
:102B80008D0478010894E11CF11C8CEE93E0F801AF
:102B900061810E948D0487010F5F1F4F8CEE93E0CF
:102BA000F70161810E948D0448010894811C911CE9
:102BB0008CEE93E0F80161810E948D0484010F5F27
:102BC0001F4F8CEE93E0F40161810E948D048CEE26
:102BD00093E0F80161810E948D048CEE93E00F5F19
:102BE0001F4FF80161810E948D04E0911304F09160
:102BF0001404608160688CEE93E040E00E9413044E
:102C0000B8E02B2F312DC20ED31E00E4C016D10424
:102C100009F09BCF87EE93E00E94B60640912B0708
:102C200050912C074230510551F48CEE93E062E054
:102C300040E00E94130487EE93E00E94400D0E9442
:102C4000D244F2CC00E0E6CE0F931F93CF93DF93F4
:102C500078940E94694B0E9467440E940548C09185
:102C6000E103D091E203882371F010E003C0CE01AC
:102C70000E942903E12FF0E0E95AFD4F60811F5FB8
:102C80006623A9F70FC010E003C0CE010E942903FC
:102C9000E12FF0E0EB59FD4F60811F5F6623A9F73C
:102CA0000E94847A0091E1031091E203C4EED0E027
:102CB00003C0C8010E942903FE0121966491662386
:102CC000C1F70E94EE1280E090E0DF91CF911F915A
:102CD0000F910895CF93DF93DC01EC01C853DE4FD1
:102CE000E881F9816083888199810196998388833D
:102CF000AC53BE4F2D913C911197A45CB14082170B
:102D0000930749F4AE53BE4F4D915C911197A25C6D
:102D1000B140598348833FB7F894FD01E054FE4F1A
:102D2000C081D1812196D183C0833FBF6D917C91B9
:102D30006230710531F45091D10050625093D1004E
:102D400005C07091C10070627093C100DF91CF9196
:102D50000895EF92FF921F93CF93DF937C01EB01D5
:102D600010E003C0C7010E942903FE01E10FF11D1D
:102D700060811F5F6623B1F7DF91CF911F91FF90B4
:102D8000EF9008950F931F93CF93DF938C01EB0186
:102D900003C0C8010E942903FE01219664916623A5
:102DA000C1F7DF91CF911F910F910895FC01A08190
:102DB000B18112964C91129782818F7021E030E0A0
:102DC00002C0220F331F8A95E2F7922F662311F07B
:102DD000822F01C080E090959423892B12968C93CA
:102DE0000895EF92FF920F931F93FC01CB01BA015C
:102DF00025853685478550890E9471939B01AC01DA
:102E000060EC71EE84E69EE40E9422927B018C01CC
:102E100020E034E244E75BE40E946D93181654F41A
:102E20000F2EF0E0EF2EF4E2FF2EF4E70F2FFBE47D
:102E30001F2FF02DC801B7010E948F929B01AC019A
:102E4000CA011F910F91FF90EF9008952F923F922A
:102E50004F925F926F927F928F929F92AF92BF92AA
:102E6000CF92DF92EF92FF920F931F931C012A01E2
:102E70003B01C901B80120E030E040E752E40E9484
:102E800022924B015C01C301B20120E030E040E737
:102E900052E40E9422922B013C01C501B401A5011C
:102EA00094010E9471934B015C01C301B201A30123
:102EB00092010E9471939B01AC01C501B4010E9473
:102EC000B9914B015C01C701B601A70196010E94AF
:102ED000BA919B01AC01C501B4010E942292F1019B
:102EE00025853685478550890E9471930E948F926F
:102EF0009B01AC01CA011F910F91FF90EF90DF90F1
:102F0000CF90BF90AF909F908F907F906F905F9089
:102F10004F903F902F9008956F927F928F929F9243
:102F2000AF92BF92CF92DF92EF92FF920F931F93D7
:102F3000CF93DF93EC0189859A85AB85BC8500979B
:102F4000A105B10509F4F4C06C80662009F446C0FF
:102F5000E8ADF9AD8FEFEF3FF80709F490C080813D
:102F600090E00AAD0F70002E02C0959587950A94E7
:102F7000E2F78170907020919003281709F47FC0C8
:102F8000EFA0F8A409A51AA5C801B70120E030EA0E
:102F90004CE056E40E941E9288230CF444C0E88062
:102FA000F9800A811B816D817E818F81988589845A
:102FB0009A84AB84BC84681979098A099B090E94A8
:102FC000BB922D853E854F8558890E9422929B0198
:102FD000AC01C801B7010E94BA9148C0EDA9FEA991
:102FE0008FEFEF3FF80709F44AC0808190E01FA9F6
:102FF0001F70012E02C0959587950A94E2F78170A3
:103000009070709090037816D1F1EBA0FCA00DA108
:103010001EA1C801B70120E030EA4CE056E40E944E
:103020001E9288232CF4E882F9820A831B8322C033
:10303000A880B980CA80DB806D817E818F81988570
:1030400069847A848B849C84661977098809990934
:103050000E94BB922D853E854F8558890E94229201
:103060009B01AC01C601B5010E94B99168837983C7
:103070008A839B8319861A861B861C8659C08E01FB
:10308000055D1F4FC80161E00E948303C80160E035
:103090000E94830389859A85AB85BC850197A10928
:1030A000B10989879A87AB87BC87C984DA84EB84A6
:1030B000FC84C114D104E104F104D1F56880798065
:1030C0008A809B802D813E814F815885AD84BE844E
:1030D000CF84D888FC80FF2059F40F2EF0E0EF2E2B
:1030E000F0E0FF2EF0E80F2FFFEB1F2FF02D0AC0AE
:1030F0000F2EF0E0EF2EF0E0FF2EF0E80F2FFFE3B1
:103100001F2FF02DCA01B9010E94BB92A6019501A3
:103110000E942292A80197010E9471939B01AC0129
:10312000C401B3010E94BA91688379838A839B8327
:10313000DF91CF911F910F91FF90EF90DF90CF9093
:10314000BF90AF909F908F907F906F9008950F9356
:103150001F93CF93DF93EC018B016D857E858F8567
:10316000988920E030E040E85FE30E941E928823C7
:1031700029F4C80162E372E00E94C2168D8D9E8D13
:10318000AF8DB8A10197A105B10529F4C80167E287
:1031900072E00E94C2164BA55CA52FEF4F3F52076D
:1031A00029F4C8016DE172E00E94C2166EA57FA5E8
:1031B0002FEF6F3F720729F4C80164E172E00E94AB
:1031C000C216AAA9BBA92FEFAF3FB20729F4C801C5
:1031D00068E072E00E94C216EDA9FEA92FEFEF3F52
:1031E000F20729F4C8016FEF71E00E94C21688ADA2
:1031F00099AD8F5F9F4F29F4C80166EF71E00E947F
:10320000C2162BAD222329F0C80160EF71E00E94A5
:10321000C21639A9332329F0C8016AEE71E00E9471
:10322000C21650918F03552329F0C80162EE71E058
:103230000E94C21670919003772329F0C8016BEDAC
:1032400071E00E94C216DF91CF911F910F910895F6
:103250000F931F938C01CB01BA0120E030E048ECC2
:1032600052E40E9422920B5E1E4FF801608371832C
:10327000828393831F910F910895FC01EB5EFE4FB3
:10328000608171818281938120E030E048EC52E4DA
:103290000E9471939B01AC01CA010895FC018091C9
:1032A0007703882339F540E050E060E070E0409318
:1032B0007F03509380036093810370938203409354
:1032C0008303509384036093850370938603409334
:1032D0008703509388036093890370938A03409314
:1032E0008B0350938C0360938D0370938E0321E0C6
:1032F0002093770380819181A281B38180937F03A2
:1033000090938003A0938103B093820344AD55ADA5
:1033100066AD77AD40938303509384036093850338
:1033200070938603E858FF4F208131814281538199
:1033300020938703309388034093890350938A0333
:10334000FC9680819181A281B38180938B039093BD
:103350008C03A0938D03B0938E038FE793E00895C1
:10336000CF93DF93EC01FB0186819781892B41F09C
:103370002185328543855485288339834A835B833D
:10338000A585B685109741F0408951896289738976
:103390004CAF5DAF6EAF7FAF84899589892B61F0AB
:1033A0002789308D418D528DC858DF4F288339834E
:1033B0004A835B83C857D040A38DB48D109751F0DA
:1033C000468D578D60A171A1CC54DF4F488359833E
:1033D0006A837B83DF91CF910895CF92DF92EF9242
:1033E000FF920F931F93CF93DF93EC016B01FB01CF
:1033F00086819781892B91F0E184F284038514857D
:10340000C801B70120E030E040E050E00E941E9289
:10341000181624F4ED8AFE8A0F8B188FF601A58505
:10342000B6851097B1F0E088F18802891389C80148
:10343000B70120E030E040E050E00E941E921816F4
:1034400044F4CF5ADF4FE882F9820A831B83C155C7
:10345000D040F60184899589892BB1F0E788F08CFA
:10346000018D128DC801B70120E030E040E050E04E
:103470000E941E92181644F4C357DF4FE882F98267
:103480000A831B83CD58D040F601A38DB48D1097CD
:10349000A1F0E68CF78C00A111A1C801B70120E0D2
:1034A00030E040E050E00E941E92181634F4C753FA
:1034B000DF4FE882F9820A831B83DF91CF911F914E
:1034C0000F91FF90EF90DF90CF900895CF92DF9211
:1034D000EF92FF920F931F93CF93DF93EC016B0159
:1034E000FB0186819781892B91F0E184F284038529
:1034F0001485C801B70120E030E040E050E00E94B0
:103500001E92181624F4E98EFA8E0B8F1C8FF6018A
:10351000A585B6851097B1F0E088F18802891389F6
:10352000C801B70120E030E040E050E00E941E9268
:10353000181644F4CB5ADF4FE882F9820A831B83C2
:10354000C555D040F60184899589892BB1F0E7886B
:10355000F08C018D128DC801B70120E030E040E011
:1035600050E00E941E92181644F4CF56DF4FE882B6
:10357000F9820A831B83C159D040F601A38DB48D13
:103580001097A1F0E68CF78C00A111A1C801B7013A
:1035900020E030E040E050E00E941E92181634F423
:1035A000C353DF4FE882F9820A831B83DF91CF91F7
:1035B0001F910F91FF90EF90DF90CF9008950895A5
:1035C000CF92DF92EF92FF920F931F93CF93DF93EF
:1035D000EC016B01FB0186819781892BD1F0E1849D
:1035E000F28403851485C801B70120E030E040E093
:1035F00050E00E941E92181664F4ED86FE860F8736
:10360000188BC801B7010E948F92698B7A8B8B8BC4
:103610009C8BF601A585B6851097F1F0E088F188BE
:1036200002891389C801B70120E030E040E050E092
:103630000E941E92181684F4C75BDF4FE992F9923C
:1036400009931993C801B7010E948F926883798307
:103650008A839B83CD54D040F60184899589892B38
:10366000F1F0E788F08C018D128DC801B70120E0E0
:1036700030E040E050E00E941E92181684F4CB57D0
:10368000DF4FE992F99209931993C801B7010E949B
:103690008F92688379838A839B83C958D040F601CF
:1036A000A38DB48D1097E1F0C68CD78CE0A0F1A06B
:1036B000C701B60120E030E040E050E00E941E92D9
:1036C000181674F4CF53DF4FC992D992E992F99248
:1036D000C701B6010E948F92688379838A839B8396
:1036E000DF91CF911F910F91FF90EF90DF90CF90DE
:1036F0000895CF92DF92EF92FF920F931F93CF9393
:10370000DF93EC016B01FB0186819781892BB1F07E
:10371000E184F28403851485C801B70120E030E01C
:1037200040E050E00E941E92181644F4C801B70110
:103730000E948F926D8F7E8F8F8F98A3F601A58543
:10374000B6851097D1F0E088F18802891389C80105
:10375000B70120E030E040E050E00E941E921816D1
:1037600064F4C75ADF4FC801B7010E948F92688383
:1037700079838A839B83C955D040F60184899589D2
:10378000892BD1F0E788F08C018D128DC801B7012B
:1037900020E030E040E050E00E941E92181664F4F1
:1037A000CB56DF4FC801B7010E948F92688379839F
:1037B0008A839B83C559D040F601A38DB48D1097A1
:1037C000C1F0E68CF78C00A111A1C801B70120E07F
:1037D00030E040E050E00E941E92181654F4CF52A0
:1037E000DF4FC801B7010E948F92688379838A8373
:1037F0009B83DF91CF911F910F91FF90EF90DF900E
:10380000CF900895CF93DF93EC01FB0186819781E0
:10381000892B61F020E041855285638574854115CF
:1038200051056105710509F021E029ABA585B68533
:10383000109779F09E0123593F4F40E0808991898C
:10384000A289B3890097A105B10509F041E0D9012A
:103850004C9384899589892B79F09E0127553F4F98
:1038600040E08789908DA18DB28D0097A105B105AB
:1038700009F041E0D9014C93838D948D892B71F02F
:10388000CB51DF4F20E0468D578D60A171A14115CE
:1038900051056105710509F021E02883DF91CF9181
:1038A0000895CF93DF93FC01EB018E819F81892BDB
:1038B00041F029853A854B855C8523A334A345A334
:1038C00056A3AD85BE85109761F0E15AFF4F488938
:1038D00059896A897B894083518362837383EF5559
:1038E000F0408C899D89892B61F0E556FF4F2F8927
:1038F000388D498D5A8D2083318342835383EB5910
:10390000F040AB8DBC8D109751F0E952FF4F4E8DBA
:103910005F8D68A179A14083518362837383DF91B6
:10392000CF910895CF93DF93FC01EB018E819F81AE
:10393000892B41F029853A854B855C8527A330A7E3
:1039400041A752A7AD85BE85109761F0ED59FF4F95
:10395000488959896A897B8940835183628373834B
:10396000E356F0408C899D89892B61F0E156FF4F29
:103970002F89388D498D5A8D20833183428353831B
:10398000EF59F040AB8DBC8D109751F0E552FF4FD1
:103990004E8D5F8D68A179A14083518362837383CB
:1039A000DF91CF910895CF93DF93EC01FB018681E6
:1039B0009781892B61F020E041855285638574856C
:1039C000411551056105710509F021E02BAFA58571
:1039D000B685109779F09E0129583F4F40E08089C5
:1039E0009189A289B3890097A105B10509F041E049
:1039F000D9014C9384899589892B79F09E012D54A6
:103A00003F4F40E08789908DA18DB28D0097A10531
:103A1000B10509F041E0D9014C93838D948D892B38
:103A200071F0C151DF4F20E0468D578D60A171A12B
:103A3000411551056105710509F021E02883DF91E9
:103A4000CF91089540938F03609390030895CF938F
:103A5000DF93EC018AA99BA98F5F9F4F29F0CE01CC
:103A6000C29661E00E948303FE01E259FF4F40814C
:103A700051812FEF4F3F520721F0CF0161E00E94AB
:103A80008303FE01E655FF4F608171812FEF6F3F89
:103A9000720721F0CF0161E00E948303FE01EA5129
:103AA000FF4FA081B1812FEFAF3FB20721F0CF01CF
:103AB00061E00E948303DF91CF9108950895AC01E6
:103AC000ACE3B0E06A9F90016B9F300D7A9F300DA0
:103AD0001124FC01E20FF31F83AD882361F082A95A
:103AE00093A98F5F9F4F39F0C901C296840F951F2C
:103AF00061E00E9483030895CF92DF92EF92FF92DC
:103B00000F931F93CF93DF936C01EB01CB53DF4FE8
:103B1000288139814A815B81C55CD0408E819F813B
:103B2000892B19F4CA01B90104C069857A858B858E
:103B30009C850E94B9917B018C0120E030E040E03F
:103B400050E00E941E92FE01E259FF4F87FD03C024
:103B500021E0208305C017FB109517F910951082FE
:103B6000C801B701F60125853685478550890E9431
:103B700071930E948F92C25ADF4F688379838A8340
:103B80009B83CE55D040FE01E65AFF4FE080F18086
:103B900002811381E616F7060807190750F46083BF
:103BA000718382839383CE58DF4F19821882C25764
:103BB000D040C753DF4F288139814A815B81C95C7E
:103BC000D040AD85BE85109719F4CA01B90104C073
:103BD000688979898A899B890E94B9917B018C01C6
:103BE00020E030E040E050E00E941E92FE01E159EA
:103BF000FF4F87FD03C031E0308305C017FB1095F0
:103C000017F910951082F601E75BFF4FC801B70165
:103C100020813181428153810E9471930E948F9251
:103C20009B01AC01CE59DF4F688379838A839B83E4
:103C3000C256D040FE01E65AFF4F80819181A28199
:103C4000B38182179307A407B50760F420833183FB
:103C500042835383CE58DF4F01E010E0198308837D
:103C6000C257D040C353DF4F288139814A815B81DD
:103C7000CD5CD040AC89BD89109719F4CA01B90157
:103C800004C06F89788D898D9A8D0E94B9917B01CE
:103C90008C0120E030E040E050E00E941E92FE01E6
:103CA000E059FF4F87FD03C041E0408305C017FB8B
:103CB000109517F910951082F601EB57FF4FC801C8
:103CC000B70120813181428153810E9471930E940A
:103CD0008F92CA59DF4F688379838A839B83C65644
:103CE000D040FE01E65AFF4FE080F180028113814F
:103CF000E616F7060807190760F46083718382836C
:103D00009383CE58DF4F62E070E079836883C257B7
:103D1000D040CF52DF4F288139814A815B81C15D1C
:103D2000D0408B8D9C8D892B19F4CA01B90104C038
:103D30006E8D7F8D88A199A10E94B9917B018C0124
:103D400020E030E040E050E00E941E92FE01EF587B
:103D5000FF4F882334F417FB109517F91095108244
:103D600002C051E0508321EC30E0C20ED31EC801E6
:103D7000B701F60120813181428153810E94719304
:103D80000E948F92C659DF4F688379838A839B8311
:103D9000CA56D040FE01E65AFF4FC080D180E28073
:103DA000F380C616D706E806F90650F460837183DF
:103DB00082839383CE58DF4F03E010E0198308839A
:103DC000DF91CF911F910F91FF90EF90DF90CF90F7
:103DD00008954F925F926F927F928F929F92AF92CF
:103DE000BF92CF92DF92EF92FF920F931F93CF93E8
:103DF000DF938C01EB01C25ADF4F88819981AA8140
:103E0000BB81CE55D0400097A105B10541F1CC5AF8
:103E1000DF4FC880D980EA80FB80C455D040F801CC
:103E2000B588A6889788808C6B2D7A2D892D982D42
:103E30009601A7010E941E92882324F4CB2CDA2C31
:103E4000E92CF82CB601C7012FE736E948E15BE41D
:103E50000E941E9288231CF44601570108C03FE7C8
:103E6000832E26E9922E98E1A92E8BE4B82ECE5906
:103E7000DF4F488059806A807B80C256D040411411
:103E800051046104710449F1CC5ADF4FC880D980D4
:103E9000EA80FB80C455D0400F5A1F4FF801708054
:103EA00061805280438001551040672D762D852D0D
:103EB000942D9601A7010E941E92882324F4C72CFA
:103EC000D62CE52CF42CB601C7019401A5010E9463
:103ED0001E92882314F446015701CA59DF4FC88047
:103EE000D980EA80FB80C656D040C114D104E104D9
:103EF000F10449F1CC5ADF4FC880D980EA80FB80B9
:103F0000C455D04003571F4FF80170806180528024
:103F100043800D581040672D762D852D942D9601E8
:103F2000A7010E941E92882324F4C72CD62CE52CCE
:103F3000F42CB601C7019401A5010E941E928823AA
:103F400014F446015701C659DF4F288139814A814F
:103F50005B81CA56D040211531054105510529F133
:103F6000CC5ADF4FC880D980EA80FB8007531F4FAF
:103F7000E801788069805A801B81672D762D852D18
:103F8000912F9601A7010E941E92882324F4C72C2A
:103F9000D62CE52CF12EB601C7019401A5010E9493
:103FA0001E92882314F446015701B401C501DF9124
:103FB000CF911F910F91FF90EF90DF90CF90BF9026
:103FC000AF909F908F907F906F905F904F900895EB
:103FD0004F925F926F927F928F929F92AF92BF9219
:103FE000CF92DF92EF92FF920F931F93CF93DF93C5
:103FF0008C01EB01C25ADF4F88819981AA81BB8174
:10400000CE55D0400097A105B10541F1CC5ADF4F04
:10401000C880D980EA80FB80C455D040F801B18CBB
:10402000A28C938C848C6B2D7A2D892D982D9601E2
:10403000A7010E941E92882324F4CB2CDA2CE92CB1
:10404000F82CB601C7012FE736E948E15BE40E948E
:104050001E9288231CF44601570108C07FE7872E73
:1040600066E9962E58E1A52E4BE4B42ECE59DF4FCB
:10407000488059806A807B80C256D04041145104E8
:104080006104710449F1CC5ADF4FC880D980EA80BD
:10409000FB80C455D0400B5A1F4FF80170806180DF
:1040A0005280438005551040672D762D852D942D27
:1040B0009601A7010E941E92882324F4C72CD62CB7
:1040C000E52CF42CB601C7019401A5010E941E92B3
:1040D000882314F446015701CA59DF4FC880D9809C
:1040E000EA80FB80C656D040C114D104E104F1043B
:1040F00049F1CC5ADF4FC880D980EA80FB80C45593
:10410000D0400F561F4FF80170806180528043806D
:1041100001591040672D762D852D942D9601A7010C
:104120000E941E92882324F4C72CD62CE52CF42C54
:10413000B601C7019401A5010E941E92882314F4C0
:1041400046015701C659DF4F288139814A815B8179
:10415000CA56D040211531054105510529F1CC5AE7
:10416000DF4FC880D980EA80FB8003531F4FE801EE
:10417000788069805A801B81672D762D852D912F3F
:104180009601A7010E941E92882324F4C72CD62CE6
:10419000E52CF12EB601C7019401A5010E941E92E3
:1041A000882314F446015701B401C501DF91CF9172
:1041B0001F910F91FF90EF90DF90CF90BF90AF9045
:1041C0009F908F907F906F905F904F9008954F9247
:1041D0005F926F927F928F929F92AF92BF92CF9297
:1041E000DF92EF92FF920F931F93CF93DF936C01B7
:1041F000EB01CB53DF4F488059806A807B80C756E4
:10420000D040288139814A815B81FC018584968474
:10421000A784B08860968881CE56D040882359F410
:104220000F2EF0E0EF2EF0E0FF2EF0E80F2FFFEB67
:104230001F2FF02D0AC00F2EF0E0EF2EF0E0FF2E22
:10424000F0E80F2FFFE31F2FF02DCB54DF4FCA01F3
:10425000B9010E94BB92A50194010E942292A8017B
:1042600097010E9471939B01AC01C301B2010E94AE
:10427000BA91688379838A839B8364964880598046
:104280006A807B80C756D040288139814A815B8112
:1042900069E470E0C60ED71EF60180809180A2808E
:1042A000B38007EB1FEFC00ED11E2D96E880CF56CE
:1042B000D040EE2059F40F2EF0E0EF2EF0E0FF2E6C
:1042C000F0E80F2FFFEB1F2FF02D0AC00F2EF0E0AC
:1042D000EF2EF0E0FF2EF0E80F2FFFE31F2FF02D61
:1042E000C754DF4FCA01B9010E94BB92A5019401D6
:1042F0000E942292A80197010E9471939B01AC0138
:10430000C301B2010E94BA91688379838A839B8337
:104310006496488059806A807B80C756D040288147
:1043200039814A815B8185E890E0C80ED91EF6018B
:1043300080809180A280B380ABE7BFEFCA0EDB1E06
:104340002A96F880C057D040FF2059F40F2EF0E095
:10435000EF2EF0E0FF2EF0E80F2FFFEB1F2FF02DD8
:104360000AC00F2EF0E0EF2EF0E0FF2EF0E80F2F46
:10437000FFE31F2FF02DC354DF4FCA01B9010E9484
:10438000BB92A50194010E942292A80197010E946C
:1043900071939B01AC01C301B2010E94BA91688381
:1043A00079838A839B836496688079808A809B80E6
:1043B000C756D040288139814A815B8101EC10E0E9
:1043C000C00ED11EF601A080B180C280D380279696
:1043D0004880C157D040442059F40F2EF0E0EF2E12
:1043E000F0E0FF2EF0E80F2FFFEB1F2FF02D0AC09B
:1043F0000F2EF0E0EF2EF0E0FF2EF0E80F2FFFE39E
:104400001F2FF02DCF53DF4FCA01B9010E94BB927D
:10441000A60195010E942292A80197010E94719322
:104420009B01AC01C401B3010E94BA9168837983F6
:104430008A839B83DF91CF911F910F91FF90EF9023
:10444000DF90CF90BF90AF909F908F907F906F90B4
:104450005F904F9008952F923F924F925F926F928C
:104460007F928F929F92AF92BF92CF92DF92EF9204
:10447000FF920F931F93DF93CF9300D000D000D013
:10448000CDB7DEB76C017E836D835A01DB018D9160
:104490009D910D90BC91A02D89839A83AB83BC83A1
:1044A0009C01AD01B7FF07C050954095309521950F
:1044B0003F4F4F4F5F4FED81FE8164817581868153
:1044C000978197FF07C090958095709561957F4F74
:1044D0008F4F9F4F19012A01261A370A480A590A95
:1044E00057FE08C05094409430942094211C311CF5
:1044F000411C511CF50180819181A281B381B7FFDC
:1045000007C0B095A095909581959F4FAF4FBF4F35
:10451000F501448155816681778177FF07C07095E9
:104520006095509541955F4F6F4F7F4F3C014D0116
:10453000641A750A860A970A97FE08C090948094B8
:1045400070946094611C711C811C911CD60155965D
:10455000ED90FD900D911C915897C801B701A801ED
:1045600097010E94BA910E948A925B016C01C4017A
:10457000B3010E94BD92A80197010E941E92882358
:1045800024F4A618B708C808D908A214B304C404B0
:10459000D5040CF067C0C601B5010E94BD923B0175
:1045A0004C01C201B1010E94BD929B01AC01C4014A
:1045B000B3010E9422925B016C0120E030E040E8F0
:1045C0005FE30E941E9288230CF04CC069817A81BF
:1045D0008B819C810E94BD92A60195010E947193DE
:1045E0000E948A92ED81FE8160837183828393832E
:1045F00064817581868197810E94BD92A601950193
:104600000E9471930E948A92AD81BE8114966D932F
:104610007D938D939C93179718966D917D918D91B5
:104620009C911B970E94BD92A60195010E947193D7
:104630000E948A92ED81FE816087718782879387CD
:1046400064857585868597850E94BD92A601950132
:104650000E9471930E948A92ED81FE816487758722
:104660008687978726960FB6F894DEBF0FBECDBF1C
:10467000CF91DF911F910F91FF90EF90DF90CF903E
:10468000BF90AF909F908F907F906F905F904F9072
:104690003F902F9008952F923F924F925F926F928A
:1046A0007F928F929F92AF92BF92CF92DF92EF92C2
:1046B000FF920F931F93DF93CF93CDB7DEB72A9767
:1046C0000FB6F894DEBF0FBECDBF9E838D837A8771
:1046D000698758874F83DC0155966D917D918D9147
:1046E0009C91589720E030E040E45FE30E94719392
:1046F0000E948F925B016C01EF81F885608171816E
:1047000082819381A985BA856D907D908D909C90D2
:1047100030E0611571058105910509F431E020E073
:10472000611471048104910409F421E0321719F035
:10473000860175012BC030E01616170618061906FB
:104740000CF431E020E016141704180419040CF4DA
:1047500021E03217A9F40E94BD927B018C01E894FC
:1047600017F9C601B5010E94BB929B01AC01C801BB
:10477000B7010E94BA910E948F927B018C0106C002
:104780008601750116950795F794E794C401B30166
:104790000E94BD9269837A838B839C83C801B70191
:1047A0000E94BB9229813A814B815C815F770E9494
:1047B00022927B018C0120E030E040E85FE30E9420
:1047C0001E9288231CF4170128010AC00F2EF0E066
:1047D0002F2EF0E03F2EF0E84F2EFFE35F2EF02D5E
:1047E000ED81FE81EF5AFF4F60817181828193815B
:1047F00020E030E040E45FE30E9471930E948F92DA
:104800005B016C01EF81F8856481758186819781F8
:10481000E985FA85648075808680978030E061152F
:1048200071058105910509F431E020E061147104FE
:104830008104910409F421E0321719F0C601B50191
:1048400029C030E016161706180619060CF431E0D8
:1048500020E016141704180419040CF421E0321790
:1048600099F40E94BD927B018C01E89417F9C6016E
:10487000B5010E94BB929B01AC01C801B7010E9427
:10488000BA910E948F9206C0C601B5019695879590
:10489000779567950E94BB925B016C01C401B301DF
:1048A0000E94BD929B01AC015F77C601B5010E94D9
:1048B00022927B018C01A20191010E941E92882309
:1048C00014F417012801ED81FE81E357FF4F608149
:1048D00071818281938120E030E040E45FE30E94B7
:1048E00071930E948F925B016C01EF81F885608566
:1048F000718582859385A985BA8518966D907D907E
:104900008D909C901B9730E0611571058105910594
:1049100009F431E020E0611471048104910409F488
:1049200021E0321719F0C601B50129C030E0161692
:104930001706180619060CF431E020E016141704C7
:10494000180419040CF421E0321799F40E94BD9266
:104950007B018C01E89417F9C601B5010E94BB9256
:104960009B01AC01C801B7010E94BA910E948F92CD
:1049700006C0C601B50196958795779567950E9403
:10498000BB925B016C01C401B3010E94BD929B010B
:10499000AC015F77C601B5010E9422927B018C01B8
:1049A000A20191010E941E92882314F4170128018C
:1049B000ED81FE81E753FF4F608171818281938198
:1049C00020E030E040E45FE30E9471930E948F9208
:1049D0005B016C01AF81B8851C966D917D918D91C5
:1049E0009C911F97E985FA856484758486849784F1
:1049F00030E0611571058105910509F431E020E091
:104A0000611471048104910409F421E0321719F052
:104A1000C601B50129C030E016161706180619069A
:104A20000CF431E020E016141704180419040CF4F7
:104A300021E0321799F40E94BD927B018C01E89429
:104A400017F9C601B5010E94BB929B01AC01C801D8
:104A5000B7010E94BA910E948F9206C0C601B501AB
:104A600096958795779567950E94BB925B016C013F
:104A7000C401B3010E94BD929B01AC015F77C601E6
:104A8000B5010E9422927B018C01A20191010E943A
:104A90001E92882314F417012801C201B10120E0FD
:104AA00030E040E85FE30E941E9287FD02C080E094
:104AB0004EC069817A818B819C81A20191010E9403
:104AC00071930E948A92A985BA856D937D938D9387
:104AD0009C93139714966D917D918D919C9117974E
:104AE0000E94BD92A20191010E9471930E948A923C
:104AF000E985FA85648375838683978360857185EC
:104B0000828593850E94BD92A20191010E947193BA
:104B10000E948A92A985BA8518966D937D938D938C
:104B20009C931B971C966D917D918D919C911F97E5
:104B30000E94BD92A20191010E9471930E948A92EB
:104B4000E985FA85648775878687978781E02A9645
:104B50000FB6F894DEBF0FBECDBFCF91DF911F918E
:104B60000F91FF90EF90DF90CF90BF90AF909F900C
:104B70008F907F906F905F904F903F902F9008950F
:104B8000FC0181859285A385B4850097A105B105B7
:104B900029F5EB5BFF4F2081318142815381E55440
:104BA000F0402115310541055105C1F4EF57FF4F84
:104BB0004081518162817381E158F0404115510576
:104BC0006105710559F4E354FF4F80819181A28101
:104BD000B38120E00097A105B10509F021E0822F03
:104BE00008959FB7F89443E04093800039E13093F3
:104BF0008100B198E4E6F0E02081277F2083EFE692
:104C0000F0E080818D7F8083B1989FBF08959FB72A
:104C1000F894E4E6F0E0808188608083B198109297
:104C20008500109284009FBF0895EFE6F0E0808138
:104C3000826080830895EFE6F0E080818D7F80833D
:104C400008951F93CF93DF93EC011FB7F89441367B
:104C50008AEE580780E0680780E0780798F080E6E1
:104C60009AEE9093890080938800CB01BA0120E6E8
:104C70003AEE40E050E00E947194CE5EDE4F398300
:104C8000288313C0443F81E0580780E0680780E034
:104C9000780738F424EF31E03093890020938800BE
:104CA00004C050938900409388001FBFDF91CF91CB
:104CB0001F9108954F925F926F927F928F929F9271
:104CC000AF92BF92CF92DF92EF92FF920F931F931A
:104CD000CF93DF93EC01FC01EC5EFE4F80818823D3
:104CE00009F0D7C211E0108300916F000D7F00938F
:104CF0006F007894FE01EE5EFE4FA081B1811A161E
:104D00001B0634F4808191810197918380839AC23C
:104D100020EFE22EF12CEC0EFD1ED701ED91FC915F
:104D2000E65AFF4F408051806280738041145104E5
:104D30006104710439F420916F002D7F20936F007E
:104D4000D70179C2D701ED91FC91E65AFF4F8081DE
:104D50009181A281B3810197A109B10980839183D7
:104D6000A283B383FE01E75EFE4F118210828F01A2
:104D700067019CE3892E912C78C0D601ED91FC91BE
:104D8000EE58FF4F60807180A614B70461F4A89CB0
:104D9000C001A99C900DB89C900D11248C0F9D1FF3
:104DA0000E948C175CC0F501EE0FFF1FEE0FFF1F76
:104DB000EC0FFD1FBF016E5F7E4FDB014D905D90DC
:104DC0006D907C90EE50FF4F208131814281538164
:104DD000421A530A640A750AFB01408251826282B8
:104DE0007382408151816281738177FF38C0A89CB2
:104DF000C001A99C900DB89C900D11248C0F9D1F93
:104E00000E948C17D8012D913C91220F331F220F45
:104E1000331F2C0F3D1F2E5F3E4FF9014081518102
:104E200062817381D601ED91FC91EE58FF4F0190A4
:104E3000F081E02DEE0FFF1FEE0FFF1FEC0FFD1FA7
:104E4000EE50FF4F80819181A281B381480F591F9D
:104E50006A1F7B1FF9014083518362837383F801CA
:104E600080819181019691838083F801A080B18037
:104E7000F4E0AF16B1040CF480CF9BE1C92E91E0B1
:104E8000D92ECC0EDD1EF60111821082F7010081B1
:104E900011810F541F4FD8014D905D906D907C9003
:104EA0000190F081E02DE757FF4F80809180A28034
:104EB000B380840C951CA61CB71CF80180829182DB
:104EC000A282B38280EFA82EB12CAC0EBD1E76015B
:104ED00020C0D5010D911C910F541F4FF801608126
:104EE0007181828193810E94BB9220E030E04AE789
:104EF00056E40E94B9910E948F92D8016D937D93E0
:104F00008D939C931397F7018081918101969183F2
:104F10008083D501ED91FC91EF54FF4F6081718149
:104F2000828193810E94BB9220E030E04AE756E400
:104F30000E946D9318166CF2F601808091808114A6
:104F4000910409F426C1D501ED91FC911197E65A1F
:104F5000FF4FC080D180E280F380ED91FC91EF554E
:104F6000FF4F4081518162817381C416D506E606E8
:104F7000F70608F470C1D501ED91FC911197E75641
:104F8000FF4FE080F18002811381ED91FC91EF569B
:104F9000FF4F2081318142815381E216F3060407DD
:104FA000150708F058C1F5010081118169E970E029
:104FB000060F171FD8014D905D906D907C90019069
:104FC000F081E02DE355FF4F2081318142815381F3
:104FD000B401882777FD8095982F0E942B94460E68
:104FE000571E681E791EF8014082518262827382C8
:104FF000D501ED91FC911197E756FF4F60807180CC
:1050000082809380ED91FC91EF56FF4F80819181DA
:10501000A281B38186159705A805B90508F06EC071
:10502000F50120813181A081B181AF56BF4F5BC0B6
:10503000D501ED91FC911197E756FF4FC080D180CB
:10504000E280F380ED91FC91EB56FF4F408151815E
:10505000628173814C155D056E057F0508F099C06E
:10506000F5010081118189E990E0080F191FD8012D
:105070004D905D906D907C900190F081E02DE35516
:10508000FF4F2081318142815381B401882777FD10
:105090008095982F0E942B94461A570A680A790A1D
:1050A000F8014082518262827382D501ED91FC91B8
:1050B0001197E756FF4FE080F18002811381ED9157
:1050C000FC91EB56FF4F2081318142815381E216E2
:1050D000F3060407150790F4F50120813181A081C2
:1050E000B181AB56BF4FAD90BD90CD90DC902756AF
:1050F0003F4FF901A082B182C282D38200EF602EBD
:10510000712C6C0E7D1ED3018D909C901197ED91AA
:10511000FC911197EE58FF4F00811181ED91FC91A8
:10512000E756FF4F6081718182819381CB5EDE4FB4
:10513000C880D980EA80FB80C551D1402CE330E0A3
:10514000029F2001039F500C129F500C11244C0E03
:105150005D1E0E94BB92A70196010E947193AB0154
:10516000BC01C2010E94F11649E850E0840E951E70
:10517000F4016083718382839383D301ED91FC9169
:10518000E757FF4F4081518162817381CE010E94B8
:105190002126E984FA840B851C85E114F1040105BC
:1051A000110591F5CB5BDF4F88819981AA81BB8185
:1051B000C554D0400097A105B10531F5CF57DF4F59
:1051C000A880B980CA80DB80C158D040A114B10446
:1051D000C104D104C9F4C354DF4F688079808A8048
:1051E0009B80CD5BD040611471048104910461F413
:1051F000C051DF4FE881F981C05FD040E65AFF4FD0
:1052000010821182128213829E0120513F4FD901D8
:10521000ED91FC91E65AFF4F80809180A280B3808F
:1052200081149104A104B10469F450916F005D7F71
:1052300050936F00D901ED91FC9163E070E07183B0
:10524000608305C030916F00326030936F00CC5E98
:10525000DE4F18821EC010EFA12EB12CAC0EBD1E69
:10526000D501ED91FC911197E65AFF4F4080518096
:1052700062807380ED91FC91EB55FF4F408151812D
:1052800062817381441555056605770508F481CF61
:10529000CFCEDF91CF911F910F91FF90EF90DF90D4
:1052A000CF90BF90AF909F908F907F906F905F90C6
:1052B0004F9008951F920F920FB60F920BB60F9258
:1052C00011242F933F934F935F936F937F938F930B
:1052D0009F93AF93BF93EF93FF938091E3039091DC
:1052E000E4030E945A26FF91EF91BF91AF919F91E5
:1052F0008F917F916F915F914F913F912F910F907F
:105300000BBE0F900FBE0F901F9018958091AE0AA4
:10531000882369F486ED9AE040E051EE60E070E0A9
:1053200020E030E00E94BC4821E02093AE0A86EDE8
:105330009AE00895AF92BF92CF92DF92EF92FF92E0
:105340000F931F935C010E94862968E50E94290340
:105350000E9486296AE30E9429030E9486296C0123
:10536000F5016081718182819381E2E0EE2EF12C62
:10537000EC0CFD1C40E024E087010E949994C601DA
:10538000B7010E94A9160E94862960E20E942903A3
:105390000E94862969E50E9429030E9486296AE302
:1053A0000E9429030E9486296C01F50164AD75AD48
:1053B00086AD97AD52E0E52EF12CEC0CFD1C40E0E3
:1053C00024E087010E949994C601B7010E94A916A2
:1053D0000E94862960E20E9429030E9486296AE5CC
:1053E0000E9429030E9486296AE30E9429030E94E1
:1053F00086296C0108E710E0A00EB11EF50160815E
:1054000071818281938142E0E42EF12CEC0CFD1C31
:1054100040E024E087010E949994C601B7010E94F0
:10542000A9160E94862960E20E9429030E9486290B
:1054300061E40E9429030E9486296AE30E942903ED
:105440000E9486296C018CE390E0A80EB91EF5013C
:10545000608171818281938132E0E32EF12CEC0C2A
:10546000FD1C40E024E087010E949994C601B70129
:105470000E94A9160E94862960E20E9429031F91BA
:105480000F91FF90EF90DF90CF90BF90AF90089575
:10549000BF92CF92DF92EF92FF920F931F93CF9321
:1054A000DF93EC018B01FB018081918118161906B5
:1054B0000CF0FDC120813181223031050CF0F7C1A3
:1054C0004BA55CA5FFEF4F3F5F0739F40E9486298B
:1054D0006CEB71E00E94C2160EC0065A1F4FF80115
:1054E000C080D180E280F3800A551040C114D104FD
:1054F000E104F10431F463E070E0E801798368834A
:10550000D6C102591F4FF801B08000511040F80178
:10551000C080D180E280F3800E551040288139810F
:105520004A815B81F801EB53FF4F60817181828179
:1055300093810E941E92882309F0B3C1C114D10443
:10554000E104F10459F0AAA9BBA9FFEFAF3FBF07DF
:1055500029F0CE01C29660E00E948303BC82CD8216
:10556000DE82EF82F886C986DA86EB86FC86BC800E
:105570009E01225D3F4FBB2019F4C90169A904C0F7
:1055800069A951E06527C9010E948303025A1F4F90
:10559000F801E080F18002811381CE50DF4FE88274
:1055A000F9820A831B83B291A291929182918F0119
:1055B000B695A79597958795609688839983AA83D2
:1055C000BB83C250D1400B5E1F4FF801B0800D501D
:1055D0001040F801C080D180E280F3800256104074
:1055E0002CAD3DAD4EAD5FADF801E753FF4F60818F
:1055F0007181828193810E941E92882309F051C19A
:10560000C114D104E104F10469F0FE01E259FF4F35
:10561000408151812FEF4F3F520721F0CF0160E0D1
:105620000E948303FE01E05CFF4FB082CF5BDF4F3F
:10563000C992D992E992F992C882D982EA82FB8210
:10564000C554D040D0809E0126593F4FFE01E359FA
:10565000FF4FDD2019F4C901608104C0608171E051
:105660006727C9010E9483030E591F4FF80120814B
:10567000318142815381CA50DF4F288339834A8365
:105680005B8308501040F801C080D180E280F38035
:10569000F694E794D794C7946096C882D982EA8238
:1056A000FB820A5E1F4FF801B0800A501040F801DB
:1056B000C080D180E280F38006561040CE58D040A2
:1056C000288139814A815B81C857D040F801E35372
:1056D000FF4F60817181828193810E941E92882395
:1056E00009F0DFC0C114D104E104F10469F0FE0146
:1056F000E655FF4F608171812FEF6F3F720721F0F8
:10570000CF0160E00E948303FE01E458FF4FB082A6
:10571000C358DF4FC992D992E992F992C882D982CF
:10572000EA82FB82C158D040F0809E012A553F4F4B
:10573000FE01E755FF4FFF2019F4C901608104C045
:10574000608191E06927C9010E9483030A591F4FB4
:10575000F8014081518162817381C650DF4F4883D7
:1057600059836A837B830C501040F80180819181BA
:10577000A281B381B695A795979587956096888302
:105780009983AA83BB83095E1F4FF801B08007503D
:105790001040F801C080D180E280F3800A561040AA
:1057A000C655D040288139814A815B81C45BD04095
:1057B000F801EF52FF4F60817181828193810E94D5
:1057C0001E92882309F06DC0C114D104E104F104D4
:1057D00069F0FE01EA51FF4FA081B1812FEFAF3F89
:1057E000B20721F0CF0160E00E948303FE01E8547C
:1057F000FF4FB082C754DF4FC992D992E992F99214
:10580000C882D982EA82FB82CD5BD040B0819E0102
:105810002E513F4FFE01EB51FF4FBB2329F060811A
:10582000F1E06F27C90102C0C90160810E948303B2
:1058300006591F4FF80180819181A281B381C25026
:10584000DF4F88839983AA83BB8300511040F801FE
:10585000C080D180E280F3800A551040F694E7942E
:10586000D794C7946096C882D982EA82FB8222E0EC
:1058700030E0F801318320836E9719830883C05F7D
:10588000D04007571F4FF8014081518162817381D9
:10589000CE010E94212600916F00026000936F00EC
:1058A00006C08091B8039091B9030E943450DF91F3
:1058B000CF911F910F91FF90EF90DF90CF90BF900D
:1058C00008952F923F924F925F926F927F928F92A4
:1058D0009F92AF92BF92CF92DF92EF92FF920F937F
:1058E0001F931C0148015901CB01BA0120E030E0AF
:1058F00040E752E40E9422929B01AC010E94719306
:105900002B013C01C501B401A50194010E94BA918B
:105910004B015C01C701B6010E94BB92F1012585D4
:105920003685478550890E9422929B01AC01C501B2
:10593000B4010E9471939B01AC01C301B2010E94AA
:10594000BA910E94D89320E030E040E752E40E94F0
:1059500071939B01AC01CA011F910F91FF90EF90D1
:10596000DF90CF90BF90AF909F908F907F906F907F
:105970005F904F903F902F9008952F923F924F92BB
:105980005F926F927F928F929F92AF92BF92CF92CF
:10599000DF92EF92FF920F931F93DF93CF93CDB7D8
:1059A000DEB762970FB6F894DEBF0FBECDBF9A8305
:1059B00089837A8B698B5C834B83DB0199968D910C
:1059C0009C919A97892B09F4F9C29C960D911D918F
:1059D0002D913C919F97013011052105310509F06A
:1059E000EDC2DAC2E989FA89E356FF4F208131819D
:1059F00042815381ED59F040FA8BE98BE357FF4F19
:105A0000208031804280538022163306440655069A
:105A100020F4208331834283538329893A89235791
:105A20003F4F3E832D83D9012D903D904D905C904A
:105A3000E989FA89EB56FF4FF887EF83E080F18020
:105A40000281138129893A892E583F4F3A87298745
:105A500069897A8967557F4F7C876B8749895A891D
:105A60004F565F4F5E874D87A989BA89A65ABF4FA7
:105A7000B88BAF872E143F044006510608F0F1C0E2
:105A8000F901608171814CE350E0649F3001659FB2
:105A9000700C749F700C112489819A81680E791E94
:105AA000C201B1010E94BB921B012C01C801B701C8
:105AB0000E94BB928B019C01AB85BC85CD90DD9093
:105AC000ED90FC90C301B201A1010E9426171B01B9
:105AD0002C01E985FA85C080D1800CE310E0C09EDE
