:100000000C947A010C94A9010C94A9010C94A901F7
:100010000C94A9010C94A9010C94A9010C94A901B8
:100020000C94A9010C94A9010C94A9010C94A901A8
:100030000C94A9010C94A9010C94A9010C94A90198
:100040000C94A9010C944D7F0C94A9010C94A90166
:100050000C94A9010C94A9010C94A9010C94553499
:100060000C94A9010C94FB320C944A330C94A90112
:100070000C94A9010C94A9010C94A9010C94A90158
:100080000C94A9010C94A9010C94A9010C94A90148
:100090000C94F2B10C94A9010C945FB20C94A901D8
:1000A0000C94A9010C94A9010C94A9010C94A90128
:1000B0000C94A9010C94A9010C94A9010C94A90118
:1000C0000C94A9010C94A9010C94A9010C949433EB
:1000D0000C949E330C94A9010C94A9010C94A901D1
:1000E0000C94A9012C002C002C002C0032002C00B8
:1000F0000001000100010001230023002300230070
:100100000301030100010001290029002900290041
:1001100020002000200020002000200020002000DF
:10012000260026002600260026002600260026009F
:1001300029003200320032000901090109010901D8
:1001400009010901090109012300230023002300FB
:100150002F002F002F002F002F002F002F002F0027
:100160000601060106010601060106010601060157
:100170000001040505030304050604050607010044
:10018000010003020100000102030405060707063F
:10019000050403020100070201000706050403022B
:1001A000010003020100000102030405060700012B
:1001B000020304050607494E46494E4954594E412B
:1001C0004E000020410000C84200401C4620BCBE3A
:1001D0004CCA1B0E5AAEC59D74CDCCCC3D0AD7235C
:1001E0003C17B7D13877CC2B329595E6241FB14F09
:1001F0000A00407A10F35A00A0724E18090010A5A8
:10020000D4E80000E87648170000E40B5402000030
:10021000CA9A3B000000E1F50500008096980000B6
:100220000040420F000000A08601000000102700DF
:10023000000000E803000000006400000000000A65
:1002400000000000000100000000002C76D888DCCF
:10025000674F0823DFC1DFAE59E1B1B796E5E3E4AC
:1002600053C63AE651997696E8E6C28426EB898C25
:100270009B62ED407C6FFCEFBC9C9F40F2BAA56F87
:10028000A5F490055A2AF75C936B6CF9676DC11B56
:10029000FCE0E40D47FEF520E6B500D0ED902E031E
:1002A00000943577050080841E080000204E0A0067
:1002B0000000C80C333333330F986E12831141EFB3
:1002C0008D2114893BE65516CFFEE6DB18D1844B11
:1002D000381BF77C1D901DA4BBE424203284725E81
:1002E000228100C9F124ECA1E53D27004B53419246
:1002F0003997F7B211241FBECFEFD1E2DEBFCDBFD9
:1003000015E0A0E0B2E0EEE4FEE801E00BBF02C0C1
:1003100007900D92AA32B107D9F715E1AAE2B5E02C
:1003200001C01D92A33EB107E1F712E0C4EFD2E095
:1003300000E006C022970109FE010BBF0E94C2C067
:10034000CC3ED10780E00807A9F70E94BD1D0C94A0
:1003500025C70C940000CF93DF93EC0140E0FC0133
:10036000E256FE4FDB01A40FB11D8C914F5F882335
:1003700031F1A285B3858C9382859385019693870D
:100380008287268137818217930711F12FB7F8945E
:10039000828193810196938382832FBF8881998183
:1003A0008230910579F08091C10080628093C10014
:1003B000DB01A40FB11D8C914F5F8823D1F6DF9133
:1003C000CF9108958091D10080628093D100CACFEF
:1003D0008481958193878287D9CFCF93DF93FB0167
:1003E0004081442309F459C06F5F7F4FDC01AD5752
:1003F000BD4FEC01C157DD4F51E023C02FB7F8943A
:1004000012968D919C911397019613969C938E93BF
:1004100012972FBFEA85FB855193FB87EA878E8170
:100420009F81E817F907E1F12FB7F8948A819B8142
:1004300001969B838A832FBFFB014191BF01442317
:1004400061F18FB7F89412962D913C9113978FBF5D
:100450008D919C9111972817390770F71A96ED9195
:10046000FC911B9740831A968D919C911B97019646
:100470001B969C938E931A9716962D913C911797E5
:100480008217930709F0BACF14968D919C91159716
:100490001B969C938E931A97B1CFDF91CF910895BD
:1004A0008C819D819B878A87BFCFCF93DF93EC019F
:1004B0008FB7F894FE01ED57FD4F228133818FBF36
:1004C000808191812817390750F5A285B3856C93F7
:1004D000828593850196938782872681378182174B
:1004E000930701F12FB7F89482819381019693834A
:1004F00082832FBFFE01E157FD4FA285B3854D9347
:10050000B387A28786819781A817B90781F02FB793
:10051000F894828193810196938382832FBFDF9128
:10052000CF9108958481958193878287DBCF8481E1
:10053000958193878287EBCF2F923F924F925F9264
:100540006F927F928F929F92AF92BF92DF92EF92C3
:10055000FF920F931F93CF93DF93CDB7DEB7A09792
:100560000FB6F894DEBF0FBECDBF5C013DE0432E59
:1005700033E0532E480E591ED2018D919C91119754
:1005800045E0842E912C8A0C9B1C813191050CF442
:10059000A5C101E012E048E4D501A857BD4FB5015F
:1005A0006C567D4F51E02AC02FB7F89412968D916A
:1005B0009C911397019613969C938E9312972FBF3D
:1005C000FB0122853385F90151939F01FB0133879C
:1005D0002287868197812817390711F40C94670BBD
:1005E0002FB7F894FB0182819381019693838283D4
:1005F0002FBFF80141918F01442361F18FB7F89427
:1006000012962D913C9113978FBF8D919C911197CC
:100610002817390770F71A96ED91FC911B974083C4
:100620001A968D919C911B9701961B969C938E9385
:100630001A9716962D913C9117978217930709F0F8
:10064000B3CF14968D919C9115971B969C938E9386
:100650001A97AACF20909C0830909D08C1010E9453
:10066000F8969C01F4E080309F0711F40C942F0C55
:100670003E010894611C711C80E2D3011D928A9591
:10068000E9F7B901882777FD8095982FA3012AE023
:1006900030E00E94ABC22981222309F457C0BE0179
:1006A0006E5F7F4F84010D571D4FD401A157BD4F81
:1006B000EE24E3942BC02FB7F894F8018281938144
:1006C0000196938382832FBF1A96ED91FC911B971D
:1006D000E1921B96FC93EE931A9716968D919C913E
:1006E0001797E817F90709F4F0C02FB7F894129696
:1006F0008D919C911397019613969C938E931297CC
:100700002FBFFB012191BF01222319F18FB7F8946C
:10071000F801428153818FBF808191814817590729
:1007200080F782859385FC012083F801828593857B
:10073000019693878287268137818217930709F074
:10074000BACF8481958193878287B5CF84010D5775
:100750001D4FD2018D919C911197813191050CF41F
:100760001EC14BE050E0D5019C96ED91FC919D9708
:1007700060818FB7F89498E8E92E92E0F92EEA0CA0
:10078000FB1CF701228133818FBF80819181281763
:10079000390708F045C0D7010284F385E02DCA016E
:1007A000860F911D806880831A968D919C911B976E
:1007B00001961B969C938E931A9716962D913C91B9
:1007C00017978217930711F40C942A0E2FB7F894F9
:1007D000F701828193810196938382832FBFD50194
:1007E000AC56BD4F1A96ED91FC911B9711921B963A
:1007F000FC93EE931A9716968D919C911797E81794
:10080000F90711F40C94200E2FB7F89412968D91DD
:100810009C911397019613969C938E9312972FBFDA
:1008200066E172E02FE2D401A157BD4FDD24D394DD
:100830002CC02FB7F894F80182819381019693839D
:1008400082832FBF1A96ED91FC911B97D1921B9634
:10085000FC93EE931A9716968D919C911797E81733
:10086000F90709F4ADC62FB7F89412968D919C91B3
:100870001397019613969C938E9312972FBFFB01AB
:100880002191BF01222309F48DC08FB7F894F8019C
:10089000428153818FBF808191814817590778F732
:1008A00082859385FC012083F801828593850196DA
:1008B00093878287268137818217930709F0B9CF02
:1008C0008481958193878287B4CF14968D919C9172
:1008D00015971B969C938E931A9707CF0AE012E008
:1008E00048E4D501A857BD4FB5016C567D4F51E086
:1008F0002AC02FB7F89412968D919C911397019668
:1009000013969C938E9312972FBFFB0122853385FC
:10091000F90151939F01FB013387228786819781DB
:100920002817390709F4E2C62FB7F894FB01828132
:1009300093810196938382832FBFF80141918F01A8
:10094000442309F487CE8FB7F89412962D913C91E9
:1009500013978FBF8D919C9111972817390768F7CE
:100960001A96ED91FC911B9740831A968D919C915C
:100970001B9701961B969C938E931A9716962D9112
:100980003C9117978217930709F0B3CF14968D9176
:100990009C9115971B969C938E931A97AACF46E02D
:1009A00050E0E1CEC1010E94049720E2D3011D92E4
:1009B0002A95E9F7BC0180E090E0A3012AE030E04D
:1009C0000E94ABC22981222309F45AC0BE016E5F86
:1009D0007F4FD401A157BD4FDD24D3942BC02FB737
:1009E000F894F801828193810196938382832FBFCB
:1009F0001A96ED91FC911B97D1921B96FC93EE9366
:100A00001A9716968D919C911797E817F90709F494
:100A1000E0C52FB7F89412968D919C91139701968B
:100A200013969C938E9312972FBFFB012191BF01C8
:100A3000222331F18FB7F894F801428153818FBF9F
:100A4000808191814817590780F782859385FC0141
:100A50002083F8018285938501969387828726817A
:100A600037818217930709F0BACF848195819387E4
:100A70008287B5CF28E8E22E22E0F22EEA0CFB1C9A
:100A8000D5019C96ED91FC919D9741818FB7F8948B
:100A9000F701228133818FBFD7018081918128178F
:100AA000390708F041C00284F385E02D4068408397
:100AB0001A968D919C911B9701961B969C938E93F1
:100AC0001A9716962D913C9117978217930711F458
:100AD0000C94160E2FB7F894F7018281938101963A
:100AE000938382832FBFD501AC56BD4F1A96ED91EB
:100AF000FC911B9711921B96FC93EE931A971696F6
:100B00008D919C911797E817F90711F40C940C0E2E
:100B10002FB7F89412968D919C9113970196139686
:100B20009C938E9312972FBFD2018D919C91119718
:100B3000813191050CF468C569E172E022E4840119
:100B40000D571D4FD401A157BD4FDD24D3942BC0A9
:100B50002FB7F894F8018281938101969383828361
:100B60002FBF1A96ED91FC911B97D1921B96FC9387
:100B7000EE931A9716968D919C911797E817F9079F
:100B800009F4ABC52FB7F89412968D919C911397E9
:100B9000019613969C938E9312972FBFFB01219180
:100BA000BF01222301F18FB7F894F80142815381EC
:100BB0008FBF808191814817590780F7828593857F
:100BC000FC012083F80182859385019693878287B3
:100BD000268137818217930709F0BACF84819581E6
:100BE00093878287B5CFC1010E94FE969C01F4E0F5
:100BF00080309F0709F495C63E010894611C711C62
:100C000080E2D3011D928A95E9F7B901882777FD23
:100C10008095982FA3012AE030E00E94ABC2298181
:100C2000222309F454C0BE016E5F7F4FD401A15747
:100C3000BD4FDD24D3942BC02FB7F894F8018281E7
:100C400093810196938382832FBF1A96ED91FC9135
:100C50001B97D1921B96FC93EE931A9716968D9143
:100C60009C911797E817F90709F4BCC42FB7F894BB
:100C700012968D919C911397019613969C938E9347
:100C800012972FBFFB012191BF01222301F18FB7E2
:100C9000F894F801428153818FBF80819181481778
:100CA000590780F782859385FC012083F8018285AE
:100CB00093850196938782872681378182179307D0
:100CC00009F0BACF8481958193878287B5CFD2010D
:100CD0008D919C911197813191050CF4BDC54BE02C
:100CE00050E0D5019C96ED91FC919D9761818FB765
:100CF000F894F701228133818FBF80819181281779
:100D0000390708F043C0D7010284F385E02DCA01FA
:100D1000860F911D806880831A968D919C911B97F8
:100D200001961B969C938E931A9716962D913C9143
:100D300017978217930709F4A0C72FB7F894F70104
:100D4000828193810196938382832FBFD501AC5614
:100D5000BD4F1A96ED91FC911B9711921B96FC9337
:100D6000EE931A9716968D919C911797E817F907AD
:100D700009F47AC72FB7F89412968D919C91139726
:100D8000019613969C938E9312972FBF66E172E0A3
:100D90002FE2D401A157BD4FDD24D3942BC02FB730
:100DA000F894F801828193810196938382832FBF07
:100DB0001A96ED91FC911B97D1921B96FC93EE93A2
:100DC0001A9716968D919C911797E817F90709F4D1
:100DD00012C42FB7F89412968D919C911397019697
:100DE00013969C938E9312972FBFFB012191BF0105
:100DF000222301F18FB7F894F801428153818FBF0C
:100E0000808191814817590780F782859385FC017D
:100E10002083F801828593850196938782872681B6
:100E200037818217930709F0BACF84819581938720
:100E30008287B5CFC1010E940A9720E2D3011D929B
:100E40002A95E9F7BC0180E090E0A3012AE030E0B8
:100E50000E94ABC24981442309F453C0BE016E5FB6
:100E60007F4FD401A157BD4F51E02BC02FB7F8944D
:100E7000F801828193810196938382832FBF1A9612
:100E8000ED91FC911B9751931B96FC93EE931A974F
:100E900016968D919C911797E817F90709F487C367
:100EA0002FB7F89412968D919C91139701961396F3
:100EB0009C938E9312972FBFFB014191BF01442356
:100EC00001F18FB7F894F801228133818FBF8081BF
:100ED00091812817390780F782859385FC0140832B
:100EE000F8018285938501969387828726813781D1
:100EF0008217930709F0BACF8481958193878287FF
:100F0000B5CFD2018D919C911197813191050CF44F
:100F1000D2C360E170E0D5019C96ED91FC919D9764
:100F200040818FB7F894F701228133818FBFD701B9
:100F3000808191812817390708F042C00284F38527
:100F4000E02DCB01840F911D806880831A968D91CE
:100F50009C911B9701961B969C938E931A971696BD
:100F60002D913C9117978217930709F44CC62FB720
:100F7000F894F701828193810196938382832FBF36
:100F8000D501AC56BD4F1A96ED91FC911B9711926D
:100F90001B96FC93EE931A9716968D919C9117973A
:100FA000E817F90709F426C62FB7F89412968D9121
:100FB0009C911397019613969C938E9312972FBF33
:100FC0008FB7F894D70112962D913C9113978FBF4C
:100FD000F701808191812817390708F03FC002840A
:100FE000F385E02D10821A968D919C911B970196A6
:100FF0001B969C938E931A9716962D913C9117975A
:101000008217930709F4EDC52FB7F894F701828191
:1010100093810196938382832FBFD501AC56BD4F38
:101020001A96ED91FC911B9781E081931B96FC939E
:10103000EE931A9716968D919C911797E817F907DA
:1010400009F4C6C52FB7F89412968D919C91139709
:10105000019613969C938E9312972FBF8FB7F89497
:10106000D70112962D913C9113978FBFF701808184
:1010700091812817390708F040C00284F385E02DDC
:1010800082E080831A968D919C911B9701961B9606
:101090009C938E931A9716962D913C9117978217D1
:1010A000930709F48CC52FB7F894F70182819381D7
:1010B0000196938382832FBFD501AC56BD4F1A96FC
:1010C000ED91FC911B9781E081931B96FC93EE932D
:1010D0001A9716968D919C911797E817F90709F4BE
:1010E00065C52FB7F89412968D919C911397019630
:1010F00013969C938E9312972FBF8FB7F894D701B6
:1011000012962D913C9113978FBFF70180819181A9
:101110002817390708F040C00284F385E02D84E0E9
:1011200080831A968D919C911B9701961B969C9398
:101130008E931A9716962D913C91179782179307C5
:1011400009F42BC52FB7F894F7018281938101969A
:10115000938382832FBFD501AC56BD4F1A96ED9174
:10116000FC911B9781E081931B96FC93EE931A9759
:1011700016968D919C911797E817F90709F404C505
:101180002FB7F89412968D919C9113970196139610
:101190009C938E9312972FBF8FB7F894D701129616
:1011A0002D913C9113978FBFF70180819181281772
:1011B000390708F040C00284F385E02D86E0808383
:1011C0001A968D919C911B9701961B969C938E93DA
:1011D0001A9716962D913C9117978217930709F449
:1011E000CAC42FB7F894F701828193810196938343
:1011F00082832FBFD501AC56BD4F1A96ED91FC915D
:101200001B9781E081931B96FC93EE931A97169699
:101210008D919C911797E817F90709F4A3C42FB78C
:10122000F89412968D919C911397019613969C9326
:101230008E9312972FBFD2018D919C91119781317E
:1012400091050CF058C26CE070E0D5019C96ED91D0
:10125000FC919D9741818FB7F894F70122813381EA
:101260008FBFD701808191812817390708F042C0CC
:101270000284F385E02DCB01840F911D806880836B
:101280001A968D919C911B9701961B969C938E9319
:101290001A9716962D913C9117978217930709F488
:1012A00058C42FB7F894F7018281938101969383F4
:1012B00082832FBFD501AC56BD4F1A96ED91FC919C
:1012C0001B9711921B96FC93EE931A9716968D918D
:1012D0009C911797E817F90709F432C42FB7F894CF
:1012E00012968D919C911397019613969C938E93D1
:1012F00012972FBF8FB7F894D70112962D913C917A
:1013000013978FBFF701808191812817390708F063
:1013100040C00284F385E02D81E080831A968D9190
:101320009C911B9701961B969C938E931A971696E9
:101330002D913C9117978217930709F4F8C32FB7A3
:10134000F894F701828193810196938382832FBF62
:10135000D501AC56BD4F1A96ED91FC911B9781E0DB
:1013600081931B96FC93EE931A9716968D919C9100
:101370001797E817F90709F4D1C32FB7F894129615
:101380008D919C911397019613969C938E9312972F
:101390002FBF8FB7F894D70112962D913C911397D8
:1013A0008FBFF701808191812817390708F040C06D
:1013B0000284F385E02D83E080831A968D919C91C1
:1013C0001B9701961B969C938E931A9716962D91B8
:1013D0003C9117978217930709F497C32FB7F89496
:1013E000F701828193810196938382832FBFD50178
:1013F000AC56BD4F1A96ED91FC911B9781E08193FD
:101400001B96FC93EE931A9716968D919C911797C5
:10141000E817F90709F470C32FB7F89412968D9165
:101420009C911397019613969C938E9312972FBFBE
:101430008FB7F894D70112962D913C9113978FBFD7
:10144000F701808191812817390708F040C0028494
:10145000F385E02D85E080831A968D919C911B97F2
:1014600001961B969C938E931A9716962D913C91FC
:1014700017978217930709F436C32FB7F894F7012B
:10148000828193810196938382832FBFD501AC56CD
:10149000BD4F1A96ED91FC911B9781E081931B96AD
:1014A000FC93EE931A9716968D919C911797E817D7
:1014B000F90709F40FC32FB7F89412968D919C91F8
:1014C0001397019613969C938E9312972FBF8FB705
:1014D000F894D70112962D913C9113978FBFF70185
:1014E000808191812817390708F040C00284F38574
:1014F000E02D87E080831A968D919C911B97019631
:101500001B969C938E931A9716962D913C91179744
:101510008217930709F4D5C22FB7F894F701828197
:1015200093810196938382832FBFD501AC56BD4F23
:101530001A96ED91FC911B9781E081931B96FC9389
:10154000EE931A9716968D919C911797E817F907C5
:1015500009F4AEC22FB7F89412968D919C9113970F
:10156000019613969C938E9312972FBFF501E15F1E
:10157000FC4F80819181843091050CF0BFC0A09612
:101580000FB6F894DEBF0FBECDBFDF91CF911F9194
:101590000F91FF90EF90DF90BF90AF909F908F9052
:1015A0007F906F905F904F903F902F90089514968A
:1015B0008D919C9115971B969C938E931A9770CC46
:1015C00014968D919C9115971B969C938E931A97C8
:1015D0004AC914968D919C9115971B969C938E9356
:1015E0001A9717CA14968D919C9115971B969C93E8
:1015F0008E931A973BCB14968D919C9115971B96C1
:101600009C938E931A97E5CB62E272E022E4840108
:101610000D571D4FD401A157BD4FDD24D3942BC0CE
:101620002FB7F894F8018281938101969383828386
:101630002FBF1A96ED91FC911B97D1921B96FC93AC
:10164000EE931A9716968D919C911797E817F907C4
:10165000A9F12FB7F89412968D919C91139701964A
:1016600013969C938E9312972FBFFB012191BF017C
:10167000222309F4B8CA8FB7F894F8014281538144
:101680008FBF808191814817590778F782859385AC
:10169000FC012083F80182859385019693878287D8
:1016A000268137818217930709F0BACF848195810B
:1016B00093878287B5CF6CE070E02DCC14968D9126
:1016C0009C9115971B969C938E931A97C2CF8481F9
:1016D0009581938782870C94F00214968D919C914A
:1016E00015971B969C938E931A974CCA848195816B
:1016F0009387828719C960E170E0A7CDD5019C96D8
:10170000ED91FC919D9743818FB7F894F701228169
:1017100033818FBFD701808191812817390708F065
:101720003FC00284F385E02D406840831A968D9176
:101730009C911B9701961B969C938E931A971696D5
:101740002D913C9117978217930709F4A8C22FB7E0
:10175000F894F701828193810196938382832FBF4E
:10176000D501AC56BD4F1A96ED91FC911B97119285
:101770001B96FC93EE931A9716968D919C91179752
:10178000E817F90709F482C22FB7F89412968D91E1
:101790009C911397019613969C938E9312972FBF4B
:1017A000D2018D919C911197813191050CF024C14A
:1017B00047E352E063E5D401A157BD4F71E02CC06F
:1017C0002FB7F894F80182819381019693838283E5
:1017D0002FBF1A96ED91FC911B9771931B96FC936A
:1017E000EE931A9716968D919C911797E817F90723
:1017F00009F4F9C02FB7F89412968D919C91139724
:10180000019613969C938E9312972FBFFA016191C4
:10181000AF01662309F4B3CE8FB7F894F8012281A3
:1018200033818FBF808191812817390778F78285AE
:101830009385FC016083F8018285938501969387E7
:101840008287268137818217930709F0B9CF848177
:10185000958193878287B4CF46E050E042CA0DE07D
:1018600012E02DE4D401AD57BD4FB40161577D4F57
:10187000EE24E3942AC02FB7F89412968D919C9190
:101880001397019613969C938E9312972FBFFB018B
:1018900022853385F901E1929F01FB01338722877D
:1018A000868197812817390709F498C02FB7F894D3
:1018B000FB01828193810196938382832FBFF8017C
:1018C00021918F01222309F4D5C88FB7F89412967D
:1018D0004D915C9113978FBF8D919C9111974817F3
:1018E000590768F71A96ED91FC911B9720831A9679
:1018F0008D919C911B9701961B969C938E931A97A2
:1019000016962D913C9117978217930709F0B3CF44
:1019100014968D919C9115971B969C938E931A9774
:10192000AACF6DE072E02DE4D401A157BD4FDD24B4
:10193000D3942BC02FB7F894F8018281938101963C
:10194000938382832FBF1A96ED91FC911B97D192BE
:101950001B96FC93EE931A9716968D919C91179770
:10196000E817F90791F12FB7F89412968D919C9191
:101970001397019613969C938E9312972FBFFB019A
:101980002191BF01222309F4BCCA8FB7F894F80152
:10199000428153818FBF808191814817590778F721
:1019A00082859385FC012083F801828593850196C9
:1019B00093878287268137818217930709F0BACFF0
:1019C0008481958193878287B5CF14968D919C9160
:1019D00015971B969C938E931A97C5CF84819581FA
:1019E0009387828763CF14968D919C9115971B9650
:1019F0009C938E931A97FECE65E272E043E5D40184
:101A0000A157BD4F51E02BC02FB7F894F801828148
:101A100093810196938382832FBF1A96ED91FC9157
:101A20001B9751931B96FC93EE931A9716968D91E4
:101A30009C911797E817F90791F12FB7F894129630
:101A40008D919C911397019613969C938E93129768
:101A50002FBFFB014191BF01442309F490CD8FB703
:101A6000F894F801228133818FBF808191812817FA
:101A7000390778F782859385FC014083F8018285D8
:101A800093850196938782872681378182179307F2
:101A900009F0BACF8481958193878287B5CF149658
:101AA0008D919C9115971B969C938E931A97C5CFF9
:101AB00014968D919C9115971B969C938E931A97D3
:101AC00049CD14968D919C9115971B969C938E935E
:101AD0001A9722CD14968D919C9115971B969C93E5
:101AE0008E931A97E8CC14968D919C9115971B961E
:101AF0009C938E931A97C1CC14968D919C911597B7
:101B00001B969C938E931A9787CC14968D919C91DB
:101B100015971B969C938E931A9760CC14968D9173
:101B20009C9115971B969C938E931A9726CC14968E
:101B30008D919C9115971B969C938E931A97FFCB32
:101B400014968D919C9115971B969C938E931A9742
:101B5000C5CB14968D919C9115971B969C938E9353
:101B60001A979FCB14968D919C9115971B969C93D9
:101B70008E931A9754CB14968D919C9115971B9622
:101B80009C938E931A972DCB14968D919C911597BB
:101B90001B969C938E931A97F3CA14968D919C91E1
:101BA00015971B969C938E931A97CCCA14968D9179
:101BB0009C9115971B969C938E931A9792CA149694
:101BC0008D919C9115971B969C938E931A976BCA37
:101BD00014968D919C9115971B969C938E931A97B2
:101BE00031CA14968D919C9115971B969C938E9358
:101BF0001A970ACA14968D919C9115971B969C93DF
:101C00008E931A97D1C914968D919C9115971B9616
:101C10009C938E931A97ABC914968D919C911597AE
:101C20001B969C938E931A970C94880514968D910D
:101C30009C9115971B969C938E931A970C946A050A
:101C400014968D919C9115971B969C938E931A9741
:101C50000C94040414968D919C9115971B969C935B
:101C60008E931A970C94E60314968D919C91159778
:101C70001B969C938E931A977DC814968D919C9178
:101C800015971B969C938E931A9757C814968D910F
:101C90009C9115971B969C938E931A9775CD1496CD
:101CA0008D919C9115971B969C938E931A974FCD6F
:101CB0002F923F924F925F926F927F928F929F925C
:101CC000AF92BF92CF92DF92EF92FF920F931F934A
:101CD000CF93DF93CDB7DEB7A4970FB6F894DEBFEE
:101CE0000FBECDBF4C0105E0602E712C680E791E31
:101CF00020905F053090600540906105509062052E
:101D000064E572E048E528E8E22E22E0F22EE80ED3
:101D1000F91EDC01AC56BD4F51E02BC02FB7F89433
:101D2000F701828193810196938382832FBF1A9654
:101D3000ED91FC911B9751931B96FC93EE931A9790
:101D400016968D919C911797E817F90709F491C39E
:101D50002FB7F89412968D919C9113970196139634
:101D60009C938E9312972FBFFB014191BF01442397
:101D700001F18FB7F894F701228133818FBF808101
:101D800091812817390780F782859385FC0140836C
:101D9000F701828593850196938782872681378113
:101DA0008217930709F0BACF848195819387828740
:101DB000B5CF5E010894A11CB11C80E2D5011D9233
:101DC0008A95E9F7C201B10145E021E085010E9451
:101DD000C6C04981442309F453C0BE016E5F7F4FE2
:101DE000D301A157BD4F51E02BC02FB7F894F70195
:101DF000828193810196938382832FBF1A96ED91FE
:101E0000FC911B9751931B96FC93EE931A97169691
:101E10008D919C911797E817F90709F418C32FB70C
:101E2000F89412968D919C911397019613969C931A
:101E30008E9312972FBFFB014191BF01442301F103
:101E40008FB7F894F701228133818FBF8081918110
:101E50002817390780F782859385FC014083F701B5
:101E600082859385019693878287268137818217A1
:101E7000930709F0BACF8481958193878287B5CF84
:101E8000D4019C96ED91FC919D9740818FB7F89479
:101E900018E8C12E12E0D12EC80CD91CF6012281FF
:101EA00033818FBFD601808191812817390710F0C7
:101EB0000C94261A0284F385E02D485F4068408325
:101EC0001A968D919C911B9701961B969C938E93CD
:101ED0001A9716962D913C9117978217930711F434
:101EE0000C94B31C2FB7F894F6018281938101966C
:101EF000938382832FBFD401AC56BD4F1A96ED91C8
:101F0000FC911B9711921B96FC93EE931A971696D1
:101F10008D919C911797E817F90711F40C94BD1C4B
:101F20002FB7F89412968D919C9113970196139662
:101F30009C938E9312972FBF209063053090640579
:101F4000409065055090660560E672E049E5D30172
:101F5000A157BD4F51E02BC02FB7F894F7018281F4
:101F600093810196938382832FBF1A96ED91FC9102
:101F70001B9751931B96FC93EE931A9716968D918F
:101F80009C911797E817F90709F46AC22FB7F894DC
:101F900012968D919C911397019613969C938E9314
:101FA00012972FBFFB014191BF01442301F18FB76D
:101FB000F894F701228133818FBF808191812817A6
:101FC000390780F782859385FC014083F70182857C
:101FD000938501969387828726813781821793079D
:101FE00009F0BACF8481958193878287B5CF80E24B
:101FF000D5011D928A95E9F7C201B10145E021E0C2
:1020000085010E94C6C04981442309F453C0BE0122
:102010006E5F7F4FD301A157BD4F51E02BC02FB74B
:10202000F894F701828193810196938382832FBF75
:102030001A96ED91FC911B9751931B96FC93EE938E
:102040001A9716968D919C911797E817F90709F43E
:102050002BC22FB7F89412968D919C9113970196ED
:1020600013969C938E9312972FBFFB014191BF0152
:10207000442301F18FB7F894F701228133818FBF98
:10208000808191812817390780F782859385FC012B
:102090004083F70182859385019693878287268105
:1020A00037818217930709F0BACF8481958193878E
:1020B0008287B5CFD4019C96ED91FC919D9741818B
:1020C0008FB7F894F601228133818FBFD6018081CA
:1020D00091812817390710F00C94301A0284F38587
:1020E000E02D406840831A968D919C911B97019634
:1020F0001B969C938E931A9716962D913C91179749
:102100008217930711F40C94C71C2FB7F894F601AB
:10211000828193810196938382832FBFD401AC5631
:10212000BD4F1A96ED91FC911B9711921B96FC9353
:10213000EE931A9716968D919C911797E817F907C9
:1021400011F40C94A91C2FB7F89412968D919C91C0
:102150001397019613969C938E9312972FBF2090FE
:102160006705309068054090690550906A0563E600
:1021700072E04AE5D301A157BD4F51E02BC02FB704
:10218000F894F701828193810196938382832FBF14
:102190001A96ED91FC911B9751931B96FC93EE932D
:1021A0001A9716968D919C911797E817F90709F4DD
:1021B00069C12FB7F89412968D919C91139701964F
:1021C00013969C938E9312972FBFFB014191BF01F1
:1021D000442301F18FB7F894F701228133818FBF37
:1021E000808191812817390780F782859385FC01CA
:1021F0004083F701828593850196938782872681A4
:1022000037818217930709F0BACF8481958193872C
:102210008287B5CF80E2D5011D928A95E9F7C20188
:10222000B10145E021E085010E94C6C049814423F7
:1022300009F453C0BE016E5F7F4FD301A157BD4F5C
:1022400051E02BC02FB7F894F7018281938101965A
:10225000938382832FBF1A96ED91FC911B97519324
:102260001B96FC93EE931A9716968D919C91179757
:10227000E817F90709F40FC12FB7F89412968D915A
:102280009C911397019613969C938E9312972FBF50
:10229000FB014191BF01442301F18FB7F894F7018D
:1022A000228133818FBF808191812817390780F780
:1022B00082859385FC014083F70182859385019691
:1022C00093878287268137818217930709F0BACFD7
:1022D0008481958193878287B5CFF401E15FFC4FBC
:1022E00080819181833091050CF4E7C0D4019C96E4
:1022F000ED91FC919D9741818FB7F894F601228171
:1023000033818FBFD601808191812817390708F06A
:10231000B0C20284F385E02D485F406840831A967E
:102320008D919C911B9701961B969C938E931A9767
:1023300016962D913C9117978217930711F40C94E0
:10234000DA1C2FB7F894F60182819381019693836A
:1023500082832FBFD401AC56BD4F1A96ED91FC91EC
:102360001B9711921B96FC93EE931A9716968D91DC
:102370009C911797E817F90711F40C94FF1C2FB7DD
:10238000F89412968D919C911397019613969C93B5
:102390008E9312972FBF20906B0530906C05409064
:1023A0006D0550906E0566E672E025E4D301A157F5
:1023B000BD4F11E02CC02FB7F894F70182819381B3
:1023C0000196938382832FBF1A96ED91FC911B9700
:1023D00011931B96FC93EE931A9716968D919C91F0
:1023E0001797E817F90709F4EDC42FB7F894129678
:1023F0008D919C911397019613969C938E931297AF
:102400002FBFFB012191BF01222309F4BAC28FB76C
:10241000F894F701428153818FBF808191814817E1
:10242000590778F782859385FC012083F70182851F
:102430009385019693878287268137818217930738
:1024400009F0B9CF8481958193878287B4CF1496A0
:102450008D919C9115971B969C938E931A97DFCC28
:1024600014968D919C9115971B969C938E931A9719
:102470008DCD14968D919C9115971B969C938E9360
:102480001A9766CC14968D919C9115971B969C93E8
:102490008E931A978ECE14968D919C9115971B96BC
:1024A0009C938E931A97E8CE14968D919C911597D4
:1024B0001B969C938E931A97CCCDF401EC53FD4F51
:1024C00020803180428053806DE572E029E4D301A1
:1024D000A157BD4F11E02BC02FB7F894F7018281AF
:1024E00093810196938382832FBF1A96ED91FC917D
:1024F0001B9711931B96FC93EE931A9716968D914A
:102500009C911797E817F90709F44AC42FB7F89474
:1025100012968D919C911397019613969C938E938E
:1025200012972FBFFB012191BF01222301F18FB729
:10253000F894F701428153818FBF808191814817C0
:10254000590780F782859385FC012083F7018285F6
:102550009385019693878287268137818217930717
:1025600009F0BACF8481958193878287B5CF80E2C5
:10257000D5011D928A95E9F7C201B10145E021E03C
:1025800085010E94C6C02981222309F453C0BE01DF
:102590006E5F7F4FD301A157BD4F11E02BC02FB706
:1025A000F894F701828193810196938382832FBFF0
:1025B0001A96ED91FC911B9711931B96FC93EE9349
:1025C0001A9716968D919C911797E817F90709F4B9
:1025D0000BC42FB7F89412968D919C911397019686
:1025E00013969C938E9312972FBFFB012191BF01ED
:1025F000222301F18FB7F894F701428153818FBFF5
:10260000808191814817590780F782859385FC0165
:102610002083F7018285938501969387828726819F
:1026200037818217930709F0BACF84819581938708
:102630008287B5CFF401E853FD4F0190F081E02D82
:1026400040815181628173818FB7F894D6011296CF
:102650002D913C9113978FBFF601808191812817AE
:10266000390708F040C00284F385E02D8FE28083B3
:102670001A968D919C911B9701961B969C938E9315
:102680001A9716962D913C9117978217930709F484
:10269000B4C32FB7F894F601828193810196938396
:1026A00082832FBFD401AC56BD4F1A96ED91FC9199
:1026B0001B9781E081931B96FC93EE931A971696D5
:1026C0008D919C911797E817F90709F484C32FB7E8
:1026D000F89412968D919C911397019613969C9362
:1026E0008E9312972FBF80E2D5011D928A95E9F74C
:1026F000CB01BA0145E021E085010E94C6C04981B5
:10270000442309F453C0BE016E5F7F4FD301A1572C
:10271000BD4F51E02BC02FB7F894F7018281938110
:102720000196938382832FBF1A96ED91FC911B979C
:1027300051931B96FC93EE931A9716968D919C914C
:102740001797E817F90709F419C32FB7F8941296E9
:102750008D919C911397019613969C938E9312974B
:102760002FBFFB014191BF01442301F18FB7F894C2
:10277000F701228133818FBF80819181281739072A
:1027800080F782859385FC014083F70182859385DC
:10279000019693878287268137818217930709F0F4
:1027A000BACF8481958193878287B5CFF401E453B2
:1027B000FD4F8081882309F057C0E1E5AE2EE2E0AD
:1027C000BE2E69E772E020E2D301A157BD4F11E0B0
:1027D0002BC02FB7F894F7018281938101969383E0
:1027E00082832FBF1A96ED91FC911B9711931B9634
:1027F000FC93EE931A9716968D919C911797E81774
:10280000F90709F4D6C22FB7F89412968D919C91CE
:102810001397019613969C938E9312972FBFFB01EB
:102820002191BF01222371F18FB7F894F701428102
:1028300053818FBF808191814817590780F7828526
:102840009385FC012083F701828593850196938708
:102850008287268137818217930709F0BACF848156
:10286000958193878287B5CF5FE4A52E52E0B52E80
:10287000A8CF20906B0530906C0540906D0550906E
:102880006E0591CDD5012C91222309F453C0B501D9
:102890006F5F7F4FD301A157BD4F11E02BC02FB702
:1028A000F894F701828193810196938382832FBFED
:1028B0001A96ED91FC911B9711931B96FC93EE9346
:1028C0001A9716968D919C911797E817F90709F4B6
:1028D0005EC22FB7F89412968D919C911397019632
:1028E00013969C938E9312972FBFFB012191BF01EA
:1028F000222301F18FB7F894F701428153818FBFF2
:10290000808191814817590780F782859385FC0162
:102910002083F7018285938501969387828726819C
:1029200037818217930709F0BACF84819581938705
:102930008287B5CF7DE0272E73E0372E280C391C17
:10294000D1018D919C911197813191050CF05EC25E
:10295000A4960FB6F894DEBF0FBECDBFDF91CF9126
:102960001F910F91FF90EF90DF90CF90BF90AF90AD
:102970009F908F907F906F905F904F903F902F909F
:10298000089580E2D5011D928A95E9F7C201B1014F
:1029900045E021E085010E94C6C02981222309F477
:1029A00053C0BE016E5F7F4FD301A157BD4F11E0F1
:1029B0002BC02FB7F894F7018281938101969383FE
:1029C00082832FBF1A96ED91FC911B9711931B9652
:1029D000FC93EE931A9716968D919C911797E81792
:1029E000F90709F4B9C12FB7F89412968D919C910B
:1029F0001397019613969C938E9312972FBFFB010A
:102A00002191BF01222301F18FB7F894F701428190
:102A100053818FBF808191814817590780F7828544
:102A20009385FC012083F701828593850196938726
:102A30008287268137818217930709F0BACF848174
:102A4000958193878287B5CFD4019C96ED91FC91B7
:102A50009D9742818FB7F894F601228133818FBF11
:102A6000D601808191812817390708F06AC702844E
:102A7000F385E02D406840831A968D919C911B97B9
:102A800001961B969C938E931A9716962D913C91C6
:102A900017978217930709F4A9C72FB7F894F6017F
:102AA000828193810196938382832FBFD401AC5698
:102AB000BD4F1A96ED91FC911B9711921B96FC93BA
:102AC000EE931A9716968D919C911797E817F90730
:102AD00009F483C72FB7F89412968D919C911397A0
:102AE000019613969C938E9312972FBFF401EC538B
:102AF000FD4F208031804280538069E672E02DE4F2
:102B0000D301A157BD4F11E02BC02FB7F894F701A7
:102B1000828193810196938382832FBF1A96ED91D0
:102B2000FC911B9711931B96FC93EE931A971696A4
:102B30008D919C911797E817F90709F416C12FB7E3
:102B4000F89412968D919C911397019613969C93ED
:102B50008E9312972FBFFB012191BF01222301F118
:102B60008FB7F894F701428153818FBF80819181A3
:102B70004817590780F782859385FC012083F70168
:102B80008285938501969387828726813781821774
:102B9000930709F0BACF8481958193878287B5CF57
:102BA00080E2D5011D928A95E9F7C201B10145E0A5
:102BB00021E085010E94C6C02981222309F453C067
:102BC000BE016E5F7F4FD301A157BD4F11E02BC0F7
:102BD0002FB7F894F70182819381019693838283C2
:102BE0002FBF1A96ED91FC911B9711931B96FC93A6
:102BF000EE931A9716968D919C911797E817F907FF
:102C000009F4A1C02FB7F89412968D919C91139757
:102C1000019613969C938E9312972FBFFB012191DF
:102C2000BF01222301F18FB7F894F701428153814C
:102C30008FBF808191814817590780F782859385DE
:102C4000FC012083F7018285938501969387828713
:102C5000268137818217930709F0BACF8481958145
:102C600093878287B5CFADE02A2EA3E03A2E280CB9
:102C7000391CD1018D919C911197F401E853FD4FBE
:102C80000190F081E02D813191050CF477C58081B0
:102C90009181A281B38189A39AA3ABA3BCA367E569
:102CA00072E020E2D301A157BD4F11E02CC02FB735
:102CB000F894F701828193810196938382832FBFD9
:102CC0001A96ED91FC911B9711931B96FC93EE9332
:102CD0001A9716968D919C911797E817F90709F4A2
:102CE00015C62FB7F89412968D919C911397019663
:102CF00013969C938E9312972FBFFB012191BF01D6
:102D0000222309F4B7C38FB7F894F70142815381A6
:102D10008FBF808191814817590778F78285938505
:102D2000FC012083F7018285938501969387828732
:102D3000268137818217930709F0B9CF8481958165
:102D400093878287B4CF14968D919C9115971B968B
:102D50009C938E931A9756CF14968D919C911597AC
:102D60001B969C938E931A973ECE14968D919C91B0
:102D700015971B969C938E931A97E1CE14968D917E
:102D80009C9115971B969C938E931A97DECC149664
:102D90008D919C9115971B969C938E931A9799CD24
:102DA00014968D919C9115971B969C938E931A97D0
:102DB000ADCB14968D919C9115971B969C938E93F9
:102DC0001A9721CD14968D919C9115971B969C93E3
:102DD0008E931A970ACB14968D919C9115971B96FA
:102DE0009C938E931A9773CC14968D919C91159702
:102DF0001B969C938E931A97ECCB14968D919C9175
:102E000015971B969C938E931A9743CCD4019C964E
:102E1000ED91FC919D9740819FB7F894F601228136
:102E200033819FBFD601808191812817390708F02F
:102E300041C00284F385E02D842F805F8068808309
:102E40001A968D919C911B9701961B969C938E933D
:102E50001A9716962D913C9117978217930709F4AC
:102E600071C62FB7F894F6018281938101969383FE
:102E700082832FBFD401AC56BD4F1A96ED91FC91C1
:102E80001B9711921B96FC93EE931A9716968D91B1
:102E90009C911797E817F90709F4C4C52FB7F89460
:102EA00012968D919C911397019613969C938E93F5
:102EB00012972FBF8FB7F894D60112962D913C919F
:102EC00013978FBFF601808191812817390708F089
:102ED0003FC00284F385E02D10821A968D919C915B
:102EE0001B9701961B969C938E931A9716962D917D
:102EF0003C9117978217930709F49DC52FB7F89453
:102F0000F601828193810196938382832FBFD4013E
:102F1000AC56BD4F1A96ED91FC911B9781E08193C1
:102F20001B96FC93EE931A9716968D919C9117978A
:102F3000E817F90709F488C52FB7F89412968D9110
:102F40009C911397019613969C938E9312972FBF83
:102F50008FB7F894D60112962D913C9113978FBF9D
:102F6000F601808191812817390708F040C002845A
:102F7000F385E02D82E080831A968D919C911B97BA
:102F800001961B969C938E931A9716962D913C91C1
:102F900017978217930709F460C52FB7F894F601C5
:102FA000828193810196938382832FBFD401AC5693
:102FB000BD4F1A96ED91FC911B9781E081931B9672
:102FC000FC93EE931A9716968D919C911797E8179C
:102FD000F90709F44BC52FB7F89412968D919C917F
:102FE0001397019613969C938E9312972FBF8FB7CA
:102FF000F894D60112962D913C9113978FBFF6014C
:10300000808191812817390708F040C00284F38538
:10301000E02D84E080831A968D919C911B970196F8
:103020001B969C938E931A9716962D913C91179709
:103030008217930709F423C52FB7F894F60182810C
:1030400093810196938382832FBFD401AC56BD4FE9
:103050001A96ED91FC911B9781E081931B96FC934E
:10306000EE931A9716968D919C911797E817F9078A
:1030700009F40EC52FB7F89412968D919C91139771
:10308000019613969C938E9312972FBF8FB7F89447
:10309000D60112962D913C9113978FBFF601808136
:1030A00091812817390708F040C00284F385E02D8C
:1030B00086E080831A968D919C911B9701961B96B2
:1030C0009C938E931A9716962D913C911797821781
:1030D000930709F4E6C42FB7F894F601828193812F
:1030E0000196938382832FBFD401AC56BD4F1A96AD
:1030F000ED91FC911B9781E081931B96FC93EE93DD
:103100001A9716968D919C911797E817F90709F46D
:10311000D1C42FB7F89412968D919C911397019674
:1031200013969C938E9312972FBFD4019C96ED918A
:10313000FC919D9741819FB7F894F60122813381DC
:103140009FBFD601808191812817390708F041C0BF
:103150000284F385E02D842F805F806880831A9637
:103160008D919C911B9701961B969C938E931A9719
:1031700016962D913C9117978217930709F4A3C4D3
:103180002FB7F894F601828193810196938382830D
:103190002FBFD401AC56BD4F1A96ED91FC911B97F1
:1031A00011921B96FC93EE931A9716968D919C9113
:1031B0001797E817F90709F48FC42FB7F8941296F8
:1031C0008D919C911397019613969C938E931297D1
:1031D0002FBF8FB7F894D60112962D913C9113977B
:1031E0008FBFF601808191812817390708F040C010
:1031F0000284F385E02D81E080831A968D919C9165
:103200001B9701961B969C938E931A9716962D9159
:103210003C9117978217930709F467C42FB7F89466
:10322000F601828193810196938382832FBFD4011B
:10323000AC56BD4F1A96ED91FC911B9781E081939E
:103240001B96FC93EE931A9716968D919C91179767
:10325000E817F90709F452C42FB7F89412968D9124
:103260009C911397019613969C938E9312972FBF60
:103270008FB7F894D60112962D913C9113978FBF7A
:10328000F601808191812817390708F040C0028437
:10329000F385E02D83E080831A968D919C911B9796
:1032A00001961B969C938E931A9716962D913C919E
:1032B00017978217930709F42AC42FB7F894F601D9
:1032C000828193810196938382832FBFD401AC5670
:1032D000BD4F1A96ED91FC911B9781E081931B964F
:1032E000FC93EE931A9716968D919C911797E81779
:1032F000F90709F415C42FB7F89412968D919C9193
:103300001397019613969C938E9312972FBF8FB7A6
:10331000F894D60112962D913C9113978FBFF60128
:10332000808191812817390708F040C00284F38515
:10333000E02D85E080831A968D919C911B970196D4
:103340001B969C938E931A9716962D913C911797E6
:103350008217930709F4EDC32FB7F894F601828121
:1033600093810196938382832FBFD401AC56BD4FC6
:103370001A96ED91FC911B9781E081931B96FC932B
:10338000EE931A9716968D919C911797E817F90767
:1033900009F4EAC32FB7F89412968D919C91139774
:1033A000019613969C938E9312972FBF8FB7F89424
:1033B000D60112962D913C9113978FBFF601808113
:1033C00091812817390708F0C3CA0284F385E02DDC
:1033D00087E080831A968D919C911B9701961B968E
:1033E0009C938E931A9716962D913C91179782175E
:1033F000930709F40EC32FB7F894F60182819381E5
:103400000196938382832FBFD401AC56BD4F1A9689
:10341000ED91FC911B9781E081931B96FC93EE93B9
:103420001A9716968D919C911797E817F90709F44A
:1034300092C32FB7F89412968D919C911397019691
:1034400013969C938E9312972FBF82CA2090630588
:103450003090640540906505509066050C94A40F6B
:1034600020906705309068054090690550906A0586
:103470000C94B71080E2D5011D928A95E9F769A1F5
:103480007AA18BA19CA145E021E085010E94C6C0E4
:103490002981222309F453C0BE016E5F7F4FD301FF
:1034A000A157BD4F11E02BC02FB7F894F7018281CF
:1034B00093810196938382832FBF1A96ED91FC919D
:1034C0001B9711931B96FC93EE931A9716968D916A
:1034D0009C911797E817F90709F40FC22FB7F894D2
:1034E00012968D919C911397019613969C938E93AF
:1034F00012972FBFFB012191BF01222301F18FB74A
:10350000F894F701428153818FBF808191814817E0
:10351000590780F782859385FC012083F701828516
:103520009385019693878287268137818217930737
:1035300009F0BACF8481958193878287B5CFD40172
:103540009C96ED91FC919D9743818FB7F894F6017D
:10355000228133818FBFD60180819181281739075D
:1035600008F03FC00284F385E02D406840831A963E
:103570008D919C911B9701961B969C938E931A9705
:1035800016962D913C9117978217930709F41CC248
:103590002FB7F894F60182819381019693838283F9
:1035A0002FBFD401AC56BD4F1A96ED91FC911B97DD
:1035B00011921B96FC93EE931A9716968D919C91FF
:1035C0001797E817F90709F4ECC12FB7F89412968A
:1035D0008D919C911397019613969C938E931297BD
:1035E0002FBFF401E453FD4F8081882309F0C1C04F
:1035F000FBE4AF2EF2E0BF2E6FE672E025E4D301CC
:10360000A157BD4F11E02BC02FB7F894F70182816D
:1036100093810196938382832FBF1A96ED91FC913B
:103620001B9711931B96FC93EE931A9716968D9108
:103630009C911797E817F90709F489C02FB7F894F8
:1036400012968D919C911397019613969C938E934D
:1036500012972FBFFB012191BF01222301F18FB7E8
:10366000F894F701428153818FBF8081918148177F
:10367000590780F782859385FC012083F7018285B5
:1036800093850196938782872681378182179307D6
:1036900009F0BACF8481958193878287B5CFD50110
:1036A0002C91222309F44CC9B5016F5F7F4FD301E0
:1036B000A157BD4F11E02BC02FB7F894F7018281BD
:1036C00093810196938382832FBF1A96ED91FC918B
:1036D0001B9711931B96FC93EE931A9716968D9158
:1036E0009C911797E817F907D9F12FB7F89412961C
:1036F0008D919C911397019613969C938E9312979C
:103700002FBFFB012191BF01222309F419C98FB7F3
:10371000F894F701428153818FBF808191814817CE
:10372000590778F782859385FC012083F70182850C
:103730009385019693878287268137818217930725
:1037400009F0BACF8481958193878287B5CF14968B
:103750008D919C9115971B969C938E931A976ECF83
:1037600014968D919C9115971B969C938E931A9706
:10377000BCCF67E4A62E62E0B62E3ECF40815181D9
:10378000628173818FB7F894D60112962D913C9186
:1037900013978FBFF601808191812817390708F0B0
:1037A00040C00284F385E02D8FE280831A968D91CC
:1037B0009C911B9701961B969C938E931A97169635
:1037C0002D913C9117978217930709F4B1C02FB739
:1037D000F894F601828193810196938382832FBFAF
:1037E000D401AC56BD4F1A96ED91FC911B9781E028
:1037F00081931B96FC93EE931A9716968D919C914C
:103800001797E817F90709F48AC02FB7F8941296AA
:103810008D919C911397019613969C938E9312977A
:103820002FBF80E2D5011D928A95E9F7CB01BA013D
:1038300045E021E085010E94C6C02981222309F4C8
:103840007ECEBE016E5F7F4FD301A157BD4F11E009
:103850002BC02FB7F894F70182819381019693834F
:1038600082832FBF1A96ED91FC911B9711931B96A3
:10387000FC93EE931A9716968D919C911797E817E3
:10388000F90791F12FB7F89412968D919C911397A7
:10389000019613969C938E9312972FBFFB01219153
:1038A000BF01222309F44BCE8FB7F894F701428170
:1038B00053818FBF808191814817590778F782859E
:1038C0009385FC012083F701828593850196938778
:1038D0008287268137818217930709F0BACF8481C6
:1038E000958193878287B5CF14968D919C9115977A
:1038F0001B969C938E931A97C5CF14968D919C918D
:1039000015971B969C938E931A97E8CD14968D91DC
:103910009C9115971B969C938E931A97E2C91496C7
:103920008D919C9115971B969C938E931A976DCFB2
:1039300014968D919C9115971B969C938E931A9734
:1039400046CFF401EC53FD4F2080318042805380FC
:10395000D4C814968D919C9115971B969C938E9329
:103960001A970C94A31014968D919C9115971B9601
:103970009C938E931A970C94720F14968D919C9130
:1039800015971B969C938E931A970C94900F1496F0
:103990008D919C9115971B969C938E931A970C94DE
:1039A000851014968D919C9115971B969C938E93E0
:1039B0001A970BCE14968D919C9115971B969C93FC
:1039C0008E931A970C94A11114968D919C91159732
:1039D0001B969C938E931A97DBCD14968D919C9198
:1039E00015971B969C938E931A9774C814968D9175
:1039F0009C9115971B969C938E931A974EC814967C
:103A00008D919C9115971B969C938E931A970C946D
:103A1000BF1114968D919C9115971B969C938E9334
:103A20001A97E9CC14968D919C9115971B969C93AF
:103A30008E931A9733CA14968D919C9115971B9665
:103A40009C938E931A975ACA14968D919C911597B0
:103A50001B969C938E931A976FCA14968D919C9186
:103A600015971B969C938E931A9797CA14968D91CF
:103A70009C9115971B969C938E931A97ACCA14969B
:103A80008D919C9115971B969C938E931A97D4CAEF
:103A900014968D919C9115971B969C938E931A97D3
:103AA000E9CA14968D919C9115971B969C938E93C1
:103AB0001A9711CB14968D919C9115971B969C93F8
:103AC0008E931A9726CB14968D919C9115971B96E1
:103AD0009C938E931A9754CB14968D919C91159725
:103AE0001B969C938E931A9768CB14968D919C91FC
:103AF00015971B969C938E931A9790CB14968D9145
:103B00009C9115971B969C938E931A97A5CB149610
:103B10008D919C9115971B969C938E931A97CDCB64
:103B200014968D919C9115971B969C938E931A9742
:103B3000E2CB14968D919C9115971B969C938E9336
:103B40001A970ACC14968D919C9115971B969C936D
:103B50008E931A9786C914968D919C9115971B96F2
:103B60009C938E931A9765CC14968D919C91159782
:103B70001B969C938E931A970DCCCF93DF93CDB762
:103B8000DEB7CE5BD0400FB6F894DEBF0FBECDBF20
:103B900078940E94A8330E94102F0E943130209008
:103BA000A0083090A108882311F40C94F32CC101D3
:103BB0006CE772E00E94AB01C10168E972E00E940B
:103BC000AB01A0905705B090580580909C0890904C
:103BD0009D088E010F5F1F4FC354DF4F1983088369
:103BE000CD5BD040C5010E948644C1010E94E131F5
:103BF000C5010E948644C4010E94AC96C5010E9482
:103C000086440E944530C5010E9486448091B905D2
:103C1000882309F4A5C08091BA05882309F08EC1D4
:103C2000E0919005F09191054281809192058F700D
:103C300021E030E0B90102C0660F771F8A95E2F7F4
:103C4000CB01809584238283E0919305F0919405C4
:103C50004281809195058F70D90102C0AA0FBB1FC8
:103C60008A95E2F7CD019A2F90959423982B928311
:103C700024E030E061E070E0F901EE0FFF1FE20F99
:103C8000F31FE756FA4FA081B18111964C9111971D
:103C900082818F7001E010E07B0102C0EE0CFF1CFE
:103CA0008A95E2F7C7018095842311968C93A081B1
:103CB000B18112964C91129782818F70FB0102C0E4
:103CC000EE0FFF1F8A95E2F7CF01809584231296AD
:103CD0008C9312972F5F3F4F2830310569F6E091A2
:103CE0009605F09197052281809198058F70780153
:103CF00002C0EE0CFF1C8A95E2F7C7019E2D90953D
:103D00009223982B92832091B0052F70E091AE05FD
:103D1000F091AF054081E0919605F09197053281D1
:103D2000809198058F70B80102C0660F771F8A9541
:103D3000E2F7CB0180958323828380912A05882333
:103D400009F0F2C0842F90E002C0959587952A95DE
:103D5000E2F7817090708093010581E080932A05DD
:103D600080912B0890912C081FEF8F3F910709F449
:103D7000B7C00E9425342B013C01EE24FF2401E052
:103D800010E0A701440F551F4E0D5F1D455D574FB5
:103D9000DA01ED91FC911197218112968C91129785
:103DA0008F70B80102C0660F771F8A95E2F7CB01CA
:103DB000962F90959223982B9183ED91FC911197DA
:103DC000228112968C918F70D80102C0AA0FBB1F5E
:103DD0008A95E2F7CD0180958223828360E020E01E
:103DE00030E0D901AA0FBB1FA20FB31FA95CB74FC8
:103DF000ED91FC911197808190E012967C91129741
:103E00007F7002C0959587957A95E2F780FD08C08E
:103E1000C801022E02C0880F991F0A94E2F7682B8E
:103E20002F5F3F4F24303105E1F6DA01ED91FC912F
:103E30001197218112968C918F70D80102C0AA0F20
:103E4000BB1F8A95E2F7CD01809582238183DA0139
:103E5000ED91FC911197228112968C9112978F709F
:103E6000A80102C0440F551F8A95E2F7CA01809548
:103E700082238283662389F070E020E030E0CB016A
:103E8000022E02C0959587950A94E2F780FDACC199
:103E90002F5F3F4F2430310591F70894E11CF11C4E
:103EA00024E0E216F10409F06CCF8091460890916D
:103EB0004708A0914808B09149080097A105B105AD
:103EC00079F084159505A605B70550F410924608BB
:103ED00010924708109248081092490810924A0818
:103EE000EE24E0928F050E941334AB01BC01809157
:103EF0008B0590918C05A0918D05B0918E057A016E
:103F00008B01E81AF90A0A0B1B0BD801C701893E7D
:103F100003E0900700E0A00700E0B00708F0C9C088
:103F2000C5010E9486445ECE8091010510922A054B
:103F300091E090930105882309F012CF2FB7F894F0
:103F400080911508909116082FBF009709F408CFAB
:103F50008091BA05E0911B08F0911C08882309F0B4
:103F60006DC1E080E0912708F09128085081E09130
:103F70009305F09194054281809195058F7021E021
:103F800030E0D90102C0AA0FBB1F8A95E2F7CD012C
:103F9000809584238283E0919005F0919105428180
:103FA000809192058F70890102C0000F111F8A95C0
:103FB000E2F7C801202F20952423552309F480E03F
:103FC000282B228320E030E0FF2401E010E0C9012B
:103FD0000496FC01EE0FFF1FE80FF91FE756FA4F9A
:103FE000A081B18111965C91119742814F70B80107
:103FF00002C0660F771F4A95E2F7462F409545238A
:10400000462B11964C9311974091BA054111C90165
:10401000A081B18112969C91129762816F70A80164
:1040200002C0440F551F6A95E2F7BA014095492333
:10403000F70102C0F595E7958A95E2F7E0FF60E0A9
:10404000462B12964C9312972F5F3F4F2430310529
:1040500009F0BDCF8091BA0591E089278093BA0518
:10406000E0919605F09197054281809198058F70B7
:1040700021E030E0790102C0EE0CFF1C8A95E2F7E6
:10408000C7019E2D90959423982B9283E0919605DD
:10409000F09197054281809198058F70890102C047
:1040A000000F111F8A95E2F7C8018095842382834F
:1040B00057CE40938B0550938C0560938D0570937C
:1040C0008E05C4010E94F8968C01C4010E940497D9
:1040D000081B190B17FD7EC2C8019595879588307E
:1040E00091050CF0A8C01FEF883F910714F00C94C5
:1040F000022D6FE070E0A8E8B8E040E050E0FA017F
:10410000E85AF74F23E030E08081992787FD9095AA
:10411000880F991F982F8083808984FF02C0916047
:1041200090839F7190832150304070962115310506
:1041300059F78C91992787FD9095880F991F982F93
:104140008C934617570709F44CC09F719D934F5F9E
:104150005F4F4031510599F6CC24DD248601085A81
:10416000174F6C2D606480E995E040E00E94550295
:1041700038E0E32EF12CE00EF11E80E995E0D80145
:104180006D918D0141E00E9455020E151F05A9F7A2
:10419000E091B705F091B8056081606880E995E02D
:1041A00040E00E945502E8E0F0E0CE0EDF1EF0E4B1
:1041B000CF16D10499F680914B0890914C08009746
:1041C00009F474C08230910509F0AACE80E995E027
:1041D00062E040E00E9455028BE895E00E94580E94
:1041E0009FCE91609C93B1CFC901880F991FE09138
:1041F0004308F0914408E80FF91F0190F081E02D89
:10420000EE0DFF1DE08080914A08E81609F437C2E0
:10421000E0924A088091450883017201E80EF11C82
:10422000011D111DE0924608F092470800934808CE
:104230001093490855CE60E070E05DCFE190F093B7
:104240001C08E0931B088091190890911A08E81740
:10425000F90711F40C942C292FB7F89480911508C4
:1042600090911608019790931608809315082FBF18
:10427000E0912708F09128085191F0932808E093E5
:1042800027088091250890912608E817F90709F476
:10429000ABC72FB7F894809121089091220801971D
:1042A00090932208809321082FBF61CE80E995E08A
:1042B00061E040E00E945502809198089091990831
:1042C000813191050CF4B7C101E012E068E480E9A6
:1042D00095E041E00E945502D8016D918D01662361
:1042E000B1F7C4010E94F8969C01F4E080309F076A
:1042F00009F4B7C180E2C354DF4FE881F981CD5B97
:10430000D04011928A95E9F7B901882777FD809509
:10431000982FAE014F5F5F4F2AE030E00E94ABC2A2
:104320006981662369F08E010E5F1F4F80E995E079
:1043300041E00E945502D8016D918D016623B1F7CD
:104340008091980890919908E091B705F091B8058F
:104350006081813191050CF01CC56A5F606880E95D
:1043600095E040E00E94550206E112E06FE280E92C
:1043700095E041E00E945502F80161918F016623AA
:10438000B1F7C4010E94049720E2C354DF4FA88113
:10439000B981CD5BD0401D922A95E9F7BC0180E040
:1043A00090E0AE014F5F5F4F2AE030E00E94ABC269
:1043B0006981662369F08E010E5F1F4F80E995E0E9
:1043C00041E00E945502F80161918F016623B1F727
:1043D000E091B705F091B8056181606880E995E0EA
:1043E00040E00E945502809198089091990881318F
:1043F00091050CF4F2C009E112E062E480E995E075
:1044000041E00E945502D8016D918D016623B1F7FC
:10441000C4010E94FE969C01F4E080309F0709F4DD
:10442000F2C080E2C354DF4FE881F981CD5BD04018
:1044300011928A95E9F7B901882777FD8095982F21
:10444000AE014F5F5F4F2AE030E00E94ABC269814E
:10445000662369F08E010E5F1F4F80E995E041E011
:104460000E945502D8016D918D016623B1F78091AC
:10447000980890919908E091B705F091B80561818D
:10448000813191050CF07DC46A5F606880E995E038
:1044900040E00E94550206E112E06FE280E995E0FB
:1044A00041E00E945502F80161918F016623B1F746
:1044B000C4010E940A9720E2C354DF4FA881B9814A
:1044C000CD5BD0401D922A95E9F7BC0180E090E0D9
:1044D000AE014F5F5F4F2AE030E00E94ABC26981BE
:1044E000662369F08E010E5F1F4F80E995E041E081
:1044F0000E945502F80161918F016623B1F7809106
:10450000980890919908813191050CF491C060E16F
:1045100070E0E091B705F091B8058081680F711DDA
:10452000606880E995E040E00E94550280E995E0EE
:1045300060E041E00E94550280E995E062E041E0E0
:104540000E94550280E995E064E041E00E94550236
:1045500080E995E066E041E00E945502809198086C
:1045600090919908813191050CF0CEC36CE070E018
:10457000E091B705F091B8058181680F711D606801
:1045800080E995E040E00E94550280E995E061E015
:1045900041E00E94550280E995E063E041E00E941D
:1045A000550280E995E065E041E00E94550280E90E
:1045B00095E067E041E00E94550280919A08909151
:1045C0009B08843091050CF0A2C380914B08909118
:1045D0004C08F8CD0F5F1F4F7FCD02E212E062E47E
:1045E00080E995E041E00E945502F80161918F0158
:1045F0006623B1F7C4010E94FE969C01F4E080306E
:104600009F0709F00ECF0DE012E06DE480E995E020
:1046100041E00E945502D8016D918D016623B1F7EA
:104620008091980890919908813191050CF06FCF95
:104630006CE070E06ECF0AE012E068E480E995E09B
:1046400041E00E945502F80161918F016623B1F7A4
:10465000C4010E94F8969C01F4E080309F0709F0A5
:1046600049CE0DE012E06DE480E995E041E00E9462
:104670005502D8016D918D016623B1F7A9CE8091C5
:10468000460890914708A0914808B09149084816FB
:1046900059066A067B0608F423CCEE2009F421CCE7
:1046A00080918F058E1509F41CCC00914B08109158
:1046B0004C080130110509F458C10230110599F177
:1046C0000115110579F434E3E31609F43FC73E15EB
:1046D0000CF467C341E3E41609F415C753E3E51688
:1046E00009F406C742E4E41609F46DC24E150CF451
:1046F00034C251E4E51609F0F4CB80914B08909157
:104700004C08009709F4EDCB10924C0810924B081E
:1047100080E995E061E040E00E9455028BE895E079
:104720000E949C02DECBB6E3BE150CF440C2E2E36D
:10473000EE160CF462C5C5010E941D49882309F0DC
:10474000D0CB18861F8288E589871F861E8689E55B
:10475000888B1E8A1D8A8AE58F8B1D8E1C8E85E4B0
:104760008E8F1CA21BA28DE48DA31BA61AA687E424
:104770008CA71AAA19AA86E48BAB19AE18AE80E5ED
:104780008AAF21961FAE1EAE219783E522968FAF8A
:10479000229728961FAE1EAE289784E529968FAFE4
:1047A0002997DE01AD59BF4F9E012D583F4F80E044
:1047B00090E0FC01EE0FFF1FEE0FFF1FEE0FFF1F3B
:1047C000E81BF90B369641E050E04C0F5D1FE40FFB
:1047D000F51F118210821382148215821682843092
:1047E00091053CF41D921D921D921C921397F901A4
:1047F0001082019614962F5F3F4F89309105C9F6BC
:104800001A82198267961FAE1EAE679769961FAE11
:104810001EAE699761961CAE1DAE1EAE1FAE6197AF
:104820008FEF9FEFAFEFBFEF8B839C83AD83BE8392
:1048300080E090E0A0E0B0E06D968CAF9DAFAEAFB1
:10484000BFAF6D97A3961CAE1DAE1EAE1FAEA39755
:10485000E9961FAE1EAEE997ED961CAE1DAE1EAEDC
:104860001FAEED97C358DF4F188219821A821B8240
:10487000CD57D040CF57DF4F188219821A821B8242
:10488000C158D040CB57DF4F188219821A821B8241
:10489000C558D040C757DF4F188219821A821B8231
:1048A000C958D040C357DF4F188219821A821B8221
:1048B000CD58D040CF56DF4F188219821A821B8202
:1048C000C159D040CB56DF4F188219821A821B8201
:1048D000C559D040C756DF4F188219821A821B82F1
:1048E000C959D040F5E3EF1611F40C948B2CFE154A
:1048F0000CF4FCC633E3F32EEF1409F42CC7FE14BA
:1049000014F40C94A82C02E3E01641F581E090E049
:10491000A0E0B0E08DA79EA7AFA7B8AB82E090E083
:104920009BA78AA7609163057091640580916505D6
:104930009091660520914F083091500840915108A0
:10494000509152080E9444BEDC01CB01898B9A8BA6
:10495000AB8BBC8B81E090E09F878E87C501BE0149
:104960006F5F7F4F0E948847BCCA0E94852E8823B4
:1049700009F0B8CEB3E2EB1609F48EC4E6E3EE1606
:1049800009F0B0CE0E94FF3010934C0800934B0802
:1049900080E995E061E040E00E9455020E94852E8A
:1049A000882309F04DC60E94FC30DC018C918823DD
:1049B00011F40E94FF300BEA12E063E580E995E014
:1049C00041E00E945502F80161918F016623B1F721
:1049D000E091B705F091B8056181606880E995E0E4
:1049E00040E00E9455020AEB12E06EE380E995E098
:1049F00041E00E945502D8016D918D016623B1F707
:104A00000E94FC30FC016081662369F08C010F5F1D
:104A10001F4F80E995E041E00E945502D8016D9159
:104A20008D016623B1F780919A0890919B0883309D
:104A300091050CF456CAE091B705F091B805628172
:104A4000606880E995E040E00E9455020DEB12E0BD
:104A500066E380E995E041E00E945502F80161912A
:104A60008F016623B1F780919A0890919B0884305A
:104A700091050CF436CAE091B705F091B805638151
:104A8000606880E995E040E00E94550280919808B6
:104A900090919908813191050CF084C7A7E3B2E0A9
:104AA00043E551E02DC02FB7F894809115089091FF
:104AB0001608019690931608809315082FBFE09171
:104AC0002908F0912A085193F0932A08E0932908C5
:104AD0008091250890912608E817F90709F42FC757
:104AE0002FB7F89480912108909122080196909315
:104AF0002208809321082FBF4D91442309F4F1C966
:104B00008FB7F89420911508309116088FBF8091C7
:104B10001308909114082817390770F7E0911D08C1
:104B2000F0911E08408380911D0890911E08019607
:104B300090931E0880931D082091190830911A083F
:104B40008217930709F0AFCF80911708909118084A
:104B500090931E0880931D08A6CF63E4E61609F41F
:104B6000F7C074E4E71609F0BCC980914B08909136
:104B70004C088330910509F4B4C983E090E0909328
:104B80004C0880934B0880E995E061E040E00E948A
:104B900055020CEC12E06DE480E995E041E00E94E2
:104BA0005502F80161918F016623B1F79AC917E3A5
:104BB000E11609F40EC429E32E150CF0BCCD42E435
:104BC000E41609F093CD80914B0890914C08813008
:104BD000910509F486C981E090E090934C08809398
:104BE0004B0880E995E061E040E00E9455020E9498
:104BF000852E882309F039C60E94FC30FC01808193
:104C0000882309F4EDC60BEA12E063E580E995E03C
:104C100041E00E945502D8016D918D016623B1F7E4
:104C2000E091B705F091B8056181606880E995E091
:104C300040E00E9455020AEB12E06EE380E995E045
:104C400041E00E945502F80161918F016623B1F79E
:104C50000E94FC30DC016C91662369F08C010F5FCF
:104C60001F4F80E995E041E00E945502F8016191F3
:104C70008F016623B1F780919A0890919B08833049
:104C800091050CF42EC9E091B705F091B805628149
:104C9000606880E995E040E00E9455020DEB12E06B
:104CA00066E380E995E041E00E945502D8016D91EC
:104CB0008D016623B1F780919A0890919B0884300A
:104CC00091050CF40EC9E091B705F091B805638128
:104CD000606880E995E040E00E9455028091980864
:104CE00090919908813191050CF0A1C607E312E07B
:104CF00063E580E995E041E00E945502D8016D919D
:104D00008D016623B1F7EDC860E170E031CCE09130
:104D1000B705F091B8056381606880E995E040E0EF
:104D20000E945502809198089091990881319105CF
:104D30000CF09CC207E312E063E580E995E041E0F6
:104D40000E945502F80161918F016623B1F73DCCB5
:104D500080914B0890914C088230910509F4C1C8AC
:104D600082E090E090934C0880934B0880E995E0B6
:104D700061E040E00E9455028BE895E00E94580EE9
:104D8000B0C8655F606880E995E040E00E94550228
:104D900082CB655F606880E995E040E00E94550243
:104DA000E3CA67E3E61609F4BDC379E3E71609F43D
:104DB00093C386E3E81609F095CCC40160E070E087
:104DC0000E94F29680E995E061E040E00E94550281
:104DD0008091980890919908813191050CF05EC0FE
:104DE000AAE0B2E048E451E02CC02FB7F8948091DB
:104DF000150890911608019690931608809315084F
:104E00002FBFE0912908F0912A085193F0932A08C6
:104E1000E09329088091250890912608E817F90762
:104E200009F48BC32FB7F894809121089091220840
:104E3000019690932208809321082FBF4D9144231F
:104E4000D1F18FB7F89420911508309116088FBFD3
:104E500080911308909114082817390778F7E0918A
:104E60001D08F0911E08408380911D0890911E0836
:104E7000019690931E0880931D0820911908309187
:104E80001A088217930709F0B0CF80911708909104
:104E9000180890931E0880931D08A7CF01E012E028
:104EA00068E480E995E041E00E945502D8016D91E7
:104EB0008D016623B1F7C4010E94F8969C01B4E00D
:104EC00080309B0709F450C380E2C354DF4FA881B0
:104ED000B981CD5BD0401D928A95E9F7B901882749
:104EE00077FD8095982FAE014F5F5F4F2AE030E04D
:104EF0000E94ABC26981662369F08E010E5F1F4F6D
:104F000080E995E041E00E945502F80161918F012E
:104F10006623B1F78091980890919908E091B705C0
:104F2000F091B8056081813191050CF015C36A5F7D
:104F3000606880E995E040E00E94550206E112E0D9
:104F40006FE280E995E041E00E945502D8016D9141
:104F50008D016623B1F7C4010E94049720E2C35477
:104F6000DF4FE881F981CD5BD04011922A95E9F7B6
:104F7000BC0180E090E0AE014F5F5F4F2AE030E07F
:104F80000E94ABC26981662369F08E010E5F1F4FDC
:104F900080E995E041E00E945502D8016D918D01B4
:104FA0006623B1F7E091B705F091B80561816068BB
:104FB00080E995E040E00E94550280919808909128
:104FC0009908813191050CF463C209E112E062E4B1
:104FD00080E995E041E00E945502F80161918F015E
:104FE0006623B1F7C4010E94FE969C01B4E08030B4
:104FF0009B0709F463C280E2C354DF4FA881B981E3
:10500000CD5BD0401D928A95E9F7B901882777FDDD
:105010008095982FAE014F5F5F4F2AE030E00E94ED
:10502000ABC26981662369F08E010E5F1F4F80E974
:1050300095E041E00E945502F80161918F016623DD
:10504000B1F78091980890919908E091B705F09197
:10505000B8056181813191050CF094C26A5F606886
:1050600080E995E040E00E94550206E112E06FE21F
:1050700080E995E041E00E945502D8016D918D01D3
:105080006623B1F7C4010E940A9720E2C354DF4FA0
:10509000E881F981CD5BD04011922A95E9F7BC01F6
:1050A00080E090E0AE014F5F5F4F2AE030E00E9469
:1050B000ABC26981662369F08E010E5F1F4F80E9E4
:1050C00095E041E00E945502D8016D918D01662363
:1050D000B1F78091980890919908813191050CF46D
:1050E000D4C180E190E0E091B705F091B80520814E
:1050F000820F911D682F606880E995E040E00E9472
:10510000550280E995E060E041E00E94550280E9A7
:1051100095E062E041E00E94550280E995E064E09C
:1051200041E00E94550280E995E066E041E00E947E
:1051300055028091980890919908813191050CF061
:10514000EEC18CE090E0E091B705F091B8052181C7
:10515000820F911D682F606880E995E040E00E9411
:10516000550280E995E061E041E00E94550280E946
:1051700095E063E041E00E94550280E995E065E03A
:1051800041E00E94550280E995E067E041E00E941D
:10519000550280919A0890919B088430910514F4EF
:1051A0000C94711FE091B705F091B80563816068B8
:1051B00080E995E040E00E94550280919808909126
:1051C0009908813191050CF041C307E312E063E5D2
:1051D00080E995E041E00E945502D8016D918D0172
:1051E0006623B1F70C94711F8091230890912408D5
:1051F00090932808809327084CC8FAE2EF1609F428
:1052000043C051E3F52EEF1409F421C103E2E01687
:1052100009F068CAE0915308F0915408CF01049650
:105220009093540880935308648175818681978197
:1052300020E030E040E050E00E94A9BE882311F059
:105240000C94711F809155089091560890935408C2
:10525000809353080C94711F80911708909118083F
:1052600090931C0880931B080C942C2105E212E0FB
:1052700063E580E995E041E00E945502D8016D9117
:105280008D016623B1F7A1C98091570891E0892764
:10529000809357080C94711F0E94143110934C088E
:1052A00000934B0880E995E061E040E00E945502E0
:1052B0000E94852E882309F06DC10E94FC30FC01FC
:1052C0008081882311F40E94FF300BEA12E063E52D
:1052D00080E995E041E00E945502D8016D918D0171
:1052E0006623B1F7E091B705F091B8056181606878
:1052F00080E995E040E00E9455020AEB12E06EE37F
:1053000080E995E041E00E945502F80161918F012A
:105310006623B1F70E94FC30DC016C91662369F0D2
:105320008C010F5F1F4F80E995E041E00E9455021C
:10533000F80161918F016623B1F780919A089091ED
:105340009B088330910514F40C94711FE091B7050C
:10535000F091B8056281606880E995E040E00E94C4
:1053600055020DEB12E066E380E995E041E00E9412
:105370005502D8016D918D016623B1F780919A088D
:1053800090919B088430910514F40C94711FE09166
:10539000B705F091B8056381606880E995E040E069
:1053A0000E94550280919808909199088131910549
:1053B0000CF007C307E312E063E580E995E041E004
:1053C0000E945502D8016D918D016623B1F70C94AE
:1053D000711FE0915308F091540860914F0870914B
:1053E000500880915108909152082081318142816A
:1053F00053810E9444BE9B01E82FB92F462F532FA3
:10540000682F792F40934F085093500860935108AC
:1054100070935208822F932FAE2FBC01CD0120E054
:1054200030E040E050E00E94A9BE87FD02C00C942D
:10543000711F80E090E0A0E0B0E080934F0890936F
:105440005008A0935108B09352080C94711FE0913A
:105450005308F091540860914F0870915008809162
:1054600051089091520820813181428153810E94DC
:1054700045BEDC01CB0180934F0890935008A09368
:105480005108B09352080C94711F8CE090E02BCE21
:1054900002E212E062E480E995E041E00E945502F8
:1054A000D8016D918D016623B1F7C4010E94FE966B
:1054B0009C01B4E080309B0709F09DCD0DE012E027
:1054C0006DE480E995E041E00E945502F8016191A8
:1054D0008F016623B1F7FDCDC4010E940A97BC017C
:1054E0006550704077FD0CC0C4010E94F2966ACCF2
:1054F000C4010E940A97BC016B5F7F4F77FFF4CF16
:1055000060E070E0F1CFC4010E940497BC016B5FC2
:105510007F4F77FD0FC0C4010E94EC9653CC80E111
:1055200090E011CEC4010E940497BC016550704008
:1055300077FFF1CF60E070E0EECF8091230890918B
:10554000240890932A08809329086CCCC40160E059
:1055500070E00E94EC9636CC655F606880E995E06B
:1055600040E00E945502EACC0DE012E06DE480E9D3
:1055700095E041E00E945502F80161918F01662398
:10558000B1F710CD655F606880E995E040E00E946A
:1055900055026BCD00EA12E060E580E995E041E05C
:1055A0000E945502F80161918F016623B1F7E091E5
:1055B000B705F091B8056181606880E995E040E049
:1055C0000E9455020E94FC30DC016C91662369F058
:1055D0008C010F5F1F4F80E995E041E00E9455026A
:1055E000F80161918F016623B1F780919A0890913B
:1055F0009B088430910514F40C94711FE091B70559
:10560000F091B8056381606880E995E040E00E9410
:1056100055028091980890919908813191050CF07C
:10562000E9C107E312E063E580E995E041E00E940B
:105630005502D8016D918D016623B1F70C94711F4D
:1056400000EA12E060E580E995E041E00E94550241
:10565000D8016D918D016623B1F7E091B705F09106
:10566000B8056181606880E995E040E00E945502DC
:105670000E94FC30FC016081662369F08C010F5FA1
:105680001F4F80E995E041E00E945502D8016D91DD
:105690008D016623B1F780919A0890919B08843020
:1056A000910514F40C94711FE091B705F091B805C1
:1056B0006381606880E995E040E00E945502809136
:1056C000980890919908813191050CF093C107E3F6
:1056D00012E063E580E995E041E00E945502F8019F
:1056E00061918F016623B1F70C94711F18E3E116E5
:1056F00009F483C029E3E21609F456C036E3E31641
:1057000009F02CC981E090E0A0E0B0E08DA79EA751
:10571000AFA7B8AB82E090E09BA78AA760915F0536
:1057200070916005809161059091620520914F080C
:105730003091500840915108509152080E9445BE46
:10574000DC01CB018A879B87AC87BD8781E090E035
:1057500098878F8303C981E090E0A0E0B0E08DA737
:105760009EA7AFA7B8AB82E090E09BA78AA7609105
:105770006705709168058091690590916A0520918F
:105780004F083091500840915108509152080E94A2
:1057900045BEDC01CB01888F998FAA8FBB8F81E03A
:1057A00090E09E8B8D8BDAC881E090E0A0E0B0E0C5
:1057B0008DA79EA7AFA7B8AB82E090E09BA78AA772
:1057C00060916705709168058091690590916A05FF
:1057D00020914F0830915008409151085091520843
:1057E0000E9444BEDC01CB01888F998FAA8FBB8FAA
:1057F00081E090E09E8B8D8BB1C881E090E0A0E0CD
:10580000B0E08DA79EA7AFA7B8AB82E090E09BA7C2
:105810008AA76091630570916405809165059091F8
:10582000660520914F0830915008409151085091E1
:1058300052080E9445BEDC01CB01898B9A8BAB8B51
:10584000BC8B81E090E09F878E8788C805E212E0DC
:1058500063E580E995E041E00E945502F80161911D
:105860008F016623B1F70C94711F00EA12E060E526
:1058700080E995E041E00E945502D8016D918D01CB
:105880006623B1F7E091B705F091B80561816068D2
:1058900080E995E040E00E9455020E94FC30FC0146
:1058A0006081662369F08C010F5F1F4F80E995E0EE
:1058B00041E00E945502D8016D918D016623B1F738
:1058C00080919A0890919B088430910514F40C946F
:1058D000711FE091B705F091B8056381606880E9B8
:1058E00095E040E00E9455028091980890919908B7
:1058F000813191050CF08CC007E312E063E580E98B
:1059000095E041E00E945502D8016D918D0166231A
:10591000B1F70C94711F84E590E0A0E0B0E08EA395
:105920009FA3A8A7B9A782E090E09CA38BA3C50181
:10593000BE016F5F7F4F0E9488470C94711F80915A
:1059400023089091240890932A0880932908C8C8B6
:1059500081E090E0A0E0B0E08DA79EA7AFA7B8AB34
:1059600082E090E09BA78AA760915F057091600537
:10597000809161059091620520914F083091500807
:1059800040915108509152080E9444BEDC01CB0165
:105990008A879B87AC87BD8781E090E098878F835B
:1059A0000C94AE2405E212E063E580E995E041E065
:1059B0000E945502D8016D918D016623B1F70C94B8
:1059C000711F05E212E063E580E995E041E00E9485
:1059D0005502F80161918F016623B1F70C94711F94
:1059E0000E94FF3010C9C1016AE872E00E94AB0159
:1059F0000C94DC1D80E995E064E272E00E94ED0108
:105A00000C94711F67E070E0681B790B0C947B208D
:105A100005E212E063E580E995E041E00E9455026D
:105A2000F80161918F016623B1F70C94711F05E2B3
:105A300012E063E580E995E041E00E945502F8013B
:105A400061918F016623B1F70C94711F0F9380E36E
:105A500099EA61E07AEA4AE15BEA27E03CEA00E0A1
:105A60000E94CDA79C0190934A0580934905009719
:105A700049F081E02115310511F00F91089580E082
:105A80000F91089580E399EA61E07AEA4AE15BEADE
:105A900027E03CEA0FEF0E94CDA79C0190934A05B6
:105AA00080934905E6CF8091490590914A050E946F
:105AB000669D9C01909348058093470581E02115E0
:105AC000310509F0089580E00895CF93DF93CDB7B5
:105AD000DEB7AB970FB6F894DEBF0FBECDBF809197
