:100000000C94A3010C94CF010C94CF010C94CF015C
:100010000C94CF010C94CF010C94CF010C94CF0120
:100020000C94CF010C94CF010C94CF010C94CF0110
:100030000C94CF010C94CF010C94CF010C94CF0100
:100040000C94CF010C941C8F0C94CF010C94CF0115
:100050000C94CF010C94CF010C94CF010C943A472F
:100060000C94CF010C94A1440C9411450C94CF0135
:100070000C94CF010C9439C10C94CF010C94CF0196
:100080000C94CF010C94CF010C94CF010C94CF01B0
:100090000C94CF010C94CF010C94CF010C94CF01A0
:1000A0000C94CF010C94CF010C94CF010C94CF0190
:1000B0000C94CF010C94CF010C94CF010C94CF0180
:1000C0000C94CF010C94CF010C94CF010C94FD44FF
:1000D0000C9407450C94CF010C94CF010C94CF01E4
:1000E0000C94CF0100010405050303040506040573
:1000F00006070100010003020100000102030405DC
:1001000006070706050403020100070201000706AF
:1001100005040302010003020100000102030405BB
:10012000060700010203040506072C002C002C0022
:100130002C0032002C00000100010001000123000E
:100140002300230023000301030100010001290013
:100150002900290029002000200020002000200084
:100160002000200020002600260026002600260071
:100170002600260026002900320032003200090144
:100180000901090109010901090109010901230006
:100190002300230023002F002F002F002F002F000B
:1001A0002F002F002F00060106010601060106019F
:1001B000060106010601010049033600FF006B003D
:1001C000D100A000B800D500A6000A0199003F01A7
:1001D0008E0074018400A9017C00DE01740013020A
:1001E0006C00480265007D025D00B2025600E70225
:1001F0004E001C03460051033D0086033200BB0342
:100200002200F0030300494E46494E4954594E41DD
:100210004ECDCCCC3D0AD7233C17B7D13877CC2B69
:10022000329595E6241FB14F0A000020410000C816
:100230004200401C4620BCBE4CCA1B0E5AAEC59D97
:100240007400407A10F35A00A0724E18090010A5ED
:10025000D4E80000E87648170000E40B54020000E0
:10026000CA9A3B000000E1F5050000809698000066
:100270000040420F000000A086010000001027008F
:10028000000000E803000000006400000000000A15
:1002900000000000000100000000002C76D888DC7F
:1002A000674F0823DFC1DFAE59E1B1B796E5E3E45C
:1002B00053C63AE651997696E8E6C28426EB898CD5
:1002C0009B62ED407C6FFCEFBC9C9F40F2BAA56F37
:1002D000A5F490055A2AF75C936B6CF9676DC11B06
:1002E000FCE0E40D47FEF520E6B500D0ED902E03CE
:1002F00000943577050080841E080000204E0A0017
:100300000000C80C333333330F986E12831141EF62
:100310008D2114893BE65516CFFEE6DB18D1844BC0
:10032000381BF77C1D901DA4BBE424203284725E30
:10033000228100C9F124ECA1E53D270071525D68DE
:10034000F0A27BA76AC111241FBECFEFD1E2DEBFAE
:10035000CDBF00E00CBF15E0A0E0B2E0E4E3F1EBBC
:1003600001E00BBF02C007900D92AE30B107D9F784
:1003700015E1AEE0B5E001C01D92AA37B107E1F783
:1003800013E0C6E4D3E004C02297FE010E945FD2CE
:10039000CC33D107C9F70E94C53E0C9498D80C9471
:1003A0000000CF92DF92EF92FF920F931F93CF93B3
:1003B000DF93EC018B0140E0DC01A855BE4F94EACD
:1003C000E92E91E0F92EEC0EFD1E82EAC82E81E0A6
:1003D000D82ECC0EDD1EBE0160567E4FF801E40F14
:1003E000F11D80814F5F882359F1ED91FC911197A8
:1003F00080838D919C911197019611969C938E9379
:10040000F701208131818217930749F18FB7F89462
:10041000FB01208131812F5F3F4F318320838FBFCC
:10042000888199810297A9F08091C10080628093B0
:10043000C100F801E40FF11D80814F5F8823A9F608
:10044000DF91CF911F910F91FF90EF90DF90CF90B0
:1004500008958091D10080628093D100BFCFF601D2
:100460008081918111969C938E93D0CFFC01A081C5
:10047000B18112964C91129782818F7021E030E009
:1004800002C0220F331F8A95E2F7822F662339F0CC
:10049000922F80958423982B12969C93089590E038
:1004A00080958423982B12969C930895CF93DF9385
:1004B000DC01742F8FB7F894AD014B575D4FFA01F3
:1004C000208131818FBFAD57BD4F8D919C91119788
:1004D000A358B2402817390708F03BC0ED01C357B5
:1004E000DD4FE881F9816083888199810196998344
:1004F0008883A757BD4F2D913C911197A958B240C1
:100500008217930799F12FB7F894FA0180819181AE
:100510000196918380832FBFED01C756DD4FE8819F
:10052000F9817193F983E883AB56BD4F8D919C910E
:100530001197A559B240E817F90771F02FB7F89451
:10054000FD01EF56FD4F808191810196918380835B
:100550002FBFDF91CF910895AD56BD4F8D919C91E6
:100560001197A359B24099838883E8CFA957BD4F0B
:100570008D919C911197A758B24099838883C3CFDE
:100580000F931F93CF93DF938B01C0917305D0918D
:100590007405CE010E9458A3BC01600F711F77FD46
:1005A00008C0CE010E9446A3DF91CF911F910F9109
:1005B000089560E070E0CE010E9446A3DF91CF91E4
:1005C0001F910F9108950F931F93CF93DF938B018A
:1005D000C0917305D0917405CE010E945CA3BC014B
:1005E000600F711F77FD08C0CE010E944AA3DF9102
:1005F000CF911F910F91089560E070E0CE010E94AD
:100600004AA3DF91CF911F910F910895AF92BF92AE
:10061000CF92DF92EF92FF920F931F93DF93CF93CE
:10062000CDB7DEB7C854D1400FB6F894DEBF0FBEC9
:10063000CDBF7C01162F67330CF086C162330CF4FA
:100640009CC1A0903B05B0903C05C5010E94B549F6
:10065000882309F0DFC1AE01495B5F4F86E4DA0110
:100660001D928A95E9F788E58B831A821982DA014F
:10067000FE01319687E001900D928150E1F789E506
:100680008A8719861886DA011796FE01389687E060
:1006900001900D928150E1F78AE5898B188A1F86B7
:1006A000DA011E96FE013F9687E001900D9281507F
:1006B000E1F785E4888F1F8A1E8ADA015596FE01CC
:1006C000769687E001900D928150E1F78DE48F8F4F
:1006D0001E8E1D8EDA015C96FE017D9687E00190EC
:1006E0000D928150E1F787E48EA31DA21CA2DA01CE
:1006F0009396FE01B49687E001900D928150E1F748
:1007000086E48DA71CA61BA6DA019A96FE01BB966D
:1007100087E001900D928150E1F780E58CAB1BAA38
:100720001AAADA01D196FE01F29687E001900D92A5
:100730008150E1F783E58BAF1AAE19AEDA01D89696
:10074000FE01F99687E001900D928150E1F784E572
:10075000FE01EE5BFF4F8083FE01E05CFF4F1182E4
:100760001082DA01DF9687E001900D928150E1F767
:100770002DE8C22ED12CCC0EDD1E96012A5F3F4FF4
:10078000BE0167527F4FD901FA0187E001900D92B7
:100790008150E1F7295F3F4F495F5F4F26173707C9
:1007A00091F7F60136969E0121513F4FAE0141501F
:1007B0005F4F80E090E011821082138214821582D4
:1007C00016828430910544F4D9011D921D921D9228
:1007D0001C921397DA011C92019637962C5F3F4FBB
:1007E0004F5F5F4F8930910531F7F601118210821A
:1007F000FE01EF51FF4F11821082FE01ED51FF4FBC
:1008000011821082DB011D921D921D921C92139782
:100810008FEF9FEFAFEFBFEFF60182839383A48347
:10082000B58380E090E0A0E0B0E0FE01EB51FF4F27
:1008300080839183A283B383FE01E551FF4F108231
:10084000118212821382FE01ED5FFE4F118210822F
:10085000FE01EB5FFE4F1082118212821382FE01B5
:10086000E75FFE4F1082118212821382FE01E35F66
:10087000FE4F1082118212821382FE01EF5EFE4F44
:100880001082118212821382FE01EB5EFE4F1082F3
:10089000118212821382FE01E75EFE4F10821182E6
:1008A00012821382FE01E35EFE4F108211821282D9
:1008B0001382FE01EF5DFE4F1082118212821382BD
:1008C000FE01EB5DFE4F10821182128213821533FE
:1008D00009F405C116330CF0CFC0133309F490C1ED
:1008E00014330CF063C1123349F581E090E0A0E0CD
:1008F000B0E0F60184A795A7A6A7B7A782E090E08D
:1009000092A781A784EC92E0E80EF91E609143055E
:10091000709144058091450590914605D7012D9130
:100920003D914D915C910E94DFCFF601608B718B00
:10093000828B938B81E090E096878587C501B60115
:100940000E94824881E007C0673309F441C06A33DE
:100950000CF477CE80E0C85BDE4F0FB6F894DEBFB4
:100960000FBECDBFCF91DF911F910F91FF90EF9000
:10097000DF90CF90BF90AF9008956A3209F44CC0D9
:10098000613309F45DC0633229F78C0108531D4FB0
:10099000D801ED91FC9111973496ED93FC93349727
:1009A000648175818681978120E030E040E050E0ED
:1009B0000E9444D0882371F5EAECF2E0EE0EFF1EAF
:1009C000D7018D919C91F8019183808381E0C3CF01
:1009D0008C010C531D4F88EC92E0E80EF91ED701F4
:1009E000ED91FC91D8016D917D918D919C9120812B
:1009F0003181428153810E94DFCFF801608371838E
:100A00008283938320E030E040E050E00E9444D0B5
:100A100088235CF081E09FCFFC01E453FD4F80818F
:100A200091E08927808381E096CF80E090E0A0E08C
:100A3000B0E0F80180839183A283B38381E08BCF00
:100A40008C010C531D4F88EC92E0E80EF91ED70183
:100A5000ED91FC91D8016D917D918D919C912081BA
:100A60003181428153810E94E0CFF801608371831C
:100A70008283938381E06FCF183309F46DC01933FB
:100A800009F440C0163309F059CF81E090E0A0E0AE
:100A9000B0E0F60184A795A7A6A7B7A782E090E0EB
:100AA00092A781A784EC92E0E80EF91E60913F05C1
:100AB000709140058091410590914205D7012D919B
:100AC0003D914D915C910E94E0CFF6016187728764
:100AD0008387948781E090E0978386832FCF84E596
:100AE00090E0A0E0B0E0F60185A396A3A7A3B0A78D
:100AF00082E090E093A382A3C501B6010E948248E0
:100B000081E029CF81E090E0A0E0B0E0F60184A789
:100B100095A7A6A7B7A782E090E092A781A784EC4B
:100B200092E0E80EF91E60914705709148058091AA
:100B3000490590914A05D7012D913D914D915C91C8
:100B40000E94DFCFF601678B708F818F928F81E0DB
:100B500090E0958B848BF2CE81E090E0A0E0B0E055
:100B6000F60184A795A7A6A7B7A782E090E092A771
:100B700081A784EC92E0E80EF91E60914305709124
:100B800044058091450590914605D7012D913D91F1
:100B90004D915C910E94E0CFF601608B718B828B4E
:100BA000938B81E090E096878587C8CE81E090E0C6
:100BB000A0E0B0E0F60184A795A7A6A7B7A782E0BA
:100BC00090E092A781A784EC92E0E80EF91E609174
:100BD0003F05709140058091410590914205D701F4
:100BE0002D913D914D915C910E94DFCFF60161877F
:100BF00072878387948781E090E0978386839ECE77
:100C000081E090E0A0E0B0E0F60184A795A7A6A758
:100C1000B7A782E090E092A781A784EC92E0E80E6B
:100C2000F91E6091470570914805809149059091A2
:100C30004A05D7012D913D914D915C910E94E0CFE5
:100C4000F601678B708F818F928F81E090E0958B9A
:100C5000848B74CECF92DF92EF92FF920F931F930B
:100C6000CF93DF93BC01DC019A968C91882359F0D5
:100C700090E0892FDF91CF911F910F91FF90EF901E
:100C8000DF90CF900895DB01ED91FC9111974281A7
:100C900012968C9112978F7021E030E0690102C0AA
:100CA000CC0CDD1C8A95E2F7C601809584238283F3
:100CB0001396ED91FC911497928115968C918F70FB
:100CC00002C0220F331F8A95E2F7822F8095892375
:100CD000822B8283EB0144E050E0E1E0EE2EF12C28
:100CE000AD89BE8911962C911197FA01EE0FFF1F65
:100CF000E40FF51FE60FF71F83858F7001E010E00A
:100D0000670102C0CC0CDD1C8A95E2F7C601809514
:100D1000822311968C93AD89BE8912962C911297DD
:100D200083858F70F70102C0EE0FFF1F8A95E2F7EF
:100D3000CF018095822312968C934F5F5F4F23964D
:100D40004830510569F6DB011696ED91FC91179735
:100D5000328118968C9118978F70680102C0CC0C64
:100D6000DD1C8A95E2F72C2D209523232C29228344
:100D700090962C9190972F705E96ED91FC915F97D5
:100D800030811696ED91FC911797928118968C916F
:100D90008F7002C0000F111F8A95E2F7802F809597
:100DA0008923828380910E05882341F09091D0049D
:100DB00010920E0581E08093D0045BCF832F90E0EA
:100DC00002C0959587952A95E2F78170907080937F
:100DD000D00481E080930E0591E04BCFCF93DF9359
:100DE000DC018FB7F894AD014B575D4FFA012081BC
:100DF00031818FBFAD57BD4F8D919C911197A358F5
:100E0000B2402817390708F03CC0ED01C357DD4F49
:100E1000E881F98181E080838881998101969983B5
:100E20008883A757BD4F2D913C911197A958B24087
:100E30008217930799F12FB7F894FA018081918175
:100E40000196918380832FBFED01C756DD4FE88166
:100E5000F9811192F983E883AB56BD4F8D919C9136
:100E60001197A559B240E817F90771F02FB7F89418
:100E7000FD01EF56FD4F8081918101969183808322
:100E80002FBFDF91CF910895AD56BD4F8D919C91AD
:100E90001197A359B24099838883E8CFA957BD4FD2
:100EA0008D919C911197A758B24099838883C3CFA5
:100EB0002F923F924F925F926F927F928F929F926A
:100EC000AF92BF92CF92DF92EF92FF920F931F9358
:100ED000CF93DF93FB014081442309F474C0DB010D
:100EE00005E8202E02E0302E280E391E13E8C12E10
:100EF00012E0D12EC80ED91EBC0163577D4FF9E810
:100F00008F2EF2E09F2E880E991E8C0107561D4FE2
:100F100051E0E5E9AE2EE2E0BE2EA80EB91E31E9A1
:100F2000E32E32E0F32EE80EF91E23E9622E22E0D2
:100F3000722E680E791EF7E84F2EF2E05F2E480EF3
:100F4000591E8FB7F894E101288139818FBFF601CE
:100F5000808191812817390778F5EB018881998183
:100F6000FC01408388819981019699838883E401FB
:100F7000288139818217930709F43FC02FB7F8946D
:100F8000F101808191810196918380832FBFE801D7
:100F9000E881F9815193F983E883E501888199819A
:100FA000E817F90719F12FB7F894F70180819181BB
:100FB0000196918380832FBF11964C9111971196C2
:100FC000442309F0BECFDF91CF911F910F91FF9085
:100FD000EF90DF90CF90BF90AF909F908F907F90D9
:100FE0006F905F904F903F902F900895F301808114
:100FF0009181E80199838883D6CFF2018081918124
:10100000EB0199838883BACF2F923F924F925F92E0
:101010006F927F928F929F92AF92BF92CF92DF9208
:10102000EF92FF920F931F93DF93CF93CDB7DEB76D
:10103000CA56D0400FB6F894DEBF0FBECDBF8C01AC
:10104000835F9C4F9EA38DA3DC018D919C91419762
:1010500014F40C94921175E0672E712C600E711EC1
:1010600061E0C62E62E0D62E48E4F801E657FD4F57
:10107000AB96FFAFEEAFAB9758E8852E52E0952EBA
:10108000800E911EB8016E567D4F3EE8232E32E051
:10109000332E200E311E2EE9E22E22E0F22EE00E3B
:1010A000F11E51E09AE9492E92E0592E400E511E50
:1010B00086E9A82E82E0B82EA00EB11EC80188567F
:1010C0009D4FA3969FAF8EAFA397D801A457BD4F56
:1010D000A596BFAFAEAFA5978FB7F894AB96EEAD20
:1010E000FFADAB97208131818FBFD4018D919C9151
:1010F00028173907C0F5FB0180819181DC014C93F1
:1011000080819181019691838083F10120813181D9
:101110008217930711F40C945B132FB7F894AB96D6
:10112000AEADBFADAB978D919C9111970196119685
:101130009C938E932FBFD701ED91FC911197519302
:10114000ED93FC93D2018D919C91E817F90711F46E
:101150000C9450132FB7F894F5018081918101967A
:10116000918380832FBFD6014D916D01442309F0F7
:10117000B3CFE0917305F0917405F8A7EFA3CF0109
:101180000E944EA39C01F4E080309F0711F40C9460
:10119000D214CE0101969AA389A380E2A9A1BAA193
:1011A0001D928A95E9F7B901882777FD8095982FD8
:1011B00049A15AA12AE030E00E9427D44981442362
:1011C00011F40C94081782E0C82ED12CCC0EDD1E31
:1011D000B5E8EB2EB2E0FB2EE60CF71CA3E8AA2E36
:1011E000A2E0BA2EA60CB71CF301E357FD4FAB9655
:1011F000FFAFEEAFAB97F9E82F2EF2E03F2E260CB3
:10120000371CB30167567D4F51E0E5E94E2EE2E011
:101210005E2E460C571C31E9832E32E0932E860C4D
:10122000971CC3018D569D4F6F969FAF8EAF6F97E2
:10123000D301A957BD4FA196BFAFAEAFA1978FB74E
:10124000F894F701208131818FBFD5018D919C9158
:101250002817390708F039C0AB96AEADBFADAB97D4
:10126000ED91FC91119740838D919C91119701967E
:101270008D939C93F101208131818217930711F4A2
:101280000C9484112FB7F894D7018D919C911197EC
:10129000019611969C938E932FBFDB01ED91FC91EB
:1012A00011975193ED93FC93D2018D919C91E81786
:1012B000F90711F40C9479112FB7F894F401808197
:1012C00091810196918380832FBFD6014D916D014D
:1012D000442309F0B4CFEDA1FEA180819181419713
:1012E00014F00C94201246E050E0D8019C96ED9149
:1012F000FC919D9760818FB7F8942AE8422E22E0F6
:10130000522E400E511EF201208131818FBFC80143
:1013100088579D4F9CA38BA3DC018D919C9128172E
:10132000390708F04AC0D801AE56BD4FED91FC9187
:101330001197460F511D842F806880838D919C9159
:101340001197019611969C938E9302571D4FF801A9
:10135000208131810E5812408217930711F40C94AA
:1013600022172FB7F894D2018D919C911197019675
:1013700011969C938E932FBF980122563D4FD90111
:10138000ED91FC9111971192ED93FC9306561D4F30
:10139000D8018D919C910A591240E817F90711F470
:1013A0000C9416172FB7F894F801EA56FD4F808178
:1013B00091810196918380832FBF96E1C92E92E09F
:1013C000D92E4FE2F301E357FD4FAB96FFAFEEAFDF
:1013D000AB97C30187579D4F69969FAF8EAF6997B3
:1013E000B30167567D4F51E085E9282E82E0382E03
:1013F000260C371CB1E98B2EB2E09B2E860C971C75
:10140000D301AD56BD4F6B96BFAFAEAF6B97F30137
:10141000E957FD4F6D96FFAFEEAF6D978FB7F8941C
:10142000D7012D913C918FBFF501808191812817C3
:10143000390708F03CC0AB96AEADBFADAB97ED91B0
:10144000FC91119740838D919C91119701968D93FA
:101450009C936996EEADFFAD69972081318182172B
:10146000930711F40C9455122FB7F894D7018D916E
:101470009C911197019611969C938E932FBFDB013F
:10148000ED91FC9111975193ED93FC93D1018D91C6
:101490009C91E817F90711F40C944A122FB7F894AD
:1014A000F401808191810196918380832FBFD601C1
:1014B0004D916D01442309F0B1CF8FA198A50E94F1
:1014C00058A320E2E9A1FAA111922A95E9F7A0E038
:1014D000B0E0BC01CD0149A15AA12AE030E00E9450
:1014E00027D44981442309F480C0A2E0CA2ED12C1C
:1014F000CC0EDD1EC30183579D4FAB969FAF8EAFC1
:10150000AB97D301A757BD4F6396BFAFAEAF6397FD
:10151000B30167567D4F51E0F5E92F2EF2E03F2EE3
:10152000260C371CE1E98E2EE2E09E2E860C971CDD
:10153000F301ED56FD4F6596FFAFEEAF6597C30122
:1015400089579D4F67969FAF8EAF67978FB7F89477
:10155000D7012D913C918FBFF50180819181281792
:10156000390708F03CC0AB96AEADBFADAB97ED917F
:10157000FC91119740838D919C91119701968D93C9
:101580009C936396EEADFFAD639720813181821706
:10159000930711F40C9483122FB7F894D7018D910F
:1015A0009C911197019611969C938E932FBFDB010E
:1015B000ED91FC9111975193ED93FC93D1018D9195
:1015C0009C91E817F90711F40C9478122FB7F8944E
:1015D000F401808191810196918380832FBFD60190
:1015E0004D916D01442309F0B1CFD8019C96ED9146
:1015F000FC919D9741818FB7F894F2012081318150
:101600008FBFABA1BCA18D919C912817390708F021
:1016100047C0D801AE56BD4FED91FC91119740687F
:1016200040838D919C911197019611969C938E9376
:1016300002571D4FF801208131810E581240821748
:10164000930711F40C94FD162FB7F894D2018D91E5
:101650009C911197019611969C938E932FBF9801A0
:1016600022563D4FD901ED91FC9111971192ED93C6
:10167000FC9306561D4FD8018D919C910A5912403A
:10168000E817F90711F40C94F1162FB7F894F80144
:10169000EA56FD4F808191810196918380832FBF0F
:1016A000EDA1FEA18081918141970CF43AC769E1D7
:1016B000C62E62E0D62E42E455E8E52E52E0F52E25
:1016C000E60CF71C33E8832E32E0932E860C971C31
:1016D000C30183579D4FAB969FAF8EAFAB97D3019E
:1016E000A757BD4F2396BFAFAEAF2397B301675641
:1016F0007D4F51E025E9222E22E0322E260C371CA8
:1017000091E9A92E92E0B92EA60CB71CF301ED5673
:10171000FD4F2596FFAFEEAF2597C30189579D4F2B
:1017200027969FAF8EAF27978FB7F894D7012D914B
:101730003C918FBFF401808191812817390708F00F
:101740003BC0AB96AEADBFADAB97ED91FC911197A1
:1017500040838D919C91119701968D939C93239634
:10176000EEADFFAD2397208131818217930711F4ED
:101770000C942B132FB7F894D7018D919C9111974E
:10178000019611969C938E932FBFDB01ED91FC91F6
:1017900011975193ED93FC93D1018D919C91E81792
:1017A000F90709F44EC72FB7F894F50180819181AC
:1017B0000196918380832FBFD6014D916D01442303
:1017C00009F0B2CF8FA198A50E9453A39C01B4E069
:1017D00080309B0711F40C945C14FE013196FAA33F
:1017E000E9A380E211928A95E9F7B901882777FD8C
:1017F0008095982F49A15AA12AE030E00E9427D471
:101800004981442309F477C082E0C82ED12CCC0E44
:10181000DD1EC30183579D4FAB969FAF8EAFAB9735
:10182000D301A757BD4FBCAFABAFB30167567D4FD8
:1018300051E0B5E92B2EB2E03B2E260C371CA1E976
:10184000AA2EA2E0BA2EA60CB71CF301ED56FD4F4E
:10185000FEAFEDAFC30189579D4F21969FAF8EAF6D
:1018600021978FB7F894D7012D913C918FBFF40148
:101870008081918128173907C0F5AB96AEADBFAD19
:10188000AB97ED91FC91119740838D919C911197AD
:1018900001968D939C93EBADFCAD20813181821735
:1018A000930709F418C62FB7F894D7018D919C912E
:1018B0001197019611969C938E932FBFDB01ED91AA
:1018C000FC9111975193ED93FC93D1018D919C91D3
:1018D000E817F90709F4F7C52FB7F894F5018081E7
:1018E00091810196918380832FBFD6014D916D0127
:1018F000442309F0B6CFEDA1FEA1808191814197EB
:1019000014F00C94581446E050E0D8019C96ED91E8
:10191000FC919D9761818FB7F894F201208131810C
:101920008FBFABA1BCA18D919C912817390708F0FE
:101930004AC0D801AE56BD4FED91FC911197460FAC
:10194000511D842F806880838D919C911197019601
:1019500011969C938E9302571D4FF801208131817F
:101960000E5812408217930711F40C9439172FB7B1
:10197000F894D2018D919C911197019611969C93A8
:101980008E932FBF980122563D4FD901ED91FC91C6
:1019900011971192ED93FC9306561D4FD8018D912E
:1019A0009C910A591240E817F90711F40C942D176D
:1019B0002FB7F894F801EA56FD4F80819181019686
:1019C000918380832FBFF6E1CF2EF2E0DF2E4FE22E
:1019D000F301E357FD4FAB96FFAFEEAFAB97C301FB
:1019E00087579D4F9EAB8DABB30167567D4F51E03E
:1019F000E5E92E2EE2E03E2E260C371C31E9A32E1F
:101A000032E0B32EA60CB71CD301AD56BD4FB8AF14
:101A1000AFABF301E957FD4FFAAFE9AF8FB7F894D9
:101A2000D7012D913C918FBFF401808191812817BE
:101A30003907C0F5AB96AEADBFADAB97ED91FC915C
:101A4000119740838D919C91119701968D939C9352
:101A5000EDA9FEA9208131818217930709F4FCC406
:101A60002FB7F894D7018D919C91119701961196FB
:101A70009C938E932FBFDB01ED91FC9111975193B5
:101A8000ED93FC93D1018D919C91E817F90709F42E
:101A9000DBC42FB7F894F501808191810196918381
:101AA00080832FBFD6014D916D01442309F0B6CF3D
:101AB0008FA198A50E945CA320E2E9A1FAA111924E
:101AC0002A95E9F7A0E0B0E0BC01CD0149A15AA1F7
:101AD0002AE030E00E9427D44981442309F475C0EC
:101AE00022E0C22ED12CCC0EDD1EC30183579D4FA8
:101AF000AB969FAF8EAFAB97D301A757BD4FB8AB97
:101B0000AFA7B30167567D4F51E095E9292E92E0CA
:101B1000392E260C371C81E9A82E82E0B82EA60C9F
:101B2000B71CF301ED56FD4FFAABE9ABC301895782
:101B30009D4F9CAB8BAB8FB7F894D7012D913C9107
:101B40008FBFF4018081918128173907C0F5AB96CA
:101B5000AEADBFADAB97ED91FC91119740838D91E8
:101B60009C91119701968D939C93EFA5F8A92081E4
:101B700031818217930709F482C42FB7F894D701F3
:101B80008D919C911197019611969C938E932FBFE6
:101B9000DB01ED91FC9111975193ED93FC93D101F1
:101BA0008D919C91E817F90709F461C42FB7F89457
:101BB000F501808191810196918380832FBFD601A9
:101BC0004D916D01442309F0B6CFEDA1FEA18081B6
:101BD000918141970CF02FC54CE050E0D8019C96C4
:101BE000ED91FC919D9760818FB7F894F20120816F
:101BF00031818FBFABA1BCA18D919C912817390772
:101C000008F04AC0D801AE56BD4FED91FC91119736
:101C1000460F511D842F806880838D919C91119770
:101C2000019611969C938E9302571D4FF8012081C7
:101C300031810E5812408217930711F40C94E61666
:101C40002FB7F894D2018D919C911197019611961E
:101C50009C938E932FBF980122563D4FD901ED9151
:101C6000FC9111971192ED93FC9306561D4FD801EC
:101C70008D919C910A591240E817F90711F40C94C0
:101C8000DA162FB7F894F801EA56FD4F808191815A
:101C90000196918380832FBF8FB7F894F201208142
:101CA00031818FBFABA1BCA18D919C9128173907C1
:101CB00008F047C0D801AE56BD4FED91FC91119789
:101CC00010828D919C911197019611969C938E9301
:101CD00002571D4FF801208131810E5812408217A2
:101CE000930711F40C94CF162FB7F894D2018D916D
:101CF0009C911197019611969C938E932FBF9801FA
:101D000022563D4FD901ED91FC91119781E08193CD
:101D1000ED93FC9306561D4FD8018D919C910A5965
:101D20001240E817F90711F40C94C3162FB7F89472
:101D3000F801EA56FD4F808191810196918380835D
:101D40002FBF8FB7F894F201208131818FBFABA1F3
:101D5000BCA18D919C912817390708F048C0D80183
:101D6000AE56BD4FED91FC91119782E080838D912D
:101D70009C911197019611969C938E9302571D4F3B
:101D8000F801208131810E5812408217930711F417
:101D90000C94B8162FB7F894D2018D919C9111979D
:101DA000019611969C938E932FBF980122563D4F1A
:101DB000D901ED91FC91119781E08193ED93FC9312
:101DC00006561D4FD8018D919C910A591240E81773
:101DD000F90711F40C94AC162FB7F894F801EA56F1
:101DE000FD4F808191810196918380832FBF8FB7B2
:101DF000F894F201208131818FBFABA1BCA18D91FC
:101E00009C912817390708F047C0D801AE56BD4F3E
:101E1000ED91FC91119784E080838D919C911197B5
:101E2000019611969C938E9302571D4FF8012081C5
:101E300031810E5812408217930711F40C94A116A9
:101E40002FB7F894D2018D919C911197019611961C
:101E50009C938E932FBF980122563D4FD901ED914F
:101E6000FC91119781E08193ED93FC9306561D4FF1
:101E7000D8018D919C910A591240E817F90709F48D
:101E800055C72FB7F894F801EA56FD4F808191812C
:101E90000196918380832FBF8FB7F894F201208140
:101EA00031818FBFABA1BCA18D919C9128173907BF
:101EB00008F046C0D801AE56BD4FED91FC91119788
:101EC00086E080838D919C911197019611969C9349
:101ED0008E9302571D4FF801208131810E58124018
:101EE0008217930709F418C72FB7F894D2018D9180
:101EF0009C911197019611969C938E932FBF9801F8
:101F000022563D4FD901ED91FC91119781E08193CB
:101F1000ED93FC9306561D4FD8018D919C910A5963
:101F20001240E817F90709F4ECC62FB7F894F80146
:101F3000EA56FD4F808191810196918380832FBF66
:101F4000EDA1FEA18081918141970CF077C34CE017
:101F500050E0D8019C96ED91FC919D9761818FB7DF
:101F6000F894F201208131818FBFABA1BCA18D918A
:101F70009C912817390708F048C0D801AE56BD4FCC
:101F8000ED91FC911197460F511D842F806880833D
:101F90008D919C911197019611969C938E93025767
:101FA0001D4FF801208131810E581240821793078E
:101FB00009F49DC62FB7F894D2018D919C91119789
:101FC000019611969C938E932FBF980122563D4FF8
:101FD000D901ED91FC9111971192ED93FC93065666
:101FE0001D4FD8018D919C910A591240E817F907AD
:101FF00009F472C62FB7F894F801EA56FD4F8081B4
:1020000091810196918380832FBF8FB7F894F2015D
:10201000208131818FBFABA1BCA18D919C912817EC
:10202000390708F046C0D801AE56BD4FED91FC917E
:10203000119781E080838D919C9111970196119663
:102040009C938E9302571D4FF801208131810E58C9
:1020500012408217930709F435C62FB7F894D201BE
:102060008D919C911197019611969C938E932FBF01
:10207000980122563D4FD901ED91FC91119781E0D5
:102080008193ED93FC9306561D4FD8018D919C9141
:102090000A591240E817F90709F409C62FB7F8944E
:1020A000F801EA56FD4F80819181019691838083EA
:1020B0002FBF8FB7F894F201208131818FBFABA180
:1020C000BCA18D919C912817390708F046C0D80112
:1020D000AE56BD4FED91FC91119783E080838D91B9
:1020E0009C911197019611969C938E9302571D4FC8
:1020F000F801208131810E5812408217930709F4AC
:10210000CCC52FB7F894D2018D919C91119701966F
:1021100011969C938E932FBF980122563D4FD90163
:10212000ED91FC91119781E08193ED93FC9306561C
:102130001D4FD8018D919C910A591240E817F9075B
:1021400009F4A0C52FB7F894F801EA56FD4F808135
:1021500091810196918380832FBF8FB7F894F2010C
:10216000208131818FBFABA1BCA18D919C9128179B
:10217000390708F046C0D801AE56BD4FED91FC912D
:10218000119785E080838D919C911197019611960E
:102190009C938E9302571D4FF801208131810E5878
:1021A00012408217930709F463C52FB7F894D20140
:1021B0008D919C911197019611969C938E932FBFB0
:1021C000980122563D4FD901ED91FC91119781E084
:1021D0008193ED93FC9306561D4FD8018D919C91F0
:1021E0000A591240E817F90709F437C52FB7F894D0
:1021F000F801EA56FD4F8081918101969183808399
:102200002FBF8FB7F894F201208131818FBFABA12E
:10221000BCA18D919C912817390708F046C0D801C0
:10222000AE56BD4FED91FC91119787E080838D9163
:102230009C911197019611969C938E9302571D4F76
:10224000F801208131810E5812408217930709F45A
:10225000FAC42FB7F894D2018D919C9111970196F1
:1022600011969C938E932FBF980122563D4FD90112
:10227000ED91FC91119781E08193ED93FC930656CB
:102280001D4FD8018D919C910A591240E817F9070A
:1022900009F4CEC42FB7F894F801EA56FD4F8081B7
:1022A00091810196918380832FBF015F1C4FF801BC
:1022B000808191810F50134004970CF01BC2C659C6
:1022C000DF4F0FB6F894DEBF0FBECDBFCF91DF91C9
:1022D0001F910F91FF90EF90DF90CF90BF90AF9044
:1022E0009F908F907F906F905F904F903F902F9036
:1022F00008956F96EEADFFAD6F9780819181DB0100
:102300008D939C930C945C09A196AEADBFADA19743
:102310008D919C91AB96EEADFFADAB979183808391
:102320000C944209B5E06B2E712C600E711EAAE070
:10233000CA2EA2E0DA2E48E4F801E657FD4FAB962C
:10234000FFAFEEAFAB97F8E88F2EF2E09F2E800E36
:10235000911EB8016E567D4FEEE82E2EE2E03E2E25
:10236000200E311E5EE9E52E52E0F52EE00EF11E44
:1023700051E03AE9432E32E0532E400E511E26E939
:10238000A22E22E0B22EA00EB11EC80188569D4F8B
:10239000A7969FAF8EAFA797D801A457BD4FA99618
:1023A000BFAFAEAFA9978FB7F894AB96EEADFFADC8
:1023B000AB97208131818FBFD4018D919C912817DB
:1023C0003907B0F5FB0180819181DC014C9380815C
:1023D0009181019691838083F1012081318182175F
:1023E000930709F47DC12FB7F894AB96AEADBFAD9E
:1023F000AB978D919C911197019611969C938E931A
:102400002FBFD701ED91FC9111975193ED93FC9360
:10241000D2018D919C91E817F90709F457C12FB7A4
:10242000F894F501808191810196918380832FBF7B
:10243000D6014D916D01442309F0B5CF0C94B90834
:102440004BE050E00C947509EFA9F8AD80819181C3
:10245000DB018D939C931DCBA9ADBAAD8D919C9161
:10246000AB96EEADFFADAB9791838083F9CAE9A936
:10247000FAA980819181DB018D939C9397CBABA9C5
:10248000BCA98D919C91AB96EEADFFADAB979183BE
:10249000808373CB6B96EEADFFAD6B97808191819E
:1024A000DB018D939C930C944E0A6D96AEADBFAD3F
:1024B0006D978D919C91AB96EEADFFADAB979183EF
:1024C00080830C94340AEDADFEAD80819181DB01F7
:1024D0008D939C9301CA2196AEADBFAD21978D918E
:1024E0009C91AB96EEADFFADAB9791838083DBC93A
:1024F0006596EEADFFAD659780819181DB018D938F
:102500009C930C94E60A6796AEADBFAD67978D912C
:102510009C91AB96EEADFFADAB97918380830C940D
:10252000CC0A82E2C82E82E0D82E42E4B5E8EB2E37
:10253000B2E0FB2EE60CF71CA3E88A2EA2E09A2E4E
:10254000860C971CF301E357FD4FAB96FFAFEEAF40
:10255000AB97C30187579D4F29969FAF8EAF2997A1
:10256000B30167567D4F51E0F5E92F2EF2E03F2E83
:10257000260C371CE1E9AE2EE2E0BE2EA60CB71CFD
:10258000D301AD56BD4F2B96BFAFAEAF2B97F30126
:10259000E957FD4F2D96FFAFEEAF2D978FB7F8940B
:1025A000D7012D913C918FBFF40180819181281733
:1025B000390708F039C0AB96AEADBFADAB97ED9122
:1025C000FC91119740838D919C91119701968D9369
:1025D0009C932996EEADFFAD29972081318182171A
:1025E000930709F450C02FB7F894D7018D919C91AF
:1025F0001197019611969C938E932FBFDB01ED915D
:10260000FC9111975193ED93FC93D1018D919C9185
:10261000E817F90771F12FB7F894F50180819181DE
:102620000196918380832FBFD6014D916D01442384
:1026300009F0B4CFC7C840E150E0D0CA40E150E053
:1026400088CC2596EEADFFAD259780819181DB0189
:102650008D939C93A8C82796AEADBFAD27978D915B
:102660009C91AB96EEADFFADAB97918380830C94BC
:10267000BA0B2B96EEADFFAD2B9780819181DB01DC
:102680008D939C93C8CF2D96AEADBFAD2D978D91F8
:102690009C91AB96EEADFFADAB9791838083A3CFBA
:1026A000A396EEADFFADA39780819181D7018D9365
:1026B0009C930C94AA08A596AEADBFADA5978D913D
:1026C0009C91FB01918380830C948D08A796EEADBD
:1026D000FFADA79780819181D7018D939C939FCE69
:1026E000A996AEADBFADA9978D919C91FB01918349
:1026F000808379CED8019C96ED91FC919D97438182
:102700008FB7F894F201208131818FBFABA1BCA1BA
:102710008D919C912817390708F045C0D801AE5615
:10272000BD4FED91FC911197406840838D919C9134
:102730001197019611969C938E9302571D4FF801A5
:10274000208131810E5812408217930709F49CC3EF
:102750002FB7F894D2018D919C9111970196119603
:102760009C938E932FBF980122563D4FD901ED9136
:10277000FC9111971192ED93FC9306561D4FD801D1
:102780008D919C910A591240E817F90709F486C304
:102790002FB7F894F801EA56FD4F80819181019698
:1027A000918380832FBFEDA1FEA18081918141970C
:1027B0000CF0B2C107E312E043E5F301E357FD4F2C
:1027C000AB96FFAFEEAFAB9739E8A32E32E0B32E56
:1027D000A60CB71CB30167567D4F51E025E9422E88
:1027E00022E0522E460C571C91E9C92E92E0D92EB8
:1027F000C60CD71C83E9282E82E0382E260C371C05
:1028000087E892E0680E791E28C02FB7F894D701A8
:102810008D919C911197019611969C938E932FBF49
:10282000DB01ED91FC9111975193ED93FC93D20153
:102830008D919C91E817F90709F4ECC12FB7F89432
:10284000F601808191810196918380832FBFD80109
:102850004D918D01442309F432CD8FB7F894D701FF
:102860002D913C918FBFF401808191812817390708
:1028700070F7AB96AEADBFADAB97ED91FC911197F4
:1028800040838D919C91119701968D939C93F501B6
:10289000208131818217930709F0B7CFD3018D9141
:1028A0009C91AB96EEADFFADAB9791838083ADCF9E
:1028B0004BE050E00C94850C3DE0C32E32E0D32E6B
:1028C0004DE4F301E357FD4FAB96FFAFEEAFAB978F
:1028D00029E8222E22E0322E260C371CB30167563F
:1028E0007D4F51E0C3018B569D4F9AA789A791E96F
:1028F000A92E92E0B92EA60CB71CD301AD56BD4F40
:10290000BCA7ABA7F301E957FD4FFEA7EDA78FB713
:10291000F894D7012D913C918FBFF4018081918172
:1029200028173907C0F5AB96AEADBFADAB97ED91AB
:10293000FC91119740838D919C91119701968D93F5
:102940009C93F101208131818217930709F4C5C05E
:102950002FB7F894D7018D919C91119701961196FC
:102960009C938E932FBFDB01ED91FC9111975193B6
:10297000ED93FC93A9A5BAA58D919C91E817F90751
:1029800009F4A3C02FB7F894F501808191810196D5
:10299000918380832FBFD6014D916D01442309F0AF
:1029A000B6CF13C99DE0C92E92E0D92E4DE4C301E4
:1029B0008B579D4FAB969FAF8EAFAB9783E8882E1A
:1029C00082E0982E860C971CB30163577D4FB9E8BF
:1029D0004B2EB2E05B2E460C571CA9E9EA2EA2E072
:1029E000FA2EE60CF71C51E0F5E92F2EF2E03F2E0F
:1029F000260C371CE1E9AE2EE2E0BE2EA60CB71C79
:102A0000D301AD56BD4F2F96BFAFAEAF2F97F30199
:102A1000E957FD4F6196FFAFEEAF61978FB7F8941E
:102A2000AB96AEADBFADAB972D913C918FBFF4018E
:102A30008081918128173907A8F5DB018D919C9140
:102A40001197FC0140838D919C91119701968D9374
:102A50009C93D2012D913C918217930709F452C0A7
:102A60002FB7F894AB96EEADFFADAB978081918117
:102A70000196918380832FBFD701ED91FC9111972F
:102A80005193ED93FC93D1018D919C91E817F90737
:102A900079F12FB7F894F5018081918101969183A6
:102AA00080832FBFD6014D916D01442309F0B6CF2D
:102AB0003AE8432E32E0532E400E511EF801E857FB
:102AC000FD4FFCA3EBA30C94F50AEBA5FCA58081BC
:102AD0009181DB018D939C9355CFADA5BEA58D91C2
:102AE0009C91AB96EEADFFADAB979183808330CFD9
:102AF0002F96EEADFFAD2F9780819181D7018D93F9
:102B00009C93C7CF6196EEADFFAD619780819181B7
:102B1000DB018D939C93A4CF05E212E043E5C30152
:102B200083579D4FAB969FAF8EAFAB97B9E8AB2E57
:102B3000B2E0BB2EA60CB71CB30167567D4F51E027
:102B4000A5E94A2EA2E05A2E460C571CF1E9CF2ED9
:102B5000F2E0DF2EC60CD71CE3E92E2EE2E03E2E7B
:102B6000260C371CA7E8B2E06A0E7B1E28C02FB7E0
:102B7000F894D7018D919C911197019611969C9391
:102B80008E932FBFDB01ED91FC9111975193ED9343
:102B9000FC93D2018D919C91E817F90709F441C08B
:102BA0002FB7F894F60180819181019691838083FB
:102BB0002FBFD8014D918D01442309F480CB8FB7ED
:102BC000F894F701208131818FBFD4018D919C91C0
:102BD0002817390770F7AB96AEADBFADAB97ED9147
:102BE000FC91119740838D919C91119701968D9343
:102BF0009C93F501208131818217930709F0B7CFAB
:102C0000D3018D919C91AB96EEADFFADAB979183C7
:102C10008083ADCFF10180819181DB018D939C9305
:102C20000DCEF10180819181DB018D939C93B8CF12
:102C300008561D4FF8018081918108591240D90131
:102C40008D939C9327CB04571D4FF8018081918170
:102C50000C5812408D939C93FCCA08561D4FF801E6
:102C60008081918108591240D9018D939C93BECAED
:102C700004571D4FF801808191810C5812408D93AB
:102C80009C9393CA08561D4FF80180819181085981
:102C90001240D9018D939C9355CA04571D4FF801DA
:102CA000808191810C5812408D939C932ACA0856BA
:102CB0001D4FF8018081918108591240D9018D93EF
:102CC0009C93ECC904571D4FF801808191810C58E9
:102CD00012408D939C93C1C908561D4FF801808105
:102CE000918108591240D9018D939C9383C904574F
:102CF0001D4FF801808191810C5812408D939C9357
:102D000059C908561D4FF801808191810859124018
:102D1000D9018D939C9309C904571D4FF8018081F7
:102D200091810C5812408D939C93DEC808561D4F1C
:102D3000F8018081918108591240D9018D939C93AB
:102D4000A0C804571D4FF801808191810C58124092
:102D50008D939C930C94200F08561D4FF801808191
:102D6000918108591240D9018D939C930C94EC0EDB
:102D700004571D4FF801808191810C5812408D93AA
:102D80009C930C94CA0E08561D4FF80180819181C6
:102D900008591240D9018D939C930C94960E0457B8
:102DA0001D4FF801808191810C5812408D939C93A6
:102DB0000C94740E08561D4FF801808191810859BA
:102DC0001240D9018D939C930C94410E04571D4FD2
:102DD000F801808191810C5812408D939C930C9442
:102DE000200E08561D4FF80180819181085912402C
:102DF000D9018D939C930C94450B04571D4FF801FA
:102E0000808191810C5812408D939C930C94240BDB
:102E100025E8E22E22E0F22EE60CF71C93E8A92E1C
:102E200092E0B92EA60CB71C0C946B0908561D4FE6
:102E3000F8018081918108591240D9018D939C93AA
:102E40000C94D20904571D4FF801808191810C58D0
:102E500012408D939C930C94B10908561D4FF801B4
:102E60008081918108591240D9018D939C930C94D3
:102E7000D80C04571D4FF801808191810C581240E5
:102E80008D939C930C94B70C04571D4FF8018081CF
:102E900091810C5812408D939C935ACC08561D4F2B
:102EA000F8018081918108591240D9018D939C933A
:102EB0006FCC2F923F924F925F926F927F928F9240
:102EC0009F92AF92BF92CF92DF92EF92FF920F93B9
:102ED0001F93DF93CF93CDB7DEB76E970FB6F894FD
:102EE000DEBF0FBECDBF7C0120EC32E0E20EF31E50
:102EF00081E090E0D7018D939C93E0E4FDEFEE0E2E
:102F0000FF1E05E0C02ED12CCE0CDF1C8FB7F8942D
:102F10001AE8212E12E0312E2E0C3F1CD1012D91EA
:102F20003C918FBFF701E857FD4FFC83EB83808115
:102F300091812817390708F04DC0D701AE56BD4F13
:102F4000ED91FC91119781E080838D919C91119777
:102F5000019611969C938E932EE832E0E20EF31EBA
:102F6000F7012081318142E75DEFE40EF51E821703
:102F7000930709F41EC62FB7F894D1018D919C9147
:102F80001197019611969C938E932FBFA7014256DD
:102F90005D4FDA01ED91FC9111971192ED93FC9345
:102FA0002AE932E0E20EF31ED7018D919C9126E6CC
:102FB0003DEFE20EF31EE817F90709F408C62FB734
:102FC000F894F701EA56FD4F808191810196918333
:102FD00080832FBF0E945B3F882309F0EFC10E94CE
:102FE000643FFC018081882309F47EC463E572E0BC
:102FF00043E586010B571D4FB3E88B2EB2E09B2EA5
:103000008C0C9D1CF601E357FD4FFE8FED8FA9E858
:103010004A2EA2E05A2E4C0C5D1C960127563D4FBD
:103020003C8F2B8F51E0F5E96F2EF2E07F2E6C0C78
:103030007D1CE1E9AE2EE2E0BE2EAC0CBD1CC6014B
:103040008D569D4F988F8F8BD601A957BD4FBA8F44
:10305000A98F8FB7F894F801208131818FBFD401F7
:103060008D919C9128173907B0F5AD8DBE8DED91EE
:10307000FC91119740838D919C91119701968D93AE
:103080009C93F201208131818217930709F400C4D7
:103090002FB7F894D8018D919C91119701961196B4
:1030A0009C938E932FBFAB8DBC8DED91FC911197AE
:1030B0005193ED93FC93D3018D919C91E817F907FF
:1030C00009F4DDC32FB7F894F50180819181019651
:1030D000918380832FBFDB014D91BD01442309F013
:1030E000B8CFD7019C96ED91FC919D9741818FB708
:1030F000F894F101208131818FBFAB81BC818D912A
:103100009C912817390708F04DC0D701AE56BD4F26
:10311000ED91FC911197406840838D919C9111979E
:10312000019611969C938E93EEE8F2E0EE0EFF1E50
:10313000F7012081318142E75DEFE40EF51E821731
:10314000930709F417C62FB7F894D1018D919C917C
:103150001197019611969C938E932FBFA70142560B
:103160005D4FDA01ED91FC9111971192ED93FC9373
:103170002AE932E0E20EF31ED7018D919C9126E6FA
:103180003DEFE20EF31EE817F90709F4E4C52FB787
:10319000F894F701EA56FD4F808191810196918361
:1031A00080832FBF62E672E04EE3F601E357FD4FE6
:1031B000FE8FED8F39E8432E32E0532E4C0C5D1C10
:1031C000960127563D4F3C8F2B8F51E025E9622E0B
:1031D00022E0722E6C0C7D1C91E9A92E92E0B92E92
:1031E000AC0CBD1CC6018D569D4F9C8B8B8BD601A4
:1031F000A957BD4FBE8BAD8B8FB7F894F8012081D6
:1032000031818FBFD4018D919C9128173907B0F57A
:10321000AD8DBE8DED91FC91119740838D919C9168
:10322000119701968D939C93F20120813181821731
:10323000930709F40AC32FB7F894D8018D919C9194
:103240001197019611969C938E932FBFAB8DBC8DD9
:10325000ED91FC9111975193ED93FC93D3018D91D6
:103260009C91E817F90709F4E7C22FB7F894F50124
:10327000808191810196918380832FBFDB014D91E5
:10328000BD01442309F0B8CF0E94643FFC01408196
:10329000442309F46FC0DC01F601E357FD4FFC8FB6
:1032A000EB8F89E8482E82E0582E4C0C5D1CB6014D
:1032B00067567D4F51E0F5E96F2EF2E07F2E6C0CE2
:1032C0007D1CE1E9AE2EE2E0BE2EAC0CBD1C9601E9
:1032D0002D563D4F388B2F87C60189579D4F9A8BAE
:1032E000898B8FB7F894F801208131818FBFF40169
:1032F0008081918128173907B0F5EB8DFC8D808195
:103300009181FC014083EB8DFC8D80819181019640
:1033100091838083F201208131818217930709F420
:10332000A5C22FB7F894F80180819181019691830D
:1033300080832FBFFB0120813181F90151939F01CF
:10334000FB0131832083F3018081918128173907A4
:1033500009F484C22FB7F894F50180819181019618
:10336000918380832FBF11964C911197119644231E
:1033700009F0B7CF9701215F3C4F3A832983D901E8
:103380008D919C9103970CF0B2C26E960FB6F89493
:10339000DEBF0FBECDBFCF91DF911F910F91FF9088
:1033A000EF90DF90CF90BF90AF909F908F907F90E5
:1033B0006F905F904F903F902F90089568E472E077
:1033C00040E586010B571D4FB3E88B2EB2E09B2ED4
:1033D0008C0C9D1CF601E357FD4FFE8FED8FA9E885
:1033E0004A2EA2E05A2E4C0C5D1C960127563D4FEA
:1033F0003C8F2B8F51E0F5E96F2EF2E07F2E6C0CA5
:103400007D1CE1E9AE2EE2E0BE2EAC0CBD1CC60177
:103410008D569D4F9A878987D601A957BD4FBC8786
:10342000AB878FB7F894F801208131818FBFD40129
:103430008D919C9128173907B0F5AD8DBE8DED911A
:10344000FC91119740838D919C91119701968D93DA
:103450009C93F201208131818217930709F43BC2CA
:103460002FB7F894D8018D919C91119701961196E0
:103470009C938E932FBFAB8DBC8DED91FC911197DA
:103480005193ED93FC93D3018D919C91E817F9072B
:1034900009F418C22FB7F894F50180819181019643
:1034A000918380832FBFDB014D91BD01442309F03F
:1034B000B8CFD7019C96ED91FC919D9741818FB734
:1034C000F894F101208131818FBFAB81BC818D9156
:1034D0009C912817390708F04DC0D701AE56BD4F53
:1034E000ED91FC911197406840838D919C911197CB
:1034F000019611969C938E93EEE8F2E0EE0EFF1E7D
:10350000F7012081318142E75DEFE40EF51E82175D
:10351000930709F44CC42FB7F894D1018D919C9175
:103520001197019611969C938E932FBFA701425637
:103530005D4FDA01ED91FC9111971192ED93FC939F
:103540002AE932E0E20EF31ED7018D919C9126E626
:103550003DEFE20EF31EE817F90709F419C42FB77F
:10356000F894F701EA56FD4F80819181019691838D
:1035700080832FBF0E94643FFC014081442309F4F3
:103580006FC0DC01F601E357FD4FFC8FEB8F39E88C
:10359000432E32E0532E4C0C5D1CB60167567D4F16
:1035A00051E025E9622E22E0722E6C0C7D1C91E91F
:1035B000A92E92E0B92EAC0CBD1C96012D563D4FA4
:1035C0003E832D83C60189579D4F98878F838FB780
:1035D000F894F801208131818FBFF40180819181BD
:1035E00028173907B0F5EB8DFC8D80819181FC01A6
:1035F0004083EB8DFC8D8081918101969183808346
:10360000F201208131818217930709F452C12FB74B
:10361000F894F801808191810196918380832FBF76
:10362000FB0120813181F90151939F01FB0131831D
:103630002083F301808191812817390709F431C172
:103640002FB7F894F5018081918101969183808351
:103650002FBF11964C9111971196442309F0B7CFC3
:103660002FE033E0E20EF31ED7018D919C91E1EF44
:10367000FCEFEE0EFF1E04970CF487CED7019C964C
:10368000ED91FC919D9743818FB7F894F1012081D2
:1036900031818FBFAB81BC818D919C9128173907F7
:1036A00008F04DC0D701AE56BD4FED91FC9111977A
:1036B000406840838D919C911197019611969C933F
:1036C0008E93EEE8F2E0EE0EFF1EF70120813181CD
:1036D00042E75DEFE40EF51E8217930709F492C3EB
:1036E0002FB7F894D1018D919C9111970196119665
:1036F0009C938E932FBFA70142565D4FDA01ED9147
:10370000FC9111971192ED93FC932AE932E0E20EBD
:10371000F31ED7018D919C9126E63DEFE20EF31E3C
:10372000E817F90709F451C32FB7F894F701EA56DF
:10373000FD4F808191810196918380832FBFEDE0C1
:10374000F3E0EE0EFF1ED7018D919C9141970CF096
:1037500082C267E372E043E55DE8252E52E0352E34
:103760002C0C3D1C39E8A32E32E0B32EAC0CBD1C52
:10377000F601E756FD4FFC8FEB8F51E025E9622EF5
:1037800022E0722E6C0C7D1C91E9E92E92E0F92E5C
:10379000EC0CFD1C83E9482E82E0582E4C0C5D1C7D
:1037A00027E832E0C20ED31E8FB7F894D8012D91CE
:1037B0003C918FBFF4018081918128173907A8F5CA
:1037C000D101ED91FC91119740838D919C911197BE
:1037D00001968D939C93F501208131818217930787
:1037E00009F432C22FB7F894D8018D919C911197AA
:1037F000019611969C938E932FBFAB8DBC8DED914E
:10380000FC9111975193ED93FC93D3018D919C9171
:10381000E817F90709F410C22FB7F894F70180816F
:1038200091810196918380832FBFDB014D91BD0172
:10383000442309F0B9CFA9CDEB89FC89808191811E
:10384000AB8DBC8D8D939C9310CDAD89BE898D9130
:103850009C91ED8DFE8D91838083EDCCEF85F88971
:1038600080819181FB019183808374CDE989FA89FC
:1038700080819181EB8DFC8D9183808352CDEF8986
:10388000F88D80819181AB8DBC8D8D939C931ACCEA
:10389000A98DBA8D8D919C91ED8DFE8D9183808344
:1038A000F7CBED81FE8180819181FB019183808343
:1038B000C7CEEF81F88580819181EB8DFC8D91835E
:1038C0008083A5CEE985FA8580819181AB8DBC8D01
:1038D0008D939C93DFCDAB85BC858D919C91ED8DB7
:1038E000FE8D91838083BCCD0E9453437FCBD70153
:1038F0009C96ED91FC919D9742818FB7F894F101D0
:10390000208131818FBFAB81BC818D919C91281723
:10391000390708F04DC0D701AE56BD4FED91FC916F
:103920001197406840838D919C9111970196119653
:103930009C938E93EEE8F2E0EE0EFF1EF7012081DD
:10394000318142E75DEFE40EF51E8217930709F41B
:103950004BC22FB7F894D1018D919C91119701968C
:1039600011969C938E932FBFA70142565D4FDA01AB
:10397000ED91FC9111971192ED93FC932AE932E0BD
:10398000E20EF31ED7018D919C9126E63DEFE20EEB
:10399000F31EE817F90709F443C22FB7F894F701AB
:1039A000EA56FD4F808191810196918380832FBFDC
:1039B00065E672E046E3F601E357FD4FFE8FED8FBB
:1039C00059E8452E52E0552E4C0C5D1C96012756A9
:1039D0003D4F3C8F2B8F51E035E9632E32E0732E43
:1039E0006C0C7D1C21E9A22E22E0B22EAC0CBD1C79
:1039F00093E9292E92E0392E2C0C3D1CC6018957E3
:103A00009D4F9E878D878FB7F894D8012D913C915B
:103A10008FBFF4018081918128173907B0F5AD8DF2
:103A2000BE8DED91FC91119740838D919C911197E2
:103A300001968D939C93F201208131818217930727
:103A400009F4DCC02FB7F894D8018D919C9111979F
:103A5000019611969C938E932FBFAB8DBC8DED91EB
:103A6000FC9111975193ED93FC93D3018D919C910F
:103A7000E817F90709F4BAC02FB7F894F501808167
:103A800091810196918380832FBFDB014D91BD0110
:103A9000442309F0B8CFE981FA81808191810497AC
:103AA0000CF473CCD7019C96ED91FC919D976381AA
:103AB0006068C6010E945602EDE0F3E0EE0EFF1EC4
:103AC000D7018D919C9141970CF0B0C067E372E0F3
:103AD00043E58DE8282E82E0382E2C0C3D1CB9E8F9
:103AE000AB2EB2E0BB2EAC0CBD1CF601E756FD4F71
:103AF000FC8FEB8F51E0A5E96A2EA2E07A2E6C0CC8
:103B00007D1CF1E9EF2EF2E0FF2EEC0CFD1CE3E949
:103B10004E2EE2E05E2E4C0C5D1C27E832E0C20E19
:103B2000D31E8FB7F894D8012D913C918FBFF4012B
:103B30008081918128173907A8F5D101ED91FC9179
:103B4000119740838D919C91119701968D939C9331
:103B5000F501208131818217930709F460C02FB7E6
:103B6000F894D8018D919C911197019611969C9390
:103B70008E932FBFAB8DBC8DED91FC91119751931E
:103B8000ED93FC93D3018D919C91E817F90709F40B
:103B90003EC02FB7F894F7018081918101969183FF
:103BA00080832FBFDB014D91BD01442309F0B9CFC4
:103BB000ECCB8CE892E0E80EF91EF7018081918150
:103BC00024E73DEFE20EF31E8D939C93D4C988E960
:103BD00092E0E80EF91ED7018D919C91E8E6FDEF89
:103BE000EE0EFF1EDA018D939C93E9C9F1018081ED
:103BF0009181AB8DBC8D8D939C933ECFAD85BE8561
:103C00008D919C91ED8DFE8D918380831BCFF20170
:103C100080819181AB8DBC8D8D939C93BACFD60161
:103C20008D919C91F1019183808399CFC60164E2CB
:103C300072E00E945807A9CBF20180819181AB8D7F
:103C4000BC8D8D939C93E8CDD6018D919C91F10113
:103C500091838083C7CD65E272E043E58DE8282E2D
:103C600082E0382E2C0C3D1CB9E8AB2EB2E0BB2E06
:103C7000AC0CBD1CF601E756FD4FFC8FEB8F51E0FD
:103C8000A5E96A2EA2E07A2E6C0C7D1CF1E9EF2EDC
:103C9000F2E0FF2EEC0CFD1CE3E94E2EE2E05E2E7E
:103CA0004C0C5D1C27E832E0C20ED31E8FB7F8948F
:103CB000D8012D913C918FBFF4018081918128170B
:103CC000390798F5D101ED91FC91119740838D91C1
:103CD0009C91119701968D939C93F50120813181E0
:103CE0008217930789F12FB7F894D8018D919C9191
:103CF0001197019611969C938E932FBFAB8DBC8D1F
:103D0000ED91FC9111975193ED93FC93D3018D911B
:103D10009C91E817F90781F02FB7F894F70180819B
:103D200091810196918380832FBFDB014D91BD016D
:103D3000442309F0BBCF29CBF20180819181AB8D67
:103D4000BC8D8D939C93E8CFD6018D919C91F10110
:103D500091838083C8CF88E992E0E80EF91ED701ED
:103D60008D919C91E8E6FDEFEE0EFF1EDA018D933A
:103D70009C930DCA8CE892E0E80EF91EF701808151
:103D8000918124E73DEFE20EF31E8D939C93DBC9F6
:103D900088E992E0E80EF91ED7018D919C91E8E642
:103DA000FDEFEE0EFF1EDA018D939C93D8CB8CE8CD
:103DB00092E0E80EF91EF7018081918124E73DEF42
:103DC000E20EF31E8D939C93A6CB88E992E0E80E59
:103DD000F91ED7018D919C91E8E6FDEFEE0EFF1ED6
:103DE000DA018D939C93A0CC8CE892E0E80EF91E4A
:103DF000F7018081918124E73DEFE20EF31E8D9360
:103E00009C93A7CD8CE892E0E80EF91EF701808123
:103E1000918124E73DEFE20EF31E8D939C9360CCDD
:103E200088E992E0E80EF91ED7018D919C91E8E6B1
:103E3000FDEFEE0EFF1EDA018D939C93AECD2F9217
:103E40003F924F925F926F927F928F929F92AF922A
:103E5000BF92CF92DF92EF92FF920F931F93DF9367
:103E6000CF93CDB7DEB7CA5AD0400FB6F894DEBFB5
:103E70000FBECDBF4C0145E0C42ED12CC80ED91EBB
:103E800020913F05309140054091410550914205F8
:103E900029962CAF3DAF4EAF5FAF299764E772E034
:103EA00048E53AE8E32E32E0F32EE80EF91E28E862
:103EB000A22E22E0B22EA80EB91E8E569D4FC755D7
:103EC000DF4F99838883C95AD0409EE8292E92E01B
:103ED000392E280C391C840102561D4F51E08AE905
:103EE000482E82E0582E480C591CB6E96B2EB2E0E1
:103EF0007B2E680C791CD401A856BD4FCD55DF4FE1
:103F0000B983A883C35AD040F401E457FD4FCB5581
:103F1000DF4FF983E883C55AD0408FB7F894D701B3
:103F20002D913C918FBFF501808191812817390730
:103F300008F03BC0C755DF4FA881B981C95AD040AE
:103F4000ED91FC91119740838D919C911197019671
:103F50008D939C93F101208131818217930711F495
:103F60000C94D4292FB7F894D7018D919C91119777
:103F7000019611969C938E932FBFD801ED91FC91E1
:103F800011975193ED93FC93D2018D919C91E81779
:103F9000F90711F40C94C7292FB7F894F301808125
:103FA00091810196918380832FBFDB014D91BD01EB
:103FB000442309F0B2CFFE013196C955DF4FF98392
:103FC000E883C75AD04080E211928A95E9F7299692
:103FD0006CAD7DAD8EAD9FAD299745E021E08E01A2
:103FE0000F5F1F4F0E9463D24981442309F482C0AE
:103FF0008E010E5F1F4F960123573D4FC755DF4F70
:1040000039832883C95AD040A9E82A2EA2E03A2E43
:104010002C0C3D1CB60167567D4F51E0F5E94F2E43
:10402000F2E05F2E4C0C5D1CE1E96E2EE2E07E2E8C
:104030006C0C7D1CC6018D569D4FC156DF4F998378
:104040008883CF59D040D601A957BD4FCF55DF4FF8
:10405000B983A883C15AD0408FB7F894F701208163
:1040600031818FBFD5018D919C912817390708F0B8
:104070003BC0C755DF4FA881B981C95AD040ED91E7
:10408000FC91119740838D919C91119701968D938E
:104090009C93F101208131818217930711F40C94D4
:1040A000F3292FB7F894D7018D919C911197019620
:1040B00011969C938E932FBFDB01ED91FC9111978C
:1040C0005193ED93FC93D2018D919C91E817F907E0
:1040D00011F40C94E6292FB7F894F30180819181B3
:1040E0000196918380832FBFD8014D918D01442388
:1040F00009F0B2CFD4019C96ED91FC919D9740813F
:104100008FB7F894F401E657FD4F6396FFAFEEAF1B
:104110006397208131818FBFC40188579D4F61967D
:104120009FAF8EAF6197DC018D919C912817390765
:1041300008F053C0D401AE56BD4FED91FC911197DC
:10414000485F406840838D919C911197019611962C
:104150009C938E93EEE8F2E08E0E9F1EF401208178
:10416000318142E75DEF840E951E8217930711F4AB
:104170000C9498342FB7F8946396AEADBFAD6397A7
:104180008D919C911197019611969C938E932FBFC0
:10419000A40142565D4FDA01ED91FC911197119205
:1041A000ED93FC932AE932E0820E931ED4018D91A7
:1041B0009C9126E63DEF820E931EE817F90711F455
:1041C0000C94A7342FB7F894F401EA56FD4F808180
:1041D00091810196918380832FBF20914305309177
:1041E0004405409145055091460525962CAF3DAFBD
:1041F0004EAF5FAF259767E772E049E5C601835789
:104200009D4FC755DF4F99838883C95AD04039E8FD
:10421000232E32E0332E2C0C3D1C860107561D4FF9
:1042200051E025E9422E22E0522E4C0C5D1C91E912
:10423000692E92E0792E6C0C7D1CD601AD56BD4FD7
:10424000C556DF4FB983A883CB59D040F601E95753
:10425000FD4FC356DF4FF983E883CD59D0408FB768
:10426000F894D7012D913C918FBFF5018081918108
:104270002817390708F03BC0C755DF4FA881B9811F
:10428000C95AD040ED91FC91119740838D919C913A
:10429000119701968D939C93F101208131818217B2
:1042A000930711F40C94122A2FB7F894D7018D912B
:1042B0009C911197019611969C938E932FBFD801D4
:1042C000ED91FC9111975193ED93FC93D2018D9157
:1042D0009C91E817F90711F40C94052A2FB7F8946C
:1042E000F301808191810196918380832FBFDB014F
:1042F0004D91BD01442309F0B2CF80E2C955DF4F93
:10430000E881F981C75AD04011928A95E9F725963C
:104310006CAD7DAD8EAD9FAD259745E021E08E0162
:104320000F5F1F4F0E9463D24981442309F482C06A
:104330008E010E5F1F4F960123573D4FC755DF4F2C
:1043400039832883C95AD04089E8282E82E0382E44
:104350002C0C3D1CB60167567D4F51E0B5E94B2E44
:10436000B2E05B2E4C0C5D1CA1E96A2EA2E07A2E15
:104370006C0C7D1CC6018D569D4FC956DF4F99832D
:104380008883C759D040D601A957BD4FC756DF4FC4
:10439000B983A883C959D0408FB7F894F701208119
:1043A00031818FBFD5018D919C912817390708F075
:1043B0003BC0C755DF4FA881B981C95AD040ED91A4
:1043C000FC91119740838D919C91119701968D934B
:1043D0009C93F101208131818217930711F40C9491
:1043E000312A2FB7F894D7018D919C91119701969E
:1043F00011969C938E932FBFDB01ED91FC91119749
:104400005193ED93FC93D2018D919C91E817F9079C
:1044100011F40C94242A2FB7F894F3018081918130
:104420000196918380832FBFD8014D918D01442344
:1044300009F0B2CFD4019C96ED91FC919D974181FA
:104440008FB7F8946396EEADFFAD6397208131810D
:104450008FBF6196AEADBFAD61978D919C912817CE
:10446000390708F052C0D401AE56BD4FED91FC9112
:104470001197406840838D919C91119701961196F8
:104480009C938E93EEE8F2E08E0E9F1EF401208145
:10449000318142E75DEF840E951E8217930711F478
:1044A0000C94B7342FB7F8946396AEADBFAD639755
:1044B0008D919C911197019611969C938E932FBF8D
:1044C000A40142565D4FDA01ED91FC9111971192D2
:1044D000ED93FC932AE932E0820E931ED4018D9174
:1044E0009C9126E63DEF820E931EE817F90711F422
:1044F0000C9488342FB7F894F401EA56FD4F80816C
:1045000091810196918380832FBF2091470530913F
:1045100048054091490550914A0521962CAF3DAF81
:104520004EAF5FAF21976AE772E04AE5C601835755
:104530009D4FC755DF4F99838883C95AD040F9E80A
:104540002F2EF2E03F2E2C0C3D1C860107561D4FEE
:1045500051E0E5E94E2EE2E05E2E4C0C5D1C31E9A7
:10456000632E32E0732E6C0C7D1CD601AD56BD4F10
:10457000CD56DF4FB983A883C359D040F601E95720
:10458000FD4FCB56DF4FF983E883C559D0408FB735
:10459000F894D7012D913C918FBFF50180819181D5
:1045A0002817390708F039C0C755DF4FA881B981EE
:1045B000C95AD040ED91FC91119740838D919C9107
:1045C000119701968D939C93F1012081318182177F
:1045D000930709F4AEC62FB7F894D7018D919C913B
:1045E0001197019611969C938E932FBFD801ED9150
:1045F000FC9111975193ED93FC93D2018D919C9175
:10460000E817F90709F489C62FB7F894F3018081F8
:1046100091810196918380832FBFDB014D91BD0174
:10462000442309F0B4CF80E2C955DF4FE881F98116
:10463000C75AD04011928A95E9F721966CAD7DADAD
:104640008EAD9FAD219745E021E08E010F5F1F4F9A
:104650000E9463D24981442309F480C08E010E5F19
:104660001F4F960123573D4FC755DF4F398328838E
:10467000C95AD04029E8222E22E0322E2C0C3D1CB3
:10468000B60167567D4F51E095E9492E92E0592ECB
:104690004C0C5D1C81E9682E82E0782E6C0C7D1C30
:1046A000C6018D569D4FC157DF4F99838883CF58E0
:1046B000D040D601A957BD4FCF56DF4FB983A8834D
:1046C000C159D0408FB7F894F701208131818FBF55
:1046D000D5018D919C912817390708F039C0C7552D
:1046E000DF4FA881B981C95AD040ED91FC91119753
:1046F00040838D919C91119701968D939C93F1012C
:10470000208131818217930709F430C62FB7F894BE
:10471000D7018D919C911197019611969C938E9340
:104720002FBFDB01ED91FC9111975193ED93FC9319
:10473000D2018D919C91E817F90709F40BC62FB7A8
:10474000F894F301808191810196918380832FBF3A
:10475000D8014D918D01442309F0B4CFEFE0F3E08F
:104760008E0E9F1ED4018D919C91E1EFFCEF8E0E79
:104770009F1E03970CF487C6D4019C96ED91FC9183
:104780009D9741818FB7F8946396EEADFFAD639727
:10479000208131818FBF6196AEADBFAD61978D91A4
:1047A0009C912817390708F053C0D401AE56BD4F6D
:1047B000ED91FC911197485F406840838D919C91E9
:1047C0001197019611969C938E93EEE8F2E08E0E6F
:1047D0009F1EF4012081318142E75DEF840E951E1A
:1047E0008217930711F40C9404352FB7F89463964D
:1047F000AEADBFAD63978D919C91119701961196C7
:104800009C938E932FBFA40142565D4FDA01ED9128
:10481000FC9111971192ED93FC932AE932E0820EFC
:10482000931ED4018D919C9126E63DEF820E931E3E
:10483000E817F90711F40C94F4342FB7F894F40145
:10484000EA56FD4F808191810196918380832FBF2D
:1048500020914B0530914C0540914D0550914E05EE
:1048600029AF3AAF4BAF5CAF0DE7602E02E0702E80
:1048700045E4C60183579D4FC755DF4F9983888311
:10488000C95AD04019E8212E12E0312E2C0C3D1CC3
:10489000860107561D4F51E0B6016B567D4FB1E9B9
:1048A0004B2EB2E05B2E4C0C5D1CD601AD56BD4FBD
:1048B000E796BFAFAEAFE797F601E957FD4FE99630
:1048C000FFAFEEAFE9978FB7F894D7012D913C91E8
:1048D0008FBFF501808191812817390708F03BC00F
:1048E000C755DF4FA881B981C95AD040ED91FC91DD
:1048F000119740838D919C91119701968D939C9374
:10490000F101208131818217930711F40C94452F16
:104910002FB7F894D7018D919C911197019611961C
:104920009C938E932FBFD801ED91FC9111975193D9
:10493000ED93FC93DB018D919C91E817F90711F43D
:104940000C94A72F2FB7F894F201808191810196E2
:10495000918380832FBFD3014D913D01442309F002
:10496000B2CF80E2C955DF4FE881F981C75AD04004
:1049700011928A95E9F769AD7AAD8BAD9CAD45E0B2
:1049800021E08E010F5F1F4F0E9463D249814423B3
:1049900009F47EC08E010E5F1F4F960123573D4FD5
:1049A000C755DF4F39832883C95AD040A9E84A2E1A
:1049B000A2E05A2E4C0C5D1CB60167567D4F51E0AB
:1049C000F5E92F2EF2E03F2E2C0C3D1CE1E96E2E76
:1049D000E2E07E2E6C0C7D1CC6018D569D4FE39649
:1049E0009FAF8EAFE397D601A957BD4FE596BFAFF6
:1049F000AEAFE5978FB7F894F701208131818FBF73
:104A0000D5018D919C912817390708F03BC0C755F7
:104A1000DF4FA881B981C95AD040ED91FC9111971F
:104A200040838D919C91119701968D939C93F201F7
:104A3000208131818217930711F40C948C2F2FB7AA
:104A4000F894D7018D919C911197019611969C93A2
:104A50008E932FBFDB01ED91FC9111975193ED9354
:104A6000FC93D1018D919C91E817F90711F40C94F6
:104A7000812F2FB7F894F301808191810196918362
:104A800080832FBFD8014D918D01442309F0B2CF0F
:104A9000D4019C96ED91FC919D9742818FB7F8943B
:104AA0006396EEADFFAD6397208131818FBF619634
:104AB000AEADBFAD61978D919C912817390708F075
:104AC00052C0D401AE56BD4FED91FC911197406894
:104AD00040838D919C911197019611969C938E9392
:104AE000EEE8F2E08E0E9F1EF4012081318142E754
:104AF0005DEF840E951E8217930711F40C94D63443
:104B00002FB7F8946396AEADBFAD63978D919C912E
:104B10001197019611969C938E932FBFA401425634
:104B20005D4FDA01ED91FC9111971192ED93FC9399
:104B30002AE932E0820E931ED4018D919C9126E6E3
:104B40003DEF820E931EE817F90711F40C9413350C
:104B50002FB7F894F401EA56FD4F808191810196B8
:104B6000918380832FBFE4ECF2E08E0E9F1ED40170
:104B70002D913D914D915C912DAB3EAB4FAB58AF1C
:104B8000ECE3FDEF8E0E9F1E60E8662E62E0762E4F
:104B90004DE4960123573D4FC755DF4F3983288396
:104BA000C95AD04059E8252E52E0352E2C0C3D1C18
:104BB000860107561D4F51E0B6016B567D4F31E916
:104BC000432E32E0532E4C0C5D1CC6018D569D4F7A
:104BD000AF969FAF8EAFAF97D601A957BD4FE19665
:104BE000BFAFAEAFE1978FB7F894F7012081318165
:104BF0008FBFD5018D919C912817390708F03BC0D4
:104C0000C755DF4FA881B981C95AD040ED91FC91B9
:104C1000119740838D919C91119701968D939C9350
:104C2000F101208131818217930711F40C94352F03
:104C30002FB7F894D7018D919C91119701961196F9
:104C40009C938E932FBFD801ED91FC9111975193B6
:104C5000ED93FC93DB018D919C91E817F90711F41A
:104C60000C949C2F2FB7F894F201808191810196CA
:104C7000918380832FBFD3014D913D01442309F0DF
:104C8000B2CF80E2C955DF4FE881F981C75AD040E1
:104C900011928A95E9F76DA97EA98FA998AD45E093
:104CA00021E08E010F5F1F4F0E9463D24981442390
:104CB00009F47EC08E010E5F1F4F960123573D4FB2
:104CC000C755DF4F39832883C95AD04029E8422E7F
:104CD00022E0522E4C0C5D1CB60167567D4F51E010
:104CE00095E9292E92E0392E2C0C3D1C81E9682E85
:104CF00082E0782E6C0C7D1CC6018D569D4FAB96C4
:104D00009FAF8EAFAB97D601A957BD4FAD96BFAF42
:104D1000AEAFAD978FB7F894F701208131818FBF87
:104D2000D5018D919C912817390708F03BC0C755D4
:104D3000DF4FA881B981C95AD040ED91FC911197FC
:104D400040838D919C91119701968D939C93F201D4
:104D5000208131818217930711F40C94712F2FB7A2
:104D6000F894D7018D919C911197019611969C937F
:104D70008E932FBFDB01ED91FC9111975193ED9331
:104D8000FC93D1018D919C91E817F90711F40C94D3
:104D9000662F2FB7F894F30180819181019691835A
:104DA00080832FBFD8014D918D01442309F0B2CFEC
:104DB000F401E35FFC4F2F96FFAFEEAF2F9780819A
:104DC000918141970CF4F1C628EC32E0820E931EDB
:104DD000D401ED91FC9128E33DEF820E931E80817A
:104DE0009181A281B38189AB9AABABABBCAB06E836
:104DF000602E02E0702E40E2D601A357BD4FC7558A
:104E0000DF4FB983A883C95AD04019E8212E12E098
:104E1000312E2C0C3D1C860107561D4F51E0B6016A
:104E20006B567D4FB1E94B2EB2E05B2E4C0C5D1CF6
:104E3000F601ED56FD4F6F96FFAFEEAF6F979601FF
:104E400029573D4FA1963FAF2EAFA1978FB7F8944A
:104E5000D7012D913C918FBFF50180819181281759
:104E6000390708F03BC0C755DF4FA881B981C95A3F
:104E7000D040ED91FC91119740838D919C911197B9
:104E800001968D939C93F1012081318182179307C4
:104E900011F40C945D342FB7F894D7018D919C9147
:104EA0001197019611969C938E932FBFD801ED9187
:104EB000FC9111975193ED93FC93DB018D919C91A3
:104EC000E817F90711F40C9452342FB7F894F20153
:104ED000808191810196918380832FBFD3014D9171
:104EE0003D01442309F0B2CF80E2C955DF4FE8818C
:104EF000F981C75AD04011928A95E9F769A97AA930
:104F00008BA99CA945E021E08E010F5F1F4F0E94F5
:104F100063D24981442309F47EC08E010E5F1F4F86
:104F2000960123573D4FC755DF4F39832883C95A10
:104F3000D040A9E84A2EA2E05A2E4C0C5D1CB601C6
:104F400067567D4F51E0F5E92F2EF2E03F2E2C0CF5
:104F50003D1CE1E96E2EE2E07E2E6C0C7D1CC6014C
:104F60008D569D4F6B969FAF8EAF6B97D601A9570D
:104F7000BD4F6D96BFAFAEAF6D978FB7F894F70189
:104F8000208131818FBFD5018D919C9128173907E0
:104F900008F03BC0C755DF4FA881B981C95AD0403E
:104FA000ED91FC91119740838D919C911197019601
:104FB0008D939C93F201208131818217930711F424
:104FC0000C9478342FB7F894D7018D919C91119758
:104FD000019611969C938E932FBFDB01ED91FC916E
:104FE00011975193ED93FC93D1018D919C91E8170A
:104FF000F90711F40C946D342FB7F894F301808104
:1050000091810196918380832FBFD8014D918D01AD
:10501000442309F0B2CFD4019C96ED91FC919D9769
:1050200043818FB7F8946396EEADFFAD639720810F
:1050300031818FBF6196AEADBFAD61978D919C916F
:105040002817390708F052C0D401AE56BD4FED9174
:10505000FC911197406840838D919C911197019626
:1050600011969C938E93EEE8F2E08E0E9F1EF40153
:105070002081318142E75DEF840E951E82179307F0
:1050800011F40C94E5342FB7F8946396AEADBFAD30
:1050900063978D919C911197019611969C938E9395
:1050A0002FBFA40142565D4FDA01ED91FC9111979B
:1050B0001192ED93FC932AE932E0820E931ED40103
:1050C0008D919C9126E63DEF820E931EE817F9071D
:1050D00011F40C94C6342FB7F894F401EA56FD4F3E
:1050E000808191810196918380832FBFECECF2E067
:1050F0008E0E9F1ED4018C91E4E3FDEF8E0E9F1E59
:10510000882311F00C941A342DE832E038AB2FA725
:105110005FA52C965FAF2C9788A92D968FAF2D9702
:1051200006E912E045E4D601A357BD4FC755DF4F4E
:10513000B983A883C95AD040F9E84F2EF2E05F2E18
:105140004C0C5D1CB60167567D4F51E0E5E92E2EF3
:10515000E2E03E2E2C0C3D1C31E9632E32E0732E32
:105160006C0C7D1CF601ED56FD4F6796FFAFEEAF60
:105170006797960129573D4F69963FAF2EAF6997C4
:105180008FB7F894D7012D913C918FBFF5018081A5
:1051900091812817390708F039C0C755DF4FA8811A
:1051A000B981C95AD040ED91FC91119740838D91FE
:1051B0009C91119701968D939C93F20120813181EE
:1051C0008217930709F442C62FB7F894D7018D913F
:1051D0009C911197019611969C938E932FBFDB01A2
:1051E000ED91FC9111975193ED93FC93D1018D9129
:1051F0009C91E817F90709F415C62FB7F894F30145
:10520000808191810196918380832FBFD8014D9138
:105210008D01442309F0B4CFEFA5F8A940814423C0
:1052200009F49BC42C968FAD2C972D969FAD2D978E
:105230009C01D901B60163577D4F29E8222E22E057
:10524000322E2C0C3D1C860107561D4F51E095E96E
:10525000492E92E0592E4C0C5D1C81E9682E82E0AB
:10526000782E6C0C7D1C96012D563D4F65963FAFF8
:105270002EAF659787E892E0C80ED91E29C02FB7D8
:10528000F894F701808191810196918380832FBFEB
:10529000F80120813181F90151939F01F801318397
:1052A0002083F201808191812817390709F4C4C550
:1052B0002FB7F894F30180819181019691838083C7
:1052C0002FBF11964C9111971196442309F445C4B0
:1052D0008FB7F894F701208131818FBFF50180816C
:1052E00091812817390768F7FB0180819181FC01C2
:1052F0004083FB0180819181019691838083F1013C
:10530000208131818217930709F0B9CFF60180819E
:105310009181FB0191838083B2CFCD56DF4FE8812D
:10532000F981C359D04080819181D8018D939C939C
:105330006BC9CB56DF4FA881B981C559D0408D913B
:105340009C91C755DF4FE881F981C95AD0409183BC
:10535000808341C9C157DF4FE881F981CF58D040E0
:1053600080819181DB018D939C93E9C9CF56DF4FFA
:10537000A881B981C159D0408D919C91C755DF4F0B
:10538000E881F981C95AD04091838083BFC9CD5546
:10539000DF4FE881F981C35AD04080819181D801E3
:1053A0008D939C930C94CC1FCB55DF4FA881B98172
:1053B000C55AD0408D919C91C755DF4FE881F98146
:1053C000C95AD040918380830C94B21FC156DF4FDD
:1053D000E881F981CF59D04080819181DB018D93A3
:1053E0009C930C946B20CF55DF4FA881B981C15A93
:1053F000D0408D919C91C755DF4FE881F981C95A02
:10540000D040918380830C945120C556DF4FE881B2
:10541000F981CB59D04080819181D8018D939C93A3
:105420000C946E21C356DF4FA881B981CD59D0406D
:105430008D919C91C755DF4FE881F981C95AD040C1
:10544000918380830C945421C956DF4FE881F98100
:10545000C759D04080819181DB018D939C930C943E
:105460000B22C756DF4FA881B981C959D0408D9111
:105470009C91C755DF4FE881F981C95AD04091838B
:1054800080830C94F12124EC32E0820E931ED4012F
:105490008D919D910D90BC91A02D8DA39EA3AFA346
:1054A000B8A7ECE3FDEF8E0E9F1E00EA602E02E02F
:1054B000702E49E4960123573D4FC755DF4F39837E
:1054C0002883C95AD04019E8212E12E0312E2C0C25
:1054D0003D1C860107561D4F51E0B6016B567D4FAE
:1054E000B1E94B2EB2E05B2E4C0C5D1CC6018D5613
:1054F0009D4FC557DF4F99838883CB58D040D60145
:10550000A957BD4FC357DF4FB983A883CD58D040AB
:105510008FB7F894F701208131818FBFD5018D912C
:105520009C912817390708F039C0C755DF4FA8816B
:10553000B981C95AD040ED91FC91119740838D916A
:105540009C91119701968D939C93F101208131815B
:105550008217930709F42FC52FB7F894D7018D91BF
:105560009C911197019611969C938E932FBFD80111
:10557000ED91FC9111975193ED93FC93DB018D918B
:105580009C91E817F90709F40AC52FB7F894F201BE
:10559000808191810196918380832FBFD3014D91AA
:1055A0003D01442309F0B4CF80E2C955DF4FE881C3
:1055B000F981C75AD04011928A95E9F76DA17EA171
:1055C0008FA198A545E021E08E010F5F1F4F0E943B
:1055D00063D24981442309F480C08E010E5F1F4FBE
:1055E000960123573D4FC755DF4F39832883C95A4A
:1055F000D040A9E84A2EA2E05A2E4C0C5D1CB60100
:1056000067567D4F51E0F5E92F2EF2E03F2E2C0C2E
:105610003D1CE1E96E2EE2E07E2E6C0C7D1CC60185
:105620008D569D4FC957DF4F99838883C758D04007
:10563000D601A957BD4FC757DF4FB983A883C958B3
:10564000D0408FB7F894F701208131818FBFD50109
:105650008D919C912817390708F039C0C755DF4F45
:10566000A881B981C95AD040ED91FC91119740832E
:105670008D919C91119701968D939C93F2012081BD
:1056800031818217930709F4D0C42FB7F894D7015A
:105690008D919C911197019611969C938E932FBF9B
:1056A000DB01ED91FC9111975193ED93FC93D101A6
:1056B0008D919C91E817F90709F4ABC42FB7F894C2
:1056C000F301808191810196918380832FBFD8015E
:1056D0004D918D01442309F0B4CFE8ECF2E08E0E39
:1056E0009F1ED401ED91FC9128E33DEF820E931EA5
:1056F00080819181A281B38189A39AA3ABA3BCA32A
:105700003CE8632E32E0732E4FE2D601A357BD4F23
:10571000C755DF4FB983A883C95AD04029E8222E44
:1057200022E0322E2C0C3D1C860107561D4F51E005
:10573000B6016B567D4F91E9492E92E0592E4C0CE3
:105740005D1CF601ED56FD4FCD57DF4FF983E88321
:10575000C358D040960129573D4FCB57DF4F39836F
:105760002883C558D0408FB7F894D7012D913C912C
:105770008FBFF501808191812817390708F039C062
:10578000C755DF4FA881B981C95AD040ED91FC912E
:10579000119740838D919C91119701968D939C93C5
:1057A000F101208131818217930709F4E7C32FB7F4
:1057B000F894D7018D919C911197019611969C9325
:1057C0008E932FBFD801ED91FC9111975193ED93DA
:1057D000FC93DB018D919C91E817F90709F4C2C392
:1057E0002FB7F894F2018081918101969183808393
:1057F0002FBFD3014D913D01442309F0B4CF80E286
:10580000C955DF4FE881F981C75AD04011928A9576
:10581000E9F769A17AA18BA19CA145E021E08E0165
:105820000F5F1F4F0E9463D24981442309F480C057
:105830008E010E5F1F4F960123573D4FC755DF4F17
:1058400039832883C95AD04089E8482E82E0582EEF
:105850004C0C5D1CB60167567D4F51E0B5E92B2E0F
:10586000B2E03B2E2C0C3D1CA1E96A2EA2E07A2E60
:105870006C0C7D1CC6018D569D4FC158DF4F99831E
:105880008883CF57D040D601A957BD4FCF57DF4FA0
:10589000B983A883C158D0408FB7F894F70120810D
:1058A00031818FBFD5018D919C912817390708F060
:1058B00039C0C755DF4FA881B981C95AD040ED9191
:1058C000FC91119740838D919C91119701968D9336
:1058D0009C93F201208131818217930709F488C3D8
:1058E0002FB7F894D7018D919C911197019611963D
:1058F0009C938E932FBFDB01ED91FC9111975193F7
:10590000ED93FC93D1018D919C91E817F90709F46F
:1059100063C32FB7F894F30180819181019691833D
:1059200080832FBFD8014D918D01442309F0B4CF5E
:10593000ECECF2E08E0E9F1ED4018C91E4E3FDEFBF
:105940008E0E9F1E882309F02BC122EA32E03EA76B
:105950002DA75DA52A965FAF2A978EA52B968FAFB0
:105960002B9707EA12E040E2D601A357BD4FC75577
:10597000DF4FB983A883C95AD040F9E84F2EF2E02F
:105980005F2E4C0C5D1CB60167567D4F51E0E5E97A
:105990002E2EE2E03E2E2C0C3D1C31E9632E32E02F
:1059A000732E6C0C7D1CF601ED56FD4FED96FFAF8E
:1059B000EEAFED97960129573D4FEF963FAF2EAFD3
:1059C000EF978FB7F894D7012D913C918FBFF501D8
:1059D000808191812817390708F039C0C755DF4FFA
:1059E000A881B981C95AD040ED91FC9111974083AB
:1059F0008D919C91119701968D939C93F20120813A
:105A000031818217930709F4FEC12FB7F894D701AB
:105A10008D919C911197019611969C938E932FBF17
:105A2000DB01ED91FC9111975193ED93FC93D10122
:105A30008D919C91E817F90709F4DBC12FB7F89411
:105A4000F301808191810196918380832FBFD801DA
:105A50004D918D01442309F0B4CFEDA5FEA5408101
:105A6000442309F473C02A968FAD2A972B969FADD5
:105A70002B979C01D901B60163577D4F29E8222E4F
:105A800022E0322E2C0C3D1C860107561D4F51E0A2
:105A900095E9492E92E0592E4C0C5D1C81E9682E47
:105AA00082E0782E6C0C7D1CC6018D569D4FEB96C6
:105AB0009FAF8EAFEB97E7E8F2E0CE0EDF1E8FB719
:105AC000F894F701208131818FBFF50180819181A8
:105AD00028173907A0F5FB0180819181FC014083E3
