:100000000C94F8020C9424030C9424030C94240301
:100010000C9424030C9424030C9424030C942403C4
:100020000C9424030C9424030C9424030C942403B4
:100030000C9424030C9424030C9424030C942403A4
:100040000C9424030C94265E0C9424030C94240337
:100050000C9424030C9424030C9424030C94991DF5
:100060000C9424030C94C51A0C94201B0C942403A8
:100070000C9424030C9424030C9424030C94240364
:100080000C9424030C9424030C9424030C94240354
:100090000C94808C0C9424030C94CB8B0C94240330
:1000A0000C9424030C9424030C9424030C94240334
:1000B0000C9424030C9424030C9424030C94240324
:1000C0000C9424030C9424030C9424030C94801BA0
:1000D0000C948A1B0C9424030C9424030C94240386
:1000E0000C94240373746172740A002F20004D492C
:1000F0005353494E472100423A2020202F202020F0
:10010000004265642020203A202020202F2020203B
:10011000002F20004D495353494E472100483A20B3
:1001200020202F20202000486F74656E643A202024
:1001300020202F202020005363726962626C654A80
:10014000277320534A465700534A46572062792066
:100150005363726962626C654A00363D4E4558547D
:1001600020233D5052494E54003E20005344204627
:10017000696C652053656C656374005072696E74B8
:10018000696E673A20004D41494E204D454E55005D
:100190006F6B200A005741524E494E473A20534553
:1001A00052494F555320454550524F4D20464149E5
:1001B0004C0A004641494C00424547494E004545DE
:1001C00050524F4D2000454550524F4D2053544FF3
:1001D00050000A494E56414C49444154454420433D
:1001E0004F4445530A00204E4F5420535550504F12
:1001F000525445440A00204D434F44452000464197
:10020000494C00424547554E00454550524F4D2000
:10021000524541443A2000204641494C0020424585
:1002200047554E002046454154555245533A302FCC
:100230006372632D7632002056455253494F4E3A31
:10024000312E3920465245455F52414D3A002F200C
:10025000004D495353494E472100423A2020202F58
:10026000202020004265642020203A202020202FDA
:10027000202020002F20004D495353494E47210094
:10028000483A2020202F20202000486F74656E649B
:100290003A202020202F20202000536372696262C0
:1002A0006C654A277320534A465700534A465720E5
:1002B0006279205363726962626C654A00204E4F16
:1002C0005420535550504F525445440A0020474340
:1002D0004F444520002F20004D495353494E47219C
:1002E00000423A2020202F20202000426564202058
:1002F000203A202020202F202020002F20004D49B0
:100300005353494E472100483A2020202F202020D7
:1003100000486F74656E643A202020202F20202032
:10032000005363726962626C654A277320534A46C0
:100330005700534A465720627920536372696262BC
:100340006C654A0000010405050303040506040565
:100350000607010001000302010000010203040579
:10036000060707060504030201000702010007064D
:100370000504030201000302010000010203040559
:10038000060700010203040506072C002C002C00C0
:100390002C0032002C0000010001000100012300AC
:1003A00023002300230003010301000100012900B1
:1003B0002900290029002000200020002000200022
:1003C000200020002000260026002600260026000F
:1003D00026002600260029003200320032000901E2
:1003E00009010901090109010901090109012300A4
:1003F0002300230023002F002F002F002F002F00A9
:100400002F002F002F00060106010601060106013C
:10041000060106010601454550524F4D204F5645F5
:1004200052464C4F570021212041584953204152F8
:1004300045204E4F5420434F4E4649475552454460
:100440002021210A002045494E56200020455055C4
:100450004C4C200020494E56200020444953200097
:10046000206E6F206D61782000206E6F206D696EA8
:100470002000206E6F20656E61626C652000206E2A
:100480006F206469722000206E6F20737465702085
:1004900000206E6F20616363656C2000206E6F200A
:1004A00073746570735F7065725F756E6974200038
:1004B000494E46494E4954594E414ECDCCCC3D0A49
:1004C000D7233C17B7D13877CC2B329595E6241F2C
:1004D000B14F0A000020410000C84200401C4620E5
:1004E000BCBE4CCA1B0E5AAEC59D7400407A10F3B8
:1004F0005A00A0724E18090010A5D4E80000E87652
:1005000048170000E40B54020000CA9A3B000000A8
:10051000E1F505000080969800000040420F0000C1
:1005200000A08601000000102700000000E8030082
:100530000000006400000000000A0000000000014C
:1005400000000000002C76D888DC674F0823DFC14C
:10055000DFAE59E1B1B796E5E3E453C63AE6519907
:100560007696E8E6C28426EB898C9B62ED407C6F30
:10057000FCEFBC9C9F40F2BAA56FA5F490055A2AE7
:10058000F75C936B6CF9676DC11BFCE0E40D47FEF3
:10059000F520E6B500D0ED902E03009435770500E8
:1005A00080841E080000204E0A000000C80C33336F
:1005B00033330F986E12831141EF8D2114893BE67E
:1005C0005516CFFEE6DB18D1844B381BF77C1D9007
:1005D0001DA4BBE424203284725E228100C9F12470
:1005E000ECA1E53D27007121F932BF46E9782E8F55
:1005F00011241FBECFEFD1E2DEBFCDBF00E00CBFA4
:1006000013E0A0E0B2E0E6EDF1E301E00BBF02C0D1
:1006100007900D92A635B107D9F71EE1A6E5B3E024
:1006200001C01D92AE3FB107E1F715E0C0EFD5E084
:1006300004C02297FE010E94A092C63ED107C9F7CE
:100640000E945C150C94E9980C940000CF93DF9302
:10065000DC01EC01C853DE4FE881F98160838881B9
:100660009981019699838883AC53BE4F2D913C911B
:100670001197A45CB1408217930749F4AE53BE4F63
:100680004D915C911197A25CB140598348833FB76B
:10069000F894FD01E054FE4FC081D1812196D183B1
:1006A000C0833FBF6D917C916230710531F45091F0
:1006B000D10050625093D10005C07091C1007062AA
:1006C0007093C100DF91CF910895FC01A081B181A9
:1006D00011964C91119782818F7021E030E002C019
:1006E000220F331F8A95E2F7922F662311F0822F93
:1006F00001C080E090959423892B11968C930895E6
:10070000FC01A081B18112964C91129782818F7069
:1007100021E030E002C0220F331F8A95E2F7922FCA
:10072000662311F0822F01C080E090959423892BDD
:1007300012968C930895EF92FF920F931F93CF938D
:10074000DF93EC018AA5882311F090E061C0CE010F
:1007500060E00E948003CE01039661E00E94800366
:100760008E010B5E1F4FC80160E00E946503C80147
:1007700060E00E9480038E01085E1F4FC80160E0A8
:100780000E946503C80160E00E9480038E01055E3F
:100790001F4FC80160E00E946503C80160E00E942D
:1007A00080038E01025E1F4FC80160E00E94650356
:1007B000C80160E00E9480038E010A5F1F4FC801DC
:1007C00061E00E948003F8A02FE0F222EE8DFF8D01
:1007D000E080C80160E00E9480030091560300237E
:1007E00081F48E2D90E002C095958795FA94E2F7FA
:1007F0008170907080931E0311E01093560391E076
:1008000007C090911E031092560331E030931E03EF
:10081000892FDF91CF911F910F91FF90EF90089555
:10082000CF93DF93DC015FB7F894A751BD4F2D91B3
:100830003C9111975FBF9E918E91A75EB2402817A1
:10084000390708F04FC0ED01CF50DD4FE881F98145
:100850006083E881F9813196F983E883A351BD4F24
:100860006D917C911197AD5EB240E617F70749F4A0
:10087000A551BD4F2D913C911197AB5EB24039838C
:1008800028833FB7F894FD01E751FD4FC081D18126
:100890002196D183C0833FBFED01C350DD4FE88176
:1008A000F9814193F983E883A750BD4F4D915C9145
:1008B0001197A95FB240E417F50749F4A950BD4F5D
:1008C0008D919C911197A75FB240998388837FB7E0
:1008D000F894ED01CB50DD4FA881B9811196B98311
:1008E000A8837FBFDF91CF91089561E040E00E942F
:1008F00010040895DC01862F9796ED91FC9198974E
:10090000E40FF11D6081680F6068CD0140E00E9436
:100910001004089541E00E94100408950F931F935E
:10092000CF93DF938C01EB0103C0C8010E948A04BE
:1009300069916623D1F7DF91CF911F910F910895AF
:100940000F931F93CF93DF938C01EB0103C0C8017A
:100950000E948A04FE01219664916623C1F7DF910B
:10096000CF911F910F910895CF92DF92EF92FF9256
:100970000F931F937C01062F65E1C62ED12CC80E64
:10098000D91EC60161E00E94650310E0B8016170E4
:100990007070C6010E94800358E1C52ED12CCE0C88
:1009A000DF1CC60161E00E946503B801759567957B
:1009B00061707070C6010E9480033BE1C32ED12C90
:1009C000CE0CDF1CC60161E00E94650315950795FA
:1009D00015950795B80161707070C6010E9480037B
:1009E0009EE1C92ED12CCE0CDF1CC60161E00E9415
:1009F00065031595079501701070C601602F0E9460
:100A0000800386E090E0E80EF91EC70161E00E94D5
:100A10008003C70160E00E9480031F910F91FF9047
:100A2000EF90DF90CF9008950F931F93CF93DF93B4
:100A3000EC01CD56DC4F88819981C359D34004978E
:100A4000C4F08E010B5F1F4FC80160E043E00E94BD
:100A50007A04CF56DC4F288139812131310524F0C9
:100A6000C80168E471E003C0C80167E371E00E9457
:100A7000A004DF91CF911F910F9108950F931F93C1
:100A8000CF93DF938B01C091AB03D091AC03CE0128
:100A90000E94E748BC01600F711F77FF02C060E051
:100AA00070E0CE010E94FF48DF91CF911F910F911E
:100AB00008950F931F93CF93DF938B01C091AB03E6
:100AC000D091AC03CE010E94E148BC01600F711FC0
:100AD00077FF02C060E070E0CE010E94F948DF912C
:100AE000CF911F910F910895CF92DF92EF92FF92D5
:100AF0000F931F93CF93DF93EC018E8D9F8D8F5FAC
:100B00009F4F09F4D9C0DFB6F894FE01E151FD4FC3
:100B1000C551DD4F68817981718360832696798321
:100B20006883289719821882C95ED240DFBE2FB72A
:100B3000F894FE01E550FD4FC950DD4F48815981C1
:100B400051834083269659834883289719821882B7
:100B5000C55FD2402FBFCE0161E00E946503CE0188
:100B600060E00E948003E3E0EE2EF12CEC0EFD1E0F
:100B7000C70161E00E946503C70160E00E94800335
:100B800076E0C72ED12CCC0EDD1EC60161E00E949E
:100B90006503C60160E00E9480038E010B5E1F4F5B
:100BA000C80160E00E948003C80161E00E94650303
:100BB0008E01085E1F4FC80160E00E948003C801DB
:100BC00061E00E9465038E01055E1F4FC80160E071
:100BD0000E948003C80161E00E9465038E01025EED
:100BE0001F4FC80160E00E948003C80161E00E94BD
:100BF0006503C70161E00E946503C70160E00E94D0
:100C00008003CE0161E00E946503CE0160E00E9496
:100C10008003C60161E00E946503C60160E00E9496
:100C2000800364E670E080E090E00E94BE1CCE018C
:100C300063E00E94B4046AE070E080E090E00E940B
:100C4000BE1CCE0163E00E94B4046AE070E080E064
:100C500090E00E94BE1CCE0163E00E94B4046AE0F2
:100C600070E080E090E00E94BE1CCE0162E00E9435
:100C7000B4046AE070E080E090E00E94BE1C11E0E5
:100C800019A70DA1023010F460E001C068E06062B5
:100C9000CE0140E00E941004CE016CE040E00E94D2
:100CA0001004CE010E947504CE0164E040E00E9471
:100CB0001004CE010E947504DF91CF911F910F9116
:100CC000FF90EF90DF90CF9008950F931F938C01CA
:100CD0000C5B1C4F83E090E0F801918380830F53FD
:100CE0001340C8010E947405C8010E947504C80120
:100CF00066E871E00E94A0041F910F910895EF92A1
:100D0000FF920F931F938C01FFEFEF2EF2E0FF2E67
:100D1000E80EF91ECB01BA01A7012AE030E00E94DB
:100D20003E94C801B7010E948E041F910F91FF905D
:100D3000EF900895EF92FF920F931F93CF93DF935D
:100D4000EC018C010B5F1F4FC80162E040E00E9484
:100D50001004CF56DC4F88819981C159D340419707
:100D600044F0C80167E271E00E94A004C80168E095
:100D700007C0C8016DE171E00E94A004C80162E0F3
:100D800040E00E947A04E090AB03F090AC03C7010E
:100D90000E94F3489C0184E02030380731F4C801F8
:100DA00064E171E00E94A00426C0A901662757FDF6
:100DB0006095762FC8010E947F06CF56DC4F2881B0
:100DC0003981C159D3402131310514F466E001C0A5
:100DD0006BE0C80140E00E947A04C80161E171E063
:100DE0000E94A004C7010E94E748AC0160E070E0E7
:100DF000C8010E947F06C80160E041E00E947A04B9
:100E0000CF56DC4F48815981C159D34041315105FA
:100E100044F0C80161E071E00E94A004C80168E0EC
:100E200007C0C80167EF70E00E94A004C80162E03B
:100E300041E00E947A04C7010E94ED489C0184E0D1
:100E40002030380731F4C8016EEE70E00E94A00433
:100E500026C0A901662757FD6095762FC8010E941C
:100E60007F06CF56DC4F68817981C159D34061310B
:100E7000710514F466E001C06BE0C80141E00E9416
:100E80007A04C8016BEE70E00E94A004C7010E94C2
:100E9000E148AC0160E070E0C8010E947F06CF56D7
:100EA000DC4FA881B981C159D340A131B10514F4F7
:100EB0006CE001C060E1C80140E00E947A04C80112
:100EC00060E00E948A04C80162E00E948A04C801AE
:100ED00064E00E948A04C80166E00E948A04CF563A
:100EE000DC4FE881F981C159D340E131F10514F4B7
:100EF0006CE001C060E1C80141E00E947A04C801D1
:100F000061E00E948A04C80163E00E948A04C8016B
:100F100065E00E948A04C80167E00E948A04CE014D
:100F20000E941405DF91CF911F910F91FF90EF90D8
:100F300008950F931F93CF93DF938C010C5B1C4F8D
:100F400081E090E0F8019183808304541340E8012C
:100F50002596CE010E9475040E94A215882389F06F
:100F6000CE016BE771E00E94A004CE0160E041E099
:100F70000E947A040E94A815BC01CE010E948E0432
:100F800031C00E94A815FC012081222311F40E9487
:100F90007A19CE016CE671E00E94A004CE0160E0F7
:100FA00041E00E947A04CE0169E671E00E94A0044B
:100FB0000E94A815BC01CE010E948E040D561C4F44
:100FC000F80140815181035913404330510554F0D9
:100FD000CE0160E042E00E947A04CE016AE571E051
:100FE0000E94A004C8010E941405DF91CF911F91B7
:100FF0000F910895AF92BF92DF92EF92FF920F93FD
:101000001F93DF93CF93CDB7DEB7C156D1400FB654
:10101000F894DEBF0FBECDBF7C01D62E86E38617C7
:101020007CF092E369170CF087C0AAE26A1709F412
:1010300058C0B1E36B1769F0E3E26E1741F459C091
:10104000F7E36F1709F109E306170CF075C080E0AC
:1010500075C18701085B1C4F2CE433E0E20EF31EE0
:10106000D701ED91FC91D8016D917D918D919C916D
:1010700020813181428153810E94C58FF8016083B4
:1010800071838283938359C18701085B1C4F4CE4B1
:1010900053E0E40EF51ED701ED91FC91D8016D915E
:1010A0007D918D919C9120813181428153810E945B
:1010B000C48FF801608371838283938320E030E0E2
:1010C00040E050E00E94299088230CF036C180E077
:1010D00090E0A0E0B0E0F80180839183A283B38325
:1010E0002CC1F701E05BFC4FA08011E0A126A0829B
:1010F00024C18701045B1C4FD801ED91FC9111972D
:101100003496ED93FC933497648175818681978141
:1011100020E030E040E050E00E942990882309F070
:101120000CC16EE473E0E60EF71ED701ED90FC9063
:10113000F801F182E08201C1A0907E03B0907F03AC
:10114000C5010E945A21882309F409C1F6C044E56B
:1011500050E060E070E0F80145A356A367A370A7D4
:1011600022E030E033A322A3C501B801E4C021E0AE
:1011700030E040E050E0F80124A735A746A757A784
:1011800062E070E072A761A788E493E0E80EF91EC0
:1011900060919203709193038091940390919503D1
:1011A000D7012D913D914D915C910E94C48F20C03B
:1011B00021E030E040E050E0F80124A735A746A741
:1011C00057A782E090E092A781A748E453E0E40E9D
:1011D000F51E609192037091930380919403909116
:1011E0009503D7012D913D914D915C910E94C58F42
:1011F000F801608B718B828B938B01E010E0168776
:10120000058795C081E090E0A0E0B0E0F80184A7F8
:1012100095A7A6A7B7A742E050E052A741A768E468
:1012200073E0E60EF71E60918E0370918F0380913C
:10123000900390919103D7012D913D914D915C9137
:101240000E94C48F20C041E050E060E070E0F801EF
:1012500044A755A766A777A762E070E072A761A7C9
:1012600028E433E0E20EF31E60918E0370918F0349
:101270008091900390919103D7012D913D914D91D3
:101280005C910E94C58FF80161877287838794877C
:1012900001E010E0178306834AC041E050E060E0BF
:1012A00070E0F80144A755A766A777A722E030E0D1
:1012B00032A721A788E493E0E80EF91E6091960317
:1012C000709197038091980390919903D7012D9184
:1012D0003D914D915C910E94C58F20C021E030E08E
:1012E00040E050E0F80124A735A746A757A782E0C1
:1012F00090E092A781A768E473E0E60EF71E609184
:101300009603709197038091980390919903D70168
:101310002D913D914D915C910E94C48FF801678B96
:10132000708F818F928F01E010E0158B048BC501C7
:10133000BE0163577F4F0E94CC2181E0CF59DE4F21
:101340000FB6F894DEBF0FBECDBFCF91DF911F91D6
:101350000F91FF90EF90DF90BF90AF900895DE0166
:10136000A95BBF4F96E4FD0111929A95E9F718E544
:101370001B831A821982CE0101960980FD01019218
:10138000AF01FC01018011960C921197FA011183B3
:10139000FC01038013960C921397048014960C9210
:1013A0001497058015960C921597068016960C9248
:1013B000169779E57A8719861886088417960C920D
:1013C0001797098418960C92189719967C93199779
:1013D0000B841A960C921A970C841B960C921B97EE
:1013E0000D841C960C921C970E841D960C921D97D2
:1013F0005AE5598B188A1F860F841E960C921E97E9
:1014000008881F960C921F9750965C9350970A88F5
:1014100051960C9251970B8852960C9252970C88C9
:1014200053960C9253970D8854960C92549735E42A
:10143000388F1F8A1E8A5596FE01769687E00190A6
:101440000D928150E1F7BDE4BF8F1E8E1D8EDE012F
:10145000AD59BF4FFE017D9687E001900D928150FE
:10146000E1F7F7E4FEA31DA21CA2DE01A659BF4FBF
:10147000FE01B49687E001900D928150E1F7A6E459
:10148000ADA71CA61BA6DE01AF58BF4FFE01BB9641
:1014900087E001900D928150E1F720E52CAB1BAA6B
:1014A0001AAADE01A858BF4FFE01F29687E001900C
:1014B0000D928150E1F703E50BAF1AAE19AEDE01D4
:1014C000A158BF4FFE01F99687E001900D9281501F
:1014D000E1F734E5FE01EE5BFF4F3083FE01E05C97
:1014E000FF4F11821082DE01AA57BF4F87E00190A3
:1014F0000D928150E1F7DE01AD56BF4FFE01E95B71
:10150000FF4F87E001900D928150E1F7DE01A65672
:10151000BF4FFE01E25BFF4F87E001900D928150CB
:10152000E1F7DE01AF55BF4FFE01EB5AFF4F87E0F9
:1015300001900D928150E1F7DE01A855BF4FFE01E9
:10154000E45AFF4F87E001900D928150E1F7DE01F0
:10155000A155BF4FFE01ED59FF4F87E001900D925D
:101560008150E1F7DE01AA54BF4FFE01E659FF4F5B
:1015700087E001900D928150E1F7DE01A354BF4F47
:10158000FE01EF58FF4F87E001900D928150E1F787
:10159000DE01AC53BF4FFE01E858FF4F87E00190DA
:1015A0000D928150E1F7DE01A553BF4FFE01E158D6
:1015B000FF4F87E001900D928150E1F7DE01AE52BE
:1015C000BF4FFE01EA57FF4F87E001900D92815017
:1015D000E1F78E0103571F4FD80117961C921E92F8
:1015E0001697F8011186128613861486FE01E551BE
:1015F000FF4F1082118212821382FE01E550FF4FCD
:1016000010821E961C921E921D97F801108A118A54
:10161000128A138AFE01E151FF4F10821182128259
:101620001382FE01E450FF4F108255961C921E92C9
:101630005497F801178A108E118E128EFE01ED500C
:10164000FF4F1082118212821382FE01E350FF4F7E
:1016500010825C961C921E925B97F801168E178E74
:1016600010A211A2FE01E950FF4F108211821282D6
:101670001382FE01E250FF4F108293961C921E923D
:101680009297F80115A216A217A210A612A611A6EB
:101690009C961D921D921D921C929F97D1961C9212
:1016A0001E92D09713AA14AA15AA16AA10AE17AAAA
:1016B000DA961D921D921D921C92DD97DF961C9268
:1016C0001E92DE97FE01E253FF4F108211821282BA
:1016D000138211961C921E92FE01E752FF4F108258
:1016E0001182128213824FEF5FEF6FEF7FEFF801ED
:1016F000428353836483758380E090E0A0E0B0E090
:10170000FE01EF51FF4F80839183A283B383FE01DB
:10171000E951FF4F1082118212821382FE01E150C3
:10172000FF4F11821082FE01EA5EFE4F108211828D
:1017300012821382FE01E25DFE4F1082118212823C
:101740001382FE01EE5CFE4F108211821282138220
:10175000FE01E65CFE4F1082118212821382F5E3D5
:10176000DF1609F4F4CCFD1564F083E3D81609F410
:1017700094CD8D150CF446CD52E3D51609F0D7CD96
:10178000F6CC78E3D71609F413CD69E3D61609F43D
:10179000A5CD96E3D91609F0CACD55CDAF92BF922B
:1017A000CF92DF92EF92FF920F931F936C0179011A
:1017B0008A010E948E04AFEFAA2EA2E0BA2EAC0CD2
:1017C000BD1CC801B70145E021E085010E94A4923B
:1017D000C601B5010E948E041F910F91FF90EF90FA
:1017E000DF90CF90BF90AF900895EF92FF920F934C
:1017F0001F93CF93DF93EC018C010B5F1F4F209160
:101800008E0330918F034091900350919103C80152
:1018100060E072E00E94CE0BC80168E040E00E94E8
:101820007A04209192033091930340919403509154
:101830009503C80163E072E00E94CE0BC80160E02E
:1018400041E00E947A0420919603309197034091E1
:10185000980350919903C80166E072E00E94CE0B94
:10186000CD56DC4F88819981C359D34038E4E32EAB
:1018700033E0F32EEC0EFD1E03970CF45DC0C8019F
:1018800068E041E00E947A0420919A0330919B0322
:1018900040919C0350919D03C80169E072E00E9451
:1018A000CE0BC80160E042E00E947A04F70120817B
:1018B000318142815381C8016CE072E00E94CE0BFD
:1018C000CF56DC4F28813981C159D340FE01E45BFA
:1018D000FC4F213131055CF00190F081E02D208139
:1018E000318142815381C80162E172E00AC00190F6
:1018F000F081E02D2081318142815381C80168E16E
:1019000072E00E94CE0BC80160E043E00E947A04BE
:10191000C05BDC4FE880C055D340EE2029F42AE1BB
:10192000E22E22E0F22E04C09EE1E92E92E0F92E92
:10193000C80162E272E029C0F70120813181428151
:101940005381C8016CE272E00E94CE0BC45BDC4F95
:10195000E881F9812081318142815381C80168E1A8
:1019600072E00E94CE0B2496F880C055D340FF2031
:1019700029F48FE2E82E82E0F82E04C0B1E3EB2ECA
:10198000B2E0FB2EC80163E372E00E948E04C8013E
:10199000B7010E948E04CF56DC4F488159814131F6
:1019A000510554F1C80160E140E00E947A04C80189
:1019B00060E00E948A04C80162E00E948A04C801B3
:1019C00064E00E948A04C80166E00E948A04C8019B
:1019D00060E141E00E947A04C80161E00E948A044B
:1019E000C80163E00E948A04C80165E00E948A047D
:1019F000C80167E00E948A04DF91CF911F910F9187
:101A0000FF90EF900895CF93DF93EC01FC01EC5B26
:101A1000FC4F808191818617970759F161307105DC
:101A2000B9F0623071051CF4672B41F022C06230BE
:101A3000710591F063307105E1F418C011821082D4
:101A4000CE0105960E947504CE010E949A0611C02F
:101A5000CE010E9499070DC071836083CE01059667
:101A60000E947504CE010E94F50B03C0CE010E94B6
:101A70006506DF91CF9108952F923F924F925F922A
:101A80006F927F928F929F92AF92BF92CF92DF928E
:101A9000EF92FF920F931F93DF93CF93CDB7DEB7F3
:101AA0002E970FB6F894DEBF0FBECDBF9E878D87F1
:101AB000F5E0CF2ED12CC80ED91EDC019E968C915C
:101AC000882309F42CC1C6010E949B03882309F0D6
:101AD00026C12FB7F894ED85FE85E251FD4F808138
:101AE0009181EE5EF240FE87ED872FBF892B09F4CE
:101AF00016C127A4DF01AC50BD4F222089F4ED911F
:101B0000FC9100814D855E8540505D4FDA01ED917D
:101B1000FC911197A050B340BE87AD8710815FC084
:101B20008D909C901197F40101912F011196FC93D7
:101B3000EE936D857E856E507D4FFB0160807180D8
:101B4000E25FF240FE87ED874614570451F4E051FE
:101B5000FD4FA080B180E05FF240FE87ED87AD923F
:101B6000BC923FB6F894ED85FE85E251FD4F808131
:101B700091810197918380833FBE4D855E85405062
:101B80005D4FDA01ED91FC9111971191ED93FC936A
:101B90008D859E8582509D4FDC01ED90FC901197C4
:101BA000AE5FB240BE87AD87EE15FF0561F4A4506D
:101BB000BD4F2D913C911197AC5FB240BE87AD8770
:101BC000FA01318320835FB6F894ED85FE85E650F7
:101BD000FD4FA081B1811197B183A0835FBE8D8538
:101BE0009E85089660E00E9480038D859E850596FF
:101BF000612F0E948003EAE1EE2EF12C2D843E84B9
:101C0000E20CF31CC70161E00E946503AD85BE854F
:101C10009F967C90772019F484E090E002C080E0E9
:101C200090E010E0B80102C0759567958A95E2F7DB
:101C300061707070C7010E9480037DE1E72EF12C76
:101C40004D855E85E40EF51EC70161E00E946503C7
:101C5000ED85FE8597A4992019F485E090E002C0F7
:101C600081E090E0B80102C0759567958A95E2F72A
:101C700061707070C7010E94800360E2E62EF12C53
:101C80004D845E84E40CF51CC70161E00E9465038D
:101C9000AD85BE859F96BC90BB2019F486E090E090
:101CA00002C082E090E0B80102C0759567958A9500
:101CB000E2F761707070C7010E94800353E2E52E65
:101CC000F12C6D847E84E60CF71CC70161E00E9454
:101CD0006503ED85FE8537A5332319F487E090E091
:101CE00002C083E090E002C0159507958A95E2F75F
:101CF00001701070C701602F0E948003ED85FE8582
:101D0000F7A491E0F926F7A68F01055F1F4FC801E0
:101D100061E00E948003C80160E00E9480030D859D
:101D20001E850C5D1C4FD8016D917C91BFEF6F3FFC
:101D30007B0709F40DC50E946E1D3B014C01AA24CE
:101D4000BB2440E3442E43E0542EAD85BE854A0EAD
:101D50005B1E32E3232E33E0332E2A0E3B1EAD5C96
:101D6000BC4FBA83A983ED85FE85EB5CFC4FFC83F9
:101D7000EB836D857E856A5C7C4F7E836D834D85AC
:101D80005E85485C5C4F58874F832D853E85275C78
:101D90003C4F3A8729878D859E85855C9C4F9C8723
:101DA0008B87C801F92E802F61E00E946503802F88
:101DB0009F2D60E00E948003D201ED91FC91808113
:101DC00010E090E0F10150815F70052E02C0959502
:101DD00087950A94E2F780FDDFC4DDC4EE24E39426
:101DE000A981BA81ED91FC91808190E0EB81FC8129
:101DF00070817F70072E02C0959587950A94E2F74F
:101E000080FD02C0F2E0EF2AAD81BE81ED91FC9130
:101E1000808190E0EF81F885B081BF700B2E02C009
:101E2000959587950A94E2F780FD02C034E0E32A95
:101E3000A985BA85ED91FC91808190E0EB85FC85C8
:101E400050815F70052E02C0959587950A94E2F740
:101E500080FD02C098E0E92AC80160E00E946503A5
:101E6000C80160E00E948003EE2009F450C0E0FE4B
:101E700003C080E090E00EC0E1FE03C081E090E08E
:101E800009C0E2FE03C082E090E004C0E3FE3FC070
:101E900083E090E0880F991F0D851E85045C1C4F20
:101EA000D801ED91FC911197AC53B340BE87AD873B
:101EB000E80FF91F0190F081E02DEA0DFB1D108164
:101EC000FD01ED5BFC4FA080A15CBC4F1A1559F4DD
:101ED0002D903D904D905C90139762147304840490
:101EE0009504B8F535C41083ED85FE85E25CFC4FA2
:101EF0001081EE53F340FE87ED87610E711C811C4B
:101F0000911C6D927D928D929C92139721C4ED85C8
:101F1000FE85E15CFC4F80819181A281B3810097B5
:101F2000A105B10509F414C486159705A805B905DE
:101F300008F00EC410821182128213828D859E8554
:101F40008D5B9C4FDC011C92A354B340BE87AD87D0
:101F5000FFC3112309F495C0ED85FE858480181513
:101F600009F48FC0EC5BFC4F80819181E454F34015
:101F7000FE87ED878130910509F449C082309105D3
:101F800009F457C0892B09F05BC0163329F11733C8
:101F900044F4133399F01433B1F0113309F050C005
:101FA00008C0193349F1143471F1173309F048C0EE
:101FB0001CC08D859E8565E070E01BC08D859E856B
:101FC00065E070E01DC08091AB039091AC0360E0D0
:101FD00070E00E94FF48BEC38091AB039091AC03B8
:101FE00060E070E00E94F948B5C38D859E856BEF77
:101FF0007FEF0E943E05AEC38D859E856BEF7FEF20
:102000000E945905A7C3C6010E947405A3C30E947C
:10201000A2158823A9F4133229F0163389F40E94FB
:102020007A1902C00E9446198D859E850E949907E3
:1020300028C08D859E85612F0E94FA07882309F5A7
:10204000123479F013341CF41134D9F405C013346C
:1020500069F01434B1F40FC08D859E8560E070E0A6
:102060000EC08D859E8561E070E009C08D859E85DE
:1020700062E070E004C08D859E8563E070E00E94A0
:10208000030DED85FE8514830E94601D9B01AC014C
:10209000ED85FE8540805180628073807B018C01DC
:1020A000E418F50806091709D801C701815D9740B2
:1020B000A040B04008F456C3208331834283538349
:1020C0000091AB031091AC03C8010E94F3485C017E
:1020D000C8010E94E7483501681A790AC30162E025
:1020E00070E00E946992CB01683071051CF087E0B6
:1020F00090E006C0FFEF683F7F0714F488EF9FEF82
:1021000044275527481B590B495F5F4FAD85BE8556
:10211000AF5ABC4FED85FE85EF59FC4F20E030E013
:102120001CC09160908B60896F71608B80A1992732
:1021300087FD9095880F991F982F80A32417350746
:1021400011F4916090A370A17F7170A32F5F3F4F36
:10215000119631962031310561F18C91992787FDD7
:102160009095880F991F982F8C93308034FE02C071
:1021700091609C939C919F719C938081992787FD8E
:102180009095880F991F982F8083508854FE02C025
:102190009160908310811F7110838089992787FD3A
:1021A0009095880F991F982F808B70A074FCB9CFE1
:1021B000BACF31E5832E33E0932E8D859E85880E30
:1021C000991EC60160E440E00E941004C601D401DB
:1021D0006D911D010E948A04C601F40161810E9473
:1021E0008A0451010894A11CB11CC601D1011196A9
:1021F0006C910E948A0485010F5F1F4FC601F50193
:1022000061810E948A0438010894611C711CC60116
:10221000D80111966C910E948A0483010F5F1F4FB1
:10222000C601F30161810E948A04C601D80111969A
:102230006C910E948A04C6010F5F1F4FF8016181F3
:102240000E948A04AD85BE859C96ED91FC919D9778
:1022500060816068C60140E00E94100429E5E22E1A
:1022600023E0F22E4D855E85E40EF51EC60168E47E
:1022700040E00E941004C601D7016D912D010E941B
:102280008A04C601F70161810E948A044201089410
:10229000811C911CC601D20111966C910E948A0486
:1022A00084010F5F1F4FC601F40161810E948A04FF
:1022B00018010894211C311CC601D80111966C919B
:1022C0000E948A0481010F5F1F4FC601F1016181E5
:1022D0000E948A04C601D80111966C910E948A045A
:1022E000C6010F5F1F4FF80161810E948A04AD850E
:1022F000BE859C96ED91FC919D9760816068C601BA
:1023000040E00E94100491E6A92E93E0B92E8D853D
:102310009E85A80EB91EC60160E540E00E9410042B
:10232000C601D5016D913D010E948A04C601F501E7
:1023300061810E948A0473010894E11CF11CC601AA
:10234000D30111966C910E948A0487010F5F1F4F81
:10235000C601F70161810E948A0428010894411C8A
:10236000511CC601D80111966C910E948A04820109
:102370000F5F1F4FC601F20161810E948A04C601EE
:10238000D80111966C910E948A04C6010F5F1F4FFD
:10239000F80161810E948A04AD85BE859C96ED910D
:1023A000FC919D9760816068C60140E00E94100426
:1023B00089E6882E83E0982E4D855E85840E951ED5
:1023C000C60168E540E00E941004C601D4016D9189
:1023D0001D010E948A04C601F40161810E948A04E1
:1023E00051010894A11CB11CC601D10111966C9138
:1023F0000E948A0485010F5F1F4FC601F5016181AC
:102400000E948A0438010894611C711CC601D8011D
:1024100011966C910E948A0483010F5F1F4FC601C1
:10242000F30161810E948A04C601D80111966C9162
:102430000E948A04C6010F5F1F4FF80161810E944C
:102440008A04AD85BE859C96ED91FC919D97608137
:102450006068C60140E00E94100401E7E02E03E03E
:10246000F02E8D859E85E80EF91EC60160E640E0DF
:102470000E941004C601D7016D912D010E948A04AB
:10248000C601F70161810E948A0442010894811CFF
:10249000911CC601D20111966C910E948A0484019C
:1024A0000F5F1F4FC601F40161810E948A04180169
:1024B0000894211C311CC601D80111966C910E9410
:1024C0008A0481010F5F1F4FC601F10161810E94E3
:1024D0008A04C601D80111966C910E948A04C60133
:1024E0000F5F1F4FF80161810E948A04AD85BE8590
:1024F0009C96ED91FC919D9760816068C60140E0DB
:102500000E94100419E7A12E13E0B12E4D855E85BF
:10251000A40EB51EC60168E640E00E941004C60184
:10252000D5016D913D010E948A04C601F5016181CA
:102530000E948A0473010894E11CF11CC601D301B6
:1025400011966C910E948A0487010F5F1F4FC6018C
:10255000F70161810E948A0428010894411C511CE2
:10256000C601D80111966C910E948A0482010F5F06
:102570001F4FC601F20161810E948A04C601D80181
:1025800011966C910E948A04C6010F5F1F4FF801DB
:1025900061810E948A04AD85BE859C96ED91FC9177
:1025A0009D9760816068C60140E00E941004B1E818
:1025B0008B2EB3E09B2E8D859E85880E991EC601BD
:1025C00060E740E00E941004C601D4016D911D0136
:1025D0000E948A04C601F40161810E948A045101AB
:1025E0000894A11CB11CC601D10111966C910E94E6
:1025F0008A0485010F5F1F4FC601F50161810E94AA
:102600008A0438010894611C711CC601D801119616
:102610006C910E948A0483010F5F1F4FC601F30172
:1026200061810E948A04C601D80111966C910E94B2
:102630008A04C6010F5F1F4FF80161810E948A045E
:10264000AD85BE859C96ED91FC919D9760816068FB
:10265000C60140E00E941004A9E8EA2EA3E0FA2E89
:102660004D855E85E40EF51EC60168E740E00E94D8
:102670001004C601D7016D912D010E948A04C60184
:10268000F70161810E948A0442010894811C911C17
:10269000C601D20111966C910E948A0484010F5FD9
:1026A0001F4FC601F40161810E948A041801089439
:1026B000211C311CC601D80111966C910E948A041C
:1026C00081010F5F1F4FC601F10161810E948A04E1
:1026D000C601D80111966C910E948A04C6010F5F51
:1026E0001F4FF80161810E948A04AD85BE859C96CA
:1026F000ED91FC919D9760816068C60140E00E9469
:102700001004ED85FE85EC5BFC4F80819181E454E3
:10271000F340FE87ED87892B19F4CF010E949A06BA
:102720004D855E854C5B5C4FFA0120813181E4541C
:10273000F340FE87ED8722303105A1F4C60162E047
:1027400040E00E9410048D859E850E94F50B0AC012
:1027500010E097CCC6010E9475048D859E850E946D
:102760009A068FCC2E960FB6F894DEBF0FBECDBF63
:10277000CF91DF911F910F91FF90EF90DF90CF905D
:10278000BF90AF909F908F907F906F905F904F9091
:102790003F902F90089511E0A981BA81ED91FC91AD
:1027A000808190E0EB81FC81B081BF700B2E02C074
:1027B000959587950A94E2F780FF1260AD81BE81FE
:1027C000ED91FC91808190E0EF81F88530813F7040
:1027D000032E02C0959587950A94E2F780FF146056
:1027E000A985BA85ED91FC91808190E0EB85FC850F
:1027F00050815F70052E02C0959587950A94E2F787
:1028000080FF1860802F9F2D60E00E946503802F5D
:102810009F2D60E00E948003112341F010FD29CB21
:1028200011FD2CCB12FD2FCB13FD32CBF1E0AF2EDF
:10283000B12CE7E2EE2EE3E0FE2E0D851E85E00EC4
:10284000F11EC70161E00E946503C70160E00E94BC
:102850008003D201ED91FC91808110E090E0F101C4
:1028600070817F70072E02C0959587950A94E2F7D4
:1028700080FF11E0A981BA81ED91FC91808190E007
:10288000EB81FC8160816F70062E02C09595879563
:102890000A94E2F780FF1260AD81BE81ED91FC9158
:1028A000808190E0EF81F88520812F7002C095959E
:1028B00087952A95E2F780FF1460A985BA85ED9186
:1028C000FC91808190E0EB85FC8540814F70042E67
:1028D00002C0959587950A94E2F780FF1860C701BA
:1028E00060E00E946503C70160E00E94800311233D
:1028F00041F010FDBECA11FDC1CA12FDC4CA13FDCC
:10290000C7CA71E0A72EB12C0894A11CB11C850187
:10291000000F111F0A0D1B1D0C5D1C4FED84FE8462
:102920000E0D1F1DC80161E00E946503C80160E033
:102930000E948003D201ED91FC918081EE2490E011
:10294000F101B081BF700B2E02C0959587950A9456
:10295000E2F780FD02C0EE24E394A981BA81ED91F3
:10296000FC91808190E0EB81FC8130813F70032EEF
:1029700002C0959587950A94E2F780FD02C0F2E0C7
:10298000EF2AAD81BE81ED91FC91808190E0EF81D5
:10299000F88550815F70052E02C0959587950A9441
:1029A000E2F780FD02C094E0E92AA985BA85ED919D
:1029B000FC91808190E0EB85FC8570817F70072E13
:1029C00002C0959587950A94E2F780FD02C088E0E1
:1029D000E82AC80160E00E946503C80160E00E9427
:1029E0008003EE2041F0E0FC44CAE1FC47CAE2FC6F
:1029F0004ACAE3FC4DCA52E0A52EB12C0894A11C92
:102A0000B11C8501000F111F0A0D1B1D0C5D1C4F11
:102A10002D853E85020F131FC80161E00E946503EA
:102A2000C80160E00E948003D201ED91FC91808199
:102A3000EE2490E0F10160816F70062E02C0959542
:102A400087950A94E2F780FDCBC9C8C9EF92FF923F
:102A50000F931F93CF93DF93C0917E03D0917F0399
:102A6000E090A703F090A8030091AB031091AC0392
:102A7000CE010E945A28CE010E94892FC7010E94D0
:102A8000941BCE010E945A28C8010E94C349CE015E
:102A90000E945A280E94704ACE010E945A280E9421
:102AA0002516CE010E945A288DEA93E00E943C0D23
:102AB000CE010E945A28DCCF0F931F93CF93DF9350
:102AC00078940E94B81C0E94BA150E945619C091B1
:102AD000A703D091A803882371F010E003C0CE01B2
:102AE0000E942603E12FF0E0E95CFD4F60811F5F4B
:102AF0006623A9F70FC010E003C0CE010E94260391
:102B0000E12FF0E0EB5BFD4F60811F5F6623A9F7CB
:102B10000E943E4B0091A7031091A803C4EED0E0A1
:102B200003C0C8010E942603FE012196649166231A
:102B3000C1F70E94261580E090E0DF91CF911F91B0
:102B40000F91089580916F03089580917103089506
:102B50008FE593E0089510926F0380915D0390914B
:102B60005E03009711F00E94837910925E03109229
:102B70005D03089580916F03882311F00E94AB15C7
:102B800080915B0390915C03009731F00E94167B6B
:102B900010925C0310925B038091590390915A0349
:102BA000009731F00E943C7910925A031092590319
:102BB0008091570390915803009731F00E947383DE
:102BC00010925803109257030895DF93CF9300D0CB
:102BD0000F92CDB7DEB790E0A0E0B0E0B095A09541
:102BE000909581959F4FAF4FBF4F89839A83AB8359
:102BF000BC8380915D0390915E03BE016F5F7F4F48
:102C000041E00E94D37A0F900F900F900F90CF91D8
:102C1000DF91089580915D0390915E0360E773E01A
:102C200041E050E00E94897910927103181619064C
:102C30001CF481E08093710308951F931091700339
:102C40000E940A16812F1F9108958F929F92AF9232
:102C5000BF92CF92DF92EF92FF921F93DF93CF93B9
:102C6000CDB7DEB7A0970FB6F894DEBF0FBECDBFCD
:102C700080916F03882309F497C080907E03909021
:102C80007F03C4010E945A21882309F08DC0A090BF
:102C90007103AA2019F40E94AB1586C0FE0131967B
:102CA00010E2DF011D921A95E9F7EE24FF245F017F
:102CB00009C00894E11CF11C6701209171032223D3
:102CC00079F084C0C0907103CC2051F01091700352
:102CD0000E940A16F501EE0DFF1D108311324CF70C
:102CE000BE016F5F7F4FFB01EE0DFF1D3081313262
:102CF0000CF455C0A091A703B091A80360E0AD010A
:102D000048535E4FF4ECAF2EF1E0BF2EAA0EBB1E6F
:102D1000E2ECCE2EE1E0DE2ECA0EDB1E70ECE72EDA
:102D200071E0F72EEA0EFB1E31C0FA0120813181DD
:102D3000F9018083FA0180819181019691838083DA
:102D4000F501808091808815990531F4F601808025
:102D50009180FA01918280829FB6F894F7012081D8
:102D600031812F5F3F4F318320839FBE8D919C9196
:102D70001197029731F47091D10070627093D10075
:102D800005C09091C10090629093C100E62FF0E0E1
:102D9000ED5AFD4F80816F5F882339F605C0C4016D
:102DA0004E2D21E00E94B523A0960FB6F894DEBF09
:102DB0000FBECDBFCF91DF911F91FF90EF90DF90BD
:102DC000CF90BF90AF909F908F9008951091700317
:102DD0000E940A16F501EE0DFF1D108311320CF44E
:102DE0007FCF0894E11CF11C40917103442309F446
:102DF00077CF109170030E940A16F501EE0DFF1DAA
:102E0000108311320CF46CCF52E0E52EF12CEC0C57
:102E1000FD1C50917103552309F462CF109170038A
:102E20000E940A16F501EE0DFF1D108311320CF4FD
:102E300057CF43E0E42EF12CEC0CFD1C60917103A4
:102E4000662309F44DCF109170030E940A16F50114
:102E5000EE0DFF1D108311320CF442CF34E0E32E4F
:102E6000F12CEC0CFD1CA0917103AA2309F438CFBE
:102E7000109170030E940A16F501EE0DFF1D1083DC
:102E800011320CF42DCF25E0E22EF12CEC0CFD1CC0
:102E9000B0917103BB2309F423CF109170030E94FA
:102EA0000A16F501EE0DFF1D108311320CF418CF38
:102EB00096E0E92EF12CEC0CFD1CF0917103FF2340
:102EC00009F40ECF109170030E940A16F501EE0D61
:102ED000FF1D108311320CF403CF87E0E82EF12C94
:102EE000EC0CFD1CF0E2EF16F10409F4F9CEEACE89
:102EF000EF92FF920F931F93CF93DF938C017B018F
:102F00000EC0C701B8010E942794009741F4809138
:102F10005B0390915C030E941C7B81E009C080915F
:102F20005B0390915C03B7010E94C77C882349F73B
:102F3000DF91CF911F910F91FF90EF900895EF9245
:102F4000FF920F931F93DF93CF93CDB7DEB7AB976D
:102F50000FB6F894DEBF0FBECDBF7B018E010F5FB1
:102F60001F4FB8010E947817882359F080915903A8
:102F700090915A03B8010E948482F7019183808363
:102F800081E0AB960FB6F894DEBF0FBECDBFCF91F8
:102F9000DF911F910F91FF90EF900895BF92CF9214
:102FA000DF92EF92FF920F931F93DF93CF93CDB7F2
:102FB000DEB7AB970FB6F894DEBF0FBECDBF8C0166
:102FC000A5E0BA2E7E010894E11CF11CC62EDD247A
:102FD0000894C108D10880915B0390915C03B7010C
:102FE0000E94C77C882349F1A0E0B0E0C60183704D
:102FF00090700097B1F50EC0F801EA0FFB1F8083B7
:1030000011969D01F701EA0FFB1F8081882309F0CB
:103010004CC009C0AC15BD0534F4F701EA0FFB1F25
:103020008081882349F7F801EA0FFB1F10821A16E6
:103030001B062CF0BA9479F602C0F801108280E0E9
:1030400090E0AB960FB6F894DEBF0FBECDBFCF9128
:10305000DF911F910F91FF90EF90DF90CF90BF9085
:103060000895AC15BD05FCF6F70120812223D9F2A5
:10307000F8012083A1E0B0E08130910559F2029778
:1030800041F0F7018181882371F2F8018183A2E088
:10309000B0E0F701EA0FFB1F8081882321F2F801DD
:1030A000EA0FFB1F80831196B5CFF801EA0FFB1FD3
:1030B00080831196F701EA0FFB1FE081EE2309F4EC
:1030C000B2CFA00FB11FEC93D9011296F701EA0F0E
:1030D000FB1FE081EE2309F4A6CFA00FB11FEC93F4
:1030E000D901139697CF0F931F93DF93CF93CDB74B
:1030F000DEB7AB970FB6F894DEBF0FBECDBF8091A1
:10310000590390915A0368E572E08E010F5F1F4FDB
:10311000A8010E94BC828091590390915A03B80182
:103120000E94478290935C0380935B0320E0892B8D
:1031300009F021E0822FAB960FB6F894DEBF0FBEE8
:10314000CDBFCF91DF911F910F91089580915703CB
:10315000909158030E94B38090935A03809359032F
:1031600020E0892B09F021E0822F08950F9389E652
:1031700096E86DE577E840E050E020E030E000E0E0
:103180000E947B839093580380935703892B79F493
:1031900089E696E86DE577E840E050E020E030E031
:1031A0000FEF0E947B83909358038093570320E096
:1031B0008091570390915803892B09F021E0822FC9
:1031C0000F9108950E94CD87882371F40E94728424
:1031D000882329F40E94BA1521E030E029C00E941A
:1031E000BA1522E030E024C00E94B618882329F4E2
:1031F0000E94BA1523E030E01BC00E94A618882365
:1032000029F40E94BA1524E030E012C00E9473181D
:10321000882329F40E94BA1525E030E009C00E94F5
:103220007484882319F420E030E002C026E030E006
:10323000C9010895CF93DF93EC010E94BA150E9453
:10324000E2189C01009719F08630910599F41092CC
:103250005E0310925D03CE016DE573E00E949F173F
:10326000882331F080915D0390915E03892B31F4C6
:1032700027E030E0C901DF91CF91089521E020934C
:103280006F030E940A1620E030E0F4CF80916F03B4
:10329000882311F020E008C08FE593E00E941A19FE
:1032A00020E0892B09F421E0822F089580916F039B
:1032B000882311F020E008C08AE592E00E941A19E4
:1032C00020E0892B09F421E0822F08950E94BA158D
:1032D0000E94E2189C01009719F08630910541F494
:1032E00080915B0390915C030E941C7B20E030E0A6
:1032F000C901089580915F03882311F40E94661923
:103300008FE593E060E10E94CE17892B21F4209194
:103310005F032E32A9F38FE593E00895CF93DF93F7
:10332000DC01EC01C853DE4FE881F98160838881BC
:103330009981019699838883AC53BE4F2D913C911E
:103340001197A45CB1408217930749F4AE53BE4F66
:103350004D915C911197A25CB140598348833FB76E
:10336000F894FD01E054FE4FC081D1812196D183B4
:10337000C0833FBF6D917C916230710531F45091F3
:10338000D10050625093D10005C07091C1007062AD
:103390007093C100DF91CF9108951F939A01AB0103
:1033A0001FB7F894809164008D7F80936400223071
:1033B00086E9380780E0480780E0580740F062E07F
:1033C0006093C00060E874E88EE190E006C010925F
:1033D000C00060E472E48FE090E00E947C92CA0139
:1033E000B9010E94C69020E030E040E05FE30E9417
:1033F000C48F0E949A907093C5006093C40048E106
:103400004093C10036E03093C2002091C100206A91
:103410002093C1001FBF1F9108950F931F93FC01BC
:103420008296DF01A651BF4F08EC10E011961C9365
:103430000E93E451FF4F1182108232968193919343
:10344000A193B1938193919391838083E45FF04042
:10345000CF018A509F4FDF01A254BE4F11961C939B
:103460000E93E054FE4F1182108232968193919315
:10347000A193B19381939193819391931082EA5C8C
:10348000F14031832083CF010E94CD191F910F910C
:1034900008950F931F93FC018296DF01A651BF4F41
:1034A00008EC10E011961C930E93E451FF4F11822B
:1034B0001082329681939193A193B19381939193CA
:1034C00091838083E45FF040CF018A509F4FDF01FA
:1034D000A254BE4F11961C930E93E054FE4F1182DE
:1034E0001082329681939193A193B193819391939A
:1034F000819391931082EA5CF14031832083CF0164
:103500000E94CD191F910F9108951F939A01AB014D
:103510001FB7F894809165008D7F809365002230FD
:1035200086E9380780E0480780E0580740F062E00D
:103530006093D00060E874E88EE190E006C01092DD
:10354000D00060E472E48FE090E00E947C92CA01B7
:10355000B9010E94C69020E030E040E05FE30E94A5
:10356000C48F0E949A907093D5006093D40048E174
:103570004093D10036E03093D2002091D100206AF0
:103580002093D1001FBF1F9108951F920F920FB675
:103590000F920BB60F9211242F933F934F938F935B
:1035A0009F93AF93BF93CF93DF93EF93FF93A0913C
:1035B000A703B091A8034091C600ED01CC50DF4FA6
:1035C000E881F98140838881998101969983888374
:1035D000A051BF4F2D913C911197A05FB040821731
:1035E000930749F4A251BF4F2D913C911197AE5EC4
:1035F000B040398328833FB7F894FD01E451FF4F71
:10360000C081D1812196D183C0833FBF413230F444
:10361000ED01C653DE4F48814F5F4883FF91EF9124
:10362000DF91CF91BF91AF919F918F914F913F913A
:103630002F910F900BBE0F900FBE0F901F901895FB
:103640001F920F920FB60F920BB60F9211242F9369
:103650003F938F939F93AF93BF93CF93DF93EF935A
:10366000FF93A091A703B091A8032FB7F894A0549B
:10367000BE4F8D919C911197A05CB1402FBF892BBB
:1036800049F1ED01CA53DE4FE881F9813191F983A7
:10369000E883AC53BE4F8D919C911197A45CB140CF
:1036A000E817F90749F4AE53BE4F8D919C911197DD
:1036B000A25CB140998388832FB7F894ED01C05480
:1036C000DE4FA881B9811197B983A8832FBF3093AA
:1036D000C60005C03091C1003F7D3093C100FF910D
:1036E000EF91DF91CF91BF91AF919F918F913F91DA
:1036F0002F910F900BBE0F900FBE0F901F9018953B
:103700001F920F920FB60F9211240F900FBE0F90C1
:103710001F9018951F920F920FB60F9211240F90C1
:103720000FBE0F901F9018958F929F92AF92BF92ED
:10373000CF92DF92EF92FF920F931F93DF93CF937D
:10374000CDB7DEB7A0970FB6F894DEBF0FBECDBFE2
:103750007C010AEC11E0E00EF11EF701808126E306
:103760003EEFE20EF31E882309F487C080917E03AA
:1037700090917F030E945A21882309F07EC09FB751
:10378000F894F701E653FE4F1081115010839FBF4C
:10379000AE014F5F5F4F30E0D701AE50BF4F80EFBB
:1037A000C82ED12CCE0CDF1C870102511F4FB70150
:1037B00064517F4FAD90BC901197F501B1904F01CE
:1037C0001196FC93EE93F6018081918188169906FB
:1037D00031F4F8018080918011969C928E929FB670
:1037E000F894FB01808191810197918380839FBE32
:1037F000FA01B082F0E2FB15A4F53F5FA32E4F5F04
:103800005F4F8D909C901197F401B1904F011196EC
:10381000FC93EE93F601808191818816990609F058
:1038200045C03EC010E003C0C7010E942603E12F3F
:10383000F0E0E959FD4F60811F5F6623A9F710E0B2
:1038400003C0C7010E942603E12FF0E0E559FD4FB8
:1038500060811F5F6623A9F7C7016AE00E94260303
:103860000CC080917E0390917F03BE016F5F7F4FFC
:10387000432FF70120810E94B523A0960FB6F8943C
:10388000DEBF0FBECDBFCF91DF911F910F91FF9093
:10389000EF90DF90CF90BF90AF909F908F90089562
:1038A000F8018081918111969C938E939FB6F89434
:1038B000FB01808191810197918380839FBEFA01F2
:1038C000B08220E22B156CF63A2D3F5F8D909C90D4
:1038D0001197F401B1904F011196FC93EE93F6010C
:1038E000808191818816990631F4F8018081918157
:1038F00011969C938E932FB7F894FB018081918150
:103900000197918380832FBFFA01B18290E29B15CA
:103910000CF0A7CF3A2D3E5F8D909C901197F4014B
:10392000B1904F011196FC93EE93F6018081918145
:103930008816990631F4F8018081918111969C9343
:103940008E939FB6F894FB018081918101979183BA
:1039500080839FBEFA01B282F0E2FB150CF081CFAA
:103960003A2D3D5F4D5F5F4F303209F023CF5ACF84
:1039700023E025BD81E080936E000895AF92BF9251
:10398000CF92DF92EF92FF920F931F930E94C69007
:103990005B016C0120E030E04AE755E40E947C9135
:1039A0007B018C0120E030E040E85FE30E94299039
:1039B00088231CF461E070E041C0C801B70120E039
:1039C0003FEF4FE757E40E94789118160CF032C091
:1039D000C601B50120E030E040E251E40E947C9154
:1039E0000E949A9040E951E09B01277030702115A8
:1039F000310509F02FC01AC0DA011197F1F7CA0199
:103A00000197F1F7FA013197F1F7DA011197F1F720
:103A1000CA010197F1F7FA013197F1F7DA0111972D
:103A2000F1F7CA010197F1F768507040611571050F
:103A300019F707C0C801B7010E949A90FB0131979E
:103A4000F1F71F910F91FF90EF90DF90CF90BF9013
:103A5000AF900895CA010197F1F76150704021308D
:103A6000310521F32230310529F123303105E9F008
:103A700024303105A9F02530310569F026303105B3
:103A800029F0DA011197F1F761507040FA0131978E
:103A9000F1F761507040CA010197F1F76150704031
:103AA000DA011197F1F761507040FA013197F1F79F
:103AB00061507040CA010197F1F761507040B6CF74
:103AC0008FB7F89420917A0330917B0340917C0367
:103AD00050917D038FBFB901CA0108956FB7F89463
:103AE00086B590E0A0E0B0E0A89B08C00097A105D3
:103AF000B10521F480E091E0A0E0B0E020917203F4
:103B00003091730340917403509175036FBF542F2C
:103B1000432F322F2227280F391F4A1F5B1F82E0B5
:103B2000220F331F441F551F8A95D1F7B901CA01CF
:103B300008951F920F920FB60F9211242F938F9317
:103B40009F93AF93BF938091720390917303A09161
:103B50007403B09175030196A11DB11D809372038A
:103B600090937303A0937403B093750380917603CD
:103B700090917703A0917803B09179038050904C95
:103B8000AF4FBF4F8093760390937703A093780352
:103B9000B093790327C08091760390917703A09129
:103BA0007803B091790380589E43A040B040809341
:103BB000760390937703A0937803B0937903809171
:103BC0007A0390917B03A0917C03B0917D030196D1
:103BD000A11DB11D80937A0390937B03A0937C0376
:103BE000B0937D038091760390917703A091780341
:103BF000B091790381589E43A040B04060F6BF91D8
:103C0000AF919F918F912F910F900FBE0F901F90AA
:103C10001895CF93DF93DC01EC01C853DE4FE881A8
:103C2000F981608388819981019699838883AC5357
:103C3000BE4F2D913C911197A45CB1408217930720
:103C400049F4AE53BE4F4D915C911197A25CB140C7
:103C5000598348833FB7F894FD01E054FE4FC0817B
:103C6000D1812196D183C0833FBF6D917C91623019
:103C7000710531F45091D10050625093D10005C0CC
:103C80007091C10070627093C100DF91CF9108956F
:103C90000F931F93CF93DF938C01EB0103C0C801F7
:103CA0000E942603FE01219664916623C1F7DF91ED
:103CB000CF911F910F910895FC01178216821186F2
:103CC000128613861486E25AFF4F108211821282E6
:103CD000138270961082EE56F04016861586108A72
:103CE000118A128A138AEE59FF4F108211821282B2
:103CF00013823D961082EF56F040158A148A178A77
:103D0000108E118E128EEA59FF4F1082118212828C
:103D100013823A961082E057F040148E138E168E5E
:103D2000178E10A211A2E659FF4F10821182128243
:103D3000138237961082E157F04013A212A215A207
:103D400016A217A210A612A611A614A615A616A6AC
:103D500017A611AA10AA13AA14AA15AA16AA10AE79
:103D600017AA12AE13AE14AE15AE17AE16AEEF5BB9
:103D7000FF4F1082118212821382E154F0401182AF
:103D80001082E45BFF4F1082118212821382EC5486
:103D9000F0402FEF3FEF4FEF5FEF228333834483F9
:103DA0005583EC5AFF4F80E090E0A0E0B0E08083C4
:103DB0009183A283B383369610821182128213827A
:103DC0007896118210827796108211821282138265
:103DD0007896119211921192119210821182128290
:103DE0001382389610821182128213820895DF9313
:103DF000CF93CDB7DEB7CC58D0400FB6F894DEBF26
:103E00000FBECDBFAC01DE01A95BBF4F76E4FD0163
:103E100011927A95E9F71A82198228E52B83CE014F
:103E200001960980FD010192BF01FC0101801196FC
:103E30000C921197FB012183FC01038013960C92D5
:103E40001397048014960C921497058015960C9283
:103E50001597068016960C9216971986188639E5DE
:103E60003A87088417960C921797098418960C9233
:103E7000189719963C9319970B841A960C921A97D7
:103E80000C841B960C921B970D841C960C921C970D
:103E90000E841D960C921D97188A1F862AE5298B81
:103EA0000F841E960C921E9708881F960C921F97DF
:103EB00050962C9350970A8851960C9251970B88E4
:103EC00052960C9252970C8853960C9253970D88E9
:103ED00054960C9254971F8A1E8A85E4888F5596B3
:103EE000FE01769687E001900D928150E1F71E8EDB
:103EF0001D8E9DE49F8FDE01AD59BF4FFE017D9663
:103F000087E001900D928150E1F71DA21CA2A7E469
:103F1000AEA3DE01A659BF4FFE01B49687E0019023
:103F20000D928150E1F71CA61BA6B6E4BDA7DE01E9
:103F3000AF58BF4FFE01BB9687E001900D928150B4
:103F4000E1F71BAA1AAAF0E5FCABDE01A858BF4FA7
:103F5000FE01F29687E001900D928150E1F71AAED2
:103F600019AE33E53BAFDE01A158BF4FFE01F99614
:103F700087E001900D928150E1F7FE01E05CFF4F78
:103F80001182108284E5DE01AE5BBF4F8C93DE01AF
:103F9000AA57BF4F87E001900D928150E1F7DA01F7
:103FA0001696FE01E95BFF4F87E001900D9281506C
:103FB000E1F79A01235F3F4FD901FE01E25BFF4F1A
:103FC00087E001900D928150E1F7295F3F4FD901C1
:103FD000FE01EB5AFF4F87E001900D928150E1F70F
:103FE000295F3F4FD901FE01E45AFF4F87E001905E
:103FF0000D928150E1F7295F3F4FD901FE01ED5944
:10400000FF4F87E001900D928150E1F7295F3F4F0C
:10401000D901FE01E659FF4F87E001900D928150D2
:10402000E1F7295F3F4FD901FE01EF58FF4F87E0CD
:1040300001900D928150E1F7295F3F4FD901FE01B8
:10404000E858FF4F87E001900D928150E1F7295F1A
:104050003F4FD901FE01E158FF4F87E001900D92DB
:104060008150E1F7D9011796FE01EA57FF4F87E02B
:1040700001900D928150E1F7CA010E945C1EC45765
:10408000DF4F0FB6F894DEBF0FBECDBFCF91DF91EB
:104090000895EF92FF920F931F938091940A8823C3
:1040A00009F0EEC00CEA1AE0C8010E94F71E81E890
:1040B0009BE00E94F71E86E59CE00E94F71E8BE2C3
:1040C0009DE00E94F71E80E09EE00E94F71E85EDB5
:1040D0009EE00E94F71E8AEA9FE00E94F71E8FE78B
:1040E00090E10E94F71E84E591E10E94F71E89E2AB
:1040F00092E10E94F71E8EEF92E10E94F71E83ED7F
:1041000093E10E94F71E88EA94E10E94F71E8DE772
:1041100095E10E94F71E82E596E10E94F71E4FE0AE
:1041200050E0509328174093271710922A171092A7
:10413000291710932C1700932B1727E237E13093A0
:104140002E1720932D171093301700932F171093CD
:1041500032170093311783E397E10E94F71E88E03E
:1041600098E10E94F71E8DED98E10E94F71E82EB08
:1041700099E10E94F71E87E89AE10E94F71E83E307
:1041800097E10E945C1E10925D1B10925C1B1092C6
:10419000661BEE24EA94FE2C8701E0926B1BF092E2
:1041A0006C1B00936D1B10936E1B10927F1B109263
:1041B000841B10928B1B88E098E10E945C1E109279
:1041C0005F1B10925E1B1092671BE0926F1BF092B8
:1041D000701B0093711B1093721B1092801B109226
:1041E000851B10928C1B8DED98E10E945C1E109235
:1041F000611B1092601B1092681BE092731BF0927F
:10420000741B0093751B1093761B1092811B1092E8
:10421000861B10928D1B82EB99E10E945C1E10920E
:10422000631B1092621B1092691BE092771BF09245
:10423000781B0093791B10937A1B1092821B1092AB
:10424000871B10928E1B87E89AE10E945C1E1092D9
:10425000651B1092641B10926A1BE0927B1BF0920C
:104260007C1B00937D1B10937E1B1092831B10926E
:10427000881B10928F1B10928A1B01E00093940AF6
:104280008CEA9AE01F910F91FF90EF900895E22F32
:10429000F0E0EE0FFF1FEE0FFF1FE80FF91FE154D4
:1042A000FF4E4150504060407040408351836283D4
:1042B00073830895FC014FB7F894E358F34F2081BE
:1042C00031814FBF40E0929182912817390708F061
:1042D00041E0842F0895FC01E352FF4E81E080838A
:1042E00008950E94492090937F0380937E03089550
:1042F000AF92BF92CF92DF92EF92FF920F931F93F4
:10430000CF93DF93EC015B0169017A0110E003C0F8
:10431000CE010E942603F501E10FF11D60811F5FB0
:104320006623B1F7AE014E5F5F4FC701B6012AE0C9
:1043300030E00E943E9410E003C0CE010E942603AC
:10434000FE01E10FF11D62811F5F6623B1F70023BB
:1043500021F0CE016AE00E942603DF91CF911F91E8
:104360000F91FF90EF90DF90CF90BF90AF900895A6
:104370008091840A882369F488E99BE140E051EE4A
:1043800060E070E020E030E00E940D1A21E0209310
:10439000840A88E99BE10895EF92FF920F931F939F
:1043A000CF93DF937C018B0130E0DB0192968D91FE
:1043B0009C919397892B09F431E020E0F801C1A585
:1043C000D2A5209709F421E0321709F4C7C1C8012A
:1043D0000E94164085E89CE0E80EF91ED701CD91B9
:1043E000DC916BE773EFE60EF71ED8014D915C91FF
:1043F00011975983488312962D913D914D915C916F
:1044000015972A833B834C835D839E012A5F3F4F30
:10441000C801069646E4DC010D90F9010192BF0146
:10442000FC010180F901018211960C90DB011196CB
:104430000C92FC010380D90113960C92139704800F
:1044400014960C921497058015960C921597068079
:1044500016960C921697078017960C921797008461
:1044600018960C92189701840A9619960C92265F5A
:104470003F4F4A5081F6C45BDF4F045B1F4FF8018A
:1044800001911191219131910993199329933993B4
:1044900021913191419151912993399349935993A4
:1044A00081919191A191B19189939993A993B99394
:1044B000DF012D913D918D01299339934D915D91AE
:1044C0006D917C910A551040488359836A837B83A0
:1044D000CA55D040DE01A25ABF4FA801425A5F4FD1
:1044E000FA0101909F01FD010192BF01FA010180D3
:1044F00011960C921197F9010180FB010182FA01DA
:10450000038013960C921397048014960C921497C0
:10451000058015960C921597068016960C921697A4
:10452000078017960C921797008418960C9218978C
:10453000018419960C92199702841A960C921A9774
:1045400003841B960C921B9704841C960C921C9758
:1045500005841D960C921D9706841E960C921E973C
:1045600007841F960C9202591F4FF8018191919177
:10457000A191B191C259DF4F89939993A993B993AE
:10458000DF014D915D9149935993FD0131918F0167
:10459000399320813181428153810557104028830E
:1045A00039834A835B83C557D040DE01A758BF4F8C
:1045B000F801E758FF4F80E101900D928150E1F73B
:1045C000C757DF4F07571F4FF801019111912191F4
:1045D0003191099319932993399321913191419103
:1045E0005191299339934993599381919191A19133
:1045F000B19189939993A993B99341915191619103
:104600007191499359936993799381919191A19172
:10461000B19189939993A993B993019111912191A2
:1046200031910993199329933993219131914191B2
:104630005191299339934993599381919191A191E2
:10464000B19189939993A993B993419151916191B2
:104650007191499359936993799381919191A19122
:10466000B19189939993A993B99301911191219152
:104670003191099319932993399321913191419162
:104680005191299339934993599381919191A19192
:10469000B19189939993A993B99341915191619162
:1046A0007191499359936993799381919191A191D2
:1046B000B19189939993A993B99301911191219102
:1046C0003191099319932993399321913191419112
:1046D0005191299339934993599381919191A19142
:1046E000B19189939993A993B9939E014081518186
:1046F00062817381F9014083518362837383F7017F
:10470000EB57F34F808191818B529F4F9183808330
:1047100061E87CE0E60EF71ED701CD91DC91AFE7B2
:10472000B3EFEA0EFB1E8C179D0769F48FE79CE040
:10473000E80EF91ED701CD91DC91A1E8B3EFEA0EA6
:10474000FB1ED183C0831FB7F894F701E358F34FE2
:10475000C081D1812196D183C0831FBFDF91CF91CA
:104760001F910F91FF90EF9008953F924F925F92AB
:104770006F927F928F929F92AF92BF92CF92DF9271
:10478000EF92FF920F931F93CF93DF936C018B01F6
:10479000942E322EE42EFF2427010894411C511C34
:1047A000CB01B2010E94D94AA32CBB24F501E85ADF
:1047B000F74FEE0FFF1FEC0DFD1D80819181892BBE
:1047C00041F4D8012C912E3421F441E050E0518382
:1047D0004083F501E85AF74FEE0FFF1FEC0DFD1D6A
:1047E000608171816130710509F054C0F80177244E
:1047F00020E030E0B6016A0D7B1DEB01C654DF4EB0
:10480000A7014370507090819A3209F0BDC303C074
:1048100090819A3219F51082322F3F5FF501E85AE4
:10482000F74FEE0FFF1FEC0DFD1D82E090E091832E
:10483000808361527F4EEB0168806F5D704166201E
:1048400001F1EB01C654DF4E6D527F4E5881DB0102
:104850009C91590F5058520F588313C08880892655
:104860008882B081B0321CF41082772473942F5F59
:104870003F4FA9013196DF0190819A3209F0D7C3E9
:10488000CACF3323A1F0C801830F911D0E94CE939C
:10489000682E07C0F801E90DF11D3081303224F493
:1048A00066247724739404C06624772401C06624A8
:1048B000F601EA0DFB1DED52FF4E7081790D7F5F11
:1048C0007083E801C90DD11D1882992019F4772051
:1048D00009F448C345ED50E0A49E4001A59E900C0C
:1048E000B49E900C112427E83CE0820E931E8C0CA1
:1048F0009D1CE601CA0DDB1DCD52DF4E888190E084
:104900008415950519F4C4010E945C1E1092F91ECD
:104910001092F81ED8018C918E3429F18F3484F4D2
:10492000863409F41AC1873424F4853409F003C2AB
:10493000A1C1873409F4FFC08D3409F0FCC17DC0EA
:10494000883509F41CC189353CF4803509F4C7C1A8
:10495000833509F0F0C1D5C1893509F439C18A35EB
:1049600009F0E9C15EC1C80101960E94EC937B0188
:104970008C011616170618061906BCF0F501EE0F85
:10498000FF1FEE0FFF1FEC0DFD1DE154FF4E0894BD
:10499000E108F10801091109E082F1820283138321
:1049A0000894E11CF11C011D111DE501CC0FDD1F58
:1049B000CC0FDD1FCC0DDD1DC154DF4E88819981E8
:1049C000AA81BB810196A11DB11D88839983AA8309
:1049D000BB8365ED70E0A69EF001A79EF00DB69E2C
:1049E000F00D1124EC0DFD1DE757F34F80839183EB
:1049F000A283B38388819981AA81BB818E159F058B
:104A0000A007B10709F497C1F4E03F1629F4E88242
:104A1000F9820A831B838FC10E94B82165E772E087
:104A2000A801970101E00E947821E601CA0DDB1D73
:104A3000C852DF4E01E008837EC1C80101960E9482
:104A4000EC9345ED50E0A49E2001A59E500CB49E31
:104A5000500C11244C0C5D1C82010455134FD801DD
:104A60006D937D938D939C931397E201C755D34F1C
:104A700022E030E0398328836059714080409040C3
:104A8000A1F40E94824B19821882F80110821182CF
:104A9000128213820E94B82166EC71E00E94481EC7
:104AA0000E94B8216AE00E94260365ED70E0A69E90
:104AB000E001A79ED00DB69ED00D1124CC0DDD1DBA
:104AC000C455D34F88819981AA81BB818259914075
:104AD000A040B04009F02FC10E94B8216EEB71E0F8
:104AE0000E94481E0E941A4B882329F00E94B82178
:104AF00068EB71E004C00E94B82163EB71E00E9492
:104B0000481E0E94B8216AE00E94260305ED10E0CD
:104B1000A09EF001A19EF00DB09EF00D1124EC0DB1
:104B2000FD1DE755F34F11821082339610821182DA
:104B30001282138200C1C80101960E94EC9325EDF8
:104B400030E0A29EF001A39EF00DB29EF00D112464
:104B5000EC0DFD1DED54F34FE5C0C80101960E9418
:104B6000CA93A5EDB0E0AA9EF001AB9EF00DBA9EEF
:104B7000F00D1124EC0DFD1DE654F34FEBC145ED96
:104B800050E0A49EE001A59ED00DB49ED00D11244E
:104B9000CC0DDD1DC755D34F88819981C95ADC40A2
:104BA000892B09F490C1C455D34F88819981AA817A
:104BB000BB81CC5ADC408C529140A040B0400CF4F8
:104BC00082C1C80101960E94EC93C057D34F7DC0AB
:104BD00065ED70E0A69EE001A79ED00DB69ED00DBB
:104BE0001124CC0DDD1DC755D34FE881F981C95A79
:104BF000DC40309709F479C1C455D34F888199813D
:104C0000AA81BB81CC5ADC408C529140A040B0407C
:104C10000CF46BC1C80101960E94EC93C956D34FA6
:104C200054C025ED30E0A29EE001A39ED00DB29EBF
:104C3000D00D1124CC0DDD1DC755D34FA881B981EE
:104C4000C95ADC40109709F462C1C455D34F88811A
:104C50009981AA81BB81CC5ADC408C529140A04002
:104C6000B0400CF454C1C80101960E94EC93C256A6
:104C7000D34F2BC045ED50E0A49EE001A59ED00D82
:104C8000B49ED00D1124CC0DDD1DC755D34FE88146
:104C9000F981C95ADC40309709F44BC1C455D34F50
:104CA000288139814A815B81CC5ADC402C32E1E099
:104CB0003E07E0E04E07E0E05E070CF43AC1C801B1
:104CC00001960E94EC93CB55D34F688379838A83F6
:104CD0009B83239702E010E0198308832CC0C8014E
:104CE00001960E94EC93C5EDD0E0AC9EF001AD9E24
:104CF000F00DBC9EF00D1124EC0DFD1DEF53F34F94
:104D000011C0C80101960E94EC93A5EDB0E0AA9EE7
:104D1000F001AB9EF00DBA9EF00D1124EC0DFD1DBF
:104D2000E853F34F6083718382839383339782E0E8
:104D300090E091838083772009F414C1F501E85A4B
:104D4000F74FEE0FFF1FEC0DFD1D0190F081E02DE0
:104D50003097B1F1E601CA0DDB1D3297C9F4C65494
:104D6000DF4E5880CA5BD041561451F10E94B821E1
:104D7000F501EE0FFF1FEE0FFF1FEC0DFD1DE154BF
:104D8000FF4E208131814281538163E872E011C07E
:104D90000E94B821F501EE0FFF1FEE0FFF1FEC0D73
:104DA000FD1DE154FF4E208131814281538161E933
:104DB00072E001E00E947821C852DF4E11E01883B2
:104DC000E501C85AD74FCC0FDD1FCC0DDD1D198270
:104DD0001882F601EA0DFB1DE654FF4E1082EA5BD5
:104DE000F041EF01CD52DF4E5881513029F4C4011A
:104DF0000E945C1E1882B6C01882E852FF4E708076
:104E0000772009F443C094E0391639F40E94B821A0
:104E100065E971E00E94481E19C00E94B8213C015A
:104E2000F501EE0FFF1FEE0FFF1FEC0DFD1DE1540E
:104E3000FF4E20813181428153816EE972E000E0B2
:104E40000E947821C3016AE00E942603E501CC0F8D
:104E5000DD1FCC0FDD1FCC0DDD1DC154DF4E888161
:104E60009981AA81BB810197A109B109888399839E
:104E7000AA83BB83C4010E945C1ECA0CDB1C68EDC4
:104E800070E1C60ED71ED6011C926CC045ED50E0F5
:104E9000A49EF001A59EF00DB49EF00D1124EC0D22
:104EA000FD1DE152F34FB182A082C601B4010E9400
:104EB000CC21332009F056C00E94B82160E971E08E
:104EC0000E94481E4FC0C80101960E94CA9325ED5A
:104ED00030E0A29EF001A39EF00DB29EF00D1124D1
:104EE000EC0DFD1DE057F34F35C0C80101960E943F
:104EF000CA9305ED10E0A09EF001A19EF00DB09EBA
:104F0000F00D1124EC0DFD1DE956F34F23C0C8012F
:104F100001960E94CA93A5EDB0E0AA9EF001AB9E57
:104F2000F00DBA9EF00D1124EC0DFD1DE256F34F6D
:104F300011C0C80101960E94CA93C5EDD0E0AC9E95
:104F4000F001AD9EF00DBC9EF00D1124EC0DFD1D89
:104F5000EB55F34F6083718382839383339781E0B2
:104F600090E0E7CEDF91CF911F910F91FF90EF90EE
:104F7000DF90CF90BF90AF909F908F907F906F9079
:104F80005F904F903F900895888089268882F8012D
:104F9000B081B0321CF410827724739421E030E0A9
:104FA000F8013196E216F3060CF481CC4115510557
:104FB00009F42ECC4130510549F142305105B1F090
:104FC000D80111969C919A3209F425CC6880692603
:104FD0006882D80111965C911197503224F4119691
:104FE0001C92772473942F5F3F4F319690819A32B1
:104FF00009F411CC888189278883908190321CF430
:105000001082772473942F5F3F4F319690819A32AC
:1050100009F401CCB881B927B883408140321CF42F
:105020001082772473942F5F3F4F31963EC02881C2
:1050300029272883308130321CF41082772473941E
:105040009A012F5F3F4FFD01319611969C91119768
:105050009A3209F4E0CBE881E927E8831196FC91C4
:105060001197F0322CF411961C92119777247394B7
:105070009A012E5F3F4FFD01329612969C91129736
:105080009A3209F4C8CB88808926888212969C912E
:10509000129790322CF412961C92129777247394E4
:1050A0009A012D5F3F4FFD013396E216F3060CF097
:1050B000AFCBFDCB4F925F926F927F928F929F9278
:1050C000AF92BF92CF92DF92EF92FF920F931F9316
:1050D000DF93CF93CDB7DEB7C55DD0400FB6F89460
:1050E000DEBF0FBECDBF7C012FB7F8944DE75CE06B
:1050F000E40EF51ED7018D919C91E3E8F3EFEE0EDF
:10510000FF1E2FBF892B09F4A5C387010D57134F2D
:10511000D801ED91FC91608171816330710509F0D6
:105120003DC2CF010E94793DF80120813181D90132
:105130006D907C9011977A82698212964D905D9065
:105140006D907C9015974B825C826D827E82F90116
:1051500006800F82078008860084098601840A86FB
:1051600002840B8603840C8604840D86A901435FA8
:105170005F4FDE011E96FA0187E001900D9281508B
:10518000E1F7495F5F4FDE015596FA0187E0019034
:105190000D928150E1F7495F5F4FDE015C96FA01A5
:1051A00087E001900D928150E1F7495F5F4FDE018A
:1051B0009396FA0187E001900D928150E1F7495FE3
:1051C0005F4FDE019A96FA0187E001900D928150BF
:1051D000E1F7495F5F4FDE01D196FA0187E0019068
:1051E0000D928150E1F7495F5F4FDE01D896FA01D9
:1051F00087E001900D928150E1F7495F5F4FDE013A
:10520000DF96FA0187E001900D928150E1F7DE010F
:10521000AA5BBF4FFA01379687E001900D9281504B
:10522000E1F7245B3F4FF9014190519061907190FB
:10523000AF01FE01E35BFF4F4082518262827382C5
:10524000FA0181919191A191B1919F01FE01EF5AD3
:10525000FF4F80839183A283B383F9010191119160
:10526000219131916F01FE01EB5AFF4F00831183B1
:1052700022833383D601AD90BD909D01FE01E75A94
:10528000FF4FB182A0828D909D90AD90BC902A5529
:105290003040FE01E55AFF4F80829182A282B382A4
:1052A000DE01A15ABF4FF901E25AFF4F80E10190A0
:1052B0000D928150E1F722593F4FF901019111916F
:1052C000219131915F01FE01E159FF4F008311836C
:1052D00022833383D5018D909D90FE01ED58FF4FC1
:1052E00091828082FD0151909F01FE01EB58FF4F9A
:1052F0005082F90160807180828093802557304010
:10530000FE01EA58FF4F6082718282829382DE0141
:10531000A658BF4FF901E758FF4F80E101900D9269
:105320008150E1F727573F4FF90181919191A19168
:10533000B1918F01FE01E657FF4F80839183A283D5
:10534000B383F801A190B190C190D190BF01FE014B
:10535000E257FF4FA082B182C282D382FB018190CB
:105360009190A190B1903F01FE01EE56FF4F8082D7
:105370009182A282B382F301419051906190719029
:10538000AF01FE01EA56FF4F408251826282738272
:10539000FA0121913191419151916F01FE01E6563F
:1053A000FF4F2083318342835383F6018191919192
:1053B000A191B1918F01FE01E256FF4F808391834D
:1053C000A283B383F801A190B190C190D190BF01A5
:1053D000FE01EE55FF4FA082B182C282D382FB0153
:1053E00081909190A190B1903F01FE01EA55FF4F4D
:1053F00080829182A282B382F301419051906190A8
:105400007190AF01FE01E655FF4F408251826282EA
:105410007382FA0121913191419151916F01FE0105
:10542000E255FF4F2083318342835383F6018191FC
:105430009191A191B1918F01FE01EE54FF4F8083B4
:105440009183A283B383F801A190B190C190D190D0
:10545000BF01FE01EA54FF4FA082B182C282D38213
:10546000FB0181909190A190B1903F01FE01E65423
:10547000FF4F80829182A282B382F30141905190CA
:1054800061907190AF01FE01E254FF4F4082518262
:1054900062827382FA0121913191419151916F01A0
:1054A000FE01EE53FF4F2083318342835383F60185
:1054B00081919191A191B1918F01FE01EA53FF4F2A
:1054C00080839183A283B383F801A190B190C190AE
:1054D000D190BF01FE01E653FF4FA082B182C2828C
:1054E000D382FB0181909190A190B1903F01FE0188
:1054F000E253FF4F80829182A282B382F301408007
:10550000518062807380FE01EE52FF4F40825182D3
:1055100062827382F701ED57F34F808191818B5244
:105520009F4F9183808341E85CE0E40EF51ED70134
:10553000CD90DC902FE733EFE20EF31E8C159D0526
:1055400069F42FE73CE0E20EF31ED701CD90DC902A
:10555000A1E8B3EFEA0EFB1ED182C0829FB6F89499
:10556000F701E358F34FA081B1811197B183A08374
:105570009FBE10928103109280037FB6F8946DE76E
:105580007CE0E60EF71EF7018081918143E853EF3E
:10559000E40EF51E7FBE892B09F45CC12DED30E1D0
:1055A000E20EF31ED701BC9003E21FEEE00EF11EE7
:1055B000BB2009F45DC000E010E0ADE7AA2EACE02E
:1055C000BA2EAE0CBF1CF3E8CF2EFCE0DF2ECE0CC3
:1055D000DF1CB7016F57734FEFE78E2EECE09E2E66
:1055E0008E0C9F1C2BC0D601ED91FC91A801980157
:1055F000277030702115310509F044C118C09F0192
:105600002B523F4FFB01408051802415350519F482
:10561000D4012D913C91415050402B523F4FFB0102
:10562000608071802615370509F0A0C19CC1411525
:10563000510529F7118210820F5F1F4F3FB7F89471
:10564000D5018D919C913FBF0817190760F20E9408
:105650003A338091A7039091A80362ED71E00E9414
:10566000481E4DED50E1E40EF51EF7011082F2C028
:1056700023E83CE0E20EF31EF701808191810E9455
:10568000E03FDFB6F8940AEF1FEFE00EF11ED701FE
:105690008D909C9063E873EFE60EF71EDFBE2091BD
:1056A00080033091810334012815390508F439014C
:1056B00071E0A72EB12C62E0862E912C53E8452E86
:1056C0005CE0552E4E0C5F1C41E8C42E4CE0D42EFD
:1056D000CE0CDF1C87010158134F8EED90E1E80ED0
:1056E000F91EABC0D2018D919C91F6016081718150
:1056F0000894A108B108A501477050700894A11C36
:10570000B11C8B529F4F8617970709F065C361C381
:105710008B529F4F8617970719F4F801808191816A
:10572000215030408B529F4F8617970709F0BAC31C
:10573000B6C30E94BC3FF7015081552309F477C0DE
:105740008614970408F073C0D2016D917C91FB011F
:10575000A4019401277030702115310509F07EC233
:1057600018C09F012B523F4FF6018081918128176D
:10577000390719F4D8012D913C91415050402B52DA
:105780003F4FF601808191812817390709F0DBC26C
:10579000D7C24115510529F740815181413051054A
:1057A00009F045C0D601ED91FC910894A108B1081B
:1057B000A501477050700894A11CB11CCB018B52FD
:1057C0009F4F8E179F0709F0ACC1A8C18B529F4F06
:1057D0008E179F0719F4D8018D919C91215030406C
:1057E0008B529F4F8E179F0709F001C2FDC1A40184
:1057F0009401277030702115310509F0FDC012C0E9
:105800006B527F4F6E177F0719F4D8016D917C9111
:105810009A01215030406B527F4F6E177F0709F07D
:1058200049C145C14115510559F70E94A73F089448
:10583000A11CB11C0894811C911CA614B70408F487
:1058400051CF8091800390918103019690938103C1
:1058500080938003CB52DF4F0FB6F894DEBF0FBEAC
:10586000CDBFCF91DF911F910F91FF90EF90DF900F
:10587000CF90BF90AF909F908F907F906F905F90F0
:105880004F900895EB52FF4FDB014D905C90E41573
:10589000F50519F4D401ED91FC91A8014150504057
:1058A0002130310509F4C3CE2230310509F44DC051
:1058B00023303105E9F12430310569F12530310516
:1058C000E9F02630310569F0EB52FF4FDB016D90B6
:1058D0007C90E615F70519F4D401ED91FC91415047
:1058E0005040EB52FF4FDB012D913C91E217F30743
:1058F00019F4D401ED91FC9141505040EB52FF4F0F
:10590000DB018D919C91E817F90719F4D401ED9111
:10591000FC9141505040EB52FF4FDB014D905C90A9
:10592000E415F50519F4D401ED91FC914150504076
:10593000EB52FF4FDB016D907C90E615F70519F4F3
:10594000D401ED91FC9141505040EB52FF4FDB01EF
:105950002D913C91E217F30719F4D401ED91FC91DC
:105960004150504064CEF401208131812B523F4F91
:10597000DB018D919C912817390719F4F4012081DE
:1059800031812B523F4FDB014D905C902415350542
:1059900019F4F401208131812B523F4FDB016D90CE
:1059A0007C902615370519F4F401208131812B52A2
:1059B0003F4FDB018D919C912817390719F4F401B1
:1059C000208131812B523F4FDB014D905C9024159B
:1059D000350519F4F40120813181F901EB52FF4FB3
:1059E000DB012D913C91E217F30719F4D401ED91FD
:1059F000FC91475050401BCE6B527F4F6E177F0774
:105A000019F4D8016D917C91A4014150504021308E
:105A1000310509F407CF22303105F1F1233031058A
:105A200089F12430310521F125303105B9F02630D6
:105A3000310551F06B527F4F6E177F0719F4D80173
:105A40006D917C91415050406B527F4F6E177F0794
:105A500019F4D8016D917C91415050406B527F4FA9
:105A60006E177F0719F4D8016D917C914150504019
:105A70006B527F4F6E177F0719F4D8016D917C919F
:105A8000415050406B527F4F6E177F0719F4D80179
:105A90006D917C91415050406B527F4F6E177F0744
:105AA00019F4D8016D917C9141505040BBCED80182
:105AB0006D917C916B527F4F6E177F0719F4D8015F
:105AC0006D917C916B527F4F6E177F0719F4D8014F
:105AD0006D917C916B527F4F6E177F0719F4D8013F
