:100000000C94F8020C9424030C9424030C94240301
:100010000C9424030C9424030C9424030C942403C4
:100020000C9424030C9424030C9424030C942403B4
:100030000C9424030C9424030C9424030C942403A4
:100040000C9424030C94D15E0C9424030C9424038C
:100050000C9424030C9424030C9424030C94A01DEE
:100060000C9424030C94CC1A0C94271B0C9424039A
:100070000C9424030C943A890C9424030C942403C8
:100080000C9424030C9424030C9424030C94240354
:100090000C9424030C9424030C9424030C94240344
:1000A0000C9424030C9424030C9424030C94240334
:1000B0000C9424030C9424030C9424030C94240324
:1000C0000C9424030C9424030C9424030C94871B99
:1000D0000C94911B0C9424030C9424030C9424037F
:1000E0000C94240373746172740A002F20004D492C
:1000F0005353494E472100423A2020202F202020F0
:10010000004265642020203A202020202F2020203B
:10011000002F20004D495353494E472100483A20B3
:1001200020202F20202000486F74656E643A202024
:1001300020202F202020005363726962626C654A80
:10014000277320534A465700534A46572062792066
:100150005363726962626C654A00363D4E4558547D
:1001600020233D5052494E54003E20005344204627
:10017000696C652053656C656374005072696E74B8
:10018000696E673A20004D41494E204D454E55005D
:100190006F6B200A005741524E494E473A20534553
:1001A00052494F555320454550524F4D20464149E5
:1001B0004C0A004641494C00424547494E004545DE
:1001C00050524F4D2000454550524F4D2053544FF3
:1001D00050000A494E56414C49444154454420433D
:1001E0004F4445530A00204E4F5420535550504F12
:1001F000525445440A00204D434F44452000464197
:10020000494C00424547554E00454550524F4D2000
:10021000524541443A2000204641494C0020424585
:1002200047554E002046454154555245533A302FCC
:100230006372632D7632002056455253494F4E3A31
:10024000312E3720465245455F52414D3A002F200E
:10025000004D495353494E472100423A2020202F58
:10026000202020004265642020203A202020202FDA
:10027000202020002F20004D495353494E47210094
:10028000483A2020202F20202000486F74656E649B
:100290003A202020202F20202000536372696262C0
:1002A0006C654A277320534A465700534A465720E5
:1002B0006279205363726962626C654A00204E4F16
:1002C0005420535550504F525445440A0020474340
:1002D0004F444520002F20004D495353494E47219C
:1002E00000423A2020202F20202000426564202058
:1002F000203A202020202F202020002F20004D49B0
:100300005353494E472100483A2020202F202020D7
:1003100000486F74656E643A202020202F20202032
:10032000005363726962626C654A277320534A46C0
:100330005700534A465720627920536372696262BC
:100340006C654A0000010405050303040506040565
:100350000607010001000302010000010203040579
:10036000060707060504030201000702010007064D
:100370000504030201000302010000010203040559
:10038000060700010203040506072C002C002C00C0
:100390002C0032002C0000010001000100012300AC
:1003A00023002300230003010301000100012900B1
:1003B0002900290029002000200020002000200022
:1003C000200020002000260026002600260026000F
:1003D00026002600260029003200320032000901E2
:1003E00009010901090109010901090109012300A4
:1003F0002300230023002F002F002F002F002F00A9
:100400002F002F002F00060106010601060106013C
:10041000060106010601454550524F4D204F5645F5
:1004200052464C4F570021212041584953204152F8
:1004300045204E4F5420434F4E4649475552454460
:100440002021210A002045494E56200020455055C4
:100450004C4C200020494E56200020444953200097
:10046000206E6F206D61782000206E6F206D696EA8
:100470002000206E6F20656E61626C652000206E2A
:100480006F206469722000206E6F20737465702085
:1004900000206E6F20616363656C2000206E6F200A
:1004A00073746570735F7065725F756E6974200038
:1004B000494E46494E4954594E414ECDCCCC3D0A49
:1004C000D7233C17B7D13877CC2B329595E6241F2C
:1004D000B14F0A000020410000C84200401C4620E5
:1004E000BCBE4CCA1B0E5AAEC59D7400407A10F3B8
:1004F0005A00A0724E18090010A5D4E80000E87652
:1005000048170000E40B54020000CA9A3B000000A8
:10051000E1F505000080969800000040420F0000C1
:1005200000A08601000000102700000000E8030082
:100530000000006400000000000A0000000000014C
:1005400000000000002C76D888DC674F0823DFC14C
:10055000DFAE59E1B1B796E5E3E453C63AE6519907
:100560007696E8E6C28426EB898C9B62ED407C6F30
:10057000FCEFBC9C9F40F2BAA56FA5F490055A2AE7
:10058000F75C936B6CF9676DC11BFCE0E40D47FEF3
:10059000F520E6B500D0ED902E03009435770500E8
:1005A00080841E080000204E0A000000C80C33336F
:1005B00033330F986E12831141EF8D2114893BE67E
:1005C0005516CFFEE6DB18D1844B381BF77C1D9007
:1005D0001DA4BBE424203284725E228100C9F12470
:1005E000ECA1E53D27004323C432EB46EC766B8952
:1005F00011241FBECFEFD1E2DEBFCDBF00E00CBFA4
:1006000013E0A0E0B2E0E0E5F6E201E00BBF02C0DB
:1006100007900D92A836B107D9F719E1A8E6B3E023
:1006200001C01D92A736B107E1F715E0C0EFD5E094
:1006300004C02297FE010E94DD8CC63ED107C9F797
:100640000E9463150C9426930C940000CF93DF93C3
:10065000DC01EC01C853DE4FE881F98160838881B9
:100660009981019699838883AC53BE4F2D913C911B
:100670001197A45CB1408217930749F4AE53BE4F63
:100680004D915C911197A25CB140598348833FB76B
:10069000F894FD01E054FE4FC081D1812196D183B1
:1006A000C0833FBF6D917C916230710531F45091F0
:1006B000D10050625093D10005C07091C1007062AA
:1006C0007093C100DF91CF910895FC01A081B181A9
:1006D00011964C91119782818F7021E030E002C019
:1006E000220F331F8A95E2F7922F662311F0822F93
:1006F00001C080E090959423892B11968C930895E6
:10070000FC01A081B18112964C91129782818F7069
:1007100021E030E002C0220F331F8A95E2F7922FCA
:10072000662311F0822F01C080E090959423892BDD
:1007300012968C930895EF92FF920F931F93CF938D
:10074000DF93EC018AA5882311F090E061C0CE010F
:1007500060E00E948003CE01039661E00E94800366
:100760008E010B5E1F4FC80160E00E946503C80147
:1007700060E00E9480038E01085E1F4FC80160E0A8
:100780000E946503C80160E00E9480038E01055E3F
:100790001F4FC80160E00E946503C80160E00E942D
:1007A00080038E01025E1F4FC80160E00E94650356
:1007B000C80160E00E9480038E010A5F1F4FC801DC
:1007C00061E00E948003F8A02FE0F222EE8DFF8D01
:1007D000E080C80160E00E9480030091680300236C
:1007E00081F48E2D90E002C095958795FA94E2F7FA
:1007F000817090708093E30211E01093680391E0A0
:1008000007C09091E3021092680331E03093E30255
:10081000892FDF91CF911F910F91FF90EF90089555
:10082000CF93DF93DC015FB7F894A354BE4F2D91B3
:100830003C9111975FBF9E918E91AB5BB1402817A1
:10084000390708F04FC0ED01CB53DE4FE881F98145
:100850006083E881F9813196F983E883AF53BE4F15
:100860006D917C911197A15CB140E617F70749F4AF
:10087000A154BE4F2D913C911197AF5BB14039838C
:1008800028833FB7F894FD01E354FE4FC081D18126
:100890002196D183C0833FBFED01CF52DE4FE88167
:1008A000F9814193F983E883A353BE4F4D915C9145
:1008B0001197AD5CB140E417F50749F4A553BE4F5D
:1008C0008D919C911197AB5CB140998388837FB7E0
:1008D000F894ED01C753DE4FA881B9811196B98311
:1008E000A8837FBFDF91CF91089561E040E00E942F
:1008F00010040895DC01862F9796ED91FC9198974E
:10090000E40FF11D6081680F6068CD0140E00E9436
:100910001004089541E00E94100408950F931F935E
:10092000CF93DF938C01EB0103C0C8010E948A04BE
:1009300069916623D1F7DF91CF911F910F910895AF
:100940000F931F93CF93DF938C01EB0103C0C8017A
:100950000E948A04FE01219664916623C1F7DF910B
:10096000CF911F910F910895CF92DF92EF92FF9256
:100970000F931F937C01062F65E1C62ED12CC80E64
:10098000D91EC60161E00E94650310E0B8016170E4
:100990007070C6010E94800358E1C52ED12CCE0C88
:1009A000DF1CC60161E00E946503B801759567957B
:1009B00061707070C6010E9480033BE1C32ED12C90
:1009C000CE0CDF1CC60161E00E94650315950795FA
:1009D00015950795B80161707070C6010E9480037B
:1009E0009EE1C92ED12CCE0CDF1CC60161E00E9415
:1009F00065031595079501701070C601602F0E9460
:100A0000800386E090E0E80EF91EC70161E00E94D5
:100A10008003C70160E00E9480031F910F91FF9047
:100A2000EF90DF90CF9008950F931F93CF93DF93B4
:100A3000EC01C959DD4F88819981C756D24004978E
:100A4000C4F08E010B5F1F4FC80160E043E00E94BD
:100A50007A04CB59DD4F288139812131310524F0C9
:100A6000C80168E471E003C0C80167E371E00E9457
:100A7000A004DF91CF911F910F9108950F931F93C1
:100A8000CF93DF938B01C091BC03D091BD03CE0106
:100A90000E941F49BC01600F711F77FF02C060E018
:100AA00070E0CE010E940D49DF91CF911F910F910F
:100AB00008950F931F93CF93DF938B01C091BC03D5
:100AC000D091BD03CE010E942349BC01600F711F6C
:100AD00077FF02C060E070E0CE010E941149DF9113
:100AE000CF911F910F910895CF92DF92EF92FF92D5
:100AF0000F931F93CF93DF93EC018E8D9F8D8F5FAC
:100B00009F4F09F4D9C0DFB6F894FE01ED53FE4FB4
:100B1000C154DE4F68817981718360832696798321
:100B20006883289719821882CD5BD140DFBE2FB72A
:100B3000F894FE01E153FE4FC553DE4F48815981C1
:100B400051834083269659834883289719821882B7
:100B5000C95CD1402FBFCE0161E00E946503CE0188
:100B600060E00E948003E3E0EE2EF12CEC0EFD1E0F
:100B7000C70161E00E946503C70160E00E94800335
:100B800076E0C72ED12CCC0EDD1EC60161E00E949E
:100B90006503C60160E00E9480038E010B5E1F4F5B
:100BA000C80160E00E948003C80161E00E94650303
:100BB0008E01085E1F4FC80160E00E948003C801DB
:100BC00061E00E9465038E01055E1F4FC80160E071
:100BD0000E948003C80161E00E9465038E01025EED
:100BE0001F4FC80160E00E948003C80161E00E94BD
:100BF0006503C70161E00E946503C70160E00E94D0
:100C00008003CE0161E00E946503CE0160E00E9496
:100C10008003C60161E00E946503C60160E00E9496
:100C2000800364E670E080E090E00E94C51CCE0185
:100C300063E00E94B4046AE070E080E090E00E940B
:100C4000C51CCE0163E00E94B4046AE070E080E05D
:100C500090E00E94C51CCE0163E00E94B4046AE0EB
:100C600070E080E090E00E94C51CCE0162E00E942E
:100C7000B4046AE070E080E090E00E94C51C11E0DE
:100C800019A70DA1023010F460E001C068E06062B5
:100C9000CE0140E00E941004CE016CE040E00E94D2
:100CA0001004CE010E947504CE0164E040E00E9471
:100CB0001004CE010E947504DF91CF911F910F9116
:100CC000FF90EF90DF90CF9008950F931F938C01CA
:100CD000085E1D4F83E090E0F8019183808303510B
:100CE0001240C8010E947405C8010E947504C80121
:100CF00066E871E00E94A0041F910F910895EF92A1
:100D0000FF920F931F938C01F3EDEF2EF1E0FF2E76
:100D1000E80EF91ECB01BA01A7012AE030E00E94DB
:100D20007B8EC801B7010E948E041F910F91FF9026
:100D3000EF900895EF92FF920F931F93CF93DF935D
:100D4000EC018C010B5F1F4FC80162E040E00E9484
:100D50001004CB59DD4F88819981C556D240419707
:100D600044F0C80167E271E00E94A004C80168E095
:100D700007C0C8016DE171E00E94A004C80162E0F3
:100D800040E00E947A04E090BC03F090BD03C701EC
:100D90000E9415499C0184E02030380731F4C801D5
:100DA00064E171E00E94A00426C0A901662757FDF6
:100DB0006095762FC8010E947F06CB59DD4F2881B0
:100DC0003981C556D2402131310514F466E001C0A5
:100DD0006BE0C80140E00E947A04C80161E171E063
:100DE0000E94A004C7010E941F49AC0160E070E0AE
:100DF000C8010E947F06C80160E041E00E947A04B9
:100E0000CB59DD4F48815981C556D24041315105FA
:100E100044F0C80161E071E00E94A004C80168E0EC
:100E200007C0C80167EF70E00E94A004C80162E03B
:100E300041E00E947A04C7010E941A499C0184E0A3
:100E40002030380731F4C8016EEE70E00E94A00433
:100E500026C0A901662757FD6095762FC8010E941C
:100E60007F06CB59DD4F68817981C556D24061310B
:100E7000710514F466E001C06BE0C80141E00E9416
:100E80007A04C8016BEE70E00E94A004C7010E94C2
:100E90002349AC0160E070E0C8010E947F06CB5995
:100EA000DD4FA881B981C556D240A131B10514F4F6
:100EB0006CE001C060E1C80140E00E947A04C80112
:100EC00060E00E948A04C80162E00E948A04C801AE
:100ED00064E00E948A04C80166E00E948A04CB593B
:100EE000DD4FE881F981C556D240E131F10514F4B6
:100EF0006CE001C060E1C80141E00E947A04C801D1
:100F000061E00E948A04C80163E00E948A04C8016B
:100F100065E00E948A04C80167E00E948A04CE014D
:100F20000E941405DF91CF911F910F91FF90EF90D8
:100F300008950F931F93CF93DF938C01085E1D4F8D
:100F400081E090E0F8019183808308511240E8012C
:100F50002596CE010E9475040E94A915882389F068
:100F6000CE016BE771E00E94A004CE0160E041E099
:100F70000E947A040E94AF15BC01CE010E948E042B
:100F800031C00E94AF15FC012081222311F40E9480
:100F90008119CE016CE671E00E94A004CE0160E0F0
:100FA00041E00E947A04CE0169E671E00E94A0044B
:100FB0000E94AF15BC01CE010E948E0409591D4F3D
:100FC000F80140815181075612404330510554F0D9
:100FD000CE0160E042E00E947A04CE016AE571E051
:100FE0000E94A004C8010E941405DF91CF911F91B7
:100FF0000F910895AF92BF92DF92EF92FF920F93FD
:101000001F93DF93CF93CDB7DEB7C156D1400FB654
:10101000F894DEBF0FBECDBF7C01D62E86E38617C7
:101020007CF092E369170CF087C0AAE26A1709F412
:1010300058C0B1E36B1769F0E3E26E1741F459C091
:10104000F7E36F1709F109E306170CF075C080E0AC
:1010500075C18701045E1D4F20E232E0E20EF31EEF
:10106000D701ED91FC91D8016D917D918D919C916D
:1010700020813181428153810E94028AF80160837C
:1010800071838283938359C18701045E1D4F40E2BF
:1010900052E0E40EF51ED701ED91FC91D8016D915F
:1010A0007D918D919C9120813181428153810E945B
:1010B000018AF801608371838283938320E030E0AA
:1010C00040E050E00E94668A88230CF036C180E040
:1010D00090E0A0E0B0E0F80180839183A283B38325
:1010E0002CC1F701EC5DFD4FA08011E0A126A0828C
:1010F00024C18701005E1D4FD801ED91FC9111972D
:101100003496ED93FC933497648175818681978141
:1011100020E030E040E050E00E94668A882309F039
:101120000CC162E272E0E60EF71ED701ED90FC9072
:10113000F801F182E08201C1A0909003B090910388
:10114000C5010E942C23882309F409C1F6C044E597
:1011500050E060E070E0F80145A356A367A370A7D4
:1011600022E030E033A322A3C501B801E4C021E0AE
:1011700030E040E050E0F80124A735A746A757A784
:1011800062E070E072A761A78CE192E0E80EF91EC0
:101190006091A4037091A5038091A6039091A70389
:1011A000D7012D913D914D915C910E94018A20C003
:1011B00021E030E040E050E0F80124A735A746A741
:1011C00057A782E090E092A781A74CE152E0E40E9D
:1011D000F51E6091A4037091A5038091A6039091E0
:1011E000A703D7012D913D914D915C910E94028AF8
:1011F000F801608B718B828B938B01E010E0168776
:10120000058795C081E090E0A0E0B0E0F80184A7F8
:1012100095A7A6A7B7A742E050E052A741A76CE167
:1012200072E0E60EF71E6091A0037091A103809119
:10123000A2039091A303D7012D913D914D915C9113
:101240000E94018A20C041E050E060E070E0F801B7
:1012500044A755A766A777A762E070E072A761A7C9
:101260002CE132E0E20EF31E6091A0037091A10325
:101270008091A2039091A303D7012D913D914D91AF
:101280005C910E94028AF801618772878387948744
:1012900001E010E0178306834AC041E050E060E0BF
:1012A00070E0F80144A755A766A777A722E030E0D1
:1012B00032A721A78CE192E0E80EF91E6091A80305
:1012C0007091A9038091AA039091AB03D7012D914E
:1012D0003D914D915C910E94028A20C021E030E056
:1012E00040E050E0F80124A735A746A757A782E0C1
:1012F00090E092A781A76CE172E0E60EF71E609184
:10130000A8037091A9038091AA039091AB03D70120
:101310002D913D914D915C910E94018AF801678B5E
:10132000708F818F928F01E010E0158B048BC501C7
:10133000BE0163577F4F0E94522181E0CF59DE4F9B
:101340000FB6F894DEBF0FBECDBFCF91DF911F91D6
:101350000F91FF90EF90DF90BF90AF900895DE0166
:10136000A95BBF4F96E4FD0111929A95E9F718E544
:101370001B831A821982CE0101960980FD01019218
:10138000AF01FC01018011960C921197FA011183B3
:10139000FC01038013960C921397048014960C9210
:1013A0001497058015960C921597068016960C9248
:1013B000169779E57A8719861886088417960C920D
:1013C0001797098418960C92189719967C93199779
:1013D0000B841A960C921A970C841B960C921B97EE
:1013E0000D841C960C921C970E841D960C921D97D2
:1013F0005AE5598B188A1F860F841E960C921E97E9
:1014000008881F960C921F9750965C9350970A88F5
:1014100051960C9251970B8852960C9252970C88C9
:1014200053960C9253970D8854960C92549735E42A
:10143000388F1F8A1E8A5596FE01769687E00190A6
:101440000D928150E1F7BDE4BF8F1E8E1D8EDE012F
:10145000AD59BF4FFE017D9687E001900D928150FE
:10146000E1F7F7E4FEA31DA21CA2DE01A659BF4FBF
:10147000FE01B49687E001900D928150E1F7A6E459
:10148000ADA71CA61BA6DE01AF58BF4FFE01BB9641
:1014900087E001900D928150E1F720E52CAB1BAA6B
:1014A0001AAADE01A858BF4FFE01F29687E001900C
:1014B0000D928150E1F703E50BAF1AAE19AEDE01D4
:1014C000A158BF4FFE01F99687E001900D9281501F
:1014D000E1F734E5FE01EE5BFF4F3083FE01E05C97
:1014E000FF4F11821082DE01AA57BF4F87E00190A3
:1014F0000D928150E1F7DE01AD56BF4FFE01E95B71
:10150000FF4F87E001900D928150E1F7DE01A65672
:10151000BF4FFE01E25BFF4F87E001900D928150CB
:10152000E1F7DE01AF55BF4FFE01EB5AFF4F87E0F9
:1015300001900D928150E1F7DE01A855BF4FFE01E9
:10154000E45AFF4F87E001900D928150E1F7DE01F0
:10155000A155BF4FFE01ED59FF4F87E001900D925D
:101560008150E1F7DE01AA54BF4FFE01E659FF4F5B
:1015700087E001900D928150E1F7DE01A354BF4F47
:10158000FE01EF58FF4F87E001900D928150E1F787
:10159000DE01AC53BF4FFE01E858FF4F87E00190DA
:1015A0000D928150E1F7DE01A553BF4FFE01E158D6
:1015B000FF4F87E001900D928150E1F7DE01AE52BE
:1015C000BF4FFE01EA57FF4F87E001900D92815017
:1015D000E1F78E0103571F4FD80117961C921E92F8
:1015E0001697F8011186128613861486FE01E151C2
:1015F000FF4F1082118212821382FE01E150FF4FD1
:1016000010821E961C921E921D97F801108A118A54
:10161000128A138AFE01ED50FF4F1082118212824E
:101620001382FE01E050FF4F108255961C921E92CD
:101630005497F801178A108E118E128EFE01E95010
:10164000FF4F1082118212821382FE01EF5FFE4F64
:1016500010825C961C921E925B97F801168E178E74
:1016600010A211A2FE01E550FF4F108211821282DA
:101670001382FE01EE5FFE4F108293961C921E9223
:101680009297F80115A216A217A210A612A611A6EB
:101690009C961D921D921D921C929F97D1961C9212
:1016A0001E92D09713AA14AA15AA16AA10AE17AAAA
:1016B000DA961D921D921D921C92DD97DF961C9268
:1016C0001E92DE97FE01E253FF4F108211821282BA
:1016D000138211961C921E92FE01EF51FF4F118250
:1016E0001082FE01ED51FF4F11821082FE01E75280
:1016F000FF4F10821182128213824FEF5FEF6FEF64
:101700007FEFF801428353836483758380E090E028
:10171000A0E0B0E0FE01EB51FF4F80839183A283F4
:10172000B383FE01E551FF4F1082118212821382B2
:10173000FE01ED5FFE4F11821082FE01E65EFE4F5C
:101740001082118212821382FE01E25DFE4F10822E
:10175000118212821382FE01EE5CFE4F1082118212
:1017600012821382FE01E65CFE4F10821182128209
:101770001382F5E3DF1609F4EACCFD1564F083E388
:10178000D81609F48ACD8D150CF43CCD52E3D5164C
:1017900009F0CDCDECCC78E3D71609F409CD69E397
:1017A000D61609F49BCD96E3D91609F0C0CD4BCDE2
:1017B000AF92BF92CF92DF92EF92FF920F931F935F
:1017C0006C0179018A010E948E04A3EDAA2EA1E08A
:1017D000BA2EAC0CBD1CC801B70145E021E0850163
:1017E0000E94E18CC601B5010E948E041F910F91E9
:1017F000FF90EF90DF90CF90BF90AF900895EF9261
:10180000FF920F931F93CF93DF93EC018C010B5F3B
:101810001F4F2091A0033091A1034091A20350914A
:10182000A303C80160E072E00E94D80BC80168E021
:1018300040E00E947A042091A4033091A5034091D6
:10184000A6035091A703C80163E072E00E94D80B81
:10185000C80160E041E00E947A042091A803309121
:10186000A9034091AA035091AB03C80166E072E05E
:101870000E94D80BC959DD4F88819981C756D24043
:101880003CE1E32E32E0F32EEC0EFD1E03970CF448
:101890005DC0C80168E041E00E947A042091AC0379
:1018A0003091AD034091AE035091AF03C80169E0A0
:1018B00072E00E94D80BC80160E042E00E947A0406
:1018C000F7012081318142815381C8016CE072E0CF
:1018D0000E94D80BCB59DD4F28813981C556D240A3
:1018E000FE01E05EFD4F213131055CF00190F08199
:1018F000E02D2081318142815381C80162E172E093
:101900000AC00190F081E02D208131814281538114
:10191000C80168E172E00E94D80BC80160E043E0B2
:101920000E947A04CC5DDD4FE880C452D240EE20A4
:1019300029F42AE1E22E22E0F22E04C09EE1E92EF3
:1019400092E0F92EC80162E272E029C0F70120811D
:10195000318142815381C8016CE272E00E94D80B50
:10196000C05EDD4FE881F981208131814281538160
:10197000C80168E172E00E94D80B2496F880C45236
:10198000D240FF2029F48FE2E82E82E0F82E04C036
:10199000B1E3EB2EB2E0FB2EC80163E372E00E94DC
:1019A0008E04C801B7010E948E04CB59DD4F4881D7
:1019B00059814131510554F1C80160E140E00E9474
:1019C0007A04C80160E00E948A04C80162E00E94B3
:1019D0008A04C80164E00E948A04C80166E00E948B
:1019E0008A04C80160E141E00E947A04C80161E014
:1019F0000E948A04C80163E00E948A04C80165E06D
:101A00000E948A04C80167E00E948A04DF91CF9196
:101A10001F910F91FF90EF900895CF93DF93EC010A
:101A2000FC01E85EFD4F808191818617970759F18F
:101A300061307105B9F0623071051CF4672B41F01B
:101A400022C06230710591F063307105E1F418C075
:101A500011821082CE0105960E947504CE010E946B
:101A60009A0611C0CE010E9499070DC07183608350
:101A7000CE0105960E947504CE010E94FF0B03C0A3
:101A8000CE010E946506DF91CF9108952F923F927B
:101A90004F925F926F927F928F929F92AF92BF927E
:101AA000CF92DF92EF92FF920F931F93DF93CF932A
:101AB000CDB7DEB72E970FB6F894DEBF0FBECDBF01
:101AC0009E878D87F5E0CF2ED12CC80ED91EDC0164
:101AD0009E968C91882309F42CC1C6010E949B0319
:101AE000882309F026C12FB7F894ED85FE85EE53C3
:101AF000FE4F80819181E25CF140FE87ED872FBF30
:101B0000892B09F416C127A4DF01A853BE4F222058
:101B100089F4ED91FC9100814D855E854C525E4FBC
:101B2000DA01ED91FC911197A45DB140BE87AD87BC
:101B300010815FC08D909C901197F40101912F014D
:101B40001196FC93EE936D857E856A537E4FFB0163
:101B500060807180E65CF140FE87ED874614570493
:101B600051F4EC53FE4FA080B180E45CF140FE875D
:101B7000ED87AD92BC923FB6F894ED85FE85EE53AD
:101B8000FE4F808191810197918380833FBE4D8577
:101B90005E854C525E4FDA01ED91FC9111971191E7
:101BA000ED93FC938D859E858E529E4FDC01ED90CA
:101BB000FC901197A25DB140BE87AD87EE15FF0581
:101BC00061F4A053BE4F2D913C911197A05DB1409F
:101BD000BE87AD87FA01318320835FB6F894ED8527
:101BE000FE85E253FE4FA081B1811197B183A0839E
:101BF0005FBE8D859E85089660E00E9480038D857E
:101C00009E850596612F0E948003EAE1EE2EF12C5D
:101C10002D843E84E20CF31CC70161E00E94650341
:101C2000AD85BE859F967C90772019F484E090E086
:101C300002C080E090E010E0B80102C075956795A1
:101C40008A95E2F761707070C7010E9480037DE1A0
:101C5000E72EF12C4D855E85E40EF51EC70161E08F
:101C60000E946503ED85FE8597A4992019F485E00F
:101C700090E002C081E090E0B80102C075956795E0
:101C80008A95E2F761707070C7010E94800360E27C
:101C9000E62EF12C4D845E84E40CF51CC70161E056
:101CA0000E946503AD85BE859F96BC90BB2019F44C
:101CB00086E090E002C082E090E0B80102C0759535
:101CC00067958A95E2F761707070C7010E94800382
:101CD00053E2E52EF12C6D847E84E60CF71CC701DF
:101CE00061E00E946503ED85FE8537A5332319F475
:101CF00087E090E002C083E090E002C01595079570
:101D00008A95E2F701701070C701602F0E9480036E
:101D1000ED85FE85F7A491E0F926F7A68F01055F12
:101D20001F4FC80161E00E948003C80160E00E946B
:101D300080030D851E8508501E4FD8016D917C9142
:101D4000BFEF6F3F7B0709F40DC50E94751D3B0176
:101D50004C01AA24BB2444E0442E42E0542EAD851D
:101D6000BE854A0E5B1E36E0232E32E0332E2A0E4D
:101D70003B1EA95FBD4FBA83A983ED85FE85E75F52
:101D8000FD4FFC83EB836D857E85665F7D4F7E8393
:101D90006D834D855E85445F5D4F58874F832D85EC
:101DA0003E85235F3D4F3A8729878D859E85815FDC
:101DB0009D4F9C878B87C801F92E802F61E00E9480
:101DC0006503802F9F2D60E00E948003D201ED917A
:101DD000FC91808110E090E0F10150815F70052E50
:101DE00002C0959587950A94E2F780FDDFC4DDC4B3
:101DF000EE24E394A981BA81ED91FC91808190E079
:101E0000EB81FC8170817F70072E02C095958795CC
:101E10000A94E2F780FD02C0F2E0EF2AAD81BE81B4
:101E2000ED91FC91808190E0EF81F885B081BF70E9
:101E30000B2E02C0959587950A94E2F780FD02C0AB
:101E400034E0E32AA985BA85ED91FC91808190E088
:101E5000EB85FC8550815F70052E02C095958795B6
:101E60000A94E2F780FD02C098E0E92AC80160E028
:101E70000E946503C80160E00E948003EE2009F41F
:101E800050C0E0FE03C080E090E00EC0E1FE03C061
:101E900081E090E009C0E2FE03C082E090E004C06F
:101EA000E3FE3FC083E090E0880F991F0D851E85FB
:101EB000005F1D4FD801ED91FC911197A051B240E8
:101EC000BE87AD87E80FF91F0190F081E02DEA0D84
:101ED000FB1D1081FD01E95EFD4FA080AD5EBD4F91
:101EE0001A1559F42D903D904D905C901397621403
:101EF000730484049504B8F535C41083ED85FE851C
:101F0000EE5EFD4F1081E251F240FE87ED87610EDB
:101F1000711C811C911C6D927D928D929C921397E5
:101F200021C4ED85FE85ED5EFD4F80819181A2810A
:101F3000B3810097A105B10509F414C4861597056E
:101F4000A805B90508F00EC410821182128213820E
:101F50008D859E85895E9D4FDC011C92A751B24004
:101F6000BE87AD87FFC3112309F495C0ED85FE85BB
:101F70008480181509F48FC0E85EFD4F808191813F
:101F8000E851F240FE87ED878130910509F449C0A0
:101F90008230910509F457C0892B09F05BC01633D4
:101FA00029F1173344F4133399F01433B1F011339A
:101FB00009F050C008C0193349F1143471F11733D6
:101FC00009F048C01CC08D859E8565E070E01BC08F
:101FD0008D859E8565E070E01DC08091BC03909169
:101FE000BD0360E070E00E940D49BEC38091BC0358
:101FF0009091BD0360E070E00E941149B5C38D85EA
:102000009E856BEF7FEF0E943E05AEC38D859E855A
:102010006BEF7FEF0E945905A7C3C6010E947405AC
:10202000A3C30E94A9158823A9F4133229F01633FB
:1020300089F40E94811902C00E944D198D859E85E8
:102040000E94990728C08D859E85612F0E94FA07FE
:10205000882309F5123479F013341CF41134D9F4BF
:1020600005C0133469F01434B1F40FC08D859E851A
:1020700060E070E00EC08D859E8561E070E009C073
:102080008D859E8562E070E004C08D859E8563E04D
:1020900070E00E940D0DED85FE8514830E94671D82
:1020A0009B01AC01ED85FE8540805180628073808C
:1020B0007B018C01E418F50806091709D801C7014E
:1020C000815D9740A040B04008F456C3208331831F
:1020D000428353830091BC031091BD03C8010E9449
:1020E00015495C01C8010E941F493501681A790A27
:1020F000C30162E070E00E94A68CCB0168307105DC
:102100001CF087E090E006C0FFEF683F7F0714F403
:1021100088EF9FEF44275527481B590B495F5F4FB6
:10212000AD85BE85AB5DBD4FED85FE85EB5CFD4F9E
:1021300020E030E01CC09160908B60896F71608BF3
:1021400080A1992787FD9095880F991F982F80A3CC
:102150002417350711F4916090A370A17F7170A3CB
:102160002F5F3F4F119631962031310561F18C91EF
:10217000992787FD9095880F991F982F8C93308011
:1021800034FE02C091609C939C919F719C938081CE
:10219000992787FD9095880F991F982F80835088E5
:1021A00054FE02C09160908310811F71108380895A
:1021B000992787FD9095880F991F982F808B70A085
:1021C00074FCB9CFBACF35E2832E32E0932E8D85E1
:1021D0009E85880E991EC60160E440E00E941004AE
:1021E000C601D4016D911D010E948A04C601F4014B
:1021F00061810E948A0451010894A11CB11CC6018E
:10220000D10111966C910E948A0485010F5F1F4FC6
:10221000C601F50161810E948A0438010894611C9D
:10222000711CC601D80111966C910E948A04830129
:102230000F5F1F4FC601F30161810E948A04C6012E
:10224000D80111966C910E948A04C6010F5F1F4F3E
:10225000F80161810E948A04AD85BE859C96ED914E
:10226000FC919D9760816068C60140E00E94100467
:102270002DE2E22E22E0F22E4D855E85E40EF51E63
:10228000C60168E440E00E941004C601D7016D91C8
:102290002D010E948A04C601F70161810E948A040F
:1022A00042010894811C911CC601D20111966C91C7
:1022B0000E948A0484010F5F1F4FC601F4016181EF
:1022C0000E948A0418010894211C311CC601D801FF
:1022D00011966C910E948A0481010F5F1F4FC60105
:1022E000F10161810E948A04C601D80111966C91A6
:1022F0000E948A04C6010F5F1F4FF80161810E948E
:102300008A04AD85BE859C96ED91FC919D97608178
:102310006068C60140E00E94100495E3A92E92E097
:10232000B92E8D859E85A80EB91EC60160E540E0D8
:102330000E941004C601D5016D913D010E948A04DE
:10234000C601F50161810E948A0473010894E11CB1
:10235000F11CC601D30111966C910E948A04870179
:102360000F5F1F4FC601F70161810E948A04280197
:102370000894411C511CC601D80111966C910E9411
:102380008A0482010F5F1F4FC601F20161810E9422
:102390008A04C601D80111966C910E948A04C60174
:1023A0000F5F1F4FF80161810E948A04AD85BE85D1
:1023B0009C96ED91FC919D9760816068C60140E01C
:1023C0000E9410048DE3882E82E0982E4D855E8554
:1023D000840E951EC60168E540E00E941004C60107
:1023E000D4016D911D010E948A04C601F40161812E
:1023F0000E948A0451010894A11CB11CC601D1019C
:1024000011966C910E948A0485010F5F1F4FC601CF
:10241000F50161810E948A0438010894611C711CD5
:10242000C601D80111966C910E948A0483010F5F46
:102430001F4FC601F30161810E948A04C601D801C1
:1024400011966C910E948A04C6010F5F1F4FF8011C
:1024500061810E948A04AD85BE859C96ED91FC91B8
:102460009D9760816068C60140E00E94100405E409
:10247000E02E02E0F02E8D859E85E80EF91EC60145
:1024800060E640E00E941004C601D7016D912D0165
:102490000E948A04C601F70161810E948A044201F8
:1024A0000894811C911CC601D20111966C910E9466
:1024B0008A0484010F5F1F4FC601F40161810E94ED
:1024C0008A0418010894211C311CC601D8011196F8
:1024D0006C910E948A0481010F5F1F4FC601F101B8
:1024E00061810E948A04C601D80111966C910E94F4
:1024F0008A04C6010F5F1F4FF80161810E948A04A0
:10250000AD85BE859C96ED91FC919D97608160683C
:10251000C60140E00E9410041DE4A12E12E0B12E7D
:102520004D855E85A40EB51EC60168E640E00E949A
:102530001004C601D5016D913D010E948A04C601B7
:10254000F50161810E948A0473010894E11CF11C69
:10255000C601D30111966C910E948A0487010F5F16
:102560001F4FC601F70161810E948A042801089467
:10257000411C511CC601D80111966C910E948A041D
:1025800082010F5F1F4FC601F20161810E948A0420
:10259000C601D80111966C910E948A04C6010F5F92
:1025A0001F4FF80161810E948A04AD85BE859C960B
:1025B000ED91FC919D9760816068C60140E00E94AA
:1025C0001004B5E58B2EB2E09B2E8D859E85880E7E
:1025D000991EC60160E740E00E941004C601D401C4
:1025E0006D911D010E948A04C601F40161810E945F
:1025F0008A0451010894A11CB11CC601D101119695
:102600006C910E948A0485010F5F1F4FC601F5017E
:1026100061810E948A0438010894611C711CC60102
:10262000D80111966C910E948A0483010F5F1F4F9D
:10263000C601F30161810E948A04C601D801119686
:102640006C910E948A04C6010F5F1F4FF8016181DF
:102650000E948A04AD85BE859C96ED91FC919D9764
:1026600060816068C60140E00E941004ADE5EA2E7A
:10267000A2E0FA2E4D855E85E40EF51EC60168E7E0
:1026800040E00E941004C601D7016D912D010E9407
:102690008A04C601F70161810E948A0442010894FC
:1026A000811C911CC601D20111966C910E948A0472
:1026B00084010F5F1F4FC601F40161810E948A04EB
:1026C00018010894211C311CC601D80111966C9187
:1026D0000E948A0481010F5F1F4FC601F1016181D1
:1026E0000E948A04C601D80111966C910E948A0446
:1026F000C6010F5F1F4FF80161810E948A04AD85FA
:10270000BE859C96ED91FC919D9760816068C601A5
:1027100040E00E941004ED85FE85E85EFD4F80815B
:102720009181E851F240FE87ED87892B19F4CF01A2
:102730000E949A064D855E85485E5D4FFA012081B4
:102740003181E851F240FE87ED8722303105A1F456
:10275000C60162E040E00E9410048D859E850E94C3
:10276000FF0B0AC010E097CCC6010E9475048D854E
:102770009E850E949A068FCC2E960FB6F894DEBFE7
:102780000FBECDBFCF91DF911F910F91FF90EF90C2
:10279000DF90CF90BF90AF909F908F907F906F9081
:1027A0005F904F903F902F90089511E0A981BA81DA
:1027B000ED91FC91808190E0EB81FC81B081BF7054
:1027C0000B2E02C0959587950A94E2F780FF126060
:1027D000AD81BE81ED91FC91808190E0EF81F88523
:1027E00030813F70032E02C0959587950A94E2F7D9
:1027F00080FF1460A985BA85ED91FC91808190E0FD
:10280000EB85FC8550815F70052E02C095958795FC
:102810000A94E2F780FF1860802F9F2D60E00E94ED
:102820006503802F9F2D60E00E948003112341F0FB
:1028300010FD29CB11FD2CCB12FD2FCB13FD32CB7C
:10284000F1E0AF2EB12CEBEFEE2EE1E0FE2E0D8588
:102850001E85E00EF11EC70161E00E946503C701FD
:1028600060E00E948003D201ED91FC91808110E034
:1028700090E0F10170817F70072E02C095958795D9
:102880000A94E2F780FF11E0A981BA81ED91FC91F1
:10289000808190E0EB81FC8160816F70062E02C028
:1028A000959587950A94E2F780FF1260AD81BE810D
:1028B000ED91FC91808190E0EF81F88520812F706F
:1028C00002C0959587952A95E2F780FF1460A98547
:1028D000BA85ED91FC91808190E0EB85FC8540818B
:1028E0004F70042E02C0959587950A94E2F780FFF9
:1028F0001860C70160E00E946503C70160E00E94A4
:102900008003112341F010FDBECA11FDC1CA12FDA2
:10291000C4CA13FDC7CA71E0A72EB12C0894A11C2C
:10292000B11C8501000F111F0A0D1B1D08501E4F01
:10293000ED84FE840E0D1F1DC80161E00E94650339
:10294000C80160E00E948003D201ED91FC9180817A
:10295000EE2490E0F101B081BF700B2E02C095957E
:1029600087950A94E2F780FD02C0EE24E394A981E2
:10297000BA81ED91FC91808190E0EB81FC81308106
:102980003F70032E02C0959587950A94E2F780FD6B
:1029900002C0F2E0EF2AAD81BE81ED91FC91808111
:1029A00090E0EF81F88550815F70052E02C095950B
:1029B00087950A94E2F780FD02C094E0E92AA98590
:1029C000BA85ED91FC91808190E0EB85FC8570816A
:1029D0007F70072E02C0959587950A94E2F780FDD7
:1029E00002C088E0E82AC80160E00E946503C801CF
:1029F00060E00E948003EE2041F0E0FC44CAE1FC6C
:102A000047CAE2FC4ACAE3FC4DCA52E0A52EB12CEB
:102A10000894A11CB11C8501000F111F0A0D1B1D7C
:102A200008501E4F2D853E85020F131FC80161E01F
:102A30000E946503C80160E00E948003D201ED910D
:102A4000FC918081EE2490E0F10160816F70062E90
:102A500002C0959587950A94E2F780FDCBC9C8C955
:102A6000EF92FF920F931F93CF93DF93C091900348
:102A7000D0919103E090B803F090B9030091BC03AA
:102A80001091BD03CE010E944328C7010E949B1BE9
:102A9000CE010E944328C8010E94E14ACE010E9453
:102AA00043280E94F14BCE010E9443280E942C161D
:102AB000CE010E9443288EEB93E00E94460DCE018A
:102AC0000E944328DFCF0F931F93CF93DF93789417
:102AD0000E94BF1C0E94C1150E945D19C091B803DD
:102AE000D091B903882371F010E003C0CE010E9499
:102AF0002603E12FF0E0E95CFD4F60811F5F662354
:102B0000A9F70FC010E003C0CE010E942603E12FF9
:102B1000F0E0EB5BFD4F60811F5F6623A9F70E9429
:102B2000BF4C0091B8031091B903C4EED0E003C0CC
:102B3000C8010E942603FE01219664916623C1F715
:102B40000E94301580E090E0DF91CF911F910F91AE
:102B5000089580918103089580918303089581E70A
:102B600093E008951092810380916F039091700318
:102B7000009711F00E9486771092700310926F03F5
:102B8000089580918103882311F00E94B2158091ED
:102B90006D0390916E03009731F00E9419791092A5
:102BA0006E0310926D0380916B0390916C030097FC
:102BB00031F00E943F7710926C0310926B0380916A
:102BC000690390916A03009731F00E947681109218
:102BD0006A03109269030895DF93CF9300D00F9298
:102BE000CDB7DEB790E0A0E0B0E0B095A0959095AD
:102BF00081959F4FAF4FBF4F89839A83AB83BC832F
:102C000080916F0390917003BE016F5F7F4F41E031
:102C10000E94D6780F900F900F900F90CF91DF9178
:102C2000089580916F039091700362E873E041E032
:102C300050E00E948C7710928303181619061CF43A
:102C400081E08093830308951F93109182030E9473
:102C50001116812F1F9108958F929F92AF92BF926C
:102C6000CF92DF92EF92FF921F93DF93CF93CDB776
:102C7000DEB7A0970FB6F894DEBF0FBECDBF809130
:102C80008103882309F497C080909003909091036A
:102C9000C4010E942C23882309F08DC0A0908303D7
:102CA000AA2019F40E94B21586C0FE01319610E2E6
:102CB000DF011D921A95E9F7EE24FF245F0109C098
:102CC0000894E11CF11C670120918303222379F011
:102CD00084C0C0908303CC2051F0109182030E94E5
:102CE0001116F501EE0DFF1D108311324CF7BE01D8
:102CF0006F5F7F4FFB01EE0DFF1D308131320CF411
:102D000055C0A091B803B091B90360E0AD0148533C
:102D10005E4FF4ECAF2EF1E0BF2EAA0EBB1EE2EC2C
:102D2000CE2EE1E0DE2ECA0EDB1E70ECE72E71E047
:102D3000F72EEA0EFB1E31C0FA0120813181F90124
:102D40008083FA0180819181019691838083F501CE
:102D5000808091808815990531F4F60180809180FA
:102D6000FA01918280829FB6F894F7012081318127
:102D70002F5F3F4F318320839FBE8D919C91119790
:102D8000029731F47091D10070627093D10005C048
:102D90009091C10090629093C100E62FF0E0ED5A4F
:102DA000FD4F80816F5F882339F605C0C4014E2D29
:102DB00021E00E949E23A0960FB6F894DEBF0FBEBE
:102DC000CDBFCF91DF911F91FF90EF90DF90CF901B
:102DD000BF90AF909F908F900895109182030E94B2
:102DE0001116F501EE0DFF1D108311320CF47FCF8B
:102DF0000894E11CF11C40918303442309F477CF2C
:102E0000109182030E941116F501EE0DFF1D108333
:102E100011320CF46CCF52E0E52EF12CEC0CFD1CC1
:102E200050918303552309F462CF109182030E94CD
:102E30001116F501EE0DFF1D108311320CF457CF62
:102E400043E0E42EF12CEC0CFD1C6091830366231F
:102E500009F44DCF109182030E941116F501EE0D79
:102E6000FF1D108311320CF442CF34E0E32EF12C1D
:102E7000EC0CFD1CA0918303AA2309F438CF109118
:102E800082030E941116F501EE0DFF1D1083113211
:102E90000CF42DCF25E0E22EF12CEC0CFD1CB091B2
:102EA0008303BB2309F423CF109182030E941116E0
:102EB000F501EE0DFF1D108311320CF418CF96E0D2
:102EC000E92EF12CEC0CFD1CF0918303FF2309F497
:102ED0000ECF109182030E941116F501EE0DFF1D19
:102EE000108311320CF403CF87E0E82EF12CEC0CA8
:102EF000FD1CF0E2EF16F10409F4F9CEEACEEF92F0
:102F0000FF920F931F93CF93DF938C017B010EC031
:102F1000C701B8010E94648E009741F480916D034F
:102F200090916E030E941F7981E009C080916D032A
:102F300090916E03B7010E94CA7A882349F7DF9106
:102F4000CF911F910F91FF90EF900895EF92FF9214
:102F50000F931F93DF93CF93CDB7DEB7AB970FB629
:102F6000F894DEBF0FBECDBF7B018E010F5F1F4FF8
:102F7000B8010E947F17882359F080916B039091CC
:102F80006C03B8010E948780F7019183808381E000
:102F9000AB960FB6F894DEBF0FBECDBFCF91DF91D9
:102FA0001F910F91FF90EF900895BF92CF92DF9203
:102FB000EF92FF920F931F93DF93CF93CDB7DEB7BE
:102FC000AB970FB6F894DEBF0FBECDBF8C01A5E066
:102FD000BA2E7E010894E11CF11CC62EDD24089453
:102FE000C108D10880916D0390916E03B7010E94D2
:102FF000CA7A882349F1A0E0B0E0C60183709070DE
:103000000097B1F50EC0F801EA0FFB1F80831196FF
:103010009D01F701EA0FFB1F8081882309F04CC056
:1030200009C0AC15BD0534F4F701EA0FFB1F808120
:10303000882349F7F801EA0FFB1F10821A161B06B6
:103040002CF0BA9479F602C0F801108280E090E08A
:10305000AB960FB6F894DEBF0FBECDBFCF91DF9118
:103060001F910F91FF90EF90DF90CF90BF90089548
:10307000AC15BD05FCF6F70120812223D9F2F80139
:103080002083A1E0B0E08130910559F2029741F030
:10309000F7018181882371F2F8018183A2E0B0E019
:1030A000F701EA0FFB1F8081882321F2F801EA0F64
:1030B000FB1F80831196B5CFF801EA0FFB1F8083B9
:1030C0001196F701EA0FFB1FE081EE2309F4B2CF5E
:1030D000A00FB11FEC93D9011296F701EA0FFB1F65
:1030E000E081EE2309F4A6CFA00FB11FEC93D90124
:1030F000139697CF0F931F93DF93CF93CDB7DEB780
:10310000AB970FB6F894DEBF0FBECDBF80916B03B7
:1031100090916C0368E572E08E010F5F1F4FA8016C
:103120000E94BF8080916B0390916C03B8010E9454
:103130004A8090936E0380936D0320E0892B09F001
:1031400021E0822FAB960FB6F894DEBF0FBECDBF45
:10315000CF91DF911F910F91089580916903909114
:103160006A030E94B67E90936C0380936B0320E009
:10317000892B09F021E0822F08950F938CE694E8C3
:1031800060E675E840E050E020E030E000E00E94BA
:103190007E8190936A0380936903892B79F48CE68E
:1031A00094E860E675E840E050E020E030E00FEFA2
:1031B0000E947E8190936A038093690320E080914E
:1031C000690390916A03892B09F021E0822F0F9106
:1031D00008950E94D085882371F40E947582882307
:1031E00029F40E94C11521E030E029C00E94C115D8
:1031F00022E030E024C00E94BD18882329F40E94F8
:10320000C11523E030E01BC00E94AD18882329F4CB
:103210000E94C11524E030E012C00E947A18882371
:1032200029F40E94C11525E030E009C00E94778290
:10323000882319F420E030E002C026E030E0C90124
:103240000895CF93DF93EC010E94C1150E94E91805
:103250009C01009719F08630910599F41092700343
:1032600010926F03CE016FE673E00E94A6178823C9
:1032700031F080916F0390917003892B31F427E036
:1032800030E0C901DF91CF91089521E020938103BF
:103290000E94111620E030E0F4CF80918103882352
:1032A00011F020E008C081E793E00E94211920E09E
:1032B000892B09F421E0822F0895809181038823CE
:1032C00011F020E008C08AE592E00E94211920E078
:1032D000892B09F421E0822F08950E94C1150E94D4
:1032E000E9189C01009719F08630910541F480910E
:1032F0006D0390916E030E941F7920E030E0C901B8
:10330000089580917103882311F40E946D1981E75B
:1033100093E060E10E94D517892B21F4209171037D
:103320002E32A9F381E793E00895CF93DF93DC0178
:10333000EC01C853DE4FE881F9816083888199816F
:10334000019699838883AC53BE4F2D913C91119780
:10335000A45CB1408217930749F4AE53BE4F4D9120
:103360005C911197A25CB140598348833FB7F894B0
:10337000FD01E054FE4FC081D1812196D183C083ED
:103380003FBF6D917C916230710531F45091D10055
:1033900050625093D10005C07091C100706270936B
:1033A000C100DF91CF9108951F939A01AB011FB720
:1033B000F894809164008D7F80936400223086E9C8
:1033C000380780E0480780E0580740F062E06093EB
:1033D000C00060E874E88EE190E006C01092C00082
:1033E00060E472E48FE090E00E94B98CCA01B901F8
:1033F0000E94038B20E030E040E05FE30E94018AFE
:103400000E94D78A7093C5006093C40048E140933E
:10341000C10036E03093C2002091C100206A2093A1
:10342000C1001FBF1F9108950F931F93FC01829647
:10343000DF01A651BF4F08EC10E011961C930E93CC
:10344000E451FF4F11821082329681939193A193A0
:10345000B1938193919391838083E45FF040CF0196
:103460008A509F4FDF01A254BE4F11961C930E93BA
:10347000E054FE4F11821082329681939193A19372
:10348000B19381939193819391931082EA5CF1407F
:1034900031832083CF010E94D4191F910F91089589
:1034A0000F931F93FC018296DF01A651BF4F08ECDA
:1034B00010E011961C930E93E451FF4F118210827D
:1034C000329681939193A193B19381939193918338
:1034D0008083E45FF040CF018A509F4FDF01A25408
:1034E000BE4F11961C930E93E054FE4F1182108232
:1034F000329681939193A193B19381939193819308
:1035000091931082EA5CF14031832083CF010E94C5
:10351000D4191F910F9108951F939A01AB011FB702
:10352000F894809165008D7F80936500223086E954
:10353000380780E0480780E0580740F062E0609379
:10354000D00060E874E88EE190E006C01092D000F0
:1035500060E472E48FE090E00E94B98CCA01B90186
:103560000E94038B20E030E040E05FE30E94018A8C
:103570000E94D78A7093D5006093D40048E14093AD
:10358000D10036E03093D2002091D100206A209300
:10359000D1001FBF1F9108951F920F920FB60F9277
:1035A0000BB60F9211242F933F934F938F939F93BA
:1035B000AF93BF93CF93DF93EF93FF93A091B803A3
:1035C000B091B9034091C600ED01CC50DF4FE881C6
:1035D000F981408388819981019699838883A051DC
:1035E000BF4F2D913C911197A05FB0408217930778
:1035F00049F4A251BF4F2D913C911197AE5EB0405E
:10360000398328833FB7F894FD01E451FF4FC0810F
:10361000D1812196D183C0833FBF413230F4ED0187
:10362000C653DE4F48814F5F4883FF91EF91DF9192
:10363000CF91BF91AF919F918F914F913F912F91DA
:103640000F900BBE0F900FBE0F901F9018951F92FA
:103650000F920FB60F920BB60F9211242F933F9338
:103660008F939F93AF93BF93CF93DF93EF93FF938A
:10367000A091B803B091B9032FB7F894A054BE4FEE
:103680008D919C911197A05CB1402FBF892B49F17E
:10369000ED01CA53DE4FE881F9813191F983E88366
:1036A000AC53BE4F8D919C911197A45CB140E8172B
:1036B000F90749F4AE53BE4F8D919C911197A25CCE
:1036C000B140998388832FB7F894ED01C054DE4F41
:1036D000A881B9811197B983A8832FBF3093C60001
:1036E00005C03091C1003F7D3093C100FF91EF9143
:1036F000DF91CF91BF91AF919F918F913F912F918A
:103700000F900BBE0F900FBE0F901F9018951F9239
:103710000F920FB60F9211240F900FBE0F901F90B3
:1037200018951F920F920FB60F9211240F900FBE93
:103730000F901F9018958F929F92AF92BF92CF9249
:10374000DF92EF92FF920F931F93DF93CF93CDB74A
:10375000DEB7A0970FB6F894DEBF0FBECDBF7C01D9
:103760000AEC11E0E00EF11EF701808126E33EEF46
:10377000E20EF31E882309F487C080919003909194
:1037800091030E942C23882309F07EC09FB7F894F0
:10379000F701E653FE4F1081115010839FBFAE0119
:1037A0004F5F5F4F30E0D701AE50BF4F80EFC82E64
:1037B000D12CCE0CDF1C870102511F4FB701645181
:1037C0007F4FAD90BC901197F501B1904F011196CC
:1037D000FC93EE93F601808191818816990631F46D
:1037E000F8018080918011969C928E929FB6F894F9
:1037F000FB01808191810197918380839FBEFA01B3
:10380000B082F0E2FB15A4F53F5FA32E4F5F5F4F40
:103810008D909C901197F401B1904F011196FC93FB
:10382000EE93F601808191818816990609F045C0D2
:103830003EC010E003C0C7010E942603E12FF0E064
:10384000E959FD4F60811F5F6623A9F710E003C0AF
:10385000C7010E942603E12FF0E0E559FD4F60818A
:103860001F5F6623A9F7C7016AE00E9426030CC008
:103870008091900390919103BE016F5F7F4F432F22
:10388000F70120810E949E23A0960FB6F894DEBF18
:103890000FBECDBFCF91DF911F910F91FF90EF90A1
:1038A000DF90CF90BF90AF909F908F900895F801D8
:1038B0008081918111969C938E939FB6F894FB0121
:1038C000808191810197918380839FBEFA01B082AC
:1038D00020E22B156CF63A2D3F5F8D909C9011974E
:1038E000F401B1904F011196FC93EE93F6018081A3
:1038F00091818816990631F4F801808191811196A1
:103900009C938E932FB7F894FB018081918101974E
:10391000918380832FBFFA01B18290E29B150CF056
:10392000A7CF3A2D3E5F8D909C901197F401B190F6
:103930004F011196FC93EE93F601808191818816D8
:10394000990631F4F8018081918111969C938E93B0
:103950009FB6F894FB0180819181019791838083C8
:103960009FBEFA01B282F0E2FB150CF081CF3A2D36
:103970003D5F4D5F5F4F303209F023CF5ACF23E0D8
:1039800025BD81E080936E000895AF92BF92CF92E3
:10399000DF92EF92FF920F931F930E94038B5B01C4
:1039A0006C0120E030E04AE755E40E94B98B7B01CE
:1039B0008C0120E030E040E85FE30E94668A8823C3
:1039C0001CF461E070E041C0C801B70120E03FEFA6
:1039D0004FE757E40E94B58B18160CF032C0C601B1
:1039E000B50120E030E040E251E40E94B98B0E9432
:1039F000D78A40E951E09B012770307021153105CD
:103A000009F02FC01AC0DA011197F1F7CA01019726
:103A1000F1F7FA013197F1F7DA011197F1F7CA01DD
:103A20000197F1F7FA013197F1F7DA011197F1F700
:103A3000CA010197F1F7685070406115710519F7D7
:103A400007C0C801B7010E94D78AFB013197F1F77F
:103A50001F910F91FF90EF90DF90CF90BF90AF90AC
:103A60000895CA010197F1F7615070402130310586
:103A700021F32230310529F123303105E9F02430DA
:103A80003105A9F02530310569F02630310529F0DE
:103A9000DA011197F1F761507040FA013197F1F7AF
:103AA00061507040CA010197F1F761507040DA012E
:103AB0001197F1F761507040FA013197F1F76150B9
:103AC0007040CA010197F1F761507040B6CF8FB7CF
:103AD000F89420918C0330918D0340918E03509186
:103AE0008F038FBFB901CA0108956FB7F89486B5E7
:103AF00090E0A0E0B0E0A89B08C00097A105B10548
:103B000021F480E091E0A0E0B0E0209184033091C6
:103B1000850340918603509187036FBF542F432F35
:103B2000322F2227280F391F4A1F5B1F82E0220FE6
:103B3000331F441F551F8A95D1F7B901CA01089553
:103B40001F920F920FB60F9211242F938F939F9372
:103B5000AF93BF938091840390918503A0918603D6
:103B6000B09187030196A11DB11D809384039093AA
:103B70008503A0938603B093870380918803909177
:103B80008903A0918A03B0918B038050904CAF4F72
:103B9000BF4F8093880390938903A0938A03B093C7
:103BA0008B0327C08091880390918903A0918A0399
:103BB000B0918B0380589E43A040B040809388030F
:103BC00090938903A0938A03B0938B0380918C0315
:103BD00090918D03A0918E03B0918F030196A11D4A
:103BE000B11D80938C0390938D03A0938E03B093AB
:103BF0008F038091880390918903A0918A03B091EB
:103C00008B0381589E43A040B04060F6BF91AF91B6
:103C10009F918F912F910F900FBE0F901F9018952D
:103C2000CF93DF93DC01EC01C853DE4FE881F981CB
:103C3000608388819981019699838883AC53BE4FB4
:103C40002D913C911197A45CB1408217930749F4E0
:103C5000AE53BE4F4D915C911197A25CB140598318
:103C600048833FB7F894FD01E054FE4FC081D181F5
:103C70002196D183C0833FBF6D917C9162307105E5
:103C800031F45091D10050625093D10005C0709131
:103C9000C10070627093C100DF91CF9108950F93BE
:103CA0001F93CF93DF938C01EB0103C0C8010E94E7
:103CB0002603FE01219664916623C1F7DF91CF911F
:103CC0001F910F910895FC011782168211861286AA
:103CD00013861486EE59FF4F1082118212821382CE
:103CE00070961082E257F04016861586108A118A67
:103CF000128A138AEA59FF4F1082118212821382AC
:103D00003D961082E357F040158A148A178A108E68
:103D1000118E128EE659FF4F108211821282138289
:103D20003A961082E457F040148E138E168E178E3A
:103D300010A211A2E259FF4F108211821282138247
:103D400037961082E557F04013A212A215A216A2D0
:103D500017A210A612A611A614A615A616A617A697
:103D600011AA10AA13AA14AA15AA16AA10AE17AA65
:103D700012AE13AE14AE15AE17AE16AEEF5BFF4F1C
:103D80001082118212821382E154F040118210825B
:103D9000EC5AFF4F11921192118210823A971082C1
:103DA000118212821382EC54F0402FEF3FEF4FEF5D
:103DB0005FEF2283338344835583E85AFF4F80E0CB
:103DC00090E0A0E0B0E080839183A283B383369635
:103DD0001082118212821382789611821082779655
:103DE0001082118212821382749611921192119292
:103DF00011921082118212821382389610821182DF
:103E0000128213820895DF93CF93CDB7DEB7CC58DB
:103E1000D0400FB6F894DEBF0FBECDBFAC01DE01BF
:103E2000A95BBF4F76E4FD0111927A95E9F71A82FA
:103E3000198228E52B83CE0101960980FD010192AC
:103E4000BF01FC01018011960C921197FB012183A7
:103E5000FC01038013960C921397048014960C9225
:103E60001497058015960C921597068016960C925D
:103E700016971986188639E53A87088417960C92A2
:103E80001797098418960C92189719963C931997CE
:103E90000B841A960C921A970C841B960C921B9703
:103EA0000D841C960C921C970E841D960C921D97E7
:103EB000188A1F862AE5298B0F841E960C921E975E
:103EC00008881F960C921F9750962C9350970A883B
:103ED00051960C9251970B8852960C9252970C88DF
:103EE00053960C9253970D8854960C9254971F8AB0
:103EF0001E8A85E4888F5596FE01769687E00190AC
:103F00000D928150E1F71E8E1D8E9DE49F8FDE0184
:103F1000AD59BF4FFE017D9687E001900D92815013
:103F2000E1F71DA21CA2A7E4AEA3DE01A659BF4F74
:103F3000FE01B49687E001900D928150E1F71CA636
:103F40001BA6B6E4BDA7DE01AF58BF4FFE01BB966E
:103F500087E001900D928150E1F71BAA1AAAF0E5C3
:103F6000FCABDE01A858BF4FFE01F29687E001903E
:103F70000D928150E1F71AAE19AE33E53BAFDE0189
:103F8000A158BF4FFE01F99687E001900D92815034
:103F9000E1F7FE01E05CFF4F1182108284E5DE0153
:103FA000AE5BBF4F8C93DE01AA57BF4F87E00190F5
:103FB0000D928150E1F7DA011696FE01E95BFF4FA1
:103FC00087E001900D928150E1F79A01235F3F4F06
:103FD000D901FE01E25BFF4F87E001900D92815015
:103FE000E1F7295F3F4FD901FE01EB5AFF4F87E010
:103FF00001900D928150E1F7295F3F4FD901FE01F9
:10400000E45AFF4F87E001900D928150E1F7295F5C
:104010003F4FD901FE01ED59FF4F87E001900D920E
:104020008150E1F7295F3F4FD901FE01E659FF4F6B
:1040300087E001900D928150E1F7295F3F4FD90150
:10404000FE01EF58FF4F87E001900D928150E1F79C
:10405000295F3F4FD901FE01E858FF4F87E00190EB
:104060000D928150E1F7295F3F4FD901FE01E158E0
:10407000FF4F87E001900D928150E1F7D90117962B
:10408000FE01EA57FF4F87E001900D928150E1F762
:10409000CA010E94631EC457DF4F0FB6F894DEBFFB
:1040A0000FBECDBFCF91DF910895EF92FF920F9396
:1040B0001F9380916E09882309F0DAC006E819E0A1
:1040C000C8010E94031F8BE59AE00E94031F80E352
:1040D0009BE00E94031F85E09CE00E94031F8AED85
:1040E0009CE00E94031F8FEA9DE00E94031F84E86A
:1040F0009EE00E94031F89E59FE00E94031F8EE25D
:1041000090E10E94031F83E091E10E94031F4AE0B7
:1041100050E05093D9114093D8111092DB111092B6
:10412000DA111093DD110093DC1128ED31E13093A9
:10413000DF112093DE111093E1110093E011109331
:10414000E3110093E21184EE91E10E94031F89EBD9
:1041500092E10E94031F8EE893E10E94031F83E611
:1041600094E10E94031F88E395E10E94031F84EEFF
:1041700091E10E94631E10920E1610920D1610927D
:104180001716EE24EA94FE2C8701E0921C16F0929A
:104190001D1600931E1610931F16109230161092C3
:1041A000351610923C1689EB92E10E94631E109224
:1041B000101610920F1610921816E0922016F09218
:1041C0002116009322161093231610923116109286
:1041D000361610923D168EE893E10E94631E1092EF
:1041E00012161092111610921916E0922416F092DF
:1041F0002516009326161093271610923216109249
:10420000371610923E1683E694E10E94631E1092C8
:1042100014161092131610921A16E0922816F092A5
:10422000291600932A1610932B161092331610920B
:10423000381610923F1688E395E10E94631E109293
:1042400016161092151610921B16E0922C16F0926C
:104250002D1600932E1610932F16109234161092CE
:1042600039161092401610923B1601E000936E0929
:1042700086E899E01F910F91FF90EF900895E22F4B
:10428000F0E0EE0FFF1FEE0FFF1FE80FF91FEA56D9
:10429000F34F4150504060407040408351836283EF
:1042A00073830895EF92FF920F931F93CF93DF9341
:1042B0008C01AB0130E0DB0192968D919C9193973C
:1042C000892B09F431E020E0FA01C1A5D2A520979D
:1042D00009F421E0321709F4B8C1045A174FD80184
:1042E000CD91DC910C551840FA01E080F180F98203
:1042F000E88282819381A481B5818A839B83AC8388
:10430000BD839E012A5F3F4FCA01069666E4DC0129
:104310000D90F90101927F01FC010180F9010182F8
:1043200011960C90D70111960C92FC010380D901D3
:1043300013960C921397048014960C921497058090
:1043400015960C921597068016960C921697078074
:1043500017960C921797008418960C921897018460
:104360000A9619960C92265F3F4F6A5081F6C45BFD
:10437000DF4F445B5F4FFA0141915191619171911F
:10438000499359936993799381919191A191B191B5
:1043900089939993A993B993DF014D915D914993C5
:1043A0005993FD01E190F190E992F99281919191F7
:1043B000A191B19189939993A993B993DF016D91DB
:1043C0007D91AD01699379938D919D910D90BC91F3
:1043D000A02D4E55504088839983AA83BB83CE5528
:1043E000D040DE01AE59BF4FBA016E597F4FFB017D
:1043F00001909F01FD0101927F01FB010180119657
:104400000C921197F9010180F7010182FB010380F1
:1044100013960C921397048014960C9214970580AF
:1044200015960C921597068016960C921697078093
:1044300017960C921797008418960C92189701847F
:1044400019960C92199702841A960C921A97038463
:104450001B960C921B9704841C960C921C97058447
:104460001D960C921D9706841E960C921E9707842B
:104470001F960C924E585F4FFA0181919191A19134
:10448000B191CE58DF4F89939993A993B993DF01E6
:104490002D913D9129933993FD01F190AF01F9924E
:1044A00080819181A281B38149575040888399834B
:1044B000AA83BB83C957D040DE01A358BF4FFA017E
:1044C000E358FF4F80E101900D928150E1F7C3570F
:1044D000DF4F43575F4FFA0181919191A191B191C3
:1044E00089939993A993B9932191319141915191D4
:1044F000299339934993599381919191A191B191C4
:1045000089939993A993B99381919191A191B19133
:1045100089939993A993B9932191319141915191A3
:10452000299339934993599381919191A191B19193
:1045300089939993A993B99381919191A191B19103
:1045400089939993A993B993219131914191519173
:10455000299339934993599381919191A191B19163
:1045600089939993A993B99381919191A191B191D3
:1045700089939993A993B993219131914191519143
:10458000299339934993599381919191A191B19133
:1045900089939993A993B993219131914191519123
:1045A000299339934993599381919191A191B19113
:1045B00089939993A993B993419151916191719183
:1045C000499359936993799381919191A191B19173
:1045D00089939993A993B993419151916191719163
:1045E00049935993699379939E0180819181A28126
:1045F000B381F90180839183A283B383F801E45AE4
:10460000F74F608171816B527F4F71836083085ACD
:10461000174FD801CD91DC91085518406C177D07D4
:1046200049F40A5A174FD801CD91DC91065518402C
:10463000D183C0833FB7F894F801EC5AF74F8081DB
:1046400091810196918380833FBFDF91CF911F912C
:104650000F91FF90EF900895FC014FB7F894EC5A3A
:10466000F74F208131814FBF40E09291829128170E
:10467000390708F041E0842F0895FC01EC54F34F12
:1046800081E0808308950E94552090939103809348
:1046900090030895AF92BF92CF92DF92EF92FF9274
:1046A0000F931F93CF93DF93EC015B0169017A01B4
:1046B00010E003C0CE010E942603F501E10FF11DB9
:1046C00060811F5F6623B1F7AE014E5F5F4FC70188
:1046D000B6012AE030E00E947B8E10E003C0CE01DC
:1046E0000E942603FE01E10FF11D62811F5F662318
:1046F000B1F7002321F0CE016AE00E942603DF918A
:10470000CF911F910F91FF90EF90DF90CF90BF90CE
:10471000AF90089580916609882369F489E496E151
:1047200040E051EE60E070E020E030E00E94141ABA
:1047300021E02093660989E496E108953F924F9223
:104740005F926F927F928F929F92AF92BF92CF9221
:10475000DF92EF92FF920F931F93CF93DF936C0141
:104760008B01942E322EE42EFF2427010894411C45
:10477000511CCB01B2010E945A4CA32CBB24F50161
:10478000EE0FFF1FEC0DFD1DE957F34F8081918166
:10479000892B41F4D8012C912E3421F441E050E0D2
:1047A00051834083F501EE0FFF1FEC0DFD1DE9570E
:1047B000F34F608171816130710509F054C0F801D7
:1047C000772420E030E0B6016A0D7B1DEB01CF5667
:1047D000D34FA7014370507090819A3209F0BDC346
:1047E00003C090819A3219F51082322F3F5FF50194
:1047F000EE0FFF1FEC0DFD1DE957F34F82E090E037
:10480000918380836A54734FEB016880665B7C40C0
:10481000662001F1EB01CF56D34F6655734F588197
:10482000DB019C91590F5058520F588313C0888058
:1048300089268882B081B0321CF410827724739468
:104840002F5F3F4FA9013196DF0190819A3209F025
:10485000D7C3CACF3323A1F0C801830F911D0E9493
:104860000B8E682E07C0F801E90DF11D3081303242
:1048700024F466247724739404C06624772401C04A
:104880006624F601EA0DFB1DE655F34F7081790DA4
:104890007F5F7083E801C90DD11D1882992019F43A
:1048A000772009F448C345ED50E0A49E4001A59E41
:1048B000900CB49E900C11242EE538E0820E931ECD
:1048C0008C0C9D1CE601CA0DDB1DC655D34F88819B
:1048D00090E08415950519F4C4010E94631E10929E
:1048E000621910926119D8018C918E3429F18F349C
:1048F00084F4863409F41AC1873424F4853409F029
:1049000003C2A1C1873409F4FFC08D3409F0FCC192
:104910007DC0883509F41CC189353CF4803509F423
:10492000C7C1833509F0F0C1D5C1893509F439C152
:104930008A3509F0E9C15EC1C80101960E94298E3D
:104940007B018C011616170618061906BCF0F50136
:10495000EE0FFF1FEE0FFF1FEC0DFD1DEA56F34F8C
:104960000894E108F10801091109E082F18202834B
:1049700013830894E11CF11C011D111DE501CC0FEE
:10498000DD1FCC0FDD1FCC0DDD1DCA56D34F888136
:104990009981AA81BB810196A11DB11D888399834C
:1049A000AA83BB8365ED70E0A69EF001A79EF00D83
:1049B000B69EF00D1124EC0DFD1DE05AF74F8083DB
:1049C0009183A283B38388819981AA81BB818E154B
:1049D0009F05A007B10709F497C1F4E03F1629F439
:1049E000E882F9820A831B838FC10E948A2365E7CC
:1049F00072E0A801970101E00E944A23E601CA0D76
:104A0000DB1DC155D34F01E008837EC1C80101966B
:104A10000E94298E45ED50E0A49E2001A59E500CD9
:104A2000B49E500C11244C0C5D1C82010D57174F85
:104A3000D8016D937D938D939C931397E201C05899
:104A4000D74F22E030E0398328836059714080409D
:104A50009040A1F40E94034D19821882F80110823F
:104A60001182128213820E948A2366EC71E00E94F6
:104A70004F1E0E948A236AE00E94260365ED70E0C3
:104A8000A69EE001A79ED00DB69ED00D1124CC0DA0
:104A9000DD1DCD57D74F88819981AA81BB8182596D
:104AA0009140A040B04009F02FC10E948A236EEBD4
:104AB00071E00E944F1E0E949B4C882329F00E94A7
:104AC0008A2368EB71E004C00E948A2363EB71E0E3
:104AD0000E944F1E0E948A236AE00E94260305ED71
:104AE00010E0A09EF001A19EF00DB09EF00D1124EB
:104AF000EC0DFD1DE058F74F1182108233961082A5
:104B000011821282138200C1C80101960E94298E6F
:104B100025ED30E0A29EF001A39EF00DB29EF00DB7
:104B20001124EC0DFD1DE657F74FE5C0C8010196B5
:104B30000E94078EA5EDB0E0AA9EF001AB9EF00D9D
:104B4000BA9EF00D1124EC0DFD1DEF56F74FEBC191
:104B500045ED50E0A49EE001A59ED00DB49ED00D81
:104B60001124CC0DDD1DC058D74F88819981C058C4
:104B7000D840892B09F490C1CD57D74F88819981AE
:104B8000AA81BB81C358D8408C529140A040B0400C
:104B90000CF482C1C80101960E94298EC959D74FD1
:104BA0007DC065ED70E0A69EE001A79ED00DB69E8B
:104BB000D00D1124CC0DDD1DC058D74FE881F981EF
:104BC000C058D840309709F479C1CD57D74F888164
:104BD0009981AA81BB81C358D8408C529140A04092
:104BE000B0400CF46BC1C80101960E94298EC259D5
:104BF000D74F54C025ED30E0A29EE001A39ED00D1A
:104C0000B29ED00D1124CC0DDD1DC058D74FA88108
:104C1000B981C058D840109709F462C1CD57D74F19
:104C200088819981AA81BB81C358D8408C52914018
:104C3000A040B0400CF454C1C80101960E94298ED6
:104C4000CB58D74F2BC045ED50E0A49EE001A59E68
:104C5000D00DB49ED00D1124CC0DDD1DC058D74F02
:104C6000E881F981C058D840309709F44BC1CD573D
:104C7000D74F288139814A815B81C358D8402C3273
:104C8000E1E03E07E0E04E07E0E05E070CF43AC1E9
:104C9000C80101960E94298EC458D74F6883798332
:104CA0008A839B83239702E010E0198308832CC03A
:104CB000C80101960E94298EC5EDD0E0AC9EF0019E
:104CC000AD9EF00DBC9EF00D1124EC0DFD1DE856BF
:104CD000F74F11C0C80101960E94298EA5EDB0E0E2
:104CE000AA9EF001AB9EF00DBA9EF00D1124EC0DC2
:104CF000FD1DE156F74F6083718382839383339761
:104D000082E090E091838083772009F414C1F5015B
:104D1000EE0FFF1FEC0DFD1DE957F34F0190F081E1
:104D2000E02D3097B1F1E601CA0DDB1D3297C9F4D1
:104D3000CF56D34F5880C159DC40561451F10E94D0
:104D40008A23F501EE0FFF1FEE0FFF1FEC0DFD1D77
:104D5000EA56F34F208131814281538163E872E04A
:104D600011C00E948A23F501EE0FFF1FEE0FFF1FF7
:104D7000EC0DFD1DEA56F34F2081318142815381B4
:104D800061E972E001E00E944A23C155D34F11E06E
:104D90001883E501CC0FDD1FCC0DDD1DC957D34FA6
:104DA00019821882F601EA0DFB1DEF56F34F1082AF
:104DB000E159FC40EF01C655D34F5881513029F4D9
:104DC000C4010E94631E1882B6C01882E155F34FD9
:104DD0007080772009F443C094E0391639F40E94BA
:104DE0008A2365E971E00E944F1E19C00E948A2340
:104DF0003C01F501EE0FFF1FEE0FFF1FEC0DFD1D37
:104E0000EA56F34F20813181428153816EE972E08D
:104E100000E00E944A23C3016AE00E942603E501E4
:104E2000CC0FDD1FCC0FDD1FCC0DDD1DCA56D34FBF
:104E300088819981AA81BB810197A109B1098883E1
:104E40009983AA83BB83C4010E94631ECA0CDB1C26
:104E50006FEA7CE0C60ED71ED6011C926CC045EDF1
:104E600050E0A49EF001A59EF00DB49EF00D11241B
:104E7000EC0DFD1DE654F74FB182A082C601B401CE
:104E80000E945221332009F056C00E948A2360E913
:104E900071E00E944F1E4FC0C80101960E94078E0C
:104EA00025ED30E0A29EF001A39EF00DB29EF00D24
:104EB0001124EC0DFD1DE959F74F35C0C8010196CD
:104EC0000E94078E05ED10E0A09EF001A19EF00D5E
:104ED000B09EF00D1124EC0DFD1DE259F74F23C0DB
:104EE000C80101960E94078EA5EDB0E0AA9EF001D0
:104EF000AB9EF00DBA9EF00D1124EC0DFD1DEB588C
:104F0000F74F11C0C80101960E94078EC5EDD0E091
:104F1000AC9EF001AD9EF00DBC9EF00D1124EC0D89
:104F2000FD1DE458F74F6083718382839383339729
:104F300081E090E0E7CEDF91CF911F910F91FF903C
:104F4000EF90DF90CF90BF90AF909F908F907F9029
:104F50006F905F904F903F90089588808926888257
:104F6000F801B081B0321CF410827724739421E0F0
:104F700030E0F8013196E216F3060CF481CC4115CD
:104F8000510509F42ECC4130510549F1423051050B
:104F9000B1F0D80111969C919A3209F425CC688021
:104FA00069266882D80111965C911197503224F4D9
:104FB00011961C92772473942F5F3F4F3196908106
:104FC0009A3209F411CC88818927888390819032A4
:104FD0001CF41082772473942F5F3F4F3196908199
:104FE0009A3209F401CCB881B927B88340814032A4
:104FF0001CF41082772473942F5F3F4F31963EC08C
:10500000288129272883308130321CF410827724AC
:1050100073949A012F5F3F4FFD01319611969C9139
:1050200011979A3209F4E0CBE881E927E8831196D9
:10503000FC911197F0322CF411961C921197772461
:1050400073949A012E5F3F4FFD01329612969C9108
:1050500012979A3209F4C8CB8880892688821296E2
:105060009C91129790322CF412961C9212977724EE
:1050700073949A012D5F3F4FFD013396E216F306BC
:105080000CF0AFCBFDCB2F923F924F925F926F927D
:105090007F928F929F92AF92BF92CF92DF92EF92C8
:1050A000FF920F931F93DF93CF93CDB7DEB7C95D08
:1050B000D0400FB6F894DEBF0FBECDBF7C0180910B
:1050C0009203882369F40E94671D60939A0370938A
:1050D0009B0380939C0390939D0301E000939203B4
:1050E0000E94671D9B01AC0120909A0330909B03A6
:1050F00040909C0350909D035B016C01A218B30883
:10510000C408D508D601C501895E9340A040B040CF
:1051100008F49CC020939A0330939B0340939C0314
:1051200050939D03CC24DD2414E5412E18E0512E2C
:105130004E0C5F1CBAE56B2EB8E07B2E6E0C7F1C0C
:105140008701085A174FB7016A5A774F4CC0F101CF
:10515000A6019601277030702115310509F09AC714
:105160001AC09F012B523F4FD8018D909C9028155B
:10517000390519F4FB0120813181415050402B52F7
:105180003F4FD8018D919C912817390711F00C944D
:10519000C0300C94BD304115510519F7A501440FDD
:1051A000551F440F551FE40FF51FEE59FF4F208187
:1051B000318142815381211531054105510541F06D
:1051C000E1E0F0E0EC0FFD1FEA0DFB1DB1E0B08364
:1051D0000894A11CB11CE4E0AE16B10409F0B7CFED
:1051E0000894C11CD11C9FB6F894D201AD90BC901C
:1051F0009FBECA14DB0430F4F30120803180AA245E
:10520000BB24A5CF0091BA031091BB033980332092
:1052100029F4C80160E070E00E94C5534A80442030
:1052200029F4C80161E070E00E94C5535B805520FD
:1052300029F4C80162E070E00E94C5536C806620CA
:1052400029F4C80163E070E00E94C5537FB6F8946A
:1052500064E5C62E68E0D62EEC0CFD1CD7018D91BE
:105260009C916CEA77EFE60EF71E7FBE892B09F45E
:10527000B0C38701065A174FD801ED91FC912081E8
:1052800031812330310509F046C2CF010E940F3E23
:10529000F80120813181D9010D911C9111971E8354
:1052A0000D8312968D909D90AD90BC9015978F8236
:1052B0009886A986BA86DE011B96F901369687E0A4
:1052C00001900D928150E1F7A901435F5F4FDE012C
:1052D0005296FA0187E001900D928150E1F7495F03
:1052E0005F4FDE015996FA0187E001900D928150DF
:1052F000E1F7495F5F4FDE019096FA0187E0019088
:105300000D928150E1F7495F5F4FDE019796FA01F8
:1053100087E001900D928150E1F7495F5F4FDE0118
:105320009E96FA0187E001900D928150E1F7495F66
:105330005F4FDE01D596FA0187E001900D92815012
:10534000E1F7495F5F4FDE01DC96FA0187E00190EB
:105350000D928150E1F7495F5F4FDE01AD5BBF4FBA
:10536000FA0187E001900D928150E1F7DE01A65B22
:10537000BF4FFA01379687E001900D928150E1F717
:10538000245B3F4FF90141915191619171918F01DE
:10539000FE01EF5AFF4F4083518362837383F8010C
:1053A00081909190A190B1909F01FE01EB5AFF4F27
:1053B00080829182A282B382D901CD90DD90FE01DC
:1053C000E75AFF4FD182C082FD01819191913F0147
:1053D000FE01E55AFF4F91838083F3014190519084
:1053E000619071901F01FE01E35AFF4F408251828C
:1053F00062827382D101AD90BD909D01FE01EF5993
:10540000FF4FB182A0824D915D916D917C912E559F
:105410003040FE01ED59FF4F408351836283738317
:10542000DE01A959BF4FF901EE59FF4F80E101900C
:105430000D928150E1F72E583F4FF90181919191E2
:10544000A191B1913F01FE01E958FF4F8083918303
:10545000A283B383D3014D905D90FE01E558FF4FC9
:1054600051824082FD01B1909F01FE01E358FF4F40
:10547000B082F901A080B180C280D380295730402A
:10548000FE01E258FF4FA082B182C282D382DE01C8
:10549000AE57BF4FF901E358FF4F80E101900D92E5
:1054A0008150E1F723573F4FF901419151916191AB
:1054B00071916F01FE01EE56FF4F4083518362836D
:1054C0007383F60101911191219131914F01FE01F8
:1054D000EA56FF4F0083118322833383F401219125
:1054E000319141915191BF01FE01E656FF4F20835A
:1054F000318342835383FB0181919191A191B191B9
:105500003F01FE01E256FF4F80839183A283B38364
:10551000F30141905190619071901F01FE01EE5591
:10552000FF4F4082518262827382F101A190B1905B
:10553000C190D190AF01FE01EA55FF4FA082B18228
:10554000C282D382FA0101911191219131916F01AF
:10555000FE01E655FF4F0083118322833383F6015A
:1055600081909190A190B1909F01FE01E255FF4F73
:1055700080829182A282B382F90181919191A1915D
:10558000B191BF01FE01EE54FF4F80839183A2834E
:10559000B383FB0161907190819091902F01FE0186
:1055A000EA54FF4F6082718282829382F2012190DD
:1055B0003190419051905F01FE01E654FF4F2082EF
:1055C000318242825382F5014191519161917191F1
:1055D0008F01FE01E254FF4F408351836283738346
:1055E000F80181909190A190B1906F01FE01EE536E
:1055F000FF4F80829182A282B382F6012191319184
:1056000041915191BF01FE01EA53FF4F2083318345
:1056100042835383FB0181919191A191B1913F010B
:10562000FE01E653FF4F80839183A283B383F3018E
:1056300041905190619071901F01FE01E253FF4F24
:105640004082518262827382F101A190B190C19037
:10565000D190AF01FE01EE52FF4FA082B182C28213
:10566000D382FA010081118122813381FE01EA5245
:10567000FF4F0083118322833383F701E65AF74FEC
:10568000208131812B523F4F3183208358E5852E75
:1056900058E0952EE80CF91CD7016D917C9148EAF1
:1056A000C42E47EFD42EEC0CFD1C2617370789F4C7
:1056B00086E5A82E88E0B82EEA0CFB1CD7012D90B9
:1056C0003C900AEAA02F07EFB02FEA0EFB1E3182B2
:1056D0002082DFB6F894F701EC5AF74FA081B18130
:1056E0001197B183A083DFBE10929F0310929E0397
:1056F0003FB7F89414E5412E18E0512EE40CF51C48
:10570000F701808191816CEA77EFE60EF71E3FBFCB
:10571000892B09F45EC1B4EB6B2EBCE07B2EE60C4A
:10572000F71CD7011C912CE433EFE20EF31E11237A
:1057300009F45DC000E010E0A4E5AA2EA8E0BA2EAE
:10574000AE0CBF1CFAE5CF2EF8E0DF2ECE0CDF1C2E
:10575000B701685A774FE6E58E2EE8E09E2E8E0C54
:105760009F1C2BC0D601ED91FC91A80198012770D8
:1057700030702115310509F046C118C09F012B5228
:105780003F4FFB01208031802215330519F4D401ED
:105790002D913C91415050402B523F4FFB01808155
:1057A00091812817390709F0A2C19EC14115510501
:1057B00029F7118210820F5F1F4F9FB7F894D50110
:1057C0004D915C919FBF0417150760F20E9405334D
:1057D0008091B8039091B90362ED71E00E944F1E71
:1057E00004EB1CE0E00EF11EF7011082F2C08AE526
:1057F00098E0E80EF91EF701808191810E94A54092
:105800005FB7F8942AEF3FEFE20EF31ED7018D90B9
:105810009C906CEA77EFE60EF71E5FBF20919E0327
:1058200030919F0334012815390508F4390171E0DE
:10583000A72EB12C62E0862E912C5AE5452E58E019
:10584000552E4E0C5F1C48E5C42E48E0D42ECE0CDD
:10585000DF1C87010A5A174F45EB5CE0E40EF51E8A
:10586000ABC0D2018D919C91F60160817181089449
:10587000A108B108A501477050700894A11CB11C83
:105880008B529F4F8617970709F067C363C38B52EC
:105890009F4F8617970719F4F80180819181215055
:1058A00030408B529F4F8617970709F0BCC3B8C38F
:1058B0000E947040F7017081772309F477C0861445
:1058C000970408F073C0D2016D917C91FB01A40193
:1058D0009401277030702115310509F080C218C07D
:1058E0009F012B523F4FF601208031802215330556
:1058F00019F4D8012D913C91415050402B523F4F0B
:10590000F601808191812817390709F0DDC2D9C2DB
:105910004115510529F7208131812130310509F0E8
:1059200045C0D601ED91FC910894A108B108A501EC
:10593000477050700894A11CB11CCB018B529F4F33
:105940008E179F0709F0AEC1AAC18B529F4F8E17C9
:105950009F0719F4D8018D919C91215030408B52B2
:105960009F4F8E179F0709F003C2FFC1A401940146
:10597000277030702115310509F0FFC012C06B523D
:105980007F4F6E177F0719F4D8016D917C919A01B2
:10599000215030406B527F4F6E177F0709F04BC18B
:1059A00047C14115510559F70E945B400894A11C5D
:1059B000B11C0894811C911CA614B70408F451CFA3
:1059C00080919E0390919F03019690939F038093F3
:1059D0009E03C752DF4F0FB6F894DEBF0FBECDBF98
:1059E000CF91DF911F910F91FF90EF90DF90CF90BB
:1059F000BF90AF909F908F907F906F905F904F90EF
:105A00003F902F900895EB52FF4FDB014D905C903B
:105A1000E415F50519F4D401ED91FC91A80141506C
:105A200050402130310509F4C1CE2230310509F44E
:105A30004DC023303105E9F12430310569F12530BD
:105A40003105E9F02630310569F0EB52FF4FDB01FB
:105A50006D907C90E615F70519F4D401ED91FC9159
:105A600041505040EB52FF4FDB012D903C90E2152E
:105A7000F30519F4D401ED91FC9141505040EB52E3
:105A8000FF4FDB012D913C91E217F30719F4D4018C
:105A9000ED91FC9141505040EB52FF4FDB018D9155
:105AA0009C91E817F90719F4D401ED91FC9141504C
:105AB0005040EB52FF4FDB014D905C90E415F50533
:105AC00019F4D401ED91FC9141505040EB52FF4F3D
:105AD000DB016D907C90E615F70519F4D401ED918A
