:100000000C9401020C9429020C9429020C942902EC
:100010000C9429020C9429020C9429020C942902B4
:100020000C9429020C9429020C9429020C942902A4
:100030000C9429020C9444420C9429020C94290239
:100040000C9429020C9429020C94510A0C94290254
:100050000C9499070C94F0070C9429020C94290233
:100060000C94366C0C9429020C9429020C942902ED
:100070000C9429020C9429020C9429027374617265
:10008000740A006F6B200A005741524E494E473A9E
:1000900020534552494F555320454550524F4D200E
:1000A0004641494C0A004641494C00424547494EA9
:1000B00000454550524F4D2000454550524F4D2070
:1000C00053544F50000A494E56414C4944415445FF
:1000D0004420434F4445530A00204E4F542053556B
:1000E00050504F525445440A00204D434F44452040
:1000F000004641494C00424547554E004545505247
:100100004F4D20524541443A2000204641494C0081
:1001100020424547554E00204645415455524553CF
:100120003A302F6372632D76320020564552534980
:100130004F4E3A312E3720465245455F52414D3A97
:1001400000204E4F5420535550504F525445440AAE
:10015000002047434F4445200000010405050303E8
:100160000405060405060701000100030201000062
:100170000102030405060707060504030201000740
:10018000020100070605040302010003020100004A
:100190000102030405060700010203040506072CFB
:1001A000002C002C002C0032002C0000010001006B
:1001B00001000123002300230023000301030100A9
:1001C0000100012900290029002900200020002029
:1001D000002000200020002000200026002600260D
:1001E00000260026002600260026002900320032C4
:1001F0000032000901090109010901090109010988
:1002000001090123002300230023002F002F002FCA
:10021000002F002F002F002F002F000601060106DF
:100220000106010601060106010601454550524F2F
:100230004D204F564552464C4F57002121204158E2
:10024000495320415245204E4F5420434F4E46497A
:1002500047555245442021210A002045494E562049
:1002600000204550554C4C200020494E562000207F
:100270004449532000206E6F206D61782000206E6D
:100280006F206D696E2000206E6F20656E61626C5C
:10029000652000206E6F206469722000206E6F2040
:1002A000737465702000206E6F20616363656C203D
:1002B00000206E6F2073746570735F7065725F7578
:1002C0006E69742000494E46494E4954594E414E7C
:1002D000CDCCCC3D0AD7233C17B7D13877CC2B32C5
:1002E0009595E6241FB14F0A000020410000C84246
:1002F00000401C4620BCBE4CCA1B0E5AAEC59D74A5
:1003000000407A10F35A00A0724E18090010A5D4CC
:10031000E80000E87648170000E40B54020000CA29
:100320009A3B000000E1F50500008096980000006F
:1003300040420F000000A0860100000010270000CE
:100340000000E803000000006400000000000A0054
:10035000000000000100000000002C76D888DC6757
:100360004F0823DFC1DFAE59E1B1B796E5E3E453AF
:10037000C63AE651997696E8E6C28426EB898C9BCC
:1003800062ED407C6FFCEFBC9C9F40F2BAA56FA56C
:10039000F490055A2AF75C936B6CF9676DC11BFCEE
:1003A000E0E40D47FEF520E6B500D0ED902E030009
:1003B000943577050080841E080000204E0A000056
:1003C00000C80C333333330F986E12831141EF8D15
:1003D0002114893BE65516CFFEE6DB18D1844B3855
:1003E0001BF77C1D901DA4BBE424203284725E2286
:1003F0008100C9F124ECA1E53D279D0FC61D4E2CBF
:10040000636C11241FBECFEFD0E1DEBFCDBF11E082
:10041000A0E0B1E0E2E5FCEE02C005900D92A83F3D
:10042000B107D9F71EE0A8EFB1E001C01D92AE3BC5
:10043000B107E1F713E0C2E0D4E004C02297FE0167
:100440000E94D56FCA3FD107C9F70E948B020C9456
:1004500027760C940000CF93DF93DC01EC01C050B1
:10046000DF4FE881F98160838881998101969983C2
:100470008883A450BF4F2D913C911197AC5FB04041
:100480008217930749F4A650BF4F4D915C91119785
:10049000AA5FB040598348835FB7F894ED01C85014
:1004A000DF4FA881B9811196B983A8835FBF3091CE
:1004B000C10030623093C100DF91CF910895EF9277
:1004C000FF920F931F93CF93DF93C0911F02D091A0
:1004D0002002E0904702F090480200914B021091F8
:1004E0004C02CE010E949D14C7010E944C08CE010F
:1004F0000E949D14C8010E94692ECE010E949D1485
:100500000E946F2FCE010E949D140E945403CE01C1
:100510000E949D14E6CF0F931F93CF93DF9378949F
:100520000E9470090E94E9020E947406C09147026D
:10053000D0914802882371F010E003C0CE010E94E0
:100540002B02E12FF0E0E050FF4F60811F5F662338
:10055000A9F70FC010E003C0CE010E942B02E12FCB
:10056000F0E0E25FFE4F60811F5F6623A9F70E9403
:100570003D300091470210914802CCE7D0E003C023
:10058000C8010E942B02FE01219664916623C1F7E7
:100590000E945F0280E090E0DF91CF911F910F9168
:1005A000089580911002089580911202089580E0CC
:1005B00092E00895109210028091FE019091FF0147
:1005C000009711F00E94A15A1092FF011092FE01B3
:1005D000089580911002882311F00E94DA02809120
:1005E000FC019091FD01009731F00E94345C109263
:1005F000FD011092FC018091FA019091FB0100979E
:1006000031F00E945B5A1092FB011092FA01809126
:10061000F8019091F901009731F00E9492641092D4
:10062000F9011092F8010895DF93CF9300D000D024
:10063000CDB7DEB790E0A0E0B0E0B095A095909582
:1006400081959F4FAF4FBF4F89839A83AB83BC8304
:100650008091FE019091FF01BE016F5F7F4F41E0ED
:100660000E94F15B0F900F900F900F90CF91DF9150
:1006700008958091FE019091FF0161E172E041E0F7
:1006800050E00E94A75A10921202181619061CF484
:1006900081E08093120208951F93109111020E942D
:1006A0003903812F1F9108958F929F92AF92BF922D
:1006B000CF92DF92EF92FF921F93DF93CF93CDB74C
:1006C000DEB7A0970FB6F894DEBF0FBECDBF809106
:1006D0001002882309F486C080901F0290902002A7
:1006E000C4010E94860F882309F07CC0A0901202EA
:1006F000AA2019F40E94DA0275C0FE01319610E2B8
:10070000DF011D921A95E9F7EE24FF245F0109C06D
:100710000894E11CF11C670120911202222379F058
:1007200073C0C0901202CC2051F0109111020E94AF
:100730003903F501EE0DFF1D108311324CF7BE0198
:100740006F5F7F4FFB01EE0DFF1D308131320CF4E6
:1007500044C0809047029090480240E0D401A050ED
:10076000BF4F7CEFC72ED12CC80CD91C6AEFE62EE8
:10077000F12CE80CF91CB40168507F4F25C0ED91B5
:10078000FC91119780838D919C9111970196119600
:100790009C938E93F601A080B1808A159B0531F45D
:1007A000F7012081318111963C932E939FB6F894E6
:1007B000FB01808191810196918380839FBE50913E
:1007C000C10050625093C100E42FF0E0E45EFE4FA0
:1007D00080814F5F882399F605C0C4014E2D22E029
:1007E0000E94F80FA0960FB6F894DEBF0FBECDBFE3
:1007F000CF91DF911F91FF90EF90DF90CF90BF904E
:10080000AF909F908F900895109111020E9439032C
:10081000F501EE0DFF1D108311320CF490CF0894FA
:10082000E11CF11C40911202442309F488CF10917D
:1008300011020E943903F501EE0DFF1D10831132E4
:100840000CF47DCF52E0E52EF12CEC0CFD1C6091F8
:100850001202662309F473CF109111020E9439032A
:10086000F501EE0DFF1D108311320CF468CF43E04B
:10087000E42EF12CEC0CFD1C70911202772309F48C
:100880005ECF109111020E943903F501EE0DFF1D9C
:10089000108311320CF453CF34E0E32EF12CEC0C26
:1008A000FD1C90911202992309F449CF1091110275
:1008B0000E943903F501EE0DFF1D108311320CF477
:1008C0003ECF25E0E22EF12CEC0CFD1CA091120293
:1008D000AA2309F434CF109111020E943903F501C3
:1008E000EE0DFF1D108311320CF429CF96E0E92E96
:1008F000F12CEC0CFD1CB0911202BB2309F41FCFAC
:10090000109111020E943903F501EE0DFF1D1083B5
:1009100011320CF414CF87E0E82EF12CEC0CFD1C06
:10092000F0E2EF16F10409F40ACFFBCEEF92FF924A
:100930000F931F93CF93DF938C017B010EC0C701F0
:10094000B8010E945C71009741F48091FC01909184
:10095000FD010E943A5C81E009C08091FC01909108
:10096000FD01B7010E94E55D882349F7DF91CF9132
:100970001F910F91FF90EF900895EF92FF920F93C8
:100980001F93DF93CF93CDB7DEB7AB970FB6F89435
:10099000DEBF0FBECDBF7B018E010F5F1F4FB801C1
:1009A0000E949604882359F08091FA019091FB01EE
:1009B000B8010E94A263F7019183808381E0AB9626
:1009C0000FB6F894DEBF0FBECDBFCF91DF911F9160
:1009D0000F91FF90EF900895BF92CF92DF92EF9228
:1009E000FF920F931F93DF93CF93CDB7DEB7AB97F3
:1009F0000FB6F894DEBF0FBECDBF8C01E5E0BE2E72
:100A00007E010894E11CF11CC62EDD240894C10867
:100A1000D1088091FC019091FD01B7010E94E55D34
:100A2000882349F1A0E0B0E0C60183709070009780
:100A3000B1F50EC0F801EA0FFB1F808311969D01EE
:100A4000F701EA0FFB1F8081882309F04CC009C021
:100A5000AC15BD0534F4F701EA0FFB1F8081882334
:100A600049F7F801EA0FFB1F10821A161B062CF03B
:100A7000BA9479F602C0F801108280E090E0AB965B
:100A80000FB6F894DEBF0FBECDBFCF91DF911F919F
:100A90000F91FF90EF90DF90CF90BF900895AC152D
:100AA000BD05FCF6F70120812223D9F2F80120834D
:100AB000A1E0B0E08130910559F2029741F0F701D1
:100AC0008181882371F2F8018183A2E0B0E0F7010F
:100AD000EA0FFB1F8081882321F2F801EA0FFB1F38
:100AE00080831196B5CFF801EA0FFB1F8083119622
:100AF000F701EA0FFB1FE081EE2309F4B2CFA00F4C
:100B0000B11FEC93D9011296F701EA0FFB1FE081A8
:100B1000EE2309F4A6CFA00FB11FEC93D9011396D1
:100B200097CF0F931F93DF93CF93CDB7DEB7AB97DC
:100B30000FB6F894DEBF0FBECDBF8091FA01909141
:100B4000FB0161E271E08E010F5F1F4FA8010E945F
:100B5000DA638091FA019091FB01B8010E9465630C
:100B60009093FD018093FC0120E0892B09F021E0A6
:100B7000822FAB960FB6F894DEBF0FBECDBFCF91DC
:100B8000DF911F910F9108958091F8019091F901E3
:100B90000E94D1619093FB018093FA0120E0892BA0
:100BA00009F021E0822F08950F9388E897E66CE71B
:100BB00078E640E050E020E030E000E00E949A64F7
:100BC0009093F9018093F801892B79F488E897E6EE
:100BD0006CE778E640E050E020E030E00FEF0E9464
:100BE0009A649093F9018093F80120E08091F801D4
:100BF0009091F901892B09F021E0822F0F9108953E
:100C00000E94EC68882371F40E949165882329F47E
:100C10000E94E90221E030E029C00E94E90222E0BE
:100C200030E024C00E94D405882329F40E94E90200
:100C300023E030E01BC00E94C405882329F40E94F1
:100C4000E90224E030E012C00E949105882329F4D3
:100C50000E94E90225E030E009C00E9493658823E4
:100C600019F420E030E002C026E030E0C901089528
:100C7000CF93DF93EC010E94E9020E9400069C01E1
:100C8000009719F08630910599F41092FF011092A7
:100C9000FE01CE016EEF71E00E94BD04882331F0A9
:100CA0008091FE019091FF01892B31F427E030E023
:100CB000C901DF91CF91089521E0209310020E9495
:100CC000390320E030E0F4CF80911002882311F046
:100CD00020E008C080E092E00E94380620E0892BE6
:100CE00009F421E0822F089580911002882311F0E9
:100CF00020E008C083E291E00E94380620E0892BC2
:100D000009F421E0822F08950E94E9020E94000662
:100D10009C01009719F08630910541F48091FC0107
:100D20009091FD010E943A5C20E030E0C9010895F5
:100D300080910002882311F40E94840680E092E0F2
:100D400060E10E94EC04892B21F4209100022E32F4
:100D5000A9F380E092E00895CF93DF93DC01EC01EA
:100D6000C050DF4FE881F9816083888199810196C5
:100D700099838883A450BF4F2D913C911197AC5F0C
:100D8000B0408217930749F4A650BF4F4D915C9134
:100D90001197AA5FB040598348835FB7F894ED017B
:100DA000C850DF4FA881B9811196B983A8835FBF6E
:100DB0003091C10030623093C100DF91CF9108952E
:100DC0001F939A01AB011FB7F894809164008D7F47
:100DD00080936400223086E9380780E0480780E08D
:100DE000580740F062E06093C00060E874E88EE16C
:100DF00090E006C01092C00060E472E48FE090E0E2
:100E00000E94B16FCA01B9010E94FB6D20E030E081
:100E100040E05FE30E94F96C0E94CF6D7093C500C3
:100E20006093C40048E14093C10036E03093C200B3
:100E30002091C100206A2093C1001FBF1F91089517
:100E40000F931F93FC018296DF01AA57BF4F04E660
:100E500010E011961C930E93E857FF4F11821082F9
:100E6000329681939193A193B193819391939183BE
:100E70008083E059F040CF018E569F4FDF01AA508A
:100E8000BF4F11961C930E93E850FF4F11821082B2
:100E9000329681939193A193B1938193919381938E
:100EA00091931082E250F14031832083CF010E9460
:100EB000E0061F910F9108950F931F93FC018296F6
:100EC000DF01AA57BF4F04E610E011961C930E9362
:100ED000E857FF4F11821082329681939193A1932C
:100EE000B1938193919391838083E059F040CF0136
:100EF0008E569F4FDF01AA50BF4F11961C930E9341
:100F0000E850FF4F11821082329681939193A19302
:100F1000B19381939193819391931082E250F14028
:100F200031832083CF010E94E0061F910F91089525
:100F300008951F920F920FB60F9211242F933F9393
:100F40004F938F939F93AF93BF93CF93DF93EF9381
:100F5000FF93A0914702B09148024091C600ED0175
:100F6000C057DF4FE881F9814083888199810196DC
:100F700099838883A457BF4F2D913C911197AC580A
:100F8000B0408217930749F4A657BF4F2D913C916B
:100F90001197AA58B040398328833FB7F894FD01D0
:100FA000E857FF4FC081D1812196D183C0833FBFD5
:100FB000413230F4ED01CE5FDE4F48814F5F488310
:100FC000FF91EF91DF91CF91BF91AF919F918F9161
:100FD0004F913F912F910F900FBE0F901F9018953A
:100FE0001F920F920FB60F9211242F933F938F935E
:100FF0009F93AF93BF93CF93DF93EF93FF93A09112
:101000004702B09148022FB7F894A850BF4F8D9176
:101010009C911197A85FB0402FBF892B49F1ED013A
:10102000C250DF4FE881F9813191F983E883A45000
:10103000BF4F8D919C911197AC5FB040E817F907B5
:1010400049F4A650BF4F8D919C911197AA5FB04073
:10105000998388832FB7F894ED01C850DF4FA8819A
:10106000B9811197B983A8832FBF3093C60005C0FB
:101070003091C1003F7D3093C100FF91EF91DF912E
:10108000CF91BF91AF919F918F913F912F910F90F1
:101090000FBE0F901F9018958F929F92AF92BF92A4
:1010A000CF92DF92EF92FF920F931F93DF93CF9334
:1010B000CDB7DEB7A0970FB6F894DEBF0FBECDBF99
:1010C0007C0102E011E0E00EF11EF70180812EEFBD
:1010D0003EEFE20EF31E882309F487C080911F02C1
:1010E000909120020E94860F882309F07EC09FB74E
:1010F000F894F701EE5FFE4F1081115010839FBFEF
:10110000AE014F5F5F4F30E0D701A257BF4F8CE871
:10111000C82ED12CCE0CDF1C870106571F4FB701FC
:1011200068577F4FAD90BC901197F501B1904F017A
:101130001196FC93EE93F6018081918188169906B1
:1011400031F4F8018080918011969C928E929FB626
:10115000F894FB01808191810197918380839FBEE8
:10116000FA01B082F0E2FB15A4F53F5FA32E4F5FBA
:101170005F4F8D909C901197F401B1904F011196A3
:10118000FC93EE93F601808191818816990609F00F
:1011900045C03EC010E003C0C7010E942B02E12FF2
:1011A000F0E0E05DFE4F60811F5F6623A9F710E06D
:1011B00003C0C7010E942B02E12FF0E0EC5CFE4F60
:1011C00060811F5F6623A9F7C7016AE00E942B02B6
:1011D0000CC080911F0290912002BE016F5F7F4F73
:1011E000432FF70120810E94F80FA0960FB6F894C4
:1011F000DEBF0FBECDBFCF91DF911F910F91FF904A
:10120000EF90DF90CF90BF90AF909F908F90089518
:10121000F8018081918111969C938E939FB6F894EA
:10122000FB01808191810197918380839FBEFA01A8
:10123000B08220E22B156CF63A2D3F5F8D909C908A
:101240001197F401B1904F011196FC93EE93F601C2
:10125000808191818816990631F4F801808191810D
:1012600011969C938E932FB7F894FB018081918106
:101270000197918380832FBFFA01B18290E29B1581
:101280000CF0A7CF3A2D3E5F8D909C901197F40102
:10129000B1904F011196FC93EE93F60180819181FC
:1012A0008816990631F4F8018081918111969C93FA
:1012B0008E939FB6F894FB01808191810197918371
:1012C00080839FBEFA01B282F0E2FB150CF081CF61
:1012D0003A2D3D5F4D5F5F4F303209F023CF5ACF3B
:1012E00023E025BD81E080936E000895AF92BF9208
:1012F000CF92DF92EF92FF920F931F930E94FB6DAC
:101300005B016C0120E030E04AE755E40E94B16ED9
:101310007B018C0120E030E040E85FE30E945E6DDD
:1013200088231CF461E070E041C0C801B70120E0EF
:101330003FEF4FE757E40E94AD6E18160CF032C035
:10134000C601B50120E030E040E251E40E94B16EF8
:101350000E94CF6D40E951E09B012770307021154C
:10136000310509F02FC01AC0DA011197F1F7CA014F
:101370000197F1F7FA013197F1F7DA011197F1F7D7
:10138000CA010197F1F7FA013197F1F7DA011197E4
:10139000F1F7CA010197F1F76850704061157105C6
:1013A00019F707C0C801B7010E94CF6DFB01319743
:1013B000F1F71F910F91FF90EF90DF90CF90BF90CA
:1013C000AF900895CA010197F1F761507040213044
:1013D000310521F32230310529F123303105E9F0BF
:1013E00024303105A9F02530310569F0263031056A
:1013F00029F0DA011197F1F761507040FA01319745
:10140000F1F761507040CA010197F1F761507040E7
:10141000DA011197F1F761507040FA013197F1F755
:1014200061507040CA010197F1F761507040B6CF2A
:101430008FB7F89420911B0230911C0240911D023D
:1014400050911E028FBFB901CA0108956FB7F89479
:1014500086B590E0A0E0B0E0A89B08C00097A10589
:10146000B10521F480E091E0A0E0B0E0209113020A
:101470003091140240911502509116026FBF542F03
:10148000432F322F2227280F391F4A1F5B1F82E06C
:10149000220F331F441F551F8A95D1F7B901CA0186
:1014A00008951F920F920FB60F9211242F938F93CE
:1014B0009F93AF93BF938091130290911402A091D8
:1014C0001502B09116020196A11DB11D8093130261
:1014D00090931402A0931502B09316028091170204
:1014E00090911802A0911902B0911A028050904C6C
:1014F000AF4FBF4F8093170290931802A093190229
:10150000B0931A0227C08091170290911802A091FF
:101510001902B0911A0280589E43A040B0408093B7
:10152000170290931802A0931902B0931A028091A7
:101530001B0290911C02A0911D02B0911E02019607
:10154000A11DB11D80931B0290931C02A0931D024C
:10155000B0931E028091170290911802A091190277
:10156000B0911A0281589E43A040B04060F6BF91EE
:10157000AF919F918F912F910F900FBE0F901F9061
:101580001895CF93DF93DC01EC01C050DF4FE88169
:10159000F981608388819981019699838883A45019
:1015A000BF4F2D913C911197AC5FB04082179307CC
:1015B00049F4A650BF4F4D915C911197AA5FB0407E
:1015C000598348835FB7F894ED01C850DF4FA88175
:1015D000B9811196B983A8835FBF3091C100306291
:1015E0003093C100DF91CF9108950F931F93CF9354
:1015F000DF938C01EB0103C0C8010E942B02FE01A6
:10160000219664916623C1F7DF91CF911F910F91CD
:101610000895FC011782168211861286138614869D
:10162000EE59FF4F1082118212821382709610823F
:10163000E257F04016861586108A118A128A138A9C
:10164000EA59FF4F10821182128213823D96108256
:10165000E357F040158A148A178A108E118E128E65
:10166000E659FF4F10821182128213823A9610823D
:10167000E457F040148E138E168E178E10A211A20E
:10168000E259FF4F10821182128213823796108224
:10169000E557F04013A212A215A216A217A210A697
:1016A00012A611A614A615A616A617A611AA10AA68
:1016B00013AA14AA15AA16AA10AE17AA12AE13AE30
:1016C00014AE15AE17AE16AEEF5BFF4F108211824F
:1016D00012821382E154F04011821082EC5AFF4FC3
:1016E00011921192118210823A9710821182128205
:1016F0001382EC54F0402FEF3FEF4FEF5FEF228368
:10170000338344835583E85AFF4F80E090E0A0E0A4
:10171000B0E080839183A283B383369610821182D6
:10172000128213827896118210827796108211822B
:101730001282138274961192119211921192108258
:1017400011821282138238961082118212821382C1
:101750000895DF93CF93CDB7DEB7CC58D0400FB606
:10176000F894DEBF0FBECDBFAC01DE01A95BBF4F59
:1017700076E4FD0111927A95E9F71A82198228E53B
:101780002B83CE0101960980FD010192BF01FC016E
:10179000018011960C921197FB012183FC010380BB
:1017A00013960C921397048014960C92149705804C
:1017B00015960C921597068016960C921697198618
:1017C000188639E53A87088417960C92179709848A
:1017D00018960C92189719963C9319970B841A96A1
:1017E0000C921A970C841B960C921B970D841C96D6
:1017F0000C921C970E841D960C921D97188A1F86BA
:101800002AE5298B0F841E960C921E9708881F9636
:101810000C921F9750962C9350970A8851960C92D1
:1018200051970B8852960C9252970C8853960C92B3
:1018300053970D8854960C9254971F8A1E8A85E4FC
:10184000888F5596FE01769687E001900D92815023
:10185000E1F71E8E1D8E9DE49F8FDE01AD59BF4FB7
:10186000FE017D9687E001900D928150E1F71DA267
:101870001CA2A7E4AEA3DE01A659BF4FFE01B49699
:1018800087E001900D928150E1F71CA61BA6B6E4FB
:10189000BDA7DE01AF58BF4FFE01BB9687E00190A8
:1018A0000D928150E1F71BAA1AAAF0E5FCABDE010C
:1018B000A858BF4FFE01F29687E001900D9281502B
:1018C000E1F71AAE19AE33E53BAFDE01A158BF4FC9
:1018D000FE01F99687E001900D928150E1F7FE013B
:1018E000E05CFF4F1182108284E5DE01AE5BBF4FEA
:1018F0008C93DE01AA57BF4F87E001900D92815073
:10190000E1F7DA011696FE01E95BFF4F87E00190EF
:101910000D928150E1F79A01235F3F4FD901FE01FB
:10192000E25BFF4F87E001900D928150E1F7295F64
:101930003F4FD901FE01EB5AFF4F87E001900D9216
:101940008150E1F7295F3F4FD901FE01E45AFF4F73
:1019500087E001900D928150E1F7295F3F4FD90157
:10196000FE01ED59FF4F87E001900D928150E1F7A4
:10197000295F3F4FD901FE01E659FF4F87E00190F3
:101980000D928150E1F7295F3F4FD901FE01EF58D9
:10199000FF4F87E001900D928150E1F7295F3F4FA3
:1019A000D901FE01E858FF4F87E001900D92815068
:1019B000E1F7295F3F4FD901FE01E158FF4F87E072
:1019C00001900D928150E1F7D9011796FE01EA5777
:1019D000FF4F87E001900D928150E1F7CA010E940C
:1019E000090BC457DF4F0FB6F894DEBF0FBECDBF53
:1019F000CF91DF910895EF92FF920F931F93809103
:101A00007C05882309F08EC00CE815E0C8010E940F
:101A1000A90B81E696E00E94A90B86E397E00E945D
:101A2000A90B8BE098E00E94A90B80EE98E00E9441
:101A3000A90B45E050E05093B6094093B5091092C8
:101A4000B8091092B7091093BA090093B90925EBA8
:101A500039E03093BC092093BB091093BE09009371
:101A6000BD091093C0090093BF0981EC99E00E9461
:101A7000A90B86E99AE00E94A90B8BE69BE00E94E5
:101A8000A90B81EC99E00E94090B1092410C109275
:101A9000400C1092460CEE24EA94FE2C8701E09252
:101AA000490CF0924A0C00934B0C10934C0C109282
:101AB000550C1092580C10925D0C86E99AE00E9429
:101AC000090B1092430C1092420C1092470CE092BA
:101AD0004D0CF0924E0C00934F0C1093500C109242
:101AE000560C1092590C10925E0C8BE69BE00E94F3
:101AF000090B1092450C1092440C1092480CE09285
:101B0000510CF092520C0093530C1093540C109201
:101B1000570C10925A0C10925F0C10925C0C01E062
:101B200000937C058CE895E01F910F91FF90EF905A
:101B30000895E22FF0E0EE0FFF1FEE0FFF1FE80FFA
:101B4000F91FE354F94F41505040604070404083CA
:101B50005183628373830895EF92FF920F931F93D3
:101B6000CF93DF938C01AB0130E0DB0192968D9136
:101B70009C919397892B09F431E020E0FA01C1A5EB
:101B8000D2A5209709F421E0321709F4B8C10D5C01
:101B90001B4FD801CD91DC9103531440FA01E08032
:101BA000F180F982E88282819381A481B5818A8360
:101BB0009B83AC83BD839E012A5F3F4FCA0106967B
:101BC00066E4DC010D90F90101927F01FC010180C6
:101BD000F901018211960C90D70111960C92FC012B
:101BE0000380D90113960C921397048014960C92DB
:101BF0001497058015960C921597068016960C92F0
:101C00001697078017960C921797008418960C92D7
:101C1000189701840A9619960C92265F3F4F6A50D6
:101C200081F6C45BDF4F445B5F4FFA0141915191F4
:101C300061917191499359936993799381919191AC
:101C4000A191B19189939993A993B993DF014D9192
:101C50005D9149935993FD01E190F190E992F992D8
:101C600081919191A191B19189939993A993B993FC
:101C7000DF016D917D91AD01699379938D919D9176
:101C80000D90BC91A02D4E55504088839983AA8316
:101C9000BB83CE55D040DE01AE59BF4FBA016E595D
:101CA0007F4FFB0101909F01FD0101927F01FB012C
:101CB000018011960C921197F9010180F7010182C0
:101CC000FB01038013960C921397048014960C92D8
:101CD0001497058015960C921597068016960C920F
:101CE0001697078017960C921797008418960C92F7
:101CF0001897018419960C92199702841A960C92DF
:101D00001A9703841B960C921B9704841C960C92C2
:101D10001C9705841D960C921D9706841E960C92A6
:101D20001E9707841F960C924E585F4FFA018191BF
:101D30009191A191B191CE58DF4F89939993A99335
:101D4000B993DF012D913D9129933993FD01F190D4
:101D5000AF01F99280819181A281B38149575040AE
:101D600088839983AA83BB83C957D040DE01A358D7
:101D7000BF4FFA01E358FF4F80E101900D9281506F
:101D8000E1F7C357DF4F43575F4FFA0181919191BC
:101D9000A191B19189939993A993B993219131918B
:101DA00041915191299339934993599381919191FB
:101DB000A191B19189939993A993B99381919191AB
:101DC000A191B19189939993A993B993219131915B
:101DD00041915191299339934993599381919191CB
:101DE000A191B19189939993A993B993819191917B
:101DF000A191B19189939993A993B993219131912B
:101E0000419151912993399349935993819191919A
:101E1000A191B19189939993A993B993819191914A
:101E2000A191B19189939993A993B99321913191FA
:101E3000419151912993399349935993819191916A
:101E4000A191B19189939993A993B99321913191DA
:101E5000419151912993399349935993819191914A
:101E6000A191B19189939993A993B993419151917A
:101E7000619171914993599369937993819191916A
:101E8000A191B19189939993A993B993419151915A
:101E90006191719149935993699379939E018081DE
:101EA0009181A281B381F90180839183A283B3835D
:101EB000F801ED5CFB4F608171816B527F4F718344
:101EC0006083015D1B4FD801CD91DC910F5214400E
:101ED0006C177D0749F4035D1B4FD801CD91DC9150
:101EE0000D521440D183C0833FB7F894F801E55DEB
:101EF000FB4F808191810196918380833FBFDF9169
:101F0000CF911F910F91FF90EF900895FC014FB773
:101F1000F894E55DFB4F208131814FBF40E0929105
:101F200082912817390708F041E0842F0895FC01B9
:101F3000E153F94F81E0808308950E94FB0C909358
:101F4000200280931F020895AF92BF92CF92DF923A
:101F5000EF92FF920F931F93CF93DF93EC015B01FE
:101F600069017A0110E003C0CE010E942B02F50145
:101F7000E10FF11D60811F5F6623B1F7AE014E5F77
:101F80005F4FC701B6012AE030E00E94737110E094
:101F900003C0CE010E942B02FE01E10FF11D628100
:101FA0001F5F6623B1F7002321F0CE016AE00E9493
:101FB0002B02DF91CF911F910F91FF90EF90DF9057
:101FC000CF90BF90AF90089580917405882369F4F5
:101FD00088E69CE040E051EE60E070E020E030E018
:101FE0000E94200721E02093740588E69CE0089574
:101FF0003F924F925F926F927F928F929F92AF9299
:10200000BF92CF92DF92EF92FF920F931F93CF93E5
:10201000DF936C018B01942E322EE42EFF242701D6
:102020000894411C511CCB01B2010E94D82FA32C53
:10203000BB24F501E65AFC4FEE0FFF1FEC0DFD1D12
:1020400080819181892B41F4D8012C912E3421F487
:1020500041E050E051834083F501E65AFC4FEE0F1A
:10206000FF1FEC0DFD1D608171816130710509F06C
:1020700054C0F801772420E030E0B6016A0D7B1DE2
:10208000EB01C654D94FA7014370507090819A322A
:1020900009F0BDC303C090819A3219F51082322F26
:1020A0003F5FF501E65AFC4FEE0FFF1FEC0DFD1DE3
:1020B00082E090E0918380836F52794FEB016880DA
:1020C000615D7640662001F1EB01C654D94F67533C
:1020D000794F5881DB019C91590F5058520F58830A
:1020E00013C0888089268882B081B0321CF41082A7
:1020F000772473942F5F3F4FA9013196DF019081C0
:102100009A3209F0D7C3CACF3323A1F0C801830F95
:10211000911D0E940371682E07C0F801E90DF11DA1
:102120003081303224F466247724739404C066240A
:10213000772401C06624F601EA0DFB1DE753F94F31
:102140007081790D7F5F7083E801C90DD11D188200
:10215000992019F4772009F448C345ED50E0A49E76
:102160004001A59E900CB49E900C112425E334E010
:10217000820E931E8C0C9D1CE601CA0DDB1DC753FD
:10218000D94F888190E08415950519F4C4010E9407
:10219000090B1092B90E1092B80ED8018C918E34A2
:1021A00029F18F3484F4863409F41AC1873424F475
:1021B000853409F003C2A1C1873409F4FFC08D340E
:1021C00009F0FCC17DC0883509F41CC189353CF497
:1021D000803509F4C7C1833509F0F0C1D5C189350F
:1021E00009F439C18A3509F0E9C15EC1C801019617
:1021F0000E9421717B018C0116161706180619061C
:10220000BCF0F501EE0FFF1FEE0FFF1FEC0DFD1DE3
:10221000E354F94F0894E108F10801091109E0823B
:10222000F182028313830894E11CF11C011D111D2E
:10223000E501CC0FDD1FCC0FDD1FCC0DDD1DC35420
:10224000D94F88819981AA81BB810196A11DB11DB9
:1022500088839983AA83BB8365ED70E0A69EF00115
:10226000A79EF00DB69EF00D1124EC0DFD1DE95C4E
:10227000FB4F80839183A283B38388819981AA8154
:10228000BB818E159F05A007B10709F497C1F1E046
:102290003F1629F4E882F9820A831B838FC10E94CA
:1022A000E40F6EE371E0A801970101E00E94A40F22
:1022B000E601CA0DDB1DC453D94F01E008837EC17E
:1022C000C80101960E94217145ED50E0A49E2001B5
:1022D000A59E500CB49E500C11244C0C5D1C820128
:1022E000065A1B4FD8016D937D938D939C93139742
:1022F000E201C95ADB4F22E030E03983288360597C
:10230000714080409040A1F40E948130198218826F
:10231000F80110821182128213820E94E40F69EB8D
:1023200070E00E94F50A0E94E40F6AE00E942B020E
:1023300065ED70E0A69EE001A79ED00DB69ED00D83
:102340001124CC0DDD1DC65ADB4F88819981AA81ED
:10235000BB8182599140A040B04009F02FC10E943A
:10236000E40F61EB70E00E94F50A0E9419308823A7
:1023700029F00E94E40F6BEA70E004C00E94E40FB1
:1023800066EA70E00E94F50A0E94E40F6AE00E948B
:102390002B0205ED10E0A09EF001A19EF00DB09E75
:1023A000F00D1124EC0DFD1DE95AFB4F1182108236
:1023B0003396108211821282138200C1C8010196E5
:1023C0000E94217125ED30E0A29EF001A39EF00D48
:1023D000B29EF00D1124EC0DFD1DEF59FB4FE5C031
:1023E000C80101960E94FF70A5EDB0E0AA9EF00121
:1023F000AB9EF00DBA9EF00D1124EC0DFD1DE859B9
:10240000FB4FEBC145ED50E0A49EE001A59ED00D31
:10241000B49ED00D1124CC0DDD1DC95ADB4F88812F
:102420009981C755D440892B09F490C1C65ADB4F16
:1024300088819981AA81BB81CA55D4408C52914030
:10244000A040B0400CF482C1C80101960E942171E5
:10245000C25CDB4F7DC065ED70E0A69EE001A79EEB
:10246000D00DB69ED00D1124CC0DDD1DC95ADB4F09
:10247000E881F981C755D440309709F479C1C65A2B
:10248000DB4F88819981AA81BB81CA55D4408C5287
:102490009140A040B0400CF46BC1C80101960E946D
:1024A0002171CB5BDB4F54C025ED30E0A29EE001F3
:1024B000A39ED00DB29ED00D1124CC0DDD1DC95AA6
:1024C000DB4FA881B981C755D440109709F462C188
:1024D000C65ADB4F88819981AA81BB81CA55D440F5
:1024E0008C529140A040B0400CF454C1C8010196F8
:1024F0000E942171C45BDB4F2BC045ED50E0A49ED0
:10250000E001A59ED00DB49ED00D1124CC0DDD1D93
:10251000C95ADB4FE881F981C755D440309709F497
:102520004BC1C65ADB4F288139814A815B81CA552C
:10253000D4402C32E1E03E07E0E04E07E0E05E07E9
:102540000CF43AC1C80101960E942171CD5ADB4FAB
:10255000688379838A839B83239702E010E0198341
:1025600008832CC0C80101960E942171C5EDD0E0FE
:10257000AC9EF001AD9EF00DBC9EF00D1124EC0D53
:10258000FD1DE159FB4F11C0C80101960E94217148
:10259000A5EDB0E0AA9EF001AB9EF00DBA9EF00D45
:1025A0001124EC0DFD1DEA58FB4F6083718382837B
:1025B0009383339782E090E091838083772009F4BE
:1025C00014C1F501E65AFC4FEE0FFF1FEC0DFD1D87
:1025D0000190F081E02D3097B1F1E601CA0DDB1DCD
:1025E0003297C9F4C654D94F5880CA5BD6405614A6
:1025F00051F10E94E40FF501EE0FFF1FEE0FFF1FD8
:10260000EC0DFD1DE354F94F20813181428153814E
:102610006CE471E011C00E94E40FF501EE0FFF1FA2
:10262000EE0FFF1FEC0DFD1DE354F94F20813181AA
:10263000428153816AE571E001E00E94A40FC45316
:10264000D94F11E01883E501C65ADC4FCC0FDD1FCE
:10265000CC0DDD1D19821882F601EA0DFB1DE65432
:10266000F94F1082EA5BF640EF01C753D94F58810A
:10267000513029F4C4010E94090B1882B6C0188297
:10268000E453F94F7080772009F443C091E0391684
:1026900039F40E94E40F68E870E00E94F50A19C05E
:1026A0000E94E40F3C01F501EE0FFF1FEE0FFF1F2C
:1026B000EC0DFD1DE354F94F20813181428153819E
:1026C00067E671E000E00E94A40FC3016AE00E9487
:1026D0002B02E501CC0FDD1FCC0FDD1FCC0DDD1D66
:1026E000C354D94F88819981AA81BB810197A109DF
:1026F000B10988839983AA83BB83C4010E94090B13
:10270000CA0CDB1C6CEC76E0C60ED71ED6011C9200
:102710006CC045ED50E0A49EF001A59EF00DB49E66
:10272000F00D1124EC0DFD1DEF56FB4FB182A08280
:10273000C601B4010E94AC0D332009F056C00E94BE
:10274000E40F63E870E00E94F50A4FC0C8010196EB
:102750000E94FF7025ED30E0A29EF001A39EF00DD7
:10276000B29EF00D1124EC0DFD1DE25CFB4F35C057
:10277000C80101960E94FF7005ED10E0A09EF001D7
:10278000A19EF00DB09EF00D1124EC0DFD1DEB5B34
:10279000FB4F23C0C80101960E94FF70A5EDB0E079
:1027A000AA9EF001AB9EF00DBA9EF00D1124EC0D27
:1027B000FD1DE45BFB4F11C0C80101960E94FF7034
:1027C000C5EDD0E0AC9EF001AD9EF00DBC9EF00DCD
:1027D0001124EC0DFD1DED5AFB4F60837183828344
:1027E0009383339781E090E0E7CEDF91CF911F9103
:1027F0000F91FF90EF90DF90CF90BF90AF909F90A0
:102800008F907F906F905F904F903F900895888059
:1028100089268882F801B081B0321CF410827724B6
:10282000739421E030E0F8013196E216F3060CF4DF
:1028300081CC4115510509F42ECC4130510549F1A7
:1028400042305105B1F0D80111969C919A3209F4A9
:1028500025CC688069266882D80111965C91119711
:10286000503224F411961C92772473942F5F3F4FBB
:10287000319690819A3209F411CC88818927888316
:10288000908190321CF41082772473942F5F3F4F15
:10289000319690819A3209F401CCB881B927B88376
:1028A000408140321CF41082772473942F5F3F4F95
:1028B00031963EC0288129272883308130321CF48C
:1028C0001082772473949A012F5F3F4FFD01319658
:1028D00011969C9111979A3209F4E0CBE881E9278F
:1028E000E8831196FC911197F0322CF411961C920A
:1028F0001197772473949A012E5F3F4FFD01329612
:1029000012969C9112979A3209F4C8CB8880892636
:10291000888212969C91129790322CF412961C92F7
:102920001297772473949A012D5F3F4FFD013396E0
:10293000E216F3060CF0AFCBFDCB2F923F924F92F5
:102940005F926F927F928F929F92AF92BF92CF923F
:10295000DF92EF92FF920F931F93DF93CF93CDB748
:10296000DEB7C95DD0400FB6F894DEBF0FBECDBF55
:102970007C0180912102882369F40E94180A6093E7
:10298000290270932A0280932B0290932C0201E07B
:10299000009321020E94180A9B01AC012090290299
:1029A00030902A0240902B0250902C025B016C0167
:1029B000A218B308C408D508D601C501895E9340A2
:1029C000A040B04008F49CC02093290230932A0212
:1029D00040932B0250932C02CC24DD241BE2412E89
:1029E00014E0512E4E0C5F1CB1E36B2EB4E07B2E35
:1029F0006E0C7F1C8701015D1B4FB701635D7B4F30
:102A00004CC0F101A60196012770307021153105E7
:102A100009F09AC71AC09F012B523F4FD8018D90E1
:102A20009C902815390519F4FB0120813181415012
:102A300050402B523F4FD8018D919C912817390758
:102A400011F00C941A1D0C94171D4115510519F71E
:102A5000A501440F551F440F551FE40FF51FEE59F4
:102A6000FF4F20813181428153812115310541057C
:102A7000510541F0E1E0F0E0EC0FFD1FEA0DFB1D18
:102A8000B1E0B0830894A11CB11CE4E0AE16B1041F
:102A900009F0B7CF0894C11CD11C9FB6F894D2019D
:102AA000AD90BC909FBECA14DB0430F4F3012080CB
:102AB0003180AA24BB24A5CF0091490210914A027B
:102AC0003980332029F4C80160E070E00E94383773
:102AD0004A80442029F4C80161E070E00E94383740
:102AE0005B80552029F4C80162E070E00E9438370D
:102AF0006C80662029F4C80163E070E00E943837DA
:102B00007FB6F8946BE2C62E64E0D62EEC0CFD1C6A
:102B1000D7018D919C9165ED7BEFE60EF71E7FBE90
:102B2000892B09F4B0C387010F5C1B4FD801ED91CD
:102B3000FC91208131812330310509F046C2CF015B
:102B40000E94B525F80120813181D9010D911C9198
:102B500011971E830D8312968D909D90AD90BC9021
:102B600015978F829886A986BA86DE011B96F90191
:102B7000369687E001900D928150E1F7A901435FFD
:102B80005F4FDE015296FA0187E001900D9281506D
:102B9000E1F7495F5F4FDE015996FA0187E0019046
:102BA0000D928150E1F7495F5F4FDE019096FA0187
:102BB00087E001900D928150E1F7495F5F4FDE01A0
:102BC0009796FA0187E001900D928150E1F7495FF5
:102BD0005F4FDE019E96FA0187E001900D928150D1
:102BE000E1F7495F5F4FDE01D596FA0187E001907A
:102BF0000D928150E1F7495F5F4FDE01DC96FA01EB
:102C000087E001900D928150E1F7495F5F4FDE014F
:102C1000AD5BBF4FFA0187E001900D928150E1F763
:102C2000DE01A65BBF4FFA01379687E001900D9257
:102C30008150E1F7245B3F4FF9014191519161913E
:102C400071918F01FE01EF5AFF4F408351836283E0
:102C50007383F80181909190A190B1909F01FE0142
:102C6000EB5AFF4F80829182A282B382D901CD902C
:102C7000DD90FE01E75AFF4FD182C082FD018191B4
:102C800091913F01FE01E55AFF4F91838083F3014B
:102C900041905190619071901F01FE01E35AFF4FE6
:102CA0004082518262827382D101AD90BD909D01BC
:102CB000FE01EF59FF4FB182A0824D915D916D9160
:102CC0007C912E553040FE01ED59FF4F40835183DA
:102CD00062837383DE01A959BF4FF901EE59FF4F9B
:102CE00080E101900D928150E1F72E583F4FF9019C
:102CF00081919191A191B1913F01FE01E958FF4F5E
:102D000080839183A283B383D3014D905D90FE01B4
:102D1000E558FF4F51824082FD01B1909F01FE01B5
:102D2000E358FF4FB082F901A080B180C280D38008
:102D300029573040FE01E258FF4FA082B182C28283
:102D4000D382DE01AE57BF4FF901E358FF4F80E158
:102D500001900D928150E1F723573F4FF9014191C6
:102D60005191619171916F01FE01EE56FF4F4083C9
:102D7000518362837383F601019111912191319105
:102D80004F01FE01EA56FF4F0083118322833383F4
:102D9000F4012191319141915191BF01FE01E6561B
:102DA000FF4F2083318342835383FB0181919191B3
:102DB000A191B1913F01FE01E256FF4F80839183C3
:102DC000A283B383F30141905190619071901F01F0
:102DD000FE01EE55FF4F4082518262827382F10103
:102DE000A190B190C190D190AF01FE01EA55FF4F83
:102DF000A082B182C282D382FA0101911191219104
:102E000031916F01FE01E655FF4F0083118322834C
:102E10003383F60181909190A190B1909F01FE01C2
:102E2000E255FF4F80829182A282B382F9018191A3
:102E30009191A191B191BF01FE01EE54FF4F8083AA
:102E40009183A283B383FB016190719081909190F3
:102E50002F01FE01EA54FF4F6082718282829382C9
:102E6000F20121903190419051905F01FE01E654B2
:102E7000FF4F2082318242825382F501419151916C
:102E8000619171918F01FE01E254FF4F40835183A4
:102E900062837383F80181909190A190B1906F014A
:102EA000FE01EE53FF4F80829182A282B382F6012F
:102EB0002191319141915191BF01FE01EA53FF4FA0
:102EC0002083318342835383FB0181919191A191AE
:102ED000B1913F01FE01E653FF4F80839183A283AE
:102EE000B383F30141905190619071901F01FE01F5
:102EF000E253FF4F4082518262827382F101A190BE
:102F0000B190C190D190AF01FE01EE52FF4FA0826F
:102F1000B182C282D382FA01008111812281338180
:102F2000FE01EA52FF4F0083118322833383F701AE
:102F3000EF5CFB4F208131812B523F4F3183208347
:102F40005FE2852E54E0952EE80CF91CD7016D91B7
:102F50007C9141EDC42E4BEFD42EEC0CFD1C2617BA
:102F6000370789F48DE2A82E84E0B82EEA0CFB1C0A
:102F7000D7012D903C9003EDA02F0BEFB02FEA0E60
:102F8000FB1E31822082DFB6F894F701E55DFB4F2E
:102F9000A081B1811197B183A083DFBE10922E0270
:102FA00010922D023FB7F8941BE2412E14E0512EEF
:102FB000E40CF51CF7018081918165ED7BEFE60E55
:102FC000F71E3FBF892B09F45EC1BFEC6B2EB6E044
:102FD0007B2EE60CF71CD7011C9121E339EFE20EA2
:102FE000F31E112309F45DC000E010E0ABE2AA2E4D
:102FF000A4E0BA2EAE0CBF1CF1E3CF2EF4E0DF2E1E
:10300000CE0CDF1CB701615D7B4FEDE28E2EE4E05C
:103010009E2E8E0C9F1C2BC0D601ED91FC91A80119
:103020009801277030702115310509F046C118C08C
:103030009F012B523F4FFB01208031802215330529
:1030400019F4D4012D913C91415050402B523F4FE7
:10305000FB01808191812817390709F0A2C19EC127
:103060004115510529F7118210820F5F1F4F9FB73D
:10307000F894D5014D915C919FBF0417150760F23C
:103080000E94051E809147029091480265EC70E015
:103090000E94F50A0FEC16E0E00EF11EF701108217
:1030A000F2C081E394E0E80EF91EF701808191817E
:1030B0000E944B285FB7F8942AEF3FEFE20EF31E11
:1030C000D7018D909C9065ED7BEFE60EF71E5FBFFC
:1030D00020912D0230912E0234012815390508F473
:1030E000390171E0A72EB12C62E0862E912C51E3BC
:1030F000452E54E0552E4E0C5F1C4FE2C42E44E08A
:10310000D42ECE0CDF1C8701035D1B4F40ED56E033
:10311000E40EF51EABC0D2018D919C91F601608149
:1031200071810894A108B108A501477050700894F6
:10313000A11CB11C8B529F4F8617970709F067C3DC
:1031400063C38B529F4F8617970719F4F80180814C
:103150009181215030408B529F4F8617970709F07D
:10316000BCC3B8C30E941628F7017081772309F405
:1031700077C08614970408F073C0D2016D917C91DA
:10318000FB01A4019401277030702115310509F06D
:1031900080C218C09F012B523F4FF6012080318022
:1031A0002215330519F4D8012D913C91415050401E
:1031B0002B523F4FF601808191812817390709F082
:1031C000DDC2D9C24115510529F720813181213055
:1031D000310509F045C0D601ED91FC910894A10894
:1031E000B108A501477050700894A11CB11CCB0117
:1031F0008B529F4F8E179F0709F0AEC1AAC18B5209
:103200009F4F8E179F0719F4D8018D919C912150E3
:1032100030408B529F4F8E179F0709F003C2FFC1AA
:10322000A4019401277030702115310509F0FFC009
:1032300012C06B527F4F6E177F0719F4D8016D9142
:103240007C919A01215030406B527F4F6E177F075F
:1032500009F04BC147C14115510559F70E9401289A
:103260000894A11CB11C0894811C911CA614B704DD
:1032700008F451CF80912D0290912E0201969093E7
:103280002E0280932D02C752DF4F0FB6F894DEBF97
:103290000FBECDBFCF91DF911F910F91FF90EF90A7
:1032A000DF90CF90BF90AF909F908F907F906F9066
:1032B0005F904F903F902F900895EB52FF4FDB01AE
:1032C0004D905C90E415F50519F4D401ED91FC9155
:1032D000A801415050402130310509F4C1CE2230BF
:1032E000310509F44DC023303105E9F124303105B1
:1032F00069F125303105E9F02630310569F0EB52EE
:10330000FF4FDB016D907C90E615F70519F4D401B1
:10331000ED91FC9141505040EB52FF4FDB012D905D
:103320003C90E215F30519F4D401ED91FC91415064
:103330005040EB52FF4FDB012D913C91E217F30718
:1033400019F4D401ED91FC9141505040EB52FF4FE4
:10335000DB018D919C91E817F90719F4D401ED91E7
:10336000FC9141505040EB52FF4FDB014D905C907F
:10337000E415F50519F4D401ED91FC91415050404C
:10338000EB52FF4FDB016D907C90E615F70519F4C9
:10339000D401ED91FC914150504062CEF401208166
:1033A00031812B523F4FDB012D903C90221533058C
:1033B00019F4F401208131812B523F4FDB018D91B3
:1033C0009C912817390719F4F401208131812B527F
:1033D0003F4FDB014D905C902415350519F4F40145
:1033E000208131812B523F4FDB016D907C9026155F
:1033F000370519F4F401208131812B523F4FDB0155
:103400002D903C902215330519F4F401208131816F
:10341000F901EB52FF4FDB012D913C91E217F307CD
:1034200019F4D401ED91FC914750504019CE6B52E4
:103430007F4F6E177F0719F4D8016D917C91A4011D
:10344000415050402130310509F405CF223031057B
:10345000F1F12330310589F12430310521F1253096
:103460003105B9F02630310551F06B527F4F6E17A0
:103470007F0719F4D8016D917C91415050406B52F7
:103480007F4F6E177F0719F4D8016D917C914150E1
:1034900050406B527F4F6E177F0719F4D8016D9122
:1034A0007C91415050406B527F4F6E177F0719F44B
:1034B000D8016D917C91415050406B527F4F6E17F7
:1034C0007F0719F4D8016D917C91415050406B52A7
:1034D0007F4F6E177F0719F4D8016D917C91415091
:1034E0005040B9CED8016D917C916B527F4F6E17D1
:1034F0007F0719F4D8016D917C916B527F4F6E1745
:103500007F0719F4D8016D917C916B527F4F6E1734
:103510007F0719F4D8016D917C916B527F4F6E1724
:103520007F0719F4D8016D917C916B527F4F6E1714
:103530007F0719F4D8016D917C916B527F4F6E1704
:103540007F0719F4D8016D917C91A9014750504033
:1035500082CED8018D919C9195012150304009F483
:103560005FCE4115510509F44ACE4130510509F4A9
:103570004BC042305105F1F14330510589F14430DF
:10358000510521F145305105B9F04630510551F052
:103590008B529F4F8E179F0719F4D8018D919C91E4
:1035A000215030408B529F4F8E179F0719F4D8013E
:1035B0008D919C91215030408B529F4F8E179F07C9
:1035C00019F4D8018D919C91215030408B529F4F1E
:1035D0008E179F0719F4D8018D919C91215030408E
:1035E0008B529F4F8E179F0719F4D8018D919C9194
:1035F000215030408B529F4F8E179F0719F4D801EE
:103600008D919C91215030408B529F4F8E179F0778
:1036100019F4D8018D919C912150304035C0D801CA
:103620008D919C918B529F4F8E179F0719F4D80153
:103630008D919C918B529F4F8E179F0719F4D80143
:103640008D919C918B529F4F8E179F0719F4D80133
:103650008D919C918B529F4F8E179F0719F4D80123
:103660008D919C918B529F4F8E179F0719F4D80113
:103670008D919C918B529F4F8E179F0719F4D80103
:103680008D919C91275030402115310509F0B7CD1F
:10369000C7CDFB01EB52FF4FD6014D915C91E41772
:1036A000F50719F4D801ED91FC91A4014150504067
:1036B0002130310509F486CD2230310509F44DC0A1
:1036C00023303105E9F12430310569F12530310528
:1036D000E9F02630310569F0EB52FF4FD6018D91AC
:1036E0009C91E817F90719F4D801ED91FC9141502C
:1036F0005040EB52FF4FD6012D903C90E215F30560
:1037000019F4D801ED91FC9141505040EB52FF4F1C
:10371000D6012D913C91E217F30719F4D801ED91F0
:10372000FC9141505040EB52FF4FD6018D919C913E
:10373000E817F90719F4D801ED91FC914150504078
:10374000EB52FF4FD6012D903C90E215F30519F492
:10375000D801ED91FC9141505040EB52FF4FD60102
:103760002D913C91E217F30719F4D801ED91FC91EA
:103770004150504027CDF801208131812B523F4FDD
:10378000D6018D919C912817390719F4F8012081F1
:1037900031812B523F4FD6012D903C90221533059D
:1037A00019F4F801208131812B523F4FD6018D91C0
:1037B0009C912817390719F4F801208131812B5287
:1037C0003F4FD6012D903C902215330519F4F80196
:1037D000208131812B523F4FD6018D919C9128172A
:1037E000390719F4F80120813181F901EB52FF4FBB
:1037F000D6012D913C91E217F30719F4D801ED9110
:10380000FC9147505040DECCF801808191819501B8
:103810002150304009F4A6CC4115510509F491CC52
:103820004130510509F44BC042305105F1F14330AC
:10383000510589F14430510521F145305105B9F068
:103840004630510551F08B529F4F8617970719F458
:10385000D8018D919C91215030408B529F4F8617FB
:10386000970719F4F80180819181215030408B52E3
:103870009F4F8617970719F4D8018D919C9121507D
:1038800030408B529F4F8617970719F4F8018081BB
:103890009181215030408B529F4F8617970719F422
:1038A000D8018D919C91215030408B529F4F8617AB
:1038B000970719F4F80180819181215030408B5293
:1038C0009F4F8617970719F4D8018D919C9121502D
:1038D000304035C0F801808191818B529F4F86170F
:1038E000970719F4D8018D919C918B529F4F8617A1
:1038F000970719F4F801808191818B529F4F8617A9
:10390000970719F4D8018D919C918B529F4F861780
:10391000970719F4F801808191818B529F4F861788
:10392000970719F4D8018D919C918B529F4F861760
:10393000970719F4F80180819181275030402115B3
:10394000310509F0FECB0ECCF101EB52FF4FD8014F
:103950008D909C90E815F90519F4DB01ED91FC912F
:10396000A601415050402130310509F46EC8223083
:10397000310509F44DC023303105E9F1243031051A
:1039800069F125303105E9F02630310569F0EB5257
:10399000FF4FD8018D919C91E817F90719F4DB01CD
:1039A000ED91FC9141505040EB52FF4FD8012D91C9
:1039B0003C91E217F30719F4DB01ED91FC914150C2
:1039C0005040EB52FF4FD8018D909C90E815F905BF
:1039D00019F4DB01ED91FC9141505040EB52FF4F47
:1039E000D8018D919C91E817F90719F4DB01ED914D
:1039F000FC9141505040EB52FF4FD8012D913C912A
:103A0000E217F30719F4DB01ED91FC9141505040AE
:103A1000EB52FF4FD8018D909C90E815F90519F4F1
:103A2000DB01ED91FC91415050400C942515FB01B8
:103A3000208131812B523F4FD8018D919C912817C5
:103A4000390719F4FB01208131812B523F4FD801F6
:103A50008D909C902815390519F4FB012081318146
:103A60002B523F4FD8018D919C912817390719F49B
:103A7000FB01208131812B523F4FD8018D909C90CA
:103A80002815390519F4FB01208131812B523F4F54
:103A9000D8018D919C912817390719F4FB012081D9
:103AA0003181F901EB52FF4FD8012D913C91E21782
:103AB000F30719F4DB01ED91FC91475050400C9451
:103AC0002515CF93DF93DC01EC01C050DF4FE88177
:103AD000F981608388819981019699838883A450B4
:103AE000BF4F2D913C911197AC5FB0408217930767
:103AF00049F4A650BF4F4D915C911197AA5FB04019
:103B0000598348835FB7F894ED01C850DF4FA8810F
:103B1000B9811196B983A8835FBF3091C10030622B
:103B20003093C100DF91CF910895EF92FF921F93E0
:103B3000CF93DF937C01EB0110E003C0C7010E942B
:103B40002B02FE01E10FF11D60811F5F6623B1F7BB
:103B5000DF91CF911F91FF90EF9008950F931F93E6
:103B6000CF93DF938C01EB0103C0C8010E942B02AD
:103B7000FE01219664916623C1F7DF91CF911F91D9
:103B80000F9108956AE00E942B0208952FEF3FEFF6
:103B9000309344022093430280914502807F8093BA
:103BA00045020895CF92DF92EF92FF920F931F93F9
:103BB0007B016A01CB010E940B2F8C01C7010E947F
:103BC000142FD80111969C9111978F7021E030E04D
:103BD00002C0220F331F8A95E2F7822F8095982327
:103BE000922B11969C931197F801329612969C9104
:103BF000CD2809F420E08923282B20831F910F91E1
:103C0000FF90EF90DF90CF900895809149029091BE
:103C10004A020E943333FC0180819181A281B381E9
:103C200080932F0290933002A0933102B09332021E
:103C300044815581668177814093330250933402E9
:103C40006093350270933602208531854285538515
:103C500020933702309338024093390250933A024E
:103C600084859585A685B78580933B0290933C0219
:103C7000A0933D02B0933E020895EF92FF920F93FE
:103C80001F937C018C010E5F1F4FCB01BA01A8016D
:103C90000E947371C701B8010E94951D1F910F9179
:103CA000FF90EF900895CF92DF92EF92FF920F93E3
:103CB000CF93DF93EC0169017A010E94951DCE013B
:103CC000B701A6012AE030E00E943D1E002319F052
:103CD000CE010E94C21DDF91CF910F91FF90EF9016
:103CE000DF90CF90089580917405882369F488E669
:103CF0009CE040E051EE60E070E020E030E00E94A7
:103D0000200721E02093740588E69CE00895BF9287
:103D1000CF92DF92EF92FF920F931F93CF93DF9397
:103D2000EC017A01B22E0E94951D82E0C82ED12CA2
:103D3000CC0EDD1E00E010E0C801B701A6012AE0AC
:103D400030E00E94C471CE01B6010E94951DBB20D7
:103D500019F0CE010E94C21DDF91CF911F910F91EA
:103D6000FF90EF90DF90CF90BF900895EF92FF9279
:103D70000F931F930E94E40F8C01E0904B02F09090
:103D80004C02C7010E949D2CAC01C8016BE671E09A
:103D900020E00E94871E0E94E40F8C01C7010E9450
:103DA000A22CAC01C8016EE671E020E00E94871EE3
:103DB0000E94E40F6AE00E942B021F910F91FF9076
:103DC000EF900895AF92BF92CF92DF92EF92FF9261
:103DD0000F931F93DF93CF9300D0CDB7DEB75C0175
:103DE000DC0195960D911D912D913C9198970E3C7B
:103DF00011052105310509F486C30F3C1105210584
:103E000031050CF098C0023711052105310509F480
:103E100046C203371105210531050CF043C00936B0
:103E200011052105310509F46EC10A361105210578
:103E30003105FCF4023111052105310509F445C1B4
:103E400003311105210531053CF40115110521054A
:103E5000310509F43AC1B5C504351105210531050F
:103E600009F433C1083611052105310509F0A9C54A
:103E700033C10B3611052105310509F474C10B3628
:103E80001105210531050CF453C10D36110521052D
:103E9000310509F481C10E3611052105310509F0FE
:103EA00090C5DFC1083C11052105310509F4CDC2DB
:103EB000093C110521053105CCF404371105210514
:103EC000310509F431C204371105210531050CF41F
:103ED000F4C1063711052105310509F471C20C380A
:103EE00011052105310509F06CC595C20B3C110582
:103EF0002105310509F4C1C20C3C1105210531052C
:103F00006CF4093C11052105310509F4A6C20A3CEF
:103F100011052105310509F054C5A7C20C3C110556
:103F20002105310509F4B1C20D3C1105210531050A
:103F300009F047C5C5C20033B1E01B07B0E02B074D
:103F4000B0E03B0709F477C40133E1E01E07E0E08D
:103F50002E07E0E03E070CF052C0083D1105210598
:103F6000310509F4FEC3093D110521053105CCF4E5
:103F7000003D11052105310509F43AC3003D110545
:103F8000210531050CF4C7C2033D1105210531059A
:103F900009F4A4C3073D11052105310509F011C538
:103FA000C4C30C32F1E01F07F0E02F07F0E03F0739
:103FB00009F429C40D3241E0140740E0240740E031
:103FC00034076CF40C3D11052105310509F40BC4CF
:103FD0000D3D11052105310509F0F3C40CC40D3266
:103FE00051E0150750E0250750E0350709F413C4E8
:103FF0000E5211402040304009F0E3C414C406338F
:1040000071E0170770E0270770E0370709F459C41B
:10401000073381E0180780E0280780E0380744F57F
:10402000033391E0190790E0290790E0390709F47C
:1040300012C40433A1E01A07A0E02A07A0E03A075F
:104040003CF4015311402040304009F0BAC4FBC396
:104050000433E1E01E07E0E02E07E0E03E0709F44C
:1040600002C4055311402040304009F0AAC403C4E3
:10407000013941E0140740E0240740E0340709F427
:1040800060C4023951E0150750E0250750E03507BC
:1040900084F40E3561E0160760E0260760E036071D
:1040A00009F41AC40F5511402040304009F089C46A
:1040B00030C4D901C801855F9140A040B040449709
:1040C000A105B10508F07DC456C4809149029091C4
:1040D0004A020E9400376EC4C0904602CC2009F00C
:1040E00095C421E430E0A20EB31ED5016D917C9100
:1040F000EFEBFFEFAE0EBF1E80914B0290914C0292
:104100000E94952C9EC14CE550E0A40EB51EF50111
:104110006081718104EA1FEFA00EB11EC5010E94EB
:10412000B61E83E090E0D50111969C938E9345C412
:10413000E0914302F0914402BFEFEF3FFB0709F427
:1041400065C43281109145021F7081E090E0012E1C
:1041500002C0880F991F0A94E2F7D82ED094D32278
:10416000D82AD28253C4E0914302F09144022FEF47
:10417000EF3FF20709F41EC4E280509145025F70E0
:1041800081E090E0052E02C0880F991F0A94E2F7A3
:1041900080958E2182830EC4F0904602FF2009F0A4
:1041A00035C4DC016D917C9162307105C9F021E468
:1041B00030E0A20EB31EF501608171818FEB9FEF9D
:1041C000A80EB91E80914B0290914C020E94952C32
:1041D000882331F002E010E0D50111961C930E9374
:1041E00080914B0290914C020E949D2CA0E0B0E087
:1041F00061E470E0A60EB71EF501C080D180E280B8
:10420000F3804FEB5FEFA40EB51E8C159D05AE0538
:10421000BF0534F083E090E0D50111969C938E9316
:104220000E94180A8501045B1F4FF801208131812B
:1042300042815381621B730B840B950B695E734043
:104240008040904008F4F3C30E94180AD8016D938F
:104250007D938D939C9313970CE510E0A00EB11EF7
:10426000A4C020911F0230912002FC0186AD97ADC1
:10427000892B19F441E050E00BC041E450E0A40E5A
:10428000B51ED5014D915C916FEB7FEFA60EB71E69
:1042900060E070E0C90120E00E94990D8BC30E948C
:1042A000E40F62E771E00E94951D809149029091B0
:1042B0004A02B5010E94804232C00E94E40FF5011B
:1042C000228133814481558166E771E000E00E94DC
:1042D000A40F0E94E40F6AE271E00E94F50A0E94B6
:1042E000E40F4091BA0E5091BB0E4115510511F0EB
:1042F0009A0102C02EEB3EE0209530952C0F3D1F19
:10430000A901662757FD6095762F2AE030E00E94CC
:104310003D1E0E94E40F67E171E00E94F50A0E94D1
:10432000E40F0E94C21D72C370914602772309F008
:1043300041C3C0904B02D0904C02C6010E949D2CFC
:104340007C01C6010E94A72CE816F90678F0C60188
:104350000E94A22C8C01C6010E94AB2C08171907E1
:1043600028F023E030E0F501318320830E94180A11
:104370008501045B1F4FD801CD90DD90ED90FC903E
:104380006C197D098E099F09695E734080409040D9
:1043900008F44DC30E94180AF80160837183828378
:1043A00093838CE590E0A80EB91ED5016D917C91A8
:1043B00044EA5FEFA40EB51EC5010E94B61E37C3C6
:1043C000DC01D7968D919C91D897892B21F1DA96B3
:1043D0004D915D916D917C91DD979501245A3F4FF0
:1043E000E0911F02F09120024130510561057105F5
:1043F00051F4D9016D917C91E60FF71FEF52F94FFF
:1044000091E0908308C0D901ED90FC90EE0DFF1D66
:10441000EF52F94F1082B0914602BB2309F0F6C269
:1044200021E430E0A20EB31EF501608171810FEB33
:104430001FEFA00EB11E80914B0290914C020E9482
:10444000992C882309F4F3C2B5C280914902909156
:104450004A02B5010E94B934D9C2809149029091B3
:104460004A02B5010E94C633A5C2809149029091CB
:104470004A02B5010E943F34C9C28091490290911D
:104480004A02B5010E94B83495C20E94E40FF501BA
:10449000228133814481558166E771E000E00E940A
:1044A000A40F0E94E40F60E20E942B020E94E40F1E
:1044B0006C010E949806BC01C6010E94951D56C25F
:1044C0000E94E40FF501228133814481558166E722
:1044D00071E000E00E94A40F0E94E40F7C010E94A2
:1044E000D702BC01C7010E94951D0E946406882363
:1044F00029F00E94E40F60E171E036C20E94E40FEF
:104500006AE071E031C28091490290914A02B5019E
:104510000E9452357BC2DC01D7968D919C91D89731
:10452000892B59F0E0914B02F0914C02DA96DC9025
:10453000D486CF010A960E944E6BF501A6ADB7ADA9
:10454000109709F463C200914B0210914C0221E4D0
:1045500030E0A20EB31ED501ED90FC904FEB5FEF63
:10456000A40EB51EC7010E940B2FD82EC92EC7015D
:104570000E94142FD8019C96ED91FC919D979281F9
:104580009E967C919E977F7041E050E07A0102C038
:10459000EE0CFF1C7A95E2F79701209529232283E0
:1045A0008F709C96DC929C979D96CC929D979E9640
:1045B000FC919E97F07FF82B9E96FC939E979C967D
:1045C000ED91FC919D973181BA0102C0660F771F72
:1045D0008A95E2F7F62EF094F322F62AF182D801BA
:1045E0009C96ED91FC919D9792819E968C916CC0CA
:1045F000DC01D7968D919C91D897892B59F0E09149
:104600004B02F0914C02DA961C91148FCF014A961E
:104610000E944E6BF501A6ADB7AD109709F4F6C137
:1046200000914B0210914C0221E430E0A20EB31E27
:10463000D501ED90FC904FEB5FEFA40EB51EC701C6
:104640000E940B2FD82EC92EC7010E94142FD8010B
:104650009F96ED91FC91D0979281D1967C91D197C4
:104660007F7041E050E07A0102C0EE0CFF1C7A95A9
:10467000E2F797012095292322838F709F96DC9281
:104680009F97D096CC92D097D1963C91D197307F7E
:10469000382BD1963C93D1979F96ED91FC91D09772
:1046A000F180BA0102C0660F771F8A95E2F7B62F34
:1046B000B095BF21B62BB183D8019F96ED91FC91A7
:1046C000D0979281D1968C918F7002C0440F551F64
:1046D0008A95E2F740954923428398C1FC0187A956
:1046E00090ADC0904B02D0904C02892B61F40E9497
:1046F000E40FF60191878087D6011D921D921D92CD
:104700001C92139757C1F501E2ACF3AC04AD15ADA3
:104710000E94E40FD60119969C938E931897F60188
:10472000E082F1820283138345C1FC0187A990AD29
:10473000892B09F43FC1A6ADB7AD109709F43AC172
:1047400062AD73AD41E450E0A40EB51EF5014081A9
:1047500051810FEB1FEFA00EB11EC5010E94D21DAB
:1047600029C1FC0187A990AD892B09F423C182AD31
:1047700093AD0E940B2FD82EC92ED501DA968D91BC
:104780009C91DB970E94142F8F70D0924302C092AD
:10479000440250914502507F582B50934502E091BE
:1047A0004302F0914402318141E050E0BA0102C07D
:1047B000660F771F8A95E2F7F62EF094F322F62A19
:1047C000F182E0914302F09144021281B0914502DE
:1047D000BF700B2E02C0440F551F0A94E2F740959C
:1047E00041234283E7C08091490290914A02B5017A
:1047F0000E942A360BC18091490290914A02B5016C
:104800000E946B36D7C08091490290914A02B5014F
:104810000E947159FBC08091490290914A02B501F2
:104820000E948758C7C08091490290914A02B50101
:104830000E949D57EBC08091490290914A02B501B8
:104840000E94B756B7C08091490290914A02B501C3
:104850000E94D155DBC08091490290914A02B50176
:104860000E94DB35A7C08091490290914A02B501B0
:104870000E94AC36CBC02091490230914A0260E0E0
:10488000F50182AD93ADA4ADB5AD0197A105B1051C
:1048900009F461E040E0A1E4B0E0AA0EBB1EF5011E
:1048A00080819181A281B3810FEB1FEFA00EB11E19
:1048B0000197A105B10509F441E0C9010E94FB3649
:1048C00079C0E0904902F0904A020E94E40FBC01D6
:1048D000C7010E943C559AC0D501D7968D919C91F5
:1048E000D897892B09F498C0DA962D913D914D9176
:1048F0005C91DD97213031054105510509F08CC0EF
:10490000E0911F02F0912002E053F94F91E0908373
:104910007DC0D501D7968D919C91D897892B09F4AC
:1049200083C0DA964D915D916D917C91DD97413018
:1049300051056105710509F077C0F1E0F093460279
:1049400065C00E94E40F6CEF70E00E94F50A0E94BF
:104950003D30882329F00E94E40F66EF70E004C028
:104960000E94E40F61EF70E00E94F50A0E94E40FDC
:104970000E94C21D1FC0F501A7A9B0AD1097D1F0CC
:1049800086AD97AD892BB1F080914B0290914C028E
:1049900062AD73AD41E450E0A40EB51EF501408157
:1049A00051812FEB3FEFA20EB31E202F255F0A96F9
:1049B0000E94F96A83E090E0D50111969C938E9352
:1049C00036C00E94E40FF501228133814481558174
:1049D0006CE771E000E00E94A40F0E94E40F69EE12
:1049E00070E00E94F50A0E94E40FD50195964D9162
:1049F0005D916D917C9198972AE030E00E943D1E78
:104A00000E94E40F69ED70E00E94F50A63E070E037
:104A1000F501718360830BC0E0911F02F0912002C9
:104A2000E053F94F1082F2CF10924602EFCF0F9071
:104A30000F90CF91DF911F910F91FF90EF90DF903A
:104A4000CF90BF90AF9008950F93CF93DF93EC0179
:104A50008CA59DA5AEA5BFA585319105A105B10584
:104A600009F47BC086319105A105B1056CF4B7FD51
:104A700053C082309105A105B105B4F00497A1059A
:104A8000B10509F049C018C08B359105A105B105E4
:104A9000A1F18C359105A105B105B1F18A359105DA
:104AA000A105B105C9F522C08091490290914A0241
:104AB000BE010E94514555C00E94180A2AAD3BAD67
:104AC0004CAD5DAD621B730B840B950BC05BDF4F70
:104AD000288139814A815B81C055D040261737072C
:104AE00048075907D0F182E090E039C0809149022F
:104AF00090914A020E94B13330C080914902909156
:104B00004A020E94BB3329C08091490290914A0217
:104B1000BE010E94723321C00E94E40F2A813B81B2
:104B20004C815D816CE771E000E00E94A40F0E945F
:104B3000E40F61E571E00E94F50A0E94E40F4CA5C4
:104B40005DA56EA57FA52AE030E00E943D1E0E9473
:104B5000E40F61E471E00E94F50A83E090E099833C
:104B60008883DF91CF910F910895FC0181A592A5D3
:104B7000892B39F08091490290914A02BF010E942D
:104B800037370895CF92DF92EF92FF920F931F93E2
:104B9000CF93DF937C01C0914702D0914802CE01B0
:104BA00060E50E942B0204E510E0E00EF11EF70123
:104BB000419151917F0160E070E0CE012AE030E048
:104BC0000E943D1ECE0165E40E942B02F701408148
:104BD00051818AEA9FEFE80EF91E60E070E0CE0195
:104BE0002AE030E00E943D1ECE0160E20E942B02CE
:104BF00092E0C92ED12CCC0EDD1ECE01F7016085CE
:104C00000E942B02CE016AE30E942B02F7018681EB
:104C100097818130910589F08230910519F0892BB7
:104C2000D9F01EC0F7014185528563857485CE0198
:104C30002AE030E00E943D1E13C0F70161857285B5
:104C4000838594854AE025E086010E94D96FCE01D4
:104C5000B6010E94951D04C0CE0165E50E942B029D
:104C6000CE0160E20E942B02CE01F70167850E940F
:104C70002B02CE016AE30E942B02F70185859685FF
:104C80008130910589F08230910519F0892BD9F096
:104C90001EC0F7014089518962897389CE012AE0DB
:104CA00030E00E943D1E13C0F7016089718982893E
:104CB00093894AE025E086010E94D96FCE01B601B2
:104CC0000E94951D04C0CE0165E50E942B02CE0115
:104CD00060E20E942B02CE01F70166890E942B023E
:104CE000CE016AE30E942B02F70184899589813005
:104CF000910589F08230910519F0892BD9F01EC0F9
:104D0000F7014789508D618D728DCE012AE030E028
:104D10000E943D1E13C0F7016789708D818D928DB1
:104D20004AE025E086010E94D96FCE01B6010E94BB
:104D3000951D04C0CE0165E50E942B02CE0160E204
:104D40000E942B02CE01F701658D0E942B02CE013D
:104D50006AE30E942B02F701838D948D81309105C7
:104D600089F08230910519F0892BD9F01EC0F70126
:104D7000468D578D60A171A1CE012AE030E00E94DE
:104D80003D1E13C0F701668D778D80A191A14AE089
:104D900025E086010E94D96FCE01B6010E94951DC3
:104DA00004C0CE0165E50E942B02CE0160E20E94A4
:104DB0002B02CE01F70164A10E942B02CE016AE30F
:104DC0000E942B02F70182A193A18130910589F005
:104DD0008230910519F0892BD9F01EC0F70145A149
:104DE00056A167A170A5CE012AE030E00E943D1EC9
:104DF00013C0F70165A176A187A190A54AE025E03F
:104E000086010E94D96FCE01B6010E94951D04C093
:104E1000CE0165E50E942B02CE0160E20E942B02CA
:104E2000CE01F70163A50E942B02CE016AE30E9426
:104E30002B02F70181A592A58130910589F082307E
:104E4000910519F0892BD9F01EC0F70144A555A58D
:104E500066A577A5CE012AE030E00E943D1E13C072
:104E6000F70164A575A586A597A54AE025E086010A
:104E70000E94D96FCE01B6010E94951D04C0CE01DB
:104E800065E50E942B02CE0160E20E942B02CE015A
:104E9000F70162A90E942B02CE016AE30E942B0255
:104EA000F70180A991A98130910589F0823091059F
:104EB00019F0892BD9F01EC0F70143A954A965A99F
:104EC00076A9CE012AE030E00E943D1E13C0F70112
:104ED00063A974A985A996A94AE025E086010E94E4
:104EE000D96FCE01B6010E94951D04C0CE0165E5C3
:104EF0000E942B02CE0160E20E942B02CE01F7013C
:104F000061AD0E942B02CE016AE30E942B02F701E1
:104F100087A990AD8130910589F08230910519F013
:104F2000892BD9F01EC0F70142AD53AD64AD75AD0C
:104F3000CE012AE030E00E943D1E13C0F70162ADB1
:104F400073AD84AD95AD4AE025E086010E94D96F2E
:104F5000CE01B6010E94951D04C0CE0165E50E94F8
:104F60002B02CE0160E20E942B02F701E05CFF4FB2
:104F7000CE0160810E942B02CE016AE30E942B02C7
:104F8000F70186AD97AD8130910551F082309105E2
:104F9000D1F0892B31F5CE0165E50E942B0221C0AD
:104FA00021E430E0E20EF31EF7016081718182811D
:104FB00093814AE025E086010E94D96FCE01B601B7
:104FC0000E94951D0EC041E450E0E40EF51EF7016D
:104FD0004081518162817381CE012AE030E00E94DC
:104FE0003D1ECE0160E20E942B02CE010E94C21D36
:104FF000DF91CF911F910F91FF90EF90DF90CF90B5
:105000000895FC01DB0180819181019771F42D915C
:105010003C9111972130310541F4809149029091E2
:105020004A02BF01AD010E9496470895DC018091BC
:105030004602882351F05C961C921E925B975E9606
:105040001D921D921D921C929197FD01EC5AFF4FEB
:10505000808191810196918380832D913C9111975C
:1050600021303105B9F099968D919C919A97892BB1
:1050700031F441E050E011965C934E930895809195
:10508000490290914A02BD014FE352E02FE232E023
:105090000E94D24E08950F931F93CF93DF93EC019C
:1050A0008C01005B1F4FF80180819181A281B38147
:1050B0000097A105B10539F40E94180AF801608330
:1050C000718382839383FE01EA5AFF4F808191812D
:1050D000019691838083A881B9811A161B0624F05A
:1050E000CE010E94162810C00881198103301105D5
:1050F00059F0A9A5BAA5109721F4CE010E94E21E8D
:1051000003C0CE010E942425DF91CF911F910F9102
:1051100008952F923F924F925F926F927F928F925B
:105120009F92AF92BF92CF92DF92EF92FF920F9336
:105130001F93DF93CF93CDB7DEB72D970FB6F894BB
:10514000DEBF0FBECDBF3C0149835A83562E6B8311
:105150000C831D83422E2E83CF82D8863E2CE98677
:105160008A869B86AC866DA17EA18FA198A50981B8
:105170001A81FFE05F22CC80DD804F228F809884EF
:105180003F22EA84FB84BA2DBF70BD87AAA0BBA0D2
:105190002CA02F22F30135A5307F352935A714A780
:1051A00003A740A9407F442940ABD7A6C6A624A99F
:1051B000207F232924AB93AA82AAA7A9A07FAB2B87
:1051C000A7ABF6AAE5AA52AD507F522952AFB1AEB5
:1051D000A0AE658776878787908B0E94CF6DF3019D
:1051E000618B728B838B948B3AAD34AF8AA59BA570
:1051F000ACA5BDA5818F928FA38FB48F4AA95BA95F
:105200006CA97DA9458B568B678B708F6EA97FA982
:1052100088AD99AD0E94CF6DF301658F768F878F32
:1052200090A320E030E040E050E0208331834283CF
:10523000538313AE69A461AA158216821782108661
:10524000118612861386148680E090E4ACE1B6E401
:1052500083A394A3A5A3B6A387A390A7A1A7B2A74E
:10526000FFEF0F3F1F0789F0F801018181E090E017
:1052700002C0880F991F5A94E2F7582E50940521C6
:10528000082B0183728057205282FFEFCF16FFEF69
:10529000DF0689F0F601D18081E090E002C0880F3E
:1052A000991F4A94E2F7482E4094D420D82AD182FC
:1052B000C2804C204282FFEF8F16FFEF9F0691F0D5
:1052C000F401918081E090E002C0880F991F3A9428
:1052D000E2F7382E30949320982A918282803820E9
:1052E000382A3282FFEFEF16FFEFFF06C1F0F70119
:1052F000618121E030E00D8402C0220F331F0A9447
:10530000E2F7922F909569236183328110917602A2
:10531000112309F420E09323292BF7012283FFEFC7
:10532000AF16FFEFBF06B9F0F501E18021E030E0F4
:1053300002C0220F331F2A94E2F7922F9095E922A0
:10534000E182328120907602222009F420E093232A
:10535000292BF50122832D960FB6F894DEBF0FBEE0
:10536000CDBFCF91DF911F910F91FF90EF90DF9014
:10537000CF90BF90AF909F908F907F906F905F90F5
:105380004F903F902F90089580917405882369F481
:1053900088E69CE040E051EE60E070E020E030E024
:1053A0000E94200721E02093740588E69CE0089580
:1053B0002F923F924F925F926F927F928F929F9225
:1053C000AF92CF92DF92EF920F931F93DF93CF9321
:1053D000CDB7DEB7C652D2400FB6F894DEBF0FBECF
:1053E000CDBFCB5DDD4F99838883C552D240662403
:1053F0006A94762C7A8269823B81307F3B837D82FE
:105400006C822E81207F2E8378866F821985107F93
:1054100019877B866A86FC85F07FFC877E866D8691
:10542000BF85B07FBF87EDB7FEB779970FB6F89409
:10543000FEBF0FBEEDBFEDB7FEB73196ADB7BEB73D
:1054400011966C920E8401820F8402820F2EF0E07E
:105450002F2EF0E03F2EF0E84F2EFFE35F2EF02DD1
:105460002382348245825682178200E010E82BE3C3
:1054700036E4008711872287338780E090E8ABEB22
:10548000B5E484879587A687B78740E050E06AEF48
:1054900074E4408B518B628B738B248A358A468AE5
:1054A000578A108ECE01CD9649815A816B810C812D
:1054B0001D812E81CF80D884E9848A849B84AC842A
:1054C0000E948928798A688A9A89907F9A8B7C8A37
:1054D0006B8A7D89707F7D8B7F8A6E8A688D607F05
:1054E000688F7A8E698E5B8D507F5B8F7D8E6C8E20
:1054F0003E8D307F3E8FEDB7FEB73196ADB7BEB76C
:1055000011966C920D8C01820E8C02822382348261
:1055100045825682178220E030E84BE356E420872C
:1055200031874287538700E010E82BEB35E404878E
:1055300015872687378780E090E0AAEFB4E4808B58
:10554000918BA28BB38B248A358A468A578A108E18
:10555000CE0186589F4F488959896A890B891C89D1
:105560002D89CE88DF88E88C898C9A8CAB8C0E9440
:10557000892878A26F8E19A1107F19A37BA26AA235
:105580004CA1407F4CA37EA26DA2FFA1F07FFFA3A0
:1055900079A668A6BAA5B07FBAA77CA66BA69DA57A
:1055A000907F9DA7EDB7FEB73196ADB7BEB7119608
:1055B0006C920CA401820DA4028223823482458263
:1055C0005682178220E030E046E153E4208731879D
:1055D0004287538700E010E028EC32E40487158707
:1055E0002687378780E090E0A6E9B2E4808B918B34
:1055F000A28BB38B248A358A468A578A108ECE01B5
:1056000089549F4F4F8D58A169A10AA11BA12CA1BC
:10561000CDA0DEA0EFA088A499A4AAA40E94892806
:105620007FA66EA678A9707F78AB7AAA69AA6BA9C3
:10563000607F6BAB7DAA6CAA5EA9507F5EAB78AE33
:105640006FAA39AD307F39AF7BAE6AAE1CAD107F2B
:105650001CAFEDB7FEB73196ADB7BEB711966C92E1
:105660000BAC01820CAC02822382348245825682CA
:10567000178240E050E86BEB76E440875187628701
:10568000738720E030E84BE356E42487358746876C
:10569000578700E010E42CE935E4008B118B228B56
:1056A000338B248A358A468A578A108ECE018C50D5
:1056B0009F4F4EA55FA568A909A91AA92BA9CCA837
:1056C000DDA8EEA88FA898ACA9AC0E948928FE019D
:1056D000EF5CFE4F84EFDF011D928A95E9F70DAC78
:1056E0009E01225C3F4F0192CF014CE3D9010D9006
:1056F000FC0101922F01F9010180FC010182119648
:105700000C90D20111960C92F9010380DC011396E2
:105710000C921397048014960C921497058015969A
:105720000C921597068016960C921697078017967E
:105730000C921797008418960C9218970184265F94
:105740003F4F19960C920A964A5081F6DE01A259F3
:10575000BE4FFE01E658FF4F8DE301900D92815040
:10576000E1F7DE01A555BE4FFE01E954FF4F8DE381
:1057700001900D928150E1F7DE01A851BE4FFE016C
:10578000EC50FF4F8DE301900D928150E1F7CB5D1E
:10579000DD4FA881B981C552D240FE01EF5CFE4FBA
:1057A0008DE301900D928150E1F7CB5DDD4F2881B3
:1057B0003981C552D240235C3F4FD901FE01E259E5
:1057C000FE4F8DE301900D928150E1F7235C3F4F36
:1057D000D901FE01E555FE4F8DE301900D928150F8
:1057E000E1F7D901DD96FE01E851FE4F8DE301900E
:1057F0000D928150E1F78DB79EB749960FB6F89498
:105800009EBF0FBE8DBFCB5DDD4F88819981C55294
:10581000D2400E94033FCB5DDD4F68817981C55244
:10582000D2406A5E7E4FDB0111961C921E92129648
:10583000FD011082CA5DDD4F0FB6F894DEBF0FBECA
:10584000CDBFCF91DF911F910F91EF90DF90CF905F
:10585000AF909F908F907F906F905F904F903F9010
:105860002F9008958091600C882339F48DE99DE094
:105870000E94D82921E02093600C8DE99DE00895D5
:1058800080918405882339F48BE69DE00E94AF2C3B
:1058900021E0209384058BE69DE008950E94E40FAB
:1058A00090934802809347020E94322C90934A02C0
:1058B000809349020E94402C90934C0280934B02AB
:1058C0000895CF93DF93DC01EC01C050DF4FE881F6
:1058D000F981608388819981019699838883A45096
:1058E000BF4F2D913C911197AC5FB0408217930749
:1058F00049F4A650BF4F4D915C911197AA5FB040FB
:10590000598348835FB7F894ED01C850DF4FA881F1
:10591000B9811196B983A8835FBF3091C10030620D
:105920003093C100DF91CF910895FC0162A781E01F
:105930000895FC0163A781E00895FC012285338569
:10594000C9010895FC01228D338DC9010895FC0120
:1059500082A590E00895FC0183A590E00895CF9280
:10596000DF92EF92FF920F931F938C019AE0C92E62
:10597000D12CC00ED11EC6016FEF40E00E94EB6A31
:105980008AE1E82EF12CE00EF11EC7016FEF41E035
:105990000E94EB6A6FEF7FEFD8019D967C936E9328
:1059A0009C979E965C919E97507F9E965C939E9747
:1059B000D0967C936E939F97D1964C91D197407FD0
:1059C000D1964C93D197F8011082118212821382E2
:1059D00014961D921D921D921C92179719961C9257
:1059E0001E921897C6010E944E6BC7010E944E6B13
:1059F000D8019C96ED91FC919D97F1809E969C918B
:105A00009E979F7041E050E09A0102C0220F331F21
:105A10009A95E2F7D22ED094DF20D22AD1829C969A
:105A2000ED91FC919D97C2809E967C917F707A014A
:105A300002C0EE0CFF1C7A95E2F7C70180958C211D
:105A40008283D8019F96ED91FC91D0973181D196B8
:105A50000C91D1970F70BA0102C0660F771F0A959B
:105A6000E2F7262F20952323262B21839F96ED9165
:105A7000FC91D0979281D1968C918F7002C0440F87
:105A8000551F8A95E2F74095492342831F910F9154
:105A9000FF90EF90DF90CF900895CF92DF92EF923A
:105AA000FF920F931F938C013AE0C32ED12CC80EA6
:105AB000D91EC6016FEF40E00E94EB6A2AE1E22E98
:105AC000F12CE00EF11EC7016FEF41E00E94EB6A7E
:105AD0006FEF7FEFD8019D967C936E939C979E9677
