:100000000C9405020C942D020C942D020C942D02DC
:100010000C942D020C942D020C942D020C942D02A4
:100020000C942D020C942D020C942D020C942D0294
:100030000C942D020C94C4250C942D020C942D02CA
:100040000C942D020C942D020C948B080C942D0210
:100050000C94A0060C94F7060C942D020C942D021F
:100060000C942D020C942D020C942D020C942D0254
:100070000C94324C0C942D020C94814B737461726D
:10008000740A006F6B200A005741524E494E473A9E
:1000900020534552494F555320454550524F4D200E
:1000A0004641494C0A004641494C00424547494EA9
:1000B00000454550524F4D2000454550524F4D2070
:1000C00053544F50000A494E56414C4944415445FF
:1000D0004420434F4445530A00204E4F542053556B
:1000E00050504F525445440A00204D434F44452040
:1000F000004641494C00424547554E004545505247
:100100004F4D20524541443A2000204641494C0081
:1001100020424547554E002050524F544F434F4CBC
:100120005F56455253494F4E3A534A204649524D25
:10013000574152455F4E414D453A736A66772046B6
:100140005245455F52414D3A00204E4F5420535581
:1001500050504F525445440A002047434F444520D5
:10016000002121204158495320415245204E4F54EF
:1001700020434F4E464947555245442021210A000D
:100180002045494E562000204550554C4C2000201B
:10019000494E562000204449532000206E6F206DA8
:1001A00061782000206E6F206D696E2000206E6FD8
:1001B00020656E61626C652000206E6F206469723C
:1001C0002000206E6F20737465702000206E6F20F9
:1001D000616363656C2000206E6F207374657073BB
:1001E0005F7065725F756E6974200000010405051B
:1001F00003030405060405060701000100030201CC
:1002000000000102030405060707060504030201B6
:1002100000070201000706050403020100030201B2
:10022000000001020304050607000102030405069D
:10023000072C002C002C002C0032002C00000100A8
:100240000100010001230023002300230003010318
:1002500001000100012900290029002900200020B7
:100260000020002000200020002000200026002682
:10027000002600260026002600260026002900323F
:1002800000320032000901090109010901090109CF
:10029000010901090123002300230023002F002F5F
:1002A000002F002F002F002F002F002F0006010627
:1002B0000106010601060106010601060145455039
:1002C000524F4D204F564552464C4F5700494E46CF
:1002D000494E4954594E414ECDCCCC3D0AD7233CD2
:1002E00017B7D13877CC2B329595E6241FB14F0A3A
:1002F000000020410000C84200401C4620BCBE4C0B
:10030000CA1B0E5AAEC59D7400407A10F35A00A065
:10031000724E18090010A5D4E80000E876481700CE
:1003200000E40B54020000CA9A3B000000E1F5050E
:10033000000080969800000040420F000000A08658
:1003400001000000102700000000E803000000008A
:100350006400000000000A0000000000010000002E
:1003600000002C76D888DC674F0823DFC1DFAE5948
:10037000E1B1B796E5E3E453C63AE651997696E8DB
:10038000E6C28426EB898C9B62ED407C6FFCEFBC5F
:100390009C9F40F2BAA56FA5F490055A2AF75C938A
:1003A0006B6CF9676DC11BFCE0E40D47FEF520E6C0
:1003B000B500D0ED902E0300943577050080841EA3
:1003C000080000204E0A000000C80C333333330FFE
:1003D000986E12831141EF8D2114893BE65516CF9B
:1003E000FEE6DB18D1844B381BF77C1D901DA4BBA7
:1003F000E424203284725E228100C9F124ECA1E55C
:100400003D278B0CA514403A8F4E11241FBECFEF11
:10041000D0E1DEBFCDBF11E0A0E0B1E0E4E8F0EB59
:1004200002C005900D92A83DB107D9F71EE0A8EDD6
:10043000B1E001C01D92A23AB107E1F714E0CAE0B1
:10044000D4E004C02297FE010E94EE51C230D107D1
:10045000C9F70E9463020C9440580C940000CF939B
:10046000DF93DC01EC01C052DF4FE881F98160834A
:1004700088819981019699838883A452BF4F2D91D9
:100480003C911197AC5DB0408217930749F4A65296
:10049000BF4F8D919C911197AA5DB040998388833D
:1004A0002FB7F894FD01E852FF4F808191810196AA
:1004B000918380832FBF8091C10080628093C100AF
:1004C000DF91CF910895EF92FF920F931F93CF93F7
:1004D000DF9378940E94FD070E94DC020E947B0556
:1004E000C0913302D0913402882371F010E003C030
:1004F000CE010E942F02E12FF0E0E050FF4F60811B
:100500001F5F6623A9F70FC010E003C0CE010E9451
:100510002F02E12FF0E0E25FFE4F60811F5F662354
:10052000A9F70E94F03CE0903302F0903402CCE74F
:10053000D0E003C0C7010E942F02FE012196649102
:100540006623C1F7C091FF01D091000200913702EC
:1005500010913802CE010E94E710C7010E94530794
:10056000CE010E94E710C8010E947F3BCE010E948D
:10057000E7100E94223CCE010E94E7100E94470330
:10058000CE010E94E710E6CF8091F001089580919E
:10059000F201089580EE91E008951092F0018091AB
:1005A000DE019091DF01009711F00E94903D1092C2
:1005B000DF011092DE0108958091F001882311F08F
:1005C0000E94CD028091DC019091DD01009731F015
:1005D0000E94233F1092DD011092DC018091DA012C
:1005E0009091DB01009731F00E944A3D1092DB01AF
:1005F0001092DA018091D8019091D901009731F0E1
:100600000E94B3441092D9011092D8010895DF934B
:10061000CF9300D000D0CDB7DEB790E0A0E0B0E03F
:10062000B095A095909581959F4FAF4FBF4F89830F
:100630009A83AB83BC838091DE019091DF01BE0180
:100640006F5F7F4F41E00E94E03E0F900F900F9050
:100650000F90CF91DF9108958091DE019091DF019D
:1006600061EF71E041E050E00E94963D1092F2018E
:10067000181619061CF481E08093F20108951F9367
:100680001091F1010E942C03812F1F910895AF92C8
:10069000BF92CF92DF92EF92FF921F93DF93CF939F
:1006A000CDB7DEB7A0970FB6F894DEBF0FBECDBFB3
:1006B0008091F001882309F485C0C090FF01D0909B
:1006C0000002C6010E94740C882309F07BC080914F
:1006D000F201882319F40E94CD0274C0FE01319604
:1006E00080E2DF011D928A95E9F7EE24FF245F0185
:1006F00007C00894E11CF11CB0E2EB16F10471F0A4
:100700008091F201882351F01091F1010E942C0395
:10071000F501EE0DFF1D108311325CF7BE016F5F16
:100720007F4FFB01EE0DFF1D808181320CF445C02F
:10073000809133029091340240E0DC01A052BF4F1F
:100740003CEDC32ED12CC80ED91E2AEDE22EF12C81
:10075000E80EF91EBC0168527F4F26C0ED91FC9156
:10076000119780838D919C911197019611969C937E
:100770008E93F601208131818217930731F4F701BE
:100780008081918111969C938E938FB7F894FB0191
:10079000208131812F5F3F4F318320838FBF809134
:1007A000C10080628093C100E42FF0E0E45EFE4F60
:1007B00080814F5F882391F605C0C6014E2D22E04F
:1007C0000E94FD0CA0960FB6F894DEBF0FBECDBF01
:1007D000CF91DF911F91FF90EF90DF90CF90BF906E
:1007E000AF9008950F931F93CF93DF93EC018B018C
:1007F0000EC0C801BE010E947553009741F480915C
:10080000DC019091DD010E94293F81E009C08091C7
:10081000DC019091DD01B8010E940940882349F76D
:10082000DF91CF911F910F910895EF92FF920F9357
:100830001F93DF93CF93CDB7DEB7AB970FB6F89486
:10084000DEBF0FBECDBF7B018E010F5F1F4FB80112
:100850000E94F203882359F08091DA019091DB0124
:10086000B8010E94EA43F7019183808381E0AB964F
:100870000FB6F894DEBF0FBECDBFCF91DF911F91B1
:100880000F91FF90EF900895AF92BF92DF92EF9299
:10089000FF920F931F93DF93CF93CDB7DEB7AB9744
:1008A0000FB6F894DEBF0FBECDBF7C0145E0D42E5D
:1008B0005E010894A11CB11C062F10E001501040ED
:1008C0008091DC019091DD01B5010E9409408823EF
:1008D000D9F080E090E005C0F701E80FF91F208310
:1008E00001968017910734F4F501E80FF91F208174
:1008F000222391F7F701E80FF91F10821816190645
:100900002CF0DA94E9F602C0F701108280E090E062
:10091000AB960FB6F894DEBF0FBECDBFCF91DF917F
:100920001F910F91FF90EF90DF90BF90AF900895CF
:100930000F931F93DF93CF93CDB7DEB7AB970FB66F
:10094000F894DEBF0FBECDBF8091DA019091DB013C
:1009500061E271E08E010F5F1F4FA8010E942244E7
:100960008091DA019091DB01B8010E94AD43909330
:10097000DD018093DC0120E0892B09F021E0822F4A
:10098000AB960FB6F894DEBF0FBECDBFCF91DF910F
:100990001F910F9108958091D8019091D9010E94E3
:1009A00018429093DB018093DA0120E0892B09F053
:1009B00021E0822F08950F9389EA97E46DE978E4A6
:1009C00040E050E020E030E000E00E94BB44909323
:1009D000D9018093D801892B79F489EA97E46DE9EC
:1009E00078E440E050E020E030E00FEF0E94BB44AC
:1009F0009093D9018093D80120E08091D801909103
:100A0000D901892B09F021E0822F0F9108950E94CE
:100A10000D49882371F40E94B245882329F40E946D
:100A2000DC0221E030E029C00E94DC0222E030E05C
:100A300024C00E94DB04882329F40E94DC0223E006
:100A400030E01BC00E94CB04882329F40E94DC0202
:100A500024E030E012C00E949804882329F40E9408
:100A6000DC0225E030E009C00E94B445882319F477
:100A700020E030E002C026E030E0C9010895CF93C5
:100A8000DF93EC010E94DC020E9407059C010097A5
:100A900019F08630910599F41092DF011092DE0171
:100AA000CE016EED71E00E941504882331F0809133
:100AB000DE019091DF01892B31F427E030E0C9019C
:100AC000DF91CF91089581E08093F0010E942C0383
:100AD00020E030E0F4CF8091F001882311F020E095
:100AE00008C080EE91E00E943F0520E0892B09F4C8
:100AF00021E0822F08958091F001882311F020E0F9
:100B000008C083E291E00E943F0520E0892B09F4B0
:100B100021E0822F08950E94DC020E9407059C01BB
:100B2000009719F08630910541F48091DC01909195
:100B3000DD010E94293F20E030E0C9010895809145
:100B4000E001882311F40E948B0580EE91E060E1C2
:100B50000E944404892B21F48091E0018E32A9F394
:100B600080EE91E00895CF93DF93DC01EC01C05259
:100B7000DF4FE881F98160838881998101969983AB
:100B80008883A452BF4F2D913C911197AC5DB0402A
:100B90008217930749F4A652BF4F8D919C911197EC
:100BA000AA5DB040998388832FB7F894FD01E8527D
:100BB000FF4F808191810196918380832FBF809127
:100BC000C10080628093C100DF91CF9108951F938F
:100BD0009A01AB011FB7F894809164008D7F8093D8
:100BE0006400223086E9380780E0480780E0580733
:100BF00040F082E08093C00060E874E88EE190E00D
:100C000006C01092C00060E472E48FE090E00E94A1
:100C1000CA51CA01B9010E94275020E030E040E0EB
:100C20005FE30E94254F0E94FB4F7093C5006093C5
:100C3000C40088E18093C10086E08093C200809167
:100C4000C100806A8093C1001FBF1F9108950F9358
:100C50001F93FC010296DF01AA59BF4F04E610E082
:100C600011961C930E93E859FF4F11821082329611
:100C700081939193A193B193819391939183808375
:100C8000E057F040CF018E589F4FDF01AA52BF4F6F
:100C900011961C930E93E852FF4F118210823296E8
:100CA00081939193A193B193819391938193919324
:100CB0001082E25EF04031832083CF010E94E7057D
:100CC0001F910F9108950F931F93FC010296DF016E
:100CD000AA59BF4F04E610E011961C930E93E859F1
:100CE000FF4F11821082329681939193A193B19319
:100CF0008193919391838083E057F040CF018E5888
:100D00009F4FDF01AA52BF4F11961C930E93E852DA
:100D1000FF4F11821082329681939193A193B193E8
:100D200081939193819391931082E25EF04031839D
:100D30002083CF010E94E7051F910F910895089528
:100D40001F920F920FB60F9211242F933F934F9340
:100D50008F939F93AF93BF93CF93DF93EF93FF93C3
:100D6000A0913302B09134024091C600ED01C05908
:100D7000DF4FE881F98140838881998101969983C9
:100D80008883A459BF4F2D913C911197AC56B04028
:100D90008217930749F4A659BF4F8D919C911197E3
:100DA000AA56B040998388832FB7F894FD01E8597B
:100DB000FF4F808191810196918380832FBF4132C3
:100DC00030F4FD01EE51FF4F80818F5F8083FF91F2
:100DD000EF91DF91CF91BF91AF919F918F914F9103
:100DE0003F912F910F900FBE0F901F9018951F925B
:100DF0000F920FB60F9211242F933F938F939F93CF
:100E0000AF93BF93CF93DF93EF93FF93A091330200
:100E1000B09134022FB7F894A852BF4F8D919C9196
:100E20001197A85DB0402FBF892B49F1ED01C25247
:100E3000DF4FE881F9813191F983E883A452BF4FF4
:100E40008D919C911197AC5DB040E817F90749F47A
:100E5000A652BF4F8D919C911197AA5DB040998386
:100E600088832FB7F894FD01E852FF4F808191816C
:100E70000197918380832FBF3093C60005C0809176
:100E8000C1008F7D8093C100FF91EF91DF91CF91E1
:100E9000BF91AF919F918F913F912F910F900FBE76
:100EA0000F901F9018958F929F92AF92BF92CF9202
:100EB000DF92EF92FF920F931F93DF93CF93CDB703
:100EC000DEB7A0970FB6F894DEBF0FBECDBF8C0182
:100ED0000E511F4FD8018C91025E1040882309F4F7
:100EE00079C08091FF01909100020E94740C8823C8
:100EF00009F070C09FB7F894F801EE51FF4F808160
:100F0000815080839FBFBE016F5F7F4F40E03EE610
:100F1000832E912C800E911E2CE6A22EB12CA00EB9
:100F2000B11E9AE6C92ED12CC00ED11E88E6E82E3D
:100F3000F12CE00EF11ED401ED91FC91119731914D
:100F4000ED93FC93D5018D919C91E817F90731F44D
:100F5000F60180819181D4018D939C932FB7F894F1
:100F6000F701808191810197918380832FBFDB01FD
:100F70003C93313224F14F5F6F5F7F4F4032D9F69F
:100F8000FF2403C0C8010E942F02EF2DF0E0E05DB6
:100F9000FE4F6081F3946623A9F7FF2403C0C801C4
:100FA0000E942F02EF2DF0E0EC5CFE4F6081F39485
:100FB0006623A9F7C8016AE00E942F020BC0809146
:100FC000FF0190910002BE016F5F7F4FF801208109
:100FD0000E94FD0CA0960FB6F894DEBF0FBECDBFE9
:100FE000CF91DF911F910F91FF90EF90DF90CF9005
:100FF000BF90AF909F908F90089583E085BD81E072
:1010000080936E000895AF92BF92CF92DF92EF92DD
:10101000FF920F931F930E9427505B016C0120E009
:1010200030E04AE755E40E94DD507B018C0120E06E
:1010300030E040E85FE30E948A4F88231CF461E0BF
:1010400070E024C0C801B70120E03FEF4FE757E44C
:101050000E94D9501816B4F4C601B50120E030E062
:1010600040E251E40E94DD500E94FB4F80E991E094
:1010700005C0FC013197F1F76150704061157105B1
:10108000C1F707C0C801B7010E94FB4FCB01019710
:10109000F1F71F910F91FF90EF90DF90CF90BF90ED
:1010A000AF9008958FB7F8942091FB013091FC0127
:1010B0004091FD015091FE018FBFB901CA01089511
:1010C0006FB7F89486B590E0A0E0B0E0A89B08C0A8
:1010D0000097A105B10521F480E091E0A0E0B0E027
:1010E0002091F3013091F4014091F5015091F60106
:1010F0006FBF542F432F322F2227280F391F4A1F2B
:101100005B1F82E0220F331F441F551F8A95D1F7C2
:10111000B901CA0108951F920F920FB60F921124C0
:101120002F938F939F93AF93BF938091F3019091EF
:10113000F401A091F501B091F6010196A11DB11D38
:101140008093F3019093F401A093F501B093F6011D
:101150008091F7019091F801A091F901B091FA0105
:101160008050904CAF4FBF4F8093F7019093F801A0
:10117000A093F901B093FA0127C08091F7019091F3
:10118000F801A091F901B091FA0180589E43A04066
:10119000B0408093F7019093F801A093F901B093C8
:1011A000FA018091FB019091FC01A091FD01B091A9
:1011B000FE010196A11DB11D8093FB019093FC01DE
:1011C000A093FD01B093FE018091F7019091F80189
:1011D000A091F901B091FA0181589E43A040B0401E
:1011E00060F6BF91AF919F918F912F910F900FBE9D
:1011F0000F901F901895CF93DF93DC01EC01C05244
:10120000DF4FE881F9816083888199810196998314
:101210008883A452BF4F2D913C911197AC5DB04093
:101220008217930749F4A652BF4F8D919C91119755
:10123000AA5DB040998388832FB7F894FD01E852E6
:10124000FF4F808191810196918380832FBF809190
:10125000C10080628093C100DF91CF9108950F9308
:101260001F93CF93DF938C01EB0103C0C8010E9451
:101270002F02FE01219664916623C1F7DF91CF9181
:101280001F910F910895CF93DF93FC01DC019C0126
:101290002E593F4FAC014E585F4F80E090E01796BB
:1012A0001C921E92169719961D921D921D921C92C9
:1012B0001C97843091053CF4E901188219821A8246
:1012C0001B82EA011882019617962C5F3F4F4F5FF1
:1012D0005F4F8930910519F711821082EC5AFF4F48
:1012E00011921192118210823A9710821182128209
:1012F0001382EC54F0408FEF9FEFAFEFBFEF82838C
:101300009383A483B583E85AFF4F80E090E0A0E088
:10131000B0E080839183A283B383369610821182DA
:10132000128213827896118210827796108211822F
:10133000128213827496119211921192119210825C
:1013400011821282138238961082118212821382C5
:10135000DF91CF9108950F931F93DF93CF93CDB774
:10136000DEB7CC58D0400FB6F894DEBF0FBECDBF6D
:10137000BC018C010A5F1F4FFE01E95BFF4F86E451
:10138000DF011D928A95E9F71A82198288E58B831D
:10139000DE01119687E00D9001928150E1F71986E8
:1013A000188689E58A87DE01A25BBF4FFE01389669
:1013B00087E001900D928150E1F7188A1F868AE537
:1013C000898BDE01AB5ABF4FFE013F9687E001904B
:1013D0000D928150E1F71F8A1E8A85E4888FDE0115
:1013E000A45ABF4FFE01769687E001900D9281507E
:1013F000E1F71E8E1D8E8DE48F8FDE01AD59BF4F3C
:10140000FE017D9687E001900D928150E1F71DA2CB
:101410001CA287E48EA3DE01A659BF4FFE01B4963D
:1014200087E001900D928150E1F71CA61BA686E48F
:101430008DA7DE01AF58BF4FFE01BB9687E001903C
:101440000D928150E1F71BAA1AAA80E58CABDE0150
:10145000A858BF4FFE01F29687E001900D9281508F
:10146000E1F71AAE19AE83E58BAFDE01A158BF4F8D
:10147000FE01F99687E001900D928150E1F7FE019F
:10148000E05CFF4F1182108284E5DE01AE5BBF4F4E
:101490008C93DE01AA57BF4F87E001900D928150D7
:1014A000E1F720E030E0AE01495B5F4FD801A20FC9
:1014B000B31FFA01E20FF31F87E001900D928150F4
:1014C000E1F7295F3F4F2634310581F7CB010E94B8
:1014D0004309C457DF4F0FB6F894DEBF0FBECDBF30
:1014E000CF91DF911F910F9108956F927F928F920C
:1014F0009F92AF92BF92CF92DF92EF92FF920F93A3
:101500001F93CF93DF9380915B05882309F063C01D
:10151000CBE6D5E0CE010E94AB09CB52DF4F89E08C
:10152000C439D807B9F785E090E0998388831B8296
:101530001A828BE695E09D838C83D0939B09C093A0
:101540009A0990939D0980939C0990939F09809399
:101550009E0980EA99E00E94AB0985E79AE00E9423
:10156000AB098AE49BE00E94AB092FE1C22E2CE07C
:10157000D22EC5E2DCE098E2E92E9CE0F92E00E0F4
:1015800010E085ED682E712C88248A94982C5401E3
:10159000069DC001079D900D169D900D112480564B
:1015A000964F0E944309F601119211926F01188221
:1015B000F70181929192A192B1927F011F861A8ABE
:1015C0000F5F1F4F21960330110511F710923B0C4E
:1015D00081E080935B058BE695E0DF91CF911F91D1
:1015E0000F91FF90EF90DF90CF90BF90AF909F90C2
:1015F0008F907F906F900895E22FF0E0EE0FFF1F25
:10160000EE0FFF1FE80FF91FE354F94F4150504010
:101610006040704040835183628373830895CF9309
:10162000DF93AC01EB0130E08AA19BA1892B09F487
:1016300031E020E089A59AA5892B09F421E0321731
:1016400009F44FC14D5C5B4FDA01ED91FC914353BE
:10165000544088819981918380838A819B81AC8168
:10166000BD8182839383A483B5839F012A5F3F4F0B
:10167000BE016A5F7F4F86E4DB010D90BD01D90199
:101680000D929D018150C1F7E45BFF4FC45BDF4FBA
:1016900089919991A991B99181939193A193B193D2
:1016A00089919991A991B99181939193A193B193C2
:1016B0008991999181939193899199918193919332
:1016C00089919991A991B99181939193A193B193A2
:1016D000899199918193919388819981AA81BB8104
:1016E000CE55D04080839183A283B383EE55F040E2
:1016F0009F012E593F4FBE016E597F4F80E1DB01A4
:101700000D90BD01D9010D929D018150C1F7CE58B8
:10171000DF4F89919991A991B991EE58FF4F81932B
:101720009193A193B1938991999181939193899187
:10173000819388819981AA81BB81C957D0408083D8
:101740009183A283B383E957F0409F0123583F4F11
:10175000BE0163587F4F80E1DB010D90BD01D901CF
:101760000D929D018150C1F7E357FF4FC357DF4FE3
:1017700089919991A991B99181939193A193B193F1
:1017800089919991A991B99181939193A193B193E1
:1017900089919991A991B99181939193A193B193D1
:1017A00089919991A991B99181939193A193B193C1
:1017B00089919991A991B99181939193A193B193B1
:1017C00089919991A991B99181939193A193B193A1
:1017D00089919991A991B99181939193A193B19391
:1017E00089919991A991B99181939193A193B19381
:1017F00089919991A991B99181939193A193B19371
:1018000089919991A991B99181939193A193B19360
:1018100089919991A991B99181939193A193B19350
:1018200089919991A991B99181939193A193B19340
:1018300089919991A991B99181939193A193B19330
:1018400089919991A991B99181939193A193B19320
:1018500089919991A991B99181939193A193B19310
:1018600089919991A991B99181939193A193B19300
:1018700089919991A991B99181939193A193B193F0
:101880009F0188819981AA81BB81F901808391831D
:10189000A283B383FA01ED5CFB4F808191818B526F
:1018A0009F4F91838083415D5B4FDA012D913C9185
:1018B0004F5254408217930749F4435D5B4FDA015E
:1018C0008D919C914D525440918380832FB7F89411
:1018D000FA01E55DFB4F80819181019691838083C0
:1018E0002FBFDF91CF910895FC018FB7F894E55D8C
:1018F000FB4F208131818FBF40E092918291281768
:10190000390708F041E0842F0895FC01E153F94FB5
:1019100081E0808308950E94750A9093000280936D
:10192000FF0108957F928F929F92AF92BF92CF92C4
:10193000DF92EF92FF920F931F93DF93CF93CDB778
:10194000DEB7A0970FB6F894DEBF0FBECDBF5C0127
:101950004B0169017A01702E00E003C0C5010E94AD
:101960002F02F401E00FF11D60810F5F6623B1F7D4
:10197000C701B6017E010894E11CF11CA7012AE011
:1019800030E00E948C5310E003C0C5010E942F027A
:10199000F701E10FF11D60811F5F6623B1F777202A
:1019A00021F0C5016AE00E942F02A0960FB6F894BC
:1019B000DEBF0FBECDBFCF91DF911F910F91FF9082
:1019C000EF90DF90CF90BF90AF909F908F907F90DF
:1019D000089580914B05882369F484E49CE040E0FD
:1019E00051EE60E070E020E030E00E94270681E0E8
:1019F00080934B0584E49CE008953F924F925F9260
:101A00006F927F928F929F92AF92BF92CF92DF920E
:101A1000EF92FF920F931F93CF93DF936C018B0193
:101A2000F42E322EC42FD0E03E010894611C711CAC
:101A3000CB01B3010E948B3CA32CBB24F501E65AD9
:101A4000FC4FEE0FFF1FEC0DFD1D80819181892B56
:101A500041F4D8018C918E3421F481E090E091839F
:101A60008083F501E65AFC4FEE0FFF1FEC0DFD1DC4
:101A700080819181019799F5F801552420E030E0AB
:101A8000D601AA0DBB1DA654B94F90819A3281F49C
:101A900010822F5FF501E65AFC4FEE0FFF1FEC0D91
:101AA000FD1D82E090E091838083222389F424C08D
:101AB0008C9189278C93808180321CF4108255246C
:101AC00053942F5F3F4F3196C217D307F4F614C0DB
:101AD000C801820F911D0E941C53482E07C0F801B7
:101AE000EF0DF11D8081803224F444245524539459
:101AF00004C04424552401C04424F601EA0DFB1D12
:101B0000E753F94F80818F0D8F5F8083F801EF0DD0
:101B1000F11D1082FF2019F4552009F446C385ED0C
:101B200090E0A89E4001A99E900CB89E900C1124B4
:101B3000E5E3F4E08E0E9F1E8C0C9D1CF601EA0D71
:101B4000FB1DE753F94F808190E08615970519F446
:101B5000C4010E94430910929D0E10929C0ED80160
:101B60008C918E3429F18F3484F4863409F41BC1AE
:101B7000873424F4853409F001C2A2C1873409F402
:101B800000C18D3409F0FAC17DC0883509F41DC14A
:101B900089353CF4803509F4C5C1833509F0EEC1BF
:101BA000D3C1893509F43AC18A3509F0E7C15FC16B
:101BB000C80101960E943A537B018C011616170644
:101BC00018061906BCF0F501EE0FFF1FEE0FFF1F00
:101BD000EC0DFD1DE354F94F0894E108F1080109EB
:101BE0001109E082F182028313830894E11CF11C45
:101BF000011D111DE501CC0FDD1FCC0FDD1FCC0D2C
:101C0000DD1DC354D94F88819981AA81BB8101967A
:101C1000A11DB11D88839983AA83BB8325ED30E084
:101C2000A29EF001A39EF00DB29EF00D1124EC0DCA
:101C3000FD1DE95CFB4F80839183A283B383888180
:101C40009981AA81BB818E159F05A007B10709F470
:101C500095C1B1E03B1629F4E882F9820A831B831F
:101C60008DC10E94E90C6EE371E0A801970101E0CB
:101C70000E94920CF601EA0DFB1DE453F94F81E03E
:101C800080837CC1C80101960E943A5325ED30E063
:101C9000F901AE9E9001AF9E300DBE9E300D112415
:101CA0002C0D3D1D8901065A1B4FD8016D937D9364
:101CB0008D939C931397E901C95ADB4F22E030E0E2
:101CC000398328836059714080409040A1F40E947C
:101CD000343D19821882F801108211821282138217
:101CE0000E94E90C69EB70E00E942F090E94E90C48
:101CF0006AE00E942F0285ED90E0A89EF001A99E67
:101D0000F00DB89EF00D1124EC0DFD1DE65AFB4FB1
:101D100080819181A281B38182599140A040B040DD
:101D200009F02CC10E94E90C61EB70E00E942F09C0
:101D30000E94CC3C882329F00E94E90C6BEA70E0F9
:101D400004C00E94E90C66EA70E00E942F090E941C
:101D5000E90C6AE00E942F0285ED90E0A89EF00158
:101D6000A99EF00DB89EF00D1124EC0DFD1DE95A51
:101D7000FB4F1182108233961082118212821382DD
:101D8000FDC0C80101960E943A5325ED30E0A29EA5
:101D9000F001A39EF00DB29EF00D1124EC0DFD1D7F
:101DA000EF59FB4FE2C0C80101960E94185325ED80
:101DB00030E0A29EF001A39EF00DB29EF00D112422
:101DC000EC0DFD1DE859FB4FE8C185ED90E0A89EA4
:101DD000E001A99ED00DB89ED00D1124CC0DDD1DC3
:101DE000C95ADB4F88819981C755D440892B09F4A2
:101DF0008DC1C65ADB4F88819981AA81BB81CA55A2
:101E0000D4408C529140A040B0400CF47FC1C80136
:101E100001960E943A53C25CDB4F7AC085ED90E098
:101E2000A89EE001A99ED00DB89ED00D1124CC0D26
:101E3000DD1DC95ADB4F88819981C755D440892B54
:101E400009F476C1C65ADB4F88819981AA81BB818A
:101E5000CA55D4408C529140A040B0400CF468C1A7
:101E6000C80101960E943A53CB5BDB4F51C085ED10
:101E700090E0A89EE001A99ED00DB89ED00D11243F
:101E8000CC0DDD1DC95ADB4F88819981C755D440DF
:101E9000892B09F45FC1C65ADB4F88819981AA81D9
:101EA000BB81CA55D4408C529140A040B0400CF444
:101EB00051C1C80101960E943A53C45BDB4F28C050
:101EC00085ED90E0A89EE001A99ED00DB89ED00DB2
:101ED0001124CC0DDD1DC95ADB4F88819981C7556E
:101EE000D440892B09F448C1C65ADB4F88819981B7
:101EF000AA81BB81CA55D4408C529140A040B040C9
:101F00000CF43AC1C80101960E943A53CD5ADB4FF6
:101F1000688379838A839B83239782E090E0998307
:101F200088832CC0C80101960E943A5325ED30E009
:101F3000A29EF001A39EF00DB29EF00D1124EC0DB7
:101F4000FD1DE159FB4F11C0C80101960E943A5393
:101F500025ED30E0A29EF001A39EF00DB29EF00DA3
:101F60001124EC0DFD1DEA58FB4F608371838283C1
:101F70009383339782E090E091838083552009F426
:101F800014C1F501E65AFC4FEE0FFF1FEC0DFD1DCD
:101F90000190F081E02D3097B1F1E601CA0DDB1D13
:101FA0003297C9F4C654D94F8881CA5BD64084158C
:101FB00051F10E94E90CF501EE0FFF1FEE0FFF1F1C
:101FC000EC0DFD1DE354F94F208131814281538195
:101FD0006CE471E011C00E94E90CF501EE0FFF1FE7
:101FE000EE0FFF1FEC0DFD1DE354F94F20813181F1
:101FF000428153816AE571E001E00E94920CC45372
:10200000D94F81E08883F501E65AFC4FEE0FFF1FA0
:10201000EC0DFD1D11821082F601EA0DFB1DE65448
:10202000F94F1082EA5BF640EF01C753D94F888120
:10203000813029F4C4010E9443091882B6C0188275
:10204000E453F94F8081882309F443C0F1E03F163F
:1020500039F40E94E90C68E870E00E942F0919C069
:102060000E94E90C7C01F501EE0FFF1FEE0FFF1F30
:10207000EC0DFD1DE354F94F2081318142815381E4
:1020800067E671E000E00E94920CC7016AE00E94DE
:102090002F02F501EE0FFF1FEE0FFF1FEC0DFD1DD0
:1020A000E354F94F80819181A281B3810197A10905
:1020B000B10980839183A283B383C4010E94430941
:1020C000CA0CDB1C4CEC56E0C40ED51ED6011C928B
:1020D0006CC085ED90E0A89EF001A99EF00DB89E21
:1020E000F00D1124EC0DFD1DEF56FB4FB182A082C7
:1020F000C601B4010E940F0B332009F056C00E94A4
:10210000E90C63E870E00E942F094FC0C8010196F6
:102110000E94185325ED30E0A29EF001A39EF00D21
:10212000B29EF00D1124EC0DFD1DE25CFB4F35C09D
:10213000C80101960E94185325ED30E0A29EF001DF
:10214000A39EF00DB29EF00D1124EC0DFD1DEB5B76
:10215000FB4F23C0C80101960E94185325ED30E0C3
:10216000A29EF001A39EF00DB29EF00D1124EC0D85
:10217000FD1DE45BFB4F11C0C80101960E9418537E
:1021800025ED30E0A29EF001A39EF00DB29EF00D71
:102190001124EC0DFD1DED5AFB4F6083718382838A
:1021A0009383339781E090E0E7CEDF91CF911F9149
:1021B0000F91FF90EF90DF90CF90BF90AF909F90E6
:1021C0008F907F906F905F904F903F9008954F92C7
:1021D0005F926F927F928F929F92AF92BF92CF92B7
:1021E000DF92EF92FF920F931F93DF93CF93CDB7C0
:1021F000DEB7C55DD0400FB6F894DEBF0FBECDBFD1
:102200008C012FB7F894055D1B4FD8018D919C91DF
:102210000B5214402FBF892B09F4E8C271E3E72E5B
:1022200074E0F72EE00EF11ED701ED91FC91808154
:102230009181039709F0E3C1CF010E948819F7014A
:1022400020813181D9018D919C9111979A83898345
:1022500012968D919D910D90BC91A02D8B839C83A6
:10226000AD83BE83FE013796A9014A5F5F4F6DE4DF
:10227000E62EF12CEC0EFD1EBF016A0187E0D601AF
:102280000D906D01DB010D92BD018150C1F73796B4
:10229000495F5F4FEE15FF0579F7245B3F4FD9018A
:1022A0004D915D916D917D914083518362837383E4
:1022B000FD0181919191A191B1919F01FE01EF5A90
:1022C000FF4F80839183A283B383D9018D919D9128
:1022D000FE01EB5AFF4F91838083FD018191919123
:1022E0009F01FE01E95AFF4F91838083F90181919B
:1022F0009191A191B1919F01FE01E75AFF4F808317
:102300009183A283B383D9018D919D919D01FE019B
:10231000E35AFF4F918380838D919D910D90BC91E5
:10232000A02D2E553040FE01E15AFF4F808391834E
:10233000A283B383DE01AD59BF4FF901EE59FF4FC0
:1023400080E101900D928150E1F72E583F4FF90145
:1023500081919191A191B1919F01FE01ED58FF4FA3
:1023600080839183A283B383D9018D919D91FE01D6
:10237000E958FF4F91838083FD0181919F01FE0108
:10238000E758FF4F8083F90180819181A281B38159
:1023900029573040FE01E658FF4F80839183A28386
:1023A000B383DE01A258BF4FF901E358FF4F80E12C
:1023B00001900D928150E1F723573F4FF901819130
:1023C0009191A191B1919F01FE01E257FF4F80834E
:1023D0009183A283B383F90181919191A191B191EC
:1023E0009F01FE01EE56FF4F80839183A283B3834A
:1023F000F90181919191A191B1919F01FE01EA565C
:10240000FF4F80839183A283B383F90181919191DE
:10241000A191B1919F01FE01E656FF4F8083918308
:10242000A283B383F90181919191A191B1919F010F
:10243000FE01E256FF4F80839183A283B383F901AB
:1024400081919191A191B1919F01FE01EE55FF4FB4
:1024500080839183A283B383F90181919191A191AA
:10246000B1919F01FE01EA55FF4F80839183A283C2
:10247000B383F90181919191A191B1919F01FE01E5
:10248000E655FF4F80839183A283B383F901819145
:102490009191A191B1919F01FE01E255FF4F80837F
:1024A0009183A283B383F90181919191A191B1911B
:1024B0009F01FE01EE54FF4F80839183A283B3837B
:1024C000F90181919191A191B1919F01FE01EA548D
:1024D000FF4F80839183A283B383F901819191910E
:1024E000A191B1919F01FE01E654FF4F808391833A
:1024F000A283B383F90181919191A191B1919F013F
:10250000FE01E254FF4F80839183A283B383F901DC
:1025100081919191A191B1919F01FE01EE53FF4FE5
:1025200080839183A283B383F90181919191A191D9
:10253000B1919F01FE01EA53FF4F80839183A283F3
:10254000B383F90181919191A191B1919F01FE0114
:10255000E653FF4F80839183A283B383F901819176
:102560009191A191B1919F01FE01E253FF4F8083B0
:102570009183A283B383F90180819181A281B38188
:10258000FE01EE52FF4F80839183A283B383F80153
:10259000EF5CFB4F808191818B529F4F91838083B1
:1025A000015D1B4FD8012D913C910F5214408217B1
:1025B000930749F4035D1B4FD8018D919C910D52F7
:1025C0001440918380832FB7F894F801E55DFB4FA9
:1025D000808191810197918380832FBF10920202A5
:1025E000109201022FB7F894055D1B4FF80180810E
:1025F00091810B5214402FBF892B09F4F7C001536E
:10260000194FD8018C910F5C1640882309F44FC0F4
:1026100040E050E09BE2C92E94E0D92EC00ED11EBE
:1026200081E3E82E84E0F82EE00EF11EB801615D32
:102630007B4FBDE2AB2EB4E0BB2EA00EB11E19C085
:10264000D701ED91FC919A010DC0EB52FF4FDB01D8
:102650008D919C91E817F90719F4D501ED91FC9142
:10266000215030402115310581F7118210824F5FD2
:102670005F4F2FB7F894F601808191812FBF4817E3
:102680005907F0F280913502909136020E941A1D8E
:102690000E947314809133029091340265EC70E0D3
:1026A0000E942F090153194FD8011C929FC00F5C43
:1026B0001B4FF801808191810E946C1A2FB7F8940A
:1026C00006501040D8018D919C910B5214402FBFA1
:1026D00020910102309102024C012817390708F4B9
:1026E0004901A1E0CA2ED12CF2E0EF2EF12CE1E35A
:1026F0004E2EE4E05E2E400E511E7FE2672E74E007
:10270000772E600E711E6DE2A62E64E0B62EA00E2E
:10271000B11E0053194F5DC0F20180819181D30138
:102720004D915C9196018B529F4F8417950719F438
:10273000F5018081918121503040A9F70E94461A0D
:10274000D8018C91882309F43EC0E814F904D8F527
:10275000F201608171819701FB010DC0EB52FF4FC7
:10276000D3018D919C91E817F90719F4D501ED91EA
:10277000FC91215030402115310581F780819181F4
:10278000019709F5F30140815181CB0196018B52EC
:102790009F4F8417950719F4D5018D919C91215075
:1027A0003040A9F797010AC06B527F4F6417750735
:1027B00019F4F501608171812150304021153105F6
:1027C00099F70E94321A0894C11CD11C0894E11C8C
:1027D000F11CC814D90408F49FCF80910102909194
:1027E000020201969093020280930102CB52DF4FC6
:1027F0000FB6F894DEBF0FBECDBFCF91DF911F9112
:102800000F91FF90EF90DF90CF90BF90AF909F908F
:102810008F907F906F905F904F900895CF93DF934C
:10282000DC01EC01C052DF4FE881F98160838881CF
:102830009981019699838883A452BF4F2D913C9131
:102840001197AC5DB0408217930749F4A652BF4F71
:102850008D919C911197AA5DB040998388832FB781
:10286000F894FD01E852FF4F808191810196918398
:1028700080832FBF8091C10080628093C100DF916F
:10288000CF910895EF92FF921F93CF93DF937C0136
:10289000EB0110E003C0C7010E942F02FE01E10F0F
:1028A000F11D60811F5F6623B1F7DF91CF911F910A
:1028B000FF90EF9008950F931F93CF93DF938C01B8
:1028C000EB0103C0C8010E942F02FE012196649112
:1028D0006623C1F7DF91CF911F910F9108956AE0B0
:1028E0000E942F020895FC0180819181A281B38111
:1028F0008093030290930402A0930502B093060212
:1029000084819581A681B781809307029093080204
:10291000A0930902B0930A0280859185A285B385B0
:1029200080930B0290930C02A0930D02B0930E02C1
:1029300084859585A685B78580930F0290931002B4
:10294000A0931102B093120208950895EF92FF929E
:102950000F931F93DF93CF93CDB7DEB7A0970FB63A
:10296000F894DEBF0FBECDBF7C01CB01BA018E0152
:102970000F5F1F4FA8010E948C53C701B8010E942E
:102980004214A0960FB6F894DEBF0FBECDBFCF9114
:10299000DF911F910F91FF90EF900895CF92DF92FA
:1029A000EF92FF920F93CF93DF93EC0169017A01CD
:1029B0000E944214CE01B701A6012AE030E00E9435
:1029C000A614002319F0CE010E946F14DF91CF915D
:1029D0000F91FF90EF90DF90CF90089580914B057D
:1029E000882369F484E49CE040E051EE60E070E00C
:1029F00020E030E00E94270681E080934B0584E4CC
:102A00009CE00895AF92BF92DF92EF92FF920F93F6
:102A10001F93DF93CF93CDB7DEB7A0970FB6F8948F
:102A2000DEBF0FBECDBF5C017A01D22E0E944214E0
:102A300000E010E0C801B7018E010F5F1F4FA80131
:102A40002AE030E00E94DD53C501B8010E94421423
:102A5000DD2019F0C5010E946F14A0960FB6F894FE
:102A6000DEBF0FBECDBFCF91DF911F910F91FF90C1
:102A7000EF90DF90BF90AF900895EF92FF920F9389
:102A80001F930E94E90C8C01E0903702F09038020D
:102A9000C7010E94993AAC01C8016BE671E020E0E1
:102AA0000E9402150E94E90C8C01C7010E94933A12
:102AB000AC01C8016EE671E020E00E9402150E94A0
:102AC000E90C6AE00E942F021F910F91FF90EF9096
:102AD0000895AF92BF92CF92DF92EF92FF920F9341
:102AE0001F93DF93CF9300D0CDB7DEB76C01FC010D
:102AF00025A136A147A150A52C3C31054105510522
:102B000009F434C22D3C3105410551050CF06BC070
:102B1000223731054105510509F477C123373105C5
:102B2000410551058CF5283631054105510509F45B
:102B3000EFC029363105410551059CF4223131059C
:102B40004105510509F4DDC0243531054105510524
:102B500009F4D7C0211531054105510509F4D1C04B
:102B600008C32D3631054105510509F4F7C02E364D
:102B700031054105510509F42AC1293631054105C0
:102B8000510509F0F6C2D6C0283C31054105510572
:102B900009F4D4C1293C3105410551059CF4243781
:102BA00031054105510509F46BC124373105410553
:102BB00051050CF438C12C3831054105510509F097
:102BC000D8C2A7C12A3C31054105510509F4C2C14B
:102BD00080913502909136022B3C3105410551051B
:102BE0000CF0C0C1B3C12E32F1E03F07F0E04F0757
:102BF000F0E05F0709F432C22F3261E0360760E08F
:102C0000460760E056078CF5203D3105410551052A
:102C100009F4D2C2213D3105410551056CF42E3C29
:102C200031054105510509F4DFC12F3C310541054E
:102C300051050CF0C1C2B5C12C3271E0370770E00C
:102C4000470770E0570709F4F9C12D3281E03807D2
:102C500080E0480780E058070CF0F8C1233D3105BB
:102C60004105510509F085C2C7C1243391E03907F8
:102C700090E0490790E0590709F410C22533E1E0DC
:102C80003E07E0E04E07E0E05E07CCF42133F1E0E0
:102C90003F07F0E04F07F0E05F0709F4EFC123338F
:102CA00061E0360760E0460760E0560709F4EEC1D0
:102CB000205331404040504009F05BC2D7C1263319
:102CC00081E0380780E0480780E0580709F414C223
:102CD000263391E0390790E0490790E059070CF45A
:102CE000E5C12E35E1E03E07E0E04E07E0E05E079B
:102CF00009F40DC2215931404040504009F039C219
:102D00001EC280913502909136020E94F01E54C27C
:102D100021E430E0C20ED31EF601608171812FEBF9
:102D20003FEFC20ED31E80913702909138020E946D
:102D3000A53A00C12CE530E0C20ED31EF601608139
:102D4000718124EA3FEFC20ED31EC6010E943D15D9
:102D500083E090E0F6019183808331C2FC018081A1
:102D600091810297C1F021E430E0C20ED31EF6013A
:102D7000608171812FEB3FEFC20ED31E809137022D
:102D8000909138020E94A53A882329F082E090E0D1
:102D9000F6019183808380913702909138020E94DE
:102DA000993AA0E0B0E021E430E0C20ED31EF60173
:102DB00020813181428153816FEB7FEFC60ED71E98
:102DC00082179307A407B5070CF477C071C0209150
:102DD000FF0130910002FC0186AD97AD892B19F4FB
:102DE00041E050E00BC061E470E0C60ED71EF60172
:102DF000408151816FEB7FEFC60ED71E60E070E01F
:102E0000C90120E00E94FC0AD7C10E94E90C62E7D8
:102E100071E00E9442148091350290913602B60111
:102E20000E940026A1C10E94E90CF6012281338193
:102E30004481558166E771E000E00E94920C0E9497
:102E4000E90C67E171E00E942F090E94E90C4091B2
:102E50009E0E50919F0E4115510511F09A0102C02E
:102E600022EA3EE0209530952C0F3D1FA9016627F0
:102E700057FD6095762F2AE030E00E94A61474C1B9
:102E8000A0903702B0903802C5010E94993A8C0197
:102E9000C5010E948D3A0817190778F0C5010E94F4
:102EA000933A8C01C5010E94873A0817190728F048
:102EB00083E090E0F601918380830E9452082CE425
:102EC000A22EB12CAC0CBD1CF501208131814281B8
:102ED0005381621B730B840B950B695E73408040BA
:102EE000904008F477C10E945208F5016083718315
:102EF000828393832CE530E0C20ED31EF6016081FD
:102F0000718124EA3FEFC20ED31EC6010E943D1517
:102F100061C161E470E0C60ED71EF6016081718167
:102F20002FEB3FEFC20ED31E8091370290913802F3
:102F30000E949F3A882309F44DC13EC18091350219
:102F400090913602B6010E94261E36C1B6010E943B
:102F5000AB1D32C18091350290913602B6010E94BC
:102F6000E81D2AC1B6010E94251E26C10E94E90C57
:102F7000F601228133814481558166E771E000E0EA
:102F80000E94920C0E94E90C60E20E942F020E94B3
:102F9000E90C8C010E949F05BC01C8010E944214EB
:102FA000E3C00E94E90CF6012281338144815581FE
:102FB00066E771E000E00E94920C0E94E90C8C012F
:102FC0000E94CA02BC01C8010E9442140E946B0503
:102FD000882329F00E94E90C60E171E0C3C00E94DF
:102FE000E90C6AE071E0BEC0809135029091360232
:102FF000B6010E946A1EE0C0F60187A990ADA090BC
:103000003702B0903802892B51F40E94E90CF50187
:10301000918780871082118212821382CDC0F601BF
:10302000E2ACF3AC04AD15AD0E94E90CF50191875B
:103030008087E082F18202831383BEC080913502D3
:1030400090913602B6010E945C36B6C0809135027E
:1030500090913602B6010E94EB35AEC080913502E8
:1030600090913602B6010E947A35A6C08091350251
:1030700090913602B6010E940A359EC080913502B9
:1030800090913602B6010E949A3496C08091350222
:1030900090913602B6010E94AB1E8EC0809135021F
:1030A00090913602B6010E94CB1E86C02091350257
:1030B0003091360260E0F60182AD93ADA4ADB5ADBE
:1030C0000197A105B10509F461E040E081E490E0D9
:1030D000C80ED91EF60180819181A281B381EFEBE8
:1030E000FFEFCE0EDF1E0197A105B10509F441E007
:1030F000C9010E94EB1E60C000913502109136029A
:103100000E94E90CBC01C8010E94343455C0F6018C
:1031100087A990AD892B09F455C082AD93ADA4ADBC
:10312000B5AD0197A105B10509F04CC0E091FF01D3
:10313000F0910002E053F94F81E080833DC00E948E
:10314000E90C6CEF70E00E942F090E94F03C88238C
:1031500029F00E94E90C66EF70E004C00E94E90CBF
:1031600061EF70E00E942F090E94E90C0E946F1429
:1031700023C00E94E90CF6012281338144815581EC
:103180006CE771E000E00E94920C0E94E90C69EE8D
:1031900070E00E942F090E94E90CF60145A156A19A
:1031A00067A170A52AE030E00E94A6140E94E90CF5
:1031B00069ED70E00E942F0983E090E0F6019183B1
:1031C000808308C0E091FF01F0910002E053F94FC5
:1031D0001082F2CF0F900F90CF91DF911F910F913E
:1031E000FF90EF90DF90CF90BF90AF9008950F9336
:1031F000CF93DF93EC018CA59DA5AEA5BFA585312E
:103200009105A105B10509F47BC086319105A105A1
:10321000B1056CF4B7FD53C082309105A105B1052D
:10322000B4F00497A105B10509F049C018C08B3569
:103230009105A105B105A1F18C359105A105B10557
:10324000B1F18A359105A105B105C9F522C080917A
:10325000350290913602BE010E94852855C00E9419
:1032600052082AAD3BAD4CAD5DAD621B730B840BB8
:10327000950BC05BDF4F288139814A815B81C05546
:10328000D0402617370748075907D0F182E090E071
:1032900039C080913502909136020E94961D30C04F
:1032A00080913502909136020E94A01D29C0809124
:1032B000350290913602BE010E94591D21C00E9424
:1032C000E90C2A813B814C815D816CE771E000E073
:1032D0000E94920C0E94E90C69E571E00E942F099E
:1032E0000E94E90C4CA55DA56EA57FA52AE030E003
:1032F0000E94A6140E94E90C69E471E00E942F0963
:1033000083E090E099838883DF91CF910F910895B6
:10331000FC0181A592A5892B39F08091350290910D
:103320003602BF010E94231F08958F929F92AF9291
:10333000BF92CF92DF92EF92FF920F931F93DF9392
:10334000CF93CDB7DEB7A0970FB6F894DEBF0FBE10
:10335000CDBF8C01E0903302F0903402C70160E5EC
:103360000E942F020C5A1F4FF801419151918F0179
:1033700060E070E0C7012AE030E00E94A614C701B7
:1033800065E40E942F02F8014081518106551040EA
:1033900060E070E0C7012AE030E00E94A614C70197
:1033A00060E20E942F026801AA24BB244E01089407
:1033B000811C911CC701F60160850E942F02C70184
:1033C0006AE30E942F02F601868197818130910580
:1033D00051F082309105B1F0892BF1F4C70165E518
:1033E0000E942F0219C0F60161857285838594853C
:1033F0004AE025E084010E94F251C701B4010E9415
:1034000042140AC0F6014185528563857485C7015F
:103410002AE030E00E94A614C70160E20E942F0259
:103420000894A11CB11C87E090E0C80ED91E99E059
:10343000A916B10409F0BECFC7010E946F14A0966F
:103440000FB6F894DEBF0FBECDBFCF91DF911F91B5
:103450000F91FF90EF90DF90CF90BF90AF909F9033
:103460008F900895FC01DB0180819181019769F4BF
:103470008D919C911197019741F480913502909123
:103480003602BF01AD010E94DA290895DC01FC017A
:10349000EC5AFF4F808191810196918380838D91B9
:1034A0009C9111970197B9F099968D919C919A975B
:1034B000892B31F481E090E011969C938E930895CE
:1034C0008091350290913602BD0143E152E023E044
:1034D00032E00E944D3008950F931F93CF93DF93F6
:1034E000EC018C01005B1F4FF80180819181A2816A
:1034F000B3810097A105B10539F40E945208F80183
:103500006083718382839383FE01EA5AFF4F808137
:10351000918101969183808388819981181619067B
:1035200024F0CE010E94461A0FC08881998103972A
:1035300059F089A59AA5892B21F4CE010E9469151D
:1035400003C0CE010E94F718DF91CF911F910F9118
:103550000895CF93DF93DC01EC01C052DF4FE88187
:10356000F981608388819981019699838883A45227
:10357000BF4F2D913C911197AC5DB04082179307DE
:1035800049F4A652BF4F8D919C911197AA5DB0400E
:10359000998388832FB7F894FD01E852FF4F80810B
:1035A00091810196918380832FBF8091C1008062B9
:1035B0008093C100DF91CF910895EF92FF921F9306
:1035C000CF93DF937C01EB0110E003C0C7010E94A1
:1035D0002F02FE01E10FF11D60811F5F6623B1F72D
:1035E000DF91CF911F91FF90EF9008950F931F935C
:1035F000CF93DF938C01EB0103C0C8010E942F021F
:10360000FE01219664916623C1F7DF91CF911F914E
:103610000F910895FC01A081B18112964C911297EF
:1036200082818F7021E030E002C0220F331F8A9523
:10363000E2F7922F662311F0822F01C080E090956F
:103640009423892B12968C930895EF92FF920F93F7
:103650001F937A018B01FC012189328943895489A6
:10366000C801B7010E9497519B01AC0160E070E76F
:1036700088E399E30E94CA51CA01B9011F910F91D1
:10368000FF90EF9008952F923F924F925F926F922A
:103690007F928F929F92AF92BF92CF92DF92EF92E2
:1036A000FF920F931F931C012A013B01C901B8012E
:1036B00020E030E040E752E40E948E4F4B015C0175
:1036C000C301B20120E030E040E752E40E948E4F97
:1036D0002B013C01C501B401A50194010E94DD50FC
:1036E0004B015C01C301B201A30192010E94DD50B4
:1036F0009B01AC01C501B4010E94254F4B015C0147
:10370000C701B601A70196010E94264F9B01AC019B
:10371000C501B4010E948E4FF1012585368547858C
:1037200050890E94DD500E94FB4F9B01AC01CA01F1
:103730001F910F91FF90EF90DF90CF90BF90AF90CF
:103740009F908F907F906F905F904F903F902F90C1
:1037500008956F927F928F929F92AF92BF92CF9275
:10376000DF92EF92FF920F931F93CF93DF93EC01C1
:1037700089859A85AB85BC850097A105B10509F4BB
:10378000CDC08C818823B1F1E8A9F9A98FEFEF3F73
:10379000F80709F46BC0808190E02AA92F7002C05D
:1037A000959587952A95E2F78170907020914A054A
:1037B000281709F45BC0E880F9800A811B816D81BC
:1037C0007E818F81988529853A854B855C85621B32
:1037D000730B840B950B0E9427502D853E854F85DA
:1037E00058890E948E4F9B01AC01C801B7010E940D
:1037F000264F33C0EDA5FEA58FEFEF3FF807B1F1DF
:10380000808190E02FA52F7002C0959587952A950D
:10381000E2F78170907020914A05281739F1E8800D
:10382000F9800A811B816D817E818F819885298530
:103830003A854B855C85621B730B840B950B0E944C
:1038400027502D853E854F8558890E948E4F9B01BC
:10385000AC01C801B7010E94254F688379838A8330
:103860009B8319861A861B861C8658C08E010D5DA7
:103870001F4FC80161E00E940A1BC80160E00E945E
:103880000A1B89859A85AB85BC850197A109B10979
:1038900089879A87AB87BC8789859A85AB85BC85E4
:1038A0000097A105B105D1F5688079808A809B8059
:1038B0002D813E814F815885AD84BE84CF84D888C8
:1038C0008C81882359F40F2EF0E0EF2EF0E0FF2ECC
:1038D000F0E80F2FFFEB1F2FF02D0AC00F2EF0E0A6
:1038E000EF2EF0E0FF2EF0E80F2FFFE31F2FF02D5B
:1038F000CA01B9010E942750A60195010E948E4F6E
:10390000A80197010E94DD509B01AC01C401B301E5
:103910000E94264F688379838A839B83DF91CF91AE
:103920001F910F91FF90EF90DF90CF90BF90AF90DD
:103930009F908F907F906F9008950F931F93CF93D8
:10394000DF93EC018B016D857E858F85988920E062
:1039500030E040E85FE30E948A4F882329F4C801E1
:1039600067ED71E00E942F098D8D9E8DAF8DB8A1FE
:103970000197A105B10529F4C8016CEC71E00E9422
:103980002F098BA19CA18F5F9F4F29F4C80162EC86
:1039900071E00E942F098EA19FA18F5F9F4F29F494
:1039A000C80169EB71E00E942F098AA59BA58F5F72
:1039B0009F4F29F4C8016DEA71E00E942F098DA57F
:1039C0009EA58F5F9F4F29F4C80164EA71E00E94B1
:1039D0002F0988A999A98F5F9F4F29F4C8016BE926
:1039E00071E00E942F098CA9882329F0C80165E99C
:1039F00071E00E942F0989A5882329F0C8016FE88A
:103A000071E00E942F0980914905882329F0C8019F
:103A100067E871E00E942F0980914A05882329F008
:103A2000C80160E871E00E942F09DF91CF911F91DA
:103A30000F910895FC0180911B028823B1F18081D0
:103A40009181A281B3818093230290932402A09359
:103A50002502B093260285A996A9A7A9B0AD8093A7
:103A6000270290932802A0932902B0932A02E659D4
:103A7000FF4F80819181A281B38180932B0290932B
:103A80002C02A0932D02B0932E02F5968081918195
:103A9000A281B38180932F0290933002A0933102D0
:103AA000B093320283E292E0089581E080931B029A
:103AB000C6CFCF93DF93EC01FB0186819781892BE1
:103AC00041F081859285A385B48588839983AA83F3
:103AD000BB8385859685892B41F080899189A28950
:103AE000B3898DAB9EABAFABB8AF84899589892B79
:103AF00061F08789908DA18DB28DC659DF4F888383
:103B00009983AA83BB83CA56D040838D948D892B19
:103B100051F0868D978DA0A1B1A1C156DF4F88834A
:103B20009983AA83BB83DF91CF910895FC0113AAE7
:103B3000E859FF4F1082F5961082F596108208958D
:103B4000FC0181E083ABE859FF4F8083F5968083C9
:103B5000F59680830895AF92BF92CF92DF92EF9255
:103B6000FF920F931F93CF93DF935B016C01C0E033
:103B7000D0E0F50186819781892B99F0E184F28468
:103B800003851485C801B70120E030E040E050E033
:103B90000E948A4F18162CF4F601E58AF68A078BE4
:103BA000108F219687E090E0A80EB91EE5E3F0E0C3
:103BB000CE0EDF1EC430D105E1F6DF91CF911F910B
:103BC0000F91FF90EF90DF90CF90BF90AF9008954E
:103BD000AF92BF92CF92DF92EF92FF920F931F931B
:103BE000CF93DF935B016C01C0E0D0E0F5018681EB
:103BF0009781892B99F0E184F28403851485C801AB
:103C0000B70120E030E040E050E00E948A4F1816F3
:103C10002CF4F601E18EF28E038F148F219687E04B
:103C200090E0A80EB91EE5E3F0E0CE0EDF1EC43032
:103C3000D105E1F6DF91CF911F910F91FF90EF90A9
:103C4000DF90CF90BF90AF9008950895AF92BF924C
:103C5000CF92DF92EF92FF920F931F93CF93DF9358
:103C60005B01EC01CC24DD24F50186819781892B51
:103C7000D1F0E184F28403851485C801B70120E006
:103C800030E040E050E00E948A4F181664F4ED8660
:103C9000FE860F87188BC801B7010E94FB4F698B06
:103CA0007A8B8B8B9C8B0894C11CD11C87E090E095
:103CB000A80EB91EE59694E0C916D104A9F6DF91C5
:103CC000CF911F910F91FF90EF90DF90CF90BF9019
:103CD000AF900895AF92BF92CF92DF92EF92FF9292
:103CE0000F931F93CF93DF935B016C01C0E0D0E093
:103CF000F50186819781892BB9F0E184F2840385EF
:103D00001485C801B70120E030E040E050E00E9497
:103D10008A4F18164CF4C801B7010E94FB4FF601F8
:103D2000658F768F878F90A3219687E090E0A80E0D
:103D3000B91EE5E3F0E0CE0EDF1EC430D105C1F6BA
:103D4000DF91CF911F910F91FF90EF90DF90CF9077
:103D5000BF90AF900895CF93DF93FB01EC01A9963C
:103D600020E030E086819781892B59F040E0818501
:103D70009285A385B4850097A105B10509F041E0BE
:103D800048832F5F3F4F3796E5962430310551F732
:103D9000DF91CF910895CF93DF93FB01EC01E4967F
:103DA00020E030E086819781892B59F040E08185C1
:103DB0009285A385B4850097A105B10509F041E07E
:103DC00048832F5F3F4F3796E5962430310551F7F2
:103DD000DF91CF9108954093490560934A05089576
:103DE000CF92DF92EF92FF920F931F93CF93DF93C7
:103DF0007C018C01065D1F4FC0E0D0E085E3C82E3A
:103E0000D12CF801808191818F5F9F4F69F0CC9D0B
:103E1000C001CD9D900DDC9D900D11248A968E0DD4
:103E20009F1D61E00E940A1B21960B5C1F4FC4304E
:103E3000D10539F7DF91CF911F910F91FF90EF904E
:103E4000DF90CF9008958F929F92AF92BF92CF92C2
:103E5000DF92EF92FF920F931F93CF93DF935C015A
:103E60006B01C7E1D2E02AE2E22EF12CEA0CFB1C46
:103E700000E010E095E3892E912CF6018681978170
:103E8000892B19F488818F5F888388818330B0F013
:103E9000F7018285882391F0808191818F5F9F4F08
:103EA00069F0089DC001099D900D189D900D112489
:103EB0008A968A0D9B1D61E00E940A1B0F5F1F4FAF
:103EC00087E090E0C80ED91E2196E5E3F0E0EE0E03
:103ED000FF1E0430110589F6DF91CF911F910F91DC
:103EE000FF90EF90DF90CF90BF90AF909F908F901A
:103EF00008952F923F924F925F926F927F928F928E
:103F00009F92AF92BF92CF92DF92EF92FF920F9368
:103F10001F93CF93DF93E5ECCE2ED12CC60ED71E88
:103F2000EB013C0152E7852E912C860E971EAA24A8
:103F3000BB244EE5442E512C460E571E36E7232E49
:103F4000312C260E371EF601E080F18002811381AC
:103F50008E819F81892B19F4C801B70111C0F3012B
:103F600083A9882349F0C801B70129853A854B8583
:103F70005C850E94264F04C069857A858B859C8567
:103F8000A80197010E94254F7B018C0120E030E0C1
:103F900040E050E00E948A4F88233CF417FB1095C4
:103FA00017F91095F401108203C081E0F4018083B9
:103FB000C801B701F30125853685478550890E94E0
:103FC000DD500E94FB4F9B01AC018DE99FEFC80EB5
:103FD000D91EF601208331834283538383E690E028
:103FE000C80ED91EF20180819181A281B38182170E
:103FF0009307A407B50738F42083318342835383A2
:10400000F101B182A0820894A11CB11C84E090E06F
:10401000C80ED91E2796E5E3F0E06E0E7F1E0894C9
:10402000811C911CF4E0AF16B10409F08CCFDF9134
:10403000CF911F910F91FF90EF90DF90CF90BF90A5
:10404000AF909F908F907F906F905F904F903F9038
:104050002F9008952F923F924F925F926F927F928E
:104060008F929F92AF92BF92CF92DF92EF92FF9288
:104070000F931F93DF93CF9300D000D0CDB7DEB75F
:1040800002E6E02EF12CE60EF71E9C838B831FE7E1
:10409000212EB6E93B2EA8E14A2EFBE45F2E8B01D0
:1040A000085A1F4FCB018E589F4F9A838983F7017F
:1040B00080819181A281B3810097A105B10519F199
:1040C000F801A080B180C280D380EB81FC8195880B
:1040D00086887788608C692D782D872D962D95019F
:1040E000A6010E948A4F882324F4A92CB82CC72C3F
:1040F000D62CB501C6019101A2010E948A4F8823E6
:1041000014F41501260184E090E0E80EF91EEB811D
:10411000FC81F596FC83EB8389819A81E816F90688
:1041200031F6B101C2010F900F900F900F90CF9117
:10413000DF911F910F91FF90EF90DF90CF90BF9094
:10414000AF909F908F907F906F905F904F903F9037
:104150002F9008952F923F924F925F926F927F928D
:104160008F929F92AF92BF92CF92DF92EF92FF9287
:104170000F931F93DF93CF9300D000D0CDB7DEB75E
:1041800042E6E42EF12CE60EF71E9C838B833FE77C
:10419000232E26E9322E98E1492E8BE4582E8B01EE
:1041A000085A1F4FCB018E589F4F9A838983F7017E
:1041B00080819181A281B3810097A105B10519F198
:1041C000F801A080B180C280D380EB81FC81918C0A
:1041D000828C738C648C692D782D872D962D95019A
:1041E000A6010E948A4F882324F4A92CB82CC72C3E
:1041F000D62CB501C6019101A2010E948A4F8823E5
:1042000014F41501260184E090E0E80EF91EEB811C
:10421000FC81F596FC83EB8389819A81E816F90687
:1042200031F6B101C2010F900F900F900F90CF9116
:10423000DF911F910F91FF90EF90DF90CF90BF9093
:10424000AF909F908F907F906F905F904F903F9036
:104250002F9008958F929F92AF92BF92CF92DF924C
:10426000EF92FF920F931F93CF93DF93F2E6CF2E3F
:10427000D12CC60ED71EEC01EE24FF248701E8E501
:104280008E2E912C860E971E52E7A52EB12CA60ECF
:10429000B71EF60180819181A281B3810097A105AB
:1042A000B105E1F0F40160817181828193812D85F6
:1042B0003E854F8558890E94DD509B01AC0160EC22
:1042C00071EE84E69EE40E948E4F0E94FB4FE6163C
:1042D000F7060807190710F47B018C0184E090E0D1
:1042E000C80ED91EE596CA14DB0499F6B701C801B9
:1042F000DF91CF911F910F91FF90EF90DF90CF90C2
:10430000BF90AF909F908F9008958F929F92AF92A1
:10431000BF92CF92DF92EF92FF920F931F93CF93B2
:10432000DF9312E6C12ED12CC60ED71EEC01EE246F
:10433000FF248701B8E58B2E912C860E971EA2E7ED
:10434000AA2EB12CA60EB71EF60180819181A28102
:10435000B3810097A105B105E1F0F401608171819D
:10436000828193812D853E854F8558890E94DD503D
:104370009B01AC0160EC71EE84E69EE40E948E4FDE
:104380000E94FB4FE616F7060807190710F47B0199
:104390008C0184E090E0C80ED91EE596CA14DB04B7
:1043A00099F6B701C801DF91CF911F910F91FF904E
:1043B000EF90DF90CF90BF90AF909F908F90089537
:1043C000AF92BF92CF92DF92EF92FF920F931F9323
:1043D000CF93DF936B0122E630E0C20ED31EEC01D7
:1043E000EE24FF248701AA24BB24F6018081918159
:1043F000A281B3810097A105B10519F16D8D7E8D64
:104400008F8D98A10E9427502D853E854F85588914
:104410000E94DD5020E034E244E75BE40E948E4FCE
:104420009B01AC0160E070E080E89FE30E948E4F4A
:104430000E94F64FE616F7060807190710F47B01ED
:104440008C010894A11CB11C24E030E0C20ED31EE4
:10445000E59634E0A316B10441F6B701C801DF9137
:10446000CF911F910F91FF90EF90DF90CF90BF9071
:10447000AF9008952F923F924F925F926F927F92EA
:104480008F929F92AF92BF92CF92DF92EF92FF9264
:104490000F931F93DF93CF9300D000D0CDB7DEB73B
:1044A00022E7422E512C460E571E3C0105EB202ED2
:1044B000312C260E371E88249924D10150968D91D7
:1044C0009D910D90BC91A02D89839A83AB83BC8371
:1044D000EDEAFFEF2E0E3F1ED1012D913D914D9142
:1044E0005C91E3E5F0E02E0E3F1ED3011D96AD90EA
:1044F000BD90CD90DC905097F2018081882359F4D3
:104500000F2EF0E0EF2EF0E0FF2EF0E80F2FFFEB84
:104510001F2FF02D0AC00F2EF0E0EF2EF0E0FF2E3F
:10452000F0E80F2FFFE31F2FF02DCA01B9010E9401
:104530002750A60195010E948E4FA80197010E9465
:10454000DD509B01AC0169817A818B819C810E9445
:10455000264FD1016D937D938D939D931D010894FA
:10456000811C911C0894411C511CE5E3F0E06E0E87
:104570007F1EF4E08F16910409F09FCF0F900F90EB
:104580000F900F90CF91DF911F910F91FF90EF90BF
:10459000DF90CF90BF90AF909F908F907F906F9063
:1045A0005F904F903F902F900895AC0120E030E055
:1045B00065E370E0269FF001279FF00D369FF00D18
:1045C0001124E40FF51F81859285A385B48500979A
:1045D000A105B10511F081E008952F5F3F4F243010
:1045E000310541F780E0089583E08093800089E100
:1045F000809381000895E4E6F0E08081877F8083E6
:10460000EFE6F0E08081826080830895EFE6F0E0DD
:1046100080818D7F8083E4E6F0E080818860808304
:104620000895CF93DF93EC0141368AEE580780E07E
:10463000680780E0780798F080E69AEE909389000A
:1046400080938800CB01BA0120E63AEE40E050E0CA
:104650000E94CA51CA50DF4F3983288304C0509347
:10466000890040938800DF91CF9108956F927F92E7
:104670008F929F92AF92BF92CF92DF92EF92FF9272
:104680000F931F93CF93DF936C0128EF30E0C20E9E
:10469000D31ED6018C91E8E0FFEFCE0EDF1E8823FB
:1046A00009F063C2E601CA50DF4F8881998118166C
:1046B00019066CF4C60140E65AEE60E070E00E9414
:1046C0001123888199810197998388834EC296012D
:1046D0002C523F4FD901ED91FC91E25AFF4F80815E
:1046E0009181A281B3810097A105B10571F48091F8
:1046F0006F008D7F80936F0080916400886080934D
:104700006400D901ED91FC91FFC1D901ED91FC91BB
:10471000E25AFF4F80819181A281B3810197A10963
:10472000B10980839183A283B383C0E0D0E0790193
:10473000E5E3AE2EB12CD701ED91FC91EA58FF4F85
:1047400080819181C817D90761F4CA9DC001CB9DB2
:10475000900DDA9D900D11248C0D9D1D0E94A91BBA
:1047600051C0FE01EE0FFF1FEE0FFF1FEC0DFD1DF0
:104770008F010A511F4FD8016D907D908D909C90B4
:10478000EA52FF4F2081318142815381621A730ABC
:10479000840A950AF8016082718282829382808104
:1047A0009181A281B381B7FF2DC0CA9DC001CB9D6D
:1047B000900DDA9D900D11248C0D9D1D0E94A91B5A
:1047C000D8012D913D914D915C91D701ED91FC91D6
:1047D000EA58FF4F0190F081E02DEE0FFF1FEE0F22
:1047E000FF1FEC0DFD1DEA52FF4F80819181A281D8
:1047F000B381280F391F4A1F5B1FF80120833183C3
:10480000428353832196C430D10509F094CFE60149
:10481000CC52DF4F288139812F543F4FD9014D9120
:104820005D916D917C91E881F981E357FF4F808123
:104830009181A281B381840F951FA61FB71FF90133
:1048400080839183A283B383E881F981EF54FF4F82
:1048500080819181A281B38181589E43A040B04064
:1048600008F41CC1E881F981EF54FF4F80819181E8
:10487000A281B38180589E43A040B0408083918341
:10488000A283B383E881F981E25AFF4F208131810D
:1048900042815381E881F981EF55FF4F80819181F9
:1048A000A281B381281739074A075B0708F431C191
:1048B000E881F981E356FF4F2081318142815381A4
:1048C000E881F981EB56FF4F80819181A281B3810C
:1048D000281739074A075B0708F01BC1288139816F
:1048E00023563F4FD9014D915D916D917C91E881A7
:1048F000F981E355FF4F80819181A281B381840FBB
:10490000951FA61FB71FF90180839183A283B383EC
:10491000E881F981E356FF4F208131814281538143
:10492000E881F981EB56FF4F80819181A281B381AB
:1049300082179307A407B50788F4E881F981A88155
:10494000B981AB56BF4F8D919D910D90BC91A02D1B
:10495000E356FF4F80839183A283B38386010C5279
:104960001F4FD801ED90FC901197ED91FC9111979C
:10497000EA58FF4F2081318165C0E881F981E35613
:10498000FF4F2081318142815381E881F981E756CF
:10499000FF4F80819181A281B38182179307A40781
:1049A000B50708F07BC06881798163567F4FFB01B2
:1049B0002081318142815381E881F981E355FF4FA4
:1049C00080819181A281B381281B390B4A0B5B0B3B
:1049D000DB012D933D934D935C931397E881F9810F
:1049E000E356FF4F2081318142815381E881F98173
:1049F000E756FF4F80819181A281B3812817390743
:104A00004A075B0788F4E881F981A881B981A75634
:104A1000BF4F8D919D910D90BC91A02DE356FF4FFE
:104A200080839183A283B38386010C521F4FF801C8
:104A3000E080F1800190F081E02DEA58FF4F208165
:104A40003181D801ED91FC91E356FF4F40815181B6
:104A50006281738185E390E0FC012E9FC0012F9F4E
:104A6000900D3E9F900D11248C0D9D1D0E94251BC5
:104A70002DE830E0E20EF31ED7016D937D938D9308
:104A80009C931397D801ED91FC91E357FF4F408120
:104A9000518162817381C6010E94112320E030E0C0
:104AA00045E350E0249FF001259FF00D349FF00D69
:104AB0001124EC0DFD1D81859285A385B485009799
:104AC000A105B10531F42F5F3F4F2430310551F777
:104AD0003AC0E601CC52DF4FE881F981E25AFF4F3C
:104AE00080819181A281B3810097A105B105E9F58B
:104AF00080916F008D7F80936F008091640088604B
:104B000080936400E881F98183E090E09183808361
:104B10002CC0E601CC52DF4FE881F981E25AFF4F09
:104B20002081318142815381E881F981EB55FF4F2A
:104B300080819181A281B38182179307A407B50771
:104B400008F4ACCF1ACFE4EDF0E0CE0EDF1ED601B4
:104B5000ED91FC912CE23FEFC20ED31EE25AFF4FC3
:104B60001082118212821382B4CFDF91CF911F91F4
:104B70000F91FF90EF90DF90CF90BF90AF909F90FC
:104B80008F907F906F9008951F920F920FB60F92A3
:104B900011242F933F934F935F936F937F938F9342
:104BA0009F93AF93BF93EF93FF93809135029091C2
:104BB00036020E943623FF91EF91BF91AF919F91F2
:104BC0008F917F916F915F914F913F912F910F90B6
:104BD0000FBE0F901F90189580914B05882369F4A4
:104BE00084E49CE040E051EE60E070E020E030E0E2
:104BF0000E94270681E080934B0584E49CE00895A1
:104C00006F927F928F929F92AF92BF92CF92DF92DC
:104C1000EF92FF920F931F93DF93CF93CDB7DEB741
:104C2000A0970FB6F894DEBF0FBECDBF5C01CC24B9
:104C3000DD24F5E36F2E712C4E010894811C911C2C
:104C40000E94E90C23E0C216D10411F461E402C011
:104C50006C2D685A0E942F020E94E90C6AE30E94A0
:104C60002F020E94E90C7C01C69CF001C79CF00D4C
:104C7000D69CF00D1124EA0DFB1D608171818281AB
:104C8000938140E024E084010E94F251C701B40105
:104C90000E9442140E94E90C60E20E942F020894D4
:104CA000C11CD11C84E0C816D10451F6A0960FB6E1
:104CB000F894DEBF0FBECDBFCF91DF911F910F9152
:104CC000FF90EF90DF90CF90BF90AF909F908F902C
:104CD0007F906F9008952F923F924F925F926F92C4
:104CE0007F928F929F92AF92BF92CF92DF92EF927C
:104CF000FF920F931F931C0148015901CB01BA0188
:104D000020E030E040E752E40E948E4F9B01AC016E
:104D10000E94DD502B013C01C501B401A5019401A5
:104D20000E94264F4B015C01C701B6010E9427502B
:104D3000F10125853685478550890E94DD509B010C
:104D4000AC01C501B4010E94DD509B01AC01C3015F
:104D5000B2010E94264F0E9444511F910F91FF9073
:104D6000EF90DF90CF90BF90AF909F908F907F900B
:104D70006F905F904F903F902F9008952F923F92A9
:104D80004F925F926F927F928F929F92AF92BF925B
:104D9000CF92DF92EF92FF920F931F93DF93CF9307
:104DA000CDB7DEB72E970FB6F894DEBF0FBECDBFDE
:104DB0009A8389837E876D87DB0199968D919C917B
:104DC0009A97892B09F488C19C968D919D910D909D
:104DD000BC91A02D0197A105B10509F07DC16CC161
:104DE000ED85FE85EA58FF4FFC83EB83808191813E
:104DF00025E330E0829F5001839FB00C929FB00C5E
:104E0000112449815A81A40EB51E8D859E85875631
:104E10009F4F9E838D83DC016D917D918D919C913F
:104E20000E9427503B014C01ED85FE85EF56FF4F58
:104E3000F887EF8360817181828193810E9427507E
:104E40008B019C014D855E8547555F4F5A87498789
:104E5000DA01CD90DD90ED90FC90C501B401A30185
:104E60000E94431B1B012C01EB81FC8180819181FD
:104E700025E330E0829F5001839FB00C929FB00CDD
:104E8000112449815A81A40EB51EAF81B8856D9158
:104E90007D918D919C910E9427503B014C01ED85A5
:104EA000FE85EB56FF4F60817181828193810E9464
:104EB00027508B019C01E985FA85C080D180E28072
:104EC000F380C501B401A3010E94431BAB85BC85DF
:104ED000AD90BD90CD90DC902A143B044C045D0451
:104EE000E0F1ED85FE85EB55FF4FA082B182C282D5
:104EF000D382D292C292B292A292E15AF040FE873D
:104F0000ED87AB81BC818D919C91E5E3F0E08E9FB4
:104F100070018F9FF00C9E9FF00C112429813A8123
:104F2000E20EF31EAF81B8856D917D918D919C91BC
:104F30000E942750AB01BC01E985FA8500811181EF
:104F4000228133813058C701760165010E946B26AA
:104F50000E94FB4FAD81BE8123C0A601950122199D
:104F60003309440955095695479537952795AD85D9
:104F7000BE85AB55BF4FED85FE85EF55FF4F26171C
:104F800037074807590790F0A61AB70AC80AD90A7E
:104F9000A082B182C282D382620D731D841D951DD1
:104FA0006D937D938D939C93139711C0A21AB30AAE
:104FB000C40AD50AA082B182C282D382220D331DD7
:104FC000441D551D2D933D934D935C931397ED8593
:104FD000FE85EA58FF4F20813181E657F040FE8779
:104FE000ED8785E390E0289FF001299FF00D389F21
:104FF000F00D112429813A81E20FF31FE588F6882C
:105000000789108DA9E9CA2ED12C4D855E85C40E65
:10501000D51ED6016D917D918D919C910E94275056
:10502000A80197010E948A4F88234CF4C801B70158
:105030000E94FB4FF60160837183828393832D85E9
:105040003E852A583F4FD9012D913C911197A65783
:10505000B040BE87AD8785E390E0FC012E9FC00184
:105060002F9F900D3E9F900D11248D010F561F4FC5
:10507000D8014D915D916D917C91E981FA818E0FFE
:105080009F1F0E94251B2D853E8523573F4FD90129
:105090006D937D938D939C9313975096BE87AD87A8
:1050A000F80180819181A281B381ED85FE858083A5
:1050B0009183A283B38310C02D853E85225A3F4F32
:1050C0003C872B87F90180819181A281B381009770
:1050D000A105B10509F084CE2E960FB6F894DEBF77
:1050E0000FBECDBFCF91DF911F910F91FF90EF9039
:1050F000DF90CF90BF90AF909F908F907F906F90F8
:105100005F904F903F902F9008952F923F924F9233
:105110005F926F927F928F929F92AF92BF92CF9247
:10512000DF92EF92FF920F931F93DF93CF93CDB750
:10513000DEB727970FB6F894DEBF0FBECDBF5C0178
:105140008B01DB018D919C911197181619060CF0BB
:1051500018C18D919C9102970CF013C1F50183A1A8
:1051600094A18F5F9F4F69F40E94E90C61E671E0A2
:105170000E942F0983E090E0D80111969C938E93B2
:1051800000C1FB01E25AFF4F80819181A281B3816E
:105190000097A105B10531F483E090E0FB01918314
:1051A0008083EFC09B012E583F4F3A83298342E60C
:1051B000242E312C260E371E39E2432E512C4A0C58
:1051C0005B1C88249924FD83EC83A981BA81BC915E
:1051D000BB83F101C080D180E280F38025E330E021
:1051E000829E3001839E700C929E700C1124C5012A
:1051F000860D971D9F838E83DC012D913D914D91EE
:105200005C91ED59FF4F60817181828193810E9491
:105210008A4F882309F03FC02B81EE81FF812483D0
:10522000C582D682E782F086C186D286E386F4867E
:105230008481F301B696882341F0D2016C91B1E0EC
:105240006B27C5018E0F9F1F05C0C5018E0F9F1FC5
:10525000F20160810E940A1BC114D104E104F1042F
:1052600009F45BC0D20111968D919C9112978F5FCA
:105270009F4F09F452C0E5E3F0E08E9EC0018F9E7F
:10528000900D9E9E900D11248A968A0D9B1D60E0C4
:105290000E940A1B42C08091FF01909100020E946F
:1052A000850C6FC008581F4FD8018C9108571040CB
:1052B000882369F4E091FF01F0910002E053F94F77
:1052C0008081882321F0C501B8010E94BE2682E0BA
:1052D00090E0F8019183808324ED30E0A20EB31EAC
:1052E000D50111961C930E93ECE2FFEFAE0EBF1E9C
:1052F00080916400877F8093640080916F0082605A
:1053000080936F0003571F4FD8014D915D916D91B0
:105310007C91C5010E94112334C0F10181919191CA
:10532000A191B1911F01F401EE0FFF1FEE0FFF1FBE
:10533000EA0DFB1DEA52FF4F80839183A283B38362
:10534000AC81BD812D913D914D915C9156954795D4
:105350003795279570962083318342835383089431
:10536000811C911CE981FA813196FA83E98325E356
:1053700030E0420E531E34E08316910409F025CF2D
:1053800091CF27960FB6F894DEBF0FBECDBFCF9159
:10539000DF911F910F91FF90EF90DF90CF90BF9022
:1053A000AF909F908F907F906F905F904F903F90C5
:1053B0002F9008952F923F924F925F926F927F921B
:1053C0008F929F92AF92BF92CF92DF92EF92FF9215
:1053D0000F931F93DF93CF93CDB7DEB7CD54D0405B
:1053E0000FB6F894DEBF0FBECDBF22969FAF8EAF33
:1053F00022972B011A01FB01E858FF4F8081882377
:1054000009F031C6DB0199968D919C919A97892B71
:1054100009F429C6DA0199968D919C919A97892B66
:1054200009F421C6FDC5D1019C962D913D914D9168
:105430005C919F97213031054105510509F013C654
:10544000FCC57EE5872E912C280C391CD1012D91AD
:105450003D914D915C9162EA862E6FEF962E280C5D
:10546000391C211531054105510509F4FCC581E0C0
:105470008083F201E85AFF4FD201A758BF4F6081E5
:105480007181828193812D913D914D915C910E941A
:105490008E4F6DAB7EAB8FAB98AFF101E85AFF4FEB
:1054A000D101A758BF4F60817181828193812D9175
:1054B0003D914D915C910E948E4F69AB7AAB8BAB65
:1054C0009CAB82010E591F4F1CA30BA322962EAD3D
:1054D0003FAD22973AA329A342E6642E712C620CB9
:1054E000731C4901AA24BB24D4011D96ED90FD90A4
:1054F0000D911C91509791E0C92ED12CCC0EDD1E40
:10550000CA0CDB1CEBA1FCA161917191819191917D
:10551000FCA3EBA30E942750A80197010E948E4F85
:105520002DA93EA94FA958AD0E94DD50D6016D931B
:105530007D938D939C93139781E1C82ED12CCC0E33
:10554000DD1ECA0CDB1CF301619171918191919177
:105550003F010E942750A80197010E948E4F29A960
:105560003AA94BA95CA90E94DD50D6016D937D93A9
:105570008D939C931397E4E0F0E0AE0EBF1E05E31D
:10558000E02EF12C8E0C9F1C00E1A016B10409F056
:10559000ABCF12E7612E712C640C751CB2E78B2E19
:1055A000912C820C931C1BAE1AAE19AE20E030E099
:1055B00040E050E02DA73EA74FA758ABAA24BB243C
:1055C000CC24DD24D3019C91F4018081981711F043
:1055D000F1E0F9AFE1E0F0E0EC0FFD1FEC0DFD1D97
:1055E000A1E1B0E0AC0FBD1FAC0DBD1D60817181AC
:1055F000828193812D913D914D915C910E94254F27
:105600007B018C01E89417F9C801B701A9A1BAA1DF
:1056100055962D913D914D915C9158970E94D9508E
:10562000181684F4C801B7012DA53EA54FA558A9A9
:105630000E94D950181634F4BBAEAAAEEDA6FEA651
:105640000FA718AB0894A11CB11C0894611C711C15
:105650000894811C911CE4E0F0E0CE0EDF1E09A14D
:105660001AA10B5C1F4F1AA309A314E0A116B104E1
:1056700009F0A8CF26E730E0420E531ED2010D916B
:105680001C91EAE8FFEF4E0E5F1E000F111F000F86
:10569000111F3E010894611C711CF301E00FF11F02
:1056A00080889188A288B388C080D180E280F3800E
:1056B000F9ADFF2309F0E2C06DA57EA58FA598A9DD
:1056C00020E030E040E050E00E948A4F882389F5D6
:1056D000A20147565F4FF5E98F2E912C480C591CBB
:1056E000F20180819181A281B381EBE68E2EEFEFF2
:1056F0009E2E480C591CFA0180839183A283B383A8
:10570000A1014F565F4F75E9872E912C280C391C4B
:10571000F10180819181A281B3816BE6862E6FEFCA
:10572000962E280C391CFA0180839183A283B383BF
:10573000A5C0C501B401A70196010E94D95049E94D
:10574000A42EB12CA40CB51C31E9832E912C820C13
:10575000931C6101C00ED11E18160CF450C08AAD06
:105760009BAD880F991F880F991F8201080F191F81
:1057700003581F4F680E791E85E390E02AAD3BADBC
:10578000289F7001299FF00C389FF00C112422965D
:105790004EAD5FAD2297E40EF51E6DA57EA58FA5DB
:1057A00098A9D70155962D913D914D915C915897AF
:1057B0000E94254FF30120893189428953890E9433
:1057C000264FD8012D913D914D915C910E94DD5065
:1057D0000E94FB4FF50160837183828393830E9453
:1057E0002750D70155962D913D914D915C91589739
:1057F0000E94254FEDE7F0E0CE0EDF1E31C085E9B7
:10580000E82EF12C4E0C5F1CD2016D917D918D9193
:105810009C91EBE6FFEF4E0E5F1ED5016D937D93DD
:105820008D939C9313970E94275025E330E0AAACF8
:10583000BBACA29EF001A39EF00DB29EF00D112410
:105840002296EEACFFAC2297EE0DFF1D258936891E
:105850004789508D0E94264F0DE710E0C00ED11EE3
:10586000D6012D913D914D915C910E948E4F0E94E9
:10587000FB4FF401608371838283938306E7A02E3C
:10588000B12CA20CB31CD501ED91FC9185E390E005
:10589000E89F4001E99F900CF89F900C11242296FC
:1058A000EEACFFAC22978E0C9F1CD40155964D9107
:1058B0005D916D917C91589719EAE12EF12C2E0C97
:1058C0003F1CD1010D911D912D913C91B7E5EB2E1F
:1058D000BFEFFB2E2E0C3F1CEE0FFF1FEE0FFF1F26
:1058E000E20DF31DEE59FF4FC080D180E280F380BE
:1058F000C4010E946B26D501ED91FC91EE0FFF1FB4
:10590000EE0FFF1FE40DF51DE358FF4F208131819D
:10591000428153810E948E4F7B018C0189E9C82E00
:10592000D12CC40CD51CF6016081718182819381D8
:105930000E9427509B01AC01C801B7010E948A4F09
:105940008823C4F5C801B7010E94FB4FD6016D93AF
:105950007D938D939C9313970E942750E6E7F0E088
:105960004E0E5F1ED201ED91FC91BAE88B2EBFEF77
:105970009B2E480C591CEE0FFF1FEE0FFF1FE20D70
:10598000F31DE358FF4F20813181428153810E94F2
:105990008E4F0E94FB4FE1E9AE2EB12C2A0C3B1C2E
:1059A000D1016D937D938D939C931397EFE6FFEF59
:1059B0002E0E3F1E66E7862E912C480C591CD201F4
:1059C0002D913C91EAE8FFEF4E0E5F1E85E390E0DB
:1059D000289FF001299FF00D389FF00D1124229689
:1059E0008EAC9FAC2297E80DF91DE588F6880789F3
:1059F000108D59E9C52ED12CC40CD51CD6016D9142
:105A00007D918D919C910E942750A80197010E9441
:105A10008A4F88234CF4C801B7010E94FB4FF6015E
:105A2000608371838283938346E7842E912C280CB4
:105A3000391CD1012D913C91EAE8FFEF2E0E3F1E5B
:105A400085E390E0289FF001299FF00D389FF00D2D
:105A5000112422968EAC9FAC2297E80DF91DE588A3
:105A6000F6880789108D31E9C32ED12CC20CD31CC6
:105A7000D6016D917D918D919C910E942750A80136
:105A800097010E948A4F88234CF4C801B7010E94F5
:105A9000FB4FF601608371838283938382010F56EB
:105AA0001F4F24961FAF0EAF2497D8012D913D9123
:105AB0004D915C912CAF3DAF4EAF5FAFF201E75619
:105AC000FF4F2696FFAFEEAF2697E080F180028170
:105AD000138192012A583F4F28963FAF2EAF289747
