:100000000C94F8010C9420020C9420020C94200211
:100010000C9420020C9420020C9420020C942002D8
:100020000C9420020C9420020C9420020C942002C8
:100030000C9420020C94AC280C9420020C94200206
:100040000C9420020C9420020C947E080C94200244
:100050000C9493060C94EA060C9420020C94200253
:100060000C94A64F0C9420020C9420020C942002B5
:100070000C9420020C9420020C9420027374617280
:10008000740A006F6B200A005741524E494E473A9E
:1000900020534552494F555320454550524F4D200E
:1000A0004641494C0A004641494C00424547494EA9
:1000B00000454550524F4D2000454550524F4D2070
:1000C00053544F50000A494E56414C4944415445FF
:1000D0004420434F4445530A00204E4F542053556B
:1000E00050504F525445440A00204D434F44452040
:1000F000004641494C00424547554E004545505247
:100100004F4D20524541443A2000204641494C0081
:1001100020424547554E002056455253494F4E3ACE
:10012000312E3620465245455F52414D3A00204E11
:100130004F5420535550504F525445440A002047C5
:10014000434F44452000212120415849532041522A
:1001500045204E4F5420434F4E4649475552454443
:100160002021210A002045494E56200020455055A7
:100170004C4C200020494E5620002044495320007A
:10018000206E6F206D61782000206E6F206D696E8B
:100190002000206E6F20656E61626C652000206E0D
:1001A0006F206469722000206E6F20737465702068
:1001B00000206E6F20616363656C2000206E6F20ED
:1001C00073746570735F7065725F756E697420001B
:1001D00000010405050303040506040506070100E4
:1001E00001000302010000010203040506070706DF
:1001F00005040302010007020100070605040302CB
:1002000001000302010000010203040506070001CA
:100210000203040506072C002C002C002C003200E1
:100220002C00000100010001000123002300230035
:100230002300030103010001000129002900290016
:1002400029002000200020002000200020002000A5
:100250002000260026002600260026002600260074
:10026000260029003200320032000901090109018B
:1002700009010901090109010901230023002300E3
:1002800023002F002F002F002F002F002F002F0002
:100290002F000601060106010601060106010601FE
:1002A0000601454550524F4D204F564552464C4F42
:1002B0005700494E46494E4954594E414ECDCCCC3B
:1002C0003D0AD7233C17B7D13877CC2B329595E62A
:1002D000241FB14F0A000020410000C84200401C0A
:1002E0004620BCBE4CCA1B0E5AAEC59D7400407A57
:1002F00010F35A00A0724E18090010A5D4E80000AF
:10030000E87648170000E40B54020000CA9A3B004C
:100310000000E1F505000080969800000040420FC3
:10032000000000A08601000000102700000000E887
:1003300003000000006400000000000A000000004C
:10034000000100000000002C76D888DC674F0823ED
:10035000DFC1DFAE59E1B1B796E5E3E453C63AE653
:1003600051997696E8E6C28426EB898C9B62ED4033
:100370007C6FFCEFBC9C9F40F2BAA56FA5F4900582
:100380005A2AF75C936B6CF9676DC11BFCE0E40DB6
:1003900047FEF520E6B500D0ED902E0300943577AA
:1003A000050080841E080000204E0A000000C80CD2
:1003B000333333330F986E12831141EF8D2114893B
:1003C0003BE65516CFFEE6DB18D1844B381BF77C95
:1003D0001D901DA4BBE424203284725E228100C9DA
:1003E000F124ECA1E53D27007E0C8D14343DD34F64
:1003F00011241FBECFEFD0E1DEBFCDBF11E0A0E0E2
:10040000B1E0E2E3F3EB02C005900D92AE3FB1071D
:10041000D9F71EE0AEEFB1E001C01D92A639B107D9
:10042000E1F713E0C0EFD3E004C02297FE010E9481
:100430004553C83ED107C9F70E9456020C949759FC
:100440000C940000CF93DF93DC01EC01C052DF4F2E
:10045000E881F981608388819981019699838883F5
:10046000A452BF4F2D913C911197AC5DB0408217C3
:10047000930749F4A652BF4F8D919C911197AA5DA5
:10048000B040998388832FB7F894FD01E852FF4F5D
:10049000808191810196918380832FBF8091C100DB
:1004A00080628093C100DF91CF910895EF92FF9217
:1004B0000F931F93CF93DF9378940E94F0070E94CD
:1004C000CF020E946E05C0915C02D0915D0288232C
:1004D00071F010E003C0CE010E942202E12FF0E093
:1004E000E050FF4F60811F5F6623A9F70FC010E047
:1004F00003C0CE010E942202E12FF0E0E25FFE4F36
:1005000060811F5F6623A9F70E943941E0905C0279
:10051000F0905D02CCE7D0E003C0C7010E94220248
:10052000FE01219664916623C1F7C0912502D09106
:1005300026020091600210916102CE010E94DA1041
:10054000C7010E944607CE010E94DA10C8010E942E
:10055000653FCE010E94DA100E946B40CE010E94DE
:10056000DA100E943A03CE010E94DA10E6CF8091A1
:100570001602089580911802089586E092E0089589
:10058000109216028091040290910502009711F0DA
:100590000E94D941109205021092040208958091A0
:1005A0001602882311F00E94C002809102029091ED
:1005B0000302009731F00E946C43109203021092E4
:1005C00002028091000290910102009731F00E9496
:1005D000934110920102109200028091FE019091CD
:1005E000FF01009731F00E94FC481092FF01109229
:1005F000FE010895DF93CF9300D000D0CDB7DEB7D2
:1006000090E0A0E0B0E0B095A095909581959F4FC7
:10061000AF4FBF4F89839A83AB83BC838091040221
:1006200090910502BE016F5F7F4F41E00E94294318
:100630000F900F900F900F90CF91DF9108958091C0
:1006400004029091050267E172E041E050E00E94EF
:10065000DF4110921802181619061CF481E08093ED
:10066000180208951F93109117020E941F03812FF3
:100670001F910895AF92BF92CF92DF92EF92FF92B7
:100680001F93DF93CF93CDB7DEB7A0970FB6F89443
:10069000DEBF0FBECDBF80911602882309F485C04E
:1006A000C0902502D0902602C6010E94670C8823C4
:1006B00009F07BC080911802882319F40E94C002BF
:1006C00074C0FE01319680E2DF011D928A95E9F740
:1006D000EE24FF245F0107C00894E11CF11CB0E286
:1006E000EB16F10471F080911802882351F01091FB
:1006F00017020E941F03F501EE0DFF1D108311323A
:100700005CF7BE016F5F7F4FFB01EE0DFF1D808127
:1007100081320CF445C080915C0290915D0240E012
:10072000DC01A052BF4F3CEDC32ED12CC80ED91E08
:100730002AEDE22EF12CE80EF91EBC0168527F4F23
:1007400026C0ED91FC91119780838D919C9111971A
:10075000019611969C938E93F60120813181821728
:10076000930731F4F7018081918111969C938E93C8
:100770008FB7F894FB01208131812F5F3F4F318388
:1007800020838FBF8091C10080628093C100E42FDD
:10079000F0E0E45EFE4F80814F5F882391F605C054
:1007A000C6014E2D22E00E94F00CA0960FB6F894E0
:1007B000DEBF0FBECDBFCF91DF911F91FF90EF90B5
:1007C000DF90CF90BF90AF9008950F931F93CF937A
:1007D000DF93EC018B010EC0C801BE010E94CC5416
:1007E000009741F480910202909103020E947243AB
:1007F00081E009C08091020290910302B8010E9439
:100800005244882349F7DF91CF911F910F910895AA
:10081000EF92FF920F931F93DF93CF93CDB7DEB785
:10082000AB970FB6F894DEBF0FBECDBF7B018E0134
:100830000F5F1F4FB8010E94E503882359F0809194
:10084000000290910102B8010E943348F7019183A0
:10085000808381E0AB960FB6F894DEBF0FBECDBFAC
:10086000CF91DF911F910F91FF90EF900895AF927C
:10087000BF92DF92EF92FF920F931F93DF93CF937C
:10088000CDB7DEB7AB970FB6F894DEBF0FBECDBFC6
:100890007C0145E0D42E5E010894A11CB11C062FFA
:1008A00010E0015010408091020290910302B501C6
:1008B0000E9452448823D9F080E090E005C0F701FF
:1008C000E80FF91F208301968017910734F4F50192
:1008D000E80FF91F2081222391F7F701E80FF91F94
:1008E0001082181619062CF0DA94E9F602C0F70106
:1008F000108280E090E0AB960FB6F894DEBF0FBE9A
:10090000CDBFCF91DF911F910F91FF90EF90DF90BE
:10091000BF90AF9008950F931F93DF93CF93CDB700
:10092000DEB7AB970FB6F894DEBF0FBECDBF809198
:1009300000029091010261E271E08E010F5F1F4F92
:10094000A8010E946B488091000290910102B801B9
:100950000E94F647909303028093020220E0892BC5
:1009600009F021E0822FAB960FB6F894DEBF0FBEE0
:10097000CDBFCF91DF911F910F9108958091FE011E
:100980009091FF010E9461469093010280930002C2
:1009900020E0892B09F021E0822F08950F9382EF48
:1009A0009BE466EE7CE440E050E020E030E000E0D4
:1009B0000E9404499093FF018093FE01892B79F4F2
:1009C00082EF9BE466EE7CE440E050E020E030E023
:1009D0000FEF0E9404499093FF018093FE0120E0F5
:1009E0008091FE019091FF01892B09F021E0822F77
:1009F0000F9108950E94564D882371F40E94FB497F
:100A0000882329F40E94CF0221E030E029C00E940F
:100A1000CF0222E030E024C00E94CE04882329F4D3
:100A20000E94CF0223E030E01BC00E94BE04882356
:100A300029F40E94CF0224E030E012C00E948B040F
:100A4000882329F40E94CF0225E030E009C00E94EB
:100A5000FD49882319F420E030E002C026E030E0B0
:100A6000C9010895CF93DF93EC010E94CF020E9449
:100A7000FA049C01009719F08630910599F41092C0
:100A8000050210920402CE0164E072E00E940804A4
:100A9000882331F08091040290910502892B31F472
:100AA00027E030E0C901DF91CF91089581E0809384
:100AB00016020E941F0320E030E0F4CF809116025E
:100AC000882311F020E008C086E092E00E94320501
:100AD00020E0892B09F421E0822F089580911602ED
:100AE000882311F020E008C083E291E00E943205E3
:100AF00020E0892B09F421E0822F08950E94CF0283
:100B00000E94FA049C01009719F08630910541F487
:100B100080910202909103020E94724320E030E033
:100B2000C901089580910602882311F40E947E0570
:100B300086E092E060E10E943704892B21F48091E5
:100B400006028E32A9F386E092E00895CF93DF93F8
:100B5000DC01EC01C052DF4FE881F98160838881BC
:100B60009981019699838883A452BF4F2D913C911E
:100B70001197AC5DB0408217930749F4A652BF4F5E
:100B80008D919C911197AA5DB040998388832FB76E
:100B9000F894FD01E852FF4F808191810196918385
:100BA00080832FBF8091C10080628093C100DF915C
:100BB000CF9108951F939A01AB011FB7F8948091CC
:100BC00064008D7F80936400223086E9380780E0DE
:100BD000480780E0580740F082E08093C00060E85A
:100BE00074E88EE190E006C01092C00060E472E408
:100BF0008FE090E00E942153CA01B9010E946B511D
:100C000020E030E040E05FE30E9469500E943F51E5
:100C10007093C5006093C40088E18093C10086E0B2
:100C20008093C2008091C100806A8093C1001FBF81
:100C30001F9108950F931F93FC010296DF01AA599B
:100C4000BF4F04E610E011961C930E93E859FF4F36
:100C500011821082329681939193A193B1938193E3
:100C6000919391838083E057F040CF018E589F4F3E
:100C7000DF01AA52BF4F11961C930E93E852FF4F0B
:100C800011821082329681939193A193B1938193B3
:100C90009193819391931082E25EF040318320839F
:100CA000CF010E94DA051F910F9108950F931F93B2
:100CB000FC010296DF01AA59BF4F04E610E011962D
:100CC0001C930E93E859FF4F118210823296819344
:100CD0009193A193B1938193919391838083E057F2
:100CE000F040CF018E589F4FDF01AA52BF4F11969F
:100CF0001C930E93E852FF4F11821082329681931B
:100D00009193A193B1938193919381939193108245
:100D1000E25EF04031832083CF010E94DA051F910B
:100D20000F91089508951F920F920FB60F921124FC
:100D30002F933F934F938F939F93AF93BF93CF93F3
:100D4000DF93EF93FF93A0915C02B0915D0240911D
:100D5000C600ED01C059DF4FE881F98140838881E9
:100D60009981019699838883A459BF4F2D913C9115
:100D70001197AC56B0408217930749F4A659BF4F5C
:100D80008D919C911197AA56B040998388832FB773
:100D9000F894FD01E859FF4F80819181019691837C
:100DA00080832FBF413230F4FD01EE51FF4F80812F
:100DB0008F5F8083FF91EF91DF91CF91BF91AF91D2
:100DC0009F918F914F913F912F910F900FBE0F9058
:100DD0001F9018951F920F920FB60F9211242F9308
:100DE0003F938F939F93AF93BF93CF93DF93EF93F3
:100DF000FF93A0915C02B0915D022FB7F894A852C6
:100E0000BF4F8D919C911197A85DB0402FBF892B4A
:100E100049F1ED01C252DF4FE881F9813191F98347
:100E2000E883A452BF4F8D919C911197AC5DB04067
:100E3000E817F90749F4A652BF4F8D919C9111977D
:100E4000AA5DB040998388832FB7F894FD01E852DA
:100E5000FF4F808191810197918380832FBF3093D1
:100E6000C60005C08091C1008F7D8093C100FF91B5
:100E7000EF91DF91CF91BF91AF919F918F913F9172
:100E80002F910F900FBE0F901F9018958F929F92E9
:100E9000AF92BF92CF92DF92EF92FF920F931F9388
:100EA000DF93CF93CDB7DEB7A0970FB6F894DEBF30
:100EB0000FBECDBF8C010E511F4FD8018C91025E29
:100EC0001040882309F479C0809125029091260270
:100ED0000E94670C882309F070C09FB7F894F8014E
:100EE000EE51FF4F8081815080839FBFBE016F5FB5
:100EF0007F4F40E03EE6832E912C800E911E2CE623
:100F0000A22EB12CA00EB11E9AE6C92ED12CC00E75
:100F1000D11E88E6E82EF12CE00EF11ED401ED91F1
:100F2000FC9111973191ED93FC93D5018D919C919A
:100F3000E817F90731F4F60180819181D4018D938E
:100F40009C932FB7F894F701808191810197918349
:100F500080832FBFDB013C93313224F14F5F6F5F01
:100F60007F4F4032D9F6FF2403C0C8010E942202FD
:100F7000EF2DF0E0E05DFE4F6081F3946623A9F76A
:100F8000FF2403C0C8010E942202EF2DF0E0EC5CB8
:100F9000FE4F6081F3946623A9F7C8016AE00E94BE
:100FA00022020BC08091250290912602BE016F5F44
:100FB0007F4FF80120810E94F00CA0960FB6F894A4
:100FC000DEBF0FBECDBFCF91DF911F910F91FF907C
:100FD000EF90DF90CF90BF90AF909F908F9008954B
:100FE00083E085BD81E080936E000895AF92BF924B
:100FF000CF92DF92EF92FF920F931F930E946B515B
:101000005B016C0120E030E04AE755E40E94215288
:101010007B018C0120E030E040E85FE30E94CE508D
:1010200088231CF461E070E024C0C801B70120E00F
:101030003FEF4FE757E40E941D521816B4F4C60163
:10104000B50120E030E040E251E40E9421520E94CC
:101050003F5180E991E005C0FC013197F1F7615003
:10106000704061157105C1F707C0C801B7010E9442
:101070003F51CB010197F1F71F910F91FF90EF9036
:10108000DF90CF90BF90AF9008958FB7F8942091E4
:1010900021023091220240912302509124028FBFFD
:1010A000B901CA0108956FB7F89486B590E0A0E041
:1010B000B0E0A89B08C00097A105B10521F480E02D
:1010C00091E0A0E0B0E02091190230911A02409125
:1010D0001B0250911C026FBF542F432F322F222727
:1010E000280F391F4A1F5B1F82E0220F331F441F46
:1010F000551F8A95D1F7B901CA0108951F920F9221
:101100000FB60F9211242F938F939F93AF93BF939A
:101110008091190290911A02A0911B02B0911C02B9
:101120000196A11DB11D8093190290931A02A093FC
:101130001B02B0931C0280911D0290911E02A0918F
:101140001F02B09120028050904CAF4FBF4F809350
:101150001D0290931E02A0931F02B093200227C08D
:1011600080911D0290911E02A0911F02B091200259
:1011700080589E43A040B04080931D0290931E0271
:10118000A0931F02B093200280912102909122022D
:10119000A0912302B09124020196A11DB11D80935C
:1011A000210290932202A0932302B0932402809103
:1011B0001D0290911E02A0911F02B0912002815841
:1011C0009E43A040B04060F6BF91AF919F918F9138
:1011D0002F910F900FBE0F901F901895CF93DF9314
:1011E000DC01EC01C052DF4FE881F9816083888126
:1011F0009981019699838883A452BF4F2D913C9188
:101200001197AC5DB0408217930749F4A652BF4FC7
:101210008D919C911197AA5DB040998388832FB7D7
:10122000F894FD01E852FF4F8081918101969183EE
:1012300080832FBF8091C10080628093C100DF91C5
:10124000CF9108950F931F93CF93DF938C01EB0100
:1012500003C0C8010E942202FE0121966491662308
:10126000C1F7DF91CF911F910F910895CF93DF9335
:10127000FC01DC019C012E593F4FAC014E585F4FE1
:1012800080E090E017961C921E92169719961D9278
:101290001D921D921C921C97843091053CF4E9012B
:1012A000188219821A821B82EA0118820196179607
:1012B0002C5F3F4F4F5F5F4F8930910519F71182C7
:1012C0001082EC5AFF4F11921192118210823A97BC
:1012D0001082118212821382EC54F0408FEF9FEF44
:1012E000AFEFBFEF82839383A483B583E85AFF4FA8
:1012F00080E090E0A0E0B0E080839183A283B3839C
:101300003696108211821282138278961182108290
:101310007796108211821282138274961192119222
:1013200011921192108211821282138238961082C9
:10133000118212821382DF91CF9108950F931F9330
:10134000DF93CF93CDB7DEB7CC58D0400FB6F8942B
:10135000DEBF0FBECDBFBC018C010A5F1F4FFE0177
:10136000E95BFF4F86E4DF011D928A95E9F71A8257
:10137000198288E58B83DE01119687E00D9001923A
:101380008150E1F71986188689E58A87DE01A25B1C
:10139000BF4FFE01389687E001900D928150E1F732
:1013A000188A1F868AE5898BDE01AB5ABF4FFE0182
:1013B0003F9687E001900D928150E1F71F8A1E8AC7
:1013C00085E4888FDE01A45ABF4FFE01769687E040
:1013D00001900D928150E1F71E8E1D8E8DE48F8F4E
:1013E000DE01AD59BF4FFE017D9687E001900D9261
:1013F0008150E1F71DA21CA287E48EA3DE01A6594D
:10140000BF4FFE01B49687E001900D928150E1F745
:101410001CA61BA686E48DA7DE01AF58BF4FFE01B8
:10142000BB9687E001900D928150E1F71BAA1AAAA2
:1014300080E58CABDE01A858BF4FFE01F29687E035
:1014400001900D928150E1F71AAE19AE83E58BAF92
:10145000DE01A158BF4FFE01F99687E001900D9281
:101460008150E1F7FE01E05CFF4F1182108284E5BC
:10147000DE01AE5BBF4F8C93DE01AA57BF4F87E002
:1014800001900D928150E1F720E030E0AE01495B20
:101490005F4FD801A20FB31FFA01E20FF31F87E0DD
:1014A00001900D928150E1F7295F3F4F26343105BD
:1014B00081F7CB010E943609C457DF4F0FB6F8946D
:1014C000DEBF0FBECDBFCF91DF911F910F91089569
:1014D0006F927F928F929F92AF92BF92CF92DF9244
:1014E000EF92FF920F931F93CF93DF938091790533
:1014F000882309F063C0C9E8D5E0CE010E949E09A7
:10150000CB52DF4F89E0C23BD807B9F785E090E0C6
:10151000998388831B821A8289E895E09D838C8356
:10152000D093B909C093B8099093BB098093BA09C5
:101530009093BD098093BC098EEB99E00E949E09AF
:1015400083E99AE00E949E0988E69BE00E949E093A
:101550002DE3C22E2CE0D22EC3E4DCE096E4E92E8B
:101560009CE0F92E00E010E085ED682E712C8824B7
:101570008A94982C5401069DC001079D900D169DDC
:10158000900D11248254964F0E943609F601119253
:1015900011926F011882F70181929192A192B192FA
:1015A0007F011F861A8A0F5F1F4F21960330110596
:1015B00011F71092590C81E08093790589E895E044
:1015C000DF91CF911F910F91FF90EF90DF90CF901F
:1015D000BF90AF909F908F907F906F900895E22F73
:1015E000F0E0EE0FFF1FEE0FFF1FE80FF91FE354AF
:1015F000F94F4150504060407040408351836283B6
:1016000073830895CF93DF93AC01EB0130E08AA19F
:101610009BA1892B09F431E020E089A59AA5892BAB
:1016200009F421E0321709F44FC14D5C5B4FDA0138
:10163000ED91FC914353544088819981918380833B
:101640008A819B81AC81BD8182839383A483B5838E
:101650009F012A5F3F4FBE016A5F7F4F86E4DB0137
:101660000D90BD01D9010D929D018150C1F7E45B40
:10167000FF4FC45BDF4F89919991A991B9918193F3
:101680009193A193B19389919991A991B9918193E2
:101690009193A193B1938991999181939193899118
:1016A00099918193919389919991A991B9918193FC
:1016B0009193A193B1938991999181939193888109
:1016C0009981AA81BB81CE55D04080839183A2832A
:1016D000B383EE55F0409F012E593F4FBE016E5926
:1016E0007F4F80E1DB010D90BD01D9010D929D017D
:1016F0008150C1F7CE58DF4F89919991A991B99145
:10170000EE58FF4F81939193A193B1938991999151
:10171000819391938991819388819981AA81BB81D9
:10172000C957D04080839183A283B383E957F040A7
:101730009F0123583F4FBE0163587F4F80E1DB017B
:101740000D90BD01D9010D929D018150C1F7E35764
:10175000FF4FC357DF4F89919991A991B991819317
:101760009193A193B19389919991A991B991819301
:101770009193A193B19389919991A991B9918193F1
:101780009193A193B19389919991A991B9918193E1
:101790009193A193B19389919991A991B9918193D1
:1017A0009193A193B19389919991A991B9918193C1
:1017B0009193A193B19389919991A991B9918193B1
:1017C0009193A193B19389919991A991B9918193A1
:1017D0009193A193B19389919991A991B991819391
:1017E0009193A193B19389919991A991B991819381
:1017F0009193A193B19389919991A991B991819371
:101800009193A193B19389919991A991B991819360
:101810009193A193B19389919991A991B991819350
:101820009193A193B19389919991A991B991819340
:101830009193A193B19389919991A991B991819330
:101840009193A193B19389919991A991B991819320
:101850009193A193B19389919991A991B991819310
:101860009193A193B1939F0188819981AA81BB81B2
:10187000F90180839183A283B383FA01ED5CFB4F6E
:10188000808191818B529F4F91838083415D5B4F1B
:10189000DA012D913C914F5254408217930749F43D
:1018A000435D5B4FDA018D919C914D525440918381
:1018B00080832FB7F894FA01E55DFB4F8081918119
:1018C0000196918380832FBFDF91CF910895FC0112
:1018D0008FB7F894E55DFB4F208131818FBF40E0E9
:1018E000929182912817390708F041E0842F0895DA
:1018F000FC01E153F94F81E0808308950E94680A5A
:10190000909326028093250208957F928F929F9252
:10191000AF92BF92CF92DF92EF92FF920F931F93FD
:10192000DF93CF93CDB7DEB7A0970FB6F894DEBFA5
:101930000FBECDBF5C014B0169017A01702E00E042
:1019400003C0C5010E942202F401E00FF11D608175
:101950000F5F6623B1F7C701B6017E010894E11C51
:10196000F11CA7012AE030E00E94E35410E003C01C
:10197000C5010E942202F701E10FF11D60811F5F86
:101980006623B1F7772021F0C5016AE00E942202A8
:10199000A0960FB6F894DEBF0FBECDBFCF91DF91FA
:1019A0001F910F91FF90EF90DF90CF90BF90AF907D
:1019B0009F908F907F90089580917105882369F49E
:1019C00082E69CE040E051EE60E070E020E030E034
:1019D0000E941A0681E08093710582E69CE00895DA
:1019E0003F924F925F926F927F928F929F92AF92AF
:1019F000BF92CF92DF92EF92FF920F931F93CF93FC
:101A0000DF936C018B01F42E322EC42FD0E03E0107
:101A10000894611C711CCB01B3010E94D440A32C1B
:101A2000BB24F501E65AFC4FEE0FFF1FEC0DFD1D28
:101A300080819181892B41F4D8018C918E3421F4DD
:101A400081E090E091838083F501E65AFC4FEE0F30
:101A5000FF1FEC0DFD1D80819181019799F5F80123
:101A6000552420E030E0D601AA0DBB1DA654B94F85
:101A700090819A3281F410822F5FF501E65AFC4F73
:101A8000EE0FFF1FEC0DFD1D82E090E0918380833F
:101A9000222389F424C08C9189278C938081803201
:101AA0001CF41082552453942F5F3F4F3196C21778
:101AB000D307F4F614C0C801820F911D0E9473541D
:101AC000482E07C0F801EF0DF11D8081803224F40B
:101AD00044245524539404C04424552401C0442470
:101AE000F601EA0DFB1DE753F94F80818F0D8F5FE3
:101AF0008083F801EF0DF11D1082FF2019F45520AD
:101B000009F446C385ED90E0A89E4001A99E900C83
:101B1000B89E900C1124E5E3F4E08E0E9F1E8C0C11
:101B20009D1CF601EA0DFB1DE753F94F808190E003
:101B30008615970519F4C4010E9436091092910E7A
:101B40001092900ED8018C918E3429F18F3484F448
:101B5000863409F41BC1873424F4853409F001C2AA
:101B6000A2C1873409F400C18D3409F0FAC17DC0E7
:101B7000883509F41DC189353CF4803509F4C5C1A7
:101B8000833509F0EEC1D3C1893509F43AC18A35EC
:101B900009F0E7C15FC1C80101960E9491547B0121
:101BA0008C011616170618061906BCF0F501EE0F83
:101BB000FF1FEE0FFF1FEC0DFD1DE354F94F0894BE
:101BC000E108F10801091109E082F182028313831F
:101BD0000894E11CF11C011D111DE501CC0FDD1F56
:101BE000CC0FDD1FCC0DDD1DC354D94F88819981E9
:101BF000AA81BB810196A11DB11D88839983AA8307
:101C0000BB8325ED30E0A29EF001A39EF00DB29EB5
:101C1000F00D1124EC0DFD1DE95CFB4F80839183D9
:101C2000A283B38388819981AA81BB818E159F0588
:101C3000A007B10709F495C1B1E03B1629F4E88289
:101C4000F9820A831B838DC10E94DC0C6EE371E074
:101C5000A801970101E00E94850CF601EA0DFB1D29
:101C6000E453F94F81E080837CC1C80101960E9452
:101C7000915425ED30E0F901AE9E9001AF9E300DFC
:101C8000BE9E300D11242C0D3D1D8901065A1B4F9F
:101C9000D8016D937D938D939C931397E901C95A55
:101CA000DB4F22E030E03983288360597140804067
:101CB0009040A1F40E947D4119821882F80110829F
:101CC0001182128213820E94DC0C69EB70E00E9488
:101CD00022090E94DC0C6AE00E94220285ED90E05D
:101CE000A89EF001A99EF00DB89EF00D1124EC0DF8
:101CF000FD1DE65AFB4F80819181A281B3818259FB
:101D00009140A040B04009F02CC10E94DC0C61EB76
:101D100070E00E9422090E941541882329F00E9448
:101D2000DC0C6BEA70E004C00E94DC0C66EA70E038
:101D30000E9422090E94DC0C6AE00E94220285EDCA
:101D400090E0A89EF001A99EF00DB89EF00D112420
:101D5000EC0DFD1DE95AFB4F118210823396108263
:101D6000118212821382FDC0C80101960E94915413
:101D700025ED30E0A29EF001A39EF00DB29EF00D85
:101D80001124EC0DFD1DEF59FB4FE2C0C801019677
:101D90000E946F5425ED30E0A29EF001A39EF00D4D
:101DA000B29EF00D1124EC0DFD1DE859FB4FE8C16A
:101DB00085ED90E0A89EE001A99ED00DB89ED00DC3
:101DC0001124CC0DDD1DC95ADB4F88819981C7557F
:101DD000D440892B09F48DC1C65ADB4F8881998183
:101DE000AA81BB81CA55D4408C529140A040B040DA
:101DF0000CF47FC1C80101960E949154C25CDB4F74
:101E00007AC085ED90E0A89EE001A99ED00DB89E15
:101E1000D00D1124CC0DDD1DC95ADB4F888199816D
:101E2000C755D440892B09F476C1C65ADB4F888147
:101E30009981AA81BB81CA55D4408C529140A0405F
:101E4000B0400CF468C1C80101960E949154CB5B6C
:101E5000DB4F51C085ED90E0A89EE001A99ED00D1A
:101E6000B89ED00D1124CC0DDD1DC95ADB4F8881E1
:101E70009981C755D440892B09F45FC1C65ADB4FFD
:101E800088819981AA81BB81CA55D4408C529140E6
:101E9000A040B0400CF451C1C80101960E94915479
:101EA000C45BDB4F28C085ED90E0A89EE001A99EB1
:101EB000D00DB89ED00D1124CC0DDD1DC95ADB4FBD
:101EC00088819981C755D440892B09F448C1C65AE5
:101ED000DB4F88819981AA81BB81CA55D4408C523D
:101EE0009140A040B0400CF43AC1C80101960E9454
:101EF0009154CD5ADB4F688379838A839B832397E0
:101F000082E090E0998388832CC0C80101960E94EA
:101F1000915425ED30E0A29EF001A39EF00DB29EFB
:101F2000F00D1124EC0DFD1DE159FB4F11C0C8014E
:101F300001960E94915425ED30E0A29EF001A39EEF
:101F4000F00DB29EF00D1124EC0DFD1DEA58FB4F73
:101F50006083718382839383339782E090E09183DF
:101F60008083552009F414C1F501E65AFC4FEE0FA9
:101F7000FF1FEC0DFD1D0190F081E02D3097B1F1B8
:101F8000E601CA0DDB1D3297C9F4C654D94F8881CA
:101F9000CA5BD640841551F10E94DC0CF501EE0FAE
:101FA000FF1FEE0FFF1FEC0DFD1DE354F94F2081C5
:101FB0003181428153816CE471E011C00E94DC0CDC
:101FC000F501EE0FFF1FEE0FFF1FEC0DFD1DE3549B
:101FD000F94F20813181428153816AE571E001E04E
:101FE0000E94850CC453D94F81E08883F501E65ADD
:101FF000FC4FEE0FFF1FEC0DFD1D11821082F6014C
:10200000EA0DFB1DE654F94F1082EA5BF640EF0142
:10201000C753D94F8881813029F4C4010E94360901
:102020001882B6C01882E453F94F8081882309F4DE
:1020300043C0F1E03F1639F40E94DC0C68E870E020
:102040000E94220919C00E94DC0C7C01F501EE0FF0
:10205000FF1FEE0FFF1FEC0DFD1DE354F94F208114
:1020600031814281538167E671E000E00E94850C76
:10207000C7016AE00E942202F501EE0FFF1FEE0F7A
:10208000FF1FEC0DFD1DE354F94F80819181A2816A
:10209000B3810197A109B10980839183A283B3839E
:1020A000C4010E943609CA0CDB1C4CEC56E0C40E7D
:1020B000D51ED6011C926CC085ED90E0A89EF00163
:1020C000A99EF00DB89EF00D1124EC0DFD1DEF56EC
:1020D000FB4FB182A082C601B4010E94020B3320E3
:1020E00009F056C00E94DC0C63E870E00E942209EF
:1020F0004FC0C80101960E946F5425ED30E0A29EAA
:10210000F001A39EF00DB29EF00D1124EC0DFD1D0B
:10211000E25CFB4F35C0C80101960E946F5425ED6B
:1021200030E0A29EF001A39EF00DB29EF00D1124AE
:10213000EC0DFD1DEB5BFB4F23C0C80101960E9417
:102140006F5425ED30E0A29EF001A39EF00DB29EEB
:10215000F00D1124EC0DFD1DE45BFB4F11C0C80117
:1021600001960E946F5425ED30E0A29EF001A39EDF
:10217000F00DB29EF00D1124EC0DFD1DED5AFB4F3C
:102180006083718382839383339781E090E0E7CE0D
:10219000DF91CF911F910F91FF90EF90DF90CF9043
:1021A000BF90AF909F908F907F906F905F904F9077
:1021B0003F9008954F925F926F927F928F929F927D
:1021C000AF92BF92CF92DF92EF92FF920F931F9345
:1021D000DF93CF93CDB7DEB7C55DD0400FB6F8948F
:1021E000DEBF0FBECDBF8C012FB7F894055D1B4F2E
:1021F000D8018D919C910B5214402FBF892B09F46B
:10220000DDC271E3E72E74E0F72EE00EF11ED70178
:10221000ED91FC9180819181039709F0E3C1CF0199
:102220000E94C81BF70120813181D9018D919C91B9
:1022300011979A83898312968D919D910D90BC91EF
:10224000A02D8B839C83AD83BE83FE013796A901AD
:102250004A5F5F4F6DE4E62EF12CEC0EFD1EBF01D0
:102260006A0187E0D6010D906D01DB010D92BD0181
:102270008150C1F73796495F5F4FEE15FF0579F73B
:10228000245B3F4FD9014D915D916D917D914083CC
:10229000518362837383FD0181919191A191B191E9
:1022A0009F01FE01EF5AFF4F80839183A283B38386
:1022B000D9018D919D91FE01EB5AFF4F918380834F
:1022C000FD01819191919F01FE01E95AFF4F918398
:1022D0008083F90181919191A191B1919F01FE01BA
:1022E000E75AFF4F80839183A283B383D9018D91F5
:1022F0009D919D01FE01E35AFF4F918380838D9153
:102300009D910D90BC91A02D2E553040FE01E15ABB
:10231000FF4F80839183A283B383DE01AD59BF4F0A
:10232000F901EE59FF4F80E101900D928150E1F7E4
:102330002E583F4FF90181919191A191B1919F0147
:10234000FE01ED58FF4F80839183A283B383D901AF
:102350008D919D91FE01E958FF4F91838083FD018E
:1023600081919F01FE01E758FF4F8083F901808131
:102370009181A281B38129573040FE01E658FF4F79
:1023800080839183A283B383DE01A258BF4FF901FA
:10239000E358FF4F80E101900D928150E1F7235700
:1023A0003F4FF90181919191A191B1919F01FE015E
:1023B000E257FF4F80839183A283B383F901819118
:1023C0009191A191B1919F01FE01EE56FF4F808343
:1023D0009183A283B383F90181919191A191B191EC
:1023E0009F01FE01EA56FF4F80839183A283B3834E
:1023F000F90181919191A191B1919F01FE01E65660
:10240000FF4F80839183A283B383F90181919191DE
:10241000A191B1919F01FE01E256FF4F808391830C
:10242000A283B383F90181919191A191B1919F010F
:10243000FE01EE55FF4F80839183A283B383F901A0
:1024400081919191A191B1919F01FE01EA55FF4FB8
:1024500080839183A283B383F90181919191A191AA
:10246000B1919F01FE01E655FF4F80839183A283C6
:10247000B383F90181919191A191B1919F01FE01E5
:10248000E255FF4F80839183A283B383F901819149
:102490009191A191B1919F01FE01EE54FF4F808374
:1024A0009183A283B383F90181919191A191B1911B
:1024B0009F01FE01EA54FF4F80839183A283B3837F
:1024C000F90181919191A191B1919F01FE01E65491
:1024D000FF4F80839183A283B383F901819191910E
:1024E000A191B1919F01FE01E254FF4F808391833E
:1024F000A283B383F90181919191A191B1919F013F
:10250000FE01EE53FF4F80839183A283B383F901D1
:1025100081919191A191B1919F01FE01EA53FF4FE9
:1025200080839183A283B383F90181919191A191D9
:10253000B1919F01FE01E653FF4F80839183A283F7
:10254000B383F90181919191A191B1919F01FE0114
:10255000E253FF4F80839183A283B383F90180818B
:102560009181A281B381FE01EE52FF4F808391835E
:10257000A283B383F801EF5CFB4F808191818B5282
:102580009F4F91838083015D1B4FD8012D913C911A
:102590000F5214408217930749F4035D1B4FD80173
:1025A0008D919C910D521440918380832FB7F894A4
:1025B000F801E55DFB4F80819181019791838083D4
:1025C0002FBF10922802109227022FB7F894055DB2
:1025D0001B4FF801808191810B5214402FBF892B32
:1025E00009F4ECC00153194FD8018C910F5C1640CF
:1025F000882309F44FC040E050E09BE2C92E94E0EC
:10260000D92EC00ED11E81E3E82E84E0F82EE00E14
:10261000F11EB801615D7B4FBDE2AB2EB4E0BB2E75
:10262000A00EB11E19C0D701ED91FC919A010DC009
:10263000EB52FF4FDB018D919C91E817F90719F4DC
:10264000D501ED91FC91215030402115310581F7E4
:10265000118210824F5F5F4F2FB7F894F60180818F
:1026600091812FBF48175907F0F280915E02909137
:102670005F020E947E1F0E945B1480915C02909119
:102680005D0265EC70E00E9422090153194FD801E8
:102690001C9294C00F5C1B4FF801808191810E94B5
:1026A000AC1C2FB7F89406501040D8018D919C9126
:1026B0000B5214402FBF20912702309128024C0169
:1026C0002817390708F44901A1E0CA2ED12CF2E0FD
:1026D000EF2EF12CE1E34E2EE4E05E2E400E511E73
:1026E0007FE2672E74E0772E600E711E6DE2A62EDB
:1026F00064E0B62EA00EB11E0053194F52C0F20175
:1027000080819181D3014D915C9196018B529F4FB5
:102710008417950719F4F50180819181215030408B
:10272000A9F70E94861CD8018C918823A1F1E81496
:10273000F90488F5F20160817181D3014D915C91BA
:10274000FB01C701EB52FF4FE417F50719F4D50160
:10275000ED91FC910197B1F7808191810197D9F4B6
:10276000CB0196018B529F4F8417950719F4F50101
:102770008081918121503040A9F797016B527F4FA2
:102780006417750719F4D5016D917C912150304083
:10279000A9F70E94721C0894C11CD11C0894E11C6A
:1027A000F11CC814D90408F4AACF80912702909193
:1027B000280201969093280280932702CB52DF4F84
:1027C0000FB6F894DEBF0FBECDBFCF91DF911F9142
:1027D0000F91FF90EF90DF90CF90BF90AF909F90C0
:1027E0008F907F906F905F904F900895CF93DF937D
:1027F000DC01EC01C052DF4FE881F9816083888100
:102800009981019699838883A452BF4F2D913C9161
:102810001197AC5DB0408217930749F4A652BF4FA1
:102820008D919C911197AA5DB040998388832FB7B1
:10283000F894FD01E852FF4F8081918101969183C8
:1028400080832FBF8091C10080628093C100DF919F
:10285000CF910895EF92FF921F93CF93DF937C0166
:10286000EB0110E003C0C7010E942202FE01E10F4C
:10287000F11D60811F5F6623B1F7DF91CF911F913A
:10288000FF90EF9008950F931F93CF93DF938C01E8
:10289000EB0103C0C8010E942202FE01219664914F
:1028A0006623C1F7DF91CF911F910F9108956AE0E0
:1028B0000E9422020895FC0180819181A281B3814E
:1028C0008093290290932A02A0932B02B0932C02AA
:1028D00084819581A681B78180932D0290932E02E9
:1028E000A0932F02B093300280859185A285B38595
:1028F0008093310290933202A0933302B09334025A
:1029000084859585A685B785809335029093360298
:10291000A0933702B093380208958FEF9FEF909302
:102920003E0280933D0280913F02807F80933F0270
:102930000895CF92DF92EF92FF920F931F937B0146
:102940006A01CB010E9407408C01C7010E94104020
:10295000D80111969C9111978F7021E030E002C050
:10296000220F331F8A95E2F7822F80959823922BAE
:1029700011969C931197F801329612969C91CD284E
:1029800009F420E08923282B20831F910F91FF90C9
:10299000EF90DF90CF900895EF92FF920F931F93E7
:1029A000DF93CF93CDB7DEB7A0970FB6F894DEBF15
:1029B0000FBECDBF7C01CB01BA018E010F5F1F4F4F
:1029C000A8010E94E354C701B8010E942A14A096EE
:1029D0000FB6F894DEBF0FBECDBFCF91DF911F9130
:1029E0000F91FF90EF900895CF92DF92EF92FF92B8
:1029F0000F93CF93DF93EC0169017A010E942A14AF
:102A0000CE01B701A6012AE030E00E94CC140023D9
:102A100019F0CE010E945714DF91CF910F91FF90D2
:102A2000EF90DF90CF90089580917105882369F42D
:102A300082E69CE040E051EE60E070E020E030E0B3
:102A40000E941A0681E08093710582E69CE0089559
:102A5000AF92BF92DF92EF92FF920F931F93DF939B
:102A6000CF93CDB7DEB7A0970FB6F894DEBF0FBEF9
:102A7000CDBF5C017A01D22E0E942A1400E010E042
:102A8000C801B7018E010F5F1F4FA8012AE030E097
:102A90000E943455C501B8010E942A14DD2019F0A6
:102AA000C5010E945714A0960FB6F894DEBF0FBE62
:102AB000CDBFCF91DF911F910F91FF90EF90DF90ED
:102AC000BF90AF900895EF92FF920F931F930E94D3
:102AD000DC0C8C01E0906002F0906102C7010E9462
:102AE000833DAC01C8016BE671E020E00E9428152F
:102AF0000E94DC0C8C01C7010E94883DAC01C8011A
:102B00006EE671E020E00E9428150E94DC0C6AE06D
:102B10000E9422021F910F91FF90EF900895AF92B3
:102B2000BF92CF92DF92EF92FF920F931F93DF93AA
:102B3000CF9300D0CDB7DEB75C01DC0195960D9147
:102B40001D912D913C9198970E3C11052105310561
:102B500009F407C30F3C1105210531050CF08CC0A9
:102B6000023711052105310509F4FEC103371105AE
:102B7000210531050CF043C0093611052105310549
:102B800009F451C10A36110521053105FCF4023161
:102B900011052105310509F42DC103311105210568
:102BA00031053CF4011511052105310509F422C157
:102BB0001EC5043511052105310509F41BC1083670
:102BC00011052105310509F012C51BC10B36110590
:102BD0002105310509F456C10B36110521053105D2
:102BE0000CF436C10D3611052105310509F462C119
:102BF0000E3611052105310509F0F9C495C1093CCE
:102C000011052105310509F456C20A3C11052105BB
:102C10003105CCF4043711052105310509F4E5C16E
:102C200004371105210531050CF4ACC10C38110530
:102C30002105310509F422C2083C110521053105A1
:102C400009F0D5C430C20B3C11052105310509F44A
:102C500042C20B3C1105210531050CF434C20C3C79
:102C600011052105310509F43EC20D3C1105210570
:102C7000310509F0BCC452C20E32B1E01B07B0E00E
:102C80002B07B0E03B0709F4FDC30F32E1E01E075C
:102C9000E0E02E07E0E03E070CF046C0083D1105DD
:102CA0002105310509F48DC3093D110521053105C3
:102CB000CCF4003D11052105310509F4C7C2003DE2
:102CC0001105210531050CF454C2033D1105210500
:102CD000310509F431C3073D11052105310509F01E
:102CE00086C453C30D3D11052105310509F4B2C356
:102CF0000E3D1105210531053CF40C3D1105210562
:102D0000310509F074C49EC30C32F1E01F07F0E0F6
:102D10002F07F0E03F0709F4A5C30D5211402040F2
:102D2000304009F064C4A6C3053351E0150750E0F4
:102D3000250750E0350709F4CDC3063361E01607D7
:102D400060E0260760E0360744F5013371E01707BD
:102D500070E0270770E0370709F4A4C3023381E06D
:102D6000180780E0280780E038073CF40053114042
:102D70002040304009F03BC48DC30333A1E01A0763
:102D8000A0E02A07A0E03A0709F494C304531140D5
:102D90002040304009F02BC495C30139E1E01E0703
:102DA000E0E02E07E0E03E0709F4E1C30239F1E07C
:102DB0001F07F0E02F07F0E03F0784F4063341E0FF
:102DC000140740E0240740E0340709F4A9C30E5576
:102DD00011402040304009F00AC4ADC3D901C801F8
:102DE000855F9140A040B0404497A105B10508F02F
:102DF000FEC3D7C380915E0290915F020E94D821EA
:102E0000EFC3E1E4F0E0AE0EBF1ED5016D917C9101
:102E1000EFEBFFEFAE0EBF1E80916002909161025A
:102E20000E947B3D3CC1ECE5F0E0AE0EBF1ED5013B
:102E30006D917C91E4EAFFEFAE0EBF1EC5010E94CA
:102E4000631583E090E0D50111969C938E93CBC3DC
:102E5000E0913D02F0913E02BFEFEF3FFB0709F426
:102E6000EBC3328120913F022F7081E090E002C0DD
:102E7000880F991F2A95E2F7282F20952323282BC6
:102E80002283DAC3E0913D02F0913E022FEFEF3F43
:102E9000F20709F4A5C3328120913F022F7081E02F
:102EA00090E002C0880F991F2A95E2F7809583234E
:102EB000828396C3FC01808191810297C9F021E44D
:102EC00030E0A20EB31ED5016D917C91EFEBFFEFC8
:102ED000AE0EBF1E80916002909161020E947B3D08
:102EE000882331F082E090E0D50111969C938E9377
:102EF00080916002909161020E94833DA0E0B0E069
:102F0000E1E4F0E0AE0EBF1EF50120813181428187
:102F100053816FEB7FEFA60EB71E82179307A407AE
:102F2000B5070CF480C079C02091250230912602AB
:102F3000DC01DE968D919C91DF97892B19F441E09D
:102F400050E00BC0E1E4F0E0AE0EBF1ED5014D91A4
:102F50005C91EFEBFFEFAE0EBF1E60E070E0C901C9
:102F600020E00E94EF0A3CC30E94DC0C62E771E0A3
:102F70000E942A1480915E0290915F02B5010E9426
:102F8000E8282EC00E94DC0CD50112962D913D91AF
:102F90004D915C91159766E771E000E00E94850C09
:102FA0000E94DC0C67E171E00E9422090E94DC0CA7
:102FB0004091920E5091930E4115510511F09A01D6
:102FC00002C026E93EE0209530952C0F3D1FA90157
:102FD000662757FD6095762F2AE030E00E94CC14DA
:102FE0000E94DC0C0E94571427C3C0906002D0904E
:102FF0006102C6010E94833D8C01C6010E948D3D85
:103000000817190780F0C6010E94883D8C01C6018F
:103010000E94913D0817190730F083E090E0D50138
:1030200011969C938E930E9445088501045B1F4F67
:10303000F8012081318142815381621B730B840B23
:10304000950B695E73408040904008F403C30E9472
:103050004508D8016D937D938D939C931397ECE570
:10306000F0E0AE0EBF1ED5016D917C91E4EAFFEF5A
:10307000AE0EBF1EC5010E946315ECC221E430E014
:10308000A20EB31ED5016D917C91EFEBFFEFAE0E5A
:10309000BF1E80916002909161020E947F3D882353
:1030A00009F4D8C29DC280915E0290915F02B50181
:1030B0000E948C20C1C280915E0290915F02B50196
:1030C0000E9411208DC280915E0290915F02B50135
:1030D0000E944E20B1C280915E0290915F02B501C4
:1030E0000E948B207DC20E94DC0CF501228133817D
:1030F0004481558166E771E000E00E94850C0E94E2
:10310000DC0C60E20E9422020E94DC0C8C010E9416
:103110009205BC01C8010E942A143EC20E94DC0C28
:10312000F501228133814481558166E771E000E039
:103130000E94850C0E94DC0C8C010E94BD02BC0127
:10314000C8010E942A140E945E05882329F00E946B
:10315000DC0C60E171E01EC20E94DC0C6AE071E0F0
:1031600019C280915E0290915F02B5010E94D02049
:1031700063C2DC01D7968D919C91D897892B59F029
:10318000E0916002F0916102DA968C918487CF0120
:103190000A960E94BF4EF50186AD97AD892B09F4C2
:1031A0004BC2009160021091610221E430E0A20E56
:1031B000B31ED501ED90FC90EFEBFFEFAE0EBF1EFE
:1031C000C7010E940740D82EC92EC7010E94104097
:1031D000D8019C96ED91FC919D9792819E962C91A1
:1031E0009E972F7041E050E0BA0102C0660F771F32
:1031F0002A95E2F79B012095292322838F709C96C4
:10320000DC929C979D96CC929D979E962C919E9732
:10321000207F282B9E962C939E979C96ED91FC9157
:103220009D973181DA0102C0AA0FBB1F8A95E2F790
:103230002A2F209523232A2B2183D8019C96ED91B8
:10324000FC919D9792819E968C916CC0DC01D796E3
:103250008D919C91D897892B59F0E0916002F09163
:103260006102DA968C91848FCF014A960E94BF4EFC
:10327000F50186AD97AD892B09F4DEC1009160029E
:103280001091610221E430E0A20EB31ED501ED9051
:10329000FC90EFEBFFEFAE0EBF1EC7010E94074090
:1032A000D82EC92EC7010E941040D8019F96ED91DB
:1032B000FC91D0979281D1962C91D1972F7041E0BB
:1032C00050E0BA0102C0660F771F2A95E2F79B0112
:1032D0002095292322838F709F96DC929F97D0960A
:1032E000CC92D097D1962C91D197207F282BD19634
:1032F0002C93D1979F96ED91FC91D0973181DA0173
:1033000002C0AA0FBB1F8A95E2F72A2F209523231C
:103310002A2B2183D8019F96ED91FC91D097928121
:10332000D1968C918F7002C0440F551F8A95E2F799
:1033300040954923428380C1DC01D7968D919C91B1
:10334000D897C0906002D0906102892B61F40E94EE
:10335000DC0CF60191878087D6011D921D921D928B
:103360001C9213973DC1F501E2ACF3AC04AD15AD71
:103370000E94DC0CD60119969C938E931897F60147
:10338000E082F182028313832BC1FC0187A990ADF7
:10339000892B09F425C186AD97AD892B09F420C18D
:1033A00062AD73AD21E430E0A20EB31ED5014D91A4
:1033B0005C91EFEBFFEFAE0EBF1EC5010E949914AA
:1033C0000FC1FC0187A990AD892B09F409C182AD19
:1033D00093AD0E940740182F092FD501DA968D91E1
:1033E0009C91DB970E9410408F7010933D020093D8
:1033F0003E0220913F02207F282B20933F02E09144
:103400003D02F0913E02318141E050E0BA0102C03C
:10341000660F771F8A95E2F7262F20952323262B08
:103420002183E0913D02F0913E02928180913F0222
:103430008F7002C0440F551F8A95E2F740954923CB
:103440004283CEC080915E0290915F02B5010E94DE
:103450003121F2C080915E0290915F02B5010E941D
:103460007221BEC080915E0290915F02B5010E9400
:103470004439E2C080915E0290915F02B5010E94E2
:10348000D338AEC080915E0290915F02B5010E9478
:103490006238D2C080915E0290915F02B5010E94B5
:1034A000F2379EC080915E0290915F02B5010E944A
:1034B0008237C2C080915E0290915F02B5010E9486
:1034C00011218EC080915E0290915F02B5010E9431
:1034D000B321B2C020915E0230915F0260E0FC0136
:1034E00082AD93ADA4ADB5AD0197A105B10509F4C9
:1034F00061E040E081E490E0A80EB91EF501808112
:103500009181A281B381EFEBFFEFAE0EBF1E019759
:10351000A105B10509F441E0C9010E94D32160C0B1
:1035200000915E0210915F020E94DC0CBC01C80198
:103530000E941C3781C0DC01D7968D919C91D89751
:10354000892B09F47FC0DA968D919D910D90BC91E5
:10355000A02D0197A105B10509F074C0E0912502E5
:10356000F0912602E053F94F81E0808365C00E940C
:10357000DC0C6CEF70E00E9422090E943941882324
:1035800029F00E94DC0C66EF70E004C00E94DC0CA5
:1035900061EF70E00E9422090E94DC0C0E94571427
:1035A0001FC0F50187A990AD892BD1F086AD97ADED
:1035B000892BB1F0809160029091610262AD73AD90
:1035C00041E450E0A40EB51ED5014D915C91EFEBA6
:1035D000FFEFAE0EBF1E202F255F0A960E946B4E96
:1035E00083E090E0D50111969C938E9333C00E94A6
:1035F000DC0CF50122813381448155816CE771E057
:1036000000E00E94850C0E94DC0C69EE70E00E94D4
:1036100022090E94DC0CD50195964D915D916D912A
:103620007C9198972AE030E00E94CC140E94DC0C38
:1036300069ED70E00E94220983E090E0F50191833A
:10364000808308C0E0912502F0912602E053F94FF3
:103650001082F2CF0F900F90CF91DF911F910F91B9
:10366000FF90EF90DF90CF90BF90AF9008950F93B1
:10367000CF93DF93EC018CA59DA5AEA5BFA58531A9
:103680009105A105B10509F47BC086319105A1051D
:10369000B1056CF4B7FD53C082309105A105B105A9
:1036A000B4F00497A105B10509F049C018C08B35E5
:1036B0009105A105B105A1F18C359105A105B105D3
:1036C000B1F18A359105A105B105C9F522C08091F6
:1036D0005E0290915F02BE010E946D2B55C00E9458
:1036E00045082AAD3BAD4CAD5DAD621B730B840B41
:1036F000950BC05BDF4F288139814A815B81C055C2
:10370000D0402617370748075907D0F182E090E0EC
:1037100039C080915E0290915F020E94FC1F30C010
:1037200080915E0290915F020E94062029C08091E4
:103730005E0290915F02BE010E94BD1F21C00E94E7
:10374000DC0C2A813B814C815D816CE771E000E0FB
:103750000E94850C0E94DC0C6EE371E00E9422093D
:103760000E94DC0C4CA55DA56EA57FA52AE030E08B
:103770000E94CC140E94DC0C6EE271E00E942209CF
:1037800083E090E099838883DF91CF910F91089532
:10379000FC0181A592A5892B39F080915E02909160
:1037A0005F02BF010E940B2208958F929F92AF92F9
:1037B000BF92CF92DF92EF92FF920F931F93DF930E
:1037C000CF93CDB7DEB7A0970FB6F894DEBF0FBE8C
:1037D000CDBF8C01E0905C02F0905D02C70160E516
:1037E0000E9422020C5A1F4FF801419151918F0102
:1037F00060E070E0C7012AE030E00E94CC14C7010D
:1038000065E40E942202F801408151810655104072
:1038100060E070E0C7012AE030E00E94CC14C701EC
:1038200060E20E9422026801AA24BB244E0108948F
:10383000811C911CC701F60160850E942202C7010C
:103840006AE30E942202F601868197818130910508
:1038500051F082309105B1F0892BF1F4C70165E593
:103860000E94220219C0F6016185728583859485C4
:103870004AE025E084010E944953C701B4010E9437
:103880002A140AC0F6014185528563857485C701F3
:103890002AE030E00E94CC14C70160E20E942202BC
:1038A0000894A11CB11C87E090E0C80ED91E99E0D5
:1038B000A916B10409F0BECFC7010E945714A09603
:1038C0000FB6F894DEBF0FBECDBFCF91DF911F9131
:1038D0000F91FF90EF90DF90CF90BF90AF909F90AF
:1038E0008F900895FC01DB0180819181019769F43B
:1038F0008D919C911197019741F480915E02909176
:103900005F02BF01AD010E94C22C0895DC01FC01E1
:10391000EC5AFF4F808191810196918380838D9134
:103920009C9111970197B9F099968D919C919A97D6
:10393000892B31F481E090E011969C938E93089549
:1039400080915E0290915F02BD0149E352E029E25D
:1039500032E00E94353308950F931F93CF93DF9386
:10396000EC018C01005B1F4FF80180819181A281E5
:10397000B3810097A105B10539F40E944508F8010B
:103980006083718382839383FE01EA5AFF4F8081B3
:1039900091810196918380838881998118161906F7
:1039A00024F0CE010E94861C0FC088819981039764
:1039B00059F089A59AA5892B21F4CE010E948F1573
:1039C00003C0CE010E94371BDF91CF911F910F9151
:1039D0000895CF93DF93DC01EC01C052DF4FE88103
:1039E000F981608388819981019699838883A452A3
:1039F000BF4F2D913C911197AC5DB040821793075A
:103A000049F4A652BF4F8D919C911197AA5DB04089
:103A1000998388832FB7F894FD01E852FF4F808186
:103A200091810196918380832FBF8091C100806234
:103A30008093C100DF91CF910895EF92FF921F9381
:103A4000CF93DF937C01EB0110E003C0C7010E941C
:103A50002202FE01E10FF11D60811F5F6623B1F7B5
:103A6000DF91CF911F91FF90EF9008950F931F93D7
:103A7000CF93DF938C01EB0103C0C8010E942202A7
:103A8000FE01219664916623C1F7DF91CF911F91CA
:103A90000F910895FC01A081B18112964C9112976B
:103AA00082818F7021E030E002C0220F331F8A959F
:103AB000E2F7922F662311F0822F01C080E09095EB
:103AC0009423892B12968C930895EF92FF920F9373
:103AD0001F937A018B01FC01218932894389548922
:103AE000C801B7010E94DB529B01AC0160E070E7A6
:103AF00088E399E30E942153CA01B9011F910F91F4
:103B0000FF90EF9008952F923F924F925F926F92A5
:103B10007F928F929F92AF92BF92CF92DF92EF925D
:103B2000FF920F931F931C012A013B01C901B801A9
:103B300020E030E040E752E40E94D2504B015C01AB
:103B4000C301B20120E030E040E752E40E94D250CD
:103B50002B013C01C501B401A50194010E94215231
:103B60004B015C01C301B201A30192010E942152E9
:103B70009B01AC01C501B4010E9469504B015C017D
:103B8000C701B601A70196010E946A509B01AC01D2
:103B9000C501B4010E94D250F101258536854785C3
:103BA00050890E9421520E943F519B01AC01CA01E1
:103BB0001F910F91FF90EF90DF90CF90BF90AF904B
:103BC0009F908F907F906F905F904F903F902F903D
:103BD00008956F927F928F929F92AF92BF92CF92F1
:103BE000DF92EF92FF920F931F93CF93DF93EC013D
:103BF00089859A85AB85BC850097A105B10509F437
:103C0000F1C08C81882309F445C0E8ADF9AD8FEF90
:103C1000EF3FF80709F48EC0808190E02AAD2F7045
:103C200002C0959587952A95E2F781709070209152
:103C30007005281709F47EC0EFA0F8A409A51AA5FD
:103C4000C801B70120E030EA4CE056E40E94CE50B3
:103C500088230CF443C0E880F9800A811B816D81C0
:103C60007E818F81988529853A854B855C85621B8D
:103C7000730B840B950B0E946B512D853E854F85F0
:103C800058890E94D2509B01AC01C801B7010E9423
:103C90006A5047C0EDA9FEA98FEFEF3FF80709F47E
:103CA00049C0808190E02FA92F7002C0959587951B
:103CB0002A95E2F781709070209170052817D1F154
:103CC000EBA0FCA00DA11EA1C801B70120E030EAC5
:103CD0004CE056E40E94CE5088232CF4E882F9820E
:103CE0000A831B8322C0E880F9800A811B816D81D1
:103CF0007E818F81988529853A854B855C85621BFD
:103D0000730B840B950B0E946B512D853E854F855F
:103D100058890E94D2509B01AC01C801B7010E9492
:103D20006950688379838A839B8319861A861B86E8
:103D30001C8658C08E01055D1F4FC80161E00E94BE
:103D40004A1DC80160E00E944A1D89859A85AB859D
:103D5000BC850197A109B10989879A87AB87BC8780
:103D600089859A85AB85BC850097A105B105D1F5FC
:103D7000688079808A809B802D813E814F81588523
:103D8000AD84BE84CF84D8888C81882359F40F2ECB
:103D9000F0E0EF2EF0E0FF2EF0E80F2FFFEB1F2FEB
:103DA000F02D0AC00F2EF0E0EF2EF0E0FF2EF0E82D
:103DB0000F2FFFE31F2FF02DCA01B9010E946B5195
:103DC000A60195010E94D250A80197010E9421529C
:103DD0009B01AC01C401B3010E946A5068837983DE
:103DE0008A839B83DF91CF911F910F91FF90EF907A
:103DF000DF90CF90BF90AF909F908F907F906F900B
:103E000008950F931F93CF93DF93EC018B016D8582
:103E10007E858F85988920E030E040E85FE30E944E
:103E2000CE50882329F4C8016CEB71E00E9422096E
:103E30008D8D9E8DAF8DB8A10197A105B10529F497
:103E4000C80161EB71E00E9422098BA59CA58F5FE0
:103E50009F4F29F4C80167EA71E00E9422098EA5EC
:103E60009FA58F5F9F4F29F4C8016EE971E00E9402
:103E700022098AA99BA98F5F9F4F29F4C80162E993
:103E800071E00E9422098DA99EA98F5F9F4F29F49E
:103E9000C80169E871E00E94220988AD99AD8F5F81
:103EA0009F4F29F4C80160E871E00E9422098CAD9F
:103EB000882329F0C8016AE771E00E94220989A9D4
:103EC000882329F0C80164E771E00E9422098091EB
:103ED0006F05882329F0C8016CE671E00E94220971
:103EE00080917005882329F0C80165E671E00E9481
:103EF0002209DF91CF911F910F910895FC018091CC
:103F000044028823B1F180819181A281B3818093A1
:103F10004C0290934D02A0934E02B0934F02FD9637
:103F200080819181A281B38180935002909351024C
:103F3000A0935202B0935302FD9680819181A28199
:103F4000B3818093540290935502A0935602B0938C
:103F50005702FD9680819181A281B381809358029E
:103F600090935902A0935A02B0935B028CE492E0C2
:103F7000089581E080934402C6CFCF93DF93FC0184
:103F8000EB018E819F81892B41F089859A85AB85D4
:103F9000BC8580839183A283B3838D859E85892B85
:103FA00051F088899989AA89BB89FD96808391837C
:103FB000A283B383FD978C899D89892B61F08F89BA
:103FC000988DA98DBA8DE658FF4F80839183A28387
:103FD000B383EA57F0408B8D9C8D892B51F08E8DE9
:103FE0009F8DA8A1B9A1E954FF4F80839183A2833B
:103FF000B383DF91CF910895FC0113AEE858FF4FD2
:104000001082FD961082FD9610820895FC0181E0D9
:1040100083AFE858FF4F8083FD968083FD968083B1
:104020000895AF92BF92CF92DF92EF92FF920F93DB
:104030001F93CF93DF935B016C01C0E0D0E0F501EB
:1040400086819781892B99F0E184F2840385148518
:10405000C801B70120E030E040E050E00E94CE50BF
:1040600018162CF4F601E58AF68A078B108F219634
:1040700087E090E0A80EB91EEDE3F0E0CE0EDF1E63
:10408000C430D105E1F6DF91CF911F910F91FF90E0
:10409000EF90DF90CF90BF90AF900895AF92BF9216
:1040A000CF92DF92EF92FF920F931F93CF93DF9304
:1040B0005B016C01C0E0D0E0F50186819781892B1E
:1040C00099F0E184F28403851485C801B70120E0EA
:1040D00030E040E050E00E94CE5018162CF4F6017B
:1040E000E18EF28E038F148F219687E090E0A80E68
:1040F000B91EEDE3F0E0CE0EDF1EC430D105E1F6CF
:10410000DF91CF911F910F91FF90EF90DF90CF90B3
:10411000BF90AF9008950895AF92BF92CF92DF9273
:10412000EF92FF920F931F93CF93DF935B01EC010C
:10413000CC24DD24F50186819781892BD1F0E1849F
:10414000F28403851485C801B70120E030E040E027
:1041500050E00E94CE50181664F4ED86FE860F875C
:10416000188BC801B7010E943F51698B7A8B8B8BEA
:104170009C8B0894C11CD11C87E090E0A80EB91E4E
:10418000ED9694E0C916D104A9F6DF91CF911F9165
:104190000F91FF90EF90DF90CF90BF90AF90089578
:1041A000AF92BF92CF92DF92EF92FF920F931F9345
:1041B000CF93DF935B016C01C0E0D0E0F501868115
:1041C0009781892BB9F0E184F28403851485C801B5
:1041D000B70120E030E040E050E00E94CE501816D9
:1041E0004CF4C801B7010E943F51F601658F768FEC
:1041F000878F90A3219687E090E0A80EB91EEDE38B
:10420000F0E0CE0EDF1EC430D105C1F6DF91CF91B4
:104210001F910F91FF90EF90DF90CF90BF90AF90E4
:104220000895CF93DF93FB01EC01E19620E030E0AD
:1042300086819781892B59F040E081859285A385FD
:10424000B4850097A105B10509F041E048832F5FCF
:104250003F4F3796ED962430310551F7DF91CF91DE
:104260000895CF93DF93FC01EB018E819F81892B11
:1042700041F089859A85AB85BC8583A394A3A5A3CA
:10428000B6A38D859E85892B61F0E05AFF4F888902
:104290009989AA89BB8980839183A283B383E056DD
:1042A000F0408C899D89892B61F0E356FF4F8F89FF
:1042B000988DA98DBA8D80839183A283B383ED59A4
:1042C000F0408B8D9C8D892B51F0E652FF4F8E8DE7
:1042D0009F8DA8A1B9A180839183A283B383DF912D
:1042E000CF910895CF93DF93FC01EB018E819F81E5
:1042F000892B41F089859A85AB85BC8587A390A7DA
:10430000A1A7B2A78D859E85892B61F0EC59FF4F3F
:1043100088899989AA89BB8980839183A283B38381
:10432000E456F0408C899D89892B61F0EF55FF4F51
:104330008F89988DA98DBA8D80839183A283B38351
:10434000E15AF0408B8D9C8D892B51F0E252FF4F4A
:104350008E8D9F8DA8A1B9A180839183A283B38301
:10436000DF91CF910895CF93DF93FB01EC01EC96A1
:1043700020E030E086819781892B59F040E08185EB
:104380009285A385B4850097A105B10509F041E0A8
:1043900048832F5F3F4F3796ED962430310551F714
:1043A000DF91CF91089540936F0560937005089554
:1043B000CF92DF92EF92FF920F931F93CF93DF93F1
:1043C0007C018C010E5C1F4FC0E0D0E08DE3C82E55
:1043D000D12CF801808191818F5F9F4F69F0CC9D36
:1043E000C001CD9D900DDC9D900D1124C2968E0DC7
:1043F0009F1D61E00E944A1D2196035C1F4FC4303F
:10440000D10539F7DF91CF911F910F91FF90EF9078
:10441000DF90CF9008958F929F92AF92BF92CF92EC
:10442000DF92EF92FF920F931F93CF93DF935C0184
:104430006B01C0E4D2E022E3E22EF12CEA0CFB1C7B
:1044400000E010E09DE3892E912CF6018681978192
:10445000892B19F488818F5F888388818330B0F03D
:10446000F7018285882391F0808191818F5F9F4F32
:1044700069F0089DC001099D900D189D900D1124B3
:10448000C2968A0D9B1D61E00E944A1D0F5F1F4F5F
:1044900087E090E0C80ED91E2196EDE3F0E0EE0E25
:1044A000FF1E0430110589F6DF91CF911F910F9106
:1044B000FF90EF90DF90CF90BF90AF909F908F9044
:1044C00008952F923F924F925F926F927F928F92B8
:1044D0009F92AF92BF92CF92DF92EF92FF920F9393
:1044E0001F93CF93DF93E5ECCE2ED12CC60ED71EB3
:1044F000EB013C0152E7852E912C860E971EAA24D3
:10450000BB244EE5442E512C460E571E36E7232E73
:10451000312C260E371EF601E080F18002811381D6
:104520008E819F81892B19F4C801B70111C0F30155
:1045300083AD882349F0C801B70129853A854B85A9
:104540005C850E946A5004C069857A858B859C854C
:10455000A80197010E9469507B018C0120E030E0A6
:1045600040E050E00E94CE5088233CF417FB1095A9
:1045700017F91095F401108203C081E0F4018083E3
:10458000C801B701F30125853685478550890E940A
:1045900021520E943F519B01AC018DE99FEFC80E53
:1045A000D91EF601208331834283538383E690E052
:1045B000C80ED91EF20180819181A281B381821738
:1045C0009307A407B50738F42083318342835383CC
:1045D000F101B182A0820894A11CB11C84E090E09A
:1045E000C80ED91E2796EDE3F0E06E0E7F1E0894EC
:1045F000811C911CF4E0AF16B10409F08CCFDF915F
:10460000CF911F910F91FF90EF90DF90CF90BF90CF
:10461000AF909F908F907F906F905F904F903F9062
:104620002F9008952F923F924F925F926F927F92B8
:104630008F929F92AF92BF92CF92DF92EF92FF92B2
:104640000F931F93DF93CF9300D000D0CDB7DEB789
:1046500002E6E02EF12CE60EF71E9C838B831FE70B
:10466000212EB6E93B2EA8E14A2EFBE45F2E8B01FA
:10467000085A1F4FCB018E589F4F9A838983F701A9
:1046800080819181A281B3810097A105B10519F1C3
:10469000F801A080B180C280D380EB81FC81958835
:1046A00086887788608C692D782D872D962D9501C9
:1046B000A6010E94CE50882324F4A92CB82CC72C24
:1046C000D62CB501C6019101A2010E94CE508823CB
:1046D00014F41501260184E090E0E80EF91EEB8148
:1046E000FC81FD96FC83EB8389819A81E816F906AB
:1046F00031F6B101C2010F900F900F900F90CF9142
:10470000DF911F910F91FF90EF90DF90CF90BF90BE
:10471000AF909F908F907F906F905F904F903F9061
:104720002F9008952F923F924F925F926F927F92B7
:104730008F929F92AF92BF92CF92DF92EF92FF92B1
:104740000F931F93DF93CF9300D000D0CDB7DEB788
:1047500042E6E42EF12CE60EF71E9C838B833FE7A6
:10476000232E26E9322E98E1492E8BE4582E8B0118
:10477000085A1F4FCB018E589F4F9A838983F701A8
:1047800080819181A281B3810097A105B10519F1C2
:10479000F801A080B180C280D380EB81FC81918C34
:1047A000828C738C648C692D782D872D962D9501C4
:1047B000A6010E94CE50882324F4A92CB82CC72C23
:1047C000D62CB501C6019101A2010E94CE508823CA
:1047D00014F41501260184E090E0E80EF91EEB8147
:1047E000FC81FD96FC83EB8389819A81E816F906AA
:1047F00031F6B101C2010F900F900F900F90CF9141
:10480000DF911F910F91FF90EF90DF90CF90BF90BD
:10481000AF909F908F907F906F905F904F903F9060
:104820002F9008958F929F92AF92BF92CF92DF9276
:10483000EF92FF920F931F93CF93DF93F2E6CF2E69
:10484000D12CC60ED71EEC01EE24FF248701E8E52B
:104850008E2E912C860E971E52E7A52EB12CA60EF9
:10486000B71EF60180819181A281B3810097A105D5
:10487000B105E1F0F40160817181828193812D8520
:104880003E854F8558890E9421529B01AC0160EC06
:1048900071EE84E69EE40E94D2500E943F51E616DB
:1048A000F7060807190710F47B018C0184E090E0FB
:1048B000C80ED91EED96CA14DB0499F6B701C801DB
:1048C000DF91CF911F910F91FF90EF90DF90CF90EC
:1048D000BF90AF909F908F9008958F929F92AF92CC
:1048E000BF92CF92DF92EF92FF920F931F93CF93DD
:1048F000DF9312E6C12ED12CC60ED71EEC01EE249A
:10490000FF248701B8E58B2E912C860E971EA2E717
:10491000AA2EB12CA60EB71EF60180819181A2812C
:10492000B3810097A105B105E1F0F40160817181C7
:10493000828193812D853E854F8558890E94215221
:104940009B01AC0160EC71EE84E69EE40E94D250C3
:104950000E943F51E616F7060807190710F47B017D
:104960008C0184E090E0C80ED91EED96CA14DB04D9
:1049700099F6B701C801DF91CF911F910F91FF9078
:10498000EF90DF90CF90BF90AF909F908F90089561
:10499000AF92BF92CF92DF92EF92FF920F931F934D
:1049A000CF93DF936B0122E630E0C20ED31EEC0101
:1049B000EE24FF248701AA24BB24F6018081918183
:1049C000A281B3810097A105B10519F16D8D7E8D8E
:1049D0008F8D98A10E946B512D853E854F855889FA
:1049E0000E94215220E034E244E75BE40E94D2506E
:1049F0009B01AC0160E070E080E89FE30E94D25030
:104A00000E943A51E616F7060807190710F47B01D1
:104A10008C010894A11CB11C24E030E0C20ED31E0E
:104A2000ED9634E0A316B10441F6B701C801DF9159
:104A3000CF911F910F91FF90EF90DF90CF90BF909B
:104A4000AF9008952F923F924F925F926F927F9214
:104A50008F929F92AF92BF92CF92DF92EF92FF928E
:104A60000F931F93DF93CF9300D000D0CDB7DEB765
:104A700022E7422E512C460E571E3C0105EB202EFC
:104A8000312C260E371E88249924D10150968D9101
:104A90009D910D90BC91A02D89839A83AB83BC839B
:104AA000EDEAFFEF2E0E3F1ED1012D913D914D916C
:104AB0005C91E3E5F0E02E0E3F1ED3011D96AD9014
:104AC000BD90CD90DC905097F2018081882359F4FD
:104AD0000F2EF0E0EF2EF0E0FF2EF0E80F2FFFEBAF
:104AE0001F2FF02D0AC00F2EF0E0EF2EF0E0FF2E6A
:104AF000F0E80F2FFFE31F2FF02DCA01B9010E942C
:104B00006B51A60195010E94D250A80197010E9405
:104B100021529B01AC0169817A818B819C810E9429
:104B20006A50D1016D937D938D939D931D010894DF
:104B3000811C911C0894411C511CEDE3F0E06E0EA9
:104B40007F1EF4E08F16910409F09FCF0F900F9015
:104B50000F900F90CF91DF911F910F91FF90EF90E9
:104B6000DF90CF90BF90AF909F908F907F906F908D
:104B70005F904F903F902F900895AC0120E030E07F
:104B80006DE370E0269FF001279FF00D369FF00D3A
:104B90001124E40FF51F81859285A385B4850097C4
:104BA000A105B10511F081E008952F5F3F4F24303A
:104BB000310541F780E0089583E08093800089E12A
:104BC000809381000895E4E6F0E08081877F808310
:104BD000EFE6F0E08081826080830895EFE6F0E008
:104BE00080818D7F8083E4E6F0E08081886080832F
:104BF0000895CF93DF93EC0141368AEE580780E0A9
:104C0000680780E0780798F080E69AEE9093890034
:104C100080938800CB01BA0120E63AEE40E050E0F4
:104C20000E942153CA5EDE4F3983288304C050930B
:104C3000890040938800DF91CF9108956F927F9211
:104C40008F929F92AF92BF92CF92DF92EF92FF929C
:104C50000F931F93CF93DF936C0128E131E0C20ED5
:104C6000D31ED6018C91E8EEFEEFCE0EDF1E882318
:104C700009F063C2E601CA5EDE4F88819981181689
:104C800019066CF4C60140E65AEE60E070E00E943E
:104C9000F925888199810197998388834EC296016D
:104CA0002C503F4FD901ED91FC91E25AFF4F80818A
:104CB0009181A281B3810097A105B10571F4809122
:104CC0006F008D7F80936F00809164008860809377
:104CD0006400D901ED91FC91FFC1D901ED91FC91E6
:104CE000E25AFF4F80819181A281B3810197A1098E
:104CF000B10980839183A283B383C0E0D0E07901BE
:104D0000EDE3AE2EB12CD701ED91FC91EA58FF4FA7
:104D100080819181C817D90761F4CA9DC001CB9DDC
:104D2000900DDA9D900D11248C0D9D1D0E94E91DA2
:104D300051C0FE01EE0FFF1FEE0FFF1FEC0DFD1D1A
:104D40008F010A5F1E4FD8016D907D908D909C90D1
:104D5000EA50FF4F2081318142815381621A730AE8
:104D6000840A950AF801608271828282938280812E
:104D70009181A281B381B7FF2DC0CA9DC001CB9D97
:104D8000900DDA9D900D11248C0D9D1D0E94E91D42
:104D9000D8012D913D914D915C91D701ED91FC9100
:104DA000EA58FF4F0190F081E02DEE0FFF1FEE0F4C
:104DB000FF1FEC0DFD1DEA50FF4F80819181A28104
:104DC000B381280F391F4A1F5B1FF80120833183ED
:104DD000428353832196C430D10509F094CFE60174
:104DE000CC50DF4F288139812F543F4FD9014D914D
:104DF0005D916D917C91E881F981E357FF4F80814E
:104E00009181A281B381840F951FA61FB71FF9015D
:104E100080839183A283B383E881F981EF54FF4FAC
:104E200080819181A281B38181589E43A040B0408E
:104E300008F41CC1E881F981EF54FF4F8081918112
:104E4000A281B38180589E43A040B040808391836B
:104E5000A283B383E881F981E25AFF4F2081318137
:104E600042815381E881F981EF55FF4F8081918123
:104E7000A281B381281739074A075B0708F431C1BB
:104E8000E881F981E356FF4F2081318142815381CE
:104E9000E881F981EB56FF4F80819181A281B38136
:104EA000281739074A075B0708F01BC12881398199
:104EB00023563F4FD9014D915D916D917C91E881D1
:104EC000F981E355FF4F80819181A281B381840FE5
:104ED000951FA61FB71FF90180839183A283B38317
:104EE000E881F981E356FF4F20813181428153816E
:104EF000E881F981EB56FF4F80819181A281B381D6
:104F000082179307A407B50788F4E881F981A8817F
:104F1000B981AB56BF4F8D919D910D90BC91A02D45
:104F2000E356FF4F80839183A283B38386010C50A5
:104F30001F4FD801ED90FC901197ED91FC911197C6
:104F4000EA58FF4F2081318165C0E881F981E3563D
:104F5000FF4F2081318142815381E881F981E756F9
:104F6000FF4F80819181A281B38182179307A407AB
:104F7000B50708F07BC06881798163567F4FFB01DC
:104F80002081318142815381E881F981E355FF4FCE
:104F900080819181A281B381281B390B4A0B5B0B65
:104FA000DB012D933D934D935C931397E881F98139
:104FB000E356FF4F2081318142815381E881F9819D
:104FC000E756FF4F80819181A281B381281739076D
:104FD0004A075B0788F4E881F981A881B981A7565F
:104FE000BF4F8D919D910D90BC91A02DE356FF4F29
:104FF00080839183A283B38386010C501F4FF801F5
:10500000E080F1800190F081E02DEA58FF4F20818F
:105010003181D801ED91FC91E356FF4F40815181E0
:10502000628173818DE390E0FC012E9FC0012F9F70
:10503000900D3E9F900D11248C0D9D1D0E94651DAD
:105040002DE830E0E20EF31ED7016D937D938D9332
:105050009C931397D801ED91FC91E357FF4F40814A
:10506000518162817381C6010E94F92520E030E000
:105070004DE350E0249FF001259FF00D349FF00D8B
:105080001124EC0DFD1D81859285A385B4850097C3
:10509000A105B10531F42F5F3F4F2430310551F7A1
:1050A0003AC0E601CC50DF4FE881F981E25AFF4F68
:1050B00080819181A281B3810097A105B105E9F5B5
:1050C00080916F008D7F80936F0080916400886075
:1050D00080936400E881F98183E090E0918380838C
:1050E0002CC0E601CC50DF4FE881F981E25AFF4F36
:1050F0002081318142815381E881F981EB55FF4F55
:1051000080819181A281B38182179307A407B5079B
:1051100008F4ACCF1ACFE4EFF0E0CE0EDF1ED601DC
:10512000ED91FC912CE03FEFC20ED31EE25AFF4FEF
:105130001082118212821382B4CFDF91CF911F911E
:105140000F91FF90EF90DF90CF90BF90AF909F9026
:105150008F907F906F9008951F920F920FB60F92CD
:1051600011242F933F934F935F936F937F938F936C
:105170009F93AF93BF93EF93FF9380915E029091C3
:105180005F020E941E26FF91EF91BF91AF919F9108
:105190008F917F916F915F914F913F912F910F90E0
:1051A0000FBE0F901F90189580917105882369F4A8
:1051B00082E69CE040E051EE60E070E020E030E00C
:1051C0000E941A0681E08093710582E69CE00895B2
:1051D0006F927F928F929F92AF92BF92CF92DF9207
:1051E000EF92FF920F931F93DF93CF93CDB7DEB76C
:1051F000A0970FB6F894DEBF0FBECDBF5C01CC24E4
:10520000DD24FDE36F2E712C4E010894811C911C4E
:105210000E94DC0C23E0C216D10411F461E402C048
:105220006C2D685A0E9422020E94DC0C6AE30E94E4
:1052300022020E94DC0C7C01C69CF001C79CF00D90
:10524000D69CF00D1124EA0DFB1D608171818281D5
:10525000938140E024E084010E944953C701B401D6
:105260000E942A140E94DC0C60E20E942202089430
:10527000C11CD11C84E0C816D10451F6A0960FB60B
:10528000F894DEBF0FBECDBFCF91DF911F910F917C
:10529000FF90EF90DF90CF90BF90AF909F908F9056
:1052A0007F906F9008952F923F924F925F926F92EE
:1052B0007F928F929F92AF92BF92CF92DF92EF92A6
:1052C000FF920F931F931C0148015901CB01BA01B2
:1052D00020E030E040E752E40E94D2509B01AC0154
:1052E0000E9421522B013C01C501B401A50194018A
:1052F0000E946A504B015C01C701B6010E946B51CC
:10530000F10125853685478550890E9421529B01F0
:10531000AC01C501B4010E9421529B01AC01C30143
:10532000B2010E946A500E9488521F910F91FF9013
:10533000EF90DF90CF90BF90AF909F908F907F9035
:105340006F905F904F903F902F9008952F923F92D3
:105350004F925F926F927F928F929F92AF92BF9285
:10536000CF92DF92EF92FF920F931F93DF93CF9331
:10537000CDB7DEB72E970FB6F894DEBF0FBECDBF08
:105380009A8389837E876D87DB0199968D919C91A5
:105390009A97892B09F488C19C968D919D910D90C7
:1053A000BC91A02D0197A105B10509F07DC16CC18B
:1053B000ED85FE85EA58FF4FFC83EB838081918168
:1053C0002DE330E0829F5001839FB00C929FB00C80
:1053D000112449815A81A40EB51E8D859E8587565C
:1053E0009F4F9E838D83DC016D917D918D919C916A
:1053F0000E946B513B014C01ED85FE85EF56FF4F3E
:10540000F887EF8360817181828193810E946B5163
:105410008B019C014D855E8547555F4F5A874987B3
:10542000DA01CD90DD90ED90FC90C501B401A301AF
:105430000E94831D1B012C01EB81FC8180819181E5
:105440002DE330E0829F5001839FB00C929FB00CFF
:10545000112449815A81A40EB51EAF81B8856D9182
:105460007D918D919C910E946B513B014C01ED858A
:10547000FE85EB56FF4F60817181828193810E948E
:105480006B518B019C01E985FA85C080D180E28057
:10549000F380C501B401A3010E94831DAB85BC85C7
:1054A000AD90BD90CD90DC902A143B044C045D047B
:1054B000E0F1ED85FE85EB55FF4FA082B182C282FF
:1054C000D382D292C292B292A292E15AF040FE8767
:1054D000ED87AB81BC818D919C91EDE3F0E08E9FD7
:1054E00070018F9FF00C9E9FF00C112429813A814E
:1054F000E20EF31EAF81B8856D917D918D919C91E7
:105500000E946B51AB01BC01E985FA8500811181D4
:10551000228133813058C701760165010E945329E9
:105520000E943F51AD81BE8123C0A6019501221981
:105530003309440955095695479537952795AD8503
:10554000BE85AB55BF4FED85FE85EF55FF4F261746
:1055500037074807590790F0A61AB70AC80AD90AA8
:10556000A082B182C282D382620D731D841D951DFB
:105570006D937D938D939C93139711C0A21AB30AD8
:10558000C40AD50AA082B182C282D382220D331D01
:10559000441D551D2D933D934D935C931397ED85BD
:1055A000FE85EA58FF4F20813181E657F040FE87A3
:1055B000ED878DE390E0289FF001299FF00D389F43
:1055C000F00D112429813A81E20FF31FE588F68856
:1055D0000789108DA9E9CA2ED12C4D855E85C40E90
:1055E000D51ED6016D917D918D919C910E946B513C
:1055F000A80197010E94CE5088234CF4C801B7013E
:105600000E943F51F60160837183828393832D85CD
:105610003E852A583F4FD9012D913C911197A657AD
:10562000B040BE87AD878DE390E0FC012E9FC001A6
:105630002F9F900D3E9F900D11248D010F561F4FEF
:10564000D8014D915D916D917C91E981FA818E0F28
:105650009F1F0E94651D2D853E8523573F4FD90111
:105660006D937D938D939C9313975096BE87AD87D2
:10567000F80180819181A281B381ED85FE858083CF
:105680009183A283B38310C02D853E85225A3F4F5C
:105690003C872B87F90180819181A281B38100979A
:1056A000A105B10509F084CE2E960FB6F894DEBFA1
:1056B0000FBECDBFCF91DF911F910F91FF90EF9063
:1056C000DF90CF90BF90AF909F908F907F906F9022
:1056D0005F904F903F902F9008952F923F924F925E
:1056E0005F926F927F928F929F92AF92BF92CF9272
:1056F000DF92EF92FF920F931F93DF93CF93CDB77B
:10570000DEB727970FB6F894DEBF0FBECDBF5C01A2
:105710008B01DB018D919C911197181619060CF0E5
:1057200018C18D919C9102970CF013C1F50183A5CE
:1057300094A58F5F9F4F69F40E94DC0C66E471E0D2
:105740000E94220983E090E0D80111969C938E93E9
:1057500000C1FB01E25AFF4F80819181A281B38198
:105760000097A105B10531F483E090E0FB0191833E
:105770008083EFC09B012E583F4F3A83298342E636
:10578000242E312C260E371E31E3432E512C4A0C89
:105790005B1C88249924FD83EC83A981BA81BC9188
:1057A000BB83F101C080D180E280F3802DE330E043
:1057B000829E3001839E700C929E700C1124C50154
:1057C000860D971D9F838E83DC012D913D914D9118
:1057D0005C91ED59FF4F60817181828193810E94BC
:1057E000CE50882309F03FC02B81EE81FF812483B6
:1057F000C582D682E782F086C186D286E386F486A9
:105800008481F301BE96882341F0D2016C91B1E00E
:105810006B27C5018E0F9F1F05C0C5018E0F9F1FEF
:10582000F20160810E944A1DC114D104E104F10417
:1058300009F45BC0D20111968D919C9112978F5FF4
:105840009F4F09F452C0EDE3F0E08E9EC0018F9EA1
:10585000900D9E9E900D1124C2968A0D9B1D60E0B6
:105860000E944A1D42C080912502909126020E940A
:10587000780C6FC008581F4FD8018C910857104002
:10588000882369F4E0912502F0912602E053F94F54
:105890008081882321F0C501B8010E94A62982E0F9
:1058A00090E0F8019183808324EF30E0A20EB31ED4
:1058B000D50111961C930E93ECE0FFEFAE0EBF1EC8
:1058C00080916400877F8093640080916F00826084
:1058D00080936F0003571F4FD8014D915D916D91DB
:1058E0007C91C5010E94F92534C0F101819191910B
:1058F000A191B1911F01F401EE0FFF1FEE0FFF1FE9
:10590000EA0DFB1DEA50FF4F80839183A283B3838E
:10591000AC81BD812D913D914D915C9156954795FE
:10592000379527957096208331834283538308945B
:10593000811C911CE981FA813196FA83E9832DE378
:1059400030E0420E531E34E08316910409F025CF57
:1059500091CF27960FB6F894DEBF0FBECDBFCF9183
:10596000DF911F910F91FF90EF90DF90CF90BF904C
:10597000AF909F908F907F906F905F904F903F90EF
:105980002F9008952F923F924F925F926F927F9245
:105990008F929F92AF92BF92CF92DF92EF92FF923F
:1059A0000F931F93DF93CF93CDB7DEB7CD54D04085
:1059B0000FB6F894DEBF0FBECDBF22969FAF8EAF5D
:1059C00022972B011A01FB01E858FF4F80818823A1
:1059D00009F031C6DB0199968D919C919A97892B9C
:1059E00009F429C6DA0199968D919C919A97892B91
:1059F00009F421C6FDC5D1019C962D913D914D9193
:105A00005C919F97213031054105510509F013C67E
:105A1000FCC57EE5872E912C280C391CD1012D91D7
:105A20003D914D915C9162EA862E6FEF962E280C87
:105A3000391C211531054105510509F4FCC581E0EA
:105A40008083F201E85AFF4FD201A758BF4F60810F
:105A50007181828193812D913D914D915C910E9444
:105A6000D2506DAB7EAB8FAB98AFF101E85AFF4FD0
:105A7000D101A758BF4F60817181828193812D919F
:105A80003D914D915C910E94D25069AB7AAB8BAB4A
:105A90009CAB82010E591F4F1CA30BA322962EAD67
:105AA0003FAD22973AA329A342E6642E712C620CE3
:105AB000731C4901AA24BB24D4011D96ED90FD90CE
:105AC0000D911C91509791E0C92ED12CCC0EDD1E6A
:105AD000CA0CDB1CEBA1FCA16191719181919191A8
