:100000000C9412010C943C010C943C010C943C01A6
:100010000C943C010C943C010C943C010C943C016C
:100020000C943C010C943C010C943C010C943C015C
:100030000C943C010C943C010C943C010C943C014C
:100040000C943C010C94958E0C943C010C943C0156
:100050000C943C010C943C010C943C010C943146F2
:100060000C943C010C94BC430C9418440C943C013B
:100070000C943C010C943C010C943C010C943C010C
:100080000C943C010C943C010C943C010C943C01FC
:100090000C9467BE0C943C010C94CCBD0C943C01B8
:1000A0000C943C010C943C010C943C010C943C01DC
:1000B0000C943C010C943C010C943C010C943C01CC
:1000C0000C943C010C943C010C943C010C943C01BC
:1000D0000C943C010C943C010C943C010C943C01AC
:1000E0000C943C01494E46494E4954594E414ECD1F
:1000F000CCCC3D0AD7233C17B7D13877CC2B3295DF
:1001000095E6241FB14F0A000020410000C84200BC
:10011000401C4620BCBE4CCA1B0E5AAEC59D740086
:10012000407A10F35A00A0724E18090010A5D4E8C6
:100130000000E87648170000E40B54020000CA9A59
:100140003B000000E1F505000080969800000040AB
:10015000420F000000A086010000001027000000F0
:1001600000E803000000006400000000000A000036
:100170000000000100000000002C76D888DC674FEA
:100180000823DFC1DFAE59E1B1B796E5E3E453C61A
:100190003AE651997696E8E6C28426EB898C9B6212
:1001A000ED407C6FFCEFBC9C9F40F2BAA56FA5F4BC
:1001B00090055A2AF75C936B6CF9676DC11BFCE0E4
:1001C000E40D47FEF520E6B500D0ED902E03009437
:1001D0003577050080841E080000204E0A000000CC
:1001E000C80C333333330F986E12831141EF8D21D6
:1001F00014893BE65516CFFEE6DB18D1844B381B3D
:10020000F77C1D901DA4BBE424203284725E228101
:1002100000C9F124ECA1E53D2700C65419687CA271
:1002200085A356C111241FBECFEFD1E2DEBFCDBFE3
:1002300014E0A0E0B2E0ECE3F5E901E00BBF02C09E
:1002400007900D92A839B107D9F718E1A8E9B4E0F1
:1002500001C01D92A337B107E1F712E0C4E2D2E07A
:1002600004C02297FE010E946CC4CA31D107C9F7AD
:100270000E94213E0C949CCA0C940000EF92FF92C5
:100280000F931F93CF93DF938B01FB0120812223D8
:1002900009F43DC041E0DC01A65FBD4FBC016A5FCF
:1002A0007D4FEC01CE5FDD4F34E0E32E32E0F32EE4
:1002B000E80EF91E14C02FB7F89488819981019631
:1002C000998388832FBF8091C10080628093C10091
:1002D000F801E40FF11D20812223C9F04F5FED9159
:1002E000FC91119720838D919C9111970196119605
:1002F0009C938E93FB012081318182179307D9F65D
:10030000F7018081918111969C938E93D4CFDF91D8
:10031000CF911F910F91FF90EF900895FC01A08164
:10032000B18112964C91129782818F7021E030E05A
:1003300002C0220F331F8A95E2F7822F662339F01D
:10034000922F80958423982B12969C93089590E089
:1003500080958423982B12969C930895CF93DF93D6
:10036000DC01742F8FB7F894AD014B575D4FFA0144
:10037000208131818FBFAD57BD4F8D919C911197D9
:10038000A358B2402817390708F03BC0ED01C35706
:10039000DD4FE881F9816083888199810196998395
:1003A0008883A757BD4F2D913C911197A958B24012
:1003B0008217930799F12FB7F894FA018081918100
:1003C0000196918380832FBFED01C756DD4FE881F1
:1003D000F9817193F983E883AB56BD4F8D919C9160
:1003E0001197A559B240E817F90771F02FB7F894A3
:1003F000FD01EF56FD4F80819181019691838083AD
:100400002FBFDF91CF910895AD56BD4F8D919C9137
:100410001197A359B24099838883E8CFA957BD4F5C
:100420008D919C911197A758B24099838883C3CF2F
:100430000F931F93CF93DF938B01C091FF04D09153
:100440000005CE010E94D6A2BC01600F711F77FD8E
:1004500008C0CE010E94EEA2DF91CF911F910F91B3
:10046000089560E070E0CE010E94EEA2DF91CF918E
:100470001F910F9108950F931F93CF93DF938B01DB
:10048000C091FF04D0910005CE010E94D0A2BC0112
:10049000600F711F77FD08C0CE010E94E8A2DF91B6
:1004A000CF911F910F91089560E070E0CE010E94FE
:1004B000E8A2DF91CF911F910F910895AF92BF9263
:1004C000CF92DF92EF92FF920F931F93DF93CF9320
:1004D000CDB7DEB7C654D1400FB6F894DEBF0FBE1D
:1004E000CDBF7C01162F67330CF086C162330CF44C
:1004F0009CC1A090C504B090C604C5010E94A74845
:10050000882309F0DFC1AE01495B5F4F86E4DA0161
:100510001D928A95E9F71B821A8288E58983DA01A0
:10052000FE01319687E001900D928150E1F71A8625
:10053000198689E58887DA011796FE01389687E0E3
:1005400001900D928150E1F7198A188A8AE58F8708
:10055000DA011E96FE013F9687E001900D928150D0
:10056000E1F7188E1F8A85E48E8BDA015596FE011D
:10057000769687E001900D928150E1F71F8E1E8ED6
:100580008DE48D8FDA015C96FE017D9687E0019007
:100590000D928150E1F71EA21DA287E48CA3DA011F
:1005A0009396FE01B49687E001900D928150E1F799
:1005B0001DA61CA686E48BA7DA019A96FE01BB96BF
:1005C00087E001900D928150E1F71CAA1BAA80E5FB
:1005D0008AABDA01D196FE01F29687E001900D9286
:1005E0008150E1F71BAE1AAE83E589AFDA01D896E8
:1005F000FE01F99687E001900D928150E1F7FE012E
:10060000EF5BFF4F11821082FE01E05CFF4F84E53B
:100610008083DA01DF9687E001900D928150E1F747
:100620006DE8C62ED12CCC0EDD1E96012A5F3F4F01
:10063000BE0167527F4FD901FA0187E001900D9208
:100640008150E1F7295F3F4F495F5F4F261737071A
:1006500091F7F60137969E0123513F4FAE0143506B
:100660005F4F80E090E01182108212821382148228
:1006700015828430910544F4D9011D921D921D927A
:100680001C921397DA011C92019637962C5F3F4F0C
:100690004F5F5F4F8930910531F7F601118210826B
:1006A000FE01EF51FF4F11821082FE01ED51FF4F0D
:1006B00011821082DB011D921D921D921C921397D4
:1006C0008FEF9FEFAFEFBFEFF60182839383A48399
:1006D000B58380E090E0A0E0B0E0FE01EB51FF4F79
:1006E00080839183A283B383FE01E751FF4F108281
:1006F000118212821382FE01EF5FFE4F118210827F
:10070000FE01ED5FFE4F1082118212821382FE0104
:10071000E95FFE4F1082118212821382FE01E55FB3
:10072000FE4F1082118212821382FE01E15FFE4FA2
:100730001082118212821382FE01ED5EFE4F108242
:10074000118212821382FE01E95EFE4F1082118235
:1007500012821382FE01E55EFE4F10821182128228
:100760001382FE01E15EFE4F10821182128213821B
:10077000FE01ED5DFE4F108211821282138215334D
:1007800009F405C116330CF0CFC0133309F490C13E
:1007900014330CF063C1123349F581E090E0A0E01E
:1007A000B0E0F60184A795A7A6A7B7A782E090E0DE
:1007B00093A782A784EC92E0E80EF91E6091CD0425
:1007C0007091CE048091CF049091D004D7012D91E7
:1007D0003D914D915C910E94ECC1F601608B718B53
:1007E000828B938B81E090E097878687C501B60165
:1007F0000E94784781E007C0673309F441C06A333B
:100800000CF477CE80E0CA5BDE4F0FB6F894DEBF03
:100810000FBECDBFCF91DF911F910F91FF90EF9051
:10082000DF90CF90BF90AF9008956A3209F44CC02A
:10083000613309F45DC0633229F78C0108531D4F01
:10084000D801ED91FC9111973496ED93FC93349778
:10085000648175818681978120E030E040E050E03E
:100860000E9451C2882371F5EAECF2E0EE0EFF1E01
:10087000D7018D919C91F8019183808381E0C3CF52
:100880008C010C531D4F88EC92E0E80EF91ED70145
:10089000ED91FC91D8016D917D918D919C9120817C
:1008A0003181428153810E94ECC1F80160837183E0
:1008B0008283938320E030E040E050E00E9451C208
:1008C00088235CF081E09FCFFC01E453FD4F8081E1
:1008D00091E08927808381E096CF80E090E0A0E0DE
:1008E000B0E0F80180839183A283B38381E08BCF52
:1008F0008C010C531D4F88EC92E0E80EF91ED701D5
:10090000ED91FC91D8016D917D918D919C9120810B
:100910003181428153810E94EDC1F801608371836E
:100920008283938381E06FCF183309F46DC019334C
:1009300009F440C0163309F059CF81E090E0A0E0FF
:10094000B0E0F60184A795A7A6A7B7A782E090E03C
:1009500093A782A784EC92E0E80EF91E6091C90487
:100960007091CA048091CB049091CC04D7012D9151
:100970003D914D915C910E94EDC1F60161877287B6
:100980008387948781E090E0908787832FCF84E5E9
:1009900090E0A0E0B0E0F60185A396A3A7A3B0A7DE
:1009A00082E090E094A383A3C501B6010E9478473A
:1009B00081E029CF81E090E0A0E0B0E0F60184A7DB
:1009C00095A7A6A7B7A782E090E093A782A784EC9B
:1009D00092E0E80EF91E6091D1047091D2048091EA
:1009E000D3049091D404D7012D913D914D915C9108
:1009F0000E94ECC1F601678B708F818F928F81E02E
:100A000090E0968B858BF2CE81E090E0A0E0B0E0A4
:100A1000F60184A795A7A6A7B7A782E090E093A7C1
:100A200082A784EC92E0E80EF91E6091CD047091EB
:100A3000CE048091CF049091D004D7012D913D91A7
:100A40004D915C910E94EDC1F601608B718B828BA0
:100A5000938B81E090E097878687C8CE81E090E015
:100A6000A0E0B0E0F60184A795A7A6A7B7A782E00B
:100A700090E093A782A784EC92E0E80EF91E6091C3
:100A8000C9047091CA048091CB049091CC04D70121
:100A90002D913D914D915C910E94ECC1F6016187D1
:100AA00072878387948781E090E0908787839ECECA
:100AB00081E090E0A0E0B0E0F60184A795A7A6A7AA
:100AC000B7A782E090E093A782A784EC92E0E80EBB
:100AD000F91E6091D1047091D2048091D304909159
:100AE000D404D7012D913D914D915C910E94EDC1AF
:100AF000F601678B708F818F928F81E090E0968BEB
:100B0000858B74CECF92DF92EF92FF920F931F935B
:100B1000CF93DF93BC01DC019A968C91882359F026
:100B200090E0892FDF91CF911F910F91FF90EF906F
:100B3000DF90CF900895DB01ED91FC9111974281F8
:100B400012968C9112978F7021E030E0690102C0FB
:100B5000CC0CDD1C8A95E2F7C60180958423828344
:100B60001396ED91FC911497928115968C918F704C
:100B700002C0220F331F8A95E2F7822F80958923C6
:100B8000822B8283EB0144E050E001E0E02EF12C67
:100B9000AD89BE8911962C911197FA01EE0FFF1FB6
:100BA000E40FF51FE60FF71F83858F7001E010E05B
:100BB000670102C0CC0CDD1C8A95E2F7C601809566
:100BC000822311968C93AD89BE8912962C9112972F
:100BD00083858F70F70102C0EE0FFF1F8A95E2F741
:100BE000CF018095822312968C934F5F5F4F23969F
:100BF0004830510569F6DB011696ED91FC91179787
:100C0000328118968C9118978F70680102C0CC0CB5
:100C1000DD1C8A95E2F72C2D209523232C29228395
:100C200090962C9190972F705E96ED91FC915F9726
:100C300030811696ED91FC911797928118968C91C0
:100C40008F7002C0000F111F8A95E2F7802F8095E8
:100C50008923828380919804882341F090915904DC
:100C60001092980481E0809359045BCF832F90E029
:100C700002C0959587952A95E2F7817090708093D0
:100C8000590481E08093980491E04BCFCF93DF9398
:100C9000DC018FB7F894AD014B575D4FFA0120810D
:100CA00031818FBFAD57BD4F8D919C911197A35846
:100CB000B2402817390708F03CC0ED01C357DD4F9B
:100CC000E881F98181E08083888199810196998307
:100CD0008883A757BD4F2D913C911197A958B240D9
:100CE0008217930799F12FB7F894FA0180819181C7
:100CF0000196918380832FBFED01C756DD4FE881B8
:100D0000F9811192F983E883AB56BD4F8D919C9187
:100D10001197A559B240E817F90771F02FB7F89469
:100D2000FD01EF56FD4F8081918101969183808373
:100D30002FBFDF91CF910895AD56BD4F8D919C91FE
:100D40001197A359B24099838883E8CFA957BD4F23
:100D50008D919C911197A758B24099838883C3CFF6
:100D60002F923F924F925F926F927F928F929F92BB
:100D7000AF92BF92CF92DF92EF92FF920F931F93A9
:100D8000CF93DF93FB014081442309F474C0DB015E
:100D900025E8222E22E0322E280E391E03E8C02E2E
:100DA00002E0D02EC80ED91EBC0163577D4F19E852
:100DB000812E12E0912E880E991E8C0107561D4F30
:100DC00051E0F5E9AF2EF2E0BF2EA80EB91EE1E921
:100DD000EE2EE2E0FE2EE80EF91E33E9632E32E03D
:100DE000732E680E791E27E8422E22E0522E480EFE
:100DF000591E8FB7F894E101288139818FBFF60120
:100E0000808191812817390778F5EB0188819981D4
:100E1000FC01408388819981019699838883E4014C
:100E2000288139818217930709F43FC02FB7F894BE
:100E3000F101808191810196918380832FBFE80128
:100E4000E881F9815193F983E883E50188819981EB
:100E5000E817F90719F12FB7F894F701808191810C
:100E60000196918380832FBF11964C911197119613
:100E7000442309F0BECFDF91CF911F910F91FF90D6
:100E8000EF90DF90CF90BF90AF909F908F907F902A
:100E90006F905F904F903F902F900895F301808165
:100EA0009181E80199838883D6CFF2018081918175
:100EB000EB0199838883BACF2F923F924F925F9232
:100EC0006F927F928F929F92AF92BF92CF92DF925A
:100ED000EF92FF920F931F93DF93CF93CDB7DEB7BF
:100EE000CB56D0400FB6F894DEBF0FBECDBF8C01FD
:100EF000835F9C4F9FA38EA3DC018D919C914197B2
:100F000014F40C94EA1095E0692E712C600E711E99
:100F100081E0C82E82E0D82E48E4F801E657FD4F64
:100F2000AC96FFAFEEAFAC97B8E88B2EB2E09B2E3D
:100F3000800E911EB8016E567D4FAEE82A2EA2E0BB
:100F40003A2E200E311EFEE9EF2EF2E0FF2EE00ECB
:100F5000F11E51E0EAE94E2EE2E05E2E400E511EF7
:100F600036E9A32E32E0B32EA00EB11EC80188567A
:100F70009D4FA4969FAF8EAFA497D801A457BD4FA5
:100F8000A696BFAFAEAFA6978FB7F894AC96EEAD6E
:100F9000FFADAC97208131818FBFD4018D919C91A1
:100FA00028173907C0F5FB0180819181DC014C9342
:100FB00080819181019691838083F101208131812B
:100FC0008217930711F40C94B3122FB7F894AC96D0
:100FD000AEADBFADAC978D919C91119701961196D6
:100FE0009C938E932FBFD701ED91FC911197519354
:100FF000ED93FC93D2018D919C91E817F90711F4C0
:101000000C94A8122FB7F894F50180819181019674
:10101000918380832FBFD6014D916D01442309F048
:10102000B3CFE091FF04F0910005F9A7E8A7CF0145
:101030000E94E2A29C01F4E080309F0711F40C941E
:101040002A14CE0101969BA38AA381E2AAA1BBA187
:101050001D928A95E9F7B901882777FD8095982F29
:101060004AA15BA12AE030E00E942BC649814423BB
:1010700011F40C94601662E0C62ED12CCC0EDD1E4D
:1010800055E8E52E52E0F52EE60CF71C33E8A32ECA
:1010900032E0B32EA60CB71CF301E357FD4FAC961C
:1010A000FFAFEEAFAC9729E8222E22E0322E260CBD
:1010B000371CB30167567D4F51E095E9492E92E008
:1010C000592E460C571C81E9882E82E0982E860CFA
:1010D000971CC3018D569D4FA0969FAF8EAFA097D2
:1010E000D301A957BD4FA296BFAFAEAFA2978FB79E
:1010F000F894F701208131818FBFD5018D919C91AA
:101100002817390708F039C0AC96AEADBFADAC9723
:10111000ED91FC91119740838D919C9111970196CF
:101120008D939C93F101208131818217930711F4F3
:101130000C94DC102FB7F894D7018D919C911197E6
:10114000019611969C938E932FBFDB01ED91FC913C
:1011500011975193ED93FC93D2018D919C91E817D7
:10116000F90711F40C94D1102FB7F894F401808191
:1011700091810196918380832FBFD6014D916D019E
:10118000442309F0B4CFEEA1FFA180819181419762
:1011900014F00C94781146E050E0D8019C96ED9143
:1011A000FC919D9760818FB7F894BAE84B2EB2E01E
:1011B0005B2E400E511EF201208131818FBFC8018C
:1011C00088579D4F9DA38CA3DC018D919C9128177E
:1011D000390708F04AC0D801AE56BD4FED91FC91D9
:1011E0001197460F511D842F806880838D919C91AB
:1011F0001197019611969C938E9302571D4FF801FB
:10120000208131810E5812408217930711F40C94FB
:101210007A162FB7F894D2018D919C91119701966F
:1012200011969C938E932FBF980122563D4FD90162
:10123000ED91FC9111971192ED93FC9306561D4F81
:10124000D8018D919C910A591240E817F90711F4C1
:101250000C946E162FB7F894F801EA56FD4F808172
:1012600091810196918380832FBFA6E1CA2EA2E0CF
:10127000DA2E4FE2F301E357FD4FAC96FFAFEEAF2E
:10128000AC97C30187579D4F6A969FAF8EAF6A9701
:10129000B30167567D4F51E0F5E92F2EF2E03F2E66
:1012A000260C371CE1E98E2EE2E09E2E860C971C60
:1012B000D301AD56BD4F6C96BFAFAEAF6C97F30187
:1012C000E957FD4F6E96FFAFEEAF6E978FB7F8946C
:1012D000D7012D913C918FBFF50180819181281715
:1012E000390708F03CC0AC96AEADBFADAC97ED9100
:1012F000FC91119740838D919C91119701968D934C
:101300009C936A96EEADFFAD6A972081318182177A
:10131000930711F40C94AD112FB7F894D7018D9168
:101320009C911197019611969C938E932FBFDB0190
:10133000ED91FC9111975193ED93FC93D1018D9117
:101340009C91E817F90711F40C94A2112FB7F894A7
:10135000F401808191810196918380832FBFD60112
:101360004D916D01442309F0B1CF88A599A50E9444
:10137000D6A221E2EAA1FBA111922A95E9F7A0E009
:10138000B0E0BC01CD014AA15BA12AE030E00E949F
:101390002BC64981442309F480C032E0C32ED12CEE
:1013A000CC0EDD1EC30183579D4FAC969FAF8EAF11
:1013B000AC97D301A757BD4F6496BFAFAEAF64974C
:1013C000B30167567D4F51E025E9222E22E0322EEF
:1013D000260C371C91E9892E92E0992E860C971CD9
:1013E000F301ED56FD4F6696FFAFEEAF6697C30172
:1013F00089579D4F68969FAF8EAF68978FB7F894C7
:10140000D7012D913C918FBFF501808191812817E3
:10141000390708F03CC0AC96AEADBFADAC97ED91CE
:10142000FC91119740838D919C91119701968D931A
:101430009C936496EEADFFAD649720813181821755
:10144000930711F40C94DB112FB7F894D7018D9109
:101450009C911197019611969C938E932FBFDB015F
:10146000ED91FC9111975193ED93FC93D1018D91E6
:101470009C91E817F90711F40C94D0112FB7F89448
:10148000F401808191810196918380832FBFD601E1
:101490004D916D01442309F0B1CFD8019C96ED9197
:1014A000FC919D9741818FB7F894F20120813181A1
:1014B0008FBFACA1BDA18D919C912817390708F071
:1014C00047C0D801AE56BD4FED91FC9111974068D1
:1014D00040838D919C911197019611969C938E93C8
:1014E00002571D4FF801208131810E58124082179A
:1014F000930711F40C9455162FB7F894D2018D91DF
:101500009C911197019611969C938E932FBF9801F1
:1015100022563D4FD901ED91FC9111971192ED9317
:10152000FC9306561D4FD8018D919C910A5912408B
:10153000E817F90711F40C9449162FB7F894F8013D
:10154000EA56FD4F808191810196918380832FBF60
:10155000EEA1FFA18081918141970CF43AC789E106
:10156000C82E82E0D82E42E4B5E8EB2EB2E0FB2E86
:10157000E60CF71CA3E88A2EA2E09A2E860C971C94
:10158000C30183579D4FAC969FAF8EAFAC97D301ED
:10159000A757BD4F2496BFAFAEAF2497B301675690
:1015A0007D4F51E0F5E92F2EF2E03F2E260C371C3F
:1015B000E1E9AE2EE2E0BE2EA60CB71CF301ED561B
:1015C000FD4F2696FFAFEEAF2697C30189579D4F7B
:1015D00028969FAF8EAF28978FB7F894D7012D919B
:1015E0003C918FBFF401808191812817390708F061
:1015F0003BC0AC96AEADBFADAC97ED91FC911197F1
:1016000040838D919C91119701968D939C93249684
:10161000EEADFFAD2497208131818217930711F43D
:101620000C9483122FB7F894D7018D919C91119748
:10163000019611969C938E932FBFDB01ED91FC9147
:1016400011975193ED93FC93D1018D919C91E817E3
:10165000F90709F44EC72FB7F894F50180819181FD
:101660000196918380832FBFD6014D916D01442354
:1016700009F0B2CF88A599A50E94DCA29C01B4E034
:1016800080309B0711F40C94B413FE013196FBA338
:10169000EAA381E211928A95E9F7B901882777FDDB
:1016A0008095982F4AA15BA12AE030E00E942BC6CA
:1016B0004981442309F477C032E0C32ED12CCC0EEB
:1016C000DD1EC30183579D4FAC969FAF8EAFAC9785
:1016D000D301A757BD4FBDAFACAFB30167567D4F28
:1016E00051E025E9222E22E0322E260C371C91E90A
:1016F000A92E92E0B92EA60CB71CF301ED56FD4FB2
:10170000FFAFEEAFC30189579D4F22969FAF8EAFBB
:1017100022978FB7F894D7012D913C918FBFF40198
:101720008081918128173907C0F5AC96AEADBFAD69
:10173000AC97ED91FC91119740838D919C911197FD
:1017400001968D939C93ECADFDAD20813181821784
:10175000930709F418C62FB7F894D7018D919C917F
:101760001197019611969C938E932FBFDB01ED91FB
:10177000FC9111975193ED93FC93D1018D919C9124
:10178000E817F90709F4F7C52FB7F894F501808138
:1017900091810196918380832FBFD6014D916D0178
:1017A000442309F0B6CFEEA1FFA18081918141973A
:1017B00014F00C94B01346E050E0D8019C96ED91E3
:1017C000FC919D9761818FB7F894F201208131815E
:1017D0008FBFACA1BDA18D919C912817390708F04E
:1017E0004AC0D801AE56BD4FED91FC911197460FFE
:1017F000511D842F806880838D919C911197019653
:1018000011969C938E9302571D4FF80120813181D0
:101810000E5812408217930711F40C9491162FB7AB
:10182000F894D2018D919C911197019611969C93F9
:101830008E932FBF980122563D4FD901ED91FC9117
:1018400011971192ED93FC9306561D4FD8018D917F
:101850009C910A591240E817F90711F40C94851667
:101860002FB7F894F801EA56FD4F808191810196D7
:10187000918380832FBF86E1C82E82E0D82E4FE26D
:10188000F301E357FD4FAC96FFAFEEAFAC97C3014A
:1018900087579D4F9FAB8EABB30167567D4F51E08D
:1018A000B5E92B2EB2E03B2E260C371CA1E9AA2E5F
:1018B000A2E0BA2EA60CB71CD301AD56BD4FB9AFEE
:1018C000A8AFF301E957FD4FFBAFEAAF8FB7F8942C
:1018D000D7012D913C918FBFF40180819181281710
:1018E0003907C0F5AC96AEADBFADAC97ED91FC91AC
:1018F000119740838D919C91119701968D939C93A4
:10190000EEA9FFA9208131818217930709F4FCC455
:101910002FB7F894D7018D919C911197019611964C
:101920009C938E932FBFDB01ED91FC911197519306
:10193000ED93FC93D1018D919C91E817F90709F47F
:10194000DBC42FB7F894F5018081918101969183D2
:1019500080832FBFD6014D916D01442309F0B6CF8E
:1019600088A599A50E94D0A221E2EAA1FBA111922B
:101970002A95E9F7A0E0B0E0BC01CD014AA15BA146
:101980002AE030E00E942BC64981442309F475C047
:10199000F2E0CF2ED12CCC0EDD1EC30183579D4F1C
:1019A000AC969FAF8EAFAC97D301A757BD4FB9ABE5
:1019B000A8ABB30167567D4F51E0E5E92E2EE2E07A
:1019C0003E2E260C371C31E9A32E32E0B32EA60C96
:1019D000B71CF301ED56FD4FFBABEAABC3018957D2
:1019E0009D4F9DAB8CAB8FB7F894D7012D913C9157
:1019F0008FBFF4018081918128173907C0F5AC961B
:101A0000AEADBFADAC97ED91FC91119740838D9138
:101A10009C91119701968D939C93E8A9F9A9208137
:101A200031818217930709F482C42FB7F894D70144
:101A30008D919C911197019611969C938E932FBF37
:101A4000DB01ED91FC9111975193ED93FC93D10142
:101A50008D919C91E817F90709F461C42FB7F894A8
:101A6000F501808191810196918380832FBFD601FA
:101A70004D916D01442309F0B6CFEEA1FFA1808105
:101A8000918141970CF02FC54CE050E0D8019C9615
:101A9000ED91FC919D9760818FB7F894F2012081C0
:101AA00031818FBFACA1BDA18D919C9128173907C1
:101AB00008F04AC0D801AE56BD4FED91FC91119788
:101AC000460F511D842F806880838D919C911197C2
:101AD000019611969C938E9302571D4FF801208119
:101AE00031810E5812408217930711F40C943E1660
:101AF0002FB7F894D2018D919C9111970196119670
:101B00009C938E932FBF980122563D4FD901ED91A2
:101B1000FC9111971192ED93FC9306561D4FD8013D
:101B20008D919C910A591240E817F90711F40C9411
:101B300032162FB7F894F801EA56FD4F8081918153
:101B40000196918380832FBF8FB7F894F201208193
:101B500031818FBFACA1BDA18D919C912817390710
:101B600008F047C0D801AE56BD4FED91FC911197DA
:101B700010828D919C911197019611969C938E9352
:101B800002571D4FF801208131810E5812408217F3
:101B9000930711F40C9427162FB7F894D2018D9166
:101BA0009C911197019611969C938E932FBF98014B
:101BB00022563D4FD901ED91FC91119781E081931F
:101BC000ED93FC9306561D4FD8018D919C910A59B7
:101BD0001240E817F90711F40C941B162FB7F8946C
:101BE000F801EA56FD4F80819181019691838083AF
:101BF0002FBF8FB7F894F201208131818FBFACA144
:101C0000BDA18D919C912817390708F048C0D801D3
:101C1000AE56BD4FED91FC91119782E080838D917E
:101C20009C911197019611969C938E9302571D4F8C
:101C3000F801208131810E5812408217930711F468
:101C40000C9410162FB7F894D2018D919C91119796
:101C5000019611969C938E932FBF980122563D4F6B
:101C6000D901ED91FC91119781E08193ED93FC9363
:101C700006561D4FD8018D919C910A591240E817C4
:101C8000F90711F40C9404162FB7F894F801EA56EA
:101C9000FD4F808191810196918380832FBF8FB703
:101CA000F894F201208131818FBFACA1BDA18D914B
:101CB0009C912817390708F047C0D801AE56BD4F90
:101CC000ED91FC91119784E080838D919C91119707
:101CD000019611969C938E9302571D4FF801208117
:101CE00031810E5812408217930711F40C94F915A4
:101CF0002FB7F894D2018D919C911197019611966E
:101D00009C938E932FBF980122563D4FD901ED91A0
:101D1000FC91119781E08193ED93FC9306561D4F42
:101D2000D8018D919C910A591240E817F90709F4DE
:101D300055C72FB7F894F801EA56FD4F808191817D
:101D40000196918380832FBF8FB7F894F201208191
:101D500031818FBFACA1BDA18D919C91281739070E
:101D600008F046C0D801AE56BD4FED91FC911197D9
:101D700086E080838D919C911197019611969C939A
:101D80008E9302571D4FF801208131810E58124069
:101D90008217930709F418C72FB7F894D2018D91D1
:101DA0009C911197019611969C938E932FBF980149
:101DB00022563D4FD901ED91FC91119781E081931D
:101DC000ED93FC9306561D4FD8018D919C910A59B5
:101DD0001240E817F90709F4ECC62FB7F894F80198
:101DE000EA56FD4F808191810196918380832FBFB8
:101DF000EEA1FFA18081918141970CF077C34CE067
:101E000050E0D8019C96ED91FC919D9761818FB730
:101E1000F894F201208131818FBFACA1BDA18D91D9
:101E20009C912817390708F048C0D801AE56BD4F1D
:101E3000ED91FC911197460F511D842F806880838E
:101E40008D919C911197019611969C938E930257B8
:101E50001D4FF801208131810E58124082179307DF
:101E600009F49DC62FB7F894D2018D919C911197DA
:101E7000019611969C938E932FBF980122563D4F49
:101E8000D901ED91FC9111971192ED93FC930656B7
:101E90001D4FD8018D919C910A591240E817F907FE
:101EA00009F472C62FB7F894F801EA56FD4F808105
:101EB00091810196918380832FBF8FB7F894F201AF
:101EC000208131818FBFACA1BDA18D919C9128173C
:101ED000390708F046C0D801AE56BD4FED91FC91D0
:101EE000119781E080838D919C91119701961196B5
:101EF0009C938E9302571D4FF801208131810E581B
:101F000012408217930709F435C62FB7F894D2010F
:101F10008D919C911197019611969C938E932FBF52
:101F2000980122563D4FD901ED91FC91119781E026
:101F30008193ED93FC9306561D4FD8018D919C9192
:101F40000A591240E817F90709F409C62FB7F8949F
:101F5000F801EA56FD4F808191810196918380833B
:101F60002FBF8FB7F894F201208131818FBFACA1D0
:101F7000BDA18D919C912817390708F046C0D80162
:101F8000AE56BD4FED91FC91119783E080838D910A
:101F90009C911197019611969C938E9302571D4F19
:101FA000F801208131810E5812408217930709F4FD
:101FB000CCC52FB7F894D2018D919C9111970196C1
:101FC00011969C938E932FBF980122563D4FD901B5
:101FD000ED91FC91119781E08193ED93FC9306566E
:101FE0001D4FD8018D919C910A591240E817F907AD
:101FF00009F4A0C52FB7F894F801EA56FD4F808187
:1020000091810196918380832FBF8FB7F894F2015D
:10201000208131818FBFACA1BDA18D919C912817EA
:10202000390708F046C0D801AE56BD4FED91FC917E
:10203000119785E080838D919C911197019611965F
:102040009C938E9302571D4FF801208131810E58C9
:1020500012408217930709F463C52FB7F894D20191
:102060008D919C911197019611969C938E932FBF01
:10207000980122563D4FD901ED91FC91119781E0D5
:102080008193ED93FC9306561D4FD8018D919C9141
:102090000A591240E817F90709F437C52FB7F89421
:1020A000F801EA56FD4F80819181019691838083EA
:1020B0002FBF8FB7F894F201208131818FBFACA17F
:1020C000BDA18D919C912817390708F046C0D80111
:1020D000AE56BD4FED91FC91119787E080838D91B5
:1020E0009C911197019611969C938E9302571D4FC8
:1020F000F801208131810E5812408217930709F4AC
:10210000FAC42FB7F894D2018D919C911197019642
:1021100011969C938E932FBF980122563D4FD90163
:10212000ED91FC91119781E08193ED93FC9306561C
:102130001D4FD8018D919C910A591240E817F9075B
:1021400009F4CEC42FB7F894F801EA56FD4F808108
:1021500091810196918380832FBF015F1C4FF8010D
:10216000808191810F50134004970CF01BC2C55918
:10217000DF4F0FB6F894DEBF0FBECDBFCF91DF911A
:102180001F910F91FF90EF90DF90CF90BF90AF9095
:102190009F908F907F906F905F904F903F902F9087
:1021A0000895A096EEADFFADA09780819181DB01EF
:1021B0008D939C930C94B408A296AEADBFADA2973C
:1021C0008D919C91AC96EEADFFADAC9791838083E1
:1021D0000C949A0825E0622E712C600E711E9AE014
:1021E000C92E92E0D92E48E4F801E657FD4FAC968F
:1021F000FFAFEEAFAC9788E8882E82E0982E800E75
:10220000911EB8016E567D4FBEE82B2EB2E03B2EDC
:10221000200E311EAEE9EA2EA2E0FA2EE00EF11EEB
:1022200051E0FAE94F2EF2E05F2E400E511EE6E932
:10223000AE2EE2E0BE2EA00EB11EC80188569D4F04
:10224000A8969FAF8EAFA897D801A457BD4FAA9666
:10225000BFAFAEAFAA978FB7F894AC96EEADFFAD17
:10226000AC97208131818FBFD4018D919C9128172B
:102270003907B0F5FB0180819181DC014C938081AD
:102280009181019691838083F101208131818217B0
:10229000930709F47DC12FB7F894AC96AEADBFADEE
:1022A000AC978D919C911197019611969C938E936A
:1022B0002FBFD701ED91FC9111975193ED93FC93B2
:1022C000D2018D919C91E817F90709F457C12FB7F6
:1022D000F894F501808191810196918380832FBFCD
:1022E000D6014D916D01442309F0B5CF0C9411082E
:1022F0004BE050E00C94CD08E8ADF9AD80819181C0
:10230000DB018D939C931DCBAAADBBAD8D919C91B0
:10231000AC96EEADFFADAC9791838083F9CAEAA984
:10232000FBA980819181DB018D939C9397CBACA914
:10233000BDA98D919C91AC96EEADFFADAC9791830C
:10234000808373CB6C96EEADFFAD6C9780819181ED
:10235000DB018D939C930C94A6096E96AEADBFAD38
:102360006E978D919C91AC96EEADFFADAC9791833D
:1023700080830C948C09EEADFFAD80819181DB01EF
:102380008D939C9301CA2296AEADBFAD22978D91DD
:102390009C91AC96EEADFFADAC9791838083DBC989
:1023A0006696EEADFFAD669780819181DB018D93DE
:1023B0009C930C943E0A6896AEADBFAD68978D9124
:1023C0009C91AC96EEADFFADAC97918380830C945D
:1023D000240A32E2C32E32E0D32E42E425E8E22E74
:1023E00022E0F22EE60CF71C93E8892E92E0992E5B
:1023F000860C971CF301E357FD4FAC96FFAFEEAF91
:10240000AC97C30187579D4F2A969FAF8EAF2A97EF
:10241000B30167567D4F51E085E9282E82E0382EC2
:10242000260C371CB1E9AB2EB2E0BB2EA60CB71CB4
:10243000D301AD56BD4F2C96BFAFAEAF2C97F30175
:10244000E957FD4F2E96FFAFEEAF2E978FB7F8945A
:10245000D7012D913C918FBFF40180819181281784
:10246000390708F039C0AC96AEADBFADAC97ED9171
:10247000FC91119740838D919C91119701968D93BA
:102480009C932A96EEADFFAD2A9720813181821769
:10249000930709F450C02FB7F894D7018D919C9100
:1024A0001197019611969C938E932FBFDB01ED91AE
:1024B000FC9111975193ED93FC93D1018D919C91D7
:1024C000E817F90771F12FB7F894F5018081918130
:1024D0000196918380832FBFD6014D916D014423D6
:1024E00009F0B4CFC7C840E150E0D0CA40E150E0A5
:1024F00088CC2696EEADFFAD269780819181DB01D9
:102500008D939C93A8C82896AEADBFAD28978D91AA
:102510009C91AC96EEADFFADAC97918380830C940B
:10252000120B2C96EEADFFAD2C9780819181DB01D3
:102530008D939C93C8CF2E96AEADBFAD2E978D9147
:102540009C91AC96EEADFFADAC9791838083A3CF09
:10255000A496EEADFFADA49780819181D7018D93B4
:102560009C930C940208A696AEADBFADA6978D9134
:102570009C91FB01918380830C94E507A896EEADB6
:10258000FFADA89780819181D7018D939C939FCEB9
:10259000AA96AEADBFADAA978D919C91FB01918398
:1025A000808379CED8019C96ED91FC919D974381D3
:1025B0008FB7F894F201208131818FBFACA1BDA10A
:1025C0008D919C912817390708F045C0D801AE5667
:1025D000BD4FED91FC911197406840838D919C9186
:1025E0001197019611969C938E9302571D4FF801F7
:1025F000208131810E5812408217930709F49CC341
:102600002FB7F894D2018D919C9111970196119654
:102610009C938E932FBF980122563D4FD901ED9187
:10262000FC9111971192ED93FC9306561D4FD80122
:102630008D919C910A591240E817F90709F486C355
:102640002FB7F894F801EA56FD4F808191810196E9
:10265000918380832FBFEEA1FFA18081918141975B
:102660000CF0B2C107E312E043E5F301E357FD4F7D
:10267000AC96FFAFEEAFAC97A9E8AA2EA2E0BA2EB7
:10268000A60CB71CB30167567D4F51E0F5E94F2EFC
:10269000F2E05F2E460C571CE1E9CE2EE2E0DE2E82
:1026A000C60CD71C33E9232E32E0332E260C371C00
:1026B00087E892E0680E791E28C02FB7F894D701FA
:1026C0008D919C911197019611969C938E932FBF9B
:1026D000DB01ED91FC9111975193ED93FC93D201A5
:1026E0008D919C91E817F90709F4ECC12FB7F89484
:1026F000F601808191810196918380832FBFD8015B
:102700004D918D01442309F432CD8FB7F894D70150
:102710002D913C918FBFF401808191812817390759
:1027200070F7AC96AEADBFADAC97ED91FC91119743
:1027300040838D919C91119701968D939C93F50107
:10274000208131818217930709F0B7CFD3018D9192
:102750009C91AC96EEADFFADAC9791838083ADCFED
:102760004BE050E00C94DD0BADE0CA2EA2E0DA2E77
:102770004DE4F301E357FD4FAC96FFAFEEAFAC97DE
:10278000F9E82F2EF2E03F2E260C371CB3016756D6
:102790007D4F51E0C3018B569D4F9BA78AA7E1E96E
:1027A000AE2EE2E0BE2EA60CB71CD301AD56BD4F37
:1027B000BDA7ACA7F301E957FD4FFFA7EEA78FB761
:1027C000F894D7012D913C918FBFF40180819181C4
:1027D00028173907C0F5AC96AEADBFADAC97ED91FB
:1027E000FC91119740838D919C91119701968D9347
:1027F0009C93F101208131818217930709F4C5C0B0
:102800002FB7F894D7018D919C911197019611964D
:102810009C938E932FBFDB01ED91FC911197519307
:10282000ED93FC93AAA5BBA58D919C91E817F907A0
:1028300009F4A3C02FB7F894F50180819181019626
:10284000918380832FBFD6014D916D01442309F000
:10285000B6CF13C93DE0C32E32E0D32E4DE4C30101
:102860008B579D4FAC969FAF8EAFAC9723E8822ECF
:1028700022E0922E860C971CB30163577D4F99E896
:10288000492E92E0592E460C571C89E9E82E82E029
:10289000F82EE60CF71C51E0B5E92B2EB2E03B2EEA
:1028A000260C371CA1E9AA2EA2E0BA2EA60CB71C52
:1028B000D301AD56BD4F6096BFAFAEAF6097F30189
:1028C000E957FD4F6296FFAFEEAF62978FB7F8946E
:1028D000AC96AEADBFADAC972D913C918FBFF401DE
:1028E0008081918128173907A8F5DB018D919C9192
:1028F0001197FC0140838D919C91119701968D93C6
:102900009C93D2012D913C918217930709F452C0F8
:102910002FB7F894AC96EEADFFADAC978081918166
:102920000196918380832FBFD701ED91FC91119780
:102930005193ED93FC93D1018D919C91E817F90788
:1029400079F12FB7F894F5018081918101969183F7
:1029500080832FBFD6014D916D01442309F0B6CF7E
:10296000FAE84F2EF2E05F2E400E511EF801E857B4
:10297000FD4FFDA3ECA30C944D0AECA5FDA58081B1
:102980009181DB018D939C9355CFAEA5BFA58D9111
:102990009C91AC96EEADFFADAC979183808330CF28
:1029A0006096EEADFFAD609780819181D7018D93E8
:1029B0009C93C7CF6296EEADFFAD62978081918107
:1029C000DB018D939C93A4CF05E212E043E5C301A4
:1029D00083579D4FAC969FAF8EAFAC9729E8A22E40
:1029E00022E0B22EA60CB71CB30167567D4F51E012
:1029F00095E9492E92E0592E460C571C81E9C82EC4
:102A000082E0D82EC60CD71CB3E92B2EB2E03B2EA9
:102A1000260C371CA7E8B2E06A0E7B1E28C02FB731
:102A2000F894D7018D919C911197019611969C93E2
:102A30008E932FBFDB01ED91FC9111975193ED9394
:102A4000FC93D2018D919C91E817F90709F441C0DC
:102A50002FB7F894F601808191810196918380834C
:102A60002FBFD8014D918D01442309F480CB8FB73E
:102A7000F894F701208131818FBFD4018D919C9111
:102A80002817390770F7AC96AEADBFADAC97ED9196
:102A9000FC91119740838D919C91119701968D9394
:102AA0009C93F501208131818217930709F0B7CFFC
:102AB000D3018D919C91AC96EEADFFADAC97918317
:102AC0008083ADCFF10180819181DB018D939C9357
:102AD0000DCEF10180819181DB018D939C93B8CF64
:102AE00008561D4FF8018081918108591240D90183
:102AF0008D939C9327CB04571D4FF80180819181C2
:102B00000C5812408D939C93FCCA08561D4FF80137
:102B10008081918108591240D9018D939C93BECA3E
:102B200004571D4FF801808191810C5812408D93FC
:102B30009C9393CA08561D4FF801808191810859D2
:102B40001240D9018D939C9355CA04571D4FF8012B
:102B5000808191810C5812408D939C932ACA08560B
:102B60001D4FF8018081918108591240D9018D9340
:102B70009C93ECC904571D4FF801808191810C583A
:102B800012408D939C93C1C908561D4FF801808156
:102B9000918108591240D9018D939C9383C90457A0
:102BA0001D4FF801808191810C5812408D939C93A8
:102BB00059C908561D4FF80180819181085912406A
:102BC000D9018D939C9309C904571D4FF801808149
:102BD00091810C5812408D939C93DEC808561D4F6E
:102BE000F8018081918108591240D9018D939C93FD
:102BF000A0C804571D4FF801808191810C581240E4
:102C00008D939C930C94780E08561D4FF80180818B
:102C1000918108591240D9018D939C930C94440ED4
:102C200004571D4FF801808191810C5812408D93FB
:102C30009C930C94220E08561D4FF80180819181BF
:102C400008591240D9018D939C930C94EE0D0457B2
:102C50001D4FF801808191810C5812408D939C93F7
:102C60000C94CC0D08561D4FF801808191810859B4
:102C70001240D9018D939C930C94990D04571D4FCC
:102C8000F801808191810C5812408D939C930C9493
:102C9000780D08561D4FF801808191810859124026
:102CA000D9018D939C930C949D0A04571D4FF801F4
:102CB000808191810C5812408D939C930C947C0AD6
:102CC000E5E8EE2EE2E0FE2EE60CF71C73E8A72EF8
:102CD00072E0B72EA60CB71C0C94C30808561D4F03
:102CE000F8018081918108591240D9018D939C93FC
:102CF0000C942A0904571D4FF801808191810C58CA
:102D000012408D939C930C94090908561D4FF801AD
:102D10008081918108591240D9018D939C930C9424
:102D2000300C04571D4FF801808191810C581240DE
:102D30008D939C930C940F0C04571D4FF8018081C8
:102D400091810C5812408D939C935ACC08561D4F7C
:102D5000F8018081918108591240D9018D939C938B
:102D60006FCC2F923F924F925F926F927F928F9291
:102D70009F92AF92BF92CF92DF92EF92FF920F930A
:102D80001F93DF93CF93CDB7DEB76E970FB6F8944E
:102D9000DEBF0FBECDBF7C0120EC32E0E20EF31EA1
:102DA00081E090E0D7018D939C93E0E4FDEFEE0E7F
:102DB000FF1EA5E0CA2ED12CCE0CDF1C8FB7F894D5
:102DC000FAE82F2EF2E03F2E2E0C3F1CD1012D9160
:102DD0003C918FBFF701E857FD4FFC83EB83808167
:102DE00091812817390708F04DC0D701AE56BD4F65
:102DF000ED91FC91119781E080838D919C911197C9
:102E0000019611969C938E932EE832E0E20EF31E0B
:102E1000F7012081318142E75DEFE40EF51E821754
:102E2000930709F41EC62FB7F894D1018D919C9198
:102E30001197019611969C938E932FBFA70142562E
:102E40005D4FDA01ED91FC9111971192ED93FC9396
:102E50002AE932E0E20EF31ED7018D919C9126E61D
:102E60003DEFE20EF31EE817F90709F408C62FB785
:102E7000F894F701EA56FD4F808191810196918384
:102E800080832FBF0E949C3E882309F0EFC10E94DF
:102E9000A53EFC018081882309F47EC463E572E0CD
:102EA00043E586010B571D4F53E8852E52E0952EC2
:102EB0008C0C9D1CF601E357FD4FFE8FED8F39E81A
:102EC000432E32E0532E4C0C5D1C960127563D4F8D
:102ED0003C8F2B8F51E025E9622E22E0722E6C0C84
:102EE0007D1C91E9A92E92E0B92EAC0CBD1CC60147
:102EF0008D569D4F988F8F8BD601A957BD4FBA8F96
:102F0000A98F8FB7F894F801208131818FBFD40148
:102F10008D919C9128173907B0F5AD8DBE8DED913F
:102F2000FC91119740838D919C91119701968D93FF
:102F30009C93F201208131818217930709F400C428
:102F40002FB7F894D8018D919C9111970196119605
:102F50009C938E932FBFAB8DBC8DED91FC911197FF
:102F60005193ED93FC93D3018D919C91E817F90750
:102F700009F4DDC32FB7F894F501808191810196A2
:102F8000918380832FBFDB014D91BD01442309F064
:102F9000B8CFD7019C96ED91FC919D9741818FB759
:102FA000F894F101208131818FBFAB81BC818D917B
:102FB0009C912817390708F04DC0D701AE56BD4F78
:102FC000ED91FC911197406840838D919C911197F0
:102FD000019611969C938E93EEE8F2E0EE0EFF1EA2
:102FE000F7012081318142E75DEFE40EF51E821783
:102FF000930709F417C62FB7F894D1018D919C91CE
:103000001197019611969C938E932FBFA70142565C
:103010005D4FDA01ED91FC9111971192ED93FC93C4
:103020002AE932E0E20EF31ED7018D919C9126E64B
:103030003DEFE20EF31EE817F90709F4E4C52FB7D8
:10304000F894F701EA56FD4F8081918101969183B2
:1030500080832FBF62E672E04EE3F601E357FD4F37
:10306000FE8FED8F89E8482E82E0582E4C0C5D1CB7
:10307000960127563D4F3C8F2B8F51E0B5E96B2EC3
:10308000B2E07B2E6C0C7D1CA1E9AA2EA2E0BA2E28
:10309000AC0CBD1CC6018D569D4F9C8B8B8BD601F5
:1030A000A957BD4FBE8BAD8B8FB7F894F801208127
:1030B00031818FBFD4018D919C9128173907B0F5CC
:1030C000AD8DBE8DED91FC91119740838D919C91BA
:1030D000119701968D939C93F20120813181821783
:1030E000930709F40AC32FB7F894D8018D919C91E6
:1030F0001197019611969C938E932FBFAB8DBC8D2B
:10310000ED91FC9111975193ED93FC93D3018D9127
:103110009C91E817F90709F4E7C22FB7F894F50175
:10312000808191810196918380832FBFDB014D9136
:10313000BD01442309F0B8CF0E94A53EFC014081A7
:10314000442309F46FC0DC01F601E357FD4FFC8F07
:10315000EB8FF9E84F2EF2E05F2E4C0C5D1CB601B0
:1031600067567D4F51E0E5E96E2EE2E07E2E6C0C55
:103170007D1C31E9A32E32E0B32EAC0CBD1C9601B0
:103180002D563D4F388B2F87C60189579D4F9A8BFF
:10319000898B8FB7F894F801208131818FBFF401BA
:1031A0008081918128173907B0F5EB8DFC8D8081E6
:1031B0009181FC014083EB8DFC8D80819181019692
:1031C00091838083F201208131818217930709F472
:1031D000A5C22FB7F894F80180819181019691835F
:1031E00080832FBFFB0120813181F90151939F0121
:1031F000FB0131832083F3018081918128173907F6
:1032000009F484C22FB7F894F50180819181019669
:10321000918380832FBF11964C911197119644236F
:1032200009F0B7CF9701215F3C4F3A832983D90139
:103230008D919C9103970CF0B2C26E960FB6F894E4
:10324000DEBF0FBECDBFCF91DF911F910F91FF90D9
:10325000EF90DF90CF90BF90AF909F908F907F9036
:103260006F905F904F903F902F90089568E472E0C8
:1032700040E586010B571D4FE3E88E2EE2E09E2EBF
:103280008C0C9D1CF601E357FD4FFE8FED8F59E826
:10329000452E52E0552E4C0C5D1C960127563D4F95
:1032A0003C8F2B8F51E035E9632E32E0732E6C0C8E
:1032B0007D1C21E9A22E22E0B22EAC0CBD1CC60161
:1032C0008D569D4F9A878987D601A957BD4FBC87D8
:1032D000AB878FB7F894F801208131818FBFD4017B
:1032E0008D919C9128173907B0F5AD8DBE8DED916C
:1032F000FC91119740838D919C91119701968D932C
:103300009C93F201208131818217930709F43BC21B
:103310002FB7F894D8018D919C9111970196119631
:103320009C938E932FBFAB8DBC8DED91FC9111972B
:103330005193ED93FC93D3018D919C91E817F9077C
:1033400009F418C22FB7F894F50180819181019694
:10335000918380832FBFDB014D91BD01442309F090
:10336000B8CFD7019C96ED91FC919D9741818FB785
:10337000F894F101208131818FBFAB81BC818D91A7
:103380009C912817390708F04DC0D701AE56BD4FA4
:10339000ED91FC911197406840838D919C9111971C
:1033A000019611969C938E93EEE8F2E0EE0EFF1ECE
:1033B000F7012081318142E75DEFE40EF51E8217AF
:1033C000930709F44CC42FB7F894D1018D919C91C7
:1033D0001197019611969C938E932FBFA701425689
:1033E0005D4FDA01ED91FC9111971192ED93FC93F1
:1033F0002AE932E0E20EF31ED7018D919C9126E678
:103400003DEFE20EF31EE817F90709F419C42FB7D0
:10341000F894F701EA56FD4F8081918101969183DE
:1034200080832FBF0E94A53EFC014081442309F404
:103430006FC0DC01F601E357FD4FFC8FEB8F99E87D
:10344000492E92E0592E4C0C5D1CB60167567D4FFB
:1034500051E085E9682E82E0782E6C0C7D1CF1E944
:10346000AF2EF2E0BF2EAC0CBD1C96012D563D4F89
:103470003E832D83C60189579D4F98878F838FB7D1
:10348000F894F801208131818FBFF401808191810E
:1034900028173907B0F5EB8DFC8D80819181FC01F7
:1034A0004083EB8DFC8D8081918101969183808397
:1034B000F201208131818217930709F452C12FB79D
:1034C000F894F801808191810196918380832FBFC8
:1034D000FB0120813181F90151939F01FB0131836F
:1034E0002083F301808191812817390709F431C1C4
:1034F0002FB7F894F50180819181019691838083A3
:103500002FBF11964C9111971196442309F0B7CF14
:103510002FE033E0E20EF31ED7018D919C91E1EF95
:10352000FCEFEE0EFF1E04970CF487CED7019C969D
:10353000ED91FC919D9743818FB7F894F101208123
:1035400031818FBFAB81BC818D919C912817390748
:1035500008F04DC0D701AE56BD4FED91FC911197CB
:10356000406840838D919C911197019611969C9390
:103570008E93EEE8F2E0EE0EFF1EF701208131811E
:1035800042E75DEFE40EF51E8217930709F492C33C
:103590002FB7F894D1018D919C91119701961196B6
:1035A0009C938E932FBFA70142565D4FDA01ED9198
:1035B000FC9111971192ED93FC932AE932E0E20E0F
:1035C000F31ED7018D919C9126E63DEFE20EF31E8E
:1035D000E817F90709F451C32FB7F894F701EA5631
:1035E000FD4F808191810196918380832FBFEDE013
:1035F000F3E0EE0EFF1ED7018D919C9141970CF0E8
:1036000082C267E372E043E58DE8282E82E0382E1F
:103610002C0C3D1CB9E8AB2EB2E0BB2EAC0CBD1C93
:10362000F601E756FD4FFC8FEB8F51E0A5E96A2EBE
:10363000A2E07A2E6C0C7D1CF1E9EF2EF2E0FF2E59
:10364000EC0CFD1CE3E94E2EE2E05E2E4C0C5D1C02
:1036500027E832E0C20ED31E8FB7F894D8012D911F
:103660003C918FBFF4018081918128173907A8F51B
:10367000D101ED91FC91119740838D919C9111970F
:1036800001968D939C93F5012081318182179307D8
:1036900009F432C22FB7F894D8018D919C911197FB
:1036A000019611969C938E932FBFAB8DBC8DED919F
:1036B000FC9111975193ED93FC93D3018D919C91C3
:1036C000E817F90709F410C22FB7F894F7018081C1
:1036D00091810196918380832FBFDB014D91BD01C4
:1036E000442309F0B9CFA9CDEB89FC898081918170
:1036F000AB8DBC8D8D939C9310CDAD89BE898D9182
:103700009C91ED8DFE8D91838083EDCCEF85F889C2
:1037100080819181FB019183808374CDE989FA894D
:1037200080819181EB8DFC8D9183808352CDEF89D7
:10373000F88D80819181AB8DBC8D8D939C931ACC3B
:10374000A98DBA8D8D919C91ED8DFE8D9183808395
:10375000F7CBED81FE8180819181FB019183808394
:10376000C7CEEF81F88580819181EB8DFC8D9183AF
:103770008083A5CEE985FA8580819181AB8DBC8D52
:103780008D939C93DFCDAB85BC858D919C91ED8D08
:10379000FE8D91838083BCCD0E947E427FCBD7017A
:1037A0009C96ED91FC919D9742818FB7F894F10121
:1037B000208131818FBFAB81BC818D919C91281775
:1037C000390708F04DC0D701AE56BD4FED91FC91C1
:1037D0001197406840838D919C91119701961196A5
:1037E0009C938E93EEE8F2E0EE0EFF1EF70120812F
:1037F000318142E75DEFE40EF51E8217930709F46D
:103800004BC22FB7F894D1018D919C9111970196DD
:1038100011969C938E932FBFA70142565D4FDA01FC
:10382000ED91FC9111971192ED93FC932AE932E00E
:10383000E20EF31ED7018D919C9126E63DEFE20E3C
:10384000F31EE817F90709F443C22FB7F894F701FC
:10385000EA56FD4F808191810196918380832FBF2D
:1038600065E672E046E3F601E357FD4FFE8FED8F0C
:1038700029E8422E22E0522E4C0C5D1C9601275660
:103880003D4F3C8F2B8F51E095E9692E92E0792EC8
:103890006C0C7D1C81E9A82E82E0B82EAC0CBD1CFE
:1038A000B3E92B2EB2E03B2E2C0C3D1CC6018957F0
:1038B0009D4F9E878D878FB7F894D8012D913C91AD
:1038C0008FBFF4018081918128173907B0F5AD8D44
:1038D000BE8DED91FC91119740838D919C91119734
:1038E00001968D939C93F201208131818217930779
:1038F00009F4DCC02FB7F894D8018D919C911197F1
:10390000019611969C938E932FBFAB8DBC8DED913C
:10391000FC9111975193ED93FC93D3018D919C9160
:10392000E817F90709F4BAC02FB7F894F5018081B8
:1039300091810196918380832FBFDB014D91BD0161
:10394000442309F0B8CFE981FA81808191810497FD
:103950000CF473CCD7019C96ED91FC919D976381FB
:103960006068C6010E94AE01EDE0F3E0EE0EFF1EBE
:10397000D7018D919C9141970CF0B0C067E372E044
:1039800043E5ADE82A2EA2E03A2E2C0C3D1CF9E8C6
:10399000AF2EF2E0BF2EAC0CBD1CF601E756FD4F7A
:1039A000FC8FEB8F51E0E5E96E2EE2E07E2E6C0C91
:1039B0007D1C31E9E32E32E0F32EEC0CFD1C23E9F3
:1039C000422E22E0522E4C0C5D1C27E832E0C20E43
:1039D000D31E8FB7F894D8012D913C918FBFF4017D
:1039E0008081918128173907A8F5D101ED91FC91CB
:1039F000119740838D919C91119701968D939C9383
:103A0000F501208131818217930709F460C02FB737
:103A1000F894D8018D919C911197019611969C93E1
:103A20008E932FBFAB8DBC8DED91FC91119751936F
:103A3000ED93FC93D3018D919C91E817F90709F45C
:103A40003EC02FB7F894F701808191810196918350
:103A500080832FBFDB014D91BD01442309F0B9CF15
:103A6000ECCB8CE892E0E80EF91EF70180819181A1
:103A700024E73DEFE20EF31E8D939C93D4C988E9B1
:103A800092E0E80EF91ED7018D919C91E8E6FDEFDA
:103A9000EE0EFF1EDA018D939C93E9C9F10180813E
:103AA0009181AB8DBC8D8D939C933ECFAD85BE85B2
:103AB0008D919C91ED8DFE8D918380831BCFF201C2
:103AC00080819181AB8DBC8D8D939C93BACFD601B3
:103AD0008D919C91F1019183808399CFC60164E21D
:103AE00072E00E94B006A9CBF20180819181AB8D7A
:103AF000BC8D8D939C93E8CDD6018D919C91F10165
:103B000091838083C7CD65E272E043E5EDE82E2E18
:103B1000E2E03E2E2C0C3D1C59E8A52E52E0B52EBD
:103B2000AC0CBD1CF601E756FD4FFC8FEB8F51E04E
:103B300035E9632E32E0732E6C0C7D1C21E9E22EF8
:103B400022E0F22EEC0CFD1C93E9492E92E0592E56
:103B50004C0C5D1C27E832E0C20ED31E8FB7F894E0
:103B6000D8012D913C918FBFF4018081918128175C
:103B7000390798F5D101ED91FC91119740838D9112
:103B80009C91119701968D939C93F5012081318131
:103B90008217930789F12FB7F894D8018D919C91E2
:103BA0001197019611969C938E932FBFAB8DBC8D70
:103BB000ED91FC9111975193ED93FC93D3018D916D
:103BC0009C91E817F90781F02FB7F894F7018081ED
:103BD00091810196918380832FBFDB014D91BD01BF
:103BE000442309F0BBCF29CBF20180819181AB8DB9
:103BF000BC8D8D939C93E8CFD6018D919C91F10162
:103C000091838083C8CF88E992E0E80EF91ED7013E
:103C10008D919C91E8E6FDEFEE0EFF1EDA018D938B
:103C20009C930DCA8CE892E0E80EF91EF7018081A2
:103C3000918124E73DEFE20EF31E8D939C93DBC947
:103C400088E992E0E80EF91ED7018D919C91E8E693
:103C5000FDEFEE0EFF1EDA018D939C93D8CB8CE81E
:103C600092E0E80EF91EF7018081918124E73DEF93
:103C7000E20EF31E8D939C93A6CB88E992E0E80EAA
:103C8000F91ED7018D919C91E8E6FDEFEE0EFF1E27
:103C9000DA018D939C93A0CC8CE892E0E80EF91E9B
:103CA000F7018081918124E73DEFE20EF31E8D93B1
:103CB0009C93A7CD8CE892E0E80EF91EF701808175
:103CC000918124E73DEFE20EF31E8D939C9360CC2F
:103CD00088E992E0E80EF91ED7018D919C91E8E603
:103CE000FDEFEE0EFF1EDA018D939C93AECD2F9269
:103CF0003F924F925F926F927F928F929F92AF927C
:103D0000BF92CF92DF92EF92FF920F931F93DF93B8
:103D1000CF93CDB7DEB7CB5AD0400FB6F894DEBF05
:103D20000FBECDBF4C0145E0C42ED12CC80ED91E0C
:103D30002091C9043091CA044091CB045091CC0425
:103D40002A962CAF3DAF4EAF5FAF2A9764E772E083
:103D500048E53AE8E32E32E0F32EE80EF91E28E8B3
:103D6000A22E22E0B22EA80EB91E8E569D4FC65529
:103D7000DF4F99838883CA5AD0409EE8292E92E06B
:103D8000392E280C391C840102561D4F51E08AE956
:103D9000482E82E0582E480C591CB6E96B2EB2E032
:103DA0007B2E680C791CD401A856BD4FCC55DF4F33
:103DB000B983A883C45AD040F401E457FD4FCA55D3
:103DC000DF4FF983E883C65AD0408FB7F894D70104
:103DD0002D913C918FBFF501808191812817390782
:103DE00008F03BC0C655DF4FA881B981CA5AD04000
:103DF000ED91FC91119740838D919C9111970196C3
:103E00008D939C93F101208131818217930711F4E6
:103E10000C942C292FB7F894D7018D919C91119770
:103E2000019611969C938E932FBFD801ED91FC9132
:103E300011975193ED93FC93D2018D919C91E817CA
:103E4000F90711F40C941F292FB7F894F30180811E
:103E500091810196918380832FBFDB014D91BD013C
:103E6000442309F0B2CFFE013196C855DF4FF983E4
:103E7000E883C85AD04081E211928A95E9F72A96E0
:103E80006CAD7DAD8EAD9FAD2A9745E021E08E01F2
:103E90000F5F1F4F0E9470C44981442309F482C000
:103EA0008E010E5F1F4F960123573D4FC655DF4FC2
:103EB00039832883CA5AD040A9E82A2EA2E03A2E94
:103EC0002C0C3D1CB60167567D4F51E0F5E94F2E95
:103ED000F2E05F2E4C0C5D1CE1E96E2EE2E07E2EDE
:103EE0006C0C7D1CC6018D569D4FC056DF4F9983CB
:103EF0008883C05AD040D601A957BD4FCE55DF4F59
:103F0000B983A883C25AD0408FB7F894F7012081B3
:103F100031818FBFD5018D919C912817390708F009
:103F20003BC0C655DF4FA881B981CA5AD040ED9138
:103F3000FC91119740838D919C91119701968D93DF
:103F40009C93F101208131818217930711F40C9425
:103F50004B292FB7F894D7018D919C911197019619
:103F600011969C938E932FBFDB01ED91FC911197DD
:103F70005193ED93FC93D2018D919C91E817F90731
:103F800011F40C943E292FB7F894F30180819181AC
:103F90000196918380832FBFD8014D918D014423D9
:103FA00009F0B2CFD4019C96ED91FC919D97408190
:103FB0008FB7F894F401E657FD4F6496FFAFEEAF6C
:103FC0006497208131818FBFC40188579D4F6296CD
:103FD0009FAF8EAF6297DC018D919C9128173907B6
:103FE00008F053C0D401AE56BD4FED91FC9111972E
:103FF000485F406840838D919C911197019611967E
:104000009C938E93EEE8F2E08E0E9F1EF4012081C9
:10401000318142E75DEF840E951E8217930711F4FC
:104020000C94F4332FB7F8946496AEADBFAD64979B
:104030008D919C911197019611969C938E932FBF11
:10404000A40142565D4FDA01ED91FC911197119256
:10405000ED93FC932AE932E0820E931ED4018D91F8
:104060009C9126E63DEF820E931EE817F90711F4A6
:104070000C9403342FB7F894F401EA56FD4F808175
:1040800091810196918380832FBF2091CD0430913F
:10409000CE044091CF045091D00426962CAF3DAF72
:1040A0004EAF5FAF269767E772E049E5C6018357D9
:1040B0009D4FC655DF4F99838883CA5AD04039E84F
:1040C000232E32E0332E2C0C3D1C860107561D4F4B
:1040D00051E025E9422E22E0522E4C0C5D1C91E964
:1040E000692E92E0792E6C0C7D1CD601AD56BD4F29
:1040F000C456DF4FB983A883CC59D040F601E957A5
:10410000FD4FC256DF4FF983E883CE59D0408FB7B9
:10411000F894D7012D913C918FBFF5018081918159
:104120002817390708F03BC0C655DF4FA881B98171
:10413000CA5AD040ED91FC91119740838D919C918A
:10414000119701968D939C93F10120813181821703
:10415000930711F40C946A292FB7F894D7018D9125
:104160009C911197019611969C938E932FBFD80125
:10417000ED91FC9111975193ED93FC93D2018D91A8
:104180009C91E817F90711F40C945D292FB7F89466
:10419000F301808191810196918380832FBFDB01A0
:1041A0004D91BD01442309F0B2CF81E2C855DF4FE4
:1041B000E881F981C85AD04011928A95E9F726968C
:1041C0006CAD7DAD8EAD9FAD269745E021E08E01B3
:1041D0000F5F1F4F0E9470C44981442309F482C0BD
:1041E0008E010E5F1F4F960123573D4FC655DF4F7F
:1041F00039832883CA5AD04089E8282E82E0382E95
:104200002C0C3D1CB60167567D4F51E0B5E94B2E95
:10421000B2E05B2E4C0C5D1CA1E96A2EA2E07A2E66
:104220006C0C7D1CC6018D569D4FC856DF4F99837F
:104230008883C859D040D601A957BD4FC656DF4F15
:10424000B983A883CA59D0408FB7F894F701208169
:1042500031818FBFD5018D919C912817390708F0C6
:104260003BC0C655DF4FA881B981CA5AD040ED91F5
:10427000FC91119740838D919C91119701968D939C
:104280009C93F101208131818217930711F40C94E2
:1042900089292FB7F894D7018D919C911197019698
:1042A00011969C938E932FBFDB01ED91FC9111979A
:1042B0005193ED93FC93D2018D919C91E817F907EE
:1042C00011F40C947C292FB7F894F301808191812B
:1042D0000196918380832FBFD8014D918D01442396
:1042E00009F0B2CFD4019C96ED91FC919D9741814C
:1042F0008FB7F8946496EEADFFAD6497208131815D
:104300008FBF6296AEADBFAD62978D919C9128171D
:10431000390708F052C0D401AE56BD4FED91FC9163
:104320001197406840838D919C9111970196119649
:104330009C938E93EEE8F2E08E0E9F1EF401208196
:10434000318142E75DEF840E951E8217930711F4C9
:104350000C9413342FB7F8946496AEADBFAD649748
:104360008D919C911197019611969C938E932FBFDE
:10437000A40142565D4FDA01ED91FC911197119223
:10438000ED93FC932AE932E0820E931ED4018D91C5
:104390009C9126E63DEF820E931EE817F90711F473
:1043A0000C94E4332FB7F894F401EA56FD4F808162
:1043B00091810196918380832FBF2091D104309108
:1043C000D2044091D3045091D40422962CAF3DAF37
:1043D0004EAF5FAF22976AE772E04AE5C6018357A6
:1043E0009D4FC655DF4F99838883CA5AD040F9E85C
:1043F0002F2EF2E03F2E2C0C3D1C860107561D4F40
:1044000051E0E5E94E2EE2E05E2E4C0C5D1C31E9F8
:10441000632E32E0732E6C0C7D1CD601AD56BD4F61
:10442000CC56DF4FB983A883C459D040F601E95771
:10443000FD4FCA56DF4FF983E883C659D0408FB786
:10444000F894D7012D913C918FBFF5018081918126
:104450002817390708F039C0C655DF4FA881B98140
:10446000CA5AD040ED91FC91119740838D919C9157
:10447000119701968D939C93F101208131818217D0
:10448000930709F4AEC62FB7F894D7018D919C918C
:104490001197019611969C938E932FBFD801ED91A1
:1044A000FC9111975193ED93FC93D2018D919C91C6
:1044B000E817F90709F489C62FB7F894F30180814A
:1044C00091810196918380832FBFDB014D91BD01C6
:1044D000442309F0B4CF81E2C855DF4FE881F98168
:1044E000C85AD04011928A95E9F722966CAD7DADFD
:1044F0008EAD9FAD229745E021E08E010F5F1F4FEB
:104500000E9470C44981442309F480C08E010E5F6B
:104510001F4F960123573D4FC655DF4F39832883E0
:10452000CA5AD04029E8222E22E0322E2C0C3D1C03
:10453000B60167567D4F51E095E9492E92E0592E1C
:104540004C0C5D1C81E9682E82E0782E6C0C7D1C81
:10455000C6018D569D4FC057DF4F99838883C05940
:10456000D040D601A957BD4FCE56DF4FB983A8839F
:10457000C259D0408FB7F894F701208131818FBFA5
:10458000D5018D919C912817390708F039C0C6557F
:10459000DF4FA881B981CA5AD040ED91FC911197A3
:1045A00040838D919C91119701968D939C93F1017D
:1045B000208131818217930709F430C62FB7F89410
:1045C000D7018D919C911197019611969C938E9392
:1045D0002FBFDB01ED91FC9111975193ED93FC936B
:1045E000D2018D919C91E817F90709F40BC62FB7FA
:1045F000F894F301808191810196918380832FBF8C
:10460000D8014D918D01442309F0B4CFEFE0F3E0E0
:104610008E0E9F1ED4018D919C91E1EFFCEF8E0ECA
:104620009F1E03970CF487C6D4019C96ED91FC91D4
:104630009D9741818FB7F8946496EEADFFAD649776
:10464000208131818FBF6296AEADBFAD62978D91F3
:104650009C912817390708F053C0D401AE56BD4FBE
:10466000ED91FC911197485F406840838D919C913A
:104670001197019611969C938E93EEE8F2E08E0EC0
:104680009F1EF4012081318142E75DEF840E951E6B
:104690008217930711F40C9460342FB7F894649642
:1046A000AEADBFAD64978D919C9111970196119617
:1046B0009C938E932FBFA40142565D4FDA01ED917A
:1046C000FC9111971192ED93FC932AE932E0820E4E
:1046D000931ED4018D919C9126E63DEF820E931E90
:1046E000E817F90711F40C9450342FB7F894F4013B
:1046F000EA56FD4F808191810196918380832FBF7F
:104700002091D5043091D6044091D7045091D8041B
:104710002AAF3BAF4CAF5DAF0DE7602E02E0702ECD
:1047200045E4C60183579D4FC655DF4F9983888363
:10473000CA5AD04019E8212E12E0312E2C0C3D1C13
:10474000860107561D4F51E0B6016B567D4FB1E90A
:104750004B2EB2E05B2E4C0C5D1CD601AD56BD4F0E
:10476000E896BFAFAEAFE897F601E957FD4FEA967E
:10477000FFAFEEAFEA978FB7F894D7012D913C9138
:104780008FBFF501808191812817390708F03BC060
:10479000C655DF4FA881B981CA5AD040ED91FC912E
:1047A000119740838D919C91119701968D939C93C5
:1047B000F101208131818217930711F40C94A12E0D
:1047C0002FB7F894D7018D919C911197019611966E
:1047D0009C938E932FBFD801ED91FC91119751932B
:1047E000ED93FC93DB018D919C91E817F90711F48F
:1047F0000C94032F2FB7F894F201808191810196D8
:10480000918380832FBFD3014D913D01442309F053
:10481000B2CF81E2C855DF4FE881F981C85AD04054
:1048200011928A95E9F76AAD7BAD8CAD9DAD45E0FF
:1048300021E08E010F5F1F4F0E9470C44981442305
:1048400009F47EC08E010E5F1F4F960123573D4F26
:10485000C655DF4F39832883CA5AD040A9E84A2E6B
:10486000A2E05A2E4C0C5D1CB60167567D4F51E0FC
:10487000F5E92F2EF2E03F2E2C0C3D1CE1E96E2EC7
:10488000E2E07E2E6C0C7D1CC6018D569D4FE49699
:104890009FAF8EAFE497D601A957BD4FE696BFAF45
:1048A000AEAFE6978FB7F894F701208131818FBFC3
:1048B000D5018D919C912817390708F03BC0C6554A
:1048C000DF4FA881B981CA5AD040ED91FC91119770
:1048D00040838D919C91119701968D939C93F20149
:1048E000208131818217930711F40C94E82E2FB7A1
:1048F000F894D7018D919C911197019611969C93F4
:104900008E932FBFDB01ED91FC9111975193ED93A5
:10491000FC93D1018D919C91E817F90711F40C9447
:10492000DD2E2FB7F894F301808191810196918358
:1049300080832FBFD8014D918D01442309F0B2CF60
:10494000D4019C96ED91FC919D9742818FB7F8948C
:104950006496EEADFFAD6497208131818FBF629682
:10496000AEADBFAD62978D919C912817390708F0C5
:1049700052C0D401AE56BD4FED91FC9111974068E5
:1049800040838D919C911197019611969C938E93E3
:10499000EEE8F2E08E0E9F1EF4012081318142E7A5
:1049A0005DEF840E951E8217930711F40C94323438
:1049B0002FB7F8946496AEADBFAD64978D919C917E
:1049C0001197019611969C938E932FBFA401425686
:1049D0005D4FDA01ED91FC9111971192ED93FC93EB
:1049E0002AE932E0820E931ED4018D919C9126E635
:1049F0003DEF820E931EE817F90711F40C946F3403
:104A00002FB7F894F401EA56FD4F80819181019609
:104A1000918380832FBFE4ECF2E08E0E9F1ED401C1
:104A20002D913D914D915C912EAB3FAB48AF59AF6D
:104A3000ECE3FDEF8E0E9F1E60E8662E62E0762EA0
:104A40004DE4960123573D4FC655DF4F39832883E8
:104A5000CA5AD04059E8252E52E0352E2C0C3D1C68
:104A6000860107561D4F51E0B6016B567D4F31E967
:104A7000432E32E0532E4C0C5D1CC6018D569D4FCB
:104A8000E0969FAF8EAFE097D601A957BD4FE29653
:104A9000BFAFAEAFE2978FB7F894F70120813181B5
:104AA0008FBFD5018D919C912817390708F03BC025
:104AB000C655DF4FA881B981CA5AD040ED91FC910B
:104AC000119740838D919C91119701968D939C93A2
:104AD000F101208131818217930711F40C94912EFA
:104AE0002FB7F894D7018D919C911197019611964B
:104AF0009C938E932FBFD801ED91FC911197519308
:104B0000ED93FC93DB018D919C91E817F90711F46B
:104B10000C94F82E2FB7F894F201808191810196C0
:104B2000918380832FBFD3014D913D01442309F030
:104B3000B2CF81E2C855DF4FE881F981C85AD04031
:104B400011928A95E9F76EA97FA988AD99AD45E0E4
:104B500021E08E010F5F1F4F0E9470C449814423E2
:104B600009F47EC08E010E5F1F4F960123573D4F03
:104B7000C655DF4F39832883CA5AD04029E8422ED0
:104B800022E0522E4C0C5D1CB60167567D4F51E061
:104B900095E9292E92E0392E2C0C3D1C81E9682ED6
:104BA00082E0782E6C0C7D1CC6018D569D4FAC9614
:104BB0009FAF8EAFAC97D601A957BD4FAE96BFAF92
:104BC000AEAFAE978FB7F894F701208131818FBFD8
:104BD000D5018D919C912817390708F03BC0C65527
:104BE000DF4FA881B981CA5AD040ED91FC9111974D
:104BF00040838D919C91119701968D939C93F20126
:104C0000208131818217930711F40C94CD2E2FB798
:104C1000F894D7018D919C911197019611969C93D0
:104C20008E932FBFDB01ED91FC9111975193ED9382
:104C3000FC93D1018D919C91E817F90711F40C9424
:104C4000C22E2FB7F894F301808191810196918350
:104C500080832FBFD8014D918D01442309F0B2CF3D
:104C6000F401E35FFC4F6096FFAFEEAF6097808189
:104C7000918141970CF4F3C628EC32E0820E931E2A
:104C8000D401ED91FC9128E33DEF820E931E8081CB
:104C90009181A281B3818AAB9BABACABBDAB06E883
:104CA000602E02E0702E40E2D601A357BD4FC655DC
:104CB000DF4FB983A883CA5AD04019E8212E12E0E9
:104CC000312E2C0C3D1C860107561D4F51E0B601BC
:104CD0006B567D4FB1E94B2EB2E05B2E4C0C5D1C48
:104CE000F601ED56FD4FA096FFAFEEAFA0979601EF
:104CF00029573D4FA2963FAF2EAFA2978FB7F8949A
:104D0000D7012D913C918FBFF501808191812817AA
:104D1000390708F03BC0C655DF4FA881B981CA5A90
:104D2000D040ED91FC91119740838D919C9111970A
:104D300001968D939C93F101208131818217930715
:104D400011F40C94B9332FB7F894D7018D919C913D
:104D50001197019611969C938E932FBFD801ED91D8
:104D6000FC9111975193ED93FC93DB018D919C91F4
:104D7000E817F90711F40C94AE332FB7F894F20149
:104D8000808191810196918380832FBFD3014D91C2
:104D90003D01442309F0B2CF81E2C855DF4FE881DD
:104DA000F981C85AD04011928A95E9F76AA97BA97E
:104DB0008CA99DA945E021E08E010F5F1F4F0E9445
:104DC00070C44981442309F47EC08E010E5F1F4FD9
:104DD000960123573D4FC655DF4F39832883CA5A62
:104DE000D040A9E84A2EA2E05A2E4C0C5D1CB60118
:104DF00067567D4F51E0F5E92F2EF2E03F2E2C0C47
:104E00003D1CE1E96E2EE2E07E2E6C0C7D1CC6019D
:104E10008D569D4F6C969FAF8EAF6C97D601A9575C
:104E2000BD4F6E96BFAFAEAF6E978FB7F894F701D8
:104E3000208131818FBFD5018D919C912817390731
:104E400008F03BC0C655DF4FA881B981CA5AD0408F
:104E5000ED91FC91119740838D919C911197019652
:104E60008D939C93F201208131818217930711F475
:104E70000C94D4332FB7F894D7018D919C9111974E
:104E8000019611969C938E932FBFDB01ED91FC91BF
:104E900011975193ED93FC93D1018D919C91E8175B
:104EA000F90711F40C94C9332FB7F894F3018081FA
:104EB00091810196918380832FBFD8014D918D01FF
:104EC000442309F0B2CFD4019C96ED91FC919D97BB
:104ED00043818FB7F8946496EEADFFAD649720815F
:104EE00031818FBF6296AEADBFAD62978D919C91BF
:104EF0002817390708F052C0D401AE56BD4FED91C6
:104F0000FC911197406840838D919C911197019677
:104F100011969C938E93EEE8F2E08E0E9F1EF401A4
:104F20002081318142E75DEF840E951E8217930741
:104F300011F40C9441342FB7F8946496AEADBFAD24
:104F400064978D919C911197019611969C938E93E5
:104F50002FBFA40142565D4FDA01ED91FC911197EC
:104F60001192ED93FC932AE932E0820E931ED40154
:104F70008D919C9126E63DEF820E931EE817F9076E
:104F800011F40C9422342FB7F894F401EA56FD4F33
:104F9000808191810196918380832FBFECECF2E0B8
:104FA0008E0E9F1ED4018C91E4E3FDEF8E0E9F1EAA
:104FB000882311F00C9476332DE832E039AB28AB1E
:104FC00058A92D965FAF2D9789A92E968FAF2E9752
:104FD00006E912E045E4D601A357BD4FC655DF4FA1
:104FE000B983A883CA5AD040F9E84F2EF2E05F2E69
:104FF0004C0C5D1CB60167567D4F51E0E5E92E2E45
:10500000E2E03E2E2C0C3D1C31E9632E32E0732E83
:105010006C0C7D1CF601ED56FD4F6896FFAFEEAFB0
:105020006897960129573D4F6A963FAF2EAF6A9712
:105030008FB7F894D7012D913C918FBFF5018081F6
:1050400091812817390708F039C0C655DF4FA8816C
:10505000B981CA5AD040ED91FC91119740838D914E
:105060009C91119701968D939C93F201208131813F
:105070008217930709F446C62FB7F894D7018D918C
:105080009C911197019611969C938E932FBFDB01F3
:10509000ED91FC9111975193ED93FC93D1018D917A
:1050A0009C91E817F90709F419C62FB7F894F30192
:1050B000808191810196918380832FBFD8014D918A
:1050C0008D01442309F0B4CFE8A9F9A94081442314
:1050D00009F49DC42D968FAD2D972E969FAD2E97DA
:1050E0009C01D901B60163577D4F29E8222E22E0A9
:1050F000322E2C0C3D1C860107561D4F51E095E9C0
:10510000492E92E0592E4C0C5D1C81E9682E82E0FC
:10511000782E6C0C7D1C96012D563D4F66963FAF48
:105120002EAF669787E892E0C80ED91E29C02FB728
:10513000F894F701808191810196918380832FBF3C
:10514000F80120813181F90151939F01F8013183E8
:105150002083F201808191812817390709F4C8C59D
:105160002FB7F894F3018081918101969183808318
:105170002FBF11964C9111971196442309F447C4FF
:105180008FB7F894F701208131818FBFF5018081BD
:1051900091812817390768F7FB0180819181FC0113
:1051A0004083FB0180819181019691838083F1018D
:1051B000208131818217930709F0B9CFF6018081F0
:1051C0009181FB0191838083B2CFCC56DF4FE88180
:1051D000F981C459D04080819181D8018D939C93ED
:1051E0006BC9CA56DF4FA881B981C659D0408D918D
:1051F0009C91C655DF4FE881F981CA5AD04091830E
:10520000808341C9C057DF4FE881F981C059D04040
:1052100080819181DB018D939C93E9C9CE56DF4F4C
:10522000A881B981C259D0408D919C91C655DF4F5C
:10523000E881F981CA5AD04091838083BFC9CC5597
:10524000DF4FE881F981C45AD04080819181D80133
:105250008D939C930C94241FCA55DF4FA881B9816C
:10526000C65AD0408D919C91C655DF4FE881F98197
:10527000CA5AD040918380830C940A1FC056DF4FD6
:10528000E881F981C05AD04080819181DB018D9302
:105290009C930C94C31FCE55DF4FA881B981C25A8D
:1052A000D0408D919C91C655DF4FE881F981CA5A53
:1052B000D040918380830C94A91FC456DF4FE881AE
:1052C000F981CC59D04080819181D8018D939C93F4
:1052D0000C94C620C256DF4FA881B981CE59D04068
:1052E0008D919C91C655DF4FE881F981CA5AD04013
:1052F000918380830C94AC20C856DF4FE881F981FC
:10530000C859D04080819181DB018D939C930C948E
:105310006321C656DF4FA881B981CA59D0408D910B
:105320009C91C655DF4FE881F981CA5AD0409183DC
:1053300080830C94492124EC32E0820E931ED40128
:105340008D919D910D90BC91A02D8EA39FA3A8A798
:10535000B9A7ECE3FDEF8E0E9F1E00EA602E02E07F
:10536000702E49E4960123573D4FC655DF4F3983D0
:105370002883CA5AD04019E8212E12E0312E2C0C75
:105380003D1C860107561D4F51E0B6016B567D4FFF
:10539000B1E94B2EB2E05B2E4C0C5D1CC6018D5664
:1053A0009D4FC457DF4F99838883CC58D040D60196
:1053B000A957BD4FC257DF4FB983A883CE58D040FD
:1053C0008FB7F894F701208131818FBFD5018D917E
:1053D0009C912817390708F039C0C655DF4FA881BE
:1053E000B981CA5AD040ED91FC91119740838D91BB
:1053F0009C91119701968D939C93F10120813181AD
:105400008217930709F433C52FB7F894D7018D910C
:105410009C911197019611969C938E932FBFD80162
:10542000ED91FC9111975193ED93FC93DB018D91DC
:105430009C91E817F90709F40EC52FB7F894F2010B
:10544000808191810196918380832FBFD3014D91FB
:105450003D01442309F0B4CF81E2C855DF4FE88114
:10546000F981C85AD04011928A95E9F76EA17FA1BF
:1054700088A599A545E021E08E010F5F1F4F0E948E
:1054800070C44981442309F480C08E010E5F1F4F10
:10549000960123573D4FC655DF4F39832883CA5A9B
:1054A000D040A9E84A2EA2E05A2E4C0C5D1CB60151
:1054B00067567D4F51E0F5E92F2EF2E03F2E2C0C80
:1054C0003D1CE1E96E2EE2E07E2E6C0C7D1CC601D7
:1054D0008D569D4FC857DF4F99838883C858D04059
:1054E000D601A957BD4FC657DF4FB983A883CA5805
:1054F000D0408FB7F894F701208131818FBFD5015B
:105500008D919C912817390708F039C0C655DF4F97
:10551000A881B981CA5AD040ED91FC91119740837E
:105520008D919C91119701968D939C93F20120810E
:1055300031818217930709F4D4C42FB7F894D701A7
:105540008D919C911197019611969C938E932FBFEC
:10555000DB01ED91FC9111975193ED93FC93D101F7
:105560008D919C91E817F90709F4AFC42FB7F8940F
:10557000F301808191810196918380832FBFD801AF
:105580004D918D01442309F0B4CFE8ECF2E08E0E8A
:105590009F1ED401ED91FC9128E33DEF820E931EF6
:1055A00080819181A281B3818AA39BA3ACA3BDA377
:1055B0003CE8632E32E0732E4FE2D601A357BD4F75
:1055C000C655DF4FB983A883CA5AD04029E8222E96
:1055D00022E0322E2C0C3D1C860107561D4F51E057
:1055E000B6016B567D4F91E9492E92E0592E4C0C35
:1055F0005D1CF601ED56FD4FCC57DF4FF983E88374
:10560000C458D040960129573D4FCA57DF4F3983C0
:105610002883C658D0408FB7F894D7012D913C917C
:105620008FBFF501808191812817390708F039C0B3
:10563000C655DF4FA881B981CA5AD040ED91FC917F
:10564000119740838D919C91119701968D939C9316
:10565000F101208131818217930709F4EBC32FB741
:10566000F894D7018D919C911197019611969C9376
:105670008E932FBFD801ED91FC9111975193ED932B
:10568000FC93DB018D919C91E817F90709F4C6C3DF
:105690002FB7F894F20180819181019691838083E4
:1056A0002FBFD3014D913D01442309F0B4CF81E2D6
:1056B000C855DF4FE881F981C85AD04011928A95C8
:1056C000E9F76AA17BA18CA19DA145E021E08E01B3
:1056D0000F5F1F4F0E9470C44981442309F480C0AA
:1056E0008E010E5F1F4F960123573D4FC655DF4F6A
:1056F00039832883CA5AD04089E8482E82E0582E40
:105700004C0C5D1CB60167567D4F51E0B5E92B2E60
:10571000B2E03B2E2C0C3D1CA1E96A2EA2E07A2EB1
:105720006C0C7D1CC6018D569D4FC058DF4F998370
:105730008883C058D040D601A957BD4FCE57DF4F00
:10574000B983A883C258D0408FB7F894F70120815D
:1057500031818FBFD5018D919C912817390708F0B1
:1057600039C0C655DF4FA881B981CA5AD040ED91E2
:10577000FC91119740838D919C91119701968D9387
:105780009C93F201208131818217930709F48CC325
:105790002FB7F894D7018D919C911197019611968E
:1057A0009C938E932FBFDB01ED91FC911197519348
:1057B000ED93FC93D1018D919C91E817F90709F4C1
:1057C00067C32FB7F894F30180819181019691838B
:1057D00080832FBFD8014D918D01442309F0B4CFB0
:1057E000ECECF2E08E0E9F1ED4018C91E4E3FDEF11
:1057F0008E0E9F1E882309F02DC122EA32E03FA7BA
:105800002EA75EA52B965FAF2B978FA52C968FAFFB
:105810002C9707EA12E040E2D601A357BD4FC655C8
:10582000DF4FB983A883CA5AD040F9E84F2EF2E07F
:105830005F2E4C0C5D1CB60167567D4F51E0E5E9CB
:105840002E2EE2E03E2E2C0C3D1C31E9632E32E080
:10585000732E6C0C7D1CF601ED56FD4FEE96FFAFDE
:10586000EEAFEE97960129573D4FC258DF4F39836F
:105870002883CE57D0408FB7F894D7012D913C9113
:105880008FBFF501808191812817390708F039C051
:10589000C655DF4FA881B981CA5AD040ED91FC911D
:1058A000119740838D919C91119701968D939C93B4
:1058B000F201208131818217930709F4FEC12FB7CD
:1058C000F894D7018D919C911197019611969C9314
:1058D0008E932FBFDB01ED91FC9111975193ED93C6
:1058E000FC93D1018D919C91E817F90709F4DBC174
:1058F0002FB7F894F3018081918101969183808381
:105900002FBFD8014D918D01442309F0B4CFEEA5EE
:10591000FFA54081442309F473C02B968FAD2B97CC
:105920002C969FAD2C979C01D901B60163577D4FF2
:1059300029E8222E22E0322E2C0C3D1C860107562F
:105940001D4F51E095E9492E92E0592E4C0C5D1CFB
:1059500081E9682E82E0782E6C0C7D1CC6018D5684
:105960009D4FEC969FAF8EAFEC97E7E8F2E0CE0E3E
:10597000DF1E8FB7F894F701208131818FBFF501C9
:105980008081918128173907A0F5FB0180819181E1
:10599000FC014083FB01808191810196918380838A
:1059A000F101208131818217930709F4E4C12FB7F7
:1059B000F894F701808191810196918380832FBFB4
:1059C000F80120813181F90151939F01F801318360
:1059D0002083F201808191812817390709F4C1C120
:1059E0002FB7F894F3018081918101969183808390
:1059F0002FBF11964C9111971196442309F0B9CFFE
:105A00009401235F3C4F60963FAF2EAF6097609646
:105A1000AEADBFAD60978D919C9141970CF072C275
:105A2000C555DF4F0FB6F894DEBF0FBECDBFCF9187
:105A3000DF911F910F91FF90EF90DF90CF90BF907B
:105A4000AF909F908F907F906F905F904F903F901E
:105A50002F90089544EA52E05FA74EA7D2CEE8EC1B
:105A6000F2E08E0E9F1ED401ED91FC9128E33DEFF4
:105A7000820E931E80819181A281B3818AA79BA708
:105A8000ACA7BDA73CE8632E32E0732E4FE2D601EF
:105A9000A357BD4FC655DF4FB983A883CA5AD0401C
:105AA00029E8222E22E0322E2C0C3D1C86010756BE
:105AB0001D4F51E0B6016B567D4F91E9492E92E0A2
:105AC000592E4C0C5D1CF601ED56FD4FA896FFAF0C
:105AD000EEAFA897960129573D4FAA963FAF2EAF3C
